{
	"contracts/block2.sol": {
		"CryptoMonster": {
			"abi": [
				{
					"inputs": [],
					"stateMutability": "nonpayable",
					"type": "constructor"
				},
				{
					"anonymous": false,
					"inputs": [
						{
							"indexed": true,
							"internalType": "address",
							"name": "owner",
							"type": "address"
						},
						{
							"indexed": true,
							"internalType": "address",
							"name": "spender",
							"type": "address"
						},
						{
							"indexed": false,
							"internalType": "uint256",
							"name": "value",
							"type": "uint256"
						}
					],
					"name": "Approval",
					"type": "event"
				},
				{
					"anonymous": false,
					"inputs": [
						{
							"indexed": true,
							"internalType": "address",
							"name": "from",
							"type": "address"
						},
						{
							"indexed": true,
							"internalType": "address",
							"name": "to",
							"type": "address"
						},
						{
							"indexed": false,
							"internalType": "uint256",
							"name": "value",
							"type": "uint256"
						}
					],
					"name": "Transfer",
					"type": "event"
				},
				{
					"inputs": [
						{
							"internalType": "address",
							"name": "owner",
							"type": "address"
						},
						{
							"internalType": "address",
							"name": "spender",
							"type": "address"
						}
					],
					"name": "allowance",
					"outputs": [
						{
							"internalType": "uint256",
							"name": "",
							"type": "uint256"
						}
					],
					"stateMutability": "view",
					"type": "function"
				},
				{
					"inputs": [
						{
							"internalType": "address",
							"name": "spender",
							"type": "address"
						},
						{
							"internalType": "uint256",
							"name": "amount",
							"type": "uint256"
						}
					],
					"name": "approve",
					"outputs": [
						{
							"internalType": "bool",
							"name": "",
							"type": "bool"
						}
					],
					"stateMutability": "nonpayable",
					"type": "function"
				},
				{
					"inputs": [
						{
							"internalType": "uint256",
							"name": "_idTicket",
							"type": "uint256"
						},
						{
							"internalType": "bool",
							"name": "status",
							"type": "bool"
						}
					],
					"name": "approveWhiteList",
					"outputs": [],
					"stateMutability": "nonpayable",
					"type": "function"
				},
				{
					"inputs": [
						{
							"internalType": "address",
							"name": "account",
							"type": "address"
						}
					],
					"name": "balanceOf",
					"outputs": [
						{
							"internalType": "uint256",
							"name": "",
							"type": "uint256"
						}
					],
					"stateMutability": "view",
					"type": "function"
				},
				{
					"inputs": [
						{
							"internalType": "uint256",
							"name": "_amount",
							"type": "uint256"
						}
					],
					"name": "buyPrivateToken",
					"outputs": [
						{
							"internalType": "string",
							"name": "",
							"type": "string"
						}
					],
					"stateMutability": "payable",
					"type": "function"
				},
				{
					"inputs": [
						{
							"internalType": "uint256",
							"name": "_amount",
							"type": "uint256"
						}
					],
					"name": "buyPublicToken",
					"outputs": [],
					"stateMutability": "payable",
					"type": "function"
				},
				{
					"inputs": [],
					"name": "decimals",
					"outputs": [
						{
							"internalType": "uint8",
							"name": "",
							"type": "uint8"
						}
					],
					"stateMutability": "view",
					"type": "function"
				},
				{
					"inputs": [
						{
							"internalType": "address",
							"name": "spender",
							"type": "address"
						},
						{
							"internalType": "uint256",
							"name": "subtractedValue",
							"type": "uint256"
						}
					],
					"name": "decreaseAllowance",
					"outputs": [
						{
							"internalType": "bool",
							"name": "",
							"type": "bool"
						}
					],
					"stateMutability": "nonpayable",
					"type": "function"
				},
				{
					"inputs": [
						{
							"internalType": "address",
							"name": "spender",
							"type": "address"
						},
						{
							"internalType": "uint256",
							"name": "addedValue",
							"type": "uint256"
						}
					],
					"name": "increaseAllowance",
					"outputs": [
						{
							"internalType": "bool",
							"name": "",
							"type": "bool"
						}
					],
					"stateMutability": "nonpayable",
					"type": "function"
				},
				{
					"inputs": [
						{
							"internalType": "string",
							"name": "_name",
							"type": "string"
						}
					],
					"name": "makePrivateReq",
					"outputs": [],
					"stateMutability": "nonpayable",
					"type": "function"
				},
				{
					"inputs": [],
					"name": "name",
					"outputs": [
						{
							"internalType": "string",
							"name": "",
							"type": "string"
						}
					],
					"stateMutability": "view",
					"type": "function"
				},
				{
					"inputs": [],
					"name": "owner",
					"outputs": [
						{
							"internalType": "address",
							"name": "",
							"type": "address"
						}
					],
					"stateMutability": "view",
					"type": "function"
				},
				{
					"inputs": [],
					"name": "privateCoins",
					"outputs": [
						{
							"internalType": "uint256",
							"name": "",
							"type": "uint256"
						}
					],
					"stateMutability": "view",
					"type": "function"
				},
				{
					"inputs": [],
					"name": "pubCoins",
					"outputs": [
						{
							"internalType": "uint256",
							"name": "",
							"type": "uint256"
						}
					],
					"stateMutability": "view",
					"type": "function"
				},
				{
					"inputs": [
						{
							"internalType": "uint256",
							"name": "",
							"type": "uint256"
						}
					],
					"name": "requests",
					"outputs": [
						{
							"internalType": "string",
							"name": "name",
							"type": "string"
						},
						{
							"internalType": "address",
							"name": "usrAddress",
							"type": "address"
						}
					],
					"stateMutability": "view",
					"type": "function"
				},
				{
					"inputs": [],
					"name": "seedCoins",
					"outputs": [
						{
							"internalType": "uint256",
							"name": "",
							"type": "uint256"
						}
					],
					"stateMutability": "view",
					"type": "function"
				},
				{
					"inputs": [],
					"name": "symbol",
					"outputs": [
						{
							"internalType": "string",
							"name": "",
							"type": "string"
						}
					],
					"stateMutability": "view",
					"type": "function"
				},
				{
					"inputs": [],
					"name": "timeDif",
					"outputs": [
						{
							"internalType": "uint256",
							"name": "",
							"type": "uint256"
						}
					],
					"stateMutability": "view",
					"type": "function"
				},
				{
					"inputs": [],
					"name": "timeNow",
					"outputs": [
						{
							"internalType": "uint256",
							"name": "",
							"type": "uint256"
						}
					],
					"stateMutability": "view",
					"type": "function"
				},
				{
					"inputs": [],
					"name": "timeStart",
					"outputs": [
						{
							"internalType": "uint256",
							"name": "",
							"type": "uint256"
						}
					],
					"stateMutability": "view",
					"type": "function"
				},
				{
					"inputs": [],
					"name": "timeSystem",
					"outputs": [
						{
							"internalType": "uint256",
							"name": "",
							"type": "uint256"
						}
					],
					"stateMutability": "view",
					"type": "function"
				},
				{
					"inputs": [],
					"name": "totalCoins",
					"outputs": [
						{
							"internalType": "uint256",
							"name": "",
							"type": "uint256"
						}
					],
					"stateMutability": "view",
					"type": "function"
				},
				{
					"inputs": [],
					"name": "totalSupply",
					"outputs": [
						{
							"internalType": "uint256",
							"name": "",
							"type": "uint256"
						}
					],
					"stateMutability": "view",
					"type": "function"
				},
				{
					"inputs": [
						{
							"internalType": "address",
							"name": "to",
							"type": "address"
						},
						{
							"internalType": "uint256",
							"name": "amount",
							"type": "uint256"
						}
					],
					"name": "transfer",
					"outputs": [
						{
							"internalType": "bool",
							"name": "",
							"type": "bool"
						}
					],
					"stateMutability": "nonpayable",
					"type": "function"
				},
				{
					"inputs": [
						{
							"internalType": "address",
							"name": "from",
							"type": "address"
						},
						{
							"internalType": "address",
							"name": "to",
							"type": "address"
						},
						{
							"internalType": "uint256",
							"name": "amount",
							"type": "uint256"
						}
					],
					"name": "transferFrom",
					"outputs": [
						{
							"internalType": "bool",
							"name": "",
							"type": "bool"
						}
					],
					"stateMutability": "nonpayable",
					"type": "function"
				},
				{
					"inputs": [
						{
							"internalType": "address",
							"name": "",
							"type": "address"
						}
					],
					"name": "userRole",
					"outputs": [
						{
							"internalType": "enum CryptoMonster.Role",
							"name": "",
							"type": "uint8"
						}
					],
					"stateMutability": "view",
					"type": "function"
				},
				{
					"inputs": [
						{
							"internalType": "uint256",
							"name": "",
							"type": "uint256"
						}
					],
					"name": "whiteList",
					"outputs": [
						{
							"internalType": "address",
							"name": "",
							"type": "address"
						}
					],
					"stateMutability": "view",
					"type": "function"
				}
			],
			"devdoc": {
				"events": {
					"Approval(address,address,uint256)": {
						"details": "Emitted when the allowance of a `spender` for an `owner` is set by a call to {approve}. `value` is the new allowance."
					},
					"Transfer(address,address,uint256)": {
						"details": "Emitted when `value` tokens are moved from one account (`from`) to another (`to`). Note that `value` may be zero."
					}
				},
				"kind": "dev",
				"methods": {
					"allowance(address,address)": {
						"details": "See {IERC20-allowance}."
					},
					"approve(address,uint256)": {
						"details": "See {IERC20-approve}. NOTE: If `amount` is the maximum `uint256`, the allowance is not updated on `transferFrom`. This is semantically equivalent to an infinite approval. Requirements: - `spender` cannot be the zero address."
					},
					"balanceOf(address)": {
						"details": "See {IERC20-balanceOf}."
					},
					"decimals()": {
						"details": "Returns the number of decimals used to get its user representation. For example, if `decimals` equals `2`, a balance of `505` tokens should be displayed to a user as `5.05` (`505 / 10 ** 2`). Tokens usually opt for a value of 18, imitating the relationship between Ether and Wei. This is the default value returned by this function, unless it's overridden. NOTE: This information is only used for _display_ purposes: it in no way affects any of the arithmetic of the contract, including {IERC20-balanceOf} and {IERC20-transfer}."
					},
					"decreaseAllowance(address,uint256)": {
						"details": "Atomically decreases the allowance granted to `spender` by the caller. This is an alternative to {approve} that can be used as a mitigation for problems described in {IERC20-approve}. Emits an {Approval} event indicating the updated allowance. Requirements: - `spender` cannot be the zero address. - `spender` must have allowance for the caller of at least `subtractedValue`."
					},
					"increaseAllowance(address,uint256)": {
						"details": "Atomically increases the allowance granted to `spender` by the caller. This is an alternative to {approve} that can be used as a mitigation for problems described in {IERC20-approve}. Emits an {Approval} event indicating the updated allowance. Requirements: - `spender` cannot be the zero address."
					},
					"name()": {
						"details": "Returns the name of the token."
					},
					"symbol()": {
						"details": "Returns the symbol of the token, usually a shorter version of the name."
					},
					"totalSupply()": {
						"details": "See {IERC20-totalSupply}."
					},
					"transfer(address,uint256)": {
						"details": "See {IERC20-transfer}. Requirements: - `to` cannot be the zero address. - the caller must have a balance of at least `amount`."
					},
					"transferFrom(address,address,uint256)": {
						"details": "See {IERC20-transferFrom}. Emits an {Approval} event indicating the updated allowance. This is not required by the EIP. See the note at the beginning of {ERC20}. NOTE: Does not update the allowance if the current allowance is the maximum `uint256`. Requirements: - `from` and `to` cannot be the zero address. - `from` must have a balance of at least `amount`. - the caller must have allowance for ``from``'s tokens of at least `amount`."
					}
				},
				"version": 1
			},
			"evm": {
				"assembly": "    /* \"contracts/block2.sol\":114:3282  contract CryptoMonster is ERC20(\"CryptoMonster\", \"CMON\") {... */\n  mstore(0x40, 0x80)\n    /* \"contracts/block2.sol\":202:221  10000000 * 10 ** 12 */\n  0x8ac7230489e80000\n    /* \"contracts/block2.sol\":177:221  uint public totalCoins = 10000000 * 10 ** 12 */\n  0x05\n  sstore\n    /* \"contracts/block2.sol\":269:272  100 */\n  0x64\n    /* \"contracts/block2.sol\":264:266  10 */\n  0x0a\n    /* \"contracts/block2.sol\":251:261  totalCoins */\n  sload(0x05)\n    /* \"contracts/block2.sol\":251:266  totalCoins * 10 */\n  tag_1\n  swap2\n  swap1\n  tag_2\n  jump\t// in\ntag_1:\n    /* \"contracts/block2.sol\":251:272  totalCoins * 10 / 100 */\n  tag_3\n  swap2\n  swap1\n  tag_4\n  jump\t// in\ntag_3:\n    /* \"contracts/block2.sol\":227:272  uint public seedCoins = totalCoins * 10 / 100 */\n  0x06\n  sstore\n    /* \"contracts/block2.sol\":323:326  100 */\n  0x64\n    /* \"contracts/block2.sol\":318:320  30 */\n  0x1e\n    /* \"contracts/block2.sol\":305:315  totalCoins */\n  sload(0x05)\n    /* \"contracts/block2.sol\":305:320  totalCoins * 30 */\n  tag_5\n  swap2\n  swap1\n  tag_2\n  jump\t// in\ntag_5:\n    /* \"contracts/block2.sol\":305:326  totalCoins * 30 / 100 */\n  tag_6\n  swap2\n  swap1\n  tag_4\n  jump\t// in\ntag_6:\n    /* \"contracts/block2.sol\":278:326  uint public privateCoins = totalCoins * 30 / 100 */\n  0x07\n  sstore\n    /* \"contracts/block2.sol\":373:376  100 */\n  0x64\n    /* \"contracts/block2.sol\":368:370  60 */\n  0x3c\n    /* \"contracts/block2.sol\":355:365  totalCoins */\n  sload(0x05)\n    /* \"contracts/block2.sol\":355:370  totalCoins * 60 */\n  tag_7\n  swap2\n  swap1\n  tag_2\n  jump\t// in\ntag_7:\n    /* \"contracts/block2.sol\":355:376  totalCoins * 60 / 100 */\n  tag_8\n  swap2\n  swap1\n  tag_4\n  jump\t// in\ntag_8:\n    /* \"contracts/block2.sol\":332:376  uint public pubCoins = totalCoins * 60 / 100 */\n  0x08\n  sstore\n    /* \"contracts/block2.sol\":794:1567  constructor() {... */\n  callvalue\n  dup1\n  iszero\n  tag_9\n  jumpi\n  0x00\n  dup1\n  revert\ntag_9:\n  pop\n    /* \"@openzeppelin/contracts/token/ERC20/ERC20.sol\":1980:2093  constructor(string memory name_, string memory symbol_) {... */\n  mload(0x40)\n  dup1\n  0x40\n  add\n  0x40\n  mstore\n  dup1\n  0x0d\n  dup2\n  mstore\n  0x20\n  add\n  0x43727970746f4d6f6e7374657200000000000000000000000000000000000000\n  dup2\n  mstore\n  pop\n  mload(0x40)\n  dup1\n  0x40\n  add\n  0x40\n  mstore\n  dup1\n  0x04\n  dup2\n  mstore\n  0x20\n  add\n  0x434d4f4e00000000000000000000000000000000000000000000000000000000\n  dup2\n  mstore\n  pop\n    /* \"@openzeppelin/contracts/token/ERC20/ERC20.sol\":2054:2059  name_ */\n  dup2\n    /* \"@openzeppelin/contracts/token/ERC20/ERC20.sol\":2046:2051  _name */\n  0x03\n    /* \"@openzeppelin/contracts/token/ERC20/ERC20.sol\":2046:2059  _name = name_ */\n  swap1\n  dup2\n  tag_13\n  swap2\n  swap1\n  tag_14\n  jump\t// in\ntag_13:\n  pop\n    /* \"@openzeppelin/contracts/token/ERC20/ERC20.sol\":2079:2086  symbol_ */\n  dup1\n    /* \"@openzeppelin/contracts/token/ERC20/ERC20.sol\":2069:2076  _symbol */\n  0x04\n    /* \"@openzeppelin/contracts/token/ERC20/ERC20.sol\":2069:2086  _symbol = symbol_ */\n  swap1\n  dup2\n  tag_15\n  swap2\n  swap1\n  tag_14\n  jump\t// in\ntag_15:\n  pop\n    /* \"@openzeppelin/contracts/token/ERC20/ERC20.sol\":1980:2093  constructor(string memory name_, string memory symbol_) {... */\n  pop\n  pop\n    /* \"contracts/block2.sol\":826:836  msg.sender */\n  caller\n    /* \"contracts/block2.sol\":818:823  owner */\n  0x0d\n  0x00\n    /* \"contracts/block2.sol\":818:836  owner = msg.sender */\n  0x0100\n  exp\n  dup2\n  sload\n  dup2\n  0xffffffffffffffffffffffffffffffffffffffff\n  mul\n  not\n  and\n  swap1\n  dup4\n  0xffffffffffffffffffffffffffffffffffffffff\n  and\n  mul\n  or\n  swap1\n  sstore\n  pop\n    /* \"contracts/block2.sol\":901:913  Role.Private */\n  0x00\n    /* \"contracts/block2.sol\":846:854  userRole */\n  0x0e\n    /* \"contracts/block2.sol\":846:898  userRole[0xAb8483F64d9C6d1EcF9b849Ae677dD3315835cb2] */\n  0x00\n    /* \"contracts/block2.sol\":855:897  0xAb8483F64d9C6d1EcF9b849Ae677dD3315835cb2 */\n  0xab8483f64d9c6d1ecf9b849ae677dd3315835cb2\n    /* \"contracts/block2.sol\":846:898  userRole[0xAb8483F64d9C6d1EcF9b849Ae677dD3315835cb2] */\n  0xffffffffffffffffffffffffffffffffffffffff\n  and\n  0xffffffffffffffffffffffffffffffffffffffff\n  and\n  dup2\n  mstore\n  0x20\n  add\n  swap1\n  dup2\n  mstore\n  0x20\n  add\n  0x00\n  keccak256\n  0x00\n    /* \"contracts/block2.sol\":846:913  userRole[0xAb8483F64d9C6d1EcF9b849Ae677dD3315835cb2] = Role.Private */\n  0x0100\n  exp\n  dup2\n  sload\n  dup2\n  0xff\n  mul\n  not\n  and\n  swap1\n  dup4\n  0x01\n  dup2\n  gt\n  iszero\n  tag_17\n  jumpi\n  tag_18\n  tag_19\n  jump\t// in\ntag_18:\ntag_17:\n  mul\n  or\n  swap1\n  sstore\n  pop\n    /* \"contracts/block2.sol\":978:991  Role.Provider */\n  0x01\n    /* \"contracts/block2.sol\":923:931  userRole */\n  0x0e\n    /* \"contracts/block2.sol\":923:975  userRole[0x4B20993Bc481177ec7E8f571ceCaE8A9e22C02db] */\n  0x00\n    /* \"contracts/block2.sol\":932:974  0x4B20993Bc481177ec7E8f571ceCaE8A9e22C02db */\n  0x4b20993bc481177ec7e8f571cecae8a9e22c02db\n    /* \"contracts/block2.sol\":923:975  userRole[0x4B20993Bc481177ec7E8f571ceCaE8A9e22C02db] */\n  0xffffffffffffffffffffffffffffffffffffffff\n  and\n  0xffffffffffffffffffffffffffffffffffffffff\n  and\n  dup2\n  mstore\n  0x20\n  add\n  swap1\n  dup2\n  mstore\n  0x20\n  add\n  0x00\n  keccak256\n  0x00\n    /* \"contracts/block2.sol\":923:991  userRole[0x4B20993Bc481177ec7E8f571ceCaE8A9e22C02db] = Role.Provider */\n  0x0100\n  exp\n  dup2\n  sload\n  dup2\n  0xff\n  mul\n  not\n  and\n  swap1\n  dup4\n  0x01\n  dup2\n  gt\n  iszero\n  tag_20\n  jumpi\n  tag_21\n  tag_19\n  jump\t// in\ntag_21:\ntag_20:\n  mul\n  or\n  swap1\n  sstore\n  pop\n    /* \"contracts/block2.sol\":1013:1028  block.timestamp */\n  timestamp\n    /* \"contracts/block2.sol\":1001:1010  timeStart */\n  0x09\n    /* \"contracts/block2.sol\":1001:1028  timeStart = block.timestamp */\n  dup2\n  swap1\n  sstore\n  pop\n    /* \"contracts/block2.sol\":1048:1057  timeStart */\n  sload(0x09)\n    /* \"contracts/block2.sol\":1038:1045  timeNow */\n  0x0a\n    /* \"contracts/block2.sol\":1038:1057  timeNow = timeStart */\n  dup2\n  swap1\n  sstore\n  pop\n    /* \"contracts/block2.sol\":1077:1086  timeStart */\n  sload(0x09)\n    /* \"contracts/block2.sol\":1067:1074  timeDif */\n  0x0b\n    /* \"contracts/block2.sol\":1067:1086  timeDif = timeStart */\n  dup2\n  swap1\n  sstore\n  pop\n    /* \"contracts/block2.sol\":1096:1125  _mint(msg.sender, totalCoins) */\n  tag_22\n    /* \"contracts/block2.sol\":1102:1112  msg.sender */\n  caller\n    /* \"contracts/block2.sol\":1114:1124  totalCoins */\n  sload(0x05)\n    /* \"contracts/block2.sol\":1096:1101  _mint */\n  shl(0x20, tag_23)\n    /* \"contracts/block2.sol\":1096:1125  _mint(msg.sender, totalCoins) */\n  0x20\n  shr\n  jump\t// in\ntag_22:\n    /* \"contracts/block2.sol\":1135:1219  _transfer(msg.sender,0x78731D3Ca6b7E34aC0F824c42a7cC18A495cabaB , 300000 * 10 ** 12) */\n  tag_24\n    /* \"contracts/block2.sol\":1145:1155  msg.sender */\n  caller\n    /* \"contracts/block2.sol\":1156:1198  0x78731D3Ca6b7E34aC0F824c42a7cC18A495cabaB */\n  0x78731d3ca6b7e34ac0f824c42a7cc18a495cabab\n    /* \"contracts/block2.sol\":1201:1218  300000 * 10 ** 12 */\n  0x0429d069189e0000\n    /* \"contracts/block2.sol\":1135:1144  _transfer */\n  shl(0x20, tag_25)\n    /* \"contracts/block2.sol\":1135:1219  _transfer(msg.sender,0x78731D3Ca6b7E34aC0F824c42a7cC18A495cabaB , 300000 * 10 ** 12) */\n  0x20\n  shr\n  jump\t// in\ntag_24:\n    /* \"contracts/block2.sol\":1253:1270  300000 * 10 ** 12 */\n  0x0429d069189e0000\n    /* \"contracts/block2.sol\":1241:1250  seedCoins */\n  sload(0x06)\n    /* \"contracts/block2.sol\":1241:1270  seedCoins - 300000 * 10 ** 12 */\n  tag_26\n  swap2\n  swap1\n  tag_27\n  jump\t// in\ntag_26:\n    /* \"contracts/block2.sol\":1229:1238  seedCoins */\n  0x06\n    /* \"contracts/block2.sol\":1229:1270  seedCoins = seedCoins - 300000 * 10 ** 12 */\n  dup2\n  swap1\n  sstore\n  pop\n    /* \"contracts/block2.sol\":1280:1364  _transfer(msg.sender, 0x617F2E2fD72FD9D5503197092aC168c91465E7f2, 400000 * 10 ** 12) */\n  tag_28\n    /* \"contracts/block2.sol\":1290:1300  msg.sender */\n  caller\n    /* \"contracts/block2.sol\":1302:1344  0x617F2E2fD72FD9D5503197092aC168c91465E7f2 */\n  0x617f2e2fd72fd9d5503197092ac168c91465e7f2\n    /* \"contracts/block2.sol\":1346:1363  400000 * 10 ** 12 */\n  0x058d15e176280000\n    /* \"contracts/block2.sol\":1280:1289  _transfer */\n  shl(0x20, tag_25)\n    /* \"contracts/block2.sol\":1280:1364  _transfer(msg.sender, 0x617F2E2fD72FD9D5503197092aC168c91465E7f2, 400000 * 10 ** 12) */\n  0x20\n  shr\n  jump\t// in\ntag_28:\n    /* \"contracts/block2.sol\":1398:1415  400000 * 10 ** 12 */\n  0x058d15e176280000\n    /* \"contracts/block2.sol\":1386:1395  seedCoins */\n  sload(0x06)\n    /* \"contracts/block2.sol\":1386:1415  seedCoins - 400000 * 10 ** 12 */\n  tag_29\n  swap2\n  swap1\n  tag_27\n  jump\t// in\ntag_29:\n    /* \"contracts/block2.sol\":1374:1383  seedCoins */\n  0x06\n    /* \"contracts/block2.sol\":1374:1415  seedCoins = seedCoins - 400000 * 10 ** 12 */\n  dup2\n  swap1\n  sstore\n  pop\n    /* \"contracts/block2.sol\":1425:1509  _transfer(msg.sender, 0x17F6AD8Ef982297579C203069C1DbfFE4348c372, 200000 * 10 ** 12) */\n  tag_30\n    /* \"contracts/block2.sol\":1435:1445  msg.sender */\n  caller\n    /* \"contracts/block2.sol\":1447:1489  0x17F6AD8Ef982297579C203069C1DbfFE4348c372 */\n  0x17f6ad8ef982297579c203069c1dbffe4348c372\n    /* \"contracts/block2.sol\":1491:1508  200000 * 10 ** 12 */\n  0x02c68af0bb140000\n    /* \"contracts/block2.sol\":1425:1434  _transfer */\n  shl(0x20, tag_25)\n    /* \"contracts/block2.sol\":1425:1509  _transfer(msg.sender, 0x17F6AD8Ef982297579C203069C1DbfFE4348c372, 200000 * 10 ** 12) */\n  0x20\n  shr\n  jump\t// in\ntag_30:\n    /* \"contracts/block2.sol\":1543:1560  200000 * 10 ** 12 */\n  0x02c68af0bb140000\n    /* \"contracts/block2.sol\":1531:1540  seedCoins */\n  sload(0x06)\n    /* \"contracts/block2.sol\":1531:1560  seedCoins - 200000 * 10 ** 12 */\n  tag_31\n  swap2\n  swap1\n  tag_27\n  jump\t// in\ntag_31:\n    /* \"contracts/block2.sol\":1519:1528  seedCoins */\n  0x06\n    /* \"contracts/block2.sol\":1519:1560  seedCoins = seedCoins - 200000 * 10 ** 12 */\n  dup2\n  swap1\n  sstore\n  pop\n    /* \"contracts/block2.sol\":114:3282  contract CryptoMonster is ERC20(\"CryptoMonster\", \"CMON\") {... */\n  jump(tag_32)\n    /* \"@openzeppelin/contracts/token/ERC20/ERC20.sol\":8520:9055  function _mint(address account, uint256 amount) internal virtual {... */\ntag_23:\n    /* \"@openzeppelin/contracts/token/ERC20/ERC20.sol\":8622:8623  0 */\n  0x00\n    /* \"@openzeppelin/contracts/token/ERC20/ERC20.sol\":8603:8624  account != address(0) */\n  0xffffffffffffffffffffffffffffffffffffffff\n  and\n    /* \"@openzeppelin/contracts/token/ERC20/ERC20.sol\":8603:8610  account */\n  dup3\n    /* \"@openzeppelin/contracts/token/ERC20/ERC20.sol\":8603:8624  account != address(0) */\n  0xffffffffffffffffffffffffffffffffffffffff\n  and\n  sub\n    /* \"@openzeppelin/contracts/token/ERC20/ERC20.sol\":8595:8660  require(account != address(0), \"ERC20: mint to the zero address\") */\n  tag_34\n  jumpi\n  mload(0x40)\n  0x08c379a000000000000000000000000000000000000000000000000000000000\n  dup2\n  mstore\n  0x04\n  add\n  tag_35\n  swap1\n  tag_36\n  jump\t// in\ntag_35:\n  mload(0x40)\n  dup1\n  swap2\n  sub\n  swap1\n  revert\ntag_34:\n    /* \"@openzeppelin/contracts/token/ERC20/ERC20.sol\":8671:8720  _beforeTokenTransfer(address(0), account, amount) */\n  tag_37\n    /* \"@openzeppelin/contracts/token/ERC20/ERC20.sol\":8700:8701  0 */\n  0x00\n    /* \"@openzeppelin/contracts/token/ERC20/ERC20.sol\":8704:8711  account */\n  dup4\n    /* \"@openzeppelin/contracts/token/ERC20/ERC20.sol\":8713:8719  amount */\n  dup4\n    /* \"@openzeppelin/contracts/token/ERC20/ERC20.sol\":8671:8691  _beforeTokenTransfer */\n  shl(0x20, tag_38)\n    /* \"@openzeppelin/contracts/token/ERC20/ERC20.sol\":8671:8720  _beforeTokenTransfer(address(0), account, amount) */\n  0x20\n  shr\n  jump\t// in\ntag_37:\n    /* \"@openzeppelin/contracts/token/ERC20/ERC20.sol\":8747:8753  amount */\n  dup1\n    /* \"@openzeppelin/contracts/token/ERC20/ERC20.sol\":8731:8743  _totalSupply */\n  0x02\n  0x00\n    /* \"@openzeppelin/contracts/token/ERC20/ERC20.sol\":8731:8753  _totalSupply += amount */\n  dup3\n  dup3\n  sload\n  tag_39\n  swap2\n  swap1\n  tag_40\n  jump\t// in\ntag_39:\n  swap3\n  pop\n  pop\n  dup2\n  swap1\n  sstore\n  pop\n    /* \"@openzeppelin/contracts/token/ERC20/ERC20.sol\":8921:8927  amount */\n  dup1\n    /* \"@openzeppelin/contracts/token/ERC20/ERC20.sol\":8899:8908  _balances */\n  0x00\n    /* \"@openzeppelin/contracts/token/ERC20/ERC20.sol\":8899:8917  _balances[account] */\n  dup1\n    /* \"@openzeppelin/contracts/token/ERC20/ERC20.sol\":8909:8916  account */\n  dup5\n    /* \"@openzeppelin/contracts/token/ERC20/ERC20.sol\":8899:8917  _balances[account] */\n  0xffffffffffffffffffffffffffffffffffffffff\n  and\n  0xffffffffffffffffffffffffffffffffffffffff\n  and\n  dup2\n  mstore\n  0x20\n  add\n  swap1\n  dup2\n  mstore\n  0x20\n  add\n  0x00\n  keccak256\n  0x00\n    /* \"@openzeppelin/contracts/token/ERC20/ERC20.sol\":8899:8927  _balances[account] += amount */\n  dup3\n  dup3\n  sload\n  add\n  swap3\n  pop\n  pop\n  dup2\n  swap1\n  sstore\n  pop\n    /* \"@openzeppelin/contracts/token/ERC20/ERC20.sol\":8973:8980  account */\n  dup2\n    /* \"@openzeppelin/contracts/token/ERC20/ERC20.sol\":8952:8989  Transfer(address(0), account, amount) */\n  0xffffffffffffffffffffffffffffffffffffffff\n  and\n    /* \"@openzeppelin/contracts/token/ERC20/ERC20.sol\":8969:8970  0 */\n  0x00\n    /* \"@openzeppelin/contracts/token/ERC20/ERC20.sol\":8952:8989  Transfer(address(0), account, amount) */\n  0xffffffffffffffffffffffffffffffffffffffff\n  and\n  0xddf252ad1be2c89b69c2b068fc378daa952ba7f163c4a11628f55a4df523b3ef\n    /* \"@openzeppelin/contracts/token/ERC20/ERC20.sol\":8982:8988  amount */\n  dup4\n    /* \"@openzeppelin/contracts/token/ERC20/ERC20.sol\":8952:8989  Transfer(address(0), account, amount) */\n  mload(0x40)\n  tag_41\n  swap2\n  swap1\n  tag_42\n  jump\t// in\ntag_41:\n  mload(0x40)\n  dup1\n  swap2\n  sub\n  swap1\n  log3\n    /* \"@openzeppelin/contracts/token/ERC20/ERC20.sol\":9000:9048  _afterTokenTransfer(address(0), account, amount) */\n  tag_43\n    /* \"@openzeppelin/contracts/token/ERC20/ERC20.sol\":9028:9029  0 */\n  0x00\n    /* \"@openzeppelin/contracts/token/ERC20/ERC20.sol\":9032:9039  account */\n  dup4\n    /* \"@openzeppelin/contracts/token/ERC20/ERC20.sol\":9041:9047  amount */\n  dup4\n    /* \"@openzeppelin/contracts/token/ERC20/ERC20.sol\":9000:9019  _afterTokenTransfer */\n  shl(0x20, tag_44)\n    /* \"@openzeppelin/contracts/token/ERC20/ERC20.sol\":9000:9048  _afterTokenTransfer(address(0), account, amount) */\n  0x20\n  shr\n  jump\t// in\ntag_43:\n    /* \"@openzeppelin/contracts/token/ERC20/ERC20.sol\":8520:9055  function _mint(address account, uint256 amount) internal virtual {... */\n  pop\n  pop\n  jump\t// out\n    /* \"@openzeppelin/contracts/token/ERC20/ERC20.sol\":7456:8244  function _transfer(address from, address to, uint256 amount) internal virtual {... */\ntag_25:\n    /* \"@openzeppelin/contracts/token/ERC20/ERC20.sol\":7568:7569  0 */\n  0x00\n    /* \"@openzeppelin/contracts/token/ERC20/ERC20.sol\":7552:7570  from != address(0) */\n  0xffffffffffffffffffffffffffffffffffffffff\n  and\n    /* \"@openzeppelin/contracts/token/ERC20/ERC20.sol\":7552:7556  from */\n  dup4\n    /* \"@openzeppelin/contracts/token/ERC20/ERC20.sol\":7552:7570  from != address(0) */\n  0xffffffffffffffffffffffffffffffffffffffff\n  and\n  sub\n    /* \"@openzeppelin/contracts/token/ERC20/ERC20.sol\":7544:7612  require(from != address(0), \"ERC20: transfer from the zero address\") */\n  tag_46\n  jumpi\n  mload(0x40)\n  0x08c379a000000000000000000000000000000000000000000000000000000000\n  dup2\n  mstore\n  0x04\n  add\n  tag_47\n  swap1\n  tag_48\n  jump\t// in\ntag_47:\n  mload(0x40)\n  dup1\n  swap2\n  sub\n  swap1\n  revert\ntag_46:\n    /* \"@openzeppelin/contracts/token/ERC20/ERC20.sol\":7644:7645  0 */\n  0x00\n    /* \"@openzeppelin/contracts/token/ERC20/ERC20.sol\":7630:7646  to != address(0) */\n  0xffffffffffffffffffffffffffffffffffffffff\n  and\n    /* \"@openzeppelin/contracts/token/ERC20/ERC20.sol\":7630:7632  to */\n  dup3\n    /* \"@openzeppelin/contracts/token/ERC20/ERC20.sol\":7630:7646  to != address(0) */\n  0xffffffffffffffffffffffffffffffffffffffff\n  and\n  sub\n    /* \"@openzeppelin/contracts/token/ERC20/ERC20.sol\":7622:7686  require(to != address(0), \"ERC20: transfer to the zero address\") */\n  tag_49\n  jumpi\n  mload(0x40)\n  0x08c379a000000000000000000000000000000000000000000000000000000000\n  dup2\n  mstore\n  0x04\n  add\n  tag_50\n  swap1\n  tag_51\n  jump\t// in\ntag_50:\n  mload(0x40)\n  dup1\n  swap2\n  sub\n  swap1\n  revert\ntag_49:\n    /* \"@openzeppelin/contracts/token/ERC20/ERC20.sol\":7697:7735  _beforeTokenTransfer(from, to, amount) */\n  tag_52\n    /* \"@openzeppelin/contracts/token/ERC20/ERC20.sol\":7718:7722  from */\n  dup4\n    /* \"@openzeppelin/contracts/token/ERC20/ERC20.sol\":7724:7726  to */\n  dup4\n    /* \"@openzeppelin/contracts/token/ERC20/ERC20.sol\":7728:7734  amount */\n  dup4\n    /* \"@openzeppelin/contracts/token/ERC20/ERC20.sol\":7697:7717  _beforeTokenTransfer */\n  shl(0x20, tag_38)\n    /* \"@openzeppelin/contracts/token/ERC20/ERC20.sol\":7697:7735  _beforeTokenTransfer(from, to, amount) */\n  0x20\n  shr\n  jump\t// in\ntag_52:\n    /* \"@openzeppelin/contracts/token/ERC20/ERC20.sol\":7746:7765  uint256 fromBalance */\n  0x00\n    /* \"@openzeppelin/contracts/token/ERC20/ERC20.sol\":7768:7777  _balances */\n  dup1\n    /* \"@openzeppelin/contracts/token/ERC20/ERC20.sol\":7768:7783  _balances[from] */\n  0x00\n    /* \"@openzeppelin/contracts/token/ERC20/ERC20.sol\":7778:7782  from */\n  dup6\n    /* \"@openzeppelin/contracts/token/ERC20/ERC20.sol\":7768:7783  _balances[from] */\n  0xffffffffffffffffffffffffffffffffffffffff\n  and\n  0xffffffffffffffffffffffffffffffffffffffff\n  and\n  dup2\n  mstore\n  0x20\n  add\n  swap1\n  dup2\n  mstore\n  0x20\n  add\n  0x00\n  keccak256\n  sload\n    /* \"@openzeppelin/contracts/token/ERC20/ERC20.sol\":7746:7783  uint256 fromBalance = _balances[from] */\n  swap1\n  pop\n    /* \"@openzeppelin/contracts/token/ERC20/ERC20.sol\":7816:7822  amount */\n  dup2\n    /* \"@openzeppelin/contracts/token/ERC20/ERC20.sol\":7801:7812  fromBalance */\n  dup2\n    /* \"@openzeppelin/contracts/token/ERC20/ERC20.sol\":7801:7822  fromBalance >= amount */\n  lt\n  iszero\n    /* \"@openzeppelin/contracts/token/ERC20/ERC20.sol\":7793:7865  require(fromBalance >= amount, \"ERC20: transfer amount exceeds balance\") */\n  tag_53\n  jumpi\n  mload(0x40)\n  0x08c379a000000000000000000000000000000000000000000000000000000000\n  dup2\n  mstore\n  0x04\n  add\n  tag_54\n  swap1\n  tag_55\n  jump\t// in\ntag_54:\n  mload(0x40)\n  dup1\n  swap2\n  sub\n  swap1\n  revert\ntag_53:\n    /* \"@openzeppelin/contracts/token/ERC20/ERC20.sol\":7931:7937  amount */\n  dup2\n    /* \"@openzeppelin/contracts/token/ERC20/ERC20.sol\":7917:7928  fromBalance */\n  dup2\n    /* \"@openzeppelin/contracts/token/ERC20/ERC20.sol\":7917:7937  fromBalance - amount */\n  sub\n    /* \"@openzeppelin/contracts/token/ERC20/ERC20.sol\":7899:7908  _balances */\n  0x00\n    /* \"@openzeppelin/contracts/token/ERC20/ERC20.sol\":7899:7914  _balances[from] */\n  dup1\n    /* \"@openzeppelin/contracts/token/ERC20/ERC20.sol\":7909:7913  from */\n  dup7\n    /* \"@openzeppelin/contracts/token/ERC20/ERC20.sol\":7899:7914  _balances[from] */\n  0xffffffffffffffffffffffffffffffffffffffff\n  and\n  0xffffffffffffffffffffffffffffffffffffffff\n  and\n  dup2\n  mstore\n  0x20\n  add\n  swap1\n  dup2\n  mstore\n  0x20\n  add\n  0x00\n  keccak256\n    /* \"@openzeppelin/contracts/token/ERC20/ERC20.sol\":7899:7937  _balances[from] = fromBalance - amount */\n  dup2\n  swap1\n  sstore\n  pop\n    /* \"@openzeppelin/contracts/token/ERC20/ERC20.sol\":8131:8137  amount */\n  dup2\n    /* \"@openzeppelin/contracts/token/ERC20/ERC20.sol\":8114:8123  _balances */\n  0x00\n    /* \"@openzeppelin/contracts/token/ERC20/ERC20.sol\":8114:8127  _balances[to] */\n  dup1\n    /* \"@openzeppelin/contracts/token/ERC20/ERC20.sol\":8124:8126  to */\n  dup6\n    /* \"@openzeppelin/contracts/token/ERC20/ERC20.sol\":8114:8127  _balances[to] */\n  0xffffffffffffffffffffffffffffffffffffffff\n  and\n  0xffffffffffffffffffffffffffffffffffffffff\n  and\n  dup2\n  mstore\n  0x20\n  add\n  swap1\n  dup2\n  mstore\n  0x20\n  add\n  0x00\n  keccak256\n  0x00\n    /* \"@openzeppelin/contracts/token/ERC20/ERC20.sol\":8114:8137  _balances[to] += amount */\n  dup3\n  dup3\n  sload\n  add\n  swap3\n  pop\n  pop\n  dup2\n  swap1\n  sstore\n  pop\n    /* \"@openzeppelin/contracts/token/ERC20/ERC20.sol\":8178:8180  to */\n  dup3\n    /* \"@openzeppelin/contracts/token/ERC20/ERC20.sol\":8163:8189  Transfer(from, to, amount) */\n  0xffffffffffffffffffffffffffffffffffffffff\n  and\n    /* \"@openzeppelin/contracts/token/ERC20/ERC20.sol\":8172:8176  from */\n  dup5\n    /* \"@openzeppelin/contracts/token/ERC20/ERC20.sol\":8163:8189  Transfer(from, to, amount) */\n  0xffffffffffffffffffffffffffffffffffffffff\n  and\n  0xddf252ad1be2c89b69c2b068fc378daa952ba7f163c4a11628f55a4df523b3ef\n    /* \"@openzeppelin/contracts/token/ERC20/ERC20.sol\":8182:8188  amount */\n  dup5\n    /* \"@openzeppelin/contracts/token/ERC20/ERC20.sol\":8163:8189  Transfer(from, to, amount) */\n  mload(0x40)\n  tag_56\n  swap2\n  swap1\n  tag_42\n  jump\t// in\ntag_56:\n  mload(0x40)\n  dup1\n  swap2\n  sub\n  swap1\n  log3\n    /* \"@openzeppelin/contracts/token/ERC20/ERC20.sol\":8200:8237  _afterTokenTransfer(from, to, amount) */\n  tag_57\n    /* \"@openzeppelin/contracts/token/ERC20/ERC20.sol\":8220:8224  from */\n  dup5\n    /* \"@openzeppelin/contracts/token/ERC20/ERC20.sol\":8226:8228  to */\n  dup5\n    /* \"@openzeppelin/contracts/token/ERC20/ERC20.sol\":8230:8236  amount */\n  dup5\n    /* \"@openzeppelin/contracts/token/ERC20/ERC20.sol\":8200:8219  _afterTokenTransfer */\n  shl(0x20, tag_44)\n    /* \"@openzeppelin/contracts/token/ERC20/ERC20.sol\":8200:8237  _afterTokenTransfer(from, to, amount) */\n  0x20\n  shr\n  jump\t// in\ntag_57:\n    /* \"@openzeppelin/contracts/token/ERC20/ERC20.sol\":7534:8244  {... */\n  pop\n    /* \"@openzeppelin/contracts/token/ERC20/ERC20.sol\":7456:8244  function _transfer(address from, address to, uint256 amount) internal virtual {... */\n  pop\n  pop\n  pop\n  jump\t// out\n    /* \"@openzeppelin/contracts/token/ERC20/ERC20.sol\":12073:12164  function _beforeTokenTransfer(address from, address to, uint256 amount) internal virtual {} */\ntag_38:\n  pop\n  pop\n  pop\n  jump\t// out\n    /* \"@openzeppelin/contracts/token/ERC20/ERC20.sol\":12752:12842  function _afterTokenTransfer(address from, address to, uint256 amount) internal virtual {} */\ntag_44:\n  pop\n  pop\n  pop\n  jump\t// out\n    /* \"#utility.yul\":7:84   */\ntag_60:\n    /* \"#utility.yul\":44:51   */\n  0x00\n    /* \"#utility.yul\":73:78   */\n  dup2\n    /* \"#utility.yul\":62:78   */\n  swap1\n  pop\n    /* \"#utility.yul\":7:84   */\n  swap2\n  swap1\n  pop\n  jump\t// out\n    /* \"#utility.yul\":90:270   */\ntag_61:\n    /* \"#utility.yul\":138:215   */\n  0x4e487b7100000000000000000000000000000000000000000000000000000000\n    /* \"#utility.yul\":135:136   */\n  0x00\n    /* \"#utility.yul\":128:216   */\n  mstore\n    /* \"#utility.yul\":235:239   */\n  0x11\n    /* \"#utility.yul\":232:233   */\n  0x04\n    /* \"#utility.yul\":225:240   */\n  mstore\n    /* \"#utility.yul\":259:263   */\n  0x24\n    /* \"#utility.yul\":256:257   */\n  0x00\n    /* \"#utility.yul\":249:264   */\n  revert\n    /* \"#utility.yul\":276:686   */\ntag_2:\n    /* \"#utility.yul\":316:323   */\n  0x00\n    /* \"#utility.yul\":339:359   */\n  tag_96\n    /* \"#utility.yul\":357:358   */\n  dup3\n    /* \"#utility.yul\":339:359   */\n  tag_60\n  jump\t// in\ntag_96:\n    /* \"#utility.yul\":334:359   */\n  swap2\n  pop\n    /* \"#utility.yul\":373:393   */\n  tag_97\n    /* \"#utility.yul\":391:392   */\n  dup4\n    /* \"#utility.yul\":373:393   */\n  tag_60\n  jump\t// in\ntag_97:\n    /* \"#utility.yul\":368:393   */\n  swap3\n  pop\n    /* \"#utility.yul\":428:429   */\n  dup3\n    /* \"#utility.yul\":425:426   */\n  dup3\n    /* \"#utility.yul\":421:430   */\n  mul\n    /* \"#utility.yul\":450:480   */\n  tag_98\n    /* \"#utility.yul\":468:479   */\n  dup2\n    /* \"#utility.yul\":450:480   */\n  tag_60\n  jump\t// in\ntag_98:\n    /* \"#utility.yul\":439:480   */\n  swap2\n  pop\n    /* \"#utility.yul\":629:630   */\n  dup3\n    /* \"#utility.yul\":620:627   */\n  dup3\n    /* \"#utility.yul\":616:631   */\n  div\n    /* \"#utility.yul\":613:614   */\n  dup5\n    /* \"#utility.yul\":610:632   */\n  eq\n    /* \"#utility.yul\":590:591   */\n  dup4\n    /* \"#utility.yul\":583:592   */\n  iszero\n    /* \"#utility.yul\":563:646   */\n  or\n    /* \"#utility.yul\":540:679   */\n  tag_99\n  jumpi\n    /* \"#utility.yul\":659:677   */\n  tag_100\n  tag_61\n  jump\t// in\ntag_100:\n    /* \"#utility.yul\":540:679   */\ntag_99:\n    /* \"#utility.yul\":324:686   */\n  pop\n    /* \"#utility.yul\":276:686   */\n  swap3\n  swap2\n  pop\n  pop\n  jump\t// out\n    /* \"#utility.yul\":692:872   */\ntag_62:\n    /* \"#utility.yul\":740:817   */\n  0x4e487b7100000000000000000000000000000000000000000000000000000000\n    /* \"#utility.yul\":737:738   */\n  0x00\n    /* \"#utility.yul\":730:818   */\n  mstore\n    /* \"#utility.yul\":837:841   */\n  0x12\n    /* \"#utility.yul\":834:835   */\n  0x04\n    /* \"#utility.yul\":827:842   */\n  mstore\n    /* \"#utility.yul\":861:865   */\n  0x24\n    /* \"#utility.yul\":858:859   */\n  0x00\n    /* \"#utility.yul\":851:866   */\n  revert\n    /* \"#utility.yul\":878:1063   */\ntag_4:\n    /* \"#utility.yul\":918:919   */\n  0x00\n    /* \"#utility.yul\":935:955   */\n  tag_103\n    /* \"#utility.yul\":953:954   */\n  dup3\n    /* \"#utility.yul\":935:955   */\n  tag_60\n  jump\t// in\ntag_103:\n    /* \"#utility.yul\":930:955   */\n  swap2\n  pop\n    /* \"#utility.yul\":969:989   */\n  tag_104\n    /* \"#utility.yul\":987:988   */\n  dup4\n    /* \"#utility.yul\":969:989   */\n  tag_60\n  jump\t// in\ntag_104:\n    /* \"#utility.yul\":964:989   */\n  swap3\n  pop\n    /* \"#utility.yul\":1008:1009   */\n  dup3\n    /* \"#utility.yul\":998:1033   */\n  tag_105\n  jumpi\n    /* \"#utility.yul\":1013:1031   */\n  tag_106\n  tag_62\n  jump\t// in\ntag_106:\n    /* \"#utility.yul\":998:1033   */\ntag_105:\n    /* \"#utility.yul\":1055:1056   */\n  dup3\n    /* \"#utility.yul\":1052:1053   */\n  dup3\n    /* \"#utility.yul\":1048:1057   */\n  div\n    /* \"#utility.yul\":1043:1057   */\n  swap1\n  pop\n    /* \"#utility.yul\":878:1063   */\n  swap3\n  swap2\n  pop\n  pop\n  jump\t// out\n    /* \"#utility.yul\":1069:1168   */\ntag_63:\n    /* \"#utility.yul\":1121:1127   */\n  0x00\n    /* \"#utility.yul\":1155:1160   */\n  dup2\n    /* \"#utility.yul\":1149:1161   */\n  mload\n    /* \"#utility.yul\":1139:1161   */\n  swap1\n  pop\n    /* \"#utility.yul\":1069:1168   */\n  swap2\n  swap1\n  pop\n  jump\t// out\n    /* \"#utility.yul\":1174:1354   */\ntag_64:\n    /* \"#utility.yul\":1222:1299   */\n  0x4e487b7100000000000000000000000000000000000000000000000000000000\n    /* \"#utility.yul\":1219:1220   */\n  0x00\n    /* \"#utility.yul\":1212:1300   */\n  mstore\n    /* \"#utility.yul\":1319:1323   */\n  0x41\n    /* \"#utility.yul\":1316:1317   */\n  0x04\n    /* \"#utility.yul\":1309:1324   */\n  mstore\n    /* \"#utility.yul\":1343:1347   */\n  0x24\n    /* \"#utility.yul\":1340:1341   */\n  0x00\n    /* \"#utility.yul\":1333:1348   */\n  revert\n    /* \"#utility.yul\":1360:1540   */\ntag_65:\n    /* \"#utility.yul\":1408:1485   */\n  0x4e487b7100000000000000000000000000000000000000000000000000000000\n    /* \"#utility.yul\":1405:1406   */\n  0x00\n    /* \"#utility.yul\":1398:1486   */\n  mstore\n    /* \"#utility.yul\":1505:1509   */\n  0x22\n    /* \"#utility.yul\":1502:1503   */\n  0x04\n    /* \"#utility.yul\":1495:1510   */\n  mstore\n    /* \"#utility.yul\":1529:1533   */\n  0x24\n    /* \"#utility.yul\":1526:1527   */\n  0x00\n    /* \"#utility.yul\":1519:1534   */\n  revert\n    /* \"#utility.yul\":1546:1866   */\ntag_66:\n    /* \"#utility.yul\":1590:1596   */\n  0x00\n    /* \"#utility.yul\":1627:1628   */\n  0x02\n    /* \"#utility.yul\":1621:1625   */\n  dup3\n    /* \"#utility.yul\":1617:1629   */\n  div\n    /* \"#utility.yul\":1607:1629   */\n  swap1\n  pop\n    /* \"#utility.yul\":1674:1675   */\n  0x01\n    /* \"#utility.yul\":1668:1672   */\n  dup3\n    /* \"#utility.yul\":1664:1676   */\n  and\n    /* \"#utility.yul\":1695:1713   */\n  dup1\n    /* \"#utility.yul\":1685:1766   */\n  tag_111\n  jumpi\n    /* \"#utility.yul\":1751:1755   */\n  0x7f\n    /* \"#utility.yul\":1743:1749   */\n  dup3\n    /* \"#utility.yul\":1739:1756   */\n  and\n    /* \"#utility.yul\":1729:1756   */\n  swap2\n  pop\n    /* \"#utility.yul\":1685:1766   */\ntag_111:\n    /* \"#utility.yul\":1813:1815   */\n  0x20\n    /* \"#utility.yul\":1805:1811   */\n  dup3\n    /* \"#utility.yul\":1802:1816   */\n  lt\n    /* \"#utility.yul\":1782:1800   */\n  dup2\n    /* \"#utility.yul\":1779:1817   */\n  sub\n    /* \"#utility.yul\":1776:1860   */\n  tag_112\n  jumpi\n    /* \"#utility.yul\":1832:1850   */\n  tag_113\n  tag_65\n  jump\t// in\ntag_113:\n    /* \"#utility.yul\":1776:1860   */\ntag_112:\n    /* \"#utility.yul\":1597:1866   */\n  pop\n    /* \"#utility.yul\":1546:1866   */\n  swap2\n  swap1\n  pop\n  jump\t// out\n    /* \"#utility.yul\":1872:2013   */\ntag_67:\n    /* \"#utility.yul\":1921:1925   */\n  0x00\n    /* \"#utility.yul\":1944:1947   */\n  dup2\n    /* \"#utility.yul\":1936:1947   */\n  swap1\n  pop\n    /* \"#utility.yul\":1967:1970   */\n  dup2\n    /* \"#utility.yul\":1964:1965   */\n  0x00\n    /* \"#utility.yul\":1957:1971   */\n  mstore\n    /* \"#utility.yul\":2001:2005   */\n  0x20\n    /* \"#utility.yul\":1998:1999   */\n  0x00\n    /* \"#utility.yul\":1988:2006   */\n  keccak256\n    /* \"#utility.yul\":1980:2006   */\n  swap1\n  pop\n    /* \"#utility.yul\":1872:2013   */\n  swap2\n  swap1\n  pop\n  jump\t// out\n    /* \"#utility.yul\":2019:2112   */\ntag_68:\n    /* \"#utility.yul\":2056:2062   */\n  0x00\n    /* \"#utility.yul\":2103:2105   */\n  0x20\n    /* \"#utility.yul\":2098:2100   */\n  0x1f\n    /* \"#utility.yul\":2091:2096   */\n  dup4\n    /* \"#utility.yul\":2087:2101   */\n  add\n    /* \"#utility.yul\":2083:2106   */\n  div\n    /* \"#utility.yul\":2073:2106   */\n  swap1\n  pop\n    /* \"#utility.yul\":2019:2112   */\n  swap2\n  swap1\n  pop\n  jump\t// out\n    /* \"#utility.yul\":2118:2225   */\ntag_69:\n    /* \"#utility.yul\":2162:2170   */\n  0x00\n    /* \"#utility.yul\":2212:2217   */\n  dup3\n    /* \"#utility.yul\":2206:2210   */\n  dup3\n    /* \"#utility.yul\":2202:2218   */\n  shl\n    /* \"#utility.yul\":2181:2218   */\n  swap1\n  pop\n    /* \"#utility.yul\":2118:2225   */\n  swap3\n  swap2\n  pop\n  pop\n  jump\t// out\n    /* \"#utility.yul\":2231:2624   */\ntag_70:\n    /* \"#utility.yul\":2300:2306   */\n  0x00\n    /* \"#utility.yul\":2350:2351   */\n  0x08\n    /* \"#utility.yul\":2338:2348   */\n  dup4\n    /* \"#utility.yul\":2334:2352   */\n  mul\n    /* \"#utility.yul\":2373:2470   */\n  tag_118\n    /* \"#utility.yul\":2403:2469   */\n  0xffffffffffffffffffffffffffffffffffffffffffffffffffffffffffffffff\n    /* \"#utility.yul\":2392:2401   */\n  dup3\n    /* \"#utility.yul\":2373:2470   */\n  tag_69\n  jump\t// in\ntag_118:\n    /* \"#utility.yul\":2491:2530   */\n  tag_119\n    /* \"#utility.yul\":2521:2529   */\n  dup7\n    /* \"#utility.yul\":2510:2519   */\n  dup4\n    /* \"#utility.yul\":2491:2530   */\n  tag_69\n  jump\t// in\ntag_119:\n    /* \"#utility.yul\":2479:2530   */\n  swap6\n  pop\n    /* \"#utility.yul\":2563:2567   */\n  dup1\n    /* \"#utility.yul\":2559:2568   */\n  not\n    /* \"#utility.yul\":2552:2557   */\n  dup5\n    /* \"#utility.yul\":2548:2569   */\n  and\n    /* \"#utility.yul\":2539:2569   */\n  swap4\n  pop\n    /* \"#utility.yul\":2612:2616   */\n  dup1\n    /* \"#utility.yul\":2602:2610   */\n  dup7\n    /* \"#utility.yul\":2598:2617   */\n  and\n    /* \"#utility.yul\":2591:2596   */\n  dup5\n    /* \"#utility.yul\":2588:2618   */\n  or\n    /* \"#utility.yul\":2578:2618   */\n  swap3\n  pop\n    /* \"#utility.yul\":2307:2624   */\n  pop\n  pop\n    /* \"#utility.yul\":2231:2624   */\n  swap4\n  swap3\n  pop\n  pop\n  pop\n  jump\t// out\n    /* \"#utility.yul\":2630:2690   */\ntag_71:\n    /* \"#utility.yul\":2658:2661   */\n  0x00\n    /* \"#utility.yul\":2679:2684   */\n  dup2\n    /* \"#utility.yul\":2672:2684   */\n  swap1\n  pop\n    /* \"#utility.yul\":2630:2690   */\n  swap2\n  swap1\n  pop\n  jump\t// out\n    /* \"#utility.yul\":2696:2838   */\ntag_72:\n    /* \"#utility.yul\":2746:2755   */\n  0x00\n    /* \"#utility.yul\":2779:2832   */\n  tag_122\n    /* \"#utility.yul\":2797:2831   */\n  tag_123\n    /* \"#utility.yul\":2806:2830   */\n  tag_124\n    /* \"#utility.yul\":2824:2829   */\n  dup5\n    /* \"#utility.yul\":2806:2830   */\n  tag_60\n  jump\t// in\ntag_124:\n    /* \"#utility.yul\":2797:2831   */\n  tag_71\n  jump\t// in\ntag_123:\n    /* \"#utility.yul\":2779:2832   */\n  tag_60\n  jump\t// in\ntag_122:\n    /* \"#utility.yul\":2766:2832   */\n  swap1\n  pop\n    /* \"#utility.yul\":2696:2838   */\n  swap2\n  swap1\n  pop\n  jump\t// out\n    /* \"#utility.yul\":2844:2919   */\ntag_73:\n    /* \"#utility.yul\":2887:2890   */\n  0x00\n    /* \"#utility.yul\":2908:2913   */\n  dup2\n    /* \"#utility.yul\":2901:2913   */\n  swap1\n  pop\n    /* \"#utility.yul\":2844:2919   */\n  swap2\n  swap1\n  pop\n  jump\t// out\n    /* \"#utility.yul\":2925:3194   */\ntag_74:\n    /* \"#utility.yul\":3035:3074   */\n  tag_127\n    /* \"#utility.yul\":3066:3073   */\n  dup4\n    /* \"#utility.yul\":3035:3074   */\n  tag_72\n  jump\t// in\ntag_127:\n    /* \"#utility.yul\":3096:3187   */\n  tag_128\n    /* \"#utility.yul\":3145:3186   */\n  tag_129\n    /* \"#utility.yul\":3169:3185   */\n  dup3\n    /* \"#utility.yul\":3145:3186   */\n  tag_73\n  jump\t// in\ntag_129:\n    /* \"#utility.yul\":3137:3143   */\n  dup5\n    /* \"#utility.yul\":3130:3134   */\n  dup5\n    /* \"#utility.yul\":3124:3135   */\n  sload\n    /* \"#utility.yul\":3096:3187   */\n  tag_70\n  jump\t// in\ntag_128:\n    /* \"#utility.yul\":3090:3094   */\n  dup3\n    /* \"#utility.yul\":3083:3188   */\n  sstore\n    /* \"#utility.yul\":3001:3194   */\n  pop\n    /* \"#utility.yul\":2925:3194   */\n  pop\n  pop\n  pop\n  jump\t// out\n    /* \"#utility.yul\":3200:3273   */\ntag_75:\n    /* \"#utility.yul\":3245:3248   */\n  0x00\n    /* \"#utility.yul\":3200:3273   */\n  swap1\n  jump\t// out\n    /* \"#utility.yul\":3279:3468   */\ntag_76:\n    /* \"#utility.yul\":3356:3388   */\n  tag_132\n  tag_75\n  jump\t// in\ntag_132:\n    /* \"#utility.yul\":3397:3462   */\n  tag_133\n    /* \"#utility.yul\":3455:3461   */\n  dup2\n    /* \"#utility.yul\":3447:3453   */\n  dup5\n    /* \"#utility.yul\":3441:3445   */\n  dup5\n    /* \"#utility.yul\":3397:3462   */\n  tag_74\n  jump\t// in\ntag_133:\n    /* \"#utility.yul\":3332:3468   */\n  pop\n    /* \"#utility.yul\":3279:3468   */\n  pop\n  pop\n  jump\t// out\n    /* \"#utility.yul\":3474:3660   */\ntag_77:\n    /* \"#utility.yul\":3534:3654   */\ntag_135:\n    /* \"#utility.yul\":3551:3554   */\n  dup2\n    /* \"#utility.yul\":3544:3549   */\n  dup2\n    /* \"#utility.yul\":3541:3555   */\n  lt\n    /* \"#utility.yul\":3534:3654   */\n  iszero\n  tag_137\n  jumpi\n    /* \"#utility.yul\":3605:3644   */\n  tag_138\n    /* \"#utility.yul\":3642:3643   */\n  0x00\n    /* \"#utility.yul\":3635:3640   */\n  dup3\n    /* \"#utility.yul\":3605:3644   */\n  tag_76\n  jump\t// in\ntag_138:\n    /* \"#utility.yul\":3578:3579   */\n  0x01\n    /* \"#utility.yul\":3571:3576   */\n  dup2\n    /* \"#utility.yul\":3567:3580   */\n  add\n    /* \"#utility.yul\":3558:3580   */\n  swap1\n  pop\n    /* \"#utility.yul\":3534:3654   */\n  jump(tag_135)\ntag_137:\n    /* \"#utility.yul\":3474:3660   */\n  pop\n  pop\n  jump\t// out\n    /* \"#utility.yul\":3666:4209   */\ntag_78:\n    /* \"#utility.yul\":3767:3769   */\n  0x1f\n    /* \"#utility.yul\":3762:3765   */\n  dup3\n    /* \"#utility.yul\":3759:3770   */\n  gt\n    /* \"#utility.yul\":3756:4202   */\n  iszero\n  tag_140\n  jumpi\n    /* \"#utility.yul\":3801:3839   */\n  tag_141\n    /* \"#utility.yul\":3833:3838   */\n  dup2\n    /* \"#utility.yul\":3801:3839   */\n  tag_67\n  jump\t// in\ntag_141:\n    /* \"#utility.yul\":3885:3914   */\n  tag_142\n    /* \"#utility.yul\":3903:3913   */\n  dup5\n    /* \"#utility.yul\":3885:3914   */\n  tag_68\n  jump\t// in\ntag_142:\n    /* \"#utility.yul\":3875:3883   */\n  dup2\n    /* \"#utility.yul\":3871:3915   */\n  add\n    /* \"#utility.yul\":4068:4070   */\n  0x20\n    /* \"#utility.yul\":4056:4066   */\n  dup6\n    /* \"#utility.yul\":4053:4071   */\n  lt\n    /* \"#utility.yul\":4050:4099   */\n  iszero\n  tag_143\n  jumpi\n    /* \"#utility.yul\":4089:4097   */\n  dup2\n    /* \"#utility.yul\":4074:4097   */\n  swap1\n  pop\n    /* \"#utility.yul\":4050:4099   */\ntag_143:\n    /* \"#utility.yul\":4112:4192   */\n  tag_144\n    /* \"#utility.yul\":4168:4190   */\n  tag_145\n    /* \"#utility.yul\":4186:4189   */\n  dup6\n    /* \"#utility.yul\":4168:4190   */\n  tag_68\n  jump\t// in\ntag_145:\n    /* \"#utility.yul\":4158:4166   */\n  dup4\n    /* \"#utility.yul\":4154:4191   */\n  add\n    /* \"#utility.yul\":4141:4152   */\n  dup3\n    /* \"#utility.yul\":4112:4192   */\n  tag_77\n  jump\t// in\ntag_144:\n    /* \"#utility.yul\":3771:4202   */\n  pop\n  pop\n    /* \"#utility.yul\":3756:4202   */\ntag_140:\n    /* \"#utility.yul\":3666:4209   */\n  pop\n  pop\n  pop\n  jump\t// out\n    /* \"#utility.yul\":4215:4332   */\ntag_79:\n    /* \"#utility.yul\":4269:4277   */\n  0x00\n    /* \"#utility.yul\":4319:4324   */\n  dup3\n    /* \"#utility.yul\":4313:4317   */\n  dup3\n    /* \"#utility.yul\":4309:4325   */\n  shr\n    /* \"#utility.yul\":4288:4325   */\n  swap1\n  pop\n    /* \"#utility.yul\":4215:4332   */\n  swap3\n  swap2\n  pop\n  pop\n  jump\t// out\n    /* \"#utility.yul\":4338:4507   */\ntag_80:\n    /* \"#utility.yul\":4382:4388   */\n  0x00\n    /* \"#utility.yul\":4415:4466   */\n  tag_148\n    /* \"#utility.yul\":4463:4464   */\n  0x00\n    /* \"#utility.yul\":4459:4465   */\n  not\n    /* \"#utility.yul\":4451:4456   */\n  dup5\n    /* \"#utility.yul\":4448:4449   */\n  0x08\n    /* \"#utility.yul\":4444:4457   */\n  mul\n    /* \"#utility.yul\":4415:4466   */\n  tag_79\n  jump\t// in\ntag_148:\n    /* \"#utility.yul\":4411:4467   */\n  not\n    /* \"#utility.yul\":4496:4500   */\n  dup1\n    /* \"#utility.yul\":4490:4494   */\n  dup4\n    /* \"#utility.yul\":4486:4501   */\n  and\n    /* \"#utility.yul\":4476:4501   */\n  swap2\n  pop\n    /* \"#utility.yul\":4389:4507   */\n  pop\n    /* \"#utility.yul\":4338:4507   */\n  swap3\n  swap2\n  pop\n  pop\n  jump\t// out\n    /* \"#utility.yul\":4512:4807   */\ntag_81:\n    /* \"#utility.yul\":4588:4592   */\n  0x00\n    /* \"#utility.yul\":4734:4763   */\n  tag_150\n    /* \"#utility.yul\":4759:4762   */\n  dup4\n    /* \"#utility.yul\":4753:4757   */\n  dup4\n    /* \"#utility.yul\":4734:4763   */\n  tag_80\n  jump\t// in\ntag_150:\n    /* \"#utility.yul\":4726:4763   */\n  swap2\n  pop\n    /* \"#utility.yul\":4796:4799   */\n  dup3\n    /* \"#utility.yul\":4793:4794   */\n  0x02\n    /* \"#utility.yul\":4789:4800   */\n  mul\n    /* \"#utility.yul\":4783:4787   */\n  dup3\n    /* \"#utility.yul\":4780:4801   */\n  or\n    /* \"#utility.yul\":4772:4801   */\n  swap1\n  pop\n    /* \"#utility.yul\":4512:4807   */\n  swap3\n  swap2\n  pop\n  pop\n  jump\t// out\n    /* \"#utility.yul\":4812:6207   */\ntag_14:\n    /* \"#utility.yul\":4929:4966   */\n  tag_152\n    /* \"#utility.yul\":4962:4965   */\n  dup3\n    /* \"#utility.yul\":4929:4966   */\n  tag_63\n  jump\t// in\ntag_152:\n    /* \"#utility.yul\":5031:5049   */\n  0xffffffffffffffff\n    /* \"#utility.yul\":5023:5029   */\n  dup2\n    /* \"#utility.yul\":5020:5050   */\n  gt\n    /* \"#utility.yul\":5017:5073   */\n  iszero\n  tag_153\n  jumpi\n    /* \"#utility.yul\":5053:5071   */\n  tag_154\n  tag_64\n  jump\t// in\ntag_154:\n    /* \"#utility.yul\":5017:5073   */\ntag_153:\n    /* \"#utility.yul\":5097:5135   */\n  tag_155\n    /* \"#utility.yul\":5129:5133   */\n  dup3\n    /* \"#utility.yul\":5123:5134   */\n  sload\n    /* \"#utility.yul\":5097:5135   */\n  tag_66\n  jump\t// in\ntag_155:\n    /* \"#utility.yul\":5182:5249   */\n  tag_156\n    /* \"#utility.yul\":5242:5248   */\n  dup3\n    /* \"#utility.yul\":5234:5240   */\n  dup3\n    /* \"#utility.yul\":5228:5232   */\n  dup6\n    /* \"#utility.yul\":5182:5249   */\n  tag_78\n  jump\t// in\ntag_156:\n    /* \"#utility.yul\":5276:5277   */\n  0x00\n    /* \"#utility.yul\":5300:5304   */\n  0x20\n    /* \"#utility.yul\":5287:5304   */\n  swap1\n  pop\n    /* \"#utility.yul\":5332:5334   */\n  0x1f\n    /* \"#utility.yul\":5324:5330   */\n  dup4\n    /* \"#utility.yul\":5321:5335   */\n  gt\n    /* \"#utility.yul\":5349:5350   */\n  0x01\n    /* \"#utility.yul\":5344:5962   */\n  dup2\n  eq\n  tag_158\n  jumpi\n    /* \"#utility.yul\":6006:6007   */\n  0x00\n    /* \"#utility.yul\":6023:6029   */\n  dup5\n    /* \"#utility.yul\":6020:6097   */\n  iszero\n  tag_159\n  jumpi\n    /* \"#utility.yul\":6072:6081   */\n  dup3\n    /* \"#utility.yul\":6067:6070   */\n  dup8\n    /* \"#utility.yul\":6063:6082   */\n  add\n    /* \"#utility.yul\":6057:6083   */\n  mload\n    /* \"#utility.yul\":6048:6083   */\n  swap1\n  pop\n    /* \"#utility.yul\":6020:6097   */\ntag_159:\n    /* \"#utility.yul\":6123:6190   */\n  tag_160\n    /* \"#utility.yul\":6183:6189   */\n  dup6\n    /* \"#utility.yul\":6176:6181   */\n  dup3\n    /* \"#utility.yul\":6123:6190   */\n  tag_81\n  jump\t// in\ntag_160:\n    /* \"#utility.yul\":6117:6121   */\n  dup7\n    /* \"#utility.yul\":6110:6191   */\n  sstore\n    /* \"#utility.yul\":5979:6201   */\n  pop\n    /* \"#utility.yul\":5314:6201   */\n  jump(tag_157)\n    /* \"#utility.yul\":5344:5962   */\ntag_158:\n    /* \"#utility.yul\":5396:5400   */\n  0x1f\n    /* \"#utility.yul\":5392:5401   */\n  not\n    /* \"#utility.yul\":5384:5390   */\n  dup5\n    /* \"#utility.yul\":5380:5402   */\n  and\n    /* \"#utility.yul\":5430:5467   */\n  tag_161\n    /* \"#utility.yul\":5462:5466   */\n  dup7\n    /* \"#utility.yul\":5430:5467   */\n  tag_67\n  jump\t// in\ntag_161:\n    /* \"#utility.yul\":5489:5490   */\n  0x00\n    /* \"#utility.yul\":5503:5711   */\ntag_162:\n    /* \"#utility.yul\":5517:5524   */\n  dup3\n    /* \"#utility.yul\":5514:5515   */\n  dup2\n    /* \"#utility.yul\":5511:5525   */\n  lt\n    /* \"#utility.yul\":5503:5711   */\n  iszero\n  tag_164\n  jumpi\n    /* \"#utility.yul\":5596:5605   */\n  dup5\n    /* \"#utility.yul\":5591:5594   */\n  dup10\n    /* \"#utility.yul\":5587:5606   */\n  add\n    /* \"#utility.yul\":5581:5607   */\n  mload\n    /* \"#utility.yul\":5573:5579   */\n  dup3\n    /* \"#utility.yul\":5566:5608   */\n  sstore\n    /* \"#utility.yul\":5647:5648   */\n  0x01\n    /* \"#utility.yul\":5639:5645   */\n  dup3\n    /* \"#utility.yul\":5635:5649   */\n  add\n    /* \"#utility.yul\":5625:5649   */\n  swap2\n  pop\n    /* \"#utility.yul\":5694:5696   */\n  0x20\n    /* \"#utility.yul\":5683:5692   */\n  dup6\n    /* \"#utility.yul\":5679:5697   */\n  add\n    /* \"#utility.yul\":5666:5697   */\n  swap5\n  pop\n    /* \"#utility.yul\":5540:5544   */\n  0x20\n    /* \"#utility.yul\":5537:5538   */\n  dup2\n    /* \"#utility.yul\":5533:5545   */\n  add\n    /* \"#utility.yul\":5528:5545   */\n  swap1\n  pop\n    /* \"#utility.yul\":5503:5711   */\n  jump(tag_162)\ntag_164:\n    /* \"#utility.yul\":5739:5745   */\n  dup7\n    /* \"#utility.yul\":5730:5737   */\n  dup4\n    /* \"#utility.yul\":5727:5746   */\n  lt\n    /* \"#utility.yul\":5724:5903   */\n  iszero\n  tag_165\n  jumpi\n    /* \"#utility.yul\":5797:5806   */\n  dup5\n    /* \"#utility.yul\":5792:5795   */\n  dup10\n    /* \"#utility.yul\":5788:5807   */\n  add\n    /* \"#utility.yul\":5782:5808   */\n  mload\n    /* \"#utility.yul\":5840:5888   */\n  tag_166\n    /* \"#utility.yul\":5882:5886   */\n  0x1f\n    /* \"#utility.yul\":5874:5880   */\n  dup10\n    /* \"#utility.yul\":5870:5887   */\n  and\n    /* \"#utility.yul\":5859:5868   */\n  dup3\n    /* \"#utility.yul\":5840:5888   */\n  tag_80\n  jump\t// in\ntag_166:\n    /* \"#utility.yul\":5832:5838   */\n  dup4\n    /* \"#utility.yul\":5825:5889   */\n  sstore\n    /* \"#utility.yul\":5747:5903   */\n  pop\n    /* \"#utility.yul\":5724:5903   */\ntag_165:\n    /* \"#utility.yul\":5949:5950   */\n  0x01\n    /* \"#utility.yul\":5945:5946   */\n  0x02\n    /* \"#utility.yul\":5937:5943   */\n  dup9\n    /* \"#utility.yul\":5933:5947   */\n  mul\n    /* \"#utility.yul\":5929:5951   */\n  add\n    /* \"#utility.yul\":5923:5927   */\n  dup9\n    /* \"#utility.yul\":5916:5952   */\n  sstore\n    /* \"#utility.yul\":5351:5962   */\n  pop\n  pop\n  pop\n    /* \"#utility.yul\":5314:6201   */\ntag_157:\n  pop\n    /* \"#utility.yul\":4904:6207   */\n  pop\n  pop\n  pop\n    /* \"#utility.yul\":4812:6207   */\n  pop\n  pop\n  jump\t// out\n    /* \"#utility.yul\":6213:6393   */\ntag_19:\n    /* \"#utility.yul\":6261:6338   */\n  0x4e487b7100000000000000000000000000000000000000000000000000000000\n    /* \"#utility.yul\":6258:6259   */\n  0x00\n    /* \"#utility.yul\":6251:6339   */\n  mstore\n    /* \"#utility.yul\":6358:6362   */\n  0x21\n    /* \"#utility.yul\":6355:6356   */\n  0x04\n    /* \"#utility.yul\":6348:6363   */\n  mstore\n    /* \"#utility.yul\":6382:6386   */\n  0x24\n    /* \"#utility.yul\":6379:6380   */\n  0x00\n    /* \"#utility.yul\":6372:6387   */\n  revert\n    /* \"#utility.yul\":6399:6593   */\ntag_27:\n    /* \"#utility.yul\":6439:6443   */\n  0x00\n    /* \"#utility.yul\":6459:6479   */\n  tag_169\n    /* \"#utility.yul\":6477:6478   */\n  dup3\n    /* \"#utility.yul\":6459:6479   */\n  tag_60\n  jump\t// in\ntag_169:\n    /* \"#utility.yul\":6454:6479   */\n  swap2\n  pop\n    /* \"#utility.yul\":6493:6513   */\n  tag_170\n    /* \"#utility.yul\":6511:6512   */\n  dup4\n    /* \"#utility.yul\":6493:6513   */\n  tag_60\n  jump\t// in\ntag_170:\n    /* \"#utility.yul\":6488:6513   */\n  swap3\n  pop\n    /* \"#utility.yul\":6537:6538   */\n  dup3\n    /* \"#utility.yul\":6534:6535   */\n  dup3\n    /* \"#utility.yul\":6530:6539   */\n  sub\n    /* \"#utility.yul\":6522:6539   */\n  swap1\n  pop\n    /* \"#utility.yul\":6561:6562   */\n  dup2\n    /* \"#utility.yul\":6555:6559   */\n  dup2\n    /* \"#utility.yul\":6552:6563   */\n  gt\n    /* \"#utility.yul\":6549:6586   */\n  iszero\n  tag_171\n  jumpi\n    /* \"#utility.yul\":6566:6584   */\n  tag_172\n  tag_61\n  jump\t// in\ntag_172:\n    /* \"#utility.yul\":6549:6586   */\ntag_171:\n    /* \"#utility.yul\":6399:6593   */\n  swap3\n  swap2\n  pop\n  pop\n  jump\t// out\n    /* \"#utility.yul\":6599:6768   */\ntag_82:\n    /* \"#utility.yul\":6683:6694   */\n  0x00\n    /* \"#utility.yul\":6717:6723   */\n  dup3\n    /* \"#utility.yul\":6712:6715   */\n  dup3\n    /* \"#utility.yul\":6705:6724   */\n  mstore\n    /* \"#utility.yul\":6757:6761   */\n  0x20\n    /* \"#utility.yul\":6752:6755   */\n  dup3\n    /* \"#utility.yul\":6748:6762   */\n  add\n    /* \"#utility.yul\":6733:6762   */\n  swap1\n  pop\n    /* \"#utility.yul\":6599:6768   */\n  swap3\n  swap2\n  pop\n  pop\n  jump\t// out\n    /* \"#utility.yul\":6774:6955   */\ntag_83:\n    /* \"#utility.yul\":6914:6947   */\n  0x45524332303a206d696e7420746f20746865207a65726f206164647265737300\n    /* \"#utility.yul\":6910:6911   */\n  0x00\n    /* \"#utility.yul\":6902:6908   */\n  dup3\n    /* \"#utility.yul\":6898:6912   */\n  add\n    /* \"#utility.yul\":6891:6948   */\n  mstore\n    /* \"#utility.yul\":6774:6955   */\n  pop\n  jump\t// out\n    /* \"#utility.yul\":6961:7327   */\ntag_84:\n    /* \"#utility.yul\":7103:7106   */\n  0x00\n    /* \"#utility.yul\":7124:7191   */\n  tag_176\n    /* \"#utility.yul\":7188:7190   */\n  0x1f\n    /* \"#utility.yul\":7183:7186   */\n  dup4\n    /* \"#utility.yul\":7124:7191   */\n  tag_82\n  jump\t// in\ntag_176:\n    /* \"#utility.yul\":7117:7191   */\n  swap2\n  pop\n    /* \"#utility.yul\":7200:7293   */\n  tag_177\n    /* \"#utility.yul\":7289:7292   */\n  dup3\n    /* \"#utility.yul\":7200:7293   */\n  tag_83\n  jump\t// in\ntag_177:\n    /* \"#utility.yul\":7318:7320   */\n  0x20\n    /* \"#utility.yul\":7313:7316   */\n  dup3\n    /* \"#utility.yul\":7309:7321   */\n  add\n    /* \"#utility.yul\":7302:7321   */\n  swap1\n  pop\n    /* \"#utility.yul\":6961:7327   */\n  swap2\n  swap1\n  pop\n  jump\t// out\n    /* \"#utility.yul\":7333:7752   */\ntag_36:\n    /* \"#utility.yul\":7499:7503   */\n  0x00\n    /* \"#utility.yul\":7537:7539   */\n  0x20\n    /* \"#utility.yul\":7526:7535   */\n  dup3\n    /* \"#utility.yul\":7522:7540   */\n  add\n    /* \"#utility.yul\":7514:7540   */\n  swap1\n  pop\n    /* \"#utility.yul\":7586:7595   */\n  dup2\n    /* \"#utility.yul\":7580:7584   */\n  dup2\n    /* \"#utility.yul\":7576:7596   */\n  sub\n    /* \"#utility.yul\":7572:7573   */\n  0x00\n    /* \"#utility.yul\":7561:7570   */\n  dup4\n    /* \"#utility.yul\":7557:7574   */\n  add\n    /* \"#utility.yul\":7550:7597   */\n  mstore\n    /* \"#utility.yul\":7614:7745   */\n  tag_179\n    /* \"#utility.yul\":7740:7744   */\n  dup2\n    /* \"#utility.yul\":7614:7745   */\n  tag_84\n  jump\t// in\ntag_179:\n    /* \"#utility.yul\":7606:7745   */\n  swap1\n  pop\n    /* \"#utility.yul\":7333:7752   */\n  swap2\n  swap1\n  pop\n  jump\t// out\n    /* \"#utility.yul\":7758:7949   */\ntag_40:\n    /* \"#utility.yul\":7798:7801   */\n  0x00\n    /* \"#utility.yul\":7817:7837   */\n  tag_181\n    /* \"#utility.yul\":7835:7836   */\n  dup3\n    /* \"#utility.yul\":7817:7837   */\n  tag_60\n  jump\t// in\ntag_181:\n    /* \"#utility.yul\":7812:7837   */\n  swap2\n  pop\n    /* \"#utility.yul\":7851:7871   */\n  tag_182\n    /* \"#utility.yul\":7869:7870   */\n  dup4\n    /* \"#utility.yul\":7851:7871   */\n  tag_60\n  jump\t// in\ntag_182:\n    /* \"#utility.yul\":7846:7871   */\n  swap3\n  pop\n    /* \"#utility.yul\":7894:7895   */\n  dup3\n    /* \"#utility.yul\":7891:7892   */\n  dup3\n    /* \"#utility.yul\":7887:7896   */\n  add\n    /* \"#utility.yul\":7880:7896   */\n  swap1\n  pop\n    /* \"#utility.yul\":7915:7918   */\n  dup1\n    /* \"#utility.yul\":7912:7913   */\n  dup3\n    /* \"#utility.yul\":7909:7919   */\n  gt\n    /* \"#utility.yul\":7906:7942   */\n  iszero\n  tag_183\n  jumpi\n    /* \"#utility.yul\":7922:7940   */\n  tag_184\n  tag_61\n  jump\t// in\ntag_184:\n    /* \"#utility.yul\":7906:7942   */\ntag_183:\n    /* \"#utility.yul\":7758:7949   */\n  swap3\n  swap2\n  pop\n  pop\n  jump\t// out\n    /* \"#utility.yul\":7955:8073   */\ntag_85:\n    /* \"#utility.yul\":8042:8066   */\n  tag_186\n    /* \"#utility.yul\":8060:8065   */\n  dup2\n    /* \"#utility.yul\":8042:8066   */\n  tag_60\n  jump\t// in\ntag_186:\n    /* \"#utility.yul\":8037:8040   */\n  dup3\n    /* \"#utility.yul\":8030:8067   */\n  mstore\n    /* \"#utility.yul\":7955:8073   */\n  pop\n  pop\n  jump\t// out\n    /* \"#utility.yul\":8079:8301   */\ntag_42:\n    /* \"#utility.yul\":8172:8176   */\n  0x00\n    /* \"#utility.yul\":8210:8212   */\n  0x20\n    /* \"#utility.yul\":8199:8208   */\n  dup3\n    /* \"#utility.yul\":8195:8213   */\n  add\n    /* \"#utility.yul\":8187:8213   */\n  swap1\n  pop\n    /* \"#utility.yul\":8223:8294   */\n  tag_188\n    /* \"#utility.yul\":8291:8292   */\n  0x00\n    /* \"#utility.yul\":8280:8289   */\n  dup4\n    /* \"#utility.yul\":8276:8293   */\n  add\n    /* \"#utility.yul\":8267:8273   */\n  dup5\n    /* \"#utility.yul\":8223:8294   */\n  tag_85\n  jump\t// in\ntag_188:\n    /* \"#utility.yul\":8079:8301   */\n  swap3\n  swap2\n  pop\n  pop\n  jump\t// out\n    /* \"#utility.yul\":8307:8531   */\ntag_86:\n    /* \"#utility.yul\":8447:8481   */\n  0x45524332303a207472616e736665722066726f6d20746865207a65726f206164\n    /* \"#utility.yul\":8443:8444   */\n  0x00\n    /* \"#utility.yul\":8435:8441   */\n  dup3\n    /* \"#utility.yul\":8431:8445   */\n  add\n    /* \"#utility.yul\":8424:8482   */\n  mstore\n    /* \"#utility.yul\":8516:8523   */\n  0x6472657373000000000000000000000000000000000000000000000000000000\n    /* \"#utility.yul\":8511:8513   */\n  0x20\n    /* \"#utility.yul\":8503:8509   */\n  dup3\n    /* \"#utility.yul\":8499:8514   */\n  add\n    /* \"#utility.yul\":8492:8524   */\n  mstore\n    /* \"#utility.yul\":8307:8531   */\n  pop\n  jump\t// out\n    /* \"#utility.yul\":8537:8903   */\ntag_87:\n    /* \"#utility.yul\":8679:8682   */\n  0x00\n    /* \"#utility.yul\":8700:8767   */\n  tag_191\n    /* \"#utility.yul\":8764:8766   */\n  0x25\n    /* \"#utility.yul\":8759:8762   */\n  dup4\n    /* \"#utility.yul\":8700:8767   */\n  tag_82\n  jump\t// in\ntag_191:\n    /* \"#utility.yul\":8693:8767   */\n  swap2\n  pop\n    /* \"#utility.yul\":8776:8869   */\n  tag_192\n    /* \"#utility.yul\":8865:8868   */\n  dup3\n    /* \"#utility.yul\":8776:8869   */\n  tag_86\n  jump\t// in\ntag_192:\n    /* \"#utility.yul\":8894:8896   */\n  0x40\n    /* \"#utility.yul\":8889:8892   */\n  dup3\n    /* \"#utility.yul\":8885:8897   */\n  add\n    /* \"#utility.yul\":8878:8897   */\n  swap1\n  pop\n    /* \"#utility.yul\":8537:8903   */\n  swap2\n  swap1\n  pop\n  jump\t// out\n    /* \"#utility.yul\":8909:9328   */\ntag_48:\n    /* \"#utility.yul\":9075:9079   */\n  0x00\n    /* \"#utility.yul\":9113:9115   */\n  0x20\n    /* \"#utility.yul\":9102:9111   */\n  dup3\n    /* \"#utility.yul\":9098:9116   */\n  add\n    /* \"#utility.yul\":9090:9116   */\n  swap1\n  pop\n    /* \"#utility.yul\":9162:9171   */\n  dup2\n    /* \"#utility.yul\":9156:9160   */\n  dup2\n    /* \"#utility.yul\":9152:9172   */\n  sub\n    /* \"#utility.yul\":9148:9149   */\n  0x00\n    /* \"#utility.yul\":9137:9146   */\n  dup4\n    /* \"#utility.yul\":9133:9150   */\n  add\n    /* \"#utility.yul\":9126:9173   */\n  mstore\n    /* \"#utility.yul\":9190:9321   */\n  tag_194\n    /* \"#utility.yul\":9316:9320   */\n  dup2\n    /* \"#utility.yul\":9190:9321   */\n  tag_87\n  jump\t// in\ntag_194:\n    /* \"#utility.yul\":9182:9321   */\n  swap1\n  pop\n    /* \"#utility.yul\":8909:9328   */\n  swap2\n  swap1\n  pop\n  jump\t// out\n    /* \"#utility.yul\":9334:9556   */\ntag_88:\n    /* \"#utility.yul\":9474:9508   */\n  0x45524332303a207472616e7366657220746f20746865207a65726f2061646472\n    /* \"#utility.yul\":9470:9471   */\n  0x00\n    /* \"#utility.yul\":9462:9468   */\n  dup3\n    /* \"#utility.yul\":9458:9472   */\n  add\n    /* \"#utility.yul\":9451:9509   */\n  mstore\n    /* \"#utility.yul\":9543:9548   */\n  0x6573730000000000000000000000000000000000000000000000000000000000\n    /* \"#utility.yul\":9538:9540   */\n  0x20\n    /* \"#utility.yul\":9530:9536   */\n  dup3\n    /* \"#utility.yul\":9526:9541   */\n  add\n    /* \"#utility.yul\":9519:9549   */\n  mstore\n    /* \"#utility.yul\":9334:9556   */\n  pop\n  jump\t// out\n    /* \"#utility.yul\":9562:9928   */\ntag_89:\n    /* \"#utility.yul\":9704:9707   */\n  0x00\n    /* \"#utility.yul\":9725:9792   */\n  tag_197\n    /* \"#utility.yul\":9789:9791   */\n  0x23\n    /* \"#utility.yul\":9784:9787   */\n  dup4\n    /* \"#utility.yul\":9725:9792   */\n  tag_82\n  jump\t// in\ntag_197:\n    /* \"#utility.yul\":9718:9792   */\n  swap2\n  pop\n    /* \"#utility.yul\":9801:9894   */\n  tag_198\n    /* \"#utility.yul\":9890:9893   */\n  dup3\n    /* \"#utility.yul\":9801:9894   */\n  tag_88\n  jump\t// in\ntag_198:\n    /* \"#utility.yul\":9919:9921   */\n  0x40\n    /* \"#utility.yul\":9914:9917   */\n  dup3\n    /* \"#utility.yul\":9910:9922   */\n  add\n    /* \"#utility.yul\":9903:9922   */\n  swap1\n  pop\n    /* \"#utility.yul\":9562:9928   */\n  swap2\n  swap1\n  pop\n  jump\t// out\n    /* \"#utility.yul\":9934:10353   */\ntag_51:\n    /* \"#utility.yul\":10100:10104   */\n  0x00\n    /* \"#utility.yul\":10138:10140   */\n  0x20\n    /* \"#utility.yul\":10127:10136   */\n  dup3\n    /* \"#utility.yul\":10123:10141   */\n  add\n    /* \"#utility.yul\":10115:10141   */\n  swap1\n  pop\n    /* \"#utility.yul\":10187:10196   */\n  dup2\n    /* \"#utility.yul\":10181:10185   */\n  dup2\n    /* \"#utility.yul\":10177:10197   */\n  sub\n    /* \"#utility.yul\":10173:10174   */\n  0x00\n    /* \"#utility.yul\":10162:10171   */\n  dup4\n    /* \"#utility.yul\":10158:10175   */\n  add\n    /* \"#utility.yul\":10151:10198   */\n  mstore\n    /* \"#utility.yul\":10215:10346   */\n  tag_200\n    /* \"#utility.yul\":10341:10345   */\n  dup2\n    /* \"#utility.yul\":10215:10346   */\n  tag_89\n  jump\t// in\ntag_200:\n    /* \"#utility.yul\":10207:10346   */\n  swap1\n  pop\n    /* \"#utility.yul\":9934:10353   */\n  swap2\n  swap1\n  pop\n  jump\t// out\n    /* \"#utility.yul\":10359:10584   */\ntag_90:\n    /* \"#utility.yul\":10499:10533   */\n  0x45524332303a207472616e7366657220616d6f756e7420657863656564732062\n    /* \"#utility.yul\":10495:10496   */\n  0x00\n    /* \"#utility.yul\":10487:10493   */\n  dup3\n    /* \"#utility.yul\":10483:10497   */\n  add\n    /* \"#utility.yul\":10476:10534   */\n  mstore\n    /* \"#utility.yul\":10568:10576   */\n  0x616c616e63650000000000000000000000000000000000000000000000000000\n    /* \"#utility.yul\":10563:10565   */\n  0x20\n    /* \"#utility.yul\":10555:10561   */\n  dup3\n    /* \"#utility.yul\":10551:10566   */\n  add\n    /* \"#utility.yul\":10544:10577   */\n  mstore\n    /* \"#utility.yul\":10359:10584   */\n  pop\n  jump\t// out\n    /* \"#utility.yul\":10590:10956   */\ntag_91:\n    /* \"#utility.yul\":10732:10735   */\n  0x00\n    /* \"#utility.yul\":10753:10820   */\n  tag_203\n    /* \"#utility.yul\":10817:10819   */\n  0x26\n    /* \"#utility.yul\":10812:10815   */\n  dup4\n    /* \"#utility.yul\":10753:10820   */\n  tag_82\n  jump\t// in\ntag_203:\n    /* \"#utility.yul\":10746:10820   */\n  swap2\n  pop\n    /* \"#utility.yul\":10829:10922   */\n  tag_204\n    /* \"#utility.yul\":10918:10921   */\n  dup3\n    /* \"#utility.yul\":10829:10922   */\n  tag_90\n  jump\t// in\ntag_204:\n    /* \"#utility.yul\":10947:10949   */\n  0x40\n    /* \"#utility.yul\":10942:10945   */\n  dup3\n    /* \"#utility.yul\":10938:10950   */\n  add\n    /* \"#utility.yul\":10931:10950   */\n  swap1\n  pop\n    /* \"#utility.yul\":10590:10956   */\n  swap2\n  swap1\n  pop\n  jump\t// out\n    /* \"#utility.yul\":10962:11381   */\ntag_55:\n    /* \"#utility.yul\":11128:11132   */\n  0x00\n    /* \"#utility.yul\":11166:11168   */\n  0x20\n    /* \"#utility.yul\":11155:11164   */\n  dup3\n    /* \"#utility.yul\":11151:11169   */\n  add\n    /* \"#utility.yul\":11143:11169   */\n  swap1\n  pop\n    /* \"#utility.yul\":11215:11224   */\n  dup2\n    /* \"#utility.yul\":11209:11213   */\n  dup2\n    /* \"#utility.yul\":11205:11225   */\n  sub\n    /* \"#utility.yul\":11201:11202   */\n  0x00\n    /* \"#utility.yul\":11190:11199   */\n  dup4\n    /* \"#utility.yul\":11186:11203   */\n  add\n    /* \"#utility.yul\":11179:11226   */\n  mstore\n    /* \"#utility.yul\":11243:11374   */\n  tag_206\n    /* \"#utility.yul\":11369:11373   */\n  dup2\n    /* \"#utility.yul\":11243:11374   */\n  tag_91\n  jump\t// in\ntag_206:\n    /* \"#utility.yul\":11235:11374   */\n  swap1\n  pop\n    /* \"#utility.yul\":10962:11381   */\n  swap2\n  swap1\n  pop\n  jump\t// out\n    /* \"contracts/block2.sol\":114:3282  contract CryptoMonster is ERC20(\"CryptoMonster\", \"CMON\") {... */\ntag_32:\n  dataSize(sub_0)\n  dup1\n  dataOffset(sub_0)\n  0x00\n  codecopy\n  0x00\n  return\nstop\n\nsub_0: assembly {\n        /* \"contracts/block2.sol\":114:3282  contract CryptoMonster is ERC20(\"CryptoMonster\", \"CMON\") {... */\n      mstore(0x40, 0x80)\n      jumpi(tag_1, lt(calldatasize, 0x04))\n      shr(0xe0, calldataload(0x00))\n      dup1\n      0x70a08231\n      gt\n      tag_29\n      jumpi\n      dup1\n      0xd95660be\n      gt\n      tag_30\n      jumpi\n      dup1\n      0xea7d5165\n      gt\n      tag_31\n      jumpi\n      dup1\n      0xea7d5165\n      eq\n      tag_25\n      jumpi\n      dup1\n      0xec684eb3\n      eq\n      tag_26\n      jumpi\n      dup1\n      0xf2dfd08f\n      eq\n      tag_27\n      jumpi\n      dup1\n      0xfd74d294\n      eq\n      tag_28\n      jumpi\n      jump(tag_1)\n    tag_31:\n      dup1\n      0xd95660be\n      eq\n      tag_22\n      jumpi\n      dup1\n      0xdb8fb88e\n      eq\n      tag_23\n      jumpi\n      dup1\n      0xdd62ed3e\n      eq\n      tag_24\n      jumpi\n      jump(tag_1)\n    tag_30:\n      dup1\n      0x937be371\n      gt\n      tag_32\n      jumpi\n      dup1\n      0x937be371\n      eq\n      tag_18\n      jumpi\n      dup1\n      0x95d89b41\n      eq\n      tag_19\n      jumpi\n      dup1\n      0xa457c2d7\n      eq\n      tag_20\n      jumpi\n      dup1\n      0xa9059cbb\n      eq\n      tag_21\n      jumpi\n      jump(tag_1)\n    tag_32:\n      dup1\n      0x70a08231\n      eq\n      tag_15\n      jumpi\n      dup1\n      0x81d12c58\n      eq\n      tag_16\n      jumpi\n      dup1\n      0x8da5cb5b\n      eq\n      tag_17\n      jumpi\n      jump(tag_1)\n    tag_29:\n      dup1\n      0x26f67490\n      gt\n      tag_33\n      jumpi\n      dup1\n      0x39509351\n      gt\n      tag_34\n      jumpi\n      dup1\n      0x39509351\n      eq\n      tag_11\n      jumpi\n      dup1\n      0x534f5680\n      eq\n      tag_12\n      jumpi\n      dup1\n      0x5c475d42\n      eq\n      tag_13\n      jumpi\n      dup1\n      0x6ff32b22\n      eq\n      tag_14\n      jumpi\n      jump(tag_1)\n    tag_34:\n      dup1\n      0x26f67490\n      eq\n      tag_8\n      jumpi\n      dup1\n      0x313ce567\n      eq\n      tag_9\n      jumpi\n      dup1\n      0x32454dbb\n      eq\n      tag_10\n      jumpi\n      jump(tag_1)\n    tag_33:\n      dup1\n      0x06fdde03\n      eq\n      tag_2\n      jumpi\n      dup1\n      0x095ea7b3\n      eq\n      tag_3\n      jumpi\n      dup1\n      0x13962801\n      eq\n      tag_4\n      jumpi\n      dup1\n      0x18160ddd\n      eq\n      tag_5\n      jumpi\n      dup1\n      0x23b872dd\n      eq\n      tag_6\n      jumpi\n      dup1\n      0x254dc45e\n      eq\n      tag_7\n      jumpi\n    tag_1:\n      0x00\n      dup1\n      revert\n        /* \"@openzeppelin/contracts/token/ERC20/ERC20.sol\":2158:2256  function name() public view virtual override returns (string memory) {... */\n    tag_2:\n      callvalue\n      dup1\n      iszero\n      tag_35\n      jumpi\n      0x00\n      dup1\n      revert\n    tag_35:\n      pop\n      tag_36\n      tag_37\n      jump\t// in\n    tag_36:\n      mload(0x40)\n      tag_38\n      swap2\n      swap1\n      tag_39\n      jump\t// in\n    tag_38:\n      mload(0x40)\n      dup1\n      swap2\n      sub\n      swap1\n      return\n        /* \"@openzeppelin/contracts/token/ERC20/ERC20.sol\":4444:4641  function approve(address spender, uint256 amount) public virtual override returns (bool) {... */\n    tag_3:\n      callvalue\n      dup1\n      iszero\n      tag_40\n      jumpi\n      0x00\n      dup1\n      revert\n    tag_40:\n      pop\n      tag_41\n      0x04\n      dup1\n      calldatasize\n      sub\n      dup2\n      add\n      swap1\n      tag_42\n      swap2\n      swap1\n      tag_43\n      jump\t// in\n    tag_42:\n      tag_44\n      jump\t// in\n    tag_41:\n      mload(0x40)\n      tag_45\n      swap2\n      swap1\n      tag_46\n      jump\t// in\n    tag_45:\n      mload(0x40)\n      dup1\n      swap2\n      sub\n      swap1\n      return\n        /* \"contracts/block2.sol\":460:482  uint public timeSystem */\n    tag_4:\n      callvalue\n      dup1\n      iszero\n      tag_47\n      jumpi\n      0x00\n      dup1\n      revert\n    tag_47:\n      pop\n      tag_48\n      tag_49\n      jump\t// in\n    tag_48:\n      mload(0x40)\n      tag_50\n      swap2\n      swap1\n      tag_51\n      jump\t// in\n    tag_50:\n      mload(0x40)\n      dup1\n      swap2\n      sub\n      swap1\n      return\n        /* \"@openzeppelin/contracts/token/ERC20/ERC20.sol\":3255:3361  function totalSupply() public view virtual override returns (uint256) {... */\n    tag_5:\n      callvalue\n      dup1\n      iszero\n      tag_52\n      jumpi\n      0x00\n      dup1\n      revert\n    tag_52:\n      pop\n      tag_53\n      tag_54\n      jump\t// in\n    tag_53:\n      mload(0x40)\n      tag_55\n      swap2\n      swap1\n      tag_51\n      jump\t// in\n    tag_55:\n      mload(0x40)\n      dup1\n      swap2\n      sub\n      swap1\n      return\n        /* \"@openzeppelin/contracts/token/ERC20/ERC20.sol\":5203:5459  function transferFrom(address from, address to, uint256 amount) public virtual override returns (bool) {... */\n    tag_6:\n      callvalue\n      dup1\n      iszero\n      tag_56\n      jumpi\n      0x00\n      dup1\n      revert\n    tag_56:\n      pop\n      tag_57\n      0x04\n      dup1\n      calldatasize\n      sub\n      dup2\n      add\n      swap1\n      tag_58\n      swap2\n      swap1\n      tag_59\n      jump\t// in\n    tag_58:\n      tag_60\n      jump\t// in\n    tag_57:\n      mload(0x40)\n      tag_61\n      swap2\n      swap1\n      tag_46\n      jump\t// in\n    tag_61:\n      mload(0x40)\n      dup1\n      swap2\n      sub\n      swap1\n      return\n        /* \"contracts/block2.sol\":2137:2878  function buyPrivateToken(uint _amount) public payable returns(string memory) {... */\n    tag_7:\n      tag_62\n      0x04\n      dup1\n      calldatasize\n      sub\n      dup2\n      add\n      swap1\n      tag_63\n      swap2\n      swap1\n      tag_64\n      jump\t// in\n    tag_63:\n      tag_65\n      jump\t// in\n    tag_62:\n      mload(0x40)\n      tag_66\n      swap2\n      swap1\n      tag_39\n      jump\t// in\n    tag_66:\n      mload(0x40)\n      dup1\n      swap2\n      sub\n      swap1\n      return\n        /* \"contracts/block2.sol\":332:376  uint public pubCoins = totalCoins * 60 / 100 */\n    tag_8:\n      callvalue\n      dup1\n      iszero\n      tag_67\n      jumpi\n      0x00\n      dup1\n      revert\n    tag_67:\n      pop\n      tag_68\n      tag_69\n      jump\t// in\n    tag_68:\n      mload(0x40)\n      tag_70\n      swap2\n      swap1\n      tag_51\n      jump\t// in\n    tag_70:\n      mload(0x40)\n      dup1\n      swap2\n      sub\n      swap1\n      return\n        /* \"@openzeppelin/contracts/token/ERC20/ERC20.sol\":3104:3195  function decimals() public view virtual override returns (uint8) {... */\n    tag_9:\n      callvalue\n      dup1\n      iszero\n      tag_71\n      jumpi\n      0x00\n      dup1\n      revert\n    tag_71:\n      pop\n      tag_72\n      tag_73\n      jump\t// in\n    tag_72:\n      mload(0x40)\n      tag_74\n      swap2\n      swap1\n      tag_75\n      jump\t// in\n    tag_74:\n      mload(0x40)\n      dup1\n      swap2\n      sub\n      swap1\n      return\n        /* \"contracts/block2.sol\":177:221  uint public totalCoins = 10000000 * 10 ** 12 */\n    tag_10:\n      callvalue\n      dup1\n      iszero\n      tag_76\n      jumpi\n      0x00\n      dup1\n      revert\n    tag_76:\n      pop\n      tag_77\n      tag_78\n      jump\t// in\n    tag_77:\n      mload(0x40)\n      tag_79\n      swap2\n      swap1\n      tag_51\n      jump\t// in\n    tag_79:\n      mload(0x40)\n      dup1\n      swap2\n      sub\n      swap1\n      return\n        /* \"@openzeppelin/contracts/token/ERC20/ERC20.sol\":5854:6088  function increaseAllowance(address spender, uint256 addedValue) public virtual returns (bool) {... */\n    tag_11:\n      callvalue\n      dup1\n      iszero\n      tag_80\n      jumpi\n      0x00\n      dup1\n      revert\n    tag_80:\n      pop\n      tag_81\n      0x04\n      dup1\n      calldatasize\n      sub\n      dup2\n      add\n      swap1\n      tag_82\n      swap2\n      swap1\n      tag_43\n      jump\t// in\n    tag_82:\n      tag_83\n      jump\t// in\n    tag_81:\n      mload(0x40)\n      tag_84\n      swap2\n      swap1\n      tag_46\n      jump\t// in\n    tag_84:\n      mload(0x40)\n      dup1\n      swap2\n      sub\n      swap1\n      return\n        /* \"contracts/block2.sol\":670:710  mapping(address => Role) public userRole */\n    tag_12:\n      callvalue\n      dup1\n      iszero\n      tag_85\n      jumpi\n      0x00\n      dup1\n      revert\n    tag_85:\n      pop\n      tag_86\n      0x04\n      dup1\n      calldatasize\n      sub\n      dup2\n      add\n      swap1\n      tag_87\n      swap2\n      swap1\n      tag_88\n      jump\t// in\n    tag_87:\n      tag_89\n      jump\t// in\n    tag_86:\n      mload(0x40)\n      tag_90\n      swap2\n      swap1\n      tag_91\n      jump\t// in\n    tag_90:\n      mload(0x40)\n      dup1\n      swap2\n      sub\n      swap1\n      return\n        /* \"contracts/block2.sol\":746:772  address[] public whiteList */\n    tag_13:\n      callvalue\n      dup1\n      iszero\n      tag_92\n      jumpi\n      0x00\n      dup1\n      revert\n    tag_92:\n      pop\n      tag_93\n      0x04\n      dup1\n      calldatasize\n      sub\n      dup2\n      add\n      swap1\n      tag_94\n      swap2\n      swap1\n      tag_64\n      jump\t// in\n    tag_94:\n      tag_95\n      jump\t// in\n    tag_93:\n      mload(0x40)\n      tag_96\n      swap2\n      swap1\n      tag_97\n      jump\t// in\n    tag_96:\n      mload(0x40)\n      dup1\n      swap2\n      sub\n      swap1\n      return\n        /* \"contracts/block2.sol\":435:454  uint public timeDif */\n    tag_14:\n      callvalue\n      dup1\n      iszero\n      tag_98\n      jumpi\n      0x00\n      dup1\n      revert\n    tag_98:\n      pop\n      tag_99\n      tag_100\n      jump\t// in\n    tag_99:\n      mload(0x40)\n      tag_101\n      swap2\n      swap1\n      tag_51\n      jump\t// in\n    tag_101:\n      mload(0x40)\n      dup1\n      swap2\n      sub\n      swap1\n      return\n        /* \"@openzeppelin/contracts/token/ERC20/ERC20.sol\":3419:3544  function balanceOf(address account) public view virtual override returns (uint256) {... */\n    tag_15:\n      callvalue\n      dup1\n      iszero\n      tag_102\n      jumpi\n      0x00\n      dup1\n      revert\n    tag_102:\n      pop\n      tag_103\n      0x04\n      dup1\n      calldatasize\n      sub\n      dup2\n      add\n      swap1\n      tag_104\n      swap2\n      swap1\n      tag_88\n      jump\t// in\n    tag_104:\n      tag_105\n      jump\t// in\n    tag_103:\n      mload(0x40)\n      tag_106\n      swap2\n      swap1\n      tag_51\n      jump\t// in\n    tag_106:\n      mload(0x40)\n      dup1\n      swap2\n      sub\n      swap1\n      return\n        /* \"contracts/block2.sol\":716:740  Ticket[] public requests */\n    tag_16:\n      callvalue\n      dup1\n      iszero\n      tag_107\n      jumpi\n      0x00\n      dup1\n      revert\n    tag_107:\n      pop\n      tag_108\n      0x04\n      dup1\n      calldatasize\n      sub\n      dup2\n      add\n      swap1\n      tag_109\n      swap2\n      swap1\n      tag_64\n      jump\t// in\n    tag_109:\n      tag_110\n      jump\t// in\n    tag_108:\n      mload(0x40)\n      tag_111\n      swap3\n      swap2\n      swap1\n      tag_112\n      jump\t// in\n    tag_111:\n      mload(0x40)\n      dup1\n      swap2\n      sub\n      swap1\n      return\n        /* \"contracts/block2.sol\":488:508  address public owner */\n    tag_17:\n      callvalue\n      dup1\n      iszero\n      tag_113\n      jumpi\n      0x00\n      dup1\n      revert\n    tag_113:\n      pop\n      tag_114\n      tag_115\n      jump\t// in\n    tag_114:\n      mload(0x40)\n      tag_116\n      swap2\n      swap1\n      tag_97\n      jump\t// in\n    tag_116:\n      mload(0x40)\n      dup1\n      swap2\n      sub\n      swap1\n      return\n        /* \"contracts/block2.sol\":227:272  uint public seedCoins = totalCoins * 10 / 100 */\n    tag_18:\n      callvalue\n      dup1\n      iszero\n      tag_117\n      jumpi\n      0x00\n      dup1\n      revert\n    tag_117:\n      pop\n      tag_118\n      tag_119\n      jump\t// in\n    tag_118:\n      mload(0x40)\n      tag_120\n      swap2\n      swap1\n      tag_51\n      jump\t// in\n    tag_120:\n      mload(0x40)\n      dup1\n      swap2\n      sub\n      swap1\n      return\n        /* \"@openzeppelin/contracts/token/ERC20/ERC20.sol\":2369:2471  function symbol() public view virtual override returns (string memory) {... */\n    tag_19:\n      callvalue\n      dup1\n      iszero\n      tag_121\n      jumpi\n      0x00\n      dup1\n      revert\n    tag_121:\n      pop\n      tag_122\n      tag_123\n      jump\t// in\n    tag_122:\n      mload(0x40)\n      tag_124\n      swap2\n      swap1\n      tag_39\n      jump\t// in\n    tag_124:\n      mload(0x40)\n      dup1\n      swap2\n      sub\n      swap1\n      return\n        /* \"@openzeppelin/contracts/token/ERC20/ERC20.sol\":6575:7002  function decreaseAllowance(address spender, uint256 subtractedValue) public virtual returns (bool) {... */\n    tag_20:\n      callvalue\n      dup1\n      iszero\n      tag_125\n      jumpi\n      0x00\n      dup1\n      revert\n    tag_125:\n      pop\n      tag_126\n      0x04\n      dup1\n      calldatasize\n      sub\n      dup2\n      add\n      swap1\n      tag_127\n      swap2\n      swap1\n      tag_43\n      jump\t// in\n    tag_127:\n      tag_128\n      jump\t// in\n    tag_126:\n      mload(0x40)\n      tag_129\n      swap2\n      swap1\n      tag_46\n      jump\t// in\n    tag_129:\n      mload(0x40)\n      dup1\n      swap2\n      sub\n      swap1\n      return\n        /* \"@openzeppelin/contracts/token/ERC20/ERC20.sol\":3740:3929  function transfer(address to, uint256 amount) public virtual override returns (bool) {... */\n    tag_21:\n      callvalue\n      dup1\n      iszero\n      tag_130\n      jumpi\n      0x00\n      dup1\n      revert\n    tag_130:\n      pop\n      tag_131\n      0x04\n      dup1\n      calldatasize\n      sub\n      dup2\n      add\n      swap1\n      tag_132\n      swap2\n      swap1\n      tag_43\n      jump\t// in\n    tag_132:\n      tag_133\n      jump\t// in\n    tag_131:\n      mload(0x40)\n      tag_134\n      swap2\n      swap1\n      tag_46\n      jump\t// in\n    tag_134:\n      mload(0x40)\n      dup1\n      swap2\n      sub\n      swap1\n      return\n        /* \"contracts/block2.sol\":410:429  uint public timeNow */\n    tag_22:\n      callvalue\n      dup1\n      iszero\n      tag_135\n      jumpi\n      0x00\n      dup1\n      revert\n    tag_135:\n      pop\n      tag_136\n      tag_137\n      jump\t// in\n    tag_136:\n      mload(0x40)\n      tag_138\n      swap2\n      swap1\n      tag_51\n      jump\t// in\n    tag_138:\n      mload(0x40)\n      dup1\n      swap2\n      sub\n      swap1\n      return\n        /* \"contracts/block2.sol\":1763:1872  function makePrivateReq(string memory _name) public {... */\n    tag_23:\n      callvalue\n      dup1\n      iszero\n      tag_139\n      jumpi\n      0x00\n      dup1\n      revert\n    tag_139:\n      pop\n      tag_140\n      0x04\n      dup1\n      calldatasize\n      sub\n      dup2\n      add\n      swap1\n      tag_141\n      swap2\n      swap1\n      tag_142\n      jump\t// in\n    tag_141:\n      tag_143\n      jump\t// in\n    tag_140:\n      stop\n        /* \"@openzeppelin/contracts/token/ERC20/ERC20.sol\":3987:4136  function allowance(address owner, address spender) public view virtual override returns (uint256) {... */\n    tag_24:\n      callvalue\n      dup1\n      iszero\n      tag_144\n      jumpi\n      0x00\n      dup1\n      revert\n    tag_144:\n      pop\n      tag_145\n      0x04\n      dup1\n      calldatasize\n      sub\n      dup2\n      add\n      swap1\n      tag_146\n      swap2\n      swap1\n      tag_147\n      jump\t// in\n    tag_146:\n      tag_148\n      jump\t// in\n    tag_145:\n      mload(0x40)\n      tag_149\n      swap2\n      swap1\n      tag_51\n      jump\t// in\n    tag_149:\n      mload(0x40)\n      dup1\n      swap2\n      sub\n      swap1\n      return\n        /* \"contracts/block2.sol\":1878:2131  function approveWhiteList(uint _idTicket, bool status) public AccesControl(Role.Private) {... */\n    tag_25:\n      callvalue\n      dup1\n      iszero\n      tag_150\n      jumpi\n      0x00\n      dup1\n      revert\n    tag_150:\n      pop\n      tag_151\n      0x04\n      dup1\n      calldatasize\n      sub\n      dup2\n      add\n      swap1\n      tag_152\n      swap2\n      swap1\n      tag_153\n      jump\t// in\n    tag_152:\n      tag_154\n      jump\t// in\n    tag_151:\n      stop\n        /* \"contracts/block2.sol\":278:326  uint public privateCoins = totalCoins * 30 / 100 */\n    tag_26:\n      callvalue\n      dup1\n      iszero\n      tag_155\n      jumpi\n      0x00\n      dup1\n      revert\n    tag_155:\n      pop\n      tag_156\n      tag_157\n      jump\t// in\n    tag_156:\n      mload(0x40)\n      tag_158\n      swap2\n      swap1\n      tag_51\n      jump\t// in\n    tag_158:\n      mload(0x40)\n      dup1\n      swap2\n      sub\n      swap1\n      return\n        /* \"contracts/block2.sol\":2884:3278  function buyPublicToken(uint _amount) public payable {... */\n    tag_27:\n      tag_159\n      0x04\n      dup1\n      calldatasize\n      sub\n      dup2\n      add\n      swap1\n      tag_160\n      swap2\n      swap1\n      tag_64\n      jump\t// in\n    tag_160:\n      tag_161\n      jump\t// in\n    tag_159:\n      stop\n        /* \"contracts/block2.sol\":383:404  uint public timeStart */\n    tag_28:\n      callvalue\n      dup1\n      iszero\n      tag_162\n      jumpi\n      0x00\n      dup1\n      revert\n    tag_162:\n      pop\n      tag_163\n      tag_164\n      jump\t// in\n    tag_163:\n      mload(0x40)\n      tag_165\n      swap2\n      swap1\n      tag_51\n      jump\t// in\n    tag_165:\n      mload(0x40)\n      dup1\n      swap2\n      sub\n      swap1\n      return\n        /* \"@openzeppelin/contracts/token/ERC20/ERC20.sol\":2158:2256  function name() public view virtual override returns (string memory) {... */\n    tag_37:\n        /* \"@openzeppelin/contracts/token/ERC20/ERC20.sol\":2212:2225  string memory */\n      0x60\n        /* \"@openzeppelin/contracts/token/ERC20/ERC20.sol\":2244:2249  _name */\n      0x03\n        /* \"@openzeppelin/contracts/token/ERC20/ERC20.sol\":2237:2249  return _name */\n      dup1\n      sload\n      tag_167\n      swap1\n      tag_168\n      jump\t// in\n    tag_167:\n      dup1\n      0x1f\n      add\n      0x20\n      dup1\n      swap2\n      div\n      mul\n      0x20\n      add\n      mload(0x40)\n      swap1\n      dup2\n      add\n      0x40\n      mstore\n      dup1\n      swap3\n      swap2\n      swap1\n      dup2\n      dup2\n      mstore\n      0x20\n      add\n      dup3\n      dup1\n      sload\n      tag_169\n      swap1\n      tag_168\n      jump\t// in\n    tag_169:\n      dup1\n      iszero\n      tag_170\n      jumpi\n      dup1\n      0x1f\n      lt\n      tag_171\n      jumpi\n      0x0100\n      dup1\n      dup4\n      sload\n      div\n      mul\n      dup4\n      mstore\n      swap2\n      0x20\n      add\n      swap2\n      jump(tag_170)\n    tag_171:\n      dup3\n      add\n      swap2\n      swap1\n      0x00\n      mstore\n      keccak256(0x00, 0x20)\n      swap1\n    tag_172:\n      dup2\n      sload\n      dup2\n      mstore\n      swap1\n      0x01\n      add\n      swap1\n      0x20\n      add\n      dup1\n      dup4\n      gt\n      tag_172\n      jumpi\n      dup3\n      swap1\n      sub\n      0x1f\n      and\n      dup3\n      add\n      swap2\n    tag_170:\n      pop\n      pop\n      pop\n      pop\n      pop\n      swap1\n      pop\n        /* \"@openzeppelin/contracts/token/ERC20/ERC20.sol\":2158:2256  function name() public view virtual override returns (string memory) {... */\n      swap1\n      jump\t// out\n        /* \"@openzeppelin/contracts/token/ERC20/ERC20.sol\":4444:4641  function approve(address spender, uint256 amount) public virtual override returns (bool) {... */\n    tag_44:\n        /* \"@openzeppelin/contracts/token/ERC20/ERC20.sol\":4527:4531  bool */\n      0x00\n        /* \"@openzeppelin/contracts/token/ERC20/ERC20.sol\":4543:4556  address owner */\n      dup1\n        /* \"@openzeppelin/contracts/token/ERC20/ERC20.sol\":4559:4571  _msgSender() */\n      tag_174\n        /* \"@openzeppelin/contracts/token/ERC20/ERC20.sol\":4559:4569  _msgSender */\n      tag_175\n        /* \"@openzeppelin/contracts/token/ERC20/ERC20.sol\":4559:4571  _msgSender() */\n      jump\t// in\n    tag_174:\n        /* \"@openzeppelin/contracts/token/ERC20/ERC20.sol\":4543:4571  address owner = _msgSender() */\n      swap1\n      pop\n        /* \"@openzeppelin/contracts/token/ERC20/ERC20.sol\":4581:4613  _approve(owner, spender, amount) */\n      tag_176\n        /* \"@openzeppelin/contracts/token/ERC20/ERC20.sol\":4590:4595  owner */\n      dup2\n        /* \"@openzeppelin/contracts/token/ERC20/ERC20.sol\":4597:4604  spender */\n      dup6\n        /* \"@openzeppelin/contracts/token/ERC20/ERC20.sol\":4606:4612  amount */\n      dup6\n        /* \"@openzeppelin/contracts/token/ERC20/ERC20.sol\":4581:4589  _approve */\n      tag_177\n        /* \"@openzeppelin/contracts/token/ERC20/ERC20.sol\":4581:4613  _approve(owner, spender, amount) */\n      jump\t// in\n    tag_176:\n        /* \"@openzeppelin/contracts/token/ERC20/ERC20.sol\":4630:4634  true */\n      0x01\n        /* \"@openzeppelin/contracts/token/ERC20/ERC20.sol\":4623:4634  return true */\n      swap2\n      pop\n      pop\n        /* \"@openzeppelin/contracts/token/ERC20/ERC20.sol\":4444:4641  function approve(address spender, uint256 amount) public virtual override returns (bool) {... */\n      swap3\n      swap2\n      pop\n      pop\n      jump\t// out\n        /* \"contracts/block2.sol\":460:482  uint public timeSystem */\n    tag_49:\n      sload(0x0c)\n      dup2\n      jump\t// out\n        /* \"@openzeppelin/contracts/token/ERC20/ERC20.sol\":3255:3361  function totalSupply() public view virtual override returns (uint256) {... */\n    tag_54:\n        /* \"@openzeppelin/contracts/token/ERC20/ERC20.sol\":3316:3323  uint256 */\n      0x00\n        /* \"@openzeppelin/contracts/token/ERC20/ERC20.sol\":3342:3354  _totalSupply */\n      sload(0x02)\n        /* \"@openzeppelin/contracts/token/ERC20/ERC20.sol\":3335:3354  return _totalSupply */\n      swap1\n      pop\n        /* \"@openzeppelin/contracts/token/ERC20/ERC20.sol\":3255:3361  function totalSupply() public view virtual override returns (uint256) {... */\n      swap1\n      jump\t// out\n        /* \"@openzeppelin/contracts/token/ERC20/ERC20.sol\":5203:5459  function transferFrom(address from, address to, uint256 amount) public virtual override returns (bool) {... */\n    tag_60:\n        /* \"@openzeppelin/contracts/token/ERC20/ERC20.sol\":5300:5304  bool */\n      0x00\n        /* \"@openzeppelin/contracts/token/ERC20/ERC20.sol\":5316:5331  address spender */\n      dup1\n        /* \"@openzeppelin/contracts/token/ERC20/ERC20.sol\":5334:5346  _msgSender() */\n      tag_180\n        /* \"@openzeppelin/contracts/token/ERC20/ERC20.sol\":5334:5344  _msgSender */\n      tag_175\n        /* \"@openzeppelin/contracts/token/ERC20/ERC20.sol\":5334:5346  _msgSender() */\n      jump\t// in\n    tag_180:\n        /* \"@openzeppelin/contracts/token/ERC20/ERC20.sol\":5316:5346  address spender = _msgSender() */\n      swap1\n      pop\n        /* \"@openzeppelin/contracts/token/ERC20/ERC20.sol\":5356:5394  _spendAllowance(from, spender, amount) */\n      tag_181\n        /* \"@openzeppelin/contracts/token/ERC20/ERC20.sol\":5372:5376  from */\n      dup6\n        /* \"@openzeppelin/contracts/token/ERC20/ERC20.sol\":5378:5385  spender */\n      dup3\n        /* \"@openzeppelin/contracts/token/ERC20/ERC20.sol\":5387:5393  amount */\n      dup6\n        /* \"@openzeppelin/contracts/token/ERC20/ERC20.sol\":5356:5371  _spendAllowance */\n      tag_182\n        /* \"@openzeppelin/contracts/token/ERC20/ERC20.sol\":5356:5394  _spendAllowance(from, spender, amount) */\n      jump\t// in\n    tag_181:\n        /* \"@openzeppelin/contracts/token/ERC20/ERC20.sol\":5404:5431  _transfer(from, to, amount) */\n      tag_183\n        /* \"@openzeppelin/contracts/token/ERC20/ERC20.sol\":5414:5418  from */\n      dup6\n        /* \"@openzeppelin/contracts/token/ERC20/ERC20.sol\":5420:5422  to */\n      dup6\n        /* \"@openzeppelin/contracts/token/ERC20/ERC20.sol\":5424:5430  amount */\n      dup6\n        /* \"@openzeppelin/contracts/token/ERC20/ERC20.sol\":5404:5413  _transfer */\n      tag_184\n        /* \"@openzeppelin/contracts/token/ERC20/ERC20.sol\":5404:5431  _transfer(from, to, amount) */\n      jump\t// in\n    tag_183:\n        /* \"@openzeppelin/contracts/token/ERC20/ERC20.sol\":5448:5452  true */\n      0x01\n        /* \"@openzeppelin/contracts/token/ERC20/ERC20.sol\":5441:5452  return true */\n      swap2\n      pop\n      pop\n        /* \"@openzeppelin/contracts/token/ERC20/ERC20.sol\":5203:5459  function transferFrom(address from, address to, uint256 amount) public virtual override returns (bool) {... */\n      swap4\n      swap3\n      pop\n      pop\n      pop\n      jump\t// out\n        /* \"contracts/block2.sol\":2137:2878  function buyPrivateToken(uint _amount) public payable returns(string memory) {... */\n    tag_65:\n        /* \"contracts/block2.sol\":2199:2212  string memory */\n      0x60\n        /* \"contracts/block2.sol\":2243:2249  100000 */\n      0x0186a0\n        /* \"contracts/block2.sol\":2232:2239  _amount */\n      dup3\n        /* \"contracts/block2.sol\":2232:2249  _amount <= 100000 */\n      gt\n      iszero\n        /* \"contracts/block2.sol\":2224:2306  require(_amount <= 100000, unicode\"Больше 100000 нельзя купить\") */\n      tag_186\n      jumpi\n      mload(0x40)\n      0x08c379a000000000000000000000000000000000000000000000000000000000\n      dup2\n      mstore\n      0x04\n      add\n      tag_187\n      swap1\n      tag_188\n      jump\t// in\n    tag_187:\n      mload(0x40)\n      dup1\n      swap2\n      sub\n      swap1\n      revert\n    tag_186:\n        /* \"contracts/block2.sol\":2339:2340  0 */\n      0x00\n        /* \"contracts/block2.sol\":2324:2336  privateCoins */\n      sload(0x07)\n        /* \"contracts/block2.sol\":2324:2340  privateCoins > 0 */\n      gt\n        /* \"contracts/block2.sol\":2316:2393  require(privateCoins > 0, unicode\"Private коины закончились\") */\n      tag_189\n      jumpi\n      mload(0x40)\n      0x08c379a000000000000000000000000000000000000000000000000000000000\n      dup2\n      mstore\n      0x04\n      add\n      tag_190\n      swap1\n      tag_191\n      jump\t// in\n    tag_190:\n      mload(0x40)\n      dup1\n      swap2\n      sub\n      swap1\n      revert\n    tag_189:\n        /* \"contracts/block2.sol\":2407:2413  uint i */\n      0x00\n        /* \"contracts/block2.sol\":2403:2796  for(uint i; i < whiteList.length; i++) {... */\n    tag_192:\n        /* \"contracts/block2.sol\":2419:2428  whiteList */\n      0x10\n        /* \"contracts/block2.sol\":2419:2435  whiteList.length */\n      dup1\n      sload\n      swap1\n      pop\n        /* \"contracts/block2.sol\":2415:2416  i */\n      dup2\n        /* \"contracts/block2.sol\":2415:2435  i < whiteList.length */\n      lt\n        /* \"contracts/block2.sol\":2403:2796  for(uint i; i < whiteList.length; i++) {... */\n      iszero\n      tag_193\n      jumpi\n        /* \"contracts/block2.sol\":2473:2482  whiteList */\n      0x10\n        /* \"contracts/block2.sol\":2483:2484  i */\n      dup2\n        /* \"contracts/block2.sol\":2473:2485  whiteList[i] */\n      dup2\n      sload\n      dup2\n      lt\n      tag_195\n      jumpi\n      tag_196\n      tag_197\n      jump\t// in\n    tag_196:\n    tag_195:\n      swap1\n      0x00\n      mstore\n      keccak256(0x00, 0x20)\n      add\n      0x00\n      swap1\n      sload\n      swap1\n      0x0100\n      exp\n      swap1\n      div\n      0xffffffffffffffffffffffffffffffffffffffff\n      and\n        /* \"contracts/block2.sol\":2459:2485  msg.sender == whiteList[i] */\n      0xffffffffffffffffffffffffffffffffffffffff\n      and\n        /* \"contracts/block2.sol\":2459:2469  msg.sender */\n      caller\n        /* \"contracts/block2.sol\":2459:2485  msg.sender == whiteList[i] */\n      0xffffffffffffffffffffffffffffffffffffffff\n      and\n      sub\n        /* \"contracts/block2.sol\":2456:2786  if(msg.sender == whiteList[i]) {... */\n      tag_199\n      jumpi\n        /* \"contracts/block2.sol\":2505:2553  _transfer(owner, msg.sender, _amount * 10 ** 12) */\n      tag_200\n        /* \"contracts/block2.sol\":2515:2520  owner */\n      0x0d\n      0x00\n      swap1\n      sload\n      swap1\n      0x0100\n      exp\n      swap1\n      div\n      0xffffffffffffffffffffffffffffffffffffffff\n      and\n        /* \"contracts/block2.sol\":2522:2532  msg.sender */\n      caller\n        /* \"contracts/block2.sol\":2544:2552  10 ** 12 */\n      0xe8d4a51000\n        /* \"contracts/block2.sol\":2534:2541  _amount */\n      dup7\n        /* \"contracts/block2.sol\":2534:2552  _amount * 10 ** 12 */\n      tag_201\n      swap2\n      swap1\n      tag_202\n      jump\t// in\n    tag_201:\n        /* \"contracts/block2.sol\":2505:2514  _transfer */\n      tag_184\n        /* \"contracts/block2.sol\":2505:2553  _transfer(owner, msg.sender, _amount * 10 ** 12) */\n      jump\t// in\n    tag_200:\n        /* \"contracts/block2.sol\":2597:2605  10 ** 12 */\n      0xe8d4a51000\n        /* \"contracts/block2.sol\":2587:2594  _amount */\n      dup4\n        /* \"contracts/block2.sol\":2587:2605  _amount * 10 ** 12 */\n      tag_203\n      swap2\n      swap1\n      tag_202\n      jump\t// in\n    tag_203:\n        /* \"contracts/block2.sol\":2571:2583  privateCoins */\n      0x07\n      0x00\n        /* \"contracts/block2.sol\":2571:2605  privateCoins -= _amount * 10 ** 12 */\n      dup3\n      dup3\n      sload\n      tag_204\n      swap2\n      swap1\n      tag_205\n      jump\t// in\n    tag_204:\n      swap3\n      pop\n      pop\n      dup2\n      swap1\n      sstore\n      pop\n        /* \"contracts/block2.sol\":2631:2641  msg.sender */\n      caller\n        /* \"contracts/block2.sol\":2623:2651  payable(msg.sender).transfer */\n      0xffffffffffffffffffffffffffffffffffffffff\n      and\n        /* \"contracts/block2.sol\":2623:2678  payable(msg.sender).transfer(_amount * 750000000000000) */\n      0x08fc\n        /* \"contracts/block2.sol\":2662:2677  750000000000000 */\n      0x02aa1efb94e000\n        /* \"contracts/block2.sol\":2652:2659  _amount */\n      dup6\n        /* \"contracts/block2.sol\":2652:2677  _amount * 750000000000000 */\n      tag_206\n      swap2\n      swap1\n      tag_202\n      jump\t// in\n    tag_206:\n        /* \"contracts/block2.sol\":2623:2678  payable(msg.sender).transfer(_amount * 750000000000000) */\n      swap1\n      dup2\n      iszero\n      mul\n      swap1\n      mload(0x40)\n      0x00\n      mload(0x40)\n      dup1\n      dup4\n      sub\n      dup2\n      dup6\n      dup9\n      dup9\n      call\n      swap4\n      pop\n      pop\n      pop\n      pop\n      iszero\n      dup1\n      iszero\n      tag_208\n      jumpi\n      returndatasize\n      0x00\n      dup1\n      returndatacopy\n      revert(0x00, returndatasize)\n    tag_208:\n      pop\n        /* \"contracts/block2.sol\":2456:2786  if(msg.sender == whiteList[i]) {... */\n      jump(tag_209)\n    tag_199:\n        /* \"contracts/block2.sol\":2729:2771  return unicode\"Вас нет в WhiteList\" */\n      mload(0x40)\n      dup1\n      0x40\n      add\n      0x40\n      mstore\n      dup1\n      0x1a\n      dup2\n      mstore\n      0x20\n      add\n      0xd092d0b0d18120d0bdd0b5d18220d0b22057686974654c697374000000000000\n      dup2\n      mstore\n      pop\n      swap2\n      pop\n      pop\n      jump(tag_185)\n        /* \"contracts/block2.sol\":2456:2786  if(msg.sender == whiteList[i]) {... */\n    tag_209:\n        /* \"contracts/block2.sol\":2437:2440  i++ */\n      dup1\n      dup1\n      tag_210\n      swap1\n      tag_211\n      jump\t// in\n    tag_210:\n      swap2\n      pop\n      pop\n        /* \"contracts/block2.sol\":2403:2796  for(uint i; i < whiteList.length; i++) {... */\n      jump(tag_192)\n    tag_193:\n      pop\n        /* \"contracts/block2.sol\":2805:2871  return unicode\"Операция проведена успешна\" */\n      mload(0x40)\n      dup1\n      0x60\n      add\n      0x40\n      mstore\n      dup1\n      0x32\n      dup2\n      mstore\n      0x20\n      add\n      data_794544a8eec79a494efc4e7d88aee323a306300c6b957da18f84422cf3d86f0f\n      0x32\n      swap2\n      codecopy\n      swap1\n      pop\n        /* \"contracts/block2.sol\":2137:2878  function buyPrivateToken(uint _amount) public payable returns(string memory) {... */\n    tag_185:\n      swap2\n      swap1\n      pop\n      jump\t// out\n        /* \"contracts/block2.sol\":332:376  uint public pubCoins = totalCoins * 60 / 100 */\n    tag_69:\n      sload(0x08)\n      dup2\n      jump\t// out\n        /* \"@openzeppelin/contracts/token/ERC20/ERC20.sol\":3104:3195  function decimals() public view virtual override returns (uint8) {... */\n    tag_73:\n        /* \"@openzeppelin/contracts/token/ERC20/ERC20.sol\":3162:3167  uint8 */\n      0x00\n        /* \"@openzeppelin/contracts/token/ERC20/ERC20.sol\":3186:3188  18 */\n      0x12\n        /* \"@openzeppelin/contracts/token/ERC20/ERC20.sol\":3179:3188  return 18 */\n      swap1\n      pop\n        /* \"@openzeppelin/contracts/token/ERC20/ERC20.sol\":3104:3195  function decimals() public view virtual override returns (uint8) {... */\n      swap1\n      jump\t// out\n        /* \"contracts/block2.sol\":177:221  uint public totalCoins = 10000000 * 10 ** 12 */\n    tag_78:\n      sload(0x05)\n      dup2\n      jump\t// out\n        /* \"@openzeppelin/contracts/token/ERC20/ERC20.sol\":5854:6088  function increaseAllowance(address spender, uint256 addedValue) public virtual returns (bool) {... */\n    tag_83:\n        /* \"@openzeppelin/contracts/token/ERC20/ERC20.sol\":5942:5946  bool */\n      0x00\n        /* \"@openzeppelin/contracts/token/ERC20/ERC20.sol\":5958:5971  address owner */\n      dup1\n        /* \"@openzeppelin/contracts/token/ERC20/ERC20.sol\":5974:5986  _msgSender() */\n      tag_214\n        /* \"@openzeppelin/contracts/token/ERC20/ERC20.sol\":5974:5984  _msgSender */\n      tag_175\n        /* \"@openzeppelin/contracts/token/ERC20/ERC20.sol\":5974:5986  _msgSender() */\n      jump\t// in\n    tag_214:\n        /* \"@openzeppelin/contracts/token/ERC20/ERC20.sol\":5958:5986  address owner = _msgSender() */\n      swap1\n      pop\n        /* \"@openzeppelin/contracts/token/ERC20/ERC20.sol\":5996:6060  _approve(owner, spender, allowance(owner, spender) + addedValue) */\n      tag_215\n        /* \"@openzeppelin/contracts/token/ERC20/ERC20.sol\":6005:6010  owner */\n      dup2\n        /* \"@openzeppelin/contracts/token/ERC20/ERC20.sol\":6012:6019  spender */\n      dup6\n        /* \"@openzeppelin/contracts/token/ERC20/ERC20.sol\":6049:6059  addedValue */\n      dup6\n        /* \"@openzeppelin/contracts/token/ERC20/ERC20.sol\":6021:6046  allowance(owner, spender) */\n      tag_216\n        /* \"@openzeppelin/contracts/token/ERC20/ERC20.sol\":6031:6036  owner */\n      dup6\n        /* \"@openzeppelin/contracts/token/ERC20/ERC20.sol\":6038:6045  spender */\n      dup10\n        /* \"@openzeppelin/contracts/token/ERC20/ERC20.sol\":6021:6030  allowance */\n      tag_148\n        /* \"@openzeppelin/contracts/token/ERC20/ERC20.sol\":6021:6046  allowance(owner, spender) */\n      jump\t// in\n    tag_216:\n        /* \"@openzeppelin/contracts/token/ERC20/ERC20.sol\":6021:6059  allowance(owner, spender) + addedValue */\n      tag_217\n      swap2\n      swap1\n      tag_218\n      jump\t// in\n    tag_217:\n        /* \"@openzeppelin/contracts/token/ERC20/ERC20.sol\":5996:6004  _approve */\n      tag_177\n        /* \"@openzeppelin/contracts/token/ERC20/ERC20.sol\":5996:6060  _approve(owner, spender, allowance(owner, spender) + addedValue) */\n      jump\t// in\n    tag_215:\n        /* \"@openzeppelin/contracts/token/ERC20/ERC20.sol\":6077:6081  true */\n      0x01\n        /* \"@openzeppelin/contracts/token/ERC20/ERC20.sol\":6070:6081  return true */\n      swap2\n      pop\n      pop\n        /* \"@openzeppelin/contracts/token/ERC20/ERC20.sol\":5854:6088  function increaseAllowance(address spender, uint256 addedValue) public virtual returns (bool) {... */\n      swap3\n      swap2\n      pop\n      pop\n      jump\t// out\n        /* \"contracts/block2.sol\":670:710  mapping(address => Role) public userRole */\n    tag_89:\n      mstore(0x20, 0x0e)\n      dup1\n      0x00\n      mstore\n      keccak256(0x00, 0x40)\n      0x00\n      swap2\n      pop\n      sload\n      swap1\n      0x0100\n      exp\n      swap1\n      div\n      0xff\n      and\n      dup2\n      jump\t// out\n        /* \"contracts/block2.sol\":746:772  address[] public whiteList */\n    tag_95:\n      0x10\n      dup2\n      dup2\n      sload\n      dup2\n      lt\n      tag_219\n      jumpi\n      0x00\n      dup1\n      revert\n    tag_219:\n      swap1\n      0x00\n      mstore\n      keccak256(0x00, 0x20)\n      add\n      0x00\n      swap2\n      pop\n      sload\n      swap1\n      0x0100\n      exp\n      swap1\n      div\n      0xffffffffffffffffffffffffffffffffffffffff\n      and\n      dup2\n      jump\t// out\n        /* \"contracts/block2.sol\":435:454  uint public timeDif */\n    tag_100:\n      sload(0x0b)\n      dup2\n      jump\t// out\n        /* \"@openzeppelin/contracts/token/ERC20/ERC20.sol\":3419:3544  function balanceOf(address account) public view virtual override returns (uint256) {... */\n    tag_105:\n        /* \"@openzeppelin/contracts/token/ERC20/ERC20.sol\":3493:3500  uint256 */\n      0x00\n        /* \"@openzeppelin/contracts/token/ERC20/ERC20.sol\":3519:3528  _balances */\n      dup1\n        /* \"@openzeppelin/contracts/token/ERC20/ERC20.sol\":3519:3537  _balances[account] */\n      0x00\n        /* \"@openzeppelin/contracts/token/ERC20/ERC20.sol\":3529:3536  account */\n      dup4\n        /* \"@openzeppelin/contracts/token/ERC20/ERC20.sol\":3519:3537  _balances[account] */\n      0xffffffffffffffffffffffffffffffffffffffff\n      and\n      0xffffffffffffffffffffffffffffffffffffffff\n      and\n      dup2\n      mstore\n      0x20\n      add\n      swap1\n      dup2\n      mstore\n      0x20\n      add\n      0x00\n      keccak256\n      sload\n        /* \"@openzeppelin/contracts/token/ERC20/ERC20.sol\":3512:3537  return _balances[account] */\n      swap1\n      pop\n        /* \"@openzeppelin/contracts/token/ERC20/ERC20.sol\":3419:3544  function balanceOf(address account) public view virtual override returns (uint256) {... */\n      swap2\n      swap1\n      pop\n      jump\t// out\n        /* \"contracts/block2.sol\":716:740  Ticket[] public requests */\n    tag_110:\n      0x0f\n      dup2\n      dup2\n      sload\n      dup2\n      lt\n      tag_222\n      jumpi\n      0x00\n      dup1\n      revert\n    tag_222:\n      swap1\n      0x00\n      mstore\n      keccak256(0x00, 0x20)\n      swap1\n      0x02\n      mul\n      add\n      0x00\n      swap2\n      pop\n      swap1\n      pop\n      dup1\n      0x00\n      add\n      dup1\n      sload\n      tag_224\n      swap1\n      tag_168\n      jump\t// in\n    tag_224:\n      dup1\n      0x1f\n      add\n      0x20\n      dup1\n      swap2\n      div\n      mul\n      0x20\n      add\n      mload(0x40)\n      swap1\n      dup2\n      add\n      0x40\n      mstore\n      dup1\n      swap3\n      swap2\n      swap1\n      dup2\n      dup2\n      mstore\n      0x20\n      add\n      dup3\n      dup1\n      sload\n      tag_225\n      swap1\n      tag_168\n      jump\t// in\n    tag_225:\n      dup1\n      iszero\n      tag_226\n      jumpi\n      dup1\n      0x1f\n      lt\n      tag_227\n      jumpi\n      0x0100\n      dup1\n      dup4\n      sload\n      div\n      mul\n      dup4\n      mstore\n      swap2\n      0x20\n      add\n      swap2\n      jump(tag_226)\n    tag_227:\n      dup3\n      add\n      swap2\n      swap1\n      0x00\n      mstore\n      keccak256(0x00, 0x20)\n      swap1\n    tag_228:\n      dup2\n      sload\n      dup2\n      mstore\n      swap1\n      0x01\n      add\n      swap1\n      0x20\n      add\n      dup1\n      dup4\n      gt\n      tag_228\n      jumpi\n      dup3\n      swap1\n      sub\n      0x1f\n      and\n      dup3\n      add\n      swap2\n    tag_226:\n      pop\n      pop\n      pop\n      pop\n      pop\n      swap1\n      dup1\n      0x01\n      add\n      0x00\n      swap1\n      sload\n      swap1\n      0x0100\n      exp\n      swap1\n      div\n      0xffffffffffffffffffffffffffffffffffffffff\n      and\n      swap1\n      pop\n      dup3\n      jump\t// out\n        /* \"contracts/block2.sol\":488:508  address public owner */\n    tag_115:\n      0x0d\n      0x00\n      swap1\n      sload\n      swap1\n      0x0100\n      exp\n      swap1\n      div\n      0xffffffffffffffffffffffffffffffffffffffff\n      and\n      dup2\n      jump\t// out\n        /* \"contracts/block2.sol\":227:272  uint public seedCoins = totalCoins * 10 / 100 */\n    tag_119:\n      sload(0x06)\n      dup2\n      jump\t// out\n        /* \"@openzeppelin/contracts/token/ERC20/ERC20.sol\":2369:2471  function symbol() public view virtual override returns (string memory) {... */\n    tag_123:\n        /* \"@openzeppelin/contracts/token/ERC20/ERC20.sol\":2425:2438  string memory */\n      0x60\n        /* \"@openzeppelin/contracts/token/ERC20/ERC20.sol\":2457:2464  _symbol */\n      0x04\n        /* \"@openzeppelin/contracts/token/ERC20/ERC20.sol\":2450:2464  return _symbol */\n      dup1\n      sload\n      tag_230\n      swap1\n      tag_168\n      jump\t// in\n    tag_230:\n      dup1\n      0x1f\n      add\n      0x20\n      dup1\n      swap2\n      div\n      mul\n      0x20\n      add\n      mload(0x40)\n      swap1\n      dup2\n      add\n      0x40\n      mstore\n      dup1\n      swap3\n      swap2\n      swap1\n      dup2\n      dup2\n      mstore\n      0x20\n      add\n      dup3\n      dup1\n      sload\n      tag_231\n      swap1\n      tag_168\n      jump\t// in\n    tag_231:\n      dup1\n      iszero\n      tag_232\n      jumpi\n      dup1\n      0x1f\n      lt\n      tag_233\n      jumpi\n      0x0100\n      dup1\n      dup4\n      sload\n      div\n      mul\n      dup4\n      mstore\n      swap2\n      0x20\n      add\n      swap2\n      jump(tag_232)\n    tag_233:\n      dup3\n      add\n      swap2\n      swap1\n      0x00\n      mstore\n      keccak256(0x00, 0x20)\n      swap1\n    tag_234:\n      dup2\n      sload\n      dup2\n      mstore\n      swap1\n      0x01\n      add\n      swap1\n      0x20\n      add\n      dup1\n      dup4\n      gt\n      tag_234\n      jumpi\n      dup3\n      swap1\n      sub\n      0x1f\n      and\n      dup3\n      add\n      swap2\n    tag_232:\n      pop\n      pop\n      pop\n      pop\n      pop\n      swap1\n      pop\n        /* \"@openzeppelin/contracts/token/ERC20/ERC20.sol\":2369:2471  function symbol() public view virtual override returns (string memory) {... */\n      swap1\n      jump\t// out\n        /* \"@openzeppelin/contracts/token/ERC20/ERC20.sol\":6575:7002  function decreaseAllowance(address spender, uint256 subtractedValue) public virtual returns (bool) {... */\n    tag_128:\n        /* \"@openzeppelin/contracts/token/ERC20/ERC20.sol\":6668:6672  bool */\n      0x00\n        /* \"@openzeppelin/contracts/token/ERC20/ERC20.sol\":6684:6697  address owner */\n      dup1\n        /* \"@openzeppelin/contracts/token/ERC20/ERC20.sol\":6700:6712  _msgSender() */\n      tag_236\n        /* \"@openzeppelin/contracts/token/ERC20/ERC20.sol\":6700:6710  _msgSender */\n      tag_175\n        /* \"@openzeppelin/contracts/token/ERC20/ERC20.sol\":6700:6712  _msgSender() */\n      jump\t// in\n    tag_236:\n        /* \"@openzeppelin/contracts/token/ERC20/ERC20.sol\":6684:6712  address owner = _msgSender() */\n      swap1\n      pop\n        /* \"@openzeppelin/contracts/token/ERC20/ERC20.sol\":6722:6746  uint256 currentAllowance */\n      0x00\n        /* \"@openzeppelin/contracts/token/ERC20/ERC20.sol\":6749:6774  allowance(owner, spender) */\n      tag_237\n        /* \"@openzeppelin/contracts/token/ERC20/ERC20.sol\":6759:6764  owner */\n      dup3\n        /* \"@openzeppelin/contracts/token/ERC20/ERC20.sol\":6766:6773  spender */\n      dup7\n        /* \"@openzeppelin/contracts/token/ERC20/ERC20.sol\":6749:6758  allowance */\n      tag_148\n        /* \"@openzeppelin/contracts/token/ERC20/ERC20.sol\":6749:6774  allowance(owner, spender) */\n      jump\t// in\n    tag_237:\n        /* \"@openzeppelin/contracts/token/ERC20/ERC20.sol\":6722:6774  uint256 currentAllowance = allowance(owner, spender) */\n      swap1\n      pop\n        /* \"@openzeppelin/contracts/token/ERC20/ERC20.sol\":6812:6827  subtractedValue */\n      dup4\n        /* \"@openzeppelin/contracts/token/ERC20/ERC20.sol\":6792:6808  currentAllowance */\n      dup2\n        /* \"@openzeppelin/contracts/token/ERC20/ERC20.sol\":6792:6827  currentAllowance >= subtractedValue */\n      lt\n      iszero\n        /* \"@openzeppelin/contracts/token/ERC20/ERC20.sol\":6784:6869  require(currentAllowance >= subtractedValue, \"ERC20: decreased allowance below zero\") */\n      tag_238\n      jumpi\n      mload(0x40)\n      0x08c379a000000000000000000000000000000000000000000000000000000000\n      dup2\n      mstore\n      0x04\n      add\n      tag_239\n      swap1\n      tag_240\n      jump\t// in\n    tag_239:\n      mload(0x40)\n      dup1\n      swap2\n      sub\n      swap1\n      revert\n    tag_238:\n        /* \"@openzeppelin/contracts/token/ERC20/ERC20.sol\":6903:6963  _approve(owner, spender, currentAllowance - subtractedValue) */\n      tag_241\n        /* \"@openzeppelin/contracts/token/ERC20/ERC20.sol\":6912:6917  owner */\n      dup3\n        /* \"@openzeppelin/contracts/token/ERC20/ERC20.sol\":6919:6926  spender */\n      dup7\n        /* \"@openzeppelin/contracts/token/ERC20/ERC20.sol\":6947:6962  subtractedValue */\n      dup7\n        /* \"@openzeppelin/contracts/token/ERC20/ERC20.sol\":6928:6944  currentAllowance */\n      dup5\n        /* \"@openzeppelin/contracts/token/ERC20/ERC20.sol\":6928:6962  currentAllowance - subtractedValue */\n      sub\n        /* \"@openzeppelin/contracts/token/ERC20/ERC20.sol\":6903:6911  _approve */\n      tag_177\n        /* \"@openzeppelin/contracts/token/ERC20/ERC20.sol\":6903:6963  _approve(owner, spender, currentAllowance - subtractedValue) */\n      jump\t// in\n    tag_241:\n        /* \"@openzeppelin/contracts/token/ERC20/ERC20.sol\":6991:6995  true */\n      0x01\n        /* \"@openzeppelin/contracts/token/ERC20/ERC20.sol\":6984:6995  return true */\n      swap3\n      pop\n      pop\n      pop\n        /* \"@openzeppelin/contracts/token/ERC20/ERC20.sol\":6575:7002  function decreaseAllowance(address spender, uint256 subtractedValue) public virtual returns (bool) {... */\n      swap3\n      swap2\n      pop\n      pop\n      jump\t// out\n        /* \"@openzeppelin/contracts/token/ERC20/ERC20.sol\":3740:3929  function transfer(address to, uint256 amount) public virtual override returns (bool) {... */\n    tag_133:\n        /* \"@openzeppelin/contracts/token/ERC20/ERC20.sol\":3819:3823  bool */\n      0x00\n        /* \"@openzeppelin/contracts/token/ERC20/ERC20.sol\":3835:3848  address owner */\n      dup1\n        /* \"@openzeppelin/contracts/token/ERC20/ERC20.sol\":3851:3863  _msgSender() */\n      tag_243\n        /* \"@openzeppelin/contracts/token/ERC20/ERC20.sol\":3851:3861  _msgSender */\n      tag_175\n        /* \"@openzeppelin/contracts/token/ERC20/ERC20.sol\":3851:3863  _msgSender() */\n      jump\t// in\n    tag_243:\n        /* \"@openzeppelin/contracts/token/ERC20/ERC20.sol\":3835:3863  address owner = _msgSender() */\n      swap1\n      pop\n        /* \"@openzeppelin/contracts/token/ERC20/ERC20.sol\":3873:3901  _transfer(owner, to, amount) */\n      tag_244\n        /* \"@openzeppelin/contracts/token/ERC20/ERC20.sol\":3883:3888  owner */\n      dup2\n        /* \"@openzeppelin/contracts/token/ERC20/ERC20.sol\":3890:3892  to */\n      dup6\n        /* \"@openzeppelin/contracts/token/ERC20/ERC20.sol\":3894:3900  amount */\n      dup6\n        /* \"@openzeppelin/contracts/token/ERC20/ERC20.sol\":3873:3882  _transfer */\n      tag_184\n        /* \"@openzeppelin/contracts/token/ERC20/ERC20.sol\":3873:3901  _transfer(owner, to, amount) */\n      jump\t// in\n    tag_244:\n        /* \"@openzeppelin/contracts/token/ERC20/ERC20.sol\":3918:3922  true */\n      0x01\n        /* \"@openzeppelin/contracts/token/ERC20/ERC20.sol\":3911:3922  return true */\n      swap2\n      pop\n      pop\n        /* \"@openzeppelin/contracts/token/ERC20/ERC20.sol\":3740:3929  function transfer(address to, uint256 amount) public virtual override returns (bool) {... */\n      swap3\n      swap2\n      pop\n      pop\n      jump\t// out\n        /* \"contracts/block2.sol\":410:429  uint public timeNow */\n    tag_137:\n      sload(0x0a)\n      dup2\n      jump\t// out\n        /* \"contracts/block2.sol\":1763:1872  function makePrivateReq(string memory _name) public {... */\n    tag_143:\n        /* \"contracts/block2.sol\":1825:1833  requests */\n      0x0f\n        /* \"contracts/block2.sol\":1839:1864  Ticket(_name, msg.sender) */\n      mload(0x40)\n      dup1\n      0x40\n      add\n      0x40\n      mstore\n      dup1\n        /* \"contracts/block2.sol\":1846:1851  _name */\n      dup4\n        /* \"contracts/block2.sol\":1839:1864  Ticket(_name, msg.sender) */\n      dup2\n      mstore\n      0x20\n      add\n        /* \"contracts/block2.sol\":1853:1863  msg.sender */\n      caller\n        /* \"contracts/block2.sol\":1839:1864  Ticket(_name, msg.sender) */\n      0xffffffffffffffffffffffffffffffffffffffff\n      and\n      dup2\n      mstore\n      pop\n        /* \"contracts/block2.sol\":1825:1865  requests.push(Ticket(_name, msg.sender)) */\n      swap1\n      dup1\n      0x01\n      dup2\n      sload\n      add\n      dup1\n      dup3\n      sstore\n      dup1\n      swap2\n      pop\n      pop\n      0x01\n      swap1\n      sub\n      swap1\n      0x00\n      mstore\n      keccak256(0x00, 0x20)\n      swap1\n      0x02\n      mul\n      add\n      0x00\n      swap1\n      swap2\n      swap1\n      swap2\n      swap1\n      swap2\n      pop\n      0x00\n      dup3\n      add\n      mload\n      dup2\n      0x00\n      add\n      swap1\n      dup2\n      tag_247\n      swap2\n      swap1\n      tag_248\n      jump\t// in\n    tag_247:\n      pop\n      0x20\n      dup3\n      add\n      mload\n      dup2\n      0x01\n      add\n      exp(0x0100, 0x00)\n      dup2\n      sload\n      dup2\n      0xffffffffffffffffffffffffffffffffffffffff\n      mul\n      not\n      and\n      swap1\n      dup4\n      0xffffffffffffffffffffffffffffffffffffffff\n      and\n      mul\n      or\n      swap1\n      sstore\n      pop\n      pop\n      pop\n        /* \"contracts/block2.sol\":1763:1872  function makePrivateReq(string memory _name) public {... */\n      pop\n      jump\t// out\n        /* \"@openzeppelin/contracts/token/ERC20/ERC20.sol\":3987:4136  function allowance(address owner, address spender) public view virtual override returns (uint256) {... */\n    tag_148:\n        /* \"@openzeppelin/contracts/token/ERC20/ERC20.sol\":4076:4083  uint256 */\n      0x00\n        /* \"@openzeppelin/contracts/token/ERC20/ERC20.sol\":4102:4113  _allowances */\n      0x01\n        /* \"@openzeppelin/contracts/token/ERC20/ERC20.sol\":4102:4120  _allowances[owner] */\n      0x00\n        /* \"@openzeppelin/contracts/token/ERC20/ERC20.sol\":4114:4119  owner */\n      dup5\n        /* \"@openzeppelin/contracts/token/ERC20/ERC20.sol\":4102:4120  _allowances[owner] */\n      0xffffffffffffffffffffffffffffffffffffffff\n      and\n      0xffffffffffffffffffffffffffffffffffffffff\n      and\n      dup2\n      mstore\n      0x20\n      add\n      swap1\n      dup2\n      mstore\n      0x20\n      add\n      0x00\n      keccak256\n        /* \"@openzeppelin/contracts/token/ERC20/ERC20.sol\":4102:4129  _allowances[owner][spender] */\n      0x00\n        /* \"@openzeppelin/contracts/token/ERC20/ERC20.sol\":4121:4128  spender */\n      dup4\n        /* \"@openzeppelin/contracts/token/ERC20/ERC20.sol\":4102:4129  _allowances[owner][spender] */\n      0xffffffffffffffffffffffffffffffffffffffff\n      and\n      0xffffffffffffffffffffffffffffffffffffffff\n      and\n      dup2\n      mstore\n      0x20\n      add\n      swap1\n      dup2\n      mstore\n      0x20\n      add\n      0x00\n      keccak256\n      sload\n        /* \"@openzeppelin/contracts/token/ERC20/ERC20.sol\":4095:4129  return _allowances[owner][spender] */\n      swap1\n      pop\n        /* \"@openzeppelin/contracts/token/ERC20/ERC20.sol\":3987:4136  function allowance(address owner, address spender) public view virtual override returns (uint256) {... */\n      swap3\n      swap2\n      pop\n      pop\n      jump\t// out\n        /* \"contracts/block2.sol\":1878:2131  function approveWhiteList(uint _idTicket, bool status) public AccesControl(Role.Private) {... */\n    tag_154:\n        /* \"contracts/block2.sol\":1953:1965  Role.Private */\n      0x00\n        /* \"contracts/block2.sol\":1649:1654  _role */\n      dup1\n        /* \"contracts/block2.sol\":1625:1654  userRole[msg.sender] == _role */\n      0x01\n      dup2\n      gt\n      iszero\n      tag_251\n      jumpi\n      tag_252\n      tag_253\n      jump\t// in\n    tag_252:\n    tag_251:\n        /* \"contracts/block2.sol\":1625:1633  userRole */\n      0x0e\n        /* \"contracts/block2.sol\":1625:1645  userRole[msg.sender] */\n      0x00\n        /* \"contracts/block2.sol\":1634:1644  msg.sender */\n      caller\n        /* \"contracts/block2.sol\":1625:1645  userRole[msg.sender] */\n      0xffffffffffffffffffffffffffffffffffffffff\n      and\n      0xffffffffffffffffffffffffffffffffffffffff\n      and\n      dup2\n      mstore\n      0x20\n      add\n      swap1\n      dup2\n      mstore\n      0x20\n      add\n      0x00\n      keccak256\n      0x00\n      swap1\n      sload\n      swap1\n      0x0100\n      exp\n      swap1\n      div\n      0xff\n      and\n        /* \"contracts/block2.sol\":1625:1654  userRole[msg.sender] == _role */\n      0x01\n      dup2\n      gt\n      iszero\n      tag_254\n      jumpi\n      tag_255\n      tag_253\n      jump\t// in\n    tag_255:\n    tag_254:\n      eq\n        /* \"contracts/block2.sol\":1617:1739  require(userRole[msg.sender] == _role, unicode\"Ваша роль не позволяет это использовать\") */\n      tag_256\n      jumpi\n      mload(0x40)\n      0x08c379a000000000000000000000000000000000000000000000000000000000\n      dup2\n      mstore\n      0x04\n      add\n      tag_257\n      swap1\n      tag_258\n      jump\t// in\n    tag_257:\n      mload(0x40)\n      dup1\n      swap2\n      sub\n      swap1\n      revert\n    tag_256:\n        /* \"contracts/block2.sol\":1980:1986  status */\n      dup2\n        /* \"contracts/block2.sol\":1977:2125  if(status) {... */\n      iszero\n      tag_260\n      jumpi\n        /* \"contracts/block2.sol\":2002:2011  whiteList */\n      0x10\n        /* \"contracts/block2.sol\":2017:2025  requests */\n      0x0f\n        /* \"contracts/block2.sol\":2026:2035  _idTicket */\n      dup5\n        /* \"contracts/block2.sol\":2017:2036  requests[_idTicket] */\n      dup2\n      sload\n      dup2\n      lt\n      tag_261\n      jumpi\n      tag_262\n      tag_197\n      jump\t// in\n    tag_262:\n    tag_261:\n      swap1\n      0x00\n      mstore\n      keccak256(0x00, 0x20)\n      swap1\n      0x02\n      mul\n      add\n        /* \"contracts/block2.sol\":2017:2047  requests[_idTicket].usrAddress */\n      0x01\n      add\n      0x00\n      swap1\n      sload\n      swap1\n      0x0100\n      exp\n      swap1\n      div\n      0xffffffffffffffffffffffffffffffffffffffff\n      and\n        /* \"contracts/block2.sol\":2002:2048  whiteList.push(requests[_idTicket].usrAddress) */\n      swap1\n      dup1\n      0x01\n      dup2\n      sload\n      add\n      dup1\n      dup3\n      sstore\n      dup1\n      swap2\n      pop\n      pop\n      0x01\n      swap1\n      sub\n      swap1\n      0x00\n      mstore\n      keccak256(0x00, 0x20)\n      add\n      0x00\n      swap1\n      swap2\n      swap1\n      swap2\n      swap1\n      swap2\n      0x0100\n      exp\n      dup2\n      sload\n      dup2\n      0xffffffffffffffffffffffffffffffffffffffff\n      mul\n      not\n      and\n      swap1\n      dup4\n      0xffffffffffffffffffffffffffffffffffffffff\n      and\n      mul\n      or\n      swap1\n      sstore\n      pop\n        /* \"contracts/block2.sol\":1977:2125  if(status) {... */\n      jump(tag_265)\n    tag_260:\n        /* \"contracts/block2.sol\":2095:2103  requests */\n      0x0f\n        /* \"contracts/block2.sol\":2104:2113  _idTicket */\n      dup4\n        /* \"contracts/block2.sol\":2095:2114  requests[_idTicket] */\n      dup2\n      sload\n      dup2\n      lt\n      tag_266\n      jumpi\n      tag_267\n      tag_197\n      jump\t// in\n    tag_267:\n    tag_266:\n      swap1\n      0x00\n      mstore\n      keccak256(0x00, 0x20)\n      swap1\n      0x02\n      mul\n      add\n      0x00\n        /* \"contracts/block2.sol\":2088:2114  delete requests[_idTicket] */\n      dup1\n      dup3\n      add\n      0x00\n      tag_269\n      swap2\n      swap1\n      tag_270\n      jump\t// in\n    tag_269:\n      0x01\n      dup3\n      add\n      exp(0x0100, 0x00)\n      dup2\n      sload\n      swap1\n      0xffffffffffffffffffffffffffffffffffffffff\n      mul\n      not\n      and\n      swap1\n      sstore\n      pop\n      pop\n        /* \"contracts/block2.sol\":1977:2125  if(status) {... */\n    tag_265:\n        /* \"contracts/block2.sol\":1878:2131  function approveWhiteList(uint _idTicket, bool status) public AccesControl(Role.Private) {... */\n      pop\n      pop\n      pop\n      jump\t// out\n        /* \"contracts/block2.sol\":278:326  uint public privateCoins = totalCoins * 30 / 100 */\n    tag_157:\n      sload(0x07)\n      dup2\n      jump\t// out\n        /* \"contracts/block2.sol\":2884:3278  function buyPublicToken(uint _amount) public payable {... */\n    tag_161:\n        /* \"contracts/block2.sol\":2966:2970  5000 */\n      0x1388\n        /* \"contracts/block2.sol\":2955:2962  _amount */\n      dup2\n        /* \"contracts/block2.sol\":2955:2970  _amount <= 5000 */\n      gt\n      iszero\n        /* \"contracts/block2.sol\":2947:3025  require(_amount <= 5000, unicode\"Больше 5000 нельзя купить\") */\n      tag_272\n      jumpi\n      mload(0x40)\n      0x08c379a000000000000000000000000000000000000000000000000000000000\n      dup2\n      mstore\n      0x04\n      add\n      tag_273\n      swap1\n      tag_274\n      jump\t// in\n    tag_273:\n      mload(0x40)\n      dup1\n      swap2\n      sub\n      swap1\n      revert\n    tag_272:\n        /* \"contracts/block2.sol\":3054:3055  0 */\n      0x00\n        /* \"contracts/block2.sol\":3043:3051  pubCoins */\n      sload(0x08)\n        /* \"contracts/block2.sol\":3043:3055  pubCoins > 0 */\n      gt\n        /* \"contracts/block2.sol\":3035:3107  require(pubCoins > 0, unicode\"Public коины закончились\") */\n      tag_275\n      jumpi\n      mload(0x40)\n      0x08c379a000000000000000000000000000000000000000000000000000000000\n      dup2\n      mstore\n      0x04\n      add\n      tag_276\n      swap1\n      tag_277\n      jump\t// in\n    tag_276:\n      mload(0x40)\n      dup1\n      swap2\n      sub\n      swap1\n      revert\n    tag_275:\n        /* \"contracts/block2.sol\":3117:3165  _transfer(owner, msg.sender, _amount * 10 ** 12) */\n      tag_278\n        /* \"contracts/block2.sol\":3127:3132  owner */\n      0x0d\n      0x00\n      swap1\n      sload\n      swap1\n      0x0100\n      exp\n      swap1\n      div\n      0xffffffffffffffffffffffffffffffffffffffff\n      and\n        /* \"contracts/block2.sol\":3134:3144  msg.sender */\n      caller\n        /* \"contracts/block2.sol\":3156:3164  10 ** 12 */\n      0xe8d4a51000\n        /* \"contracts/block2.sol\":3146:3153  _amount */\n      dup5\n        /* \"contracts/block2.sol\":3146:3164  _amount * 10 ** 12 */\n      tag_279\n      swap2\n      swap1\n      tag_202\n      jump\t// in\n    tag_279:\n        /* \"contracts/block2.sol\":3117:3126  _transfer */\n      tag_184\n        /* \"contracts/block2.sol\":3117:3165  _transfer(owner, msg.sender, _amount * 10 ** 12) */\n      jump\t// in\n    tag_278:\n        /* \"contracts/block2.sol\":3197:3205  10 ** 12 */\n      0xe8d4a51000\n        /* \"contracts/block2.sol\":3187:3194  _amount */\n      dup2\n        /* \"contracts/block2.sol\":3187:3205  _amount * 10 ** 12 */\n      tag_280\n      swap2\n      swap1\n      tag_202\n      jump\t// in\n    tag_280:\n        /* \"contracts/block2.sol\":3175:3183  pubCoins */\n      0x08\n      0x00\n        /* \"contracts/block2.sol\":3175:3205  pubCoins -= _amount * 10 ** 12 */\n      dup3\n      dup3\n      sload\n      tag_281\n      swap2\n      swap1\n      tag_205\n      jump\t// in\n    tag_281:\n      swap3\n      pop\n      pop\n      dup2\n      swap1\n      sstore\n      pop\n        /* \"contracts/block2.sol\":3223:3233  msg.sender */\n      caller\n        /* \"contracts/block2.sol\":3215:3243  payable(msg.sender).transfer */\n      0xffffffffffffffffffffffffffffffffffffffff\n      and\n        /* \"contracts/block2.sol\":3215:3271  payable(msg.sender).transfer(_amount * 1000000000000000) */\n      0x08fc\n        /* \"contracts/block2.sol\":3254:3270  1000000000000000 */\n      0x038d7ea4c68000\n        /* \"contracts/block2.sol\":3244:3251  _amount */\n      dup4\n        /* \"contracts/block2.sol\":3244:3270  _amount * 1000000000000000 */\n      tag_282\n      swap2\n      swap1\n      tag_202\n      jump\t// in\n    tag_282:\n        /* \"contracts/block2.sol\":3215:3271  payable(msg.sender).transfer(_amount * 1000000000000000) */\n      swap1\n      dup2\n      iszero\n      mul\n      swap1\n      mload(0x40)\n      0x00\n      mload(0x40)\n      dup1\n      dup4\n      sub\n      dup2\n      dup6\n      dup9\n      dup9\n      call\n      swap4\n      pop\n      pop\n      pop\n      pop\n      iszero\n      dup1\n      iszero\n      tag_284\n      jumpi\n      returndatasize\n      0x00\n      dup1\n      returndatacopy\n      revert(0x00, returndatasize)\n    tag_284:\n      pop\n        /* \"contracts/block2.sol\":2884:3278  function buyPublicToken(uint _amount) public payable {... */\n      pop\n      jump\t// out\n        /* \"contracts/block2.sol\":383:404  uint public timeStart */\n    tag_164:\n      sload(0x09)\n      dup2\n      jump\t// out\n        /* \"@openzeppelin/contracts/utils/Context.sol\":640:736  function _msgSender() internal view virtual returns (address) {... */\n    tag_175:\n        /* \"@openzeppelin/contracts/utils/Context.sol\":693:700  address */\n      0x00\n        /* \"@openzeppelin/contracts/utils/Context.sol\":719:729  msg.sender */\n      caller\n        /* \"@openzeppelin/contracts/utils/Context.sol\":712:729  return msg.sender */\n      swap1\n      pop\n        /* \"@openzeppelin/contracts/utils/Context.sol\":640:736  function _msgSender() internal view virtual returns (address) {... */\n      swap1\n      jump\t// out\n        /* \"@openzeppelin/contracts/token/ERC20/ERC20.sol\":10457:10797  function _approve(address owner, address spender, uint256 amount) internal virtual {... */\n    tag_177:\n        /* \"@openzeppelin/contracts/token/ERC20/ERC20.sol\":10575:10576  0 */\n      0x00\n        /* \"@openzeppelin/contracts/token/ERC20/ERC20.sol\":10558:10577  owner != address(0) */\n      0xffffffffffffffffffffffffffffffffffffffff\n      and\n        /* \"@openzeppelin/contracts/token/ERC20/ERC20.sol\":10558:10563  owner */\n      dup4\n        /* \"@openzeppelin/contracts/token/ERC20/ERC20.sol\":10558:10577  owner != address(0) */\n      0xffffffffffffffffffffffffffffffffffffffff\n      and\n      sub\n        /* \"@openzeppelin/contracts/token/ERC20/ERC20.sol\":10550:10618  require(owner != address(0), \"ERC20: approve from the zero address\") */\n      tag_287\n      jumpi\n      mload(0x40)\n      0x08c379a000000000000000000000000000000000000000000000000000000000\n      dup2\n      mstore\n      0x04\n      add\n      tag_288\n      swap1\n      tag_289\n      jump\t// in\n    tag_288:\n      mload(0x40)\n      dup1\n      swap2\n      sub\n      swap1\n      revert\n    tag_287:\n        /* \"@openzeppelin/contracts/token/ERC20/ERC20.sol\":10655:10656  0 */\n      0x00\n        /* \"@openzeppelin/contracts/token/ERC20/ERC20.sol\":10636:10657  spender != address(0) */\n      0xffffffffffffffffffffffffffffffffffffffff\n      and\n        /* \"@openzeppelin/contracts/token/ERC20/ERC20.sol\":10636:10643  spender */\n      dup3\n        /* \"@openzeppelin/contracts/token/ERC20/ERC20.sol\":10636:10657  spender != address(0) */\n      0xffffffffffffffffffffffffffffffffffffffff\n      and\n      sub\n        /* \"@openzeppelin/contracts/token/ERC20/ERC20.sol\":10628:10696  require(spender != address(0), \"ERC20: approve to the zero address\") */\n      tag_290\n      jumpi\n      mload(0x40)\n      0x08c379a000000000000000000000000000000000000000000000000000000000\n      dup2\n      mstore\n      0x04\n      add\n      tag_291\n      swap1\n      tag_292\n      jump\t// in\n    tag_291:\n      mload(0x40)\n      dup1\n      swap2\n      sub\n      swap1\n      revert\n    tag_290:\n        /* \"@openzeppelin/contracts/token/ERC20/ERC20.sol\":10737:10743  amount */\n      dup1\n        /* \"@openzeppelin/contracts/token/ERC20/ERC20.sol\":10707:10718  _allowances */\n      0x01\n        /* \"@openzeppelin/contracts/token/ERC20/ERC20.sol\":10707:10725  _allowances[owner] */\n      0x00\n        /* \"@openzeppelin/contracts/token/ERC20/ERC20.sol\":10719:10724  owner */\n      dup6\n        /* \"@openzeppelin/contracts/token/ERC20/ERC20.sol\":10707:10725  _allowances[owner] */\n      0xffffffffffffffffffffffffffffffffffffffff\n      and\n      0xffffffffffffffffffffffffffffffffffffffff\n      and\n      dup2\n      mstore\n      0x20\n      add\n      swap1\n      dup2\n      mstore\n      0x20\n      add\n      0x00\n      keccak256\n        /* \"@openzeppelin/contracts/token/ERC20/ERC20.sol\":10707:10734  _allowances[owner][spender] */\n      0x00\n        /* \"@openzeppelin/contracts/token/ERC20/ERC20.sol\":10726:10733  spender */\n      dup5\n        /* \"@openzeppelin/contracts/token/ERC20/ERC20.sol\":10707:10734  _allowances[owner][spender] */\n      0xffffffffffffffffffffffffffffffffffffffff\n      and\n      0xffffffffffffffffffffffffffffffffffffffff\n      and\n      dup2\n      mstore\n      0x20\n      add\n      swap1\n      dup2\n      mstore\n      0x20\n      add\n      0x00\n      keccak256\n        /* \"@openzeppelin/contracts/token/ERC20/ERC20.sol\":10707:10743  _allowances[owner][spender] = amount */\n      dup2\n      swap1\n      sstore\n      pop\n        /* \"@openzeppelin/contracts/token/ERC20/ERC20.sol\":10774:10781  spender */\n      dup2\n        /* \"@openzeppelin/contracts/token/ERC20/ERC20.sol\":10758:10790  Approval(owner, spender, amount) */\n      0xffffffffffffffffffffffffffffffffffffffff\n      and\n        /* \"@openzeppelin/contracts/token/ERC20/ERC20.sol\":10767:10772  owner */\n      dup4\n        /* \"@openzeppelin/contracts/token/ERC20/ERC20.sol\":10758:10790  Approval(owner, spender, amount) */\n      0xffffffffffffffffffffffffffffffffffffffff\n      and\n      0x8c5be1e5ebec7d5bd14f71427d1e84f3dd0314c0f7b2291e5b200ac8c7c3b925\n        /* \"@openzeppelin/contracts/token/ERC20/ERC20.sol\":10783:10789  amount */\n      dup4\n        /* \"@openzeppelin/contracts/token/ERC20/ERC20.sol\":10758:10790  Approval(owner, spender, amount) */\n      mload(0x40)\n      tag_293\n      swap2\n      swap1\n      tag_51\n      jump\t// in\n    tag_293:\n      mload(0x40)\n      dup1\n      swap2\n      sub\n      swap1\n      log3\n        /* \"@openzeppelin/contracts/token/ERC20/ERC20.sol\":10457:10797  function _approve(address owner, address spender, uint256 amount) internal virtual {... */\n      pop\n      pop\n      pop\n      jump\t// out\n        /* \"@openzeppelin/contracts/token/ERC20/ERC20.sol\":11078:11489  function _spendAllowance(address owner, address spender, uint256 amount) internal virtual {... */\n    tag_182:\n        /* \"@openzeppelin/contracts/token/ERC20/ERC20.sol\":11178:11202  uint256 currentAllowance */\n      0x00\n        /* \"@openzeppelin/contracts/token/ERC20/ERC20.sol\":11205:11230  allowance(owner, spender) */\n      tag_295\n        /* \"@openzeppelin/contracts/token/ERC20/ERC20.sol\":11215:11220  owner */\n      dup5\n        /* \"@openzeppelin/contracts/token/ERC20/ERC20.sol\":11222:11229  spender */\n      dup5\n        /* \"@openzeppelin/contracts/token/ERC20/ERC20.sol\":11205:11214  allowance */\n      tag_148\n        /* \"@openzeppelin/contracts/token/ERC20/ERC20.sol\":11205:11230  allowance(owner, spender) */\n      jump\t// in\n    tag_295:\n        /* \"@openzeppelin/contracts/token/ERC20/ERC20.sol\":11178:11230  uint256 currentAllowance = allowance(owner, spender) */\n      swap1\n      pop\n        /* \"@openzeppelin/contracts/token/ERC20/ERC20.sol\":11264:11281  type(uint256).max */\n      0xffffffffffffffffffffffffffffffffffffffffffffffffffffffffffffffff\n        /* \"@openzeppelin/contracts/token/ERC20/ERC20.sol\":11244:11260  currentAllowance */\n      dup2\n        /* \"@openzeppelin/contracts/token/ERC20/ERC20.sol\":11244:11281  currentAllowance != type(uint256).max */\n      eq\n        /* \"@openzeppelin/contracts/token/ERC20/ERC20.sol\":11240:11483  if (currentAllowance != type(uint256).max) {... */\n      tag_296\n      jumpi\n        /* \"@openzeppelin/contracts/token/ERC20/ERC20.sol\":11325:11331  amount */\n      dup2\n        /* \"@openzeppelin/contracts/token/ERC20/ERC20.sol\":11305:11321  currentAllowance */\n      dup2\n        /* \"@openzeppelin/contracts/token/ERC20/ERC20.sol\":11305:11331  currentAllowance >= amount */\n      lt\n      iszero\n        /* \"@openzeppelin/contracts/token/ERC20/ERC20.sol\":11297:11365  require(currentAllowance >= amount, \"ERC20: insufficient allowance\") */\n      tag_297\n      jumpi\n      mload(0x40)\n      0x08c379a000000000000000000000000000000000000000000000000000000000\n      dup2\n      mstore\n      0x04\n      add\n      tag_298\n      swap1\n      tag_299\n      jump\t// in\n    tag_298:\n      mload(0x40)\n      dup1\n      swap2\n      sub\n      swap1\n      revert\n    tag_297:\n        /* \"@openzeppelin/contracts/token/ERC20/ERC20.sol\":11407:11458  _approve(owner, spender, currentAllowance - amount) */\n      tag_300\n        /* \"@openzeppelin/contracts/token/ERC20/ERC20.sol\":11416:11421  owner */\n      dup5\n        /* \"@openzeppelin/contracts/token/ERC20/ERC20.sol\":11423:11430  spender */\n      dup5\n        /* \"@openzeppelin/contracts/token/ERC20/ERC20.sol\":11451:11457  amount */\n      dup5\n        /* \"@openzeppelin/contracts/token/ERC20/ERC20.sol\":11432:11448  currentAllowance */\n      dup5\n        /* \"@openzeppelin/contracts/token/ERC20/ERC20.sol\":11432:11457  currentAllowance - amount */\n      sub\n        /* \"@openzeppelin/contracts/token/ERC20/ERC20.sol\":11407:11415  _approve */\n      tag_177\n        /* \"@openzeppelin/contracts/token/ERC20/ERC20.sol\":11407:11458  _approve(owner, spender, currentAllowance - amount) */\n      jump\t// in\n    tag_300:\n        /* \"@openzeppelin/contracts/token/ERC20/ERC20.sol\":11240:11483  if (currentAllowance != type(uint256).max) {... */\n    tag_296:\n        /* \"@openzeppelin/contracts/token/ERC20/ERC20.sol\":11168:11489  {... */\n      pop\n        /* \"@openzeppelin/contracts/token/ERC20/ERC20.sol\":11078:11489  function _spendAllowance(address owner, address spender, uint256 amount) internal virtual {... */\n      pop\n      pop\n      pop\n      jump\t// out\n        /* \"@openzeppelin/contracts/token/ERC20/ERC20.sol\":7456:8244  function _transfer(address from, address to, uint256 amount) internal virtual {... */\n    tag_184:\n        /* \"@openzeppelin/contracts/token/ERC20/ERC20.sol\":7568:7569  0 */\n      0x00\n        /* \"@openzeppelin/contracts/token/ERC20/ERC20.sol\":7552:7570  from != address(0) */\n      0xffffffffffffffffffffffffffffffffffffffff\n      and\n        /* \"@openzeppelin/contracts/token/ERC20/ERC20.sol\":7552:7556  from */\n      dup4\n        /* \"@openzeppelin/contracts/token/ERC20/ERC20.sol\":7552:7570  from != address(0) */\n      0xffffffffffffffffffffffffffffffffffffffff\n      and\n      sub\n        /* \"@openzeppelin/contracts/token/ERC20/ERC20.sol\":7544:7612  require(from != address(0), \"ERC20: transfer from the zero address\") */\n      tag_302\n      jumpi\n      mload(0x40)\n      0x08c379a000000000000000000000000000000000000000000000000000000000\n      dup2\n      mstore\n      0x04\n      add\n      tag_303\n      swap1\n      tag_304\n      jump\t// in\n    tag_303:\n      mload(0x40)\n      dup1\n      swap2\n      sub\n      swap1\n      revert\n    tag_302:\n        /* \"@openzeppelin/contracts/token/ERC20/ERC20.sol\":7644:7645  0 */\n      0x00\n        /* \"@openzeppelin/contracts/token/ERC20/ERC20.sol\":7630:7646  to != address(0) */\n      0xffffffffffffffffffffffffffffffffffffffff\n      and\n        /* \"@openzeppelin/contracts/token/ERC20/ERC20.sol\":7630:7632  to */\n      dup3\n        /* \"@openzeppelin/contracts/token/ERC20/ERC20.sol\":7630:7646  to != address(0) */\n      0xffffffffffffffffffffffffffffffffffffffff\n      and\n      sub\n        /* \"@openzeppelin/contracts/token/ERC20/ERC20.sol\":7622:7686  require(to != address(0), \"ERC20: transfer to the zero address\") */\n      tag_305\n      jumpi\n      mload(0x40)\n      0x08c379a000000000000000000000000000000000000000000000000000000000\n      dup2\n      mstore\n      0x04\n      add\n      tag_306\n      swap1\n      tag_307\n      jump\t// in\n    tag_306:\n      mload(0x40)\n      dup1\n      swap2\n      sub\n      swap1\n      revert\n    tag_305:\n        /* \"@openzeppelin/contracts/token/ERC20/ERC20.sol\":7697:7735  _beforeTokenTransfer(from, to, amount) */\n      tag_308\n        /* \"@openzeppelin/contracts/token/ERC20/ERC20.sol\":7718:7722  from */\n      dup4\n        /* \"@openzeppelin/contracts/token/ERC20/ERC20.sol\":7724:7726  to */\n      dup4\n        /* \"@openzeppelin/contracts/token/ERC20/ERC20.sol\":7728:7734  amount */\n      dup4\n        /* \"@openzeppelin/contracts/token/ERC20/ERC20.sol\":7697:7717  _beforeTokenTransfer */\n      tag_309\n        /* \"@openzeppelin/contracts/token/ERC20/ERC20.sol\":7697:7735  _beforeTokenTransfer(from, to, amount) */\n      jump\t// in\n    tag_308:\n        /* \"@openzeppelin/contracts/token/ERC20/ERC20.sol\":7746:7765  uint256 fromBalance */\n      0x00\n        /* \"@openzeppelin/contracts/token/ERC20/ERC20.sol\":7768:7777  _balances */\n      dup1\n        /* \"@openzeppelin/contracts/token/ERC20/ERC20.sol\":7768:7783  _balances[from] */\n      0x00\n        /* \"@openzeppelin/contracts/token/ERC20/ERC20.sol\":7778:7782  from */\n      dup6\n        /* \"@openzeppelin/contracts/token/ERC20/ERC20.sol\":7768:7783  _balances[from] */\n      0xffffffffffffffffffffffffffffffffffffffff\n      and\n      0xffffffffffffffffffffffffffffffffffffffff\n      and\n      dup2\n      mstore\n      0x20\n      add\n      swap1\n      dup2\n      mstore\n      0x20\n      add\n      0x00\n      keccak256\n      sload\n        /* \"@openzeppelin/contracts/token/ERC20/ERC20.sol\":7746:7783  uint256 fromBalance = _balances[from] */\n      swap1\n      pop\n        /* \"@openzeppelin/contracts/token/ERC20/ERC20.sol\":7816:7822  amount */\n      dup2\n        /* \"@openzeppelin/contracts/token/ERC20/ERC20.sol\":7801:7812  fromBalance */\n      dup2\n        /* \"@openzeppelin/contracts/token/ERC20/ERC20.sol\":7801:7822  fromBalance >= amount */\n      lt\n      iszero\n        /* \"@openzeppelin/contracts/token/ERC20/ERC20.sol\":7793:7865  require(fromBalance >= amount, \"ERC20: transfer amount exceeds balance\") */\n      tag_310\n      jumpi\n      mload(0x40)\n      0x08c379a000000000000000000000000000000000000000000000000000000000\n      dup2\n      mstore\n      0x04\n      add\n      tag_311\n      swap1\n      tag_312\n      jump\t// in\n    tag_311:\n      mload(0x40)\n      dup1\n      swap2\n      sub\n      swap1\n      revert\n    tag_310:\n        /* \"@openzeppelin/contracts/token/ERC20/ERC20.sol\":7931:7937  amount */\n      dup2\n        /* \"@openzeppelin/contracts/token/ERC20/ERC20.sol\":7917:7928  fromBalance */\n      dup2\n        /* \"@openzeppelin/contracts/token/ERC20/ERC20.sol\":7917:7937  fromBalance - amount */\n      sub\n        /* \"@openzeppelin/contracts/token/ERC20/ERC20.sol\":7899:7908  _balances */\n      0x00\n        /* \"@openzeppelin/contracts/token/ERC20/ERC20.sol\":7899:7914  _balances[from] */\n      dup1\n        /* \"@openzeppelin/contracts/token/ERC20/ERC20.sol\":7909:7913  from */\n      dup7\n        /* \"@openzeppelin/contracts/token/ERC20/ERC20.sol\":7899:7914  _balances[from] */\n      0xffffffffffffffffffffffffffffffffffffffff\n      and\n      0xffffffffffffffffffffffffffffffffffffffff\n      and\n      dup2\n      mstore\n      0x20\n      add\n      swap1\n      dup2\n      mstore\n      0x20\n      add\n      0x00\n      keccak256\n        /* \"@openzeppelin/contracts/token/ERC20/ERC20.sol\":7899:7937  _balances[from] = fromBalance - amount */\n      dup2\n      swap1\n      sstore\n      pop\n        /* \"@openzeppelin/contracts/token/ERC20/ERC20.sol\":8131:8137  amount */\n      dup2\n        /* \"@openzeppelin/contracts/token/ERC20/ERC20.sol\":8114:8123  _balances */\n      0x00\n        /* \"@openzeppelin/contracts/token/ERC20/ERC20.sol\":8114:8127  _balances[to] */\n      dup1\n        /* \"@openzeppelin/contracts/token/ERC20/ERC20.sol\":8124:8126  to */\n      dup6\n        /* \"@openzeppelin/contracts/token/ERC20/ERC20.sol\":8114:8127  _balances[to] */\n      0xffffffffffffffffffffffffffffffffffffffff\n      and\n      0xffffffffffffffffffffffffffffffffffffffff\n      and\n      dup2\n      mstore\n      0x20\n      add\n      swap1\n      dup2\n      mstore\n      0x20\n      add\n      0x00\n      keccak256\n      0x00\n        /* \"@openzeppelin/contracts/token/ERC20/ERC20.sol\":8114:8137  _balances[to] += amount */\n      dup3\n      dup3\n      sload\n      add\n      swap3\n      pop\n      pop\n      dup2\n      swap1\n      sstore\n      pop\n        /* \"@openzeppelin/contracts/token/ERC20/ERC20.sol\":8178:8180  to */\n      dup3\n        /* \"@openzeppelin/contracts/token/ERC20/ERC20.sol\":8163:8189  Transfer(from, to, amount) */\n      0xffffffffffffffffffffffffffffffffffffffff\n      and\n        /* \"@openzeppelin/contracts/token/ERC20/ERC20.sol\":8172:8176  from */\n      dup5\n        /* \"@openzeppelin/contracts/token/ERC20/ERC20.sol\":8163:8189  Transfer(from, to, amount) */\n      0xffffffffffffffffffffffffffffffffffffffff\n      and\n      0xddf252ad1be2c89b69c2b068fc378daa952ba7f163c4a11628f55a4df523b3ef\n        /* \"@openzeppelin/contracts/token/ERC20/ERC20.sol\":8182:8188  amount */\n      dup5\n        /* \"@openzeppelin/contracts/token/ERC20/ERC20.sol\":8163:8189  Transfer(from, to, amount) */\n      mload(0x40)\n      tag_313\n      swap2\n      swap1\n      tag_51\n      jump\t// in\n    tag_313:\n      mload(0x40)\n      dup1\n      swap2\n      sub\n      swap1\n      log3\n        /* \"@openzeppelin/contracts/token/ERC20/ERC20.sol\":8200:8237  _afterTokenTransfer(from, to, amount) */\n      tag_314\n        /* \"@openzeppelin/contracts/token/ERC20/ERC20.sol\":8220:8224  from */\n      dup5\n        /* \"@openzeppelin/contracts/token/ERC20/ERC20.sol\":8226:8228  to */\n      dup5\n        /* \"@openzeppelin/contracts/token/ERC20/ERC20.sol\":8230:8236  amount */\n      dup5\n        /* \"@openzeppelin/contracts/token/ERC20/ERC20.sol\":8200:8219  _afterTokenTransfer */\n      tag_315\n        /* \"@openzeppelin/contracts/token/ERC20/ERC20.sol\":8200:8237  _afterTokenTransfer(from, to, amount) */\n      jump\t// in\n    tag_314:\n        /* \"@openzeppelin/contracts/token/ERC20/ERC20.sol\":7534:8244  {... */\n      pop\n        /* \"@openzeppelin/contracts/token/ERC20/ERC20.sol\":7456:8244  function _transfer(address from, address to, uint256 amount) internal virtual {... */\n      pop\n      pop\n      pop\n      jump\t// out\n        /* \"@openzeppelin/contracts/token/ERC20/ERC20.sol\":12073:12164  function _beforeTokenTransfer(address from, address to, uint256 amount) internal virtual {} */\n    tag_309:\n      pop\n      pop\n      pop\n      jump\t// out\n        /* \"@openzeppelin/contracts/token/ERC20/ERC20.sol\":12752:12842  function _afterTokenTransfer(address from, address to, uint256 amount) internal virtual {} */\n    tag_315:\n      pop\n      pop\n      pop\n      jump\t// out\n    tag_270:\n      pop\n      dup1\n      sload\n      tag_318\n      swap1\n      tag_168\n      jump\t// in\n    tag_318:\n      0x00\n      dup3\n      sstore\n      dup1\n      0x1f\n      lt\n      tag_320\n      jumpi\n      pop\n      jump(tag_319)\n    tag_320:\n      0x1f\n      add\n      0x20\n      swap1\n      div\n      swap1\n      0x00\n      mstore\n      keccak256(0x00, 0x20)\n      swap1\n      dup2\n      add\n      swap1\n      tag_321\n      swap2\n      swap1\n      tag_322\n      jump\t// in\n    tag_321:\n    tag_319:\n      pop\n      jump\t// out\n    tag_322:\n    tag_323:\n      dup1\n      dup3\n      gt\n      iszero\n      tag_324\n      jumpi\n      0x00\n      dup2\n      0x00\n      swap1\n      sstore\n      pop\n      0x01\n      add\n      jump(tag_323)\n    tag_324:\n      pop\n      swap1\n      jump\t// out\n        /* \"#utility.yul\":7:106   */\n    tag_325:\n        /* \"#utility.yul\":59:65   */\n      0x00\n        /* \"#utility.yul\":93:98   */\n      dup2\n        /* \"#utility.yul\":87:99   */\n      mload\n        /* \"#utility.yul\":77:99   */\n      swap1\n      pop\n        /* \"#utility.yul\":7:106   */\n      swap2\n      swap1\n      pop\n      jump\t// out\n        /* \"#utility.yul\":112:281   */\n    tag_326:\n        /* \"#utility.yul\":196:207   */\n      0x00\n        /* \"#utility.yul\":230:236   */\n      dup3\n        /* \"#utility.yul\":225:228   */\n      dup3\n        /* \"#utility.yul\":218:237   */\n      mstore\n        /* \"#utility.yul\":270:274   */\n      0x20\n        /* \"#utility.yul\":265:268   */\n      dup3\n        /* \"#utility.yul\":261:275   */\n      add\n        /* \"#utility.yul\":246:275   */\n      swap1\n      pop\n        /* \"#utility.yul\":112:281   */\n      swap3\n      swap2\n      pop\n      pop\n      jump\t// out\n        /* \"#utility.yul\":287:533   */\n    tag_327:\n        /* \"#utility.yul\":368:369   */\n      0x00\n        /* \"#utility.yul\":378:491   */\n    tag_406:\n        /* \"#utility.yul\":392:398   */\n      dup4\n        /* \"#utility.yul\":389:390   */\n      dup2\n        /* \"#utility.yul\":386:399   */\n      lt\n        /* \"#utility.yul\":378:491   */\n      iszero\n      tag_408\n      jumpi\n        /* \"#utility.yul\":477:478   */\n      dup1\n        /* \"#utility.yul\":472:475   */\n      dup3\n        /* \"#utility.yul\":468:479   */\n      add\n        /* \"#utility.yul\":462:480   */\n      mload\n        /* \"#utility.yul\":458:459   */\n      dup2\n        /* \"#utility.yul\":453:456   */\n      dup5\n        /* \"#utility.yul\":449:460   */\n      add\n        /* \"#utility.yul\":442:481   */\n      mstore\n        /* \"#utility.yul\":414:416   */\n      0x20\n        /* \"#utility.yul\":411:412   */\n      dup2\n        /* \"#utility.yul\":407:417   */\n      add\n        /* \"#utility.yul\":402:417   */\n      swap1\n      pop\n        /* \"#utility.yul\":378:491   */\n      jump(tag_406)\n    tag_408:\n        /* \"#utility.yul\":525:526   */\n      0x00\n        /* \"#utility.yul\":516:522   */\n      dup5\n        /* \"#utility.yul\":511:514   */\n      dup5\n        /* \"#utility.yul\":507:523   */\n      add\n        /* \"#utility.yul\":500:527   */\n      mstore\n        /* \"#utility.yul\":349:533   */\n      pop\n        /* \"#utility.yul\":287:533   */\n      pop\n      pop\n      pop\n      jump\t// out\n        /* \"#utility.yul\":539:641   */\n    tag_328:\n        /* \"#utility.yul\":580:586   */\n      0x00\n        /* \"#utility.yul\":631:633   */\n      0x1f\n        /* \"#utility.yul\":627:634   */\n      not\n        /* \"#utility.yul\":622:624   */\n      0x1f\n        /* \"#utility.yul\":615:620   */\n      dup4\n        /* \"#utility.yul\":611:625   */\n      add\n        /* \"#utility.yul\":607:635   */\n      and\n        /* \"#utility.yul\":597:635   */\n      swap1\n      pop\n        /* \"#utility.yul\":539:641   */\n      swap2\n      swap1\n      pop\n      jump\t// out\n        /* \"#utility.yul\":647:1024   */\n    tag_329:\n        /* \"#utility.yul\":735:738   */\n      0x00\n        /* \"#utility.yul\":763:802   */\n      tag_411\n        /* \"#utility.yul\":796:801   */\n      dup3\n        /* \"#utility.yul\":763:802   */\n      tag_325\n      jump\t// in\n    tag_411:\n        /* \"#utility.yul\":818:889   */\n      tag_412\n        /* \"#utility.yul\":882:888   */\n      dup2\n        /* \"#utility.yul\":877:880   */\n      dup6\n        /* \"#utility.yul\":818:889   */\n      tag_326\n      jump\t// in\n    tag_412:\n        /* \"#utility.yul\":811:889   */\n      swap4\n      pop\n        /* \"#utility.yul\":898:963   */\n      tag_413\n        /* \"#utility.yul\":956:962   */\n      dup2\n        /* \"#utility.yul\":951:954   */\n      dup6\n        /* \"#utility.yul\":944:948   */\n      0x20\n        /* \"#utility.yul\":937:942   */\n      dup7\n        /* \"#utility.yul\":933:949   */\n      add\n        /* \"#utility.yul\":898:963   */\n      tag_327\n      jump\t// in\n    tag_413:\n        /* \"#utility.yul\":988:1017   */\n      tag_414\n        /* \"#utility.yul\":1010:1016   */\n      dup2\n        /* \"#utility.yul\":988:1017   */\n      tag_328\n      jump\t// in\n    tag_414:\n        /* \"#utility.yul\":983:986   */\n      dup5\n        /* \"#utility.yul\":979:1018   */\n      add\n        /* \"#utility.yul\":972:1018   */\n      swap2\n      pop\n        /* \"#utility.yul\":739:1024   */\n      pop\n        /* \"#utility.yul\":647:1024   */\n      swap3\n      swap2\n      pop\n      pop\n      jump\t// out\n        /* \"#utility.yul\":1030:1343   */\n    tag_39:\n        /* \"#utility.yul\":1143:1147   */\n      0x00\n        /* \"#utility.yul\":1181:1183   */\n      0x20\n        /* \"#utility.yul\":1170:1179   */\n      dup3\n        /* \"#utility.yul\":1166:1184   */\n      add\n        /* \"#utility.yul\":1158:1184   */\n      swap1\n      pop\n        /* \"#utility.yul\":1230:1239   */\n      dup2\n        /* \"#utility.yul\":1224:1228   */\n      dup2\n        /* \"#utility.yul\":1220:1240   */\n      sub\n        /* \"#utility.yul\":1216:1217   */\n      0x00\n        /* \"#utility.yul\":1205:1214   */\n      dup4\n        /* \"#utility.yul\":1201:1218   */\n      add\n        /* \"#utility.yul\":1194:1241   */\n      mstore\n        /* \"#utility.yul\":1258:1336   */\n      tag_416\n        /* \"#utility.yul\":1331:1335   */\n      dup2\n        /* \"#utility.yul\":1322:1328   */\n      dup5\n        /* \"#utility.yul\":1258:1336   */\n      tag_329\n      jump\t// in\n    tag_416:\n        /* \"#utility.yul\":1250:1336   */\n      swap1\n      pop\n        /* \"#utility.yul\":1030:1343   */\n      swap3\n      swap2\n      pop\n      pop\n      jump\t// out\n        /* \"#utility.yul\":1349:1424   */\n    tag_330:\n        /* \"#utility.yul\":1382:1388   */\n      0x00\n        /* \"#utility.yul\":1415:1417   */\n      0x40\n        /* \"#utility.yul\":1409:1418   */\n      mload\n        /* \"#utility.yul\":1399:1418   */\n      swap1\n      pop\n        /* \"#utility.yul\":1349:1424   */\n      swap1\n      jump\t// out\n        /* \"#utility.yul\":1430:1547   */\n    tag_331:\n        /* \"#utility.yul\":1539:1540   */\n      0x00\n        /* \"#utility.yul\":1536:1537   */\n      dup1\n        /* \"#utility.yul\":1529:1541   */\n      revert\n        /* \"#utility.yul\":1553:1670   */\n    tag_332:\n        /* \"#utility.yul\":1662:1663   */\n      0x00\n        /* \"#utility.yul\":1659:1660   */\n      dup1\n        /* \"#utility.yul\":1652:1664   */\n      revert\n        /* \"#utility.yul\":1676:1802   */\n    tag_333:\n        /* \"#utility.yul\":1713:1720   */\n      0x00\n        /* \"#utility.yul\":1753:1795   */\n      0xffffffffffffffffffffffffffffffffffffffff\n        /* \"#utility.yul\":1746:1751   */\n      dup3\n        /* \"#utility.yul\":1742:1796   */\n      and\n        /* \"#utility.yul\":1731:1796   */\n      swap1\n      pop\n        /* \"#utility.yul\":1676:1802   */\n      swap2\n      swap1\n      pop\n      jump\t// out\n        /* \"#utility.yul\":1808:1904   */\n    tag_334:\n        /* \"#utility.yul\":1845:1852   */\n      0x00\n        /* \"#utility.yul\":1874:1898   */\n      tag_422\n        /* \"#utility.yul\":1892:1897   */\n      dup3\n        /* \"#utility.yul\":1874:1898   */\n      tag_333\n      jump\t// in\n    tag_422:\n        /* \"#utility.yul\":1863:1898   */\n      swap1\n      pop\n        /* \"#utility.yul\":1808:1904   */\n      swap2\n      swap1\n      pop\n      jump\t// out\n        /* \"#utility.yul\":1910:2032   */\n    tag_335:\n        /* \"#utility.yul\":1983:2007   */\n      tag_424\n        /* \"#utility.yul\":2001:2006   */\n      dup2\n        /* \"#utility.yul\":1983:2007   */\n      tag_334\n      jump\t// in\n    tag_424:\n        /* \"#utility.yul\":1976:1981   */\n      dup2\n        /* \"#utility.yul\":1973:2008   */\n      eq\n        /* \"#utility.yul\":1963:2026   */\n      tag_425\n      jumpi\n        /* \"#utility.yul\":2022:2023   */\n      0x00\n        /* \"#utility.yul\":2019:2020   */\n      dup1\n        /* \"#utility.yul\":2012:2024   */\n      revert\n        /* \"#utility.yul\":1963:2026   */\n    tag_425:\n        /* \"#utility.yul\":1910:2032   */\n      pop\n      jump\t// out\n        /* \"#utility.yul\":2038:2177   */\n    tag_336:\n        /* \"#utility.yul\":2084:2089   */\n      0x00\n        /* \"#utility.yul\":2122:2128   */\n      dup2\n        /* \"#utility.yul\":2109:2129   */\n      calldataload\n        /* \"#utility.yul\":2100:2129   */\n      swap1\n      pop\n        /* \"#utility.yul\":2138:2171   */\n      tag_427\n        /* \"#utility.yul\":2165:2170   */\n      dup2\n        /* \"#utility.yul\":2138:2171   */\n      tag_335\n      jump\t// in\n    tag_427:\n        /* \"#utility.yul\":2038:2177   */\n      swap3\n      swap2\n      pop\n      pop\n      jump\t// out\n        /* \"#utility.yul\":2183:2260   */\n    tag_337:\n        /* \"#utility.yul\":2220:2227   */\n      0x00\n        /* \"#utility.yul\":2249:2254   */\n      dup2\n        /* \"#utility.yul\":2238:2254   */\n      swap1\n      pop\n        /* \"#utility.yul\":2183:2260   */\n      swap2\n      swap1\n      pop\n      jump\t// out\n        /* \"#utility.yul\":2266:2388   */\n    tag_338:\n        /* \"#utility.yul\":2339:2363   */\n      tag_430\n        /* \"#utility.yul\":2357:2362   */\n      dup2\n        /* \"#utility.yul\":2339:2363   */\n      tag_337\n      jump\t// in\n    tag_430:\n        /* \"#utility.yul\":2332:2337   */\n      dup2\n        /* \"#utility.yul\":2329:2364   */\n      eq\n        /* \"#utility.yul\":2319:2382   */\n      tag_431\n      jumpi\n        /* \"#utility.yul\":2378:2379   */\n      0x00\n        /* \"#utility.yul\":2375:2376   */\n      dup1\n        /* \"#utility.yul\":2368:2380   */\n      revert\n        /* \"#utility.yul\":2319:2382   */\n    tag_431:\n        /* \"#utility.yul\":2266:2388   */\n      pop\n      jump\t// out\n        /* \"#utility.yul\":2394:2533   */\n    tag_339:\n        /* \"#utility.yul\":2440:2445   */\n      0x00\n        /* \"#utility.yul\":2478:2484   */\n      dup2\n        /* \"#utility.yul\":2465:2485   */\n      calldataload\n        /* \"#utility.yul\":2456:2485   */\n      swap1\n      pop\n        /* \"#utility.yul\":2494:2527   */\n      tag_433\n        /* \"#utility.yul\":2521:2526   */\n      dup2\n        /* \"#utility.yul\":2494:2527   */\n      tag_338\n      jump\t// in\n    tag_433:\n        /* \"#utility.yul\":2394:2533   */\n      swap3\n      swap2\n      pop\n      pop\n      jump\t// out\n        /* \"#utility.yul\":2539:3013   */\n    tag_43:\n        /* \"#utility.yul\":2607:2613   */\n      0x00\n        /* \"#utility.yul\":2615:2621   */\n      dup1\n        /* \"#utility.yul\":2664:2666   */\n      0x40\n        /* \"#utility.yul\":2652:2661   */\n      dup4\n        /* \"#utility.yul\":2643:2650   */\n      dup6\n        /* \"#utility.yul\":2639:2662   */\n      sub\n        /* \"#utility.yul\":2635:2667   */\n      slt\n        /* \"#utility.yul\":2632:2751   */\n      iszero\n      tag_435\n      jumpi\n        /* \"#utility.yul\":2670:2749   */\n      tag_436\n      tag_331\n      jump\t// in\n    tag_436:\n        /* \"#utility.yul\":2632:2751   */\n    tag_435:\n        /* \"#utility.yul\":2790:2791   */\n      0x00\n        /* \"#utility.yul\":2815:2868   */\n      tag_437\n        /* \"#utility.yul\":2860:2867   */\n      dup6\n        /* \"#utility.yul\":2851:2857   */\n      dup3\n        /* \"#utility.yul\":2840:2849   */\n      dup7\n        /* \"#utility.yul\":2836:2858   */\n      add\n        /* \"#utility.yul\":2815:2868   */\n      tag_336\n      jump\t// in\n    tag_437:\n        /* \"#utility.yul\":2805:2868   */\n      swap3\n      pop\n        /* \"#utility.yul\":2761:2878   */\n      pop\n        /* \"#utility.yul\":2917:2919   */\n      0x20\n        /* \"#utility.yul\":2943:2996   */\n      tag_438\n        /* \"#utility.yul\":2988:2995   */\n      dup6\n        /* \"#utility.yul\":2979:2985   */\n      dup3\n        /* \"#utility.yul\":2968:2977   */\n      dup7\n        /* \"#utility.yul\":2964:2986   */\n      add\n        /* \"#utility.yul\":2943:2996   */\n      tag_339\n      jump\t// in\n    tag_438:\n        /* \"#utility.yul\":2933:2996   */\n      swap2\n      pop\n        /* \"#utility.yul\":2888:3006   */\n      pop\n        /* \"#utility.yul\":2539:3013   */\n      swap3\n      pop\n      swap3\n      swap1\n      pop\n      jump\t// out\n        /* \"#utility.yul\":3019:3109   */\n    tag_340:\n        /* \"#utility.yul\":3053:3060   */\n      0x00\n        /* \"#utility.yul\":3096:3101   */\n      dup2\n        /* \"#utility.yul\":3089:3102   */\n      iszero\n        /* \"#utility.yul\":3082:3103   */\n      iszero\n        /* \"#utility.yul\":3071:3103   */\n      swap1\n      pop\n        /* \"#utility.yul\":3019:3109   */\n      swap2\n      swap1\n      pop\n      jump\t// out\n        /* \"#utility.yul\":3115:3224   */\n    tag_341:\n        /* \"#utility.yul\":3196:3217   */\n      tag_441\n        /* \"#utility.yul\":3211:3216   */\n      dup2\n        /* \"#utility.yul\":3196:3217   */\n      tag_340\n      jump\t// in\n    tag_441:\n        /* \"#utility.yul\":3191:3194   */\n      dup3\n        /* \"#utility.yul\":3184:3218   */\n      mstore\n        /* \"#utility.yul\":3115:3224   */\n      pop\n      pop\n      jump\t// out\n        /* \"#utility.yul\":3230:3440   */\n    tag_46:\n        /* \"#utility.yul\":3317:3321   */\n      0x00\n        /* \"#utility.yul\":3355:3357   */\n      0x20\n        /* \"#utility.yul\":3344:3353   */\n      dup3\n        /* \"#utility.yul\":3340:3358   */\n      add\n        /* \"#utility.yul\":3332:3358   */\n      swap1\n      pop\n        /* \"#utility.yul\":3368:3433   */\n      tag_443\n        /* \"#utility.yul\":3430:3431   */\n      0x00\n        /* \"#utility.yul\":3419:3428   */\n      dup4\n        /* \"#utility.yul\":3415:3432   */\n      add\n        /* \"#utility.yul\":3406:3412   */\n      dup5\n        /* \"#utility.yul\":3368:3433   */\n      tag_341\n      jump\t// in\n    tag_443:\n        /* \"#utility.yul\":3230:3440   */\n      swap3\n      swap2\n      pop\n      pop\n      jump\t// out\n        /* \"#utility.yul\":3446:3564   */\n    tag_342:\n        /* \"#utility.yul\":3533:3557   */\n      tag_445\n        /* \"#utility.yul\":3551:3556   */\n      dup2\n        /* \"#utility.yul\":3533:3557   */\n      tag_337\n      jump\t// in\n    tag_445:\n        /* \"#utility.yul\":3528:3531   */\n      dup3\n        /* \"#utility.yul\":3521:3558   */\n      mstore\n        /* \"#utility.yul\":3446:3564   */\n      pop\n      pop\n      jump\t// out\n        /* \"#utility.yul\":3570:3792   */\n    tag_51:\n        /* \"#utility.yul\":3663:3667   */\n      0x00\n        /* \"#utility.yul\":3701:3703   */\n      0x20\n        /* \"#utility.yul\":3690:3699   */\n      dup3\n        /* \"#utility.yul\":3686:3704   */\n      add\n        /* \"#utility.yul\":3678:3704   */\n      swap1\n      pop\n        /* \"#utility.yul\":3714:3785   */\n      tag_447\n        /* \"#utility.yul\":3782:3783   */\n      0x00\n        /* \"#utility.yul\":3771:3780   */\n      dup4\n        /* \"#utility.yul\":3767:3784   */\n      add\n        /* \"#utility.yul\":3758:3764   */\n      dup5\n        /* \"#utility.yul\":3714:3785   */\n      tag_342\n      jump\t// in\n    tag_447:\n        /* \"#utility.yul\":3570:3792   */\n      swap3\n      swap2\n      pop\n      pop\n      jump\t// out\n        /* \"#utility.yul\":3798:4417   */\n    tag_59:\n        /* \"#utility.yul\":3875:3881   */\n      0x00\n        /* \"#utility.yul\":3883:3889   */\n      dup1\n        /* \"#utility.yul\":3891:3897   */\n      0x00\n        /* \"#utility.yul\":3940:3942   */\n      0x60\n        /* \"#utility.yul\":3928:3937   */\n      dup5\n        /* \"#utility.yul\":3919:3926   */\n      dup7\n        /* \"#utility.yul\":3915:3938   */\n      sub\n        /* \"#utility.yul\":3911:3943   */\n      slt\n        /* \"#utility.yul\":3908:4027   */\n      iszero\n      tag_449\n      jumpi\n        /* \"#utility.yul\":3946:4025   */\n      tag_450\n      tag_331\n      jump\t// in\n    tag_450:\n        /* \"#utility.yul\":3908:4027   */\n    tag_449:\n        /* \"#utility.yul\":4066:4067   */\n      0x00\n        /* \"#utility.yul\":4091:4144   */\n      tag_451\n        /* \"#utility.yul\":4136:4143   */\n      dup7\n        /* \"#utility.yul\":4127:4133   */\n      dup3\n        /* \"#utility.yul\":4116:4125   */\n      dup8\n        /* \"#utility.yul\":4112:4134   */\n      add\n        /* \"#utility.yul\":4091:4144   */\n      tag_336\n      jump\t// in\n    tag_451:\n        /* \"#utility.yul\":4081:4144   */\n      swap4\n      pop\n        /* \"#utility.yul\":4037:4154   */\n      pop\n        /* \"#utility.yul\":4193:4195   */\n      0x20\n        /* \"#utility.yul\":4219:4272   */\n      tag_452\n        /* \"#utility.yul\":4264:4271   */\n      dup7\n        /* \"#utility.yul\":4255:4261   */\n      dup3\n        /* \"#utility.yul\":4244:4253   */\n      dup8\n        /* \"#utility.yul\":4240:4262   */\n      add\n        /* \"#utility.yul\":4219:4272   */\n      tag_336\n      jump\t// in\n    tag_452:\n        /* \"#utility.yul\":4209:4272   */\n      swap3\n      pop\n        /* \"#utility.yul\":4164:4282   */\n      pop\n        /* \"#utility.yul\":4321:4323   */\n      0x40\n        /* \"#utility.yul\":4347:4400   */\n      tag_453\n        /* \"#utility.yul\":4392:4399   */\n      dup7\n        /* \"#utility.yul\":4383:4389   */\n      dup3\n        /* \"#utility.yul\":4372:4381   */\n      dup8\n        /* \"#utility.yul\":4368:4390   */\n      add\n        /* \"#utility.yul\":4347:4400   */\n      tag_339\n      jump\t// in\n    tag_453:\n        /* \"#utility.yul\":4337:4400   */\n      swap2\n      pop\n        /* \"#utility.yul\":4292:4410   */\n      pop\n        /* \"#utility.yul\":3798:4417   */\n      swap3\n      pop\n      swap3\n      pop\n      swap3\n      jump\t// out\n        /* \"#utility.yul\":4423:4752   */\n    tag_64:\n        /* \"#utility.yul\":4482:4488   */\n      0x00\n        /* \"#utility.yul\":4531:4533   */\n      0x20\n        /* \"#utility.yul\":4519:4528   */\n      dup3\n        /* \"#utility.yul\":4510:4517   */\n      dup5\n        /* \"#utility.yul\":4506:4529   */\n      sub\n        /* \"#utility.yul\":4502:4534   */\n      slt\n        /* \"#utility.yul\":4499:4618   */\n      iszero\n      tag_455\n      jumpi\n        /* \"#utility.yul\":4537:4616   */\n      tag_456\n      tag_331\n      jump\t// in\n    tag_456:\n        /* \"#utility.yul\":4499:4618   */\n    tag_455:\n        /* \"#utility.yul\":4657:4658   */\n      0x00\n        /* \"#utility.yul\":4682:4735   */\n      tag_457\n        /* \"#utility.yul\":4727:4734   */\n      dup5\n        /* \"#utility.yul\":4718:4724   */\n      dup3\n        /* \"#utility.yul\":4707:4716   */\n      dup6\n        /* \"#utility.yul\":4703:4725   */\n      add\n        /* \"#utility.yul\":4682:4735   */\n      tag_339\n      jump\t// in\n    tag_457:\n        /* \"#utility.yul\":4672:4735   */\n      swap2\n      pop\n        /* \"#utility.yul\":4628:4745   */\n      pop\n        /* \"#utility.yul\":4423:4752   */\n      swap3\n      swap2\n      pop\n      pop\n      jump\t// out\n        /* \"#utility.yul\":4758:4844   */\n    tag_343:\n        /* \"#utility.yul\":4793:4800   */\n      0x00\n        /* \"#utility.yul\":4833:4837   */\n      0xff\n        /* \"#utility.yul\":4826:4831   */\n      dup3\n        /* \"#utility.yul\":4822:4838   */\n      and\n        /* \"#utility.yul\":4811:4838   */\n      swap1\n      pop\n        /* \"#utility.yul\":4758:4844   */\n      swap2\n      swap1\n      pop\n      jump\t// out\n        /* \"#utility.yul\":4850:4962   */\n    tag_344:\n        /* \"#utility.yul\":4933:4955   */\n      tag_460\n        /* \"#utility.yul\":4949:4954   */\n      dup2\n        /* \"#utility.yul\":4933:4955   */\n      tag_343\n      jump\t// in\n    tag_460:\n        /* \"#utility.yul\":4928:4931   */\n      dup3\n        /* \"#utility.yul\":4921:4956   */\n      mstore\n        /* \"#utility.yul\":4850:4962   */\n      pop\n      pop\n      jump\t// out\n        /* \"#utility.yul\":4968:5182   */\n    tag_75:\n        /* \"#utility.yul\":5057:5061   */\n      0x00\n        /* \"#utility.yul\":5095:5097   */\n      0x20\n        /* \"#utility.yul\":5084:5093   */\n      dup3\n        /* \"#utility.yul\":5080:5098   */\n      add\n        /* \"#utility.yul\":5072:5098   */\n      swap1\n      pop\n        /* \"#utility.yul\":5108:5175   */\n      tag_462\n        /* \"#utility.yul\":5172:5173   */\n      0x00\n        /* \"#utility.yul\":5161:5170   */\n      dup4\n        /* \"#utility.yul\":5157:5174   */\n      add\n        /* \"#utility.yul\":5148:5154   */\n      dup5\n        /* \"#utility.yul\":5108:5175   */\n      tag_344\n      jump\t// in\n    tag_462:\n        /* \"#utility.yul\":4968:5182   */\n      swap3\n      swap2\n      pop\n      pop\n      jump\t// out\n        /* \"#utility.yul\":5188:5517   */\n    tag_88:\n        /* \"#utility.yul\":5247:5253   */\n      0x00\n        /* \"#utility.yul\":5296:5298   */\n      0x20\n        /* \"#utility.yul\":5284:5293   */\n      dup3\n        /* \"#utility.yul\":5275:5282   */\n      dup5\n        /* \"#utility.yul\":5271:5294   */\n      sub\n        /* \"#utility.yul\":5267:5299   */\n      slt\n        /* \"#utility.yul\":5264:5383   */\n      iszero\n      tag_464\n      jumpi\n        /* \"#utility.yul\":5302:5381   */\n      tag_465\n      tag_331\n      jump\t// in\n    tag_465:\n        /* \"#utility.yul\":5264:5383   */\n    tag_464:\n        /* \"#utility.yul\":5422:5423   */\n      0x00\n        /* \"#utility.yul\":5447:5500   */\n      tag_466\n        /* \"#utility.yul\":5492:5499   */\n      dup5\n        /* \"#utility.yul\":5483:5489   */\n      dup3\n        /* \"#utility.yul\":5472:5481   */\n      dup6\n        /* \"#utility.yul\":5468:5490   */\n      add\n        /* \"#utility.yul\":5447:5500   */\n      tag_336\n      jump\t// in\n    tag_466:\n        /* \"#utility.yul\":5437:5500   */\n      swap2\n      pop\n        /* \"#utility.yul\":5393:5510   */\n      pop\n        /* \"#utility.yul\":5188:5517   */\n      swap3\n      swap2\n      pop\n      pop\n      jump\t// out\n        /* \"#utility.yul\":5523:5703   */\n    tag_253:\n        /* \"#utility.yul\":5571:5648   */\n      0x4e487b7100000000000000000000000000000000000000000000000000000000\n        /* \"#utility.yul\":5568:5569   */\n      0x00\n        /* \"#utility.yul\":5561:5649   */\n      mstore\n        /* \"#utility.yul\":5668:5672   */\n      0x21\n        /* \"#utility.yul\":5665:5666   */\n      0x04\n        /* \"#utility.yul\":5658:5673   */\n      mstore\n        /* \"#utility.yul\":5692:5696   */\n      0x24\n        /* \"#utility.yul\":5689:5690   */\n      0x00\n        /* \"#utility.yul\":5682:5697   */\n      revert\n        /* \"#utility.yul\":5709:5822   */\n    tag_345:\n        /* \"#utility.yul\":5790:5791   */\n      0x02\n        /* \"#utility.yul\":5783:5788   */\n      dup2\n        /* \"#utility.yul\":5780:5792   */\n      lt\n        /* \"#utility.yul\":5770:5816   */\n      tag_469\n      jumpi\n        /* \"#utility.yul\":5796:5814   */\n      tag_470\n      tag_253\n      jump\t// in\n    tag_470:\n        /* \"#utility.yul\":5770:5816   */\n    tag_469:\n        /* \"#utility.yul\":5709:5822   */\n      pop\n      jump\t// out\n        /* \"#utility.yul\":5828:5955   */\n    tag_346:\n        /* \"#utility.yul\":5873:5880   */\n      0x00\n        /* \"#utility.yul\":5902:5907   */\n      dup2\n        /* \"#utility.yul\":5891:5907   */\n      swap1\n      pop\n        /* \"#utility.yul\":5908:5949   */\n      tag_472\n        /* \"#utility.yul\":5943:5948   */\n      dup3\n        /* \"#utility.yul\":5908:5949   */\n      tag_345\n      jump\t// in\n    tag_472:\n        /* \"#utility.yul\":5828:5955   */\n      swap2\n      swap1\n      pop\n      jump\t// out\n        /* \"#utility.yul\":5961:6088   */\n    tag_347:\n        /* \"#utility.yul\":6017:6026   */\n      0x00\n        /* \"#utility.yul\":6050:6082   */\n      tag_474\n        /* \"#utility.yul\":6076:6081   */\n      dup3\n        /* \"#utility.yul\":6050:6082   */\n      tag_346\n      jump\t// in\n    tag_474:\n        /* \"#utility.yul\":6037:6082   */\n      swap1\n      pop\n        /* \"#utility.yul\":5961:6088   */\n      swap2\n      swap1\n      pop\n      jump\t// out\n        /* \"#utility.yul\":6094:6237   */\n    tag_348:\n        /* \"#utility.yul\":6187:6230   */\n      tag_476\n        /* \"#utility.yul\":6224:6229   */\n      dup2\n        /* \"#utility.yul\":6187:6230   */\n      tag_347\n      jump\t// in\n    tag_476:\n        /* \"#utility.yul\":6182:6185   */\n      dup3\n        /* \"#utility.yul\":6175:6231   */\n      mstore\n        /* \"#utility.yul\":6094:6237   */\n      pop\n      pop\n      jump\t// out\n        /* \"#utility.yul\":6243:6477   */\n    tag_91:\n        /* \"#utility.yul\":6342:6346   */\n      0x00\n        /* \"#utility.yul\":6380:6382   */\n      0x20\n        /* \"#utility.yul\":6369:6378   */\n      dup3\n        /* \"#utility.yul\":6365:6383   */\n      add\n        /* \"#utility.yul\":6357:6383   */\n      swap1\n      pop\n        /* \"#utility.yul\":6393:6470   */\n      tag_478\n        /* \"#utility.yul\":6467:6468   */\n      0x00\n        /* \"#utility.yul\":6456:6465   */\n      dup4\n        /* \"#utility.yul\":6452:6469   */\n      add\n        /* \"#utility.yul\":6443:6449   */\n      dup5\n        /* \"#utility.yul\":6393:6470   */\n      tag_348\n      jump\t// in\n    tag_478:\n        /* \"#utility.yul\":6243:6477   */\n      swap3\n      swap2\n      pop\n      pop\n      jump\t// out\n        /* \"#utility.yul\":6483:6601   */\n    tag_349:\n        /* \"#utility.yul\":6570:6594   */\n      tag_480\n        /* \"#utility.yul\":6588:6593   */\n      dup2\n        /* \"#utility.yul\":6570:6594   */\n      tag_334\n      jump\t// in\n    tag_480:\n        /* \"#utility.yul\":6565:6568   */\n      dup3\n        /* \"#utility.yul\":6558:6595   */\n      mstore\n        /* \"#utility.yul\":6483:6601   */\n      pop\n      pop\n      jump\t// out\n        /* \"#utility.yul\":6607:6829   */\n    tag_97:\n        /* \"#utility.yul\":6700:6704   */\n      0x00\n        /* \"#utility.yul\":6738:6740   */\n      0x20\n        /* \"#utility.yul\":6727:6736   */\n      dup3\n        /* \"#utility.yul\":6723:6741   */\n      add\n        /* \"#utility.yul\":6715:6741   */\n      swap1\n      pop\n        /* \"#utility.yul\":6751:6822   */\n      tag_482\n        /* \"#utility.yul\":6819:6820   */\n      0x00\n        /* \"#utility.yul\":6808:6817   */\n      dup4\n        /* \"#utility.yul\":6804:6821   */\n      add\n        /* \"#utility.yul\":6795:6801   */\n      dup5\n        /* \"#utility.yul\":6751:6822   */\n      tag_349\n      jump\t// in\n    tag_482:\n        /* \"#utility.yul\":6607:6829   */\n      swap3\n      swap2\n      pop\n      pop\n      jump\t// out\n        /* \"#utility.yul\":6835:7258   */\n    tag_112:\n        /* \"#utility.yul\":6976:6980   */\n      0x00\n        /* \"#utility.yul\":7014:7016   */\n      0x40\n        /* \"#utility.yul\":7003:7012   */\n      dup3\n        /* \"#utility.yul\":6999:7017   */\n      add\n        /* \"#utility.yul\":6991:7017   */\n      swap1\n      pop\n        /* \"#utility.yul\":7063:7072   */\n      dup2\n        /* \"#utility.yul\":7057:7061   */\n      dup2\n        /* \"#utility.yul\":7053:7073   */\n      sub\n        /* \"#utility.yul\":7049:7050   */\n      0x00\n        /* \"#utility.yul\":7038:7047   */\n      dup4\n        /* \"#utility.yul\":7034:7051   */\n      add\n        /* \"#utility.yul\":7027:7074   */\n      mstore\n        /* \"#utility.yul\":7091:7169   */\n      tag_484\n        /* \"#utility.yul\":7164:7168   */\n      dup2\n        /* \"#utility.yul\":7155:7161   */\n      dup6\n        /* \"#utility.yul\":7091:7169   */\n      tag_329\n      jump\t// in\n    tag_484:\n        /* \"#utility.yul\":7083:7169   */\n      swap1\n      pop\n        /* \"#utility.yul\":7179:7251   */\n      tag_485\n        /* \"#utility.yul\":7247:7249   */\n      0x20\n        /* \"#utility.yul\":7236:7245   */\n      dup4\n        /* \"#utility.yul\":7232:7250   */\n      add\n        /* \"#utility.yul\":7223:7229   */\n      dup5\n        /* \"#utility.yul\":7179:7251   */\n      tag_349\n      jump\t// in\n    tag_485:\n        /* \"#utility.yul\":6835:7258   */\n      swap4\n      swap3\n      pop\n      pop\n      pop\n      jump\t// out\n        /* \"#utility.yul\":7264:7381   */\n    tag_350:\n        /* \"#utility.yul\":7373:7374   */\n      0x00\n        /* \"#utility.yul\":7370:7371   */\n      dup1\n        /* \"#utility.yul\":7363:7375   */\n      revert\n        /* \"#utility.yul\":7387:7504   */\n    tag_351:\n        /* \"#utility.yul\":7496:7497   */\n      0x00\n        /* \"#utility.yul\":7493:7494   */\n      dup1\n        /* \"#utility.yul\":7486:7498   */\n      revert\n        /* \"#utility.yul\":7510:7690   */\n    tag_352:\n        /* \"#utility.yul\":7558:7635   */\n      0x4e487b7100000000000000000000000000000000000000000000000000000000\n        /* \"#utility.yul\":7555:7556   */\n      0x00\n        /* \"#utility.yul\":7548:7636   */\n      mstore\n        /* \"#utility.yul\":7655:7659   */\n      0x41\n        /* \"#utility.yul\":7652:7653   */\n      0x04\n        /* \"#utility.yul\":7645:7660   */\n      mstore\n        /* \"#utility.yul\":7679:7683   */\n      0x24\n        /* \"#utility.yul\":7676:7677   */\n      0x00\n        /* \"#utility.yul\":7669:7684   */\n      revert\n        /* \"#utility.yul\":7696:7977   */\n    tag_353:\n        /* \"#utility.yul\":7779:7806   */\n      tag_490\n        /* \"#utility.yul\":7801:7805   */\n      dup3\n        /* \"#utility.yul\":7779:7806   */\n      tag_328\n      jump\t// in\n    tag_490:\n        /* \"#utility.yul\":7771:7777   */\n      dup2\n        /* \"#utility.yul\":7767:7807   */\n      add\n        /* \"#utility.yul\":7909:7915   */\n      dup2\n        /* \"#utility.yul\":7897:7907   */\n      dup2\n        /* \"#utility.yul\":7894:7916   */\n      lt\n        /* \"#utility.yul\":7873:7891   */\n      0xffffffffffffffff\n        /* \"#utility.yul\":7861:7871   */\n      dup3\n        /* \"#utility.yul\":7858:7892   */\n      gt\n        /* \"#utility.yul\":7855:7917   */\n      or\n        /* \"#utility.yul\":7852:7940   */\n      iszero\n      tag_491\n      jumpi\n        /* \"#utility.yul\":7920:7938   */\n      tag_492\n      tag_352\n      jump\t// in\n    tag_492:\n        /* \"#utility.yul\":7852:7940   */\n    tag_491:\n        /* \"#utility.yul\":7960:7970   */\n      dup1\n        /* \"#utility.yul\":7956:7958   */\n      0x40\n        /* \"#utility.yul\":7949:7971   */\n      mstore\n        /* \"#utility.yul\":7739:7977   */\n      pop\n        /* \"#utility.yul\":7696:7977   */\n      pop\n      pop\n      jump\t// out\n        /* \"#utility.yul\":7983:8112   */\n    tag_354:\n        /* \"#utility.yul\":8017:8023   */\n      0x00\n        /* \"#utility.yul\":8044:8064   */\n      tag_494\n      tag_330\n      jump\t// in\n    tag_494:\n        /* \"#utility.yul\":8034:8064   */\n      swap1\n      pop\n        /* \"#utility.yul\":8073:8106   */\n      tag_495\n        /* \"#utility.yul\":8101:8105   */\n      dup3\n        /* \"#utility.yul\":8093:8099   */\n      dup3\n        /* \"#utility.yul\":8073:8106   */\n      tag_353\n      jump\t// in\n    tag_495:\n        /* \"#utility.yul\":7983:8112   */\n      swap2\n      swap1\n      pop\n      jump\t// out\n        /* \"#utility.yul\":8118:8426   */\n    tag_355:\n        /* \"#utility.yul\":8180:8184   */\n      0x00\n        /* \"#utility.yul\":8270:8288   */\n      0xffffffffffffffff\n        /* \"#utility.yul\":8262:8268   */\n      dup3\n        /* \"#utility.yul\":8259:8289   */\n      gt\n        /* \"#utility.yul\":8256:8312   */\n      iszero\n      tag_497\n      jumpi\n        /* \"#utility.yul\":8292:8310   */\n      tag_498\n      tag_352\n      jump\t// in\n    tag_498:\n        /* \"#utility.yul\":8256:8312   */\n    tag_497:\n        /* \"#utility.yul\":8330:8359   */\n      tag_499\n        /* \"#utility.yul\":8352:8358   */\n      dup3\n        /* \"#utility.yul\":8330:8359   */\n      tag_328\n      jump\t// in\n    tag_499:\n        /* \"#utility.yul\":8322:8359   */\n      swap1\n      pop\n        /* \"#utility.yul\":8414:8418   */\n      0x20\n        /* \"#utility.yul\":8408:8412   */\n      dup2\n        /* \"#utility.yul\":8404:8419   */\n      add\n        /* \"#utility.yul\":8396:8419   */\n      swap1\n      pop\n        /* \"#utility.yul\":8118:8426   */\n      swap2\n      swap1\n      pop\n      jump\t// out\n        /* \"#utility.yul\":8432:8578   */\n    tag_356:\n        /* \"#utility.yul\":8529:8535   */\n      dup3\n        /* \"#utility.yul\":8524:8527   */\n      dup2\n        /* \"#utility.yul\":8519:8522   */\n      dup4\n        /* \"#utility.yul\":8506:8536   */\n      calldatacopy\n        /* \"#utility.yul\":8570:8571   */\n      0x00\n        /* \"#utility.yul\":8561:8567   */\n      dup4\n        /* \"#utility.yul\":8556:8559   */\n      dup4\n        /* \"#utility.yul\":8552:8568   */\n      add\n        /* \"#utility.yul\":8545:8572   */\n      mstore\n        /* \"#utility.yul\":8432:8578   */\n      pop\n      pop\n      pop\n      jump\t// out\n        /* \"#utility.yul\":8584:9009   */\n    tag_357:\n        /* \"#utility.yul\":8662:8667   */\n      0x00\n        /* \"#utility.yul\":8687:8753   */\n      tag_502\n        /* \"#utility.yul\":8703:8752   */\n      tag_503\n        /* \"#utility.yul\":8745:8751   */\n      dup5\n        /* \"#utility.yul\":8703:8752   */\n      tag_355\n      jump\t// in\n    tag_503:\n        /* \"#utility.yul\":8687:8753   */\n      tag_354\n      jump\t// in\n    tag_502:\n        /* \"#utility.yul\":8678:8753   */\n      swap1\n      pop\n        /* \"#utility.yul\":8776:8782   */\n      dup3\n        /* \"#utility.yul\":8769:8774   */\n      dup2\n        /* \"#utility.yul\":8762:8783   */\n      mstore\n        /* \"#utility.yul\":8814:8818   */\n      0x20\n        /* \"#utility.yul\":8807:8812   */\n      dup2\n        /* \"#utility.yul\":8803:8819   */\n      add\n        /* \"#utility.yul\":8852:8855   */\n      dup5\n        /* \"#utility.yul\":8843:8849   */\n      dup5\n        /* \"#utility.yul\":8838:8841   */\n      dup5\n        /* \"#utility.yul\":8834:8850   */\n      add\n        /* \"#utility.yul\":8831:8856   */\n      gt\n        /* \"#utility.yul\":8828:8940   */\n      iszero\n      tag_504\n      jumpi\n        /* \"#utility.yul\":8859:8938   */\n      tag_505\n      tag_351\n      jump\t// in\n    tag_505:\n        /* \"#utility.yul\":8828:8940   */\n    tag_504:\n        /* \"#utility.yul\":8949:9003   */\n      tag_506\n        /* \"#utility.yul\":8996:9002   */\n      dup5\n        /* \"#utility.yul\":8991:8994   */\n      dup3\n        /* \"#utility.yul\":8986:8989   */\n      dup6\n        /* \"#utility.yul\":8949:9003   */\n      tag_356\n      jump\t// in\n    tag_506:\n        /* \"#utility.yul\":8668:9009   */\n      pop\n        /* \"#utility.yul\":8584:9009   */\n      swap4\n      swap3\n      pop\n      pop\n      pop\n      jump\t// out\n        /* \"#utility.yul\":9029:9369   */\n    tag_358:\n        /* \"#utility.yul\":9085:9090   */\n      0x00\n        /* \"#utility.yul\":9134:9137   */\n      dup3\n        /* \"#utility.yul\":9127:9131   */\n      0x1f\n        /* \"#utility.yul\":9119:9125   */\n      dup4\n        /* \"#utility.yul\":9115:9132   */\n      add\n        /* \"#utility.yul\":9111:9138   */\n      slt\n        /* \"#utility.yul\":9101:9223   */\n      tag_508\n      jumpi\n        /* \"#utility.yul\":9142:9221   */\n      tag_509\n      tag_350\n      jump\t// in\n    tag_509:\n        /* \"#utility.yul\":9101:9223   */\n    tag_508:\n        /* \"#utility.yul\":9259:9265   */\n      dup2\n        /* \"#utility.yul\":9246:9266   */\n      calldataload\n        /* \"#utility.yul\":9284:9363   */\n      tag_510\n        /* \"#utility.yul\":9359:9362   */\n      dup5\n        /* \"#utility.yul\":9351:9357   */\n      dup3\n        /* \"#utility.yul\":9344:9348   */\n      0x20\n        /* \"#utility.yul\":9336:9342   */\n      dup7\n        /* \"#utility.yul\":9332:9349   */\n      add\n        /* \"#utility.yul\":9284:9363   */\n      tag_357\n      jump\t// in\n    tag_510:\n        /* \"#utility.yul\":9275:9363   */\n      swap2\n      pop\n        /* \"#utility.yul\":9091:9369   */\n      pop\n        /* \"#utility.yul\":9029:9369   */\n      swap3\n      swap2\n      pop\n      pop\n      jump\t// out\n        /* \"#utility.yul\":9375:9884   */\n    tag_142:\n        /* \"#utility.yul\":9444:9450   */\n      0x00\n        /* \"#utility.yul\":9493:9495   */\n      0x20\n        /* \"#utility.yul\":9481:9490   */\n      dup3\n        /* \"#utility.yul\":9472:9479   */\n      dup5\n        /* \"#utility.yul\":9468:9491   */\n      sub\n        /* \"#utility.yul\":9464:9496   */\n      slt\n        /* \"#utility.yul\":9461:9580   */\n      iszero\n      tag_512\n      jumpi\n        /* \"#utility.yul\":9499:9578   */\n      tag_513\n      tag_331\n      jump\t// in\n    tag_513:\n        /* \"#utility.yul\":9461:9580   */\n    tag_512:\n        /* \"#utility.yul\":9647:9648   */\n      0x00\n        /* \"#utility.yul\":9636:9645   */\n      dup3\n        /* \"#utility.yul\":9632:9649   */\n      add\n        /* \"#utility.yul\":9619:9650   */\n      calldataload\n        /* \"#utility.yul\":9677:9695   */\n      0xffffffffffffffff\n        /* \"#utility.yul\":9669:9675   */\n      dup2\n        /* \"#utility.yul\":9666:9696   */\n      gt\n        /* \"#utility.yul\":9663:9780   */\n      iszero\n      tag_514\n      jumpi\n        /* \"#utility.yul\":9699:9778   */\n      tag_515\n      tag_332\n      jump\t// in\n    tag_515:\n        /* \"#utility.yul\":9663:9780   */\n    tag_514:\n        /* \"#utility.yul\":9804:9867   */\n      tag_516\n        /* \"#utility.yul\":9859:9866   */\n      dup5\n        /* \"#utility.yul\":9850:9856   */\n      dup3\n        /* \"#utility.yul\":9839:9848   */\n      dup6\n        /* \"#utility.yul\":9835:9857   */\n      add\n        /* \"#utility.yul\":9804:9867   */\n      tag_358\n      jump\t// in\n    tag_516:\n        /* \"#utility.yul\":9794:9867   */\n      swap2\n      pop\n        /* \"#utility.yul\":9590:9877   */\n      pop\n        /* \"#utility.yul\":9375:9884   */\n      swap3\n      swap2\n      pop\n      pop\n      jump\t// out\n        /* \"#utility.yul\":9890:10364   */\n    tag_147:\n        /* \"#utility.yul\":9958:9964   */\n      0x00\n        /* \"#utility.yul\":9966:9972   */\n      dup1\n        /* \"#utility.yul\":10015:10017   */\n      0x40\n        /* \"#utility.yul\":10003:10012   */\n      dup4\n        /* \"#utility.yul\":9994:10001   */\n      dup6\n        /* \"#utility.yul\":9990:10013   */\n      sub\n        /* \"#utility.yul\":9986:10018   */\n      slt\n        /* \"#utility.yul\":9983:10102   */\n      iszero\n      tag_518\n      jumpi\n        /* \"#utility.yul\":10021:10100   */\n      tag_519\n      tag_331\n      jump\t// in\n    tag_519:\n        /* \"#utility.yul\":9983:10102   */\n    tag_518:\n        /* \"#utility.yul\":10141:10142   */\n      0x00\n        /* \"#utility.yul\":10166:10219   */\n      tag_520\n        /* \"#utility.yul\":10211:10218   */\n      dup6\n        /* \"#utility.yul\":10202:10208   */\n      dup3\n        /* \"#utility.yul\":10191:10200   */\n      dup7\n        /* \"#utility.yul\":10187:10209   */\n      add\n        /* \"#utility.yul\":10166:10219   */\n      tag_336\n      jump\t// in\n    tag_520:\n        /* \"#utility.yul\":10156:10219   */\n      swap3\n      pop\n        /* \"#utility.yul\":10112:10229   */\n      pop\n        /* \"#utility.yul\":10268:10270   */\n      0x20\n        /* \"#utility.yul\":10294:10347   */\n      tag_521\n        /* \"#utility.yul\":10339:10346   */\n      dup6\n        /* \"#utility.yul\":10330:10336   */\n      dup3\n        /* \"#utility.yul\":10319:10328   */\n      dup7\n        /* \"#utility.yul\":10315:10337   */\n      add\n        /* \"#utility.yul\":10294:10347   */\n      tag_336\n      jump\t// in\n    tag_521:\n        /* \"#utility.yul\":10284:10347   */\n      swap2\n      pop\n        /* \"#utility.yul\":10239:10357   */\n      pop\n        /* \"#utility.yul\":9890:10364   */\n      swap3\n      pop\n      swap3\n      swap1\n      pop\n      jump\t// out\n        /* \"#utility.yul\":10370:10486   */\n    tag_359:\n        /* \"#utility.yul\":10440:10461   */\n      tag_523\n        /* \"#utility.yul\":10455:10460   */\n      dup2\n        /* \"#utility.yul\":10440:10461   */\n      tag_340\n      jump\t// in\n    tag_523:\n        /* \"#utility.yul\":10433:10438   */\n      dup2\n        /* \"#utility.yul\":10430:10462   */\n      eq\n        /* \"#utility.yul\":10420:10480   */\n      tag_524\n      jumpi\n        /* \"#utility.yul\":10476:10477   */\n      0x00\n        /* \"#utility.yul\":10473:10474   */\n      dup1\n        /* \"#utility.yul\":10466:10478   */\n      revert\n        /* \"#utility.yul\":10420:10480   */\n    tag_524:\n        /* \"#utility.yul\":10370:10486   */\n      pop\n      jump\t// out\n        /* \"#utility.yul\":10492:10625   */\n    tag_360:\n        /* \"#utility.yul\":10535:10540   */\n      0x00\n        /* \"#utility.yul\":10573:10579   */\n      dup2\n        /* \"#utility.yul\":10560:10580   */\n      calldataload\n        /* \"#utility.yul\":10551:10580   */\n      swap1\n      pop\n        /* \"#utility.yul\":10589:10619   */\n      tag_526\n        /* \"#utility.yul\":10613:10618   */\n      dup2\n        /* \"#utility.yul\":10589:10619   */\n      tag_359\n      jump\t// in\n    tag_526:\n        /* \"#utility.yul\":10492:10625   */\n      swap3\n      swap2\n      pop\n      pop\n      jump\t// out\n        /* \"#utility.yul\":10631:11099   */\n    tag_153:\n        /* \"#utility.yul\":10696:10702   */\n      0x00\n        /* \"#utility.yul\":10704:10710   */\n      dup1\n        /* \"#utility.yul\":10753:10755   */\n      0x40\n        /* \"#utility.yul\":10741:10750   */\n      dup4\n        /* \"#utility.yul\":10732:10739   */\n      dup6\n        /* \"#utility.yul\":10728:10751   */\n      sub\n        /* \"#utility.yul\":10724:10756   */\n      slt\n        /* \"#utility.yul\":10721:10840   */\n      iszero\n      tag_528\n      jumpi\n        /* \"#utility.yul\":10759:10838   */\n      tag_529\n      tag_331\n      jump\t// in\n    tag_529:\n        /* \"#utility.yul\":10721:10840   */\n    tag_528:\n        /* \"#utility.yul\":10879:10880   */\n      0x00\n        /* \"#utility.yul\":10904:10957   */\n      tag_530\n        /* \"#utility.yul\":10949:10956   */\n      dup6\n        /* \"#utility.yul\":10940:10946   */\n      dup3\n        /* \"#utility.yul\":10929:10938   */\n      dup7\n        /* \"#utility.yul\":10925:10947   */\n      add\n        /* \"#utility.yul\":10904:10957   */\n      tag_339\n      jump\t// in\n    tag_530:\n        /* \"#utility.yul\":10894:10957   */\n      swap3\n      pop\n        /* \"#utility.yul\":10850:10967   */\n      pop\n        /* \"#utility.yul\":11006:11008   */\n      0x20\n        /* \"#utility.yul\":11032:11082   */\n      tag_531\n        /* \"#utility.yul\":11074:11081   */\n      dup6\n        /* \"#utility.yul\":11065:11071   */\n      dup3\n        /* \"#utility.yul\":11054:11063   */\n      dup7\n        /* \"#utility.yul\":11050:11072   */\n      add\n        /* \"#utility.yul\":11032:11082   */\n      tag_360\n      jump\t// in\n    tag_531:\n        /* \"#utility.yul\":11022:11082   */\n      swap2\n      pop\n        /* \"#utility.yul\":10977:11092   */\n      pop\n        /* \"#utility.yul\":10631:11099   */\n      swap3\n      pop\n      swap3\n      swap1\n      pop\n      jump\t// out\n        /* \"#utility.yul\":11105:11285   */\n    tag_361:\n        /* \"#utility.yul\":11153:11230   */\n      0x4e487b7100000000000000000000000000000000000000000000000000000000\n        /* \"#utility.yul\":11150:11151   */\n      0x00\n        /* \"#utility.yul\":11143:11231   */\n      mstore\n        /* \"#utility.yul\":11250:11254   */\n      0x22\n        /* \"#utility.yul\":11247:11248   */\n      0x04\n        /* \"#utility.yul\":11240:11255   */\n      mstore\n        /* \"#utility.yul\":11274:11278   */\n      0x24\n        /* \"#utility.yul\":11271:11272   */\n      0x00\n        /* \"#utility.yul\":11264:11279   */\n      revert\n        /* \"#utility.yul\":11291:11611   */\n    tag_168:\n        /* \"#utility.yul\":11335:11341   */\n      0x00\n        /* \"#utility.yul\":11372:11373   */\n      0x02\n        /* \"#utility.yul\":11366:11370   */\n      dup3\n        /* \"#utility.yul\":11362:11374   */\n      div\n        /* \"#utility.yul\":11352:11374   */\n      swap1\n      pop\n        /* \"#utility.yul\":11419:11420   */\n      0x01\n        /* \"#utility.yul\":11413:11417   */\n      dup3\n        /* \"#utility.yul\":11409:11421   */\n      and\n        /* \"#utility.yul\":11440:11458   */\n      dup1\n        /* \"#utility.yul\":11430:11511   */\n      tag_534\n      jumpi\n        /* \"#utility.yul\":11496:11500   */\n      0x7f\n        /* \"#utility.yul\":11488:11494   */\n      dup3\n        /* \"#utility.yul\":11484:11501   */\n      and\n        /* \"#utility.yul\":11474:11501   */\n      swap2\n      pop\n        /* \"#utility.yul\":11430:11511   */\n    tag_534:\n        /* \"#utility.yul\":11558:11560   */\n      0x20\n        /* \"#utility.yul\":11550:11556   */\n      dup3\n        /* \"#utility.yul\":11547:11561   */\n      lt\n        /* \"#utility.yul\":11527:11545   */\n      dup2\n        /* \"#utility.yul\":11524:11562   */\n      sub\n        /* \"#utility.yul\":11521:11605   */\n      tag_535\n      jumpi\n        /* \"#utility.yul\":11577:11595   */\n      tag_536\n      tag_361\n      jump\t// in\n    tag_536:\n        /* \"#utility.yul\":11521:11605   */\n    tag_535:\n        /* \"#utility.yul\":11342:11611   */\n      pop\n        /* \"#utility.yul\":11291:11611   */\n      swap2\n      swap1\n      pop\n      jump\t// out\n        /* \"#utility.yul\":11617:11932   */\n    tag_362:\n        /* \"#utility.yul\":11757:11823   */\n      0xd091d0bed0bbd18cd188d0b52031303030303020d0bdd0b5d0bbd18cd0b7d18f\n        /* \"#utility.yul\":11753:11754   */\n      0x00\n        /* \"#utility.yul\":11745:11751   */\n      dup3\n        /* \"#utility.yul\":11741:11755   */\n      add\n        /* \"#utility.yul\":11734:11824   */\n      mstore\n        /* \"#utility.yul\":11858:11924   */\n      0x20d0bad183d0bfd0b8d182d18c00000000000000000000000000000000000000\n        /* \"#utility.yul\":11853:11855   */\n      0x20\n        /* \"#utility.yul\":11845:11851   */\n      dup3\n        /* \"#utility.yul\":11841:11856   */\n      add\n        /* \"#utility.yul\":11834:11925   */\n      mstore\n        /* \"#utility.yul\":11617:11932   */\n      pop\n      jump\t// out\n        /* \"#utility.yul\":11938:12304   */\n    tag_363:\n        /* \"#utility.yul\":12080:12083   */\n      0x00\n        /* \"#utility.yul\":12101:12168   */\n      tag_539\n        /* \"#utility.yul\":12165:12167   */\n      0x2d\n        /* \"#utility.yul\":12160:12163   */\n      dup4\n        /* \"#utility.yul\":12101:12168   */\n      tag_326\n      jump\t// in\n    tag_539:\n        /* \"#utility.yul\":12094:12168   */\n      swap2\n      pop\n        /* \"#utility.yul\":12177:12270   */\n      tag_540\n        /* \"#utility.yul\":12266:12269   */\n      dup3\n        /* \"#utility.yul\":12177:12270   */\n      tag_362\n      jump\t// in\n    tag_540:\n        /* \"#utility.yul\":12295:12297   */\n      0x40\n        /* \"#utility.yul\":12290:12293   */\n      dup3\n        /* \"#utility.yul\":12286:12298   */\n      add\n        /* \"#utility.yul\":12279:12298   */\n      swap1\n      pop\n        /* \"#utility.yul\":11938:12304   */\n      swap2\n      swap1\n      pop\n      jump\t// out\n        /* \"#utility.yul\":12310:12729   */\n    tag_188:\n        /* \"#utility.yul\":12476:12480   */\n      0x00\n        /* \"#utility.yul\":12514:12516   */\n      0x20\n        /* \"#utility.yul\":12503:12512   */\n      dup3\n        /* \"#utility.yul\":12499:12517   */\n      add\n        /* \"#utility.yul\":12491:12517   */\n      swap1\n      pop\n        /* \"#utility.yul\":12563:12572   */\n      dup2\n        /* \"#utility.yul\":12557:12561   */\n      dup2\n        /* \"#utility.yul\":12553:12573   */\n      sub\n        /* \"#utility.yul\":12549:12550   */\n      0x00\n        /* \"#utility.yul\":12538:12547   */\n      dup4\n        /* \"#utility.yul\":12534:12551   */\n      add\n        /* \"#utility.yul\":12527:12574   */\n      mstore\n        /* \"#utility.yul\":12591:12722   */\n      tag_542\n        /* \"#utility.yul\":12717:12721   */\n      dup2\n        /* \"#utility.yul\":12591:12722   */\n      tag_363\n      jump\t// in\n    tag_542:\n        /* \"#utility.yul\":12583:12722   */\n      swap1\n      pop\n        /* \"#utility.yul\":12310:12729   */\n      swap2\n      swap1\n      pop\n      jump\t// out\n        /* \"#utility.yul\":12735:13050   */\n    tag_364:\n        /* \"#utility.yul\":12875:12941   */\n      0x5072697661746520d0bad0bed0b8d0bdd18b20d0b7d0b0d0bad0bed0bdd187d0\n        /* \"#utility.yul\":12871:12872   */\n      0x00\n        /* \"#utility.yul\":12863:12869   */\n      dup3\n        /* \"#utility.yul\":12859:12873   */\n      add\n        /* \"#utility.yul\":12852:12942   */\n      mstore\n        /* \"#utility.yul\":12976:13042   */\n      0xb8d0bbd0b8d181d18c0000000000000000000000000000000000000000000000\n        /* \"#utility.yul\":12971:12973   */\n      0x20\n        /* \"#utility.yul\":12963:12969   */\n      dup3\n        /* \"#utility.yul\":12959:12974   */\n      add\n        /* \"#utility.yul\":12952:13043   */\n      mstore\n        /* \"#utility.yul\":12735:13050   */\n      pop\n      jump\t// out\n        /* \"#utility.yul\":13056:13422   */\n    tag_365:\n        /* \"#utility.yul\":13198:13201   */\n      0x00\n        /* \"#utility.yul\":13219:13286   */\n      tag_545\n        /* \"#utility.yul\":13283:13285   */\n      0x29\n        /* \"#utility.yul\":13278:13281   */\n      dup4\n        /* \"#utility.yul\":13219:13286   */\n      tag_326\n      jump\t// in\n    tag_545:\n        /* \"#utility.yul\":13212:13286   */\n      swap2\n      pop\n        /* \"#utility.yul\":13295:13388   */\n      tag_546\n        /* \"#utility.yul\":13384:13387   */\n      dup3\n        /* \"#utility.yul\":13295:13388   */\n      tag_364\n      jump\t// in\n    tag_546:\n        /* \"#utility.yul\":13413:13415   */\n      0x40\n        /* \"#utility.yul\":13408:13411   */\n      dup3\n        /* \"#utility.yul\":13404:13416   */\n      add\n        /* \"#utility.yul\":13397:13416   */\n      swap1\n      pop\n        /* \"#utility.yul\":13056:13422   */\n      swap2\n      swap1\n      pop\n      jump\t// out\n        /* \"#utility.yul\":13428:13847   */\n    tag_191:\n        /* \"#utility.yul\":13594:13598   */\n      0x00\n        /* \"#utility.yul\":13632:13634   */\n      0x20\n        /* \"#utility.yul\":13621:13630   */\n      dup3\n        /* \"#utility.yul\":13617:13635   */\n      add\n        /* \"#utility.yul\":13609:13635   */\n      swap1\n      pop\n        /* \"#utility.yul\":13681:13690   */\n      dup2\n        /* \"#utility.yul\":13675:13679   */\n      dup2\n        /* \"#utility.yul\":13671:13691   */\n      sub\n        /* \"#utility.yul\":13667:13668   */\n      0x00\n        /* \"#utility.yul\":13656:13665   */\n      dup4\n        /* \"#utility.yul\":13652:13669   */\n      add\n        /* \"#utility.yul\":13645:13692   */\n      mstore\n        /* \"#utility.yul\":13709:13840   */\n      tag_548\n        /* \"#utility.yul\":13835:13839   */\n      dup2\n        /* \"#utility.yul\":13709:13840   */\n      tag_365\n      jump\t// in\n    tag_548:\n        /* \"#utility.yul\":13701:13840   */\n      swap1\n      pop\n        /* \"#utility.yul\":13428:13847   */\n      swap2\n      swap1\n      pop\n      jump\t// out\n        /* \"#utility.yul\":13853:14033   */\n    tag_197:\n        /* \"#utility.yul\":13901:13978   */\n      0x4e487b7100000000000000000000000000000000000000000000000000000000\n        /* \"#utility.yul\":13898:13899   */\n      0x00\n        /* \"#utility.yul\":13891:13979   */\n      mstore\n        /* \"#utility.yul\":13998:14002   */\n      0x32\n        /* \"#utility.yul\":13995:13996   */\n      0x04\n        /* \"#utility.yul\":13988:14003   */\n      mstore\n        /* \"#utility.yul\":14022:14026   */\n      0x24\n        /* \"#utility.yul\":14019:14020   */\n      0x00\n        /* \"#utility.yul\":14012:14027   */\n      revert\n        /* \"#utility.yul\":14039:14219   */\n    tag_366:\n        /* \"#utility.yul\":14087:14164   */\n      0x4e487b7100000000000000000000000000000000000000000000000000000000\n        /* \"#utility.yul\":14084:14085   */\n      0x00\n        /* \"#utility.yul\":14077:14165   */\n      mstore\n        /* \"#utility.yul\":14184:14188   */\n      0x11\n        /* \"#utility.yul\":14181:14182   */\n      0x04\n        /* \"#utility.yul\":14174:14189   */\n      mstore\n        /* \"#utility.yul\":14208:14212   */\n      0x24\n        /* \"#utility.yul\":14205:14206   */\n      0x00\n        /* \"#utility.yul\":14198:14213   */\n      revert\n        /* \"#utility.yul\":14225:14635   */\n    tag_202:\n        /* \"#utility.yul\":14265:14272   */\n      0x00\n        /* \"#utility.yul\":14288:14308   */\n      tag_552\n        /* \"#utility.yul\":14306:14307   */\n      dup3\n        /* \"#utility.yul\":14288:14308   */\n      tag_337\n      jump\t// in\n    tag_552:\n        /* \"#utility.yul\":14283:14308   */\n      swap2\n      pop\n        /* \"#utility.yul\":14322:14342   */\n      tag_553\n        /* \"#utility.yul\":14340:14341   */\n      dup4\n        /* \"#utility.yul\":14322:14342   */\n      tag_337\n      jump\t// in\n    tag_553:\n        /* \"#utility.yul\":14317:14342   */\n      swap3\n      pop\n        /* \"#utility.yul\":14377:14378   */\n      dup3\n        /* \"#utility.yul\":14374:14375   */\n      dup3\n        /* \"#utility.yul\":14370:14379   */\n      mul\n        /* \"#utility.yul\":14399:14429   */\n      tag_554\n        /* \"#utility.yul\":14417:14428   */\n      dup2\n        /* \"#utility.yul\":14399:14429   */\n      tag_337\n      jump\t// in\n    tag_554:\n        /* \"#utility.yul\":14388:14429   */\n      swap2\n      pop\n        /* \"#utility.yul\":14578:14579   */\n      dup3\n        /* \"#utility.yul\":14569:14576   */\n      dup3\n        /* \"#utility.yul\":14565:14580   */\n      div\n        /* \"#utility.yul\":14562:14563   */\n      dup5\n        /* \"#utility.yul\":14559:14581   */\n      eq\n        /* \"#utility.yul\":14539:14540   */\n      dup4\n        /* \"#utility.yul\":14532:14541   */\n      iszero\n        /* \"#utility.yul\":14512:14595   */\n      or\n        /* \"#utility.yul\":14489:14628   */\n      tag_555\n      jumpi\n        /* \"#utility.yul\":14608:14626   */\n      tag_556\n      tag_366\n      jump\t// in\n    tag_556:\n        /* \"#utility.yul\":14489:14628   */\n    tag_555:\n        /* \"#utility.yul\":14273:14635   */\n      pop\n        /* \"#utility.yul\":14225:14635   */\n      swap3\n      swap2\n      pop\n      pop\n      jump\t// out\n        /* \"#utility.yul\":14641:14835   */\n    tag_205:\n        /* \"#utility.yul\":14681:14685   */\n      0x00\n        /* \"#utility.yul\":14701:14721   */\n      tag_558\n        /* \"#utility.yul\":14719:14720   */\n      dup3\n        /* \"#utility.yul\":14701:14721   */\n      tag_337\n      jump\t// in\n    tag_558:\n        /* \"#utility.yul\":14696:14721   */\n      swap2\n      pop\n        /* \"#utility.yul\":14735:14755   */\n      tag_559\n        /* \"#utility.yul\":14753:14754   */\n      dup4\n        /* \"#utility.yul\":14735:14755   */\n      tag_337\n      jump\t// in\n    tag_559:\n        /* \"#utility.yul\":14730:14755   */\n      swap3\n      pop\n        /* \"#utility.yul\":14779:14780   */\n      dup3\n        /* \"#utility.yul\":14776:14777   */\n      dup3\n        /* \"#utility.yul\":14772:14781   */\n      sub\n        /* \"#utility.yul\":14764:14781   */\n      swap1\n      pop\n        /* \"#utility.yul\":14803:14804   */\n      dup2\n        /* \"#utility.yul\":14797:14801   */\n      dup2\n        /* \"#utility.yul\":14794:14805   */\n      gt\n        /* \"#utility.yul\":14791:14828   */\n      iszero\n      tag_560\n      jumpi\n        /* \"#utility.yul\":14808:14826   */\n      tag_561\n      tag_366\n      jump\t// in\n    tag_561:\n        /* \"#utility.yul\":14791:14828   */\n    tag_560:\n        /* \"#utility.yul\":14641:14835   */\n      swap3\n      swap2\n      pop\n      pop\n      jump\t// out\n        /* \"#utility.yul\":14841:15074   */\n    tag_211:\n        /* \"#utility.yul\":14880:14883   */\n      0x00\n        /* \"#utility.yul\":14903:14927   */\n      tag_563\n        /* \"#utility.yul\":14921:14926   */\n      dup3\n        /* \"#utility.yul\":14903:14927   */\n      tag_337\n      jump\t// in\n    tag_563:\n        /* \"#utility.yul\":14894:14927   */\n      swap2\n      pop\n        /* \"#utility.yul\":14949:15015   */\n      0xffffffffffffffffffffffffffffffffffffffffffffffffffffffffffffffff\n        /* \"#utility.yul\":14942:14947   */\n      dup3\n        /* \"#utility.yul\":14939:15016   */\n      sub\n        /* \"#utility.yul\":14936:15039   */\n      tag_564\n      jumpi\n        /* \"#utility.yul\":15019:15037   */\n      tag_565\n      tag_366\n      jump\t// in\n    tag_565:\n        /* \"#utility.yul\":14936:15039   */\n    tag_564:\n        /* \"#utility.yul\":15066:15067   */\n      0x01\n        /* \"#utility.yul\":15059:15064   */\n      dup3\n        /* \"#utility.yul\":15055:15068   */\n      add\n        /* \"#utility.yul\":15048:15068   */\n      swap1\n      pop\n        /* \"#utility.yul\":14841:15074   */\n      swap2\n      swap1\n      pop\n      jump\t// out\n        /* \"#utility.yul\":15080:15271   */\n    tag_218:\n        /* \"#utility.yul\":15120:15123   */\n      0x00\n        /* \"#utility.yul\":15139:15159   */\n      tag_567\n        /* \"#utility.yul\":15157:15158   */\n      dup3\n        /* \"#utility.yul\":15139:15159   */\n      tag_337\n      jump\t// in\n    tag_567:\n        /* \"#utility.yul\":15134:15159   */\n      swap2\n      pop\n        /* \"#utility.yul\":15173:15193   */\n      tag_568\n        /* \"#utility.yul\":15191:15192   */\n      dup4\n        /* \"#utility.yul\":15173:15193   */\n      tag_337\n      jump\t// in\n    tag_568:\n        /* \"#utility.yul\":15168:15193   */\n      swap3\n      pop\n        /* \"#utility.yul\":15216:15217   */\n      dup3\n        /* \"#utility.yul\":15213:15214   */\n      dup3\n        /* \"#utility.yul\":15209:15218   */\n      add\n        /* \"#utility.yul\":15202:15218   */\n      swap1\n      pop\n        /* \"#utility.yul\":15237:15240   */\n      dup1\n        /* \"#utility.yul\":15234:15235   */\n      dup3\n        /* \"#utility.yul\":15231:15241   */\n      gt\n        /* \"#utility.yul\":15228:15264   */\n      iszero\n      tag_569\n      jumpi\n        /* \"#utility.yul\":15244:15262   */\n      tag_570\n      tag_366\n      jump\t// in\n    tag_570:\n        /* \"#utility.yul\":15228:15264   */\n    tag_569:\n        /* \"#utility.yul\":15080:15271   */\n      swap3\n      swap2\n      pop\n      pop\n      jump\t// out\n        /* \"#utility.yul\":15277:15501   */\n    tag_367:\n        /* \"#utility.yul\":15417:15451   */\n      0x45524332303a2064656372656173656420616c6c6f77616e63652062656c6f77\n        /* \"#utility.yul\":15413:15414   */\n      0x00\n        /* \"#utility.yul\":15405:15411   */\n      dup3\n        /* \"#utility.yul\":15401:15415   */\n      add\n        /* \"#utility.yul\":15394:15452   */\n      mstore\n        /* \"#utility.yul\":15486:15493   */\n      0x207a65726f000000000000000000000000000000000000000000000000000000\n        /* \"#utility.yul\":15481:15483   */\n      0x20\n        /* \"#utility.yul\":15473:15479   */\n      dup3\n        /* \"#utility.yul\":15469:15484   */\n      add\n        /* \"#utility.yul\":15462:15494   */\n      mstore\n        /* \"#utility.yul\":15277:15501   */\n      pop\n      jump\t// out\n        /* \"#utility.yul\":15507:15873   */\n    tag_368:\n        /* \"#utility.yul\":15649:15652   */\n      0x00\n        /* \"#utility.yul\":15670:15737   */\n      tag_573\n        /* \"#utility.yul\":15734:15736   */\n      0x25\n        /* \"#utility.yul\":15729:15732   */\n      dup4\n        /* \"#utility.yul\":15670:15737   */\n      tag_326\n      jump\t// in\n    tag_573:\n        /* \"#utility.yul\":15663:15737   */\n      swap2\n      pop\n        /* \"#utility.yul\":15746:15839   */\n      tag_574\n        /* \"#utility.yul\":15835:15838   */\n      dup3\n        /* \"#utility.yul\":15746:15839   */\n      tag_367\n      jump\t// in\n    tag_574:\n        /* \"#utility.yul\":15864:15866   */\n      0x40\n        /* \"#utility.yul\":15859:15862   */\n      dup3\n        /* \"#utility.yul\":15855:15867   */\n      add\n        /* \"#utility.yul\":15848:15867   */\n      swap1\n      pop\n        /* \"#utility.yul\":15507:15873   */\n      swap2\n      swap1\n      pop\n      jump\t// out\n        /* \"#utility.yul\":15879:16298   */\n    tag_240:\n        /* \"#utility.yul\":16045:16049   */\n      0x00\n        /* \"#utility.yul\":16083:16085   */\n      0x20\n        /* \"#utility.yul\":16072:16081   */\n      dup3\n        /* \"#utility.yul\":16068:16086   */\n      add\n        /* \"#utility.yul\":16060:16086   */\n      swap1\n      pop\n        /* \"#utility.yul\":16132:16141   */\n      dup2\n        /* \"#utility.yul\":16126:16130   */\n      dup2\n        /* \"#utility.yul\":16122:16142   */\n      sub\n        /* \"#utility.yul\":16118:16119   */\n      0x00\n        /* \"#utility.yul\":16107:16116   */\n      dup4\n        /* \"#utility.yul\":16103:16120   */\n      add\n        /* \"#utility.yul\":16096:16143   */\n      mstore\n        /* \"#utility.yul\":16160:16291   */\n      tag_576\n        /* \"#utility.yul\":16286:16290   */\n      dup2\n        /* \"#utility.yul\":16160:16291   */\n      tag_368\n      jump\t// in\n    tag_576:\n        /* \"#utility.yul\":16152:16291   */\n      swap1\n      pop\n        /* \"#utility.yul\":15879:16298   */\n      swap2\n      swap1\n      pop\n      jump\t// out\n        /* \"#utility.yul\":16304:16445   */\n    tag_369:\n        /* \"#utility.yul\":16353:16357   */\n      0x00\n        /* \"#utility.yul\":16376:16379   */\n      dup2\n        /* \"#utility.yul\":16368:16379   */\n      swap1\n      pop\n        /* \"#utility.yul\":16399:16402   */\n      dup2\n        /* \"#utility.yul\":16396:16397   */\n      0x00\n        /* \"#utility.yul\":16389:16403   */\n      mstore\n        /* \"#utility.yul\":16433:16437   */\n      0x20\n        /* \"#utility.yul\":16430:16431   */\n      0x00\n        /* \"#utility.yul\":16420:16438   */\n      keccak256\n        /* \"#utility.yul\":16412:16438   */\n      swap1\n      pop\n        /* \"#utility.yul\":16304:16445   */\n      swap2\n      swap1\n      pop\n      jump\t// out\n        /* \"#utility.yul\":16451:16544   */\n    tag_370:\n        /* \"#utility.yul\":16488:16494   */\n      0x00\n        /* \"#utility.yul\":16535:16537   */\n      0x20\n        /* \"#utility.yul\":16530:16532   */\n      0x1f\n        /* \"#utility.yul\":16523:16528   */\n      dup4\n        /* \"#utility.yul\":16519:16533   */\n      add\n        /* \"#utility.yul\":16515:16538   */\n      div\n        /* \"#utility.yul\":16505:16538   */\n      swap1\n      pop\n        /* \"#utility.yul\":16451:16544   */\n      swap2\n      swap1\n      pop\n      jump\t// out\n        /* \"#utility.yul\":16550:16657   */\n    tag_371:\n        /* \"#utility.yul\":16594:16602   */\n      0x00\n        /* \"#utility.yul\":16644:16649   */\n      dup3\n        /* \"#utility.yul\":16638:16642   */\n      dup3\n        /* \"#utility.yul\":16634:16650   */\n      shl\n        /* \"#utility.yul\":16613:16650   */\n      swap1\n      pop\n        /* \"#utility.yul\":16550:16657   */\n      swap3\n      swap2\n      pop\n      pop\n      jump\t// out\n        /* \"#utility.yul\":16663:17056   */\n    tag_372:\n        /* \"#utility.yul\":16732:16738   */\n      0x00\n        /* \"#utility.yul\":16782:16783   */\n      0x08\n        /* \"#utility.yul\":16770:16780   */\n      dup4\n        /* \"#utility.yul\":16766:16784   */\n      mul\n        /* \"#utility.yul\":16805:16902   */\n      tag_581\n        /* \"#utility.yul\":16835:16901   */\n      0xffffffffffffffffffffffffffffffffffffffffffffffffffffffffffffffff\n        /* \"#utility.yul\":16824:16833   */\n      dup3\n        /* \"#utility.yul\":16805:16902   */\n      tag_371\n      jump\t// in\n    tag_581:\n        /* \"#utility.yul\":16923:16962   */\n      tag_582\n        /* \"#utility.yul\":16953:16961   */\n      dup7\n        /* \"#utility.yul\":16942:16951   */\n      dup4\n        /* \"#utility.yul\":16923:16962   */\n      tag_371\n      jump\t// in\n    tag_582:\n        /* \"#utility.yul\":16911:16962   */\n      swap6\n      pop\n        /* \"#utility.yul\":16995:16999   */\n      dup1\n        /* \"#utility.yul\":16991:17000   */\n      not\n        /* \"#utility.yul\":16984:16989   */\n      dup5\n        /* \"#utility.yul\":16980:17001   */\n      and\n        /* \"#utility.yul\":16971:17001   */\n      swap4\n      pop\n        /* \"#utility.yul\":17044:17048   */\n      dup1\n        /* \"#utility.yul\":17034:17042   */\n      dup7\n        /* \"#utility.yul\":17030:17049   */\n      and\n        /* \"#utility.yul\":17023:17028   */\n      dup5\n        /* \"#utility.yul\":17020:17050   */\n      or\n        /* \"#utility.yul\":17010:17050   */\n      swap3\n      pop\n        /* \"#utility.yul\":16739:17056   */\n      pop\n      pop\n        /* \"#utility.yul\":16663:17056   */\n      swap4\n      swap3\n      pop\n      pop\n      pop\n      jump\t// out\n        /* \"#utility.yul\":17062:17122   */\n    tag_373:\n        /* \"#utility.yul\":17090:17093   */\n      0x00\n        /* \"#utility.yul\":17111:17116   */\n      dup2\n        /* \"#utility.yul\":17104:17116   */\n      swap1\n      pop\n        /* \"#utility.yul\":17062:17122   */\n      swap2\n      swap1\n      pop\n      jump\t// out\n        /* \"#utility.yul\":17128:17270   */\n    tag_374:\n        /* \"#utility.yul\":17178:17187   */\n      0x00\n        /* \"#utility.yul\":17211:17264   */\n      tag_585\n        /* \"#utility.yul\":17229:17263   */\n      tag_586\n        /* \"#utility.yul\":17238:17262   */\n      tag_587\n        /* \"#utility.yul\":17256:17261   */\n      dup5\n        /* \"#utility.yul\":17238:17262   */\n      tag_337\n      jump\t// in\n    tag_587:\n        /* \"#utility.yul\":17229:17263   */\n      tag_373\n      jump\t// in\n    tag_586:\n        /* \"#utility.yul\":17211:17264   */\n      tag_337\n      jump\t// in\n    tag_585:\n        /* \"#utility.yul\":17198:17264   */\n      swap1\n      pop\n        /* \"#utility.yul\":17128:17270   */\n      swap2\n      swap1\n      pop\n      jump\t// out\n        /* \"#utility.yul\":17276:17351   */\n    tag_375:\n        /* \"#utility.yul\":17319:17322   */\n      0x00\n        /* \"#utility.yul\":17340:17345   */\n      dup2\n        /* \"#utility.yul\":17333:17345   */\n      swap1\n      pop\n        /* \"#utility.yul\":17276:17351   */\n      swap2\n      swap1\n      pop\n      jump\t// out\n        /* \"#utility.yul\":17357:17626   */\n    tag_376:\n        /* \"#utility.yul\":17467:17506   */\n      tag_590\n        /* \"#utility.yul\":17498:17505   */\n      dup4\n        /* \"#utility.yul\":17467:17506   */\n      tag_374\n      jump\t// in\n    tag_590:\n        /* \"#utility.yul\":17528:17619   */\n      tag_591\n        /* \"#utility.yul\":17577:17618   */\n      tag_592\n        /* \"#utility.yul\":17601:17617   */\n      dup3\n        /* \"#utility.yul\":17577:17618   */\n      tag_375\n      jump\t// in\n    tag_592:\n        /* \"#utility.yul\":17569:17575   */\n      dup5\n        /* \"#utility.yul\":17562:17566   */\n      dup5\n        /* \"#utility.yul\":17556:17567   */\n      sload\n        /* \"#utility.yul\":17528:17619   */\n      tag_372\n      jump\t// in\n    tag_591:\n        /* \"#utility.yul\":17522:17526   */\n      dup3\n        /* \"#utility.yul\":17515:17620   */\n      sstore\n        /* \"#utility.yul\":17433:17626   */\n      pop\n        /* \"#utility.yul\":17357:17626   */\n      pop\n      pop\n      pop\n      jump\t// out\n        /* \"#utility.yul\":17632:17705   */\n    tag_377:\n        /* \"#utility.yul\":17677:17680   */\n      0x00\n        /* \"#utility.yul\":17632:17705   */\n      swap1\n      jump\t// out\n        /* \"#utility.yul\":17711:17900   */\n    tag_378:\n        /* \"#utility.yul\":17788:17820   */\n      tag_595\n      tag_377\n      jump\t// in\n    tag_595:\n        /* \"#utility.yul\":17829:17894   */\n      tag_596\n        /* \"#utility.yul\":17887:17893   */\n      dup2\n        /* \"#utility.yul\":17879:17885   */\n      dup5\n        /* \"#utility.yul\":17873:17877   */\n      dup5\n        /* \"#utility.yul\":17829:17894   */\n      tag_376\n      jump\t// in\n    tag_596:\n        /* \"#utility.yul\":17764:17900   */\n      pop\n        /* \"#utility.yul\":17711:17900   */\n      pop\n      pop\n      jump\t// out\n        /* \"#utility.yul\":17906:18092   */\n    tag_379:\n        /* \"#utility.yul\":17966:18086   */\n    tag_598:\n        /* \"#utility.yul\":17983:17986   */\n      dup2\n        /* \"#utility.yul\":17976:17981   */\n      dup2\n        /* \"#utility.yul\":17973:17987   */\n      lt\n        /* \"#utility.yul\":17966:18086   */\n      iszero\n      tag_600\n      jumpi\n        /* \"#utility.yul\":18037:18076   */\n      tag_601\n        /* \"#utility.yul\":18074:18075   */\n      0x00\n        /* \"#utility.yul\":18067:18072   */\n      dup3\n        /* \"#utility.yul\":18037:18076   */\n      tag_378\n      jump\t// in\n    tag_601:\n        /* \"#utility.yul\":18010:18011   */\n      0x01\n        /* \"#utility.yul\":18003:18008   */\n      dup2\n        /* \"#utility.yul\":17999:18012   */\n      add\n        /* \"#utility.yul\":17990:18012   */\n      swap1\n      pop\n        /* \"#utility.yul\":17966:18086   */\n      jump(tag_598)\n    tag_600:\n        /* \"#utility.yul\":17906:18092   */\n      pop\n      pop\n      jump\t// out\n        /* \"#utility.yul\":18098:18641   */\n    tag_380:\n        /* \"#utility.yul\":18199:18201   */\n      0x1f\n        /* \"#utility.yul\":18194:18197   */\n      dup3\n        /* \"#utility.yul\":18191:18202   */\n      gt\n        /* \"#utility.yul\":18188:18634   */\n      iszero\n      tag_603\n      jumpi\n        /* \"#utility.yul\":18233:18271   */\n      tag_604\n        /* \"#utility.yul\":18265:18270   */\n      dup2\n        /* \"#utility.yul\":18233:18271   */\n      tag_369\n      jump\t// in\n    tag_604:\n        /* \"#utility.yul\":18317:18346   */\n      tag_605\n        /* \"#utility.yul\":18335:18345   */\n      dup5\n        /* \"#utility.yul\":18317:18346   */\n      tag_370\n      jump\t// in\n    tag_605:\n        /* \"#utility.yul\":18307:18315   */\n      dup2\n        /* \"#utility.yul\":18303:18347   */\n      add\n        /* \"#utility.yul\":18500:18502   */\n      0x20\n        /* \"#utility.yul\":18488:18498   */\n      dup6\n        /* \"#utility.yul\":18485:18503   */\n      lt\n        /* \"#utility.yul\":18482:18531   */\n      iszero\n      tag_606\n      jumpi\n        /* \"#utility.yul\":18521:18529   */\n      dup2\n        /* \"#utility.yul\":18506:18529   */\n      swap1\n      pop\n        /* \"#utility.yul\":18482:18531   */\n    tag_606:\n        /* \"#utility.yul\":18544:18624   */\n      tag_607\n        /* \"#utility.yul\":18600:18622   */\n      tag_608\n        /* \"#utility.yul\":18618:18621   */\n      dup6\n        /* \"#utility.yul\":18600:18622   */\n      tag_370\n      jump\t// in\n    tag_608:\n        /* \"#utility.yul\":18590:18598   */\n      dup4\n        /* \"#utility.yul\":18586:18623   */\n      add\n        /* \"#utility.yul\":18573:18584   */\n      dup3\n        /* \"#utility.yul\":18544:18624   */\n      tag_379\n      jump\t// in\n    tag_607:\n        /* \"#utility.yul\":18203:18634   */\n      pop\n      pop\n        /* \"#utility.yul\":18188:18634   */\n    tag_603:\n        /* \"#utility.yul\":18098:18641   */\n      pop\n      pop\n      pop\n      jump\t// out\n        /* \"#utility.yul\":18647:18764   */\n    tag_381:\n        /* \"#utility.yul\":18701:18709   */\n      0x00\n        /* \"#utility.yul\":18751:18756   */\n      dup3\n        /* \"#utility.yul\":18745:18749   */\n      dup3\n        /* \"#utility.yul\":18741:18757   */\n      shr\n        /* \"#utility.yul\":18720:18757   */\n      swap1\n      pop\n        /* \"#utility.yul\":18647:18764   */\n      swap3\n      swap2\n      pop\n      pop\n      jump\t// out\n        /* \"#utility.yul\":18770:18939   */\n    tag_382:\n        /* \"#utility.yul\":18814:18820   */\n      0x00\n        /* \"#utility.yul\":18847:18898   */\n      tag_611\n        /* \"#utility.yul\":18895:18896   */\n      0x00\n        /* \"#utility.yul\":18891:18897   */\n      not\n        /* \"#utility.yul\":18883:18888   */\n      dup5\n        /* \"#utility.yul\":18880:18881   */\n      0x08\n        /* \"#utility.yul\":18876:18889   */\n      mul\n        /* \"#utility.yul\":18847:18898   */\n      tag_381\n      jump\t// in\n    tag_611:\n        /* \"#utility.yul\":18843:18899   */\n      not\n        /* \"#utility.yul\":18928:18932   */\n      dup1\n        /* \"#utility.yul\":18922:18926   */\n      dup4\n        /* \"#utility.yul\":18918:18933   */\n      and\n        /* \"#utility.yul\":18908:18933   */\n      swap2\n      pop\n        /* \"#utility.yul\":18821:18939   */\n      pop\n        /* \"#utility.yul\":18770:18939   */\n      swap3\n      swap2\n      pop\n      pop\n      jump\t// out\n        /* \"#utility.yul\":18944:19239   */\n    tag_383:\n        /* \"#utility.yul\":19020:19024   */\n      0x00\n        /* \"#utility.yul\":19166:19195   */\n      tag_613\n        /* \"#utility.yul\":19191:19194   */\n      dup4\n        /* \"#utility.yul\":19185:19189   */\n      dup4\n        /* \"#utility.yul\":19166:19195   */\n      tag_382\n      jump\t// in\n    tag_613:\n        /* \"#utility.yul\":19158:19195   */\n      swap2\n      pop\n        /* \"#utility.yul\":19228:19231   */\n      dup3\n        /* \"#utility.yul\":19225:19226   */\n      0x02\n        /* \"#utility.yul\":19221:19232   */\n      mul\n        /* \"#utility.yul\":19215:19219   */\n      dup3\n        /* \"#utility.yul\":19212:19233   */\n      or\n        /* \"#utility.yul\":19204:19233   */\n      swap1\n      pop\n        /* \"#utility.yul\":18944:19239   */\n      swap3\n      swap2\n      pop\n      pop\n      jump\t// out\n        /* \"#utility.yul\":19244:20639   */\n    tag_248:\n        /* \"#utility.yul\":19361:19398   */\n      tag_615\n        /* \"#utility.yul\":19394:19397   */\n      dup3\n        /* \"#utility.yul\":19361:19398   */\n      tag_325\n      jump\t// in\n    tag_615:\n        /* \"#utility.yul\":19463:19481   */\n      0xffffffffffffffff\n        /* \"#utility.yul\":19455:19461   */\n      dup2\n        /* \"#utility.yul\":19452:19482   */\n      gt\n        /* \"#utility.yul\":19449:19505   */\n      iszero\n      tag_616\n      jumpi\n        /* \"#utility.yul\":19485:19503   */\n      tag_617\n      tag_352\n      jump\t// in\n    tag_617:\n        /* \"#utility.yul\":19449:19505   */\n    tag_616:\n        /* \"#utility.yul\":19529:19567   */\n      tag_618\n        /* \"#utility.yul\":19561:19565   */\n      dup3\n        /* \"#utility.yul\":19555:19566   */\n      sload\n        /* \"#utility.yul\":19529:19567   */\n      tag_168\n      jump\t// in\n    tag_618:\n        /* \"#utility.yul\":19614:19681   */\n      tag_619\n        /* \"#utility.yul\":19674:19680   */\n      dup3\n        /* \"#utility.yul\":19666:19672   */\n      dup3\n        /* \"#utility.yul\":19660:19664   */\n      dup6\n        /* \"#utility.yul\":19614:19681   */\n      tag_380\n      jump\t// in\n    tag_619:\n        /* \"#utility.yul\":19708:19709   */\n      0x00\n        /* \"#utility.yul\":19732:19736   */\n      0x20\n        /* \"#utility.yul\":19719:19736   */\n      swap1\n      pop\n        /* \"#utility.yul\":19764:19766   */\n      0x1f\n        /* \"#utility.yul\":19756:19762   */\n      dup4\n        /* \"#utility.yul\":19753:19767   */\n      gt\n        /* \"#utility.yul\":19781:19782   */\n      0x01\n        /* \"#utility.yul\":19776:20394   */\n      dup2\n      eq\n      tag_621\n      jumpi\n        /* \"#utility.yul\":20438:20439   */\n      0x00\n        /* \"#utility.yul\":20455:20461   */\n      dup5\n        /* \"#utility.yul\":20452:20529   */\n      iszero\n      tag_622\n      jumpi\n        /* \"#utility.yul\":20504:20513   */\n      dup3\n        /* \"#utility.yul\":20499:20502   */\n      dup8\n        /* \"#utility.yul\":20495:20514   */\n      add\n        /* \"#utility.yul\":20489:20515   */\n      mload\n        /* \"#utility.yul\":20480:20515   */\n      swap1\n      pop\n        /* \"#utility.yul\":20452:20529   */\n    tag_622:\n        /* \"#utility.yul\":20555:20622   */\n      tag_623\n        /* \"#utility.yul\":20615:20621   */\n      dup6\n        /* \"#utility.yul\":20608:20613   */\n      dup3\n        /* \"#utility.yul\":20555:20622   */\n      tag_383\n      jump\t// in\n    tag_623:\n        /* \"#utility.yul\":20549:20553   */\n      dup7\n        /* \"#utility.yul\":20542:20623   */\n      sstore\n        /* \"#utility.yul\":20411:20633   */\n      pop\n        /* \"#utility.yul\":19746:20633   */\n      jump(tag_620)\n        /* \"#utility.yul\":19776:20394   */\n    tag_621:\n        /* \"#utility.yul\":19828:19832   */\n      0x1f\n        /* \"#utility.yul\":19824:19833   */\n      not\n        /* \"#utility.yul\":19816:19822   */\n      dup5\n        /* \"#utility.yul\":19812:19834   */\n      and\n        /* \"#utility.yul\":19862:19899   */\n      tag_624\n        /* \"#utility.yul\":19894:19898   */\n      dup7\n        /* \"#utility.yul\":19862:19899   */\n      tag_369\n      jump\t// in\n    tag_624:\n        /* \"#utility.yul\":19921:19922   */\n      0x00\n        /* \"#utility.yul\":19935:20143   */\n    tag_625:\n        /* \"#utility.yul\":19949:19956   */\n      dup3\n        /* \"#utility.yul\":19946:19947   */\n      dup2\n        /* \"#utility.yul\":19943:19957   */\n      lt\n        /* \"#utility.yul\":19935:20143   */\n      iszero\n      tag_627\n      jumpi\n        /* \"#utility.yul\":20028:20037   */\n      dup5\n        /* \"#utility.yul\":20023:20026   */\n      dup10\n        /* \"#utility.yul\":20019:20038   */\n      add\n        /* \"#utility.yul\":20013:20039   */\n      mload\n        /* \"#utility.yul\":20005:20011   */\n      dup3\n        /* \"#utility.yul\":19998:20040   */\n      sstore\n        /* \"#utility.yul\":20079:20080   */\n      0x01\n        /* \"#utility.yul\":20071:20077   */\n      dup3\n        /* \"#utility.yul\":20067:20081   */\n      add\n        /* \"#utility.yul\":20057:20081   */\n      swap2\n      pop\n        /* \"#utility.yul\":20126:20128   */\n      0x20\n        /* \"#utility.yul\":20115:20124   */\n      dup6\n        /* \"#utility.yul\":20111:20129   */\n      add\n        /* \"#utility.yul\":20098:20129   */\n      swap5\n      pop\n        /* \"#utility.yul\":19972:19976   */\n      0x20\n        /* \"#utility.yul\":19969:19970   */\n      dup2\n        /* \"#utility.yul\":19965:19977   */\n      add\n        /* \"#utility.yul\":19960:19977   */\n      swap1\n      pop\n        /* \"#utility.yul\":19935:20143   */\n      jump(tag_625)\n    tag_627:\n        /* \"#utility.yul\":20171:20177   */\n      dup7\n        /* \"#utility.yul\":20162:20169   */\n      dup4\n        /* \"#utility.yul\":20159:20178   */\n      lt\n        /* \"#utility.yul\":20156:20335   */\n      iszero\n      tag_628\n      jumpi\n        /* \"#utility.yul\":20229:20238   */\n      dup5\n        /* \"#utility.yul\":20224:20227   */\n      dup10\n        /* \"#utility.yul\":20220:20239   */\n      add\n        /* \"#utility.yul\":20214:20240   */\n      mload\n        /* \"#utility.yul\":20272:20320   */\n      tag_629\n        /* \"#utility.yul\":20314:20318   */\n      0x1f\n        /* \"#utility.yul\":20306:20312   */\n      dup10\n        /* \"#utility.yul\":20302:20319   */\n      and\n        /* \"#utility.yul\":20291:20300   */\n      dup3\n        /* \"#utility.yul\":20272:20320   */\n      tag_382\n      jump\t// in\n    tag_629:\n        /* \"#utility.yul\":20264:20270   */\n      dup4\n        /* \"#utility.yul\":20257:20321   */\n      sstore\n        /* \"#utility.yul\":20179:20335   */\n      pop\n        /* \"#utility.yul\":20156:20335   */\n    tag_628:\n        /* \"#utility.yul\":20381:20382   */\n      0x01\n        /* \"#utility.yul\":20377:20378   */\n      0x02\n        /* \"#utility.yul\":20369:20375   */\n      dup9\n        /* \"#utility.yul\":20365:20379   */\n      mul\n        /* \"#utility.yul\":20361:20383   */\n      add\n        /* \"#utility.yul\":20355:20359   */\n      dup9\n        /* \"#utility.yul\":20348:20384   */\n      sstore\n        /* \"#utility.yul\":19783:20394   */\n      pop\n      pop\n      pop\n        /* \"#utility.yul\":19746:20633   */\n    tag_620:\n      pop\n        /* \"#utility.yul\":19336:20639   */\n      pop\n      pop\n      pop\n        /* \"#utility.yul\":19244:20639   */\n      pop\n      pop\n      jump\t// out\n        /* \"#utility.yul\":20645:21061   */\n    tag_384:\n        /* \"#utility.yul\":20785:20851   */\n      0xd092d0b0d188d0b020d180d0bed0bbd18c20d0bdd0b520d0bfd0bed0b7d0b2d0\n        /* \"#utility.yul\":20781:20782   */\n      0x00\n        /* \"#utility.yul\":20773:20779   */\n      dup3\n        /* \"#utility.yul\":20769:20783   */\n      add\n        /* \"#utility.yul\":20762:20852   */\n      mstore\n        /* \"#utility.yul\":20886:20952   */\n      0xbed0bbd18fd0b5d18220d18dd182d0be20d0b8d181d0bfd0bed0bbd18cd0b7d0\n        /* \"#utility.yul\":20881:20883   */\n      0x20\n        /* \"#utility.yul\":20873:20879   */\n      dup3\n        /* \"#utility.yul\":20869:20884   */\n      add\n        /* \"#utility.yul\":20862:20953   */\n      mstore\n        /* \"#utility.yul\":20987:21053   */\n      0xbed0b2d0b0d182d18c0000000000000000000000000000000000000000000000\n        /* \"#utility.yul\":20982:20984   */\n      0x40\n        /* \"#utility.yul\":20974:20980   */\n      dup3\n        /* \"#utility.yul\":20970:20985   */\n      add\n        /* \"#utility.yul\":20963:21054   */\n      mstore\n        /* \"#utility.yul\":20645:21061   */\n      pop\n      jump\t// out\n        /* \"#utility.yul\":21067:21433   */\n    tag_385:\n        /* \"#utility.yul\":21209:21212   */\n      0x00\n        /* \"#utility.yul\":21230:21297   */\n      tag_632\n        /* \"#utility.yul\":21294:21296   */\n      0x49\n        /* \"#utility.yul\":21289:21292   */\n      dup4\n        /* \"#utility.yul\":21230:21297   */\n      tag_326\n      jump\t// in\n    tag_632:\n        /* \"#utility.yul\":21223:21297   */\n      swap2\n      pop\n        /* \"#utility.yul\":21306:21399   */\n      tag_633\n        /* \"#utility.yul\":21395:21398   */\n      dup3\n        /* \"#utility.yul\":21306:21399   */\n      tag_384\n      jump\t// in\n    tag_633:\n        /* \"#utility.yul\":21424:21426   */\n      0x60\n        /* \"#utility.yul\":21419:21422   */\n      dup3\n        /* \"#utility.yul\":21415:21427   */\n      add\n        /* \"#utility.yul\":21408:21427   */\n      swap1\n      pop\n        /* \"#utility.yul\":21067:21433   */\n      swap2\n      swap1\n      pop\n      jump\t// out\n        /* \"#utility.yul\":21439:21858   */\n    tag_258:\n        /* \"#utility.yul\":21605:21609   */\n      0x00\n        /* \"#utility.yul\":21643:21645   */\n      0x20\n        /* \"#utility.yul\":21632:21641   */\n      dup3\n        /* \"#utility.yul\":21628:21646   */\n      add\n        /* \"#utility.yul\":21620:21646   */\n      swap1\n      pop\n        /* \"#utility.yul\":21692:21701   */\n      dup2\n        /* \"#utility.yul\":21686:21690   */\n      dup2\n        /* \"#utility.yul\":21682:21702   */\n      sub\n        /* \"#utility.yul\":21678:21679   */\n      0x00\n        /* \"#utility.yul\":21667:21676   */\n      dup4\n        /* \"#utility.yul\":21663:21680   */\n      add\n        /* \"#utility.yul\":21656:21703   */\n      mstore\n        /* \"#utility.yul\":21720:21851   */\n      tag_635\n        /* \"#utility.yul\":21846:21850   */\n      dup2\n        /* \"#utility.yul\":21720:21851   */\n      tag_385\n      jump\t// in\n    tag_635:\n        /* \"#utility.yul\":21712:21851   */\n      swap1\n      pop\n        /* \"#utility.yul\":21439:21858   */\n      swap2\n      swap1\n      pop\n      jump\t// out\n        /* \"#utility.yul\":21864:22179   */\n    tag_386:\n        /* \"#utility.yul\":22004:22070   */\n      0xd091d0bed0bbd18cd188d0b5203530303020d0bdd0b5d0bbd18cd0b7d18f20d0\n        /* \"#utility.yul\":22000:22001   */\n      0x00\n        /* \"#utility.yul\":21992:21998   */\n      dup3\n        /* \"#utility.yul\":21988:22002   */\n      add\n        /* \"#utility.yul\":21981:22071   */\n      mstore\n        /* \"#utility.yul\":22105:22171   */\n      0xbad183d0bfd0b8d182d18c000000000000000000000000000000000000000000\n        /* \"#utility.yul\":22100:22102   */\n      0x20\n        /* \"#utility.yul\":22092:22098   */\n      dup3\n        /* \"#utility.yul\":22088:22103   */\n      add\n        /* \"#utility.yul\":22081:22172   */\n      mstore\n        /* \"#utility.yul\":21864:22179   */\n      pop\n      jump\t// out\n        /* \"#utility.yul\":22185:22551   */\n    tag_387:\n        /* \"#utility.yul\":22327:22330   */\n      0x00\n        /* \"#utility.yul\":22348:22415   */\n      tag_638\n        /* \"#utility.yul\":22412:22414   */\n      0x2b\n        /* \"#utility.yul\":22407:22410   */\n      dup4\n        /* \"#utility.yul\":22348:22415   */\n      tag_326\n      jump\t// in\n    tag_638:\n        /* \"#utility.yul\":22341:22415   */\n      swap2\n      pop\n        /* \"#utility.yul\":22424:22517   */\n      tag_639\n        /* \"#utility.yul\":22513:22516   */\n      dup3\n        /* \"#utility.yul\":22424:22517   */\n      tag_386\n      jump\t// in\n    tag_639:\n        /* \"#utility.yul\":22542:22544   */\n      0x40\n        /* \"#utility.yul\":22537:22540   */\n      dup3\n        /* \"#utility.yul\":22533:22545   */\n      add\n        /* \"#utility.yul\":22526:22545   */\n      swap1\n      pop\n        /* \"#utility.yul\":22185:22551   */\n      swap2\n      swap1\n      pop\n      jump\t// out\n        /* \"#utility.yul\":22557:22976   */\n    tag_274:\n        /* \"#utility.yul\":22723:22727   */\n      0x00\n        /* \"#utility.yul\":22761:22763   */\n      0x20\n        /* \"#utility.yul\":22750:22759   */\n      dup3\n        /* \"#utility.yul\":22746:22764   */\n      add\n        /* \"#utility.yul\":22738:22764   */\n      swap1\n      pop\n        /* \"#utility.yul\":22810:22819   */\n      dup2\n        /* \"#utility.yul\":22804:22808   */\n      dup2\n        /* \"#utility.yul\":22800:22820   */\n      sub\n        /* \"#utility.yul\":22796:22797   */\n      0x00\n        /* \"#utility.yul\":22785:22794   */\n      dup4\n        /* \"#utility.yul\":22781:22798   */\n      add\n        /* \"#utility.yul\":22774:22821   */\n      mstore\n        /* \"#utility.yul\":22838:22969   */\n      tag_641\n        /* \"#utility.yul\":22964:22968   */\n      dup2\n        /* \"#utility.yul\":22838:22969   */\n      tag_387\n      jump\t// in\n    tag_641:\n        /* \"#utility.yul\":22830:22969   */\n      swap1\n      pop\n        /* \"#utility.yul\":22557:22976   */\n      swap2\n      swap1\n      pop\n      jump\t// out\n        /* \"#utility.yul\":22982:23297   */\n    tag_388:\n        /* \"#utility.yul\":23122:23188   */\n      0x5075626c696320d0bad0bed0b8d0bdd18b20d0b7d0b0d0bad0bed0bdd187d0b8\n        /* \"#utility.yul\":23118:23119   */\n      0x00\n        /* \"#utility.yul\":23110:23116   */\n      dup3\n        /* \"#utility.yul\":23106:23120   */\n      add\n        /* \"#utility.yul\":23099:23189   */\n      mstore\n        /* \"#utility.yul\":23223:23289   */\n      0xd0bbd0b8d181d18c000000000000000000000000000000000000000000000000\n        /* \"#utility.yul\":23218:23220   */\n      0x20\n        /* \"#utility.yul\":23210:23216   */\n      dup3\n        /* \"#utility.yul\":23206:23221   */\n      add\n        /* \"#utility.yul\":23199:23290   */\n      mstore\n        /* \"#utility.yul\":22982:23297   */\n      pop\n      jump\t// out\n        /* \"#utility.yul\":23303:23669   */\n    tag_389:\n        /* \"#utility.yul\":23445:23448   */\n      0x00\n        /* \"#utility.yul\":23466:23533   */\n      tag_644\n        /* \"#utility.yul\":23530:23532   */\n      0x28\n        /* \"#utility.yul\":23525:23528   */\n      dup4\n        /* \"#utility.yul\":23466:23533   */\n      tag_326\n      jump\t// in\n    tag_644:\n        /* \"#utility.yul\":23459:23533   */\n      swap2\n      pop\n        /* \"#utility.yul\":23542:23635   */\n      tag_645\n        /* \"#utility.yul\":23631:23634   */\n      dup3\n        /* \"#utility.yul\":23542:23635   */\n      tag_388\n      jump\t// in\n    tag_645:\n        /* \"#utility.yul\":23660:23662   */\n      0x40\n        /* \"#utility.yul\":23655:23658   */\n      dup3\n        /* \"#utility.yul\":23651:23663   */\n      add\n        /* \"#utility.yul\":23644:23663   */\n      swap1\n      pop\n        /* \"#utility.yul\":23303:23669   */\n      swap2\n      swap1\n      pop\n      jump\t// out\n        /* \"#utility.yul\":23675:24094   */\n    tag_277:\n        /* \"#utility.yul\":23841:23845   */\n      0x00\n        /* \"#utility.yul\":23879:23881   */\n      0x20\n        /* \"#utility.yul\":23868:23877   */\n      dup3\n        /* \"#utility.yul\":23864:23882   */\n      add\n        /* \"#utility.yul\":23856:23882   */\n      swap1\n      pop\n        /* \"#utility.yul\":23928:23937   */\n      dup2\n        /* \"#utility.yul\":23922:23926   */\n      dup2\n        /* \"#utility.yul\":23918:23938   */\n      sub\n        /* \"#utility.yul\":23914:23915   */\n      0x00\n        /* \"#utility.yul\":23903:23912   */\n      dup4\n        /* \"#utility.yul\":23899:23916   */\n      add\n        /* \"#utility.yul\":23892:23939   */\n      mstore\n        /* \"#utility.yul\":23956:24087   */\n      tag_647\n        /* \"#utility.yul\":24082:24086   */\n      dup2\n        /* \"#utility.yul\":23956:24087   */\n      tag_389\n      jump\t// in\n    tag_647:\n        /* \"#utility.yul\":23948:24087   */\n      swap1\n      pop\n        /* \"#utility.yul\":23675:24094   */\n      swap2\n      swap1\n      pop\n      jump\t// out\n        /* \"#utility.yul\":24100:24323   */\n    tag_390:\n        /* \"#utility.yul\":24240:24274   */\n      0x45524332303a20617070726f76652066726f6d20746865207a65726f20616464\n        /* \"#utility.yul\":24236:24237   */\n      0x00\n        /* \"#utility.yul\":24228:24234   */\n      dup3\n        /* \"#utility.yul\":24224:24238   */\n      add\n        /* \"#utility.yul\":24217:24275   */\n      mstore\n        /* \"#utility.yul\":24309:24315   */\n      0x7265737300000000000000000000000000000000000000000000000000000000\n        /* \"#utility.yul\":24304:24306   */\n      0x20\n        /* \"#utility.yul\":24296:24302   */\n      dup3\n        /* \"#utility.yul\":24292:24307   */\n      add\n        /* \"#utility.yul\":24285:24316   */\n      mstore\n        /* \"#utility.yul\":24100:24323   */\n      pop\n      jump\t// out\n        /* \"#utility.yul\":24329:24695   */\n    tag_391:\n        /* \"#utility.yul\":24471:24474   */\n      0x00\n        /* \"#utility.yul\":24492:24559   */\n      tag_650\n        /* \"#utility.yul\":24556:24558   */\n      0x24\n        /* \"#utility.yul\":24551:24554   */\n      dup4\n        /* \"#utility.yul\":24492:24559   */\n      tag_326\n      jump\t// in\n    tag_650:\n        /* \"#utility.yul\":24485:24559   */\n      swap2\n      pop\n        /* \"#utility.yul\":24568:24661   */\n      tag_651\n        /* \"#utility.yul\":24657:24660   */\n      dup3\n        /* \"#utility.yul\":24568:24661   */\n      tag_390\n      jump\t// in\n    tag_651:\n        /* \"#utility.yul\":24686:24688   */\n      0x40\n        /* \"#utility.yul\":24681:24684   */\n      dup3\n        /* \"#utility.yul\":24677:24689   */\n      add\n        /* \"#utility.yul\":24670:24689   */\n      swap1\n      pop\n        /* \"#utility.yul\":24329:24695   */\n      swap2\n      swap1\n      pop\n      jump\t// out\n        /* \"#utility.yul\":24701:25120   */\n    tag_289:\n        /* \"#utility.yul\":24867:24871   */\n      0x00\n        /* \"#utility.yul\":24905:24907   */\n      0x20\n        /* \"#utility.yul\":24894:24903   */\n      dup3\n        /* \"#utility.yul\":24890:24908   */\n      add\n        /* \"#utility.yul\":24882:24908   */\n      swap1\n      pop\n        /* \"#utility.yul\":24954:24963   */\n      dup2\n        /* \"#utility.yul\":24948:24952   */\n      dup2\n        /* \"#utility.yul\":24944:24964   */\n      sub\n        /* \"#utility.yul\":24940:24941   */\n      0x00\n        /* \"#utility.yul\":24929:24938   */\n      dup4\n        /* \"#utility.yul\":24925:24942   */\n      add\n        /* \"#utility.yul\":24918:24965   */\n      mstore\n        /* \"#utility.yul\":24982:25113   */\n      tag_653\n        /* \"#utility.yul\":25108:25112   */\n      dup2\n        /* \"#utility.yul\":24982:25113   */\n      tag_391\n      jump\t// in\n    tag_653:\n        /* \"#utility.yul\":24974:25113   */\n      swap1\n      pop\n        /* \"#utility.yul\":24701:25120   */\n      swap2\n      swap1\n      pop\n      jump\t// out\n        /* \"#utility.yul\":25126:25347   */\n    tag_392:\n        /* \"#utility.yul\":25266:25300   */\n      0x45524332303a20617070726f766520746f20746865207a65726f206164647265\n        /* \"#utility.yul\":25262:25263   */\n      0x00\n        /* \"#utility.yul\":25254:25260   */\n      dup3\n        /* \"#utility.yul\":25250:25264   */\n      add\n        /* \"#utility.yul\":25243:25301   */\n      mstore\n        /* \"#utility.yul\":25335:25339   */\n      0x7373000000000000000000000000000000000000000000000000000000000000\n        /* \"#utility.yul\":25330:25332   */\n      0x20\n        /* \"#utility.yul\":25322:25328   */\n      dup3\n        /* \"#utility.yul\":25318:25333   */\n      add\n        /* \"#utility.yul\":25311:25340   */\n      mstore\n        /* \"#utility.yul\":25126:25347   */\n      pop\n      jump\t// out\n        /* \"#utility.yul\":25353:25719   */\n    tag_393:\n        /* \"#utility.yul\":25495:25498   */\n      0x00\n        /* \"#utility.yul\":25516:25583   */\n      tag_656\n        /* \"#utility.yul\":25580:25582   */\n      0x22\n        /* \"#utility.yul\":25575:25578   */\n      dup4\n        /* \"#utility.yul\":25516:25583   */\n      tag_326\n      jump\t// in\n    tag_656:\n        /* \"#utility.yul\":25509:25583   */\n      swap2\n      pop\n        /* \"#utility.yul\":25592:25685   */\n      tag_657\n        /* \"#utility.yul\":25681:25684   */\n      dup3\n        /* \"#utility.yul\":25592:25685   */\n      tag_392\n      jump\t// in\n    tag_657:\n        /* \"#utility.yul\":25710:25712   */\n      0x40\n        /* \"#utility.yul\":25705:25708   */\n      dup3\n        /* \"#utility.yul\":25701:25713   */\n      add\n        /* \"#utility.yul\":25694:25713   */\n      swap1\n      pop\n        /* \"#utility.yul\":25353:25719   */\n      swap2\n      swap1\n      pop\n      jump\t// out\n        /* \"#utility.yul\":25725:26144   */\n    tag_292:\n        /* \"#utility.yul\":25891:25895   */\n      0x00\n        /* \"#utility.yul\":25929:25931   */\n      0x20\n        /* \"#utility.yul\":25918:25927   */\n      dup3\n        /* \"#utility.yul\":25914:25932   */\n      add\n        /* \"#utility.yul\":25906:25932   */\n      swap1\n      pop\n        /* \"#utility.yul\":25978:25987   */\n      dup2\n        /* \"#utility.yul\":25972:25976   */\n      dup2\n        /* \"#utility.yul\":25968:25988   */\n      sub\n        /* \"#utility.yul\":25964:25965   */\n      0x00\n        /* \"#utility.yul\":25953:25962   */\n      dup4\n        /* \"#utility.yul\":25949:25966   */\n      add\n        /* \"#utility.yul\":25942:25989   */\n      mstore\n        /* \"#utility.yul\":26006:26137   */\n      tag_659\n        /* \"#utility.yul\":26132:26136   */\n      dup2\n        /* \"#utility.yul\":26006:26137   */\n      tag_393\n      jump\t// in\n    tag_659:\n        /* \"#utility.yul\":25998:26137   */\n      swap1\n      pop\n        /* \"#utility.yul\":25725:26144   */\n      swap2\n      swap1\n      pop\n      jump\t// out\n        /* \"#utility.yul\":26150:26329   */\n    tag_394:\n        /* \"#utility.yul\":26290:26321   */\n      0x45524332303a20696e73756666696369656e7420616c6c6f77616e6365000000\n        /* \"#utility.yul\":26286:26287   */\n      0x00\n        /* \"#utility.yul\":26278:26284   */\n      dup3\n        /* \"#utility.yul\":26274:26288   */\n      add\n        /* \"#utility.yul\":26267:26322   */\n      mstore\n        /* \"#utility.yul\":26150:26329   */\n      pop\n      jump\t// out\n        /* \"#utility.yul\":26335:26701   */\n    tag_395:\n        /* \"#utility.yul\":26477:26480   */\n      0x00\n        /* \"#utility.yul\":26498:26565   */\n      tag_662\n        /* \"#utility.yul\":26562:26564   */\n      0x1d\n        /* \"#utility.yul\":26557:26560   */\n      dup4\n        /* \"#utility.yul\":26498:26565   */\n      tag_326\n      jump\t// in\n    tag_662:\n        /* \"#utility.yul\":26491:26565   */\n      swap2\n      pop\n        /* \"#utility.yul\":26574:26667   */\n      tag_663\n        /* \"#utility.yul\":26663:26666   */\n      dup3\n        /* \"#utility.yul\":26574:26667   */\n      tag_394\n      jump\t// in\n    tag_663:\n        /* \"#utility.yul\":26692:26694   */\n      0x20\n        /* \"#utility.yul\":26687:26690   */\n      dup3\n        /* \"#utility.yul\":26683:26695   */\n      add\n        /* \"#utility.yul\":26676:26695   */\n      swap1\n      pop\n        /* \"#utility.yul\":26335:26701   */\n      swap2\n      swap1\n      pop\n      jump\t// out\n        /* \"#utility.yul\":26707:27126   */\n    tag_299:\n        /* \"#utility.yul\":26873:26877   */\n      0x00\n        /* \"#utility.yul\":26911:26913   */\n      0x20\n        /* \"#utility.yul\":26900:26909   */\n      dup3\n        /* \"#utility.yul\":26896:26914   */\n      add\n        /* \"#utility.yul\":26888:26914   */\n      swap1\n      pop\n        /* \"#utility.yul\":26960:26969   */\n      dup2\n        /* \"#utility.yul\":26954:26958   */\n      dup2\n        /* \"#utility.yul\":26950:26970   */\n      sub\n        /* \"#utility.yul\":26946:26947   */\n      0x00\n        /* \"#utility.yul\":26935:26944   */\n      dup4\n        /* \"#utility.yul\":26931:26948   */\n      add\n        /* \"#utility.yul\":26924:26971   */\n      mstore\n        /* \"#utility.yul\":26988:27119   */\n      tag_665\n        /* \"#utility.yul\":27114:27118   */\n      dup2\n        /* \"#utility.yul\":26988:27119   */\n      tag_395\n      jump\t// in\n    tag_665:\n        /* \"#utility.yul\":26980:27119   */\n      swap1\n      pop\n        /* \"#utility.yul\":26707:27126   */\n      swap2\n      swap1\n      pop\n      jump\t// out\n        /* \"#utility.yul\":27132:27356   */\n    tag_396:\n        /* \"#utility.yul\":27272:27306   */\n      0x45524332303a207472616e736665722066726f6d20746865207a65726f206164\n        /* \"#utility.yul\":27268:27269   */\n      0x00\n        /* \"#utility.yul\":27260:27266   */\n      dup3\n        /* \"#utility.yul\":27256:27270   */\n      add\n        /* \"#utility.yul\":27249:27307   */\n      mstore\n        /* \"#utility.yul\":27341:27348   */\n      0x6472657373000000000000000000000000000000000000000000000000000000\n        /* \"#utility.yul\":27336:27338   */\n      0x20\n        /* \"#utility.yul\":27328:27334   */\n      dup3\n        /* \"#utility.yul\":27324:27339   */\n      add\n        /* \"#utility.yul\":27317:27349   */\n      mstore\n        /* \"#utility.yul\":27132:27356   */\n      pop\n      jump\t// out\n        /* \"#utility.yul\":27362:27728   */\n    tag_397:\n        /* \"#utility.yul\":27504:27507   */\n      0x00\n        /* \"#utility.yul\":27525:27592   */\n      tag_668\n        /* \"#utility.yul\":27589:27591   */\n      0x25\n        /* \"#utility.yul\":27584:27587   */\n      dup4\n        /* \"#utility.yul\":27525:27592   */\n      tag_326\n      jump\t// in\n    tag_668:\n        /* \"#utility.yul\":27518:27592   */\n      swap2\n      pop\n        /* \"#utility.yul\":27601:27694   */\n      tag_669\n        /* \"#utility.yul\":27690:27693   */\n      dup3\n        /* \"#utility.yul\":27601:27694   */\n      tag_396\n      jump\t// in\n    tag_669:\n        /* \"#utility.yul\":27719:27721   */\n      0x40\n        /* \"#utility.yul\":27714:27717   */\n      dup3\n        /* \"#utility.yul\":27710:27722   */\n      add\n        /* \"#utility.yul\":27703:27722   */\n      swap1\n      pop\n        /* \"#utility.yul\":27362:27728   */\n      swap2\n      swap1\n      pop\n      jump\t// out\n        /* \"#utility.yul\":27734:28153   */\n    tag_304:\n        /* \"#utility.yul\":27900:27904   */\n      0x00\n        /* \"#utility.yul\":27938:27940   */\n      0x20\n        /* \"#utility.yul\":27927:27936   */\n      dup3\n        /* \"#utility.yul\":27923:27941   */\n      add\n        /* \"#utility.yul\":27915:27941   */\n      swap1\n      pop\n        /* \"#utility.yul\":27987:27996   */\n      dup2\n        /* \"#utility.yul\":27981:27985   */\n      dup2\n        /* \"#utility.yul\":27977:27997   */\n      sub\n        /* \"#utility.yul\":27973:27974   */\n      0x00\n        /* \"#utility.yul\":27962:27971   */\n      dup4\n        /* \"#utility.yul\":27958:27975   */\n      add\n        /* \"#utility.yul\":27951:27998   */\n      mstore\n        /* \"#utility.yul\":28015:28146   */\n      tag_671\n        /* \"#utility.yul\":28141:28145   */\n      dup2\n        /* \"#utility.yul\":28015:28146   */\n      tag_397\n      jump\t// in\n    tag_671:\n        /* \"#utility.yul\":28007:28146   */\n      swap1\n      pop\n        /* \"#utility.yul\":27734:28153   */\n      swap2\n      swap1\n      pop\n      jump\t// out\n        /* \"#utility.yul\":28159:28381   */\n    tag_398:\n        /* \"#utility.yul\":28299:28333   */\n      0x45524332303a207472616e7366657220746f20746865207a65726f2061646472\n        /* \"#utility.yul\":28295:28296   */\n      0x00\n        /* \"#utility.yul\":28287:28293   */\n      dup3\n        /* \"#utility.yul\":28283:28297   */\n      add\n        /* \"#utility.yul\":28276:28334   */\n      mstore\n        /* \"#utility.yul\":28368:28373   */\n      0x6573730000000000000000000000000000000000000000000000000000000000\n        /* \"#utility.yul\":28363:28365   */\n      0x20\n        /* \"#utility.yul\":28355:28361   */\n      dup3\n        /* \"#utility.yul\":28351:28366   */\n      add\n        /* \"#utility.yul\":28344:28374   */\n      mstore\n        /* \"#utility.yul\":28159:28381   */\n      pop\n      jump\t// out\n        /* \"#utility.yul\":28387:28753   */\n    tag_399:\n        /* \"#utility.yul\":28529:28532   */\n      0x00\n        /* \"#utility.yul\":28550:28617   */\n      tag_674\n        /* \"#utility.yul\":28614:28616   */\n      0x23\n        /* \"#utility.yul\":28609:28612   */\n      dup4\n        /* \"#utility.yul\":28550:28617   */\n      tag_326\n      jump\t// in\n    tag_674:\n        /* \"#utility.yul\":28543:28617   */\n      swap2\n      pop\n        /* \"#utility.yul\":28626:28719   */\n      tag_675\n        /* \"#utility.yul\":28715:28718   */\n      dup3\n        /* \"#utility.yul\":28626:28719   */\n      tag_398\n      jump\t// in\n    tag_675:\n        /* \"#utility.yul\":28744:28746   */\n      0x40\n        /* \"#utility.yul\":28739:28742   */\n      dup3\n        /* \"#utility.yul\":28735:28747   */\n      add\n        /* \"#utility.yul\":28728:28747   */\n      swap1\n      pop\n        /* \"#utility.yul\":28387:28753   */\n      swap2\n      swap1\n      pop\n      jump\t// out\n        /* \"#utility.yul\":28759:29178   */\n    tag_307:\n        /* \"#utility.yul\":28925:28929   */\n      0x00\n        /* \"#utility.yul\":28963:28965   */\n      0x20\n        /* \"#utility.yul\":28952:28961   */\n      dup3\n        /* \"#utility.yul\":28948:28966   */\n      add\n        /* \"#utility.yul\":28940:28966   */\n      swap1\n      pop\n        /* \"#utility.yul\":29012:29021   */\n      dup2\n        /* \"#utility.yul\":29006:29010   */\n      dup2\n        /* \"#utility.yul\":29002:29022   */\n      sub\n        /* \"#utility.yul\":28998:28999   */\n      0x00\n        /* \"#utility.yul\":28987:28996   */\n      dup4\n        /* \"#utility.yul\":28983:29000   */\n      add\n        /* \"#utility.yul\":28976:29023   */\n      mstore\n        /* \"#utility.yul\":29040:29171   */\n      tag_677\n        /* \"#utility.yul\":29166:29170   */\n      dup2\n        /* \"#utility.yul\":29040:29171   */\n      tag_399\n      jump\t// in\n    tag_677:\n        /* \"#utility.yul\":29032:29171   */\n      swap1\n      pop\n        /* \"#utility.yul\":28759:29178   */\n      swap2\n      swap1\n      pop\n      jump\t// out\n        /* \"#utility.yul\":29184:29409   */\n    tag_400:\n        /* \"#utility.yul\":29324:29358   */\n      0x45524332303a207472616e7366657220616d6f756e7420657863656564732062\n        /* \"#utility.yul\":29320:29321   */\n      0x00\n        /* \"#utility.yul\":29312:29318   */\n      dup3\n        /* \"#utility.yul\":29308:29322   */\n      add\n        /* \"#utility.yul\":29301:29359   */\n      mstore\n        /* \"#utility.yul\":29393:29401   */\n      0x616c616e63650000000000000000000000000000000000000000000000000000\n        /* \"#utility.yul\":29388:29390   */\n      0x20\n        /* \"#utility.yul\":29380:29386   */\n      dup3\n        /* \"#utility.yul\":29376:29391   */\n      add\n        /* \"#utility.yul\":29369:29402   */\n      mstore\n        /* \"#utility.yul\":29184:29409   */\n      pop\n      jump\t// out\n        /* \"#utility.yul\":29415:29781   */\n    tag_401:\n        /* \"#utility.yul\":29557:29560   */\n      0x00\n        /* \"#utility.yul\":29578:29645   */\n      tag_680\n        /* \"#utility.yul\":29642:29644   */\n      0x26\n        /* \"#utility.yul\":29637:29640   */\n      dup4\n        /* \"#utility.yul\":29578:29645   */\n      tag_326\n      jump\t// in\n    tag_680:\n        /* \"#utility.yul\":29571:29645   */\n      swap2\n      pop\n        /* \"#utility.yul\":29654:29747   */\n      tag_681\n        /* \"#utility.yul\":29743:29746   */\n      dup3\n        /* \"#utility.yul\":29654:29747   */\n      tag_400\n      jump\t// in\n    tag_681:\n        /* \"#utility.yul\":29772:29774   */\n      0x40\n        /* \"#utility.yul\":29767:29770   */\n      dup3\n        /* \"#utility.yul\":29763:29775   */\n      add\n        /* \"#utility.yul\":29756:29775   */\n      swap1\n      pop\n        /* \"#utility.yul\":29415:29781   */\n      swap2\n      swap1\n      pop\n      jump\t// out\n        /* \"#utility.yul\":29787:30206   */\n    tag_312:\n        /* \"#utility.yul\":29953:29957   */\n      0x00\n        /* \"#utility.yul\":29991:29993   */\n      0x20\n        /* \"#utility.yul\":29980:29989   */\n      dup3\n        /* \"#utility.yul\":29976:29994   */\n      add\n        /* \"#utility.yul\":29968:29994   */\n      swap1\n      pop\n        /* \"#utility.yul\":30040:30049   */\n      dup2\n        /* \"#utility.yul\":30034:30038   */\n      dup2\n        /* \"#utility.yul\":30030:30050   */\n      sub\n        /* \"#utility.yul\":30026:30027   */\n      0x00\n        /* \"#utility.yul\":30015:30024   */\n      dup4\n        /* \"#utility.yul\":30011:30028   */\n      add\n        /* \"#utility.yul\":30004:30051   */\n      mstore\n        /* \"#utility.yul\":30068:30199   */\n      tag_683\n        /* \"#utility.yul\":30194:30198   */\n      dup2\n        /* \"#utility.yul\":30068:30199   */\n      tag_401\n      jump\t// in\n    tag_683:\n        /* \"#utility.yul\":30060:30199   */\n      swap1\n      pop\n        /* \"#utility.yul\":29787:30206   */\n      swap2\n      swap1\n      pop\n      jump\t// out\n    stop\n    data_794544a8eec79a494efc4e7d88aee323a306300c6b957da18f84422cf3d86f0f d09ed0bfd0b5d180d0b0d186d0b8d18f20d0bfd180d0bed0b2d0b5d0b4d0b5d0bdd0b020d183d181d0bfd0b5d188d0bdd0b0\n\n    auxdata: 0xa2646970667358221220fd9d290d92c2284a8607776d47f86527f7c135061c242cc04a84de149068cba764736f6c63430008150033\n}\n",
				"bytecode": {
					"linkReferences": {},
					"object": "6080604052678ac7230489e800006005556064600a60055462000023919062000792565b6200002f919062000809565b6006556064601e60055462000045919062000792565b62000051919062000809565b6007556064603c60055462000067919062000792565b62000073919062000809565b60085534801562000082575f80fd5b506040518060400160405280600d81526020017f43727970746f4d6f6e73746572000000000000000000000000000000000000008152506040518060400160405280600481526020017f434d4f4e00000000000000000000000000000000000000000000000000000000815250816003908162000100919062000a9b565b50806004908162000112919062000a9b565b50505033600d5f6101000a81548173ffffffffffffffffffffffffffffffffffffffff021916908373ffffffffffffffffffffffffffffffffffffffff1602179055505f600e5f73ab8483f64d9c6d1ecf9b849ae677dd3315835cb273ffffffffffffffffffffffffffffffffffffffff1673ffffffffffffffffffffffffffffffffffffffff1681526020019081526020015f205f6101000a81548160ff02191690836001811115620001cb57620001ca62000b7f565b5b02179055506001600e5f734b20993bc481177ec7e8f571cecae8a9e22c02db73ffffffffffffffffffffffffffffffffffffffff1673ffffffffffffffffffffffffffffffffffffffff1681526020019081526020015f205f6101000a81548160ff0219169083600181111562000247576200024662000b7f565b5b021790555042600981905550600954600a81905550600954600b8190555062000279336005546200036660201b60201c565b620002a8337378731d3ca6b7e34ac0f824c42a7cc18a495cabab670429d069189e0000620004cb60201b60201c565b670429d069189e0000600654620002c0919062000bac565b600681905550620002f53373617f2e2fd72fd9d5503197092ac168c91465e7f267058d15e176280000620004cb60201b60201c565b67058d15e1762800006006546200030d919062000bac565b60068190555062000342337317f6ad8ef982297579c203069c1dbffe4348c3726702c68af0bb140000620004cb60201b60201c565b6702c68af0bb1400006006546200035a919062000bac565b60068190555062000e86565b5f73ffffffffffffffffffffffffffffffffffffffff168273ffffffffffffffffffffffffffffffffffffffff1603620003d7576040517f08c379a0000000000000000000000000000000000000000000000000000000008152600401620003ce9062000c44565b60405180910390fd5b620003ea5f83836200075260201b60201c565b8060025f828254620003fd919062000c64565b92505081905550805f808473ffffffffffffffffffffffffffffffffffffffff1673ffffffffffffffffffffffffffffffffffffffff1681526020019081526020015f205f82825401925050819055508173ffffffffffffffffffffffffffffffffffffffff165f73ffffffffffffffffffffffffffffffffffffffff167fddf252ad1be2c89b69c2b068fc378daa952ba7f163c4a11628f55a4df523b3ef83604051620004ac919062000caf565b60405180910390a3620004c75f83836200075760201b60201c565b5050565b5f73ffffffffffffffffffffffffffffffffffffffff168373ffffffffffffffffffffffffffffffffffffffff16036200053c576040517f08c379a0000000000000000000000000000000000000000000000000000000008152600401620005339062000d3e565b60405180910390fd5b5f73ffffffffffffffffffffffffffffffffffffffff168273ffffffffffffffffffffffffffffffffffffffff1603620005ad576040517f08c379a0000000000000000000000000000000000000000000000000000000008152600401620005a49062000dd2565b60405180910390fd5b620005c08383836200075260201b60201c565b5f805f8573ffffffffffffffffffffffffffffffffffffffff1673ffffffffffffffffffffffffffffffffffffffff1681526020019081526020015f205490508181101562000646576040517f08c379a00000000000000000000000000000000000000000000000000000000081526004016200063d9062000e66565b60405180910390fd5b8181035f808673ffffffffffffffffffffffffffffffffffffffff1673ffffffffffffffffffffffffffffffffffffffff1681526020019081526020015f2081905550815f808573ffffffffffffffffffffffffffffffffffffffff1673ffffffffffffffffffffffffffffffffffffffff1681526020019081526020015f205f82825401925050819055508273ffffffffffffffffffffffffffffffffffffffff168473ffffffffffffffffffffffffffffffffffffffff167fddf252ad1be2c89b69c2b068fc378daa952ba7f163c4a11628f55a4df523b3ef8460405162000731919062000caf565b60405180910390a36200074c8484846200075760201b60201c565b50505050565b505050565b505050565b5f819050919050565b7f4e487b71000000000000000000000000000000000000000000000000000000005f52601160045260245ffd5b5f6200079e826200075c565b9150620007ab836200075c565b9250828202620007bb816200075c565b91508282048414831517620007d557620007d462000765565b5b5092915050565b7f4e487b71000000000000000000000000000000000000000000000000000000005f52601260045260245ffd5b5f62000815826200075c565b915062000822836200075c565b925082620008355762000834620007dc565b5b828204905092915050565b5f81519050919050565b7f4e487b71000000000000000000000000000000000000000000000000000000005f52604160045260245ffd5b7f4e487b71000000000000000000000000000000000000000000000000000000005f52602260045260245ffd5b5f6002820490506001821680620008bc57607f821691505b602082108103620008d257620008d162000877565b5b50919050565b5f819050815f5260205f209050919050565b5f6020601f8301049050919050565b5f82821b905092915050565b5f60088302620009367fffffffffffffffffffffffffffffffffffffffffffffffffffffffffffffffff82620008f9565b620009428683620008f9565b95508019841693508086168417925050509392505050565b5f819050919050565b5f620009836200097d62000977846200075c565b6200095a565b6200075c565b9050919050565b5f819050919050565b6200099e8362000963565b620009b6620009ad826200098a565b84845462000905565b825550505050565b5f90565b620009cc620009be565b620009d981848462000993565b505050565b5b8181101562000a0057620009f45f82620009c2565b600181019050620009df565b5050565b601f82111562000a4f5762000a1981620008d8565b62000a2484620008ea565b8101602085101562000a34578190505b62000a4c62000a4385620008ea565b830182620009de565b50505b505050565b5f82821c905092915050565b5f62000a715f198460080262000a54565b1980831691505092915050565b5f62000a8b838362000a60565b9150826002028217905092915050565b62000aa68262000840565b67ffffffffffffffff81111562000ac25762000ac16200084a565b5b62000ace8254620008a4565b62000adb82828562000a04565b5f60209050601f83116001811462000b11575f841562000afc578287015190505b62000b08858262000a7e565b86555062000b77565b601f19841662000b2186620008d8565b5f5b8281101562000b4a5784890151825560018201915060208501945060208101905062000b23565b8683101562000b6a578489015162000b66601f89168262000a60565b8355505b6001600288020188555050505b505050505050565b7f4e487b71000000000000000000000000000000000000000000000000000000005f52602160045260245ffd5b5f62000bb8826200075c565b915062000bc5836200075c565b925082820390508181111562000be05762000bdf62000765565b5b92915050565b5f82825260208201905092915050565b7f45524332303a206d696e7420746f20746865207a65726f2061646472657373005f82015250565b5f62000c2c601f8362000be6565b915062000c398262000bf6565b602082019050919050565b5f6020820190508181035f83015262000c5d8162000c1e565b9050919050565b5f62000c70826200075c565b915062000c7d836200075c565b925082820190508082111562000c985762000c9762000765565b5b92915050565b62000ca9816200075c565b82525050565b5f60208201905062000cc45f83018462000c9e565b92915050565b7f45524332303a207472616e736665722066726f6d20746865207a65726f2061645f8201527f6472657373000000000000000000000000000000000000000000000000000000602082015250565b5f62000d2660258362000be6565b915062000d338262000cca565b604082019050919050565b5f6020820190508181035f83015262000d578162000d18565b9050919050565b7f45524332303a207472616e7366657220746f20746865207a65726f20616464725f8201527f6573730000000000000000000000000000000000000000000000000000000000602082015250565b5f62000dba60238362000be6565b915062000dc78262000d5e565b604082019050919050565b5f6020820190508181035f83015262000deb8162000dac565b9050919050565b7f45524332303a207472616e7366657220616d6f756e74206578636565647320625f8201527f616c616e63650000000000000000000000000000000000000000000000000000602082015250565b5f62000e4e60268362000be6565b915062000e5b8262000df2565b604082019050919050565b5f6020820190508181035f83015262000e7f8162000e40565b9050919050565b6127338062000e945f395ff3fe60806040526004361061019b575f3560e01c806370a08231116100eb578063d95660be11610089578063ea7d516511610063578063ea7d51651461061e578063ec684eb314610646578063f2dfd08f14610670578063fd74d2941461068c5761019b565b8063d95660be14610590578063db8fb88e146105ba578063dd62ed3e146105e25761019b565b8063937be371116100c5578063937be371146104c457806395d89b41146104ee578063a457c2d714610518578063a9059cbb146105545761019b565b806370a082311461042157806381d12c581461045d5780638da5cb5b1461049a5761019b565b806326f674901161015857806339509351116101325780633950935114610343578063534f56801461037f5780635c475d42146103bb5780636ff32b22146103f75761019b565b806326f67490146102c5578063313ce567146102ef57806332454dbb146103195761019b565b806306fdde031461019f578063095ea7b3146101c9578063139628011461020557806318160ddd1461022f57806323b872dd14610259578063254dc45e14610295575b5f80fd5b3480156101aa575f80fd5b506101b36106b6565b6040516101c091906116e6565b60405180910390f35b3480156101d4575f80fd5b506101ef60048036038101906101ea91906117a4565b610746565b6040516101fc91906117fc565b60405180910390f35b348015610210575f80fd5b50610219610768565b6040516102269190611824565b60405180910390f35b34801561023a575f80fd5b5061024361076e565b6040516102509190611824565b60405180910390f35b348015610264575f80fd5b5061027f600480360381019061027a919061183d565b610777565b60405161028c91906117fc565b60405180910390f35b6102af60048036038101906102aa919061188d565b6107a5565b6040516102bc91906116e6565b60405180910390f35b3480156102d0575f80fd5b506102d96109e0565b6040516102e69190611824565b60405180910390f35b3480156102fa575f80fd5b506103036109e6565b60405161031091906118d3565b60405180910390f35b348015610324575f80fd5b5061032d6109ee565b60405161033a9190611824565b60405180910390f35b34801561034e575f80fd5b50610369600480360381019061036491906117a4565b6109f4565b60405161037691906117fc565b60405180910390f35b34801561038a575f80fd5b506103a560048036038101906103a091906118ec565b610a2a565b6040516103b2919061198a565b60405180910390f35b3480156103c6575f80fd5b506103e160048036038101906103dc919061188d565b610a47565b6040516103ee91906119b2565b60405180910390f35b348015610402575f80fd5b5061040b610a82565b6040516104189190611824565b60405180910390f35b34801561042c575f80fd5b50610447600480360381019061044291906118ec565b610a88565b6040516104549190611824565b60405180910390f35b348015610468575f80fd5b50610483600480360381019061047e919061188d565b610acd565b6040516104919291906119cb565b60405180910390f35b3480156104a5575f80fd5b506104ae610ba1565b6040516104bb91906119b2565b60405180910390f35b3480156104cf575f80fd5b506104d8610bc6565b6040516104e59190611824565b60405180910390f35b3480156104f9575f80fd5b50610502610bcc565b60405161050f91906116e6565b60405180910390f35b348015610523575f80fd5b5061053e600480360381019061053991906117a4565b610c5c565b60405161054b91906117fc565b60405180910390f35b34801561055f575f80fd5b5061057a600480360381019061057591906117a4565b610cd1565b60405161058791906117fc565b60405180910390f35b34801561059b575f80fd5b506105a4610cf3565b6040516105b19190611824565b60405180910390f35b3480156105c5575f80fd5b506105e060048036038101906105db9190611b25565b610cf9565b005b3480156105ed575f80fd5b5061060860048036038101906106039190611b6c565b610dab565b6040516106159190611824565b60405180910390f35b348015610629575f80fd5b50610644600480360381019061063f9190611bd4565b610e2d565b005b348015610651575f80fd5b5061065a610fe7565b6040516106679190611824565b60405180910390f35b61068a6004803603810190610685919061188d565b610fed565b005b348015610697575f80fd5b506106a0611133565b6040516106ad9190611824565b60405180910390f35b6060600380546106c590611c3f565b80601f01602080910402602001604051908101604052809291908181526020018280546106f190611c3f565b801561073c5780601f106107135761010080835404028352916020019161073c565b820191905f5260205f20905b81548152906001019060200180831161071f57829003601f168201915b5050505050905090565b5f80610750611139565b905061075d818585611140565b600191505092915050565b600c5481565b5f600254905090565b5f80610781611139565b905061078e858285611303565b61079985858561138e565b60019150509392505050565b6060620186a08211156107ed576040517f08c379a00000000000000000000000000000000000000000000000000000000081526004016107e490611cdf565b60405180910390fd5b5f60075411610831576040517f08c379a000000000000000000000000000000000000000000000000000000000815260040161082890611d6d565b60405180910390fd5b5f5b6010805490508110156109be576010818154811061085457610853611d8b565b5b905f5260205f20015f9054906101000a900473ffffffffffffffffffffffffffffffffffffffff1673ffffffffffffffffffffffffffffffffffffffff163373ffffffffffffffffffffffffffffffffffffffff160361096d576108ea600d5f9054906101000a900473ffffffffffffffffffffffffffffffffffffffff163364e8d4a51000866108e59190611de5565b61138e565b64e8d4a51000836108fb9190611de5565b60075f82825461090b9190611e26565b925050819055503373ffffffffffffffffffffffffffffffffffffffff166108fc6602aa1efb94e0008561093f9190611de5565b90811502906040515f60405180830381858888f19350505050158015610967573d5f803e3d5ffd5b506109ab565b6040518060400160405280601a81526020017fd092d0b0d18120d0bdd0b5d18220d0b22057686974654c6973740000000000008152509150506109db565b80806109b690611e59565b915050610833565b506040518060600160405280603281526020016126cc6032913990505b919050565b60085481565b5f6012905090565b60055481565b5f806109fe611139565b9050610a1f818585610a108589610dab565b610a1a9190611ea0565b611140565b600191505092915050565b600e602052805f5260405f205f915054906101000a900460ff1681565b60108181548110610a56575f80fd5b905f5260205f20015f915054906101000a900473ffffffffffffffffffffffffffffffffffffffff1681565b600b5481565b5f805f8373ffffffffffffffffffffffffffffffffffffffff1673ffffffffffffffffffffffffffffffffffffffff1681526020019081526020015f20549050919050565b600f8181548110610adc575f80fd5b905f5260205f2090600202015f91509050805f018054610afb90611c3f565b80601f0160208091040260200160405190810160405280929190818152602001828054610b2790611c3f565b8015610b725780601f10610b4957610100808354040283529160200191610b72565b820191905f5260205f20905b815481529060010190602001808311610b5557829003601f168201915b505050505090806001015f9054906101000a900473ffffffffffffffffffffffffffffffffffffffff16905082565b600d5f9054906101000a900473ffffffffffffffffffffffffffffffffffffffff1681565b60065481565b606060048054610bdb90611c3f565b80601f0160208091040260200160405190810160405280929190818152602001828054610c0790611c3f565b8015610c525780601f10610c2957610100808354040283529160200191610c52565b820191905f5260205f20905b815481529060010190602001808311610c3557829003601f168201915b5050505050905090565b5f80610c66611139565b90505f610c738286610dab565b905083811015610cb8576040517f08c379a0000000000000000000000000000000000000000000000000000000008152600401610caf90611f43565b60405180910390fd5b610cc58286868403611140565b60019250505092915050565b5f80610cdb611139565b9050610ce881858561138e565b600191505092915050565b600a5481565b600f60405180604001604052808381526020013373ffffffffffffffffffffffffffffffffffffffff16815250908060018154018082558091505060019003905f5260205f2090600202015f909190919091505f820151815f019081610d5f91906120fe565b506020820151816001015f6101000a81548173ffffffffffffffffffffffffffffffffffffffff021916908373ffffffffffffffffffffffffffffffffffffffff160217905550505050565b5f60015f8473ffffffffffffffffffffffffffffffffffffffff1673ffffffffffffffffffffffffffffffffffffffff1681526020019081526020015f205f8373ffffffffffffffffffffffffffffffffffffffff1673ffffffffffffffffffffffffffffffffffffffff1681526020019081526020015f2054905092915050565b5f806001811115610e4157610e40611917565b5b600e5f3373ffffffffffffffffffffffffffffffffffffffff1673ffffffffffffffffffffffffffffffffffffffff1681526020019081526020015f205f9054906101000a900460ff166001811115610e9d57610e9c611917565b5b14610edd576040517f08c379a0000000000000000000000000000000000000000000000000000000008152600401610ed490612263565b60405180910390fd5b8115610f8a576010600f8481548110610ef957610ef8611d8b565b5b905f5260205f2090600202016001015f9054906101000a900473ffffffffffffffffffffffffffffffffffffffff16908060018154018082558091505060019003905f5260205f20015f9091909190916101000a81548173ffffffffffffffffffffffffffffffffffffffff021916908373ffffffffffffffffffffffffffffffffffffffff160217905550610fe2565b600f8381548110610f9e57610f9d611d8b565b5b905f5260205f2090600202015f8082015f610fb99190611604565b600182015f6101000a81549073ffffffffffffffffffffffffffffffffffffffff021916905550505b505050565b60075481565b611388811115611032576040517f08c379a0000000000000000000000000000000000000000000000000000000008152600401611029906122f1565b60405180910390fd5b5f60085411611076576040517f08c379a000000000000000000000000000000000000000000000000000000000815260040161106d9061237f565b60405180910390fd5b6110b2600d5f9054906101000a900473ffffffffffffffffffffffffffffffffffffffff163364e8d4a51000846110ad9190611de5565b61138e565b64e8d4a51000816110c39190611de5565b60085f8282546110d39190611e26565b925050819055503373ffffffffffffffffffffffffffffffffffffffff166108fc66038d7ea4c68000836111079190611de5565b90811502906040515f60405180830381858888f1935050505015801561112f573d5f803e3d5ffd5b5050565b60095481565b5f33905090565b5f73ffffffffffffffffffffffffffffffffffffffff168373ffffffffffffffffffffffffffffffffffffffff16036111ae576040517f08c379a00000000000000000000000000000000000000000000000000000000081526004016111a59061240d565b60405180910390fd5b5f73ffffffffffffffffffffffffffffffffffffffff168273ffffffffffffffffffffffffffffffffffffffff160361121c576040517f08c379a00000000000000000000000000000000000000000000000000000000081526004016112139061249b565b60405180910390fd5b8060015f8573ffffffffffffffffffffffffffffffffffffffff1673ffffffffffffffffffffffffffffffffffffffff1681526020019081526020015f205f8473ffffffffffffffffffffffffffffffffffffffff1673ffffffffffffffffffffffffffffffffffffffff1681526020019081526020015f20819055508173ffffffffffffffffffffffffffffffffffffffff168373ffffffffffffffffffffffffffffffffffffffff167f8c5be1e5ebec7d5bd14f71427d1e84f3dd0314c0f7b2291e5b200ac8c7c3b925836040516112f69190611824565b60405180910390a3505050565b5f61130e8484610dab565b90507fffffffffffffffffffffffffffffffffffffffffffffffffffffffffffffffff8114611388578181101561137a576040517f08c379a000000000000000000000000000000000000000000000000000000000815260040161137190612503565b60405180910390fd5b6113878484848403611140565b5b50505050565b5f73ffffffffffffffffffffffffffffffffffffffff168373ffffffffffffffffffffffffffffffffffffffff16036113fc576040517f08c379a00000000000000000000000000000000000000000000000000000000081526004016113f390612591565b60405180910390fd5b5f73ffffffffffffffffffffffffffffffffffffffff168273ffffffffffffffffffffffffffffffffffffffff160361146a576040517f08c379a00000000000000000000000000000000000000000000000000000000081526004016114619061261f565b60405180910390fd5b6114758383836115fa565b5f805f8573ffffffffffffffffffffffffffffffffffffffff1673ffffffffffffffffffffffffffffffffffffffff1681526020019081526020015f20549050818110156114f8576040517f08c379a00000000000000000000000000000000000000000000000000000000081526004016114ef906126ad565b60405180910390fd5b8181035f808673ffffffffffffffffffffffffffffffffffffffff1673ffffffffffffffffffffffffffffffffffffffff1681526020019081526020015f2081905550815f808573ffffffffffffffffffffffffffffffffffffffff1673ffffffffffffffffffffffffffffffffffffffff1681526020019081526020015f205f82825401925050819055508273ffffffffffffffffffffffffffffffffffffffff168473ffffffffffffffffffffffffffffffffffffffff167fddf252ad1be2c89b69c2b068fc378daa952ba7f163c4a11628f55a4df523b3ef846040516115e19190611824565b60405180910390a36115f48484846115ff565b50505050565b505050565b505050565b50805461161090611c3f565b5f825580601f10611621575061163e565b601f0160209004905f5260205f209081019061163d9190611641565b5b50565b5b80821115611658575f815f905550600101611642565b5090565b5f81519050919050565b5f82825260208201905092915050565b5f5b83811015611693578082015181840152602081019050611678565b5f8484015250505050565b5f601f19601f8301169050919050565b5f6116b88261165c565b6116c28185611666565b93506116d2818560208601611676565b6116db8161169e565b840191505092915050565b5f6020820190508181035f8301526116fe81846116ae565b905092915050565b5f604051905090565b5f80fd5b5f80fd5b5f73ffffffffffffffffffffffffffffffffffffffff82169050919050565b5f61174082611717565b9050919050565b61175081611736565b811461175a575f80fd5b50565b5f8135905061176b81611747565b92915050565b5f819050919050565b61178381611771565b811461178d575f80fd5b50565b5f8135905061179e8161177a565b92915050565b5f80604083850312156117ba576117b961170f565b5b5f6117c78582860161175d565b92505060206117d885828601611790565b9150509250929050565b5f8115159050919050565b6117f6816117e2565b82525050565b5f60208201905061180f5f8301846117ed565b92915050565b61181e81611771565b82525050565b5f6020820190506118375f830184611815565b92915050565b5f805f606084860312156118545761185361170f565b5b5f6118618682870161175d565b93505060206118728682870161175d565b925050604061188386828701611790565b9150509250925092565b5f602082840312156118a2576118a161170f565b5b5f6118af84828501611790565b91505092915050565b5f60ff82169050919050565b6118cd816118b8565b82525050565b5f6020820190506118e65f8301846118c4565b92915050565b5f602082840312156119015761190061170f565b5b5f61190e8482850161175d565b91505092915050565b7f4e487b71000000000000000000000000000000000000000000000000000000005f52602160045260245ffd5b6002811061195557611954611917565b5b50565b5f81905061196582611944565b919050565b5f61197482611958565b9050919050565b6119848161196a565b82525050565b5f60208201905061199d5f83018461197b565b92915050565b6119ac81611736565b82525050565b5f6020820190506119c55f8301846119a3565b92915050565b5f6040820190508181035f8301526119e381856116ae565b90506119f260208301846119a3565b9392505050565b5f80fd5b5f80fd5b7f4e487b71000000000000000000000000000000000000000000000000000000005f52604160045260245ffd5b611a378261169e565b810181811067ffffffffffffffff82111715611a5657611a55611a01565b5b80604052505050565b5f611a68611706565b9050611a748282611a2e565b919050565b5f67ffffffffffffffff821115611a9357611a92611a01565b5b611a9c8261169e565b9050602081019050919050565b828183375f83830152505050565b5f611ac9611ac484611a79565b611a5f565b905082815260208101848484011115611ae557611ae46119fd565b5b611af0848285611aa9565b509392505050565b5f82601f830112611b0c57611b0b6119f9565b5b8135611b1c848260208601611ab7565b91505092915050565b5f60208284031215611b3a57611b3961170f565b5b5f82013567ffffffffffffffff811115611b5757611b56611713565b5b611b6384828501611af8565b91505092915050565b5f8060408385031215611b8257611b8161170f565b5b5f611b8f8582860161175d565b9250506020611ba08582860161175d565b9150509250929050565b611bb3816117e2565b8114611bbd575f80fd5b50565b5f81359050611bce81611baa565b92915050565b5f8060408385031215611bea57611be961170f565b5b5f611bf785828601611790565b9250506020611c0885828601611bc0565b9150509250929050565b7f4e487b71000000000000000000000000000000000000000000000000000000005f52602260045260245ffd5b5f6002820490506001821680611c5657607f821691505b602082108103611c6957611c68611c12565b5b50919050565b7fd091d0bed0bbd18cd188d0b52031303030303020d0bdd0b5d0bbd18cd0b7d18f5f8201527f20d0bad183d0bfd0b8d182d18c00000000000000000000000000000000000000602082015250565b5f611cc9602d83611666565b9150611cd482611c6f565b604082019050919050565b5f6020820190508181035f830152611cf681611cbd565b9050919050565b7f5072697661746520d0bad0bed0b8d0bdd18b20d0b7d0b0d0bad0bed0bdd187d05f8201527fb8d0bbd0b8d181d18c0000000000000000000000000000000000000000000000602082015250565b5f611d57602983611666565b9150611d6282611cfd565b604082019050919050565b5f6020820190508181035f830152611d8481611d4b565b9050919050565b7f4e487b71000000000000000000000000000000000000000000000000000000005f52603260045260245ffd5b7f4e487b71000000000000000000000000000000000000000000000000000000005f52601160045260245ffd5b5f611def82611771565b9150611dfa83611771565b9250828202611e0881611771565b91508282048414831517611e1f57611e1e611db8565b5b5092915050565b5f611e3082611771565b9150611e3b83611771565b9250828203905081811115611e5357611e52611db8565b5b92915050565b5f611e6382611771565b91507fffffffffffffffffffffffffffffffffffffffffffffffffffffffffffffffff8203611e9557611e94611db8565b5b600182019050919050565b5f611eaa82611771565b9150611eb583611771565b9250828201905080821115611ecd57611ecc611db8565b5b92915050565b7f45524332303a2064656372656173656420616c6c6f77616e63652062656c6f775f8201527f207a65726f000000000000000000000000000000000000000000000000000000602082015250565b5f611f2d602583611666565b9150611f3882611ed3565b604082019050919050565b5f6020820190508181035f830152611f5a81611f21565b9050919050565b5f819050815f5260205f209050919050565b5f6020601f8301049050919050565b5f82821b905092915050565b5f60088302611fbd7fffffffffffffffffffffffffffffffffffffffffffffffffffffffffffffffff82611f82565b611fc78683611f82565b95508019841693508086168417925050509392505050565b5f819050919050565b5f612002611ffd611ff884611771565b611fdf565b611771565b9050919050565b5f819050919050565b61201b83611fe8565b61202f61202782612009565b848454611f8e565b825550505050565b5f90565b612043612037565b61204e818484612012565b505050565b5b81811015612071576120665f8261203b565b600181019050612054565b5050565b601f8211156120b65761208781611f61565b61209084611f73565b8101602085101561209f578190505b6120b36120ab85611f73565b830182612053565b50505b505050565b5f82821c905092915050565b5f6120d65f19846008026120bb565b1980831691505092915050565b5f6120ee83836120c7565b9150826002028217905092915050565b6121078261165c565b67ffffffffffffffff8111156121205761211f611a01565b5b61212a8254611c3f565b612135828285612075565b5f60209050601f831160018114612166575f8415612154578287015190505b61215e85826120e3565b8655506121c5565b601f19841661217486611f61565b5f5b8281101561219b57848901518255600182019150602085019450602081019050612176565b868310156121b857848901516121b4601f8916826120c7565b8355505b6001600288020188555050505b505050505050565b7fd092d0b0d188d0b020d180d0bed0bbd18c20d0bdd0b520d0bfd0bed0b7d0b2d05f8201527fbed0bbd18fd0b5d18220d18dd182d0be20d0b8d181d0bfd0bed0bbd18cd0b7d060208201527fbed0b2d0b0d182d18c0000000000000000000000000000000000000000000000604082015250565b5f61224d604983611666565b9150612258826121cd565b606082019050919050565b5f6020820190508181035f83015261227a81612241565b9050919050565b7fd091d0bed0bbd18cd188d0b5203530303020d0bdd0b5d0bbd18cd0b7d18f20d05f8201527fbad183d0bfd0b8d182d18c000000000000000000000000000000000000000000602082015250565b5f6122db602b83611666565b91506122e682612281565b604082019050919050565b5f6020820190508181035f830152612308816122cf565b9050919050565b7f5075626c696320d0bad0bed0b8d0bdd18b20d0b7d0b0d0bad0bed0bdd187d0b85f8201527fd0bbd0b8d181d18c000000000000000000000000000000000000000000000000602082015250565b5f612369602883611666565b91506123748261230f565b604082019050919050565b5f6020820190508181035f8301526123968161235d565b9050919050565b7f45524332303a20617070726f76652066726f6d20746865207a65726f206164645f8201527f7265737300000000000000000000000000000000000000000000000000000000602082015250565b5f6123f7602483611666565b91506124028261239d565b604082019050919050565b5f6020820190508181035f830152612424816123eb565b9050919050565b7f45524332303a20617070726f766520746f20746865207a65726f2061646472655f8201527f7373000000000000000000000000000000000000000000000000000000000000602082015250565b5f612485602283611666565b91506124908261242b565b604082019050919050565b5f6020820190508181035f8301526124b281612479565b9050919050565b7f45524332303a20696e73756666696369656e7420616c6c6f77616e63650000005f82015250565b5f6124ed601d83611666565b91506124f8826124b9565b602082019050919050565b5f6020820190508181035f83015261251a816124e1565b9050919050565b7f45524332303a207472616e736665722066726f6d20746865207a65726f2061645f8201527f6472657373000000000000000000000000000000000000000000000000000000602082015250565b5f61257b602583611666565b915061258682612521565b604082019050919050565b5f6020820190508181035f8301526125a88161256f565b9050919050565b7f45524332303a207472616e7366657220746f20746865207a65726f20616464725f8201527f6573730000000000000000000000000000000000000000000000000000000000602082015250565b5f612609602383611666565b9150612614826125af565b604082019050919050565b5f6020820190508181035f830152612636816125fd565b9050919050565b7f45524332303a207472616e7366657220616d6f756e74206578636565647320625f8201527f616c616e63650000000000000000000000000000000000000000000000000000602082015250565b5f612697602683611666565b91506126a28261263d565b604082019050919050565b5f6020820190508181035f8301526126c48161268b565b905091905056fed09ed0bfd0b5d180d0b0d186d0b8d18f20d0bfd180d0bed0b2d0b5d0b4d0b5d0bdd0b020d183d181d0bfd0b5d188d0bdd0b0a2646970667358221220fd9d290d92c2284a8607776d47f86527f7c135061c242cc04a84de149068cba764736f6c63430008150033",
					"opcodes": "PUSH1 0x80 PUSH1 0x40 MSTORE PUSH8 0x8AC7230489E80000 PUSH1 0x5 SSTORE PUSH1 0x64 PUSH1 0xA PUSH1 0x5 SLOAD PUSH3 0x23 SWAP2 SWAP1 PUSH3 0x792 JUMP JUMPDEST PUSH3 0x2F SWAP2 SWAP1 PUSH3 0x809 JUMP JUMPDEST PUSH1 0x6 SSTORE PUSH1 0x64 PUSH1 0x1E PUSH1 0x5 SLOAD PUSH3 0x45 SWAP2 SWAP1 PUSH3 0x792 JUMP JUMPDEST PUSH3 0x51 SWAP2 SWAP1 PUSH3 0x809 JUMP JUMPDEST PUSH1 0x7 SSTORE PUSH1 0x64 PUSH1 0x3C PUSH1 0x5 SLOAD PUSH3 0x67 SWAP2 SWAP1 PUSH3 0x792 JUMP JUMPDEST PUSH3 0x73 SWAP2 SWAP1 PUSH3 0x809 JUMP JUMPDEST PUSH1 0x8 SSTORE CALLVALUE DUP1 ISZERO PUSH3 0x82 JUMPI PUSH0 DUP1 REVERT JUMPDEST POP PUSH1 0x40 MLOAD DUP1 PUSH1 0x40 ADD PUSH1 0x40 MSTORE DUP1 PUSH1 0xD DUP2 MSTORE PUSH1 0x20 ADD PUSH32 0x43727970746F4D6F6E7374657200000000000000000000000000000000000000 DUP2 MSTORE POP PUSH1 0x40 MLOAD DUP1 PUSH1 0x40 ADD PUSH1 0x40 MSTORE DUP1 PUSH1 0x4 DUP2 MSTORE PUSH1 0x20 ADD PUSH32 0x434D4F4E00000000000000000000000000000000000000000000000000000000 DUP2 MSTORE POP DUP2 PUSH1 0x3 SWAP1 DUP2 PUSH3 0x100 SWAP2 SWAP1 PUSH3 0xA9B JUMP JUMPDEST POP DUP1 PUSH1 0x4 SWAP1 DUP2 PUSH3 0x112 SWAP2 SWAP1 PUSH3 0xA9B JUMP JUMPDEST POP POP POP CALLER PUSH1 0xD PUSH0 PUSH2 0x100 EXP DUP2 SLOAD DUP2 PUSH20 0xFFFFFFFFFFFFFFFFFFFFFFFFFFFFFFFFFFFFFFFF MUL NOT AND SWAP1 DUP4 PUSH20 0xFFFFFFFFFFFFFFFFFFFFFFFFFFFFFFFFFFFFFFFF AND MUL OR SWAP1 SSTORE POP PUSH0 PUSH1 0xE PUSH0 PUSH20 0xAB8483F64D9C6D1ECF9B849AE677DD3315835CB2 PUSH20 0xFFFFFFFFFFFFFFFFFFFFFFFFFFFFFFFFFFFFFFFF AND PUSH20 0xFFFFFFFFFFFFFFFFFFFFFFFFFFFFFFFFFFFFFFFF AND DUP2 MSTORE PUSH1 0x20 ADD SWAP1 DUP2 MSTORE PUSH1 0x20 ADD PUSH0 KECCAK256 PUSH0 PUSH2 0x100 EXP DUP2 SLOAD DUP2 PUSH1 0xFF MUL NOT AND SWAP1 DUP4 PUSH1 0x1 DUP2 GT ISZERO PUSH3 0x1CB JUMPI PUSH3 0x1CA PUSH3 0xB7F JUMP JUMPDEST JUMPDEST MUL OR SWAP1 SSTORE POP PUSH1 0x1 PUSH1 0xE PUSH0 PUSH20 0x4B20993BC481177EC7E8F571CECAE8A9E22C02DB PUSH20 0xFFFFFFFFFFFFFFFFFFFFFFFFFFFFFFFFFFFFFFFF AND PUSH20 0xFFFFFFFFFFFFFFFFFFFFFFFFFFFFFFFFFFFFFFFF AND DUP2 MSTORE PUSH1 0x20 ADD SWAP1 DUP2 MSTORE PUSH1 0x20 ADD PUSH0 KECCAK256 PUSH0 PUSH2 0x100 EXP DUP2 SLOAD DUP2 PUSH1 0xFF MUL NOT AND SWAP1 DUP4 PUSH1 0x1 DUP2 GT ISZERO PUSH3 0x247 JUMPI PUSH3 0x246 PUSH3 0xB7F JUMP JUMPDEST JUMPDEST MUL OR SWAP1 SSTORE POP TIMESTAMP PUSH1 0x9 DUP2 SWAP1 SSTORE POP PUSH1 0x9 SLOAD PUSH1 0xA DUP2 SWAP1 SSTORE POP PUSH1 0x9 SLOAD PUSH1 0xB DUP2 SWAP1 SSTORE POP PUSH3 0x279 CALLER PUSH1 0x5 SLOAD PUSH3 0x366 PUSH1 0x20 SHL PUSH1 0x20 SHR JUMP JUMPDEST PUSH3 0x2A8 CALLER PUSH20 0x78731D3CA6B7E34AC0F824C42A7CC18A495CABAB PUSH8 0x429D069189E0000 PUSH3 0x4CB PUSH1 0x20 SHL PUSH1 0x20 SHR JUMP JUMPDEST PUSH8 0x429D069189E0000 PUSH1 0x6 SLOAD PUSH3 0x2C0 SWAP2 SWAP1 PUSH3 0xBAC JUMP JUMPDEST PUSH1 0x6 DUP2 SWAP1 SSTORE POP PUSH3 0x2F5 CALLER PUSH20 0x617F2E2FD72FD9D5503197092AC168C91465E7F2 PUSH8 0x58D15E176280000 PUSH3 0x4CB PUSH1 0x20 SHL PUSH1 0x20 SHR JUMP JUMPDEST PUSH8 0x58D15E176280000 PUSH1 0x6 SLOAD PUSH3 0x30D SWAP2 SWAP1 PUSH3 0xBAC JUMP JUMPDEST PUSH1 0x6 DUP2 SWAP1 SSTORE POP PUSH3 0x342 CALLER PUSH20 0x17F6AD8EF982297579C203069C1DBFFE4348C372 PUSH8 0x2C68AF0BB140000 PUSH3 0x4CB PUSH1 0x20 SHL PUSH1 0x20 SHR JUMP JUMPDEST PUSH8 0x2C68AF0BB140000 PUSH1 0x6 SLOAD PUSH3 0x35A SWAP2 SWAP1 PUSH3 0xBAC JUMP JUMPDEST PUSH1 0x6 DUP2 SWAP1 SSTORE POP PUSH3 0xE86 JUMP JUMPDEST PUSH0 PUSH20 0xFFFFFFFFFFFFFFFFFFFFFFFFFFFFFFFFFFFFFFFF AND DUP3 PUSH20 0xFFFFFFFFFFFFFFFFFFFFFFFFFFFFFFFFFFFFFFFF AND SUB PUSH3 0x3D7 JUMPI PUSH1 0x40 MLOAD PUSH32 0x8C379A000000000000000000000000000000000000000000000000000000000 DUP2 MSTORE PUSH1 0x4 ADD PUSH3 0x3CE SWAP1 PUSH3 0xC44 JUMP JUMPDEST PUSH1 0x40 MLOAD DUP1 SWAP2 SUB SWAP1 REVERT JUMPDEST PUSH3 0x3EA PUSH0 DUP4 DUP4 PUSH3 0x752 PUSH1 0x20 SHL PUSH1 0x20 SHR JUMP JUMPDEST DUP1 PUSH1 0x2 PUSH0 DUP3 DUP3 SLOAD PUSH3 0x3FD SWAP2 SWAP1 PUSH3 0xC64 JUMP JUMPDEST SWAP3 POP POP DUP2 SWAP1 SSTORE POP DUP1 PUSH0 DUP1 DUP5 PUSH20 0xFFFFFFFFFFFFFFFFFFFFFFFFFFFFFFFFFFFFFFFF AND PUSH20 0xFFFFFFFFFFFFFFFFFFFFFFFFFFFFFFFFFFFFFFFF AND DUP2 MSTORE PUSH1 0x20 ADD SWAP1 DUP2 MSTORE PUSH1 0x20 ADD PUSH0 KECCAK256 PUSH0 DUP3 DUP3 SLOAD ADD SWAP3 POP POP DUP2 SWAP1 SSTORE POP DUP2 PUSH20 0xFFFFFFFFFFFFFFFFFFFFFFFFFFFFFFFFFFFFFFFF AND PUSH0 PUSH20 0xFFFFFFFFFFFFFFFFFFFFFFFFFFFFFFFFFFFFFFFF AND PUSH32 0xDDF252AD1BE2C89B69C2B068FC378DAA952BA7F163C4A11628F55A4DF523B3EF DUP4 PUSH1 0x40 MLOAD PUSH3 0x4AC SWAP2 SWAP1 PUSH3 0xCAF JUMP JUMPDEST PUSH1 0x40 MLOAD DUP1 SWAP2 SUB SWAP1 LOG3 PUSH3 0x4C7 PUSH0 DUP4 DUP4 PUSH3 0x757 PUSH1 0x20 SHL PUSH1 0x20 SHR JUMP JUMPDEST POP POP JUMP JUMPDEST PUSH0 PUSH20 0xFFFFFFFFFFFFFFFFFFFFFFFFFFFFFFFFFFFFFFFF AND DUP4 PUSH20 0xFFFFFFFFFFFFFFFFFFFFFFFFFFFFFFFFFFFFFFFF AND SUB PUSH3 0x53C JUMPI PUSH1 0x40 MLOAD PUSH32 0x8C379A000000000000000000000000000000000000000000000000000000000 DUP2 MSTORE PUSH1 0x4 ADD PUSH3 0x533 SWAP1 PUSH3 0xD3E JUMP JUMPDEST PUSH1 0x40 MLOAD DUP1 SWAP2 SUB SWAP1 REVERT JUMPDEST PUSH0 PUSH20 0xFFFFFFFFFFFFFFFFFFFFFFFFFFFFFFFFFFFFFFFF AND DUP3 PUSH20 0xFFFFFFFFFFFFFFFFFFFFFFFFFFFFFFFFFFFFFFFF AND SUB PUSH3 0x5AD JUMPI PUSH1 0x40 MLOAD PUSH32 0x8C379A000000000000000000000000000000000000000000000000000000000 DUP2 MSTORE PUSH1 0x4 ADD PUSH3 0x5A4 SWAP1 PUSH3 0xDD2 JUMP JUMPDEST PUSH1 0x40 MLOAD DUP1 SWAP2 SUB SWAP1 REVERT JUMPDEST PUSH3 0x5C0 DUP4 DUP4 DUP4 PUSH3 0x752 PUSH1 0x20 SHL PUSH1 0x20 SHR JUMP JUMPDEST PUSH0 DUP1 PUSH0 DUP6 PUSH20 0xFFFFFFFFFFFFFFFFFFFFFFFFFFFFFFFFFFFFFFFF AND PUSH20 0xFFFFFFFFFFFFFFFFFFFFFFFFFFFFFFFFFFFFFFFF AND DUP2 MSTORE PUSH1 0x20 ADD SWAP1 DUP2 MSTORE PUSH1 0x20 ADD PUSH0 KECCAK256 SLOAD SWAP1 POP DUP2 DUP2 LT ISZERO PUSH3 0x646 JUMPI PUSH1 0x40 MLOAD PUSH32 0x8C379A000000000000000000000000000000000000000000000000000000000 DUP2 MSTORE PUSH1 0x4 ADD PUSH3 0x63D SWAP1 PUSH3 0xE66 JUMP JUMPDEST PUSH1 0x40 MLOAD DUP1 SWAP2 SUB SWAP1 REVERT JUMPDEST DUP2 DUP2 SUB PUSH0 DUP1 DUP7 PUSH20 0xFFFFFFFFFFFFFFFFFFFFFFFFFFFFFFFFFFFFFFFF AND PUSH20 0xFFFFFFFFFFFFFFFFFFFFFFFFFFFFFFFFFFFFFFFF AND DUP2 MSTORE PUSH1 0x20 ADD SWAP1 DUP2 MSTORE PUSH1 0x20 ADD PUSH0 KECCAK256 DUP2 SWAP1 SSTORE POP DUP2 PUSH0 DUP1 DUP6 PUSH20 0xFFFFFFFFFFFFFFFFFFFFFFFFFFFFFFFFFFFFFFFF AND PUSH20 0xFFFFFFFFFFFFFFFFFFFFFFFFFFFFFFFFFFFFFFFF AND DUP2 MSTORE PUSH1 0x20 ADD SWAP1 DUP2 MSTORE PUSH1 0x20 ADD PUSH0 KECCAK256 PUSH0 DUP3 DUP3 SLOAD ADD SWAP3 POP POP DUP2 SWAP1 SSTORE POP DUP3 PUSH20 0xFFFFFFFFFFFFFFFFFFFFFFFFFFFFFFFFFFFFFFFF AND DUP5 PUSH20 0xFFFFFFFFFFFFFFFFFFFFFFFFFFFFFFFFFFFFFFFF AND PUSH32 0xDDF252AD1BE2C89B69C2B068FC378DAA952BA7F163C4A11628F55A4DF523B3EF DUP5 PUSH1 0x40 MLOAD PUSH3 0x731 SWAP2 SWAP1 PUSH3 0xCAF JUMP JUMPDEST PUSH1 0x40 MLOAD DUP1 SWAP2 SUB SWAP1 LOG3 PUSH3 0x74C DUP5 DUP5 DUP5 PUSH3 0x757 PUSH1 0x20 SHL PUSH1 0x20 SHR JUMP JUMPDEST POP POP POP POP JUMP JUMPDEST POP POP POP JUMP JUMPDEST POP POP POP JUMP JUMPDEST PUSH0 DUP2 SWAP1 POP SWAP2 SWAP1 POP JUMP JUMPDEST PUSH32 0x4E487B7100000000000000000000000000000000000000000000000000000000 PUSH0 MSTORE PUSH1 0x11 PUSH1 0x4 MSTORE PUSH1 0x24 PUSH0 REVERT JUMPDEST PUSH0 PUSH3 0x79E DUP3 PUSH3 0x75C JUMP JUMPDEST SWAP2 POP PUSH3 0x7AB DUP4 PUSH3 0x75C JUMP JUMPDEST SWAP3 POP DUP3 DUP3 MUL PUSH3 0x7BB DUP2 PUSH3 0x75C JUMP JUMPDEST SWAP2 POP DUP3 DUP3 DIV DUP5 EQ DUP4 ISZERO OR PUSH3 0x7D5 JUMPI PUSH3 0x7D4 PUSH3 0x765 JUMP JUMPDEST JUMPDEST POP SWAP3 SWAP2 POP POP JUMP JUMPDEST PUSH32 0x4E487B7100000000000000000000000000000000000000000000000000000000 PUSH0 MSTORE PUSH1 0x12 PUSH1 0x4 MSTORE PUSH1 0x24 PUSH0 REVERT JUMPDEST PUSH0 PUSH3 0x815 DUP3 PUSH3 0x75C JUMP JUMPDEST SWAP2 POP PUSH3 0x822 DUP4 PUSH3 0x75C JUMP JUMPDEST SWAP3 POP DUP3 PUSH3 0x835 JUMPI PUSH3 0x834 PUSH3 0x7DC JUMP JUMPDEST JUMPDEST DUP3 DUP3 DIV SWAP1 POP SWAP3 SWAP2 POP POP JUMP JUMPDEST PUSH0 DUP2 MLOAD SWAP1 POP SWAP2 SWAP1 POP JUMP JUMPDEST PUSH32 0x4E487B7100000000000000000000000000000000000000000000000000000000 PUSH0 MSTORE PUSH1 0x41 PUSH1 0x4 MSTORE PUSH1 0x24 PUSH0 REVERT JUMPDEST PUSH32 0x4E487B7100000000000000000000000000000000000000000000000000000000 PUSH0 MSTORE PUSH1 0x22 PUSH1 0x4 MSTORE PUSH1 0x24 PUSH0 REVERT JUMPDEST PUSH0 PUSH1 0x2 DUP3 DIV SWAP1 POP PUSH1 0x1 DUP3 AND DUP1 PUSH3 0x8BC JUMPI PUSH1 0x7F DUP3 AND SWAP2 POP JUMPDEST PUSH1 0x20 DUP3 LT DUP2 SUB PUSH3 0x8D2 JUMPI PUSH3 0x8D1 PUSH3 0x877 JUMP JUMPDEST JUMPDEST POP SWAP2 SWAP1 POP JUMP JUMPDEST PUSH0 DUP2 SWAP1 POP DUP2 PUSH0 MSTORE PUSH1 0x20 PUSH0 KECCAK256 SWAP1 POP SWAP2 SWAP1 POP JUMP JUMPDEST PUSH0 PUSH1 0x20 PUSH1 0x1F DUP4 ADD DIV SWAP1 POP SWAP2 SWAP1 POP JUMP JUMPDEST PUSH0 DUP3 DUP3 SHL SWAP1 POP SWAP3 SWAP2 POP POP JUMP JUMPDEST PUSH0 PUSH1 0x8 DUP4 MUL PUSH3 0x936 PUSH32 0xFFFFFFFFFFFFFFFFFFFFFFFFFFFFFFFFFFFFFFFFFFFFFFFFFFFFFFFFFFFFFFFF DUP3 PUSH3 0x8F9 JUMP JUMPDEST PUSH3 0x942 DUP7 DUP4 PUSH3 0x8F9 JUMP JUMPDEST SWAP6 POP DUP1 NOT DUP5 AND SWAP4 POP DUP1 DUP7 AND DUP5 OR SWAP3 POP POP POP SWAP4 SWAP3 POP POP POP JUMP JUMPDEST PUSH0 DUP2 SWAP1 POP SWAP2 SWAP1 POP JUMP JUMPDEST PUSH0 PUSH3 0x983 PUSH3 0x97D PUSH3 0x977 DUP5 PUSH3 0x75C JUMP JUMPDEST PUSH3 0x95A JUMP JUMPDEST PUSH3 0x75C JUMP JUMPDEST SWAP1 POP SWAP2 SWAP1 POP JUMP JUMPDEST PUSH0 DUP2 SWAP1 POP SWAP2 SWAP1 POP JUMP JUMPDEST PUSH3 0x99E DUP4 PUSH3 0x963 JUMP JUMPDEST PUSH3 0x9B6 PUSH3 0x9AD DUP3 PUSH3 0x98A JUMP JUMPDEST DUP5 DUP5 SLOAD PUSH3 0x905 JUMP JUMPDEST DUP3 SSTORE POP POP POP POP JUMP JUMPDEST PUSH0 SWAP1 JUMP JUMPDEST PUSH3 0x9CC PUSH3 0x9BE JUMP JUMPDEST PUSH3 0x9D9 DUP2 DUP5 DUP5 PUSH3 0x993 JUMP JUMPDEST POP POP POP JUMP JUMPDEST JUMPDEST DUP2 DUP2 LT ISZERO PUSH3 0xA00 JUMPI PUSH3 0x9F4 PUSH0 DUP3 PUSH3 0x9C2 JUMP JUMPDEST PUSH1 0x1 DUP2 ADD SWAP1 POP PUSH3 0x9DF JUMP JUMPDEST POP POP JUMP JUMPDEST PUSH1 0x1F DUP3 GT ISZERO PUSH3 0xA4F JUMPI PUSH3 0xA19 DUP2 PUSH3 0x8D8 JUMP JUMPDEST PUSH3 0xA24 DUP5 PUSH3 0x8EA JUMP JUMPDEST DUP2 ADD PUSH1 0x20 DUP6 LT ISZERO PUSH3 0xA34 JUMPI DUP2 SWAP1 POP JUMPDEST PUSH3 0xA4C PUSH3 0xA43 DUP6 PUSH3 0x8EA JUMP JUMPDEST DUP4 ADD DUP3 PUSH3 0x9DE JUMP JUMPDEST POP POP JUMPDEST POP POP POP JUMP JUMPDEST PUSH0 DUP3 DUP3 SHR SWAP1 POP SWAP3 SWAP2 POP POP JUMP JUMPDEST PUSH0 PUSH3 0xA71 PUSH0 NOT DUP5 PUSH1 0x8 MUL PUSH3 0xA54 JUMP JUMPDEST NOT DUP1 DUP4 AND SWAP2 POP POP SWAP3 SWAP2 POP POP JUMP JUMPDEST PUSH0 PUSH3 0xA8B DUP4 DUP4 PUSH3 0xA60 JUMP JUMPDEST SWAP2 POP DUP3 PUSH1 0x2 MUL DUP3 OR SWAP1 POP SWAP3 SWAP2 POP POP JUMP JUMPDEST PUSH3 0xAA6 DUP3 PUSH3 0x840 JUMP JUMPDEST PUSH8 0xFFFFFFFFFFFFFFFF DUP2 GT ISZERO PUSH3 0xAC2 JUMPI PUSH3 0xAC1 PUSH3 0x84A JUMP JUMPDEST JUMPDEST PUSH3 0xACE DUP3 SLOAD PUSH3 0x8A4 JUMP JUMPDEST PUSH3 0xADB DUP3 DUP3 DUP6 PUSH3 0xA04 JUMP JUMPDEST PUSH0 PUSH1 0x20 SWAP1 POP PUSH1 0x1F DUP4 GT PUSH1 0x1 DUP2 EQ PUSH3 0xB11 JUMPI PUSH0 DUP5 ISZERO PUSH3 0xAFC JUMPI DUP3 DUP8 ADD MLOAD SWAP1 POP JUMPDEST PUSH3 0xB08 DUP6 DUP3 PUSH3 0xA7E JUMP JUMPDEST DUP7 SSTORE POP PUSH3 0xB77 JUMP JUMPDEST PUSH1 0x1F NOT DUP5 AND PUSH3 0xB21 DUP7 PUSH3 0x8D8 JUMP JUMPDEST PUSH0 JUMPDEST DUP3 DUP2 LT ISZERO PUSH3 0xB4A JUMPI DUP5 DUP10 ADD MLOAD DUP3 SSTORE PUSH1 0x1 DUP3 ADD SWAP2 POP PUSH1 0x20 DUP6 ADD SWAP5 POP PUSH1 0x20 DUP2 ADD SWAP1 POP PUSH3 0xB23 JUMP JUMPDEST DUP7 DUP4 LT ISZERO PUSH3 0xB6A JUMPI DUP5 DUP10 ADD MLOAD PUSH3 0xB66 PUSH1 0x1F DUP10 AND DUP3 PUSH3 0xA60 JUMP JUMPDEST DUP4 SSTORE POP JUMPDEST PUSH1 0x1 PUSH1 0x2 DUP9 MUL ADD DUP9 SSTORE POP POP POP JUMPDEST POP POP POP POP POP POP JUMP JUMPDEST PUSH32 0x4E487B7100000000000000000000000000000000000000000000000000000000 PUSH0 MSTORE PUSH1 0x21 PUSH1 0x4 MSTORE PUSH1 0x24 PUSH0 REVERT JUMPDEST PUSH0 PUSH3 0xBB8 DUP3 PUSH3 0x75C JUMP JUMPDEST SWAP2 POP PUSH3 0xBC5 DUP4 PUSH3 0x75C JUMP JUMPDEST SWAP3 POP DUP3 DUP3 SUB SWAP1 POP DUP2 DUP2 GT ISZERO PUSH3 0xBE0 JUMPI PUSH3 0xBDF PUSH3 0x765 JUMP JUMPDEST JUMPDEST SWAP3 SWAP2 POP POP JUMP JUMPDEST PUSH0 DUP3 DUP3 MSTORE PUSH1 0x20 DUP3 ADD SWAP1 POP SWAP3 SWAP2 POP POP JUMP JUMPDEST PUSH32 0x45524332303A206D696E7420746F20746865207A65726F206164647265737300 PUSH0 DUP3 ADD MSTORE POP JUMP JUMPDEST PUSH0 PUSH3 0xC2C PUSH1 0x1F DUP4 PUSH3 0xBE6 JUMP JUMPDEST SWAP2 POP PUSH3 0xC39 DUP3 PUSH3 0xBF6 JUMP JUMPDEST PUSH1 0x20 DUP3 ADD SWAP1 POP SWAP2 SWAP1 POP JUMP JUMPDEST PUSH0 PUSH1 0x20 DUP3 ADD SWAP1 POP DUP2 DUP2 SUB PUSH0 DUP4 ADD MSTORE PUSH3 0xC5D DUP2 PUSH3 0xC1E JUMP JUMPDEST SWAP1 POP SWAP2 SWAP1 POP JUMP JUMPDEST PUSH0 PUSH3 0xC70 DUP3 PUSH3 0x75C JUMP JUMPDEST SWAP2 POP PUSH3 0xC7D DUP4 PUSH3 0x75C JUMP JUMPDEST SWAP3 POP DUP3 DUP3 ADD SWAP1 POP DUP1 DUP3 GT ISZERO PUSH3 0xC98 JUMPI PUSH3 0xC97 PUSH3 0x765 JUMP JUMPDEST JUMPDEST SWAP3 SWAP2 POP POP JUMP JUMPDEST PUSH3 0xCA9 DUP2 PUSH3 0x75C JUMP JUMPDEST DUP3 MSTORE POP POP JUMP JUMPDEST PUSH0 PUSH1 0x20 DUP3 ADD SWAP1 POP PUSH3 0xCC4 PUSH0 DUP4 ADD DUP5 PUSH3 0xC9E JUMP JUMPDEST SWAP3 SWAP2 POP POP JUMP JUMPDEST PUSH32 0x45524332303A207472616E736665722066726F6D20746865207A65726F206164 PUSH0 DUP3 ADD MSTORE PUSH32 0x6472657373000000000000000000000000000000000000000000000000000000 PUSH1 0x20 DUP3 ADD MSTORE POP JUMP JUMPDEST PUSH0 PUSH3 0xD26 PUSH1 0x25 DUP4 PUSH3 0xBE6 JUMP JUMPDEST SWAP2 POP PUSH3 0xD33 DUP3 PUSH3 0xCCA JUMP JUMPDEST PUSH1 0x40 DUP3 ADD SWAP1 POP SWAP2 SWAP1 POP JUMP JUMPDEST PUSH0 PUSH1 0x20 DUP3 ADD SWAP1 POP DUP2 DUP2 SUB PUSH0 DUP4 ADD MSTORE PUSH3 0xD57 DUP2 PUSH3 0xD18 JUMP JUMPDEST SWAP1 POP SWAP2 SWAP1 POP JUMP JUMPDEST PUSH32 0x45524332303A207472616E7366657220746F20746865207A65726F2061646472 PUSH0 DUP3 ADD MSTORE PUSH32 0x6573730000000000000000000000000000000000000000000000000000000000 PUSH1 0x20 DUP3 ADD MSTORE POP JUMP JUMPDEST PUSH0 PUSH3 0xDBA PUSH1 0x23 DUP4 PUSH3 0xBE6 JUMP JUMPDEST SWAP2 POP PUSH3 0xDC7 DUP3 PUSH3 0xD5E JUMP JUMPDEST PUSH1 0x40 DUP3 ADD SWAP1 POP SWAP2 SWAP1 POP JUMP JUMPDEST PUSH0 PUSH1 0x20 DUP3 ADD SWAP1 POP DUP2 DUP2 SUB PUSH0 DUP4 ADD MSTORE PUSH3 0xDEB DUP2 PUSH3 0xDAC JUMP JUMPDEST SWAP1 POP SWAP2 SWAP1 POP JUMP JUMPDEST PUSH32 0x45524332303A207472616E7366657220616D6F756E7420657863656564732062 PUSH0 DUP3 ADD MSTORE PUSH32 0x616C616E63650000000000000000000000000000000000000000000000000000 PUSH1 0x20 DUP3 ADD MSTORE POP JUMP JUMPDEST PUSH0 PUSH3 0xE4E PUSH1 0x26 DUP4 PUSH3 0xBE6 JUMP JUMPDEST SWAP2 POP PUSH3 0xE5B DUP3 PUSH3 0xDF2 JUMP JUMPDEST PUSH1 0x40 DUP3 ADD SWAP1 POP SWAP2 SWAP1 POP JUMP JUMPDEST PUSH0 PUSH1 0x20 DUP3 ADD SWAP1 POP DUP2 DUP2 SUB PUSH0 DUP4 ADD MSTORE PUSH3 0xE7F DUP2 PUSH3 0xE40 JUMP JUMPDEST SWAP1 POP SWAP2 SWAP1 POP JUMP JUMPDEST PUSH2 0x2733 DUP1 PUSH3 0xE94 PUSH0 CODECOPY PUSH0 RETURN INVALID PUSH1 0x80 PUSH1 0x40 MSTORE PUSH1 0x4 CALLDATASIZE LT PUSH2 0x19B JUMPI PUSH0 CALLDATALOAD PUSH1 0xE0 SHR DUP1 PUSH4 0x70A08231 GT PUSH2 0xEB JUMPI DUP1 PUSH4 0xD95660BE GT PUSH2 0x89 JUMPI DUP1 PUSH4 0xEA7D5165 GT PUSH2 0x63 JUMPI DUP1 PUSH4 0xEA7D5165 EQ PUSH2 0x61E JUMPI DUP1 PUSH4 0xEC684EB3 EQ PUSH2 0x646 JUMPI DUP1 PUSH4 0xF2DFD08F EQ PUSH2 0x670 JUMPI DUP1 PUSH4 0xFD74D294 EQ PUSH2 0x68C JUMPI PUSH2 0x19B JUMP JUMPDEST DUP1 PUSH4 0xD95660BE EQ PUSH2 0x590 JUMPI DUP1 PUSH4 0xDB8FB88E EQ PUSH2 0x5BA JUMPI DUP1 PUSH4 0xDD62ED3E EQ PUSH2 0x5E2 JUMPI PUSH2 0x19B JUMP JUMPDEST DUP1 PUSH4 0x937BE371 GT PUSH2 0xC5 JUMPI DUP1 PUSH4 0x937BE371 EQ PUSH2 0x4C4 JUMPI DUP1 PUSH4 0x95D89B41 EQ PUSH2 0x4EE JUMPI DUP1 PUSH4 0xA457C2D7 EQ PUSH2 0x518 JUMPI DUP1 PUSH4 0xA9059CBB EQ PUSH2 0x554 JUMPI PUSH2 0x19B JUMP JUMPDEST DUP1 PUSH4 0x70A08231 EQ PUSH2 0x421 JUMPI DUP1 PUSH4 0x81D12C58 EQ PUSH2 0x45D JUMPI DUP1 PUSH4 0x8DA5CB5B EQ PUSH2 0x49A JUMPI PUSH2 0x19B JUMP JUMPDEST DUP1 PUSH4 0x26F67490 GT PUSH2 0x158 JUMPI DUP1 PUSH4 0x39509351 GT PUSH2 0x132 JUMPI DUP1 PUSH4 0x39509351 EQ PUSH2 0x343 JUMPI DUP1 PUSH4 0x534F5680 EQ PUSH2 0x37F JUMPI DUP1 PUSH4 0x5C475D42 EQ PUSH2 0x3BB JUMPI DUP1 PUSH4 0x6FF32B22 EQ PUSH2 0x3F7 JUMPI PUSH2 0x19B JUMP JUMPDEST DUP1 PUSH4 0x26F67490 EQ PUSH2 0x2C5 JUMPI DUP1 PUSH4 0x313CE567 EQ PUSH2 0x2EF JUMPI DUP1 PUSH4 0x32454DBB EQ PUSH2 0x319 JUMPI PUSH2 0x19B JUMP JUMPDEST DUP1 PUSH4 0x6FDDE03 EQ PUSH2 0x19F JUMPI DUP1 PUSH4 0x95EA7B3 EQ PUSH2 0x1C9 JUMPI DUP1 PUSH4 0x13962801 EQ PUSH2 0x205 JUMPI DUP1 PUSH4 0x18160DDD EQ PUSH2 0x22F JUMPI DUP1 PUSH4 0x23B872DD EQ PUSH2 0x259 JUMPI DUP1 PUSH4 0x254DC45E EQ PUSH2 0x295 JUMPI JUMPDEST PUSH0 DUP1 REVERT JUMPDEST CALLVALUE DUP1 ISZERO PUSH2 0x1AA JUMPI PUSH0 DUP1 REVERT JUMPDEST POP PUSH2 0x1B3 PUSH2 0x6B6 JUMP JUMPDEST PUSH1 0x40 MLOAD PUSH2 0x1C0 SWAP2 SWAP1 PUSH2 0x16E6 JUMP JUMPDEST PUSH1 0x40 MLOAD DUP1 SWAP2 SUB SWAP1 RETURN JUMPDEST CALLVALUE DUP1 ISZERO PUSH2 0x1D4 JUMPI PUSH0 DUP1 REVERT JUMPDEST POP PUSH2 0x1EF PUSH1 0x4 DUP1 CALLDATASIZE SUB DUP2 ADD SWAP1 PUSH2 0x1EA SWAP2 SWAP1 PUSH2 0x17A4 JUMP JUMPDEST PUSH2 0x746 JUMP JUMPDEST PUSH1 0x40 MLOAD PUSH2 0x1FC SWAP2 SWAP1 PUSH2 0x17FC JUMP JUMPDEST PUSH1 0x40 MLOAD DUP1 SWAP2 SUB SWAP1 RETURN JUMPDEST CALLVALUE DUP1 ISZERO PUSH2 0x210 JUMPI PUSH0 DUP1 REVERT JUMPDEST POP PUSH2 0x219 PUSH2 0x768 JUMP JUMPDEST PUSH1 0x40 MLOAD PUSH2 0x226 SWAP2 SWAP1 PUSH2 0x1824 JUMP JUMPDEST PUSH1 0x40 MLOAD DUP1 SWAP2 SUB SWAP1 RETURN JUMPDEST CALLVALUE DUP1 ISZERO PUSH2 0x23A JUMPI PUSH0 DUP1 REVERT JUMPDEST POP PUSH2 0x243 PUSH2 0x76E JUMP JUMPDEST PUSH1 0x40 MLOAD PUSH2 0x250 SWAP2 SWAP1 PUSH2 0x1824 JUMP JUMPDEST PUSH1 0x40 MLOAD DUP1 SWAP2 SUB SWAP1 RETURN JUMPDEST CALLVALUE DUP1 ISZERO PUSH2 0x264 JUMPI PUSH0 DUP1 REVERT JUMPDEST POP PUSH2 0x27F PUSH1 0x4 DUP1 CALLDATASIZE SUB DUP2 ADD SWAP1 PUSH2 0x27A SWAP2 SWAP1 PUSH2 0x183D JUMP JUMPDEST PUSH2 0x777 JUMP JUMPDEST PUSH1 0x40 MLOAD PUSH2 0x28C SWAP2 SWAP1 PUSH2 0x17FC JUMP JUMPDEST PUSH1 0x40 MLOAD DUP1 SWAP2 SUB SWAP1 RETURN JUMPDEST PUSH2 0x2AF PUSH1 0x4 DUP1 CALLDATASIZE SUB DUP2 ADD SWAP1 PUSH2 0x2AA SWAP2 SWAP1 PUSH2 0x188D JUMP JUMPDEST PUSH2 0x7A5 JUMP JUMPDEST PUSH1 0x40 MLOAD PUSH2 0x2BC SWAP2 SWAP1 PUSH2 0x16E6 JUMP JUMPDEST PUSH1 0x40 MLOAD DUP1 SWAP2 SUB SWAP1 RETURN JUMPDEST CALLVALUE DUP1 ISZERO PUSH2 0x2D0 JUMPI PUSH0 DUP1 REVERT JUMPDEST POP PUSH2 0x2D9 PUSH2 0x9E0 JUMP JUMPDEST PUSH1 0x40 MLOAD PUSH2 0x2E6 SWAP2 SWAP1 PUSH2 0x1824 JUMP JUMPDEST PUSH1 0x40 MLOAD DUP1 SWAP2 SUB SWAP1 RETURN JUMPDEST CALLVALUE DUP1 ISZERO PUSH2 0x2FA JUMPI PUSH0 DUP1 REVERT JUMPDEST POP PUSH2 0x303 PUSH2 0x9E6 JUMP JUMPDEST PUSH1 0x40 MLOAD PUSH2 0x310 SWAP2 SWAP1 PUSH2 0x18D3 JUMP JUMPDEST PUSH1 0x40 MLOAD DUP1 SWAP2 SUB SWAP1 RETURN JUMPDEST CALLVALUE DUP1 ISZERO PUSH2 0x324 JUMPI PUSH0 DUP1 REVERT JUMPDEST POP PUSH2 0x32D PUSH2 0x9EE JUMP JUMPDEST PUSH1 0x40 MLOAD PUSH2 0x33A SWAP2 SWAP1 PUSH2 0x1824 JUMP JUMPDEST PUSH1 0x40 MLOAD DUP1 SWAP2 SUB SWAP1 RETURN JUMPDEST CALLVALUE DUP1 ISZERO PUSH2 0x34E JUMPI PUSH0 DUP1 REVERT JUMPDEST POP PUSH2 0x369 PUSH1 0x4 DUP1 CALLDATASIZE SUB DUP2 ADD SWAP1 PUSH2 0x364 SWAP2 SWAP1 PUSH2 0x17A4 JUMP JUMPDEST PUSH2 0x9F4 JUMP JUMPDEST PUSH1 0x40 MLOAD PUSH2 0x376 SWAP2 SWAP1 PUSH2 0x17FC JUMP JUMPDEST PUSH1 0x40 MLOAD DUP1 SWAP2 SUB SWAP1 RETURN JUMPDEST CALLVALUE DUP1 ISZERO PUSH2 0x38A JUMPI PUSH0 DUP1 REVERT JUMPDEST POP PUSH2 0x3A5 PUSH1 0x4 DUP1 CALLDATASIZE SUB DUP2 ADD SWAP1 PUSH2 0x3A0 SWAP2 SWAP1 PUSH2 0x18EC JUMP JUMPDEST PUSH2 0xA2A JUMP JUMPDEST PUSH1 0x40 MLOAD PUSH2 0x3B2 SWAP2 SWAP1 PUSH2 0x198A JUMP JUMPDEST PUSH1 0x40 MLOAD DUP1 SWAP2 SUB SWAP1 RETURN JUMPDEST CALLVALUE DUP1 ISZERO PUSH2 0x3C6 JUMPI PUSH0 DUP1 REVERT JUMPDEST POP PUSH2 0x3E1 PUSH1 0x4 DUP1 CALLDATASIZE SUB DUP2 ADD SWAP1 PUSH2 0x3DC SWAP2 SWAP1 PUSH2 0x188D JUMP JUMPDEST PUSH2 0xA47 JUMP JUMPDEST PUSH1 0x40 MLOAD PUSH2 0x3EE SWAP2 SWAP1 PUSH2 0x19B2 JUMP JUMPDEST PUSH1 0x40 MLOAD DUP1 SWAP2 SUB SWAP1 RETURN JUMPDEST CALLVALUE DUP1 ISZERO PUSH2 0x402 JUMPI PUSH0 DUP1 REVERT JUMPDEST POP PUSH2 0x40B PUSH2 0xA82 JUMP JUMPDEST PUSH1 0x40 MLOAD PUSH2 0x418 SWAP2 SWAP1 PUSH2 0x1824 JUMP JUMPDEST PUSH1 0x40 MLOAD DUP1 SWAP2 SUB SWAP1 RETURN JUMPDEST CALLVALUE DUP1 ISZERO PUSH2 0x42C JUMPI PUSH0 DUP1 REVERT JUMPDEST POP PUSH2 0x447 PUSH1 0x4 DUP1 CALLDATASIZE SUB DUP2 ADD SWAP1 PUSH2 0x442 SWAP2 SWAP1 PUSH2 0x18EC JUMP JUMPDEST PUSH2 0xA88 JUMP JUMPDEST PUSH1 0x40 MLOAD PUSH2 0x454 SWAP2 SWAP1 PUSH2 0x1824 JUMP JUMPDEST PUSH1 0x40 MLOAD DUP1 SWAP2 SUB SWAP1 RETURN JUMPDEST CALLVALUE DUP1 ISZERO PUSH2 0x468 JUMPI PUSH0 DUP1 REVERT JUMPDEST POP PUSH2 0x483 PUSH1 0x4 DUP1 CALLDATASIZE SUB DUP2 ADD SWAP1 PUSH2 0x47E SWAP2 SWAP1 PUSH2 0x188D JUMP JUMPDEST PUSH2 0xACD JUMP JUMPDEST PUSH1 0x40 MLOAD PUSH2 0x491 SWAP3 SWAP2 SWAP1 PUSH2 0x19CB JUMP JUMPDEST PUSH1 0x40 MLOAD DUP1 SWAP2 SUB SWAP1 RETURN JUMPDEST CALLVALUE DUP1 ISZERO PUSH2 0x4A5 JUMPI PUSH0 DUP1 REVERT JUMPDEST POP PUSH2 0x4AE PUSH2 0xBA1 JUMP JUMPDEST PUSH1 0x40 MLOAD PUSH2 0x4BB SWAP2 SWAP1 PUSH2 0x19B2 JUMP JUMPDEST PUSH1 0x40 MLOAD DUP1 SWAP2 SUB SWAP1 RETURN JUMPDEST CALLVALUE DUP1 ISZERO PUSH2 0x4CF JUMPI PUSH0 DUP1 REVERT JUMPDEST POP PUSH2 0x4D8 PUSH2 0xBC6 JUMP JUMPDEST PUSH1 0x40 MLOAD PUSH2 0x4E5 SWAP2 SWAP1 PUSH2 0x1824 JUMP JUMPDEST PUSH1 0x40 MLOAD DUP1 SWAP2 SUB SWAP1 RETURN JUMPDEST CALLVALUE DUP1 ISZERO PUSH2 0x4F9 JUMPI PUSH0 DUP1 REVERT JUMPDEST POP PUSH2 0x502 PUSH2 0xBCC JUMP JUMPDEST PUSH1 0x40 MLOAD PUSH2 0x50F SWAP2 SWAP1 PUSH2 0x16E6 JUMP JUMPDEST PUSH1 0x40 MLOAD DUP1 SWAP2 SUB SWAP1 RETURN JUMPDEST CALLVALUE DUP1 ISZERO PUSH2 0x523 JUMPI PUSH0 DUP1 REVERT JUMPDEST POP PUSH2 0x53E PUSH1 0x4 DUP1 CALLDATASIZE SUB DUP2 ADD SWAP1 PUSH2 0x539 SWAP2 SWAP1 PUSH2 0x17A4 JUMP JUMPDEST PUSH2 0xC5C JUMP JUMPDEST PUSH1 0x40 MLOAD PUSH2 0x54B SWAP2 SWAP1 PUSH2 0x17FC JUMP JUMPDEST PUSH1 0x40 MLOAD DUP1 SWAP2 SUB SWAP1 RETURN JUMPDEST CALLVALUE DUP1 ISZERO PUSH2 0x55F JUMPI PUSH0 DUP1 REVERT JUMPDEST POP PUSH2 0x57A PUSH1 0x4 DUP1 CALLDATASIZE SUB DUP2 ADD SWAP1 PUSH2 0x575 SWAP2 SWAP1 PUSH2 0x17A4 JUMP JUMPDEST PUSH2 0xCD1 JUMP JUMPDEST PUSH1 0x40 MLOAD PUSH2 0x587 SWAP2 SWAP1 PUSH2 0x17FC JUMP JUMPDEST PUSH1 0x40 MLOAD DUP1 SWAP2 SUB SWAP1 RETURN JUMPDEST CALLVALUE DUP1 ISZERO PUSH2 0x59B JUMPI PUSH0 DUP1 REVERT JUMPDEST POP PUSH2 0x5A4 PUSH2 0xCF3 JUMP JUMPDEST PUSH1 0x40 MLOAD PUSH2 0x5B1 SWAP2 SWAP1 PUSH2 0x1824 JUMP JUMPDEST PUSH1 0x40 MLOAD DUP1 SWAP2 SUB SWAP1 RETURN JUMPDEST CALLVALUE DUP1 ISZERO PUSH2 0x5C5 JUMPI PUSH0 DUP1 REVERT JUMPDEST POP PUSH2 0x5E0 PUSH1 0x4 DUP1 CALLDATASIZE SUB DUP2 ADD SWAP1 PUSH2 0x5DB SWAP2 SWAP1 PUSH2 0x1B25 JUMP JUMPDEST PUSH2 0xCF9 JUMP JUMPDEST STOP JUMPDEST CALLVALUE DUP1 ISZERO PUSH2 0x5ED JUMPI PUSH0 DUP1 REVERT JUMPDEST POP PUSH2 0x608 PUSH1 0x4 DUP1 CALLDATASIZE SUB DUP2 ADD SWAP1 PUSH2 0x603 SWAP2 SWAP1 PUSH2 0x1B6C JUMP JUMPDEST PUSH2 0xDAB JUMP JUMPDEST PUSH1 0x40 MLOAD PUSH2 0x615 SWAP2 SWAP1 PUSH2 0x1824 JUMP JUMPDEST PUSH1 0x40 MLOAD DUP1 SWAP2 SUB SWAP1 RETURN JUMPDEST CALLVALUE DUP1 ISZERO PUSH2 0x629 JUMPI PUSH0 DUP1 REVERT JUMPDEST POP PUSH2 0x644 PUSH1 0x4 DUP1 CALLDATASIZE SUB DUP2 ADD SWAP1 PUSH2 0x63F SWAP2 SWAP1 PUSH2 0x1BD4 JUMP JUMPDEST PUSH2 0xE2D JUMP JUMPDEST STOP JUMPDEST CALLVALUE DUP1 ISZERO PUSH2 0x651 JUMPI PUSH0 DUP1 REVERT JUMPDEST POP PUSH2 0x65A PUSH2 0xFE7 JUMP JUMPDEST PUSH1 0x40 MLOAD PUSH2 0x667 SWAP2 SWAP1 PUSH2 0x1824 JUMP JUMPDEST PUSH1 0x40 MLOAD DUP1 SWAP2 SUB SWAP1 RETURN JUMPDEST PUSH2 0x68A PUSH1 0x4 DUP1 CALLDATASIZE SUB DUP2 ADD SWAP1 PUSH2 0x685 SWAP2 SWAP1 PUSH2 0x188D JUMP JUMPDEST PUSH2 0xFED JUMP JUMPDEST STOP JUMPDEST CALLVALUE DUP1 ISZERO PUSH2 0x697 JUMPI PUSH0 DUP1 REVERT JUMPDEST POP PUSH2 0x6A0 PUSH2 0x1133 JUMP JUMPDEST PUSH1 0x40 MLOAD PUSH2 0x6AD SWAP2 SWAP1 PUSH2 0x1824 JUMP JUMPDEST PUSH1 0x40 MLOAD DUP1 SWAP2 SUB SWAP1 RETURN JUMPDEST PUSH1 0x60 PUSH1 0x3 DUP1 SLOAD PUSH2 0x6C5 SWAP1 PUSH2 0x1C3F JUMP JUMPDEST DUP1 PUSH1 0x1F ADD PUSH1 0x20 DUP1 SWAP2 DIV MUL PUSH1 0x20 ADD PUSH1 0x40 MLOAD SWAP1 DUP2 ADD PUSH1 0x40 MSTORE DUP1 SWAP3 SWAP2 SWAP1 DUP2 DUP2 MSTORE PUSH1 0x20 ADD DUP3 DUP1 SLOAD PUSH2 0x6F1 SWAP1 PUSH2 0x1C3F JUMP JUMPDEST DUP1 ISZERO PUSH2 0x73C JUMPI DUP1 PUSH1 0x1F LT PUSH2 0x713 JUMPI PUSH2 0x100 DUP1 DUP4 SLOAD DIV MUL DUP4 MSTORE SWAP2 PUSH1 0x20 ADD SWAP2 PUSH2 0x73C JUMP JUMPDEST DUP3 ADD SWAP2 SWAP1 PUSH0 MSTORE PUSH1 0x20 PUSH0 KECCAK256 SWAP1 JUMPDEST DUP2 SLOAD DUP2 MSTORE SWAP1 PUSH1 0x1 ADD SWAP1 PUSH1 0x20 ADD DUP1 DUP4 GT PUSH2 0x71F JUMPI DUP3 SWAP1 SUB PUSH1 0x1F AND DUP3 ADD SWAP2 JUMPDEST POP POP POP POP POP SWAP1 POP SWAP1 JUMP JUMPDEST PUSH0 DUP1 PUSH2 0x750 PUSH2 0x1139 JUMP JUMPDEST SWAP1 POP PUSH2 0x75D DUP2 DUP6 DUP6 PUSH2 0x1140 JUMP JUMPDEST PUSH1 0x1 SWAP2 POP POP SWAP3 SWAP2 POP POP JUMP JUMPDEST PUSH1 0xC SLOAD DUP2 JUMP JUMPDEST PUSH0 PUSH1 0x2 SLOAD SWAP1 POP SWAP1 JUMP JUMPDEST PUSH0 DUP1 PUSH2 0x781 PUSH2 0x1139 JUMP JUMPDEST SWAP1 POP PUSH2 0x78E DUP6 DUP3 DUP6 PUSH2 0x1303 JUMP JUMPDEST PUSH2 0x799 DUP6 DUP6 DUP6 PUSH2 0x138E JUMP JUMPDEST PUSH1 0x1 SWAP2 POP POP SWAP4 SWAP3 POP POP POP JUMP JUMPDEST PUSH1 0x60 PUSH3 0x186A0 DUP3 GT ISZERO PUSH2 0x7ED JUMPI PUSH1 0x40 MLOAD PUSH32 0x8C379A000000000000000000000000000000000000000000000000000000000 DUP2 MSTORE PUSH1 0x4 ADD PUSH2 0x7E4 SWAP1 PUSH2 0x1CDF JUMP JUMPDEST PUSH1 0x40 MLOAD DUP1 SWAP2 SUB SWAP1 REVERT JUMPDEST PUSH0 PUSH1 0x7 SLOAD GT PUSH2 0x831 JUMPI PUSH1 0x40 MLOAD PUSH32 0x8C379A000000000000000000000000000000000000000000000000000000000 DUP2 MSTORE PUSH1 0x4 ADD PUSH2 0x828 SWAP1 PUSH2 0x1D6D JUMP JUMPDEST PUSH1 0x40 MLOAD DUP1 SWAP2 SUB SWAP1 REVERT JUMPDEST PUSH0 JUMPDEST PUSH1 0x10 DUP1 SLOAD SWAP1 POP DUP2 LT ISZERO PUSH2 0x9BE JUMPI PUSH1 0x10 DUP2 DUP2 SLOAD DUP2 LT PUSH2 0x854 JUMPI PUSH2 0x853 PUSH2 0x1D8B JUMP JUMPDEST JUMPDEST SWAP1 PUSH0 MSTORE PUSH1 0x20 PUSH0 KECCAK256 ADD PUSH0 SWAP1 SLOAD SWAP1 PUSH2 0x100 EXP SWAP1 DIV PUSH20 0xFFFFFFFFFFFFFFFFFFFFFFFFFFFFFFFFFFFFFFFF AND PUSH20 0xFFFFFFFFFFFFFFFFFFFFFFFFFFFFFFFFFFFFFFFF AND CALLER PUSH20 0xFFFFFFFFFFFFFFFFFFFFFFFFFFFFFFFFFFFFFFFF AND SUB PUSH2 0x96D JUMPI PUSH2 0x8EA PUSH1 0xD PUSH0 SWAP1 SLOAD SWAP1 PUSH2 0x100 EXP SWAP1 DIV PUSH20 0xFFFFFFFFFFFFFFFFFFFFFFFFFFFFFFFFFFFFFFFF AND CALLER PUSH5 0xE8D4A51000 DUP7 PUSH2 0x8E5 SWAP2 SWAP1 PUSH2 0x1DE5 JUMP JUMPDEST PUSH2 0x138E JUMP JUMPDEST PUSH5 0xE8D4A51000 DUP4 PUSH2 0x8FB SWAP2 SWAP1 PUSH2 0x1DE5 JUMP JUMPDEST PUSH1 0x7 PUSH0 DUP3 DUP3 SLOAD PUSH2 0x90B SWAP2 SWAP1 PUSH2 0x1E26 JUMP JUMPDEST SWAP3 POP POP DUP2 SWAP1 SSTORE POP CALLER PUSH20 0xFFFFFFFFFFFFFFFFFFFFFFFFFFFFFFFFFFFFFFFF AND PUSH2 0x8FC PUSH7 0x2AA1EFB94E000 DUP6 PUSH2 0x93F SWAP2 SWAP1 PUSH2 0x1DE5 JUMP JUMPDEST SWAP1 DUP2 ISZERO MUL SWAP1 PUSH1 0x40 MLOAD PUSH0 PUSH1 0x40 MLOAD DUP1 DUP4 SUB DUP2 DUP6 DUP9 DUP9 CALL SWAP4 POP POP POP POP ISZERO DUP1 ISZERO PUSH2 0x967 JUMPI RETURNDATASIZE PUSH0 DUP1 RETURNDATACOPY RETURNDATASIZE PUSH0 REVERT JUMPDEST POP PUSH2 0x9AB JUMP JUMPDEST PUSH1 0x40 MLOAD DUP1 PUSH1 0x40 ADD PUSH1 0x40 MSTORE DUP1 PUSH1 0x1A DUP2 MSTORE PUSH1 0x20 ADD PUSH32 0xD092D0B0D18120D0BDD0B5D18220D0B22057686974654C697374000000000000 DUP2 MSTORE POP SWAP2 POP POP PUSH2 0x9DB JUMP JUMPDEST DUP1 DUP1 PUSH2 0x9B6 SWAP1 PUSH2 0x1E59 JUMP JUMPDEST SWAP2 POP POP PUSH2 0x833 JUMP JUMPDEST POP PUSH1 0x40 MLOAD DUP1 PUSH1 0x60 ADD PUSH1 0x40 MSTORE DUP1 PUSH1 0x32 DUP2 MSTORE PUSH1 0x20 ADD PUSH2 0x26CC PUSH1 0x32 SWAP2 CODECOPY SWAP1 POP JUMPDEST SWAP2 SWAP1 POP JUMP JUMPDEST PUSH1 0x8 SLOAD DUP2 JUMP JUMPDEST PUSH0 PUSH1 0x12 SWAP1 POP SWAP1 JUMP JUMPDEST PUSH1 0x5 SLOAD DUP2 JUMP JUMPDEST PUSH0 DUP1 PUSH2 0x9FE PUSH2 0x1139 JUMP JUMPDEST SWAP1 POP PUSH2 0xA1F DUP2 DUP6 DUP6 PUSH2 0xA10 DUP6 DUP10 PUSH2 0xDAB JUMP JUMPDEST PUSH2 0xA1A SWAP2 SWAP1 PUSH2 0x1EA0 JUMP JUMPDEST PUSH2 0x1140 JUMP JUMPDEST PUSH1 0x1 SWAP2 POP POP SWAP3 SWAP2 POP POP JUMP JUMPDEST PUSH1 0xE PUSH1 0x20 MSTORE DUP1 PUSH0 MSTORE PUSH1 0x40 PUSH0 KECCAK256 PUSH0 SWAP2 POP SLOAD SWAP1 PUSH2 0x100 EXP SWAP1 DIV PUSH1 0xFF AND DUP2 JUMP JUMPDEST PUSH1 0x10 DUP2 DUP2 SLOAD DUP2 LT PUSH2 0xA56 JUMPI PUSH0 DUP1 REVERT JUMPDEST SWAP1 PUSH0 MSTORE PUSH1 0x20 PUSH0 KECCAK256 ADD PUSH0 SWAP2 POP SLOAD SWAP1 PUSH2 0x100 EXP SWAP1 DIV PUSH20 0xFFFFFFFFFFFFFFFFFFFFFFFFFFFFFFFFFFFFFFFF AND DUP2 JUMP JUMPDEST PUSH1 0xB SLOAD DUP2 JUMP JUMPDEST PUSH0 DUP1 PUSH0 DUP4 PUSH20 0xFFFFFFFFFFFFFFFFFFFFFFFFFFFFFFFFFFFFFFFF AND PUSH20 0xFFFFFFFFFFFFFFFFFFFFFFFFFFFFFFFFFFFFFFFF AND DUP2 MSTORE PUSH1 0x20 ADD SWAP1 DUP2 MSTORE PUSH1 0x20 ADD PUSH0 KECCAK256 SLOAD SWAP1 POP SWAP2 SWAP1 POP JUMP JUMPDEST PUSH1 0xF DUP2 DUP2 SLOAD DUP2 LT PUSH2 0xADC JUMPI PUSH0 DUP1 REVERT JUMPDEST SWAP1 PUSH0 MSTORE PUSH1 0x20 PUSH0 KECCAK256 SWAP1 PUSH1 0x2 MUL ADD PUSH0 SWAP2 POP SWAP1 POP DUP1 PUSH0 ADD DUP1 SLOAD PUSH2 0xAFB SWAP1 PUSH2 0x1C3F JUMP JUMPDEST DUP1 PUSH1 0x1F ADD PUSH1 0x20 DUP1 SWAP2 DIV MUL PUSH1 0x20 ADD PUSH1 0x40 MLOAD SWAP1 DUP2 ADD PUSH1 0x40 MSTORE DUP1 SWAP3 SWAP2 SWAP1 DUP2 DUP2 MSTORE PUSH1 0x20 ADD DUP3 DUP1 SLOAD PUSH2 0xB27 SWAP1 PUSH2 0x1C3F JUMP JUMPDEST DUP1 ISZERO PUSH2 0xB72 JUMPI DUP1 PUSH1 0x1F LT PUSH2 0xB49 JUMPI PUSH2 0x100 DUP1 DUP4 SLOAD DIV MUL DUP4 MSTORE SWAP2 PUSH1 0x20 ADD SWAP2 PUSH2 0xB72 JUMP JUMPDEST DUP3 ADD SWAP2 SWAP1 PUSH0 MSTORE PUSH1 0x20 PUSH0 KECCAK256 SWAP1 JUMPDEST DUP2 SLOAD DUP2 MSTORE SWAP1 PUSH1 0x1 ADD SWAP1 PUSH1 0x20 ADD DUP1 DUP4 GT PUSH2 0xB55 JUMPI DUP3 SWAP1 SUB PUSH1 0x1F AND DUP3 ADD SWAP2 JUMPDEST POP POP POP POP POP SWAP1 DUP1 PUSH1 0x1 ADD PUSH0 SWAP1 SLOAD SWAP1 PUSH2 0x100 EXP SWAP1 DIV PUSH20 0xFFFFFFFFFFFFFFFFFFFFFFFFFFFFFFFFFFFFFFFF AND SWAP1 POP DUP3 JUMP JUMPDEST PUSH1 0xD PUSH0 SWAP1 SLOAD SWAP1 PUSH2 0x100 EXP SWAP1 DIV PUSH20 0xFFFFFFFFFFFFFFFFFFFFFFFFFFFFFFFFFFFFFFFF AND DUP2 JUMP JUMPDEST PUSH1 0x6 SLOAD DUP2 JUMP JUMPDEST PUSH1 0x60 PUSH1 0x4 DUP1 SLOAD PUSH2 0xBDB SWAP1 PUSH2 0x1C3F JUMP JUMPDEST DUP1 PUSH1 0x1F ADD PUSH1 0x20 DUP1 SWAP2 DIV MUL PUSH1 0x20 ADD PUSH1 0x40 MLOAD SWAP1 DUP2 ADD PUSH1 0x40 MSTORE DUP1 SWAP3 SWAP2 SWAP1 DUP2 DUP2 MSTORE PUSH1 0x20 ADD DUP3 DUP1 SLOAD PUSH2 0xC07 SWAP1 PUSH2 0x1C3F JUMP JUMPDEST DUP1 ISZERO PUSH2 0xC52 JUMPI DUP1 PUSH1 0x1F LT PUSH2 0xC29 JUMPI PUSH2 0x100 DUP1 DUP4 SLOAD DIV MUL DUP4 MSTORE SWAP2 PUSH1 0x20 ADD SWAP2 PUSH2 0xC52 JUMP JUMPDEST DUP3 ADD SWAP2 SWAP1 PUSH0 MSTORE PUSH1 0x20 PUSH0 KECCAK256 SWAP1 JUMPDEST DUP2 SLOAD DUP2 MSTORE SWAP1 PUSH1 0x1 ADD SWAP1 PUSH1 0x20 ADD DUP1 DUP4 GT PUSH2 0xC35 JUMPI DUP3 SWAP1 SUB PUSH1 0x1F AND DUP3 ADD SWAP2 JUMPDEST POP POP POP POP POP SWAP1 POP SWAP1 JUMP JUMPDEST PUSH0 DUP1 PUSH2 0xC66 PUSH2 0x1139 JUMP JUMPDEST SWAP1 POP PUSH0 PUSH2 0xC73 DUP3 DUP7 PUSH2 0xDAB JUMP JUMPDEST SWAP1 POP DUP4 DUP2 LT ISZERO PUSH2 0xCB8 JUMPI PUSH1 0x40 MLOAD PUSH32 0x8C379A000000000000000000000000000000000000000000000000000000000 DUP2 MSTORE PUSH1 0x4 ADD PUSH2 0xCAF SWAP1 PUSH2 0x1F43 JUMP JUMPDEST PUSH1 0x40 MLOAD DUP1 SWAP2 SUB SWAP1 REVERT JUMPDEST PUSH2 0xCC5 DUP3 DUP7 DUP7 DUP5 SUB PUSH2 0x1140 JUMP JUMPDEST PUSH1 0x1 SWAP3 POP POP POP SWAP3 SWAP2 POP POP JUMP JUMPDEST PUSH0 DUP1 PUSH2 0xCDB PUSH2 0x1139 JUMP JUMPDEST SWAP1 POP PUSH2 0xCE8 DUP2 DUP6 DUP6 PUSH2 0x138E JUMP JUMPDEST PUSH1 0x1 SWAP2 POP POP SWAP3 SWAP2 POP POP JUMP JUMPDEST PUSH1 0xA SLOAD DUP2 JUMP JUMPDEST PUSH1 0xF PUSH1 0x40 MLOAD DUP1 PUSH1 0x40 ADD PUSH1 0x40 MSTORE DUP1 DUP4 DUP2 MSTORE PUSH1 0x20 ADD CALLER PUSH20 0xFFFFFFFFFFFFFFFFFFFFFFFFFFFFFFFFFFFFFFFF AND DUP2 MSTORE POP SWAP1 DUP1 PUSH1 0x1 DUP2 SLOAD ADD DUP1 DUP3 SSTORE DUP1 SWAP2 POP POP PUSH1 0x1 SWAP1 SUB SWAP1 PUSH0 MSTORE PUSH1 0x20 PUSH0 KECCAK256 SWAP1 PUSH1 0x2 MUL ADD PUSH0 SWAP1 SWAP2 SWAP1 SWAP2 SWAP1 SWAP2 POP PUSH0 DUP3 ADD MLOAD DUP2 PUSH0 ADD SWAP1 DUP2 PUSH2 0xD5F SWAP2 SWAP1 PUSH2 0x20FE JUMP JUMPDEST POP PUSH1 0x20 DUP3 ADD MLOAD DUP2 PUSH1 0x1 ADD PUSH0 PUSH2 0x100 EXP DUP2 SLOAD DUP2 PUSH20 0xFFFFFFFFFFFFFFFFFFFFFFFFFFFFFFFFFFFFFFFF MUL NOT AND SWAP1 DUP4 PUSH20 0xFFFFFFFFFFFFFFFFFFFFFFFFFFFFFFFFFFFFFFFF AND MUL OR SWAP1 SSTORE POP POP POP POP JUMP JUMPDEST PUSH0 PUSH1 0x1 PUSH0 DUP5 PUSH20 0xFFFFFFFFFFFFFFFFFFFFFFFFFFFFFFFFFFFFFFFF AND PUSH20 0xFFFFFFFFFFFFFFFFFFFFFFFFFFFFFFFFFFFFFFFF AND DUP2 MSTORE PUSH1 0x20 ADD SWAP1 DUP2 MSTORE PUSH1 0x20 ADD PUSH0 KECCAK256 PUSH0 DUP4 PUSH20 0xFFFFFFFFFFFFFFFFFFFFFFFFFFFFFFFFFFFFFFFF AND PUSH20 0xFFFFFFFFFFFFFFFFFFFFFFFFFFFFFFFFFFFFFFFF AND DUP2 MSTORE PUSH1 0x20 ADD SWAP1 DUP2 MSTORE PUSH1 0x20 ADD PUSH0 KECCAK256 SLOAD SWAP1 POP SWAP3 SWAP2 POP POP JUMP JUMPDEST PUSH0 DUP1 PUSH1 0x1 DUP2 GT ISZERO PUSH2 0xE41 JUMPI PUSH2 0xE40 PUSH2 0x1917 JUMP JUMPDEST JUMPDEST PUSH1 0xE PUSH0 CALLER PUSH20 0xFFFFFFFFFFFFFFFFFFFFFFFFFFFFFFFFFFFFFFFF AND PUSH20 0xFFFFFFFFFFFFFFFFFFFFFFFFFFFFFFFFFFFFFFFF AND DUP2 MSTORE PUSH1 0x20 ADD SWAP1 DUP2 MSTORE PUSH1 0x20 ADD PUSH0 KECCAK256 PUSH0 SWAP1 SLOAD SWAP1 PUSH2 0x100 EXP SWAP1 DIV PUSH1 0xFF AND PUSH1 0x1 DUP2 GT ISZERO PUSH2 0xE9D JUMPI PUSH2 0xE9C PUSH2 0x1917 JUMP JUMPDEST JUMPDEST EQ PUSH2 0xEDD JUMPI PUSH1 0x40 MLOAD PUSH32 0x8C379A000000000000000000000000000000000000000000000000000000000 DUP2 MSTORE PUSH1 0x4 ADD PUSH2 0xED4 SWAP1 PUSH2 0x2263 JUMP JUMPDEST PUSH1 0x40 MLOAD DUP1 SWAP2 SUB SWAP1 REVERT JUMPDEST DUP2 ISZERO PUSH2 0xF8A JUMPI PUSH1 0x10 PUSH1 0xF DUP5 DUP2 SLOAD DUP2 LT PUSH2 0xEF9 JUMPI PUSH2 0xEF8 PUSH2 0x1D8B JUMP JUMPDEST JUMPDEST SWAP1 PUSH0 MSTORE PUSH1 0x20 PUSH0 KECCAK256 SWAP1 PUSH1 0x2 MUL ADD PUSH1 0x1 ADD PUSH0 SWAP1 SLOAD SWAP1 PUSH2 0x100 EXP SWAP1 DIV PUSH20 0xFFFFFFFFFFFFFFFFFFFFFFFFFFFFFFFFFFFFFFFF AND SWAP1 DUP1 PUSH1 0x1 DUP2 SLOAD ADD DUP1 DUP3 SSTORE DUP1 SWAP2 POP POP PUSH1 0x1 SWAP1 SUB SWAP1 PUSH0 MSTORE PUSH1 0x20 PUSH0 KECCAK256 ADD PUSH0 SWAP1 SWAP2 SWAP1 SWAP2 SWAP1 SWAP2 PUSH2 0x100 EXP DUP2 SLOAD DUP2 PUSH20 0xFFFFFFFFFFFFFFFFFFFFFFFFFFFFFFFFFFFFFFFF MUL NOT AND SWAP1 DUP4 PUSH20 0xFFFFFFFFFFFFFFFFFFFFFFFFFFFFFFFFFFFFFFFF AND MUL OR SWAP1 SSTORE POP PUSH2 0xFE2 JUMP JUMPDEST PUSH1 0xF DUP4 DUP2 SLOAD DUP2 LT PUSH2 0xF9E JUMPI PUSH2 0xF9D PUSH2 0x1D8B JUMP JUMPDEST JUMPDEST SWAP1 PUSH0 MSTORE PUSH1 0x20 PUSH0 KECCAK256 SWAP1 PUSH1 0x2 MUL ADD PUSH0 DUP1 DUP3 ADD PUSH0 PUSH2 0xFB9 SWAP2 SWAP1 PUSH2 0x1604 JUMP JUMPDEST PUSH1 0x1 DUP3 ADD PUSH0 PUSH2 0x100 EXP DUP2 SLOAD SWAP1 PUSH20 0xFFFFFFFFFFFFFFFFFFFFFFFFFFFFFFFFFFFFFFFF MUL NOT AND SWAP1 SSTORE POP POP JUMPDEST POP POP POP JUMP JUMPDEST PUSH1 0x7 SLOAD DUP2 JUMP JUMPDEST PUSH2 0x1388 DUP2 GT ISZERO PUSH2 0x1032 JUMPI PUSH1 0x40 MLOAD PUSH32 0x8C379A000000000000000000000000000000000000000000000000000000000 DUP2 MSTORE PUSH1 0x4 ADD PUSH2 0x1029 SWAP1 PUSH2 0x22F1 JUMP JUMPDEST PUSH1 0x40 MLOAD DUP1 SWAP2 SUB SWAP1 REVERT JUMPDEST PUSH0 PUSH1 0x8 SLOAD GT PUSH2 0x1076 JUMPI PUSH1 0x40 MLOAD PUSH32 0x8C379A000000000000000000000000000000000000000000000000000000000 DUP2 MSTORE PUSH1 0x4 ADD PUSH2 0x106D SWAP1 PUSH2 0x237F JUMP JUMPDEST PUSH1 0x40 MLOAD DUP1 SWAP2 SUB SWAP1 REVERT JUMPDEST PUSH2 0x10B2 PUSH1 0xD PUSH0 SWAP1 SLOAD SWAP1 PUSH2 0x100 EXP SWAP1 DIV PUSH20 0xFFFFFFFFFFFFFFFFFFFFFFFFFFFFFFFFFFFFFFFF AND CALLER PUSH5 0xE8D4A51000 DUP5 PUSH2 0x10AD SWAP2 SWAP1 PUSH2 0x1DE5 JUMP JUMPDEST PUSH2 0x138E JUMP JUMPDEST PUSH5 0xE8D4A51000 DUP2 PUSH2 0x10C3 SWAP2 SWAP1 PUSH2 0x1DE5 JUMP JUMPDEST PUSH1 0x8 PUSH0 DUP3 DUP3 SLOAD PUSH2 0x10D3 SWAP2 SWAP1 PUSH2 0x1E26 JUMP JUMPDEST SWAP3 POP POP DUP2 SWAP1 SSTORE POP CALLER PUSH20 0xFFFFFFFFFFFFFFFFFFFFFFFFFFFFFFFFFFFFFFFF AND PUSH2 0x8FC PUSH7 0x38D7EA4C68000 DUP4 PUSH2 0x1107 SWAP2 SWAP1 PUSH2 0x1DE5 JUMP JUMPDEST SWAP1 DUP2 ISZERO MUL SWAP1 PUSH1 0x40 MLOAD PUSH0 PUSH1 0x40 MLOAD DUP1 DUP4 SUB DUP2 DUP6 DUP9 DUP9 CALL SWAP4 POP POP POP POP ISZERO DUP1 ISZERO PUSH2 0x112F JUMPI RETURNDATASIZE PUSH0 DUP1 RETURNDATACOPY RETURNDATASIZE PUSH0 REVERT JUMPDEST POP POP JUMP JUMPDEST PUSH1 0x9 SLOAD DUP2 JUMP JUMPDEST PUSH0 CALLER SWAP1 POP SWAP1 JUMP JUMPDEST PUSH0 PUSH20 0xFFFFFFFFFFFFFFFFFFFFFFFFFFFFFFFFFFFFFFFF AND DUP4 PUSH20 0xFFFFFFFFFFFFFFFFFFFFFFFFFFFFFFFFFFFFFFFF AND SUB PUSH2 0x11AE JUMPI PUSH1 0x40 MLOAD PUSH32 0x8C379A000000000000000000000000000000000000000000000000000000000 DUP2 MSTORE PUSH1 0x4 ADD PUSH2 0x11A5 SWAP1 PUSH2 0x240D JUMP JUMPDEST PUSH1 0x40 MLOAD DUP1 SWAP2 SUB SWAP1 REVERT JUMPDEST PUSH0 PUSH20 0xFFFFFFFFFFFFFFFFFFFFFFFFFFFFFFFFFFFFFFFF AND DUP3 PUSH20 0xFFFFFFFFFFFFFFFFFFFFFFFFFFFFFFFFFFFFFFFF AND SUB PUSH2 0x121C JUMPI PUSH1 0x40 MLOAD PUSH32 0x8C379A000000000000000000000000000000000000000000000000000000000 DUP2 MSTORE PUSH1 0x4 ADD PUSH2 0x1213 SWAP1 PUSH2 0x249B JUMP JUMPDEST PUSH1 0x40 MLOAD DUP1 SWAP2 SUB SWAP1 REVERT JUMPDEST DUP1 PUSH1 0x1 PUSH0 DUP6 PUSH20 0xFFFFFFFFFFFFFFFFFFFFFFFFFFFFFFFFFFFFFFFF AND PUSH20 0xFFFFFFFFFFFFFFFFFFFFFFFFFFFFFFFFFFFFFFFF AND DUP2 MSTORE PUSH1 0x20 ADD SWAP1 DUP2 MSTORE PUSH1 0x20 ADD PUSH0 KECCAK256 PUSH0 DUP5 PUSH20 0xFFFFFFFFFFFFFFFFFFFFFFFFFFFFFFFFFFFFFFFF AND PUSH20 0xFFFFFFFFFFFFFFFFFFFFFFFFFFFFFFFFFFFFFFFF AND DUP2 MSTORE PUSH1 0x20 ADD SWAP1 DUP2 MSTORE PUSH1 0x20 ADD PUSH0 KECCAK256 DUP2 SWAP1 SSTORE POP DUP2 PUSH20 0xFFFFFFFFFFFFFFFFFFFFFFFFFFFFFFFFFFFFFFFF AND DUP4 PUSH20 0xFFFFFFFFFFFFFFFFFFFFFFFFFFFFFFFFFFFFFFFF AND PUSH32 0x8C5BE1E5EBEC7D5BD14F71427D1E84F3DD0314C0F7B2291E5B200AC8C7C3B925 DUP4 PUSH1 0x40 MLOAD PUSH2 0x12F6 SWAP2 SWAP1 PUSH2 0x1824 JUMP JUMPDEST PUSH1 0x40 MLOAD DUP1 SWAP2 SUB SWAP1 LOG3 POP POP POP JUMP JUMPDEST PUSH0 PUSH2 0x130E DUP5 DUP5 PUSH2 0xDAB JUMP JUMPDEST SWAP1 POP PUSH32 0xFFFFFFFFFFFFFFFFFFFFFFFFFFFFFFFFFFFFFFFFFFFFFFFFFFFFFFFFFFFFFFFF DUP2 EQ PUSH2 0x1388 JUMPI DUP2 DUP2 LT ISZERO PUSH2 0x137A JUMPI PUSH1 0x40 MLOAD PUSH32 0x8C379A000000000000000000000000000000000000000000000000000000000 DUP2 MSTORE PUSH1 0x4 ADD PUSH2 0x1371 SWAP1 PUSH2 0x2503 JUMP JUMPDEST PUSH1 0x40 MLOAD DUP1 SWAP2 SUB SWAP1 REVERT JUMPDEST PUSH2 0x1387 DUP5 DUP5 DUP5 DUP5 SUB PUSH2 0x1140 JUMP JUMPDEST JUMPDEST POP POP POP POP JUMP JUMPDEST PUSH0 PUSH20 0xFFFFFFFFFFFFFFFFFFFFFFFFFFFFFFFFFFFFFFFF AND DUP4 PUSH20 0xFFFFFFFFFFFFFFFFFFFFFFFFFFFFFFFFFFFFFFFF AND SUB PUSH2 0x13FC JUMPI PUSH1 0x40 MLOAD PUSH32 0x8C379A000000000000000000000000000000000000000000000000000000000 DUP2 MSTORE PUSH1 0x4 ADD PUSH2 0x13F3 SWAP1 PUSH2 0x2591 JUMP JUMPDEST PUSH1 0x40 MLOAD DUP1 SWAP2 SUB SWAP1 REVERT JUMPDEST PUSH0 PUSH20 0xFFFFFFFFFFFFFFFFFFFFFFFFFFFFFFFFFFFFFFFF AND DUP3 PUSH20 0xFFFFFFFFFFFFFFFFFFFFFFFFFFFFFFFFFFFFFFFF AND SUB PUSH2 0x146A JUMPI PUSH1 0x40 MLOAD PUSH32 0x8C379A000000000000000000000000000000000000000000000000000000000 DUP2 MSTORE PUSH1 0x4 ADD PUSH2 0x1461 SWAP1 PUSH2 0x261F JUMP JUMPDEST PUSH1 0x40 MLOAD DUP1 SWAP2 SUB SWAP1 REVERT JUMPDEST PUSH2 0x1475 DUP4 DUP4 DUP4 PUSH2 0x15FA JUMP JUMPDEST PUSH0 DUP1 PUSH0 DUP6 PUSH20 0xFFFFFFFFFFFFFFFFFFFFFFFFFFFFFFFFFFFFFFFF AND PUSH20 0xFFFFFFFFFFFFFFFFFFFFFFFFFFFFFFFFFFFFFFFF AND DUP2 MSTORE PUSH1 0x20 ADD SWAP1 DUP2 MSTORE PUSH1 0x20 ADD PUSH0 KECCAK256 SLOAD SWAP1 POP DUP2 DUP2 LT ISZERO PUSH2 0x14F8 JUMPI PUSH1 0x40 MLOAD PUSH32 0x8C379A000000000000000000000000000000000000000000000000000000000 DUP2 MSTORE PUSH1 0x4 ADD PUSH2 0x14EF SWAP1 PUSH2 0x26AD JUMP JUMPDEST PUSH1 0x40 MLOAD DUP1 SWAP2 SUB SWAP1 REVERT JUMPDEST DUP2 DUP2 SUB PUSH0 DUP1 DUP7 PUSH20 0xFFFFFFFFFFFFFFFFFFFFFFFFFFFFFFFFFFFFFFFF AND PUSH20 0xFFFFFFFFFFFFFFFFFFFFFFFFFFFFFFFFFFFFFFFF AND DUP2 MSTORE PUSH1 0x20 ADD SWAP1 DUP2 MSTORE PUSH1 0x20 ADD PUSH0 KECCAK256 DUP2 SWAP1 SSTORE POP DUP2 PUSH0 DUP1 DUP6 PUSH20 0xFFFFFFFFFFFFFFFFFFFFFFFFFFFFFFFFFFFFFFFF AND PUSH20 0xFFFFFFFFFFFFFFFFFFFFFFFFFFFFFFFFFFFFFFFF AND DUP2 MSTORE PUSH1 0x20 ADD SWAP1 DUP2 MSTORE PUSH1 0x20 ADD PUSH0 KECCAK256 PUSH0 DUP3 DUP3 SLOAD ADD SWAP3 POP POP DUP2 SWAP1 SSTORE POP DUP3 PUSH20 0xFFFFFFFFFFFFFFFFFFFFFFFFFFFFFFFFFFFFFFFF AND DUP5 PUSH20 0xFFFFFFFFFFFFFFFFFFFFFFFFFFFFFFFFFFFFFFFF AND PUSH32 0xDDF252AD1BE2C89B69C2B068FC378DAA952BA7F163C4A11628F55A4DF523B3EF DUP5 PUSH1 0x40 MLOAD PUSH2 0x15E1 SWAP2 SWAP1 PUSH2 0x1824 JUMP JUMPDEST PUSH1 0x40 MLOAD DUP1 SWAP2 SUB SWAP1 LOG3 PUSH2 0x15F4 DUP5 DUP5 DUP5 PUSH2 0x15FF JUMP JUMPDEST POP POP POP POP JUMP JUMPDEST POP POP POP JUMP JUMPDEST POP POP POP JUMP JUMPDEST POP DUP1 SLOAD PUSH2 0x1610 SWAP1 PUSH2 0x1C3F JUMP JUMPDEST PUSH0 DUP3 SSTORE DUP1 PUSH1 0x1F LT PUSH2 0x1621 JUMPI POP PUSH2 0x163E JUMP JUMPDEST PUSH1 0x1F ADD PUSH1 0x20 SWAP1 DIV SWAP1 PUSH0 MSTORE PUSH1 0x20 PUSH0 KECCAK256 SWAP1 DUP2 ADD SWAP1 PUSH2 0x163D SWAP2 SWAP1 PUSH2 0x1641 JUMP JUMPDEST JUMPDEST POP JUMP JUMPDEST JUMPDEST DUP1 DUP3 GT ISZERO PUSH2 0x1658 JUMPI PUSH0 DUP2 PUSH0 SWAP1 SSTORE POP PUSH1 0x1 ADD PUSH2 0x1642 JUMP JUMPDEST POP SWAP1 JUMP JUMPDEST PUSH0 DUP2 MLOAD SWAP1 POP SWAP2 SWAP1 POP JUMP JUMPDEST PUSH0 DUP3 DUP3 MSTORE PUSH1 0x20 DUP3 ADD SWAP1 POP SWAP3 SWAP2 POP POP JUMP JUMPDEST PUSH0 JUMPDEST DUP4 DUP2 LT ISZERO PUSH2 0x1693 JUMPI DUP1 DUP3 ADD MLOAD DUP2 DUP5 ADD MSTORE PUSH1 0x20 DUP2 ADD SWAP1 POP PUSH2 0x1678 JUMP JUMPDEST PUSH0 DUP5 DUP5 ADD MSTORE POP POP POP POP JUMP JUMPDEST PUSH0 PUSH1 0x1F NOT PUSH1 0x1F DUP4 ADD AND SWAP1 POP SWAP2 SWAP1 POP JUMP JUMPDEST PUSH0 PUSH2 0x16B8 DUP3 PUSH2 0x165C JUMP JUMPDEST PUSH2 0x16C2 DUP2 DUP6 PUSH2 0x1666 JUMP JUMPDEST SWAP4 POP PUSH2 0x16D2 DUP2 DUP6 PUSH1 0x20 DUP7 ADD PUSH2 0x1676 JUMP JUMPDEST PUSH2 0x16DB DUP2 PUSH2 0x169E JUMP JUMPDEST DUP5 ADD SWAP2 POP POP SWAP3 SWAP2 POP POP JUMP JUMPDEST PUSH0 PUSH1 0x20 DUP3 ADD SWAP1 POP DUP2 DUP2 SUB PUSH0 DUP4 ADD MSTORE PUSH2 0x16FE DUP2 DUP5 PUSH2 0x16AE JUMP JUMPDEST SWAP1 POP SWAP3 SWAP2 POP POP JUMP JUMPDEST PUSH0 PUSH1 0x40 MLOAD SWAP1 POP SWAP1 JUMP JUMPDEST PUSH0 DUP1 REVERT JUMPDEST PUSH0 DUP1 REVERT JUMPDEST PUSH0 PUSH20 0xFFFFFFFFFFFFFFFFFFFFFFFFFFFFFFFFFFFFFFFF DUP3 AND SWAP1 POP SWAP2 SWAP1 POP JUMP JUMPDEST PUSH0 PUSH2 0x1740 DUP3 PUSH2 0x1717 JUMP JUMPDEST SWAP1 POP SWAP2 SWAP1 POP JUMP JUMPDEST PUSH2 0x1750 DUP2 PUSH2 0x1736 JUMP JUMPDEST DUP2 EQ PUSH2 0x175A JUMPI PUSH0 DUP1 REVERT JUMPDEST POP JUMP JUMPDEST PUSH0 DUP2 CALLDATALOAD SWAP1 POP PUSH2 0x176B DUP2 PUSH2 0x1747 JUMP JUMPDEST SWAP3 SWAP2 POP POP JUMP JUMPDEST PUSH0 DUP2 SWAP1 POP SWAP2 SWAP1 POP JUMP JUMPDEST PUSH2 0x1783 DUP2 PUSH2 0x1771 JUMP JUMPDEST DUP2 EQ PUSH2 0x178D JUMPI PUSH0 DUP1 REVERT JUMPDEST POP JUMP JUMPDEST PUSH0 DUP2 CALLDATALOAD SWAP1 POP PUSH2 0x179E DUP2 PUSH2 0x177A JUMP JUMPDEST SWAP3 SWAP2 POP POP JUMP JUMPDEST PUSH0 DUP1 PUSH1 0x40 DUP4 DUP6 SUB SLT ISZERO PUSH2 0x17BA JUMPI PUSH2 0x17B9 PUSH2 0x170F JUMP JUMPDEST JUMPDEST PUSH0 PUSH2 0x17C7 DUP6 DUP3 DUP7 ADD PUSH2 0x175D JUMP JUMPDEST SWAP3 POP POP PUSH1 0x20 PUSH2 0x17D8 DUP6 DUP3 DUP7 ADD PUSH2 0x1790 JUMP JUMPDEST SWAP2 POP POP SWAP3 POP SWAP3 SWAP1 POP JUMP JUMPDEST PUSH0 DUP2 ISZERO ISZERO SWAP1 POP SWAP2 SWAP1 POP JUMP JUMPDEST PUSH2 0x17F6 DUP2 PUSH2 0x17E2 JUMP JUMPDEST DUP3 MSTORE POP POP JUMP JUMPDEST PUSH0 PUSH1 0x20 DUP3 ADD SWAP1 POP PUSH2 0x180F PUSH0 DUP4 ADD DUP5 PUSH2 0x17ED JUMP JUMPDEST SWAP3 SWAP2 POP POP JUMP JUMPDEST PUSH2 0x181E DUP2 PUSH2 0x1771 JUMP JUMPDEST DUP3 MSTORE POP POP JUMP JUMPDEST PUSH0 PUSH1 0x20 DUP3 ADD SWAP1 POP PUSH2 0x1837 PUSH0 DUP4 ADD DUP5 PUSH2 0x1815 JUMP JUMPDEST SWAP3 SWAP2 POP POP JUMP JUMPDEST PUSH0 DUP1 PUSH0 PUSH1 0x60 DUP5 DUP7 SUB SLT ISZERO PUSH2 0x1854 JUMPI PUSH2 0x1853 PUSH2 0x170F JUMP JUMPDEST JUMPDEST PUSH0 PUSH2 0x1861 DUP7 DUP3 DUP8 ADD PUSH2 0x175D JUMP JUMPDEST SWAP4 POP POP PUSH1 0x20 PUSH2 0x1872 DUP7 DUP3 DUP8 ADD PUSH2 0x175D JUMP JUMPDEST SWAP3 POP POP PUSH1 0x40 PUSH2 0x1883 DUP7 DUP3 DUP8 ADD PUSH2 0x1790 JUMP JUMPDEST SWAP2 POP POP SWAP3 POP SWAP3 POP SWAP3 JUMP JUMPDEST PUSH0 PUSH1 0x20 DUP3 DUP5 SUB SLT ISZERO PUSH2 0x18A2 JUMPI PUSH2 0x18A1 PUSH2 0x170F JUMP JUMPDEST JUMPDEST PUSH0 PUSH2 0x18AF DUP5 DUP3 DUP6 ADD PUSH2 0x1790 JUMP JUMPDEST SWAP2 POP POP SWAP3 SWAP2 POP POP JUMP JUMPDEST PUSH0 PUSH1 0xFF DUP3 AND SWAP1 POP SWAP2 SWAP1 POP JUMP JUMPDEST PUSH2 0x18CD DUP2 PUSH2 0x18B8 JUMP JUMPDEST DUP3 MSTORE POP POP JUMP JUMPDEST PUSH0 PUSH1 0x20 DUP3 ADD SWAP1 POP PUSH2 0x18E6 PUSH0 DUP4 ADD DUP5 PUSH2 0x18C4 JUMP JUMPDEST SWAP3 SWAP2 POP POP JUMP JUMPDEST PUSH0 PUSH1 0x20 DUP3 DUP5 SUB SLT ISZERO PUSH2 0x1901 JUMPI PUSH2 0x1900 PUSH2 0x170F JUMP JUMPDEST JUMPDEST PUSH0 PUSH2 0x190E DUP5 DUP3 DUP6 ADD PUSH2 0x175D JUMP JUMPDEST SWAP2 POP POP SWAP3 SWAP2 POP POP JUMP JUMPDEST PUSH32 0x4E487B7100000000000000000000000000000000000000000000000000000000 PUSH0 MSTORE PUSH1 0x21 PUSH1 0x4 MSTORE PUSH1 0x24 PUSH0 REVERT JUMPDEST PUSH1 0x2 DUP2 LT PUSH2 0x1955 JUMPI PUSH2 0x1954 PUSH2 0x1917 JUMP JUMPDEST JUMPDEST POP JUMP JUMPDEST PUSH0 DUP2 SWAP1 POP PUSH2 0x1965 DUP3 PUSH2 0x1944 JUMP JUMPDEST SWAP2 SWAP1 POP JUMP JUMPDEST PUSH0 PUSH2 0x1974 DUP3 PUSH2 0x1958 JUMP JUMPDEST SWAP1 POP SWAP2 SWAP1 POP JUMP JUMPDEST PUSH2 0x1984 DUP2 PUSH2 0x196A JUMP JUMPDEST DUP3 MSTORE POP POP JUMP JUMPDEST PUSH0 PUSH1 0x20 DUP3 ADD SWAP1 POP PUSH2 0x199D PUSH0 DUP4 ADD DUP5 PUSH2 0x197B JUMP JUMPDEST SWAP3 SWAP2 POP POP JUMP JUMPDEST PUSH2 0x19AC DUP2 PUSH2 0x1736 JUMP JUMPDEST DUP3 MSTORE POP POP JUMP JUMPDEST PUSH0 PUSH1 0x20 DUP3 ADD SWAP1 POP PUSH2 0x19C5 PUSH0 DUP4 ADD DUP5 PUSH2 0x19A3 JUMP JUMPDEST SWAP3 SWAP2 POP POP JUMP JUMPDEST PUSH0 PUSH1 0x40 DUP3 ADD SWAP1 POP DUP2 DUP2 SUB PUSH0 DUP4 ADD MSTORE PUSH2 0x19E3 DUP2 DUP6 PUSH2 0x16AE JUMP JUMPDEST SWAP1 POP PUSH2 0x19F2 PUSH1 0x20 DUP4 ADD DUP5 PUSH2 0x19A3 JUMP JUMPDEST SWAP4 SWAP3 POP POP POP JUMP JUMPDEST PUSH0 DUP1 REVERT JUMPDEST PUSH0 DUP1 REVERT JUMPDEST PUSH32 0x4E487B7100000000000000000000000000000000000000000000000000000000 PUSH0 MSTORE PUSH1 0x41 PUSH1 0x4 MSTORE PUSH1 0x24 PUSH0 REVERT JUMPDEST PUSH2 0x1A37 DUP3 PUSH2 0x169E JUMP JUMPDEST DUP2 ADD DUP2 DUP2 LT PUSH8 0xFFFFFFFFFFFFFFFF DUP3 GT OR ISZERO PUSH2 0x1A56 JUMPI PUSH2 0x1A55 PUSH2 0x1A01 JUMP JUMPDEST JUMPDEST DUP1 PUSH1 0x40 MSTORE POP POP POP JUMP JUMPDEST PUSH0 PUSH2 0x1A68 PUSH2 0x1706 JUMP JUMPDEST SWAP1 POP PUSH2 0x1A74 DUP3 DUP3 PUSH2 0x1A2E JUMP JUMPDEST SWAP2 SWAP1 POP JUMP JUMPDEST PUSH0 PUSH8 0xFFFFFFFFFFFFFFFF DUP3 GT ISZERO PUSH2 0x1A93 JUMPI PUSH2 0x1A92 PUSH2 0x1A01 JUMP JUMPDEST JUMPDEST PUSH2 0x1A9C DUP3 PUSH2 0x169E JUMP JUMPDEST SWAP1 POP PUSH1 0x20 DUP2 ADD SWAP1 POP SWAP2 SWAP1 POP JUMP JUMPDEST DUP3 DUP2 DUP4 CALLDATACOPY PUSH0 DUP4 DUP4 ADD MSTORE POP POP POP JUMP JUMPDEST PUSH0 PUSH2 0x1AC9 PUSH2 0x1AC4 DUP5 PUSH2 0x1A79 JUMP JUMPDEST PUSH2 0x1A5F JUMP JUMPDEST SWAP1 POP DUP3 DUP2 MSTORE PUSH1 0x20 DUP2 ADD DUP5 DUP5 DUP5 ADD GT ISZERO PUSH2 0x1AE5 JUMPI PUSH2 0x1AE4 PUSH2 0x19FD JUMP JUMPDEST JUMPDEST PUSH2 0x1AF0 DUP5 DUP3 DUP6 PUSH2 0x1AA9 JUMP JUMPDEST POP SWAP4 SWAP3 POP POP POP JUMP JUMPDEST PUSH0 DUP3 PUSH1 0x1F DUP4 ADD SLT PUSH2 0x1B0C JUMPI PUSH2 0x1B0B PUSH2 0x19F9 JUMP JUMPDEST JUMPDEST DUP2 CALLDATALOAD PUSH2 0x1B1C DUP5 DUP3 PUSH1 0x20 DUP7 ADD PUSH2 0x1AB7 JUMP JUMPDEST SWAP2 POP POP SWAP3 SWAP2 POP POP JUMP JUMPDEST PUSH0 PUSH1 0x20 DUP3 DUP5 SUB SLT ISZERO PUSH2 0x1B3A JUMPI PUSH2 0x1B39 PUSH2 0x170F JUMP JUMPDEST JUMPDEST PUSH0 DUP3 ADD CALLDATALOAD PUSH8 0xFFFFFFFFFFFFFFFF DUP2 GT ISZERO PUSH2 0x1B57 JUMPI PUSH2 0x1B56 PUSH2 0x1713 JUMP JUMPDEST JUMPDEST PUSH2 0x1B63 DUP5 DUP3 DUP6 ADD PUSH2 0x1AF8 JUMP JUMPDEST SWAP2 POP POP SWAP3 SWAP2 POP POP JUMP JUMPDEST PUSH0 DUP1 PUSH1 0x40 DUP4 DUP6 SUB SLT ISZERO PUSH2 0x1B82 JUMPI PUSH2 0x1B81 PUSH2 0x170F JUMP JUMPDEST JUMPDEST PUSH0 PUSH2 0x1B8F DUP6 DUP3 DUP7 ADD PUSH2 0x175D JUMP JUMPDEST SWAP3 POP POP PUSH1 0x20 PUSH2 0x1BA0 DUP6 DUP3 DUP7 ADD PUSH2 0x175D JUMP JUMPDEST SWAP2 POP POP SWAP3 POP SWAP3 SWAP1 POP JUMP JUMPDEST PUSH2 0x1BB3 DUP2 PUSH2 0x17E2 JUMP JUMPDEST DUP2 EQ PUSH2 0x1BBD JUMPI PUSH0 DUP1 REVERT JUMPDEST POP JUMP JUMPDEST PUSH0 DUP2 CALLDATALOAD SWAP1 POP PUSH2 0x1BCE DUP2 PUSH2 0x1BAA JUMP JUMPDEST SWAP3 SWAP2 POP POP JUMP JUMPDEST PUSH0 DUP1 PUSH1 0x40 DUP4 DUP6 SUB SLT ISZERO PUSH2 0x1BEA JUMPI PUSH2 0x1BE9 PUSH2 0x170F JUMP JUMPDEST JUMPDEST PUSH0 PUSH2 0x1BF7 DUP6 DUP3 DUP7 ADD PUSH2 0x1790 JUMP JUMPDEST SWAP3 POP POP PUSH1 0x20 PUSH2 0x1C08 DUP6 DUP3 DUP7 ADD PUSH2 0x1BC0 JUMP JUMPDEST SWAP2 POP POP SWAP3 POP SWAP3 SWAP1 POP JUMP JUMPDEST PUSH32 0x4E487B7100000000000000000000000000000000000000000000000000000000 PUSH0 MSTORE PUSH1 0x22 PUSH1 0x4 MSTORE PUSH1 0x24 PUSH0 REVERT JUMPDEST PUSH0 PUSH1 0x2 DUP3 DIV SWAP1 POP PUSH1 0x1 DUP3 AND DUP1 PUSH2 0x1C56 JUMPI PUSH1 0x7F DUP3 AND SWAP2 POP JUMPDEST PUSH1 0x20 DUP3 LT DUP2 SUB PUSH2 0x1C69 JUMPI PUSH2 0x1C68 PUSH2 0x1C12 JUMP JUMPDEST JUMPDEST POP SWAP2 SWAP1 POP JUMP JUMPDEST PUSH32 0xD091D0BED0BBD18CD188D0B52031303030303020D0BDD0B5D0BBD18CD0B7D18F PUSH0 DUP3 ADD MSTORE PUSH32 0x20D0BAD183D0BFD0B8D182D18C00000000000000000000000000000000000000 PUSH1 0x20 DUP3 ADD MSTORE POP JUMP JUMPDEST PUSH0 PUSH2 0x1CC9 PUSH1 0x2D DUP4 PUSH2 0x1666 JUMP JUMPDEST SWAP2 POP PUSH2 0x1CD4 DUP3 PUSH2 0x1C6F JUMP JUMPDEST PUSH1 0x40 DUP3 ADD SWAP1 POP SWAP2 SWAP1 POP JUMP JUMPDEST PUSH0 PUSH1 0x20 DUP3 ADD SWAP1 POP DUP2 DUP2 SUB PUSH0 DUP4 ADD MSTORE PUSH2 0x1CF6 DUP2 PUSH2 0x1CBD JUMP JUMPDEST SWAP1 POP SWAP2 SWAP1 POP JUMP JUMPDEST PUSH32 0x5072697661746520D0BAD0BED0B8D0BDD18B20D0B7D0B0D0BAD0BED0BDD187D0 PUSH0 DUP3 ADD MSTORE PUSH32 0xB8D0BBD0B8D181D18C0000000000000000000000000000000000000000000000 PUSH1 0x20 DUP3 ADD MSTORE POP JUMP JUMPDEST PUSH0 PUSH2 0x1D57 PUSH1 0x29 DUP4 PUSH2 0x1666 JUMP JUMPDEST SWAP2 POP PUSH2 0x1D62 DUP3 PUSH2 0x1CFD JUMP JUMPDEST PUSH1 0x40 DUP3 ADD SWAP1 POP SWAP2 SWAP1 POP JUMP JUMPDEST PUSH0 PUSH1 0x20 DUP3 ADD SWAP1 POP DUP2 DUP2 SUB PUSH0 DUP4 ADD MSTORE PUSH2 0x1D84 DUP2 PUSH2 0x1D4B JUMP JUMPDEST SWAP1 POP SWAP2 SWAP1 POP JUMP JUMPDEST PUSH32 0x4E487B7100000000000000000000000000000000000000000000000000000000 PUSH0 MSTORE PUSH1 0x32 PUSH1 0x4 MSTORE PUSH1 0x24 PUSH0 REVERT JUMPDEST PUSH32 0x4E487B7100000000000000000000000000000000000000000000000000000000 PUSH0 MSTORE PUSH1 0x11 PUSH1 0x4 MSTORE PUSH1 0x24 PUSH0 REVERT JUMPDEST PUSH0 PUSH2 0x1DEF DUP3 PUSH2 0x1771 JUMP JUMPDEST SWAP2 POP PUSH2 0x1DFA DUP4 PUSH2 0x1771 JUMP JUMPDEST SWAP3 POP DUP3 DUP3 MUL PUSH2 0x1E08 DUP2 PUSH2 0x1771 JUMP JUMPDEST SWAP2 POP DUP3 DUP3 DIV DUP5 EQ DUP4 ISZERO OR PUSH2 0x1E1F JUMPI PUSH2 0x1E1E PUSH2 0x1DB8 JUMP JUMPDEST JUMPDEST POP SWAP3 SWAP2 POP POP JUMP JUMPDEST PUSH0 PUSH2 0x1E30 DUP3 PUSH2 0x1771 JUMP JUMPDEST SWAP2 POP PUSH2 0x1E3B DUP4 PUSH2 0x1771 JUMP JUMPDEST SWAP3 POP DUP3 DUP3 SUB SWAP1 POP DUP2 DUP2 GT ISZERO PUSH2 0x1E53 JUMPI PUSH2 0x1E52 PUSH2 0x1DB8 JUMP JUMPDEST JUMPDEST SWAP3 SWAP2 POP POP JUMP JUMPDEST PUSH0 PUSH2 0x1E63 DUP3 PUSH2 0x1771 JUMP JUMPDEST SWAP2 POP PUSH32 0xFFFFFFFFFFFFFFFFFFFFFFFFFFFFFFFFFFFFFFFFFFFFFFFFFFFFFFFFFFFFFFFF DUP3 SUB PUSH2 0x1E95 JUMPI PUSH2 0x1E94 PUSH2 0x1DB8 JUMP JUMPDEST JUMPDEST PUSH1 0x1 DUP3 ADD SWAP1 POP SWAP2 SWAP1 POP JUMP JUMPDEST PUSH0 PUSH2 0x1EAA DUP3 PUSH2 0x1771 JUMP JUMPDEST SWAP2 POP PUSH2 0x1EB5 DUP4 PUSH2 0x1771 JUMP JUMPDEST SWAP3 POP DUP3 DUP3 ADD SWAP1 POP DUP1 DUP3 GT ISZERO PUSH2 0x1ECD JUMPI PUSH2 0x1ECC PUSH2 0x1DB8 JUMP JUMPDEST JUMPDEST SWAP3 SWAP2 POP POP JUMP JUMPDEST PUSH32 0x45524332303A2064656372656173656420616C6C6F77616E63652062656C6F77 PUSH0 DUP3 ADD MSTORE PUSH32 0x207A65726F000000000000000000000000000000000000000000000000000000 PUSH1 0x20 DUP3 ADD MSTORE POP JUMP JUMPDEST PUSH0 PUSH2 0x1F2D PUSH1 0x25 DUP4 PUSH2 0x1666 JUMP JUMPDEST SWAP2 POP PUSH2 0x1F38 DUP3 PUSH2 0x1ED3 JUMP JUMPDEST PUSH1 0x40 DUP3 ADD SWAP1 POP SWAP2 SWAP1 POP JUMP JUMPDEST PUSH0 PUSH1 0x20 DUP3 ADD SWAP1 POP DUP2 DUP2 SUB PUSH0 DUP4 ADD MSTORE PUSH2 0x1F5A DUP2 PUSH2 0x1F21 JUMP JUMPDEST SWAP1 POP SWAP2 SWAP1 POP JUMP JUMPDEST PUSH0 DUP2 SWAP1 POP DUP2 PUSH0 MSTORE PUSH1 0x20 PUSH0 KECCAK256 SWAP1 POP SWAP2 SWAP1 POP JUMP JUMPDEST PUSH0 PUSH1 0x20 PUSH1 0x1F DUP4 ADD DIV SWAP1 POP SWAP2 SWAP1 POP JUMP JUMPDEST PUSH0 DUP3 DUP3 SHL SWAP1 POP SWAP3 SWAP2 POP POP JUMP JUMPDEST PUSH0 PUSH1 0x8 DUP4 MUL PUSH2 0x1FBD PUSH32 0xFFFFFFFFFFFFFFFFFFFFFFFFFFFFFFFFFFFFFFFFFFFFFFFFFFFFFFFFFFFFFFFF DUP3 PUSH2 0x1F82 JUMP JUMPDEST PUSH2 0x1FC7 DUP7 DUP4 PUSH2 0x1F82 JUMP JUMPDEST SWAP6 POP DUP1 NOT DUP5 AND SWAP4 POP DUP1 DUP7 AND DUP5 OR SWAP3 POP POP POP SWAP4 SWAP3 POP POP POP JUMP JUMPDEST PUSH0 DUP2 SWAP1 POP SWAP2 SWAP1 POP JUMP JUMPDEST PUSH0 PUSH2 0x2002 PUSH2 0x1FFD PUSH2 0x1FF8 DUP5 PUSH2 0x1771 JUMP JUMPDEST PUSH2 0x1FDF JUMP JUMPDEST PUSH2 0x1771 JUMP JUMPDEST SWAP1 POP SWAP2 SWAP1 POP JUMP JUMPDEST PUSH0 DUP2 SWAP1 POP SWAP2 SWAP1 POP JUMP JUMPDEST PUSH2 0x201B DUP4 PUSH2 0x1FE8 JUMP JUMPDEST PUSH2 0x202F PUSH2 0x2027 DUP3 PUSH2 0x2009 JUMP JUMPDEST DUP5 DUP5 SLOAD PUSH2 0x1F8E JUMP JUMPDEST DUP3 SSTORE POP POP POP POP JUMP JUMPDEST PUSH0 SWAP1 JUMP JUMPDEST PUSH2 0x2043 PUSH2 0x2037 JUMP JUMPDEST PUSH2 0x204E DUP2 DUP5 DUP5 PUSH2 0x2012 JUMP JUMPDEST POP POP POP JUMP JUMPDEST JUMPDEST DUP2 DUP2 LT ISZERO PUSH2 0x2071 JUMPI PUSH2 0x2066 PUSH0 DUP3 PUSH2 0x203B JUMP JUMPDEST PUSH1 0x1 DUP2 ADD SWAP1 POP PUSH2 0x2054 JUMP JUMPDEST POP POP JUMP JUMPDEST PUSH1 0x1F DUP3 GT ISZERO PUSH2 0x20B6 JUMPI PUSH2 0x2087 DUP2 PUSH2 0x1F61 JUMP JUMPDEST PUSH2 0x2090 DUP5 PUSH2 0x1F73 JUMP JUMPDEST DUP2 ADD PUSH1 0x20 DUP6 LT ISZERO PUSH2 0x209F JUMPI DUP2 SWAP1 POP JUMPDEST PUSH2 0x20B3 PUSH2 0x20AB DUP6 PUSH2 0x1F73 JUMP JUMPDEST DUP4 ADD DUP3 PUSH2 0x2053 JUMP JUMPDEST POP POP JUMPDEST POP POP POP JUMP JUMPDEST PUSH0 DUP3 DUP3 SHR SWAP1 POP SWAP3 SWAP2 POP POP JUMP JUMPDEST PUSH0 PUSH2 0x20D6 PUSH0 NOT DUP5 PUSH1 0x8 MUL PUSH2 0x20BB JUMP JUMPDEST NOT DUP1 DUP4 AND SWAP2 POP POP SWAP3 SWAP2 POP POP JUMP JUMPDEST PUSH0 PUSH2 0x20EE DUP4 DUP4 PUSH2 0x20C7 JUMP JUMPDEST SWAP2 POP DUP3 PUSH1 0x2 MUL DUP3 OR SWAP1 POP SWAP3 SWAP2 POP POP JUMP JUMPDEST PUSH2 0x2107 DUP3 PUSH2 0x165C JUMP JUMPDEST PUSH8 0xFFFFFFFFFFFFFFFF DUP2 GT ISZERO PUSH2 0x2120 JUMPI PUSH2 0x211F PUSH2 0x1A01 JUMP JUMPDEST JUMPDEST PUSH2 0x212A DUP3 SLOAD PUSH2 0x1C3F JUMP JUMPDEST PUSH2 0x2135 DUP3 DUP3 DUP6 PUSH2 0x2075 JUMP JUMPDEST PUSH0 PUSH1 0x20 SWAP1 POP PUSH1 0x1F DUP4 GT PUSH1 0x1 DUP2 EQ PUSH2 0x2166 JUMPI PUSH0 DUP5 ISZERO PUSH2 0x2154 JUMPI DUP3 DUP8 ADD MLOAD SWAP1 POP JUMPDEST PUSH2 0x215E DUP6 DUP3 PUSH2 0x20E3 JUMP JUMPDEST DUP7 SSTORE POP PUSH2 0x21C5 JUMP JUMPDEST PUSH1 0x1F NOT DUP5 AND PUSH2 0x2174 DUP7 PUSH2 0x1F61 JUMP JUMPDEST PUSH0 JUMPDEST DUP3 DUP2 LT ISZERO PUSH2 0x219B JUMPI DUP5 DUP10 ADD MLOAD DUP3 SSTORE PUSH1 0x1 DUP3 ADD SWAP2 POP PUSH1 0x20 DUP6 ADD SWAP5 POP PUSH1 0x20 DUP2 ADD SWAP1 POP PUSH2 0x2176 JUMP JUMPDEST DUP7 DUP4 LT ISZERO PUSH2 0x21B8 JUMPI DUP5 DUP10 ADD MLOAD PUSH2 0x21B4 PUSH1 0x1F DUP10 AND DUP3 PUSH2 0x20C7 JUMP JUMPDEST DUP4 SSTORE POP JUMPDEST PUSH1 0x1 PUSH1 0x2 DUP9 MUL ADD DUP9 SSTORE POP POP POP JUMPDEST POP POP POP POP POP POP JUMP JUMPDEST PUSH32 0xD092D0B0D188D0B020D180D0BED0BBD18C20D0BDD0B520D0BFD0BED0B7D0B2D0 PUSH0 DUP3 ADD MSTORE PUSH32 0xBED0BBD18FD0B5D18220D18DD182D0BE20D0B8D181D0BFD0BED0BBD18CD0B7D0 PUSH1 0x20 DUP3 ADD MSTORE PUSH32 0xBED0B2D0B0D182D18C0000000000000000000000000000000000000000000000 PUSH1 0x40 DUP3 ADD MSTORE POP JUMP JUMPDEST PUSH0 PUSH2 0x224D PUSH1 0x49 DUP4 PUSH2 0x1666 JUMP JUMPDEST SWAP2 POP PUSH2 0x2258 DUP3 PUSH2 0x21CD JUMP JUMPDEST PUSH1 0x60 DUP3 ADD SWAP1 POP SWAP2 SWAP1 POP JUMP JUMPDEST PUSH0 PUSH1 0x20 DUP3 ADD SWAP1 POP DUP2 DUP2 SUB PUSH0 DUP4 ADD MSTORE PUSH2 0x227A DUP2 PUSH2 0x2241 JUMP JUMPDEST SWAP1 POP SWAP2 SWAP1 POP JUMP JUMPDEST PUSH32 0xD091D0BED0BBD18CD188D0B5203530303020D0BDD0B5D0BBD18CD0B7D18F20D0 PUSH0 DUP3 ADD MSTORE PUSH32 0xBAD183D0BFD0B8D182D18C000000000000000000000000000000000000000000 PUSH1 0x20 DUP3 ADD MSTORE POP JUMP JUMPDEST PUSH0 PUSH2 0x22DB PUSH1 0x2B DUP4 PUSH2 0x1666 JUMP JUMPDEST SWAP2 POP PUSH2 0x22E6 DUP3 PUSH2 0x2281 JUMP JUMPDEST PUSH1 0x40 DUP3 ADD SWAP1 POP SWAP2 SWAP1 POP JUMP JUMPDEST PUSH0 PUSH1 0x20 DUP3 ADD SWAP1 POP DUP2 DUP2 SUB PUSH0 DUP4 ADD MSTORE PUSH2 0x2308 DUP2 PUSH2 0x22CF JUMP JUMPDEST SWAP1 POP SWAP2 SWAP1 POP JUMP JUMPDEST PUSH32 0x5075626C696320D0BAD0BED0B8D0BDD18B20D0B7D0B0D0BAD0BED0BDD187D0B8 PUSH0 DUP3 ADD MSTORE PUSH32 0xD0BBD0B8D181D18C000000000000000000000000000000000000000000000000 PUSH1 0x20 DUP3 ADD MSTORE POP JUMP JUMPDEST PUSH0 PUSH2 0x2369 PUSH1 0x28 DUP4 PUSH2 0x1666 JUMP JUMPDEST SWAP2 POP PUSH2 0x2374 DUP3 PUSH2 0x230F JUMP JUMPDEST PUSH1 0x40 DUP3 ADD SWAP1 POP SWAP2 SWAP1 POP JUMP JUMPDEST PUSH0 PUSH1 0x20 DUP3 ADD SWAP1 POP DUP2 DUP2 SUB PUSH0 DUP4 ADD MSTORE PUSH2 0x2396 DUP2 PUSH2 0x235D JUMP JUMPDEST SWAP1 POP SWAP2 SWAP1 POP JUMP JUMPDEST PUSH32 0x45524332303A20617070726F76652066726F6D20746865207A65726F20616464 PUSH0 DUP3 ADD MSTORE PUSH32 0x7265737300000000000000000000000000000000000000000000000000000000 PUSH1 0x20 DUP3 ADD MSTORE POP JUMP JUMPDEST PUSH0 PUSH2 0x23F7 PUSH1 0x24 DUP4 PUSH2 0x1666 JUMP JUMPDEST SWAP2 POP PUSH2 0x2402 DUP3 PUSH2 0x239D JUMP JUMPDEST PUSH1 0x40 DUP3 ADD SWAP1 POP SWAP2 SWAP1 POP JUMP JUMPDEST PUSH0 PUSH1 0x20 DUP3 ADD SWAP1 POP DUP2 DUP2 SUB PUSH0 DUP4 ADD MSTORE PUSH2 0x2424 DUP2 PUSH2 0x23EB JUMP JUMPDEST SWAP1 POP SWAP2 SWAP1 POP JUMP JUMPDEST PUSH32 0x45524332303A20617070726F766520746F20746865207A65726F206164647265 PUSH0 DUP3 ADD MSTORE PUSH32 0x7373000000000000000000000000000000000000000000000000000000000000 PUSH1 0x20 DUP3 ADD MSTORE POP JUMP JUMPDEST PUSH0 PUSH2 0x2485 PUSH1 0x22 DUP4 PUSH2 0x1666 JUMP JUMPDEST SWAP2 POP PUSH2 0x2490 DUP3 PUSH2 0x242B JUMP JUMPDEST PUSH1 0x40 DUP3 ADD SWAP1 POP SWAP2 SWAP1 POP JUMP JUMPDEST PUSH0 PUSH1 0x20 DUP3 ADD SWAP1 POP DUP2 DUP2 SUB PUSH0 DUP4 ADD MSTORE PUSH2 0x24B2 DUP2 PUSH2 0x2479 JUMP JUMPDEST SWAP1 POP SWAP2 SWAP1 POP JUMP JUMPDEST PUSH32 0x45524332303A20696E73756666696369656E7420616C6C6F77616E6365000000 PUSH0 DUP3 ADD MSTORE POP JUMP JUMPDEST PUSH0 PUSH2 0x24ED PUSH1 0x1D DUP4 PUSH2 0x1666 JUMP JUMPDEST SWAP2 POP PUSH2 0x24F8 DUP3 PUSH2 0x24B9 JUMP JUMPDEST PUSH1 0x20 DUP3 ADD SWAP1 POP SWAP2 SWAP1 POP JUMP JUMPDEST PUSH0 PUSH1 0x20 DUP3 ADD SWAP1 POP DUP2 DUP2 SUB PUSH0 DUP4 ADD MSTORE PUSH2 0x251A DUP2 PUSH2 0x24E1 JUMP JUMPDEST SWAP1 POP SWAP2 SWAP1 POP JUMP JUMPDEST PUSH32 0x45524332303A207472616E736665722066726F6D20746865207A65726F206164 PUSH0 DUP3 ADD MSTORE PUSH32 0x6472657373000000000000000000000000000000000000000000000000000000 PUSH1 0x20 DUP3 ADD MSTORE POP JUMP JUMPDEST PUSH0 PUSH2 0x257B PUSH1 0x25 DUP4 PUSH2 0x1666 JUMP JUMPDEST SWAP2 POP PUSH2 0x2586 DUP3 PUSH2 0x2521 JUMP JUMPDEST PUSH1 0x40 DUP3 ADD SWAP1 POP SWAP2 SWAP1 POP JUMP JUMPDEST PUSH0 PUSH1 0x20 DUP3 ADD SWAP1 POP DUP2 DUP2 SUB PUSH0 DUP4 ADD MSTORE PUSH2 0x25A8 DUP2 PUSH2 0x256F JUMP JUMPDEST SWAP1 POP SWAP2 SWAP1 POP JUMP JUMPDEST PUSH32 0x45524332303A207472616E7366657220746F20746865207A65726F2061646472 PUSH0 DUP3 ADD MSTORE PUSH32 0x6573730000000000000000000000000000000000000000000000000000000000 PUSH1 0x20 DUP3 ADD MSTORE POP JUMP JUMPDEST PUSH0 PUSH2 0x2609 PUSH1 0x23 DUP4 PUSH2 0x1666 JUMP JUMPDEST SWAP2 POP PUSH2 0x2614 DUP3 PUSH2 0x25AF JUMP JUMPDEST PUSH1 0x40 DUP3 ADD SWAP1 POP SWAP2 SWAP1 POP JUMP JUMPDEST PUSH0 PUSH1 0x20 DUP3 ADD SWAP1 POP DUP2 DUP2 SUB PUSH0 DUP4 ADD MSTORE PUSH2 0x2636 DUP2 PUSH2 0x25FD JUMP JUMPDEST SWAP1 POP SWAP2 SWAP1 POP JUMP JUMPDEST PUSH32 0x45524332303A207472616E7366657220616D6F756E7420657863656564732062 PUSH0 DUP3 ADD MSTORE PUSH32 0x616C616E63650000000000000000000000000000000000000000000000000000 PUSH1 0x20 DUP3 ADD MSTORE POP JUMP JUMPDEST PUSH0 PUSH2 0x2697 PUSH1 0x26 DUP4 PUSH2 0x1666 JUMP JUMPDEST SWAP2 POP PUSH2 0x26A2 DUP3 PUSH2 0x263D JUMP JUMPDEST PUSH1 0x40 DUP3 ADD SWAP1 POP SWAP2 SWAP1 POP JUMP JUMPDEST PUSH0 PUSH1 0x20 DUP3 ADD SWAP1 POP DUP2 DUP2 SUB PUSH0 DUP4 ADD MSTORE PUSH2 0x26C4 DUP2 PUSH2 0x268B JUMP JUMPDEST SWAP1 POP SWAP2 SWAP1 POP JUMP INVALID 0xD0 SWAP15 0xD0 0xBF 0xD0 0xB5 0xD1 DUP1 0xD0 0xB0 0xD1 DUP7 0xD0 0xB8 0xD1 DUP16 KECCAK256 0xD0 0xBF 0xD1 DUP1 0xD0 0xBE 0xD0 0xB2 0xD0 0xB5 0xD0 0xB4 0xD0 0xB5 0xD0 0xBD 0xD0 0xB0 KECCAK256 0xD1 DUP4 0xD1 DUP2 0xD0 0xBF 0xD0 0xB5 0xD1 DUP9 0xD0 0xBD 0xD0 0xB0 LOG2 PUSH5 0x6970667358 0x22 SLT KECCAK256 REVERT SWAP14 0x29 0xD SWAP3 0xC2 0x28 0x4A DUP7 SMOD PUSH24 0x6D47F86527F7C135061C242CC04A84DE149068CBA764736F PUSH13 0x63430008150033000000000000 "
				},
				"gasEstimates": {
					"creation": {
						"codeDepositCost": "2007000",
						"executionCost": "infinite",
						"totalCost": "infinite"
					},
					"external": {
						"allowance(address,address)": "infinite",
						"approve(address,uint256)": "infinite",
						"approveWhiteList(uint256,bool)": "infinite",
						"balanceOf(address)": "2875",
						"buyPrivateToken(uint256)": "infinite",
						"buyPublicToken(uint256)": "infinite",
						"decimals()": "406",
						"decreaseAllowance(address,uint256)": "infinite",
						"increaseAllowance(address,uint256)": "infinite",
						"makePrivateReq(string)": "infinite",
						"name()": "infinite",
						"owner()": "2598",
						"privateCoins()": "2491",
						"pubCoins()": "2471",
						"requests(uint256)": "infinite",
						"seedCoins()": "2470",
						"symbol()": "infinite",
						"timeDif()": "2536",
						"timeNow()": "2470",
						"timeStart()": "2535",
						"timeSystem()": "2493",
						"totalCoins()": "2515",
						"totalSupply()": "2522",
						"transfer(address,uint256)": "infinite",
						"transferFrom(address,address,uint256)": "infinite",
						"userRole(address)": "2988",
						"whiteList(uint256)": "5033"
					}
				},
				"methodIdentifiers": {
					"allowance(address,address)": "dd62ed3e",
					"approve(address,uint256)": "095ea7b3",
					"approveWhiteList(uint256,bool)": "ea7d5165",
					"balanceOf(address)": "70a08231",
					"buyPrivateToken(uint256)": "254dc45e",
					"buyPublicToken(uint256)": "f2dfd08f",
					"decimals()": "313ce567",
					"decreaseAllowance(address,uint256)": "a457c2d7",
					"increaseAllowance(address,uint256)": "39509351",
					"makePrivateReq(string)": "db8fb88e",
					"name()": "06fdde03",
					"owner()": "8da5cb5b",
					"privateCoins()": "ec684eb3",
					"pubCoins()": "26f67490",
					"requests(uint256)": "81d12c58",
					"seedCoins()": "937be371",
					"symbol()": "95d89b41",
					"timeDif()": "6ff32b22",
					"timeNow()": "d95660be",
					"timeStart()": "fd74d294",
					"timeSystem()": "13962801",
					"totalCoins()": "32454dbb",
					"totalSupply()": "18160ddd",
					"transfer(address,uint256)": "a9059cbb",
					"transferFrom(address,address,uint256)": "23b872dd",
					"userRole(address)": "534f5680",
					"whiteList(uint256)": "5c475d42"
				}
			},
			"storageLayout": {
				"storage": [
					{
						"astId": 15,
						"contract": "contracts/block2.sol:CryptoMonster",
						"label": "_balances",
						"offset": 0,
						"slot": "0",
						"type": "t_mapping(t_address,t_uint256)"
					},
					{
						"astId": 21,
						"contract": "contracts/block2.sol:CryptoMonster",
						"label": "_allowances",
						"offset": 0,
						"slot": "1",
						"type": "t_mapping(t_address,t_mapping(t_address,t_uint256))"
					},
					{
						"astId": 23,
						"contract": "contracts/block2.sol:CryptoMonster",
						"label": "_totalSupply",
						"offset": 0,
						"slot": "2",
						"type": "t_uint256"
					},
					{
						"astId": 25,
						"contract": "contracts/block2.sol:CryptoMonster",
						"label": "_name",
						"offset": 0,
						"slot": "3",
						"type": "t_string_storage"
					},
					{
						"astId": 27,
						"contract": "contracts/block2.sol:CryptoMonster",
						"label": "_symbol",
						"offset": 0,
						"slot": "4",
						"type": "t_string_storage"
					},
					{
						"astId": 725,
						"contract": "contracts/block2.sol:CryptoMonster",
						"label": "totalCoins",
						"offset": 0,
						"slot": "5",
						"type": "t_uint256"
					},
					{
						"astId": 732,
						"contract": "contracts/block2.sol:CryptoMonster",
						"label": "seedCoins",
						"offset": 0,
						"slot": "6",
						"type": "t_uint256"
					},
					{
						"astId": 739,
						"contract": "contracts/block2.sol:CryptoMonster",
						"label": "privateCoins",
						"offset": 0,
						"slot": "7",
						"type": "t_uint256"
					},
					{
						"astId": 746,
						"contract": "contracts/block2.sol:CryptoMonster",
						"label": "pubCoins",
						"offset": 0,
						"slot": "8",
						"type": "t_uint256"
					},
					{
						"astId": 748,
						"contract": "contracts/block2.sol:CryptoMonster",
						"label": "timeStart",
						"offset": 0,
						"slot": "9",
						"type": "t_uint256"
					},
					{
						"astId": 750,
						"contract": "contracts/block2.sol:CryptoMonster",
						"label": "timeNow",
						"offset": 0,
						"slot": "10",
						"type": "t_uint256"
					},
					{
						"astId": 752,
						"contract": "contracts/block2.sol:CryptoMonster",
						"label": "timeDif",
						"offset": 0,
						"slot": "11",
						"type": "t_uint256"
					},
					{
						"astId": 754,
						"contract": "contracts/block2.sol:CryptoMonster",
						"label": "timeSystem",
						"offset": 0,
						"slot": "12",
						"type": "t_uint256"
					},
					{
						"astId": 756,
						"contract": "contracts/block2.sol:CryptoMonster",
						"label": "owner",
						"offset": 0,
						"slot": "13",
						"type": "t_address"
					},
					{
						"astId": 769,
						"contract": "contracts/block2.sol:CryptoMonster",
						"label": "userRole",
						"offset": 0,
						"slot": "14",
						"type": "t_mapping(t_address,t_enum(Role)759)"
					},
					{
						"astId": 773,
						"contract": "contracts/block2.sol:CryptoMonster",
						"label": "requests",
						"offset": 0,
						"slot": "15",
						"type": "t_array(t_struct(Ticket)764_storage)dyn_storage"
					},
					{
						"astId": 776,
						"contract": "contracts/block2.sol:CryptoMonster",
						"label": "whiteList",
						"offset": 0,
						"slot": "16",
						"type": "t_array(t_address)dyn_storage"
					}
				],
				"types": {
					"t_address": {
						"encoding": "inplace",
						"label": "address",
						"numberOfBytes": "20"
					},
					"t_array(t_address)dyn_storage": {
						"base": "t_address",
						"encoding": "dynamic_array",
						"label": "address[]",
						"numberOfBytes": "32"
					},
					"t_array(t_struct(Ticket)764_storage)dyn_storage": {
						"base": "t_struct(Ticket)764_storage",
						"encoding": "dynamic_array",
						"label": "struct CryptoMonster.Ticket[]",
						"numberOfBytes": "32"
					},
					"t_enum(Role)759": {
						"encoding": "inplace",
						"label": "enum CryptoMonster.Role",
						"numberOfBytes": "1"
					},
					"t_mapping(t_address,t_enum(Role)759)": {
						"encoding": "mapping",
						"key": "t_address",
						"label": "mapping(address => enum CryptoMonster.Role)",
						"numberOfBytes": "32",
						"value": "t_enum(Role)759"
					},
					"t_mapping(t_address,t_mapping(t_address,t_uint256))": {
						"encoding": "mapping",
						"key": "t_address",
						"label": "mapping(address => mapping(address => uint256))",
						"numberOfBytes": "32",
						"value": "t_mapping(t_address,t_uint256)"
					},
					"t_mapping(t_address,t_uint256)": {
						"encoding": "mapping",
						"key": "t_address",
						"label": "mapping(address => uint256)",
						"numberOfBytes": "32",
						"value": "t_uint256"
					},
					"t_string_storage": {
						"encoding": "bytes",
						"label": "string",
						"numberOfBytes": "32"
					},
					"t_struct(Ticket)764_storage": {
						"encoding": "inplace",
						"label": "struct CryptoMonster.Ticket",
						"members": [
							{
								"astId": 761,
								"contract": "contracts/block2.sol:CryptoMonster",
								"label": "name",
								"offset": 0,
								"slot": "0",
								"type": "t_string_storage"
							},
							{
								"astId": 763,
								"contract": "contracts/block2.sol:CryptoMonster",
								"label": "usrAddress",
								"offset": 0,
								"slot": "1",
								"type": "t_address"
							}
						],
						"numberOfBytes": "64"
					},
					"t_uint256": {
						"encoding": "inplace",
						"label": "uint256",
						"numberOfBytes": "32"
					}
				}
			},
			"userdoc": {
				"kind": "user",
				"methods": {},
				"version": 1
			}
		}
	}
}