{
	"contracts/block.sol": {
		"CryptoMonster": {
			"abi": [
				{
					"inputs": [],
					"stateMutability": "nonpayable",
					"type": "constructor"
				},
				{
					"anonymous": false,
					"inputs": [
						{
							"indexed": true,
							"internalType": "address",
							"name": "owner",
							"type": "address"
						},
						{
							"indexed": true,
							"internalType": "address",
							"name": "spender",
							"type": "address"
						},
						{
							"indexed": false,
							"internalType": "uint256",
							"name": "value",
							"type": "uint256"
						}
					],
					"name": "Approval",
					"type": "event"
				},
				{
					"anonymous": false,
					"inputs": [
						{
							"indexed": true,
							"internalType": "address",
							"name": "from",
							"type": "address"
						},
						{
							"indexed": true,
							"internalType": "address",
							"name": "to",
							"type": "address"
						},
						{
							"indexed": false,
							"internalType": "uint256",
							"name": "value",
							"type": "uint256"
						}
					],
					"name": "Transfer",
					"type": "event"
				},
				{
					"inputs": [
						{
							"internalType": "address[]",
							"name": "users",
							"type": "address[]"
						}
					],
					"name": "addToWhitelist",
					"outputs": [],
					"stateMutability": "nonpayable",
					"type": "function"
				},
				{
					"inputs": [
						{
							"internalType": "address",
							"name": "owner",
							"type": "address"
						},
						{
							"internalType": "address",
							"name": "spender",
							"type": "address"
						}
					],
					"name": "allowance",
					"outputs": [
						{
							"internalType": "uint256",
							"name": "",
							"type": "uint256"
						}
					],
					"stateMutability": "view",
					"type": "function"
				},
				{
					"inputs": [
						{
							"internalType": "address",
							"name": "spender",
							"type": "address"
						},
						{
							"internalType": "uint256",
							"name": "amount",
							"type": "uint256"
						}
					],
					"name": "approve",
					"outputs": [
						{
							"internalType": "bool",
							"name": "",
							"type": "bool"
						}
					],
					"stateMutability": "nonpayable",
					"type": "function"
				},
				{
					"inputs": [
						{
							"internalType": "address",
							"name": "account",
							"type": "address"
						}
					],
					"name": "balanceOf",
					"outputs": [
						{
							"internalType": "uint256",
							"name": "",
							"type": "uint256"
						}
					],
					"stateMutability": "view",
					"type": "function"
				},
				{
					"inputs": [
						{
							"internalType": "uint256",
							"name": "amount",
							"type": "uint256"
						}
					],
					"name": "buyPrivateTokens",
					"outputs": [],
					"stateMutability": "payable",
					"type": "function"
				},
				{
					"inputs": [
						{
							"internalType": "uint256",
							"name": "amount",
							"type": "uint256"
						}
					],
					"name": "buyPublicTokens",
					"outputs": [],
					"stateMutability": "payable",
					"type": "function"
				},
				{
					"inputs": [],
					"name": "decimals",
					"outputs": [
						{
							"internalType": "uint8",
							"name": "",
							"type": "uint8"
						}
					],
					"stateMutability": "view",
					"type": "function"
				},
				{
					"inputs": [
						{
							"internalType": "address",
							"name": "spender",
							"type": "address"
						},
						{
							"internalType": "uint256",
							"name": "subtractedValue",
							"type": "uint256"
						}
					],
					"name": "decreaseAllowance",
					"outputs": [
						{
							"internalType": "bool",
							"name": "",
							"type": "bool"
						}
					],
					"stateMutability": "nonpayable",
					"type": "function"
				},
				{
					"inputs": [
						{
							"internalType": "address",
							"name": "spender",
							"type": "address"
						},
						{
							"internalType": "uint256",
							"name": "addedValue",
							"type": "uint256"
						}
					],
					"name": "increaseAllowance",
					"outputs": [
						{
							"internalType": "bool",
							"name": "",
							"type": "bool"
						}
					],
					"stateMutability": "nonpayable",
					"type": "function"
				},
				{
					"inputs": [],
					"name": "name",
					"outputs": [
						{
							"internalType": "string",
							"name": "",
							"type": "string"
						}
					],
					"stateMutability": "view",
					"type": "function"
				},
				{
					"inputs": [],
					"name": "owner",
					"outputs": [
						{
							"internalType": "address",
							"name": "",
							"type": "address"
						}
					],
					"stateMutability": "view",
					"type": "function"
				},
				{
					"inputs": [],
					"name": "privateSaleEndTime",
					"outputs": [
						{
							"internalType": "uint256",
							"name": "",
							"type": "uint256"
						}
					],
					"stateMutability": "view",
					"type": "function"
				},
				{
					"inputs": [],
					"name": "publicSaleEndTime",
					"outputs": [
						{
							"internalType": "uint256",
							"name": "",
							"type": "uint256"
						}
					],
					"stateMutability": "view",
					"type": "function"
				},
				{
					"inputs": [
						{
							"internalType": "address[]",
							"name": "users",
							"type": "address[]"
						}
					],
					"name": "removeFromWhitelist",
					"outputs": [],
					"stateMutability": "nonpayable",
					"type": "function"
				},
				{
					"inputs": [],
					"name": "startPublicSale",
					"outputs": [],
					"stateMutability": "view",
					"type": "function"
				},
				{
					"inputs": [],
					"name": "startTime",
					"outputs": [
						{
							"internalType": "uint256",
							"name": "",
							"type": "uint256"
						}
					],
					"stateMutability": "view",
					"type": "function"
				},
				{
					"inputs": [],
					"name": "symbol",
					"outputs": [
						{
							"internalType": "string",
							"name": "",
							"type": "string"
						}
					],
					"stateMutability": "view",
					"type": "function"
				},
				{
					"inputs": [],
					"name": "totalSupply",
					"outputs": [
						{
							"internalType": "uint256",
							"name": "",
							"type": "uint256"
						}
					],
					"stateMutability": "view",
					"type": "function"
				},
				{
					"inputs": [
						{
							"internalType": "address",
							"name": "to",
							"type": "address"
						},
						{
							"internalType": "uint256",
							"name": "amount",
							"type": "uint256"
						}
					],
					"name": "transfer",
					"outputs": [
						{
							"internalType": "bool",
							"name": "",
							"type": "bool"
						}
					],
					"stateMutability": "nonpayable",
					"type": "function"
				},
				{
					"inputs": [
						{
							"internalType": "address",
							"name": "from",
							"type": "address"
						},
						{
							"internalType": "address",
							"name": "to",
							"type": "address"
						},
						{
							"internalType": "uint256",
							"name": "amount",
							"type": "uint256"
						}
					],
					"name": "transferFrom",
					"outputs": [
						{
							"internalType": "bool",
							"name": "",
							"type": "bool"
						}
					],
					"stateMutability": "nonpayable",
					"type": "function"
				},
				{
					"inputs": [
						{
							"internalType": "address",
							"name": "recipient",
							"type": "address"
						},
						{
							"internalType": "uint256",
							"name": "amount",
							"type": "uint256"
						}
					],
					"name": "transferPublicTokens",
					"outputs": [],
					"stateMutability": "nonpayable",
					"type": "function"
				},
				{
					"inputs": [
						{
							"internalType": "address",
							"name": "",
							"type": "address"
						}
					],
					"name": "whitelist",
					"outputs": [
						{
							"internalType": "bool",
							"name": "",
							"type": "bool"
						}
					],
					"stateMutability": "view",
					"type": "function"
				}
			],
			"devdoc": {
				"events": {
					"Approval(address,address,uint256)": {
						"details": "Emitted when the allowance of a `spender` for an `owner` is set by a call to {approve}. `value` is the new allowance."
					},
					"Transfer(address,address,uint256)": {
						"details": "Emitted when `value` tokens are moved from one account (`from`) to another (`to`). Note that `value` may be zero."
					}
				},
				"kind": "dev",
				"methods": {
					"allowance(address,address)": {
						"details": "See {IERC20-allowance}."
					},
					"approve(address,uint256)": {
						"details": "See {IERC20-approve}. NOTE: If `amount` is the maximum `uint256`, the allowance is not updated on `transferFrom`. This is semantically equivalent to an infinite approval. Requirements: - `spender` cannot be the zero address."
					},
					"balanceOf(address)": {
						"details": "See {IERC20-balanceOf}."
					},
					"decimals()": {
						"details": "Returns the number of decimals used to get its user representation. For example, if `decimals` equals `2`, a balance of `505` tokens should be displayed to a user as `5.05` (`505 / 10 ** 2`). Tokens usually opt for a value of 18, imitating the relationship between Ether and Wei. This is the default value returned by this function, unless it's overridden. NOTE: This information is only used for _display_ purposes: it in no way affects any of the arithmetic of the contract, including {IERC20-balanceOf} and {IERC20-transfer}."
					},
					"decreaseAllowance(address,uint256)": {
						"details": "Atomically decreases the allowance granted to `spender` by the caller. This is an alternative to {approve} that can be used as a mitigation for problems described in {IERC20-approve}. Emits an {Approval} event indicating the updated allowance. Requirements: - `spender` cannot be the zero address. - `spender` must have allowance for the caller of at least `subtractedValue`."
					},
					"increaseAllowance(address,uint256)": {
						"details": "Atomically increases the allowance granted to `spender` by the caller. This is an alternative to {approve} that can be used as a mitigation for problems described in {IERC20-approve}. Emits an {Approval} event indicating the updated allowance. Requirements: - `spender` cannot be the zero address."
					},
					"name()": {
						"details": "Returns the name of the token."
					},
					"symbol()": {
						"details": "Returns the symbol of the token, usually a shorter version of the name."
					},
					"totalSupply()": {
						"details": "See {IERC20-totalSupply}."
					},
					"transfer(address,uint256)": {
						"details": "See {IERC20-transfer}. Requirements: - `to` cannot be the zero address. - the caller must have a balance of at least `amount`."
					},
					"transferFrom(address,address,uint256)": {
						"details": "See {IERC20-transferFrom}. Emits an {Approval} event indicating the updated allowance. This is not required by the EIP. See the note at the beginning of {ERC20}. NOTE: Does not update the allowance if the current allowance is the maximum `uint256`. Requirements: - `from` and `to` cannot be the zero address. - `from` must have a balance of at least `amount`. - the caller must have allowance for ``from``'s tokens of at least `amount`."
					}
				},
				"version": 1
			},
			"evm": {
				"assembly": "    /* \"contracts/block.sol\":114:3126  contract CryptoMonster is ERC20(\"CryptoMonster\", \"CMON\") {... */\n  mstore(0x40, 0x80)\n    /* \"contracts/block.sol\":220:239  10000000 * 10 ** 12 */\n  0x8ac7230489e80000\n    /* \"contracts/block.sol\":203:239  uint totalSupp = 10000000 * 10 ** 12 */\n  0x06\n  sstore\n    /* \"contracts/block.sol\":286:289  100 */\n  0x64\n    /* \"contracts/block.sol\":281:283  10 */\n  0x0a\n    /* \"contracts/block.sol\":269:278  totalSupp */\n  sload(0x06)\n    /* \"contracts/block.sol\":269:283  totalSupp * 10 */\n  tag_1\n  swap2\n  swap1\n  tag_2\n  jump\t// in\ntag_1:\n    /* \"contracts/block.sol\":269:289  totalSupp * 10 / 100 */\n  tag_3\n  swap2\n  swap1\n  tag_4\n  jump\t// in\ntag_3:\n    /* \"contracts/block.sol\":246:289  uint SEED_ALLOCATION = totalSupp * 10 / 100 */\n  0x07\n  sstore\n    /* \"contracts/block.sol\":338:341  100 */\n  0x64\n    /* \"contracts/block.sol\":333:335  30 */\n  0x1e\n    /* \"contracts/block.sol\":321:330  totalSupp */\n  sload(0x06)\n    /* \"contracts/block.sol\":321:335  totalSupp * 30 */\n  tag_5\n  swap2\n  swap1\n  tag_2\n  jump\t// in\ntag_5:\n    /* \"contracts/block.sol\":321:341  totalSupp * 30 / 100 */\n  tag_6\n  swap2\n  swap1\n  tag_4\n  jump\t// in\ntag_6:\n    /* \"contracts/block.sol\":295:341  uint PRIVATE_ALLOCATION = totalSupp * 30 / 100 */\n  0x08\n  sstore\n    /* \"contracts/block.sol\":389:392  100 */\n  0x64\n    /* \"contracts/block.sol\":384:386  60 */\n  0x3c\n    /* \"contracts/block.sol\":372:381  totalSupp */\n  sload(0x06)\n    /* \"contracts/block.sol\":372:386  totalSupp * 60 */\n  tag_7\n  swap2\n  swap1\n  tag_2\n  jump\t// in\ntag_7:\n    /* \"contracts/block.sol\":372:392  totalSupp * 60 / 100 */\n  tag_8\n  swap2\n  swap1\n  tag_4\n  jump\t// in\ntag_8:\n    /* \"contracts/block.sol\":347:392  uint PUBLIC_ALLOCATION = totalSupp * 60 / 100 */\n  0x09\n  sstore\n    /* \"contracts/block.sol\":714:1302  constructor() {... */\n  callvalue\n  dup1\n  iszero\n  tag_9\n  jumpi\n  0x00\n  dup1\n  revert\ntag_9:\n  pop\n    /* \"@openzeppelin/contracts/token/ERC20/ERC20.sol\":1980:2093  constructor(string memory name_, string memory symbol_) {... */\n  mload(0x40)\n  dup1\n  0x40\n  add\n  0x40\n  mstore\n  dup1\n  0x0d\n  dup2\n  mstore\n  0x20\n  add\n  0x43727970746f4d6f6e7374657200000000000000000000000000000000000000\n  dup2\n  mstore\n  pop\n  mload(0x40)\n  dup1\n  0x40\n  add\n  0x40\n  mstore\n  dup1\n  0x04\n  dup2\n  mstore\n  0x20\n  add\n  0x434d4f4e00000000000000000000000000000000000000000000000000000000\n  dup2\n  mstore\n  pop\n    /* \"@openzeppelin/contracts/token/ERC20/ERC20.sol\":2054:2059  name_ */\n  dup2\n    /* \"@openzeppelin/contracts/token/ERC20/ERC20.sol\":2046:2051  _name */\n  0x03\n    /* \"@openzeppelin/contracts/token/ERC20/ERC20.sol\":2046:2059  _name = name_ */\n  swap1\n  dup2\n  tag_13\n  swap2\n  swap1\n  tag_14\n  jump\t// in\ntag_13:\n  pop\n    /* \"@openzeppelin/contracts/token/ERC20/ERC20.sol\":2079:2086  symbol_ */\n  dup1\n    /* \"@openzeppelin/contracts/token/ERC20/ERC20.sol\":2069:2076  _symbol */\n  0x04\n    /* \"@openzeppelin/contracts/token/ERC20/ERC20.sol\":2069:2086  _symbol = symbol_ */\n  swap1\n  dup2\n  tag_15\n  swap2\n  swap1\n  tag_14\n  jump\t// in\ntag_15:\n  pop\n    /* \"@openzeppelin/contracts/token/ERC20/ERC20.sol\":1980:2093  constructor(string memory name_, string memory symbol_) {... */\n  pop\n  pop\n    /* \"contracts/block.sol\":746:756  msg.sender */\n  caller\n    /* \"contracts/block.sol\":738:743  owner */\n  0x05\n  0x00\n    /* \"contracts/block.sol\":738:756  owner = msg.sender */\n  0x0100\n  exp\n  dup2\n  sload\n  dup2\n  0xffffffffffffffffffffffffffffffffffffffff\n  mul\n  not\n  and\n  swap1\n  dup4\n  0xffffffffffffffffffffffffffffffffffffffff\n  and\n  mul\n  or\n  swap1\n  sstore\n  pop\n    /* \"contracts/block.sol\":766:789  _mint(owner, totalSupp) */\n  tag_17\n    /* \"contracts/block.sol\":772:777  owner */\n  0x05\n  0x00\n  swap1\n  sload\n  swap1\n  0x0100\n  exp\n  swap1\n  div\n  0xffffffffffffffffffffffffffffffffffffffff\n  and\n    /* \"contracts/block.sol\":779:788  totalSupp */\n  sload(0x06)\n    /* \"contracts/block.sol\":766:771  _mint */\n  shl(0x20, tag_18)\n    /* \"contracts/block.sol\":766:789  _mint(owner, totalSupp) */\n  0x20\n  shr\n  jump\t// in\ntag_17:\n    /* \"contracts/block.sol\":799:894  _transfer(owner, address(0xAb8483F64d9C6d1EcF9b849Ae677dD3315835cb2), SEED_ALLOCATION * 3 / 10) */\n  tag_19\n    /* \"contracts/block.sol\":809:814  owner */\n  0x05\n  0x00\n  swap1\n  sload\n  swap1\n  0x0100\n  exp\n  swap1\n  div\n  0xffffffffffffffffffffffffffffffffffffffff\n  and\n    /* \"contracts/block.sol\":824:866  0xAb8483F64d9C6d1EcF9b849Ae677dD3315835cb2 */\n  0xab8483f64d9c6d1ecf9b849ae677dd3315835cb2\n    /* \"contracts/block.sol\":891:893  10 */\n  0x0a\n    /* \"contracts/block.sol\":887:888  3 */\n  0x03\n    /* \"contracts/block.sol\":869:884  SEED_ALLOCATION */\n  sload(0x07)\n    /* \"contracts/block.sol\":869:888  SEED_ALLOCATION * 3 */\n  tag_20\n  swap2\n  swap1\n  tag_2\n  jump\t// in\ntag_20:\n    /* \"contracts/block.sol\":869:893  SEED_ALLOCATION * 3 / 10 */\n  tag_21\n  swap2\n  swap1\n  tag_4\n  jump\t// in\ntag_21:\n    /* \"contracts/block.sol\":799:808  _transfer */\n  shl(0x20, tag_22)\n    /* \"contracts/block.sol\":799:894  _transfer(owner, address(0xAb8483F64d9C6d1EcF9b849Ae677dD3315835cb2), SEED_ALLOCATION * 3 / 10) */\n  0x20\n  shr\n  jump\t// in\ntag_19:\n    /* \"contracts/block.sol\":917:1012  _transfer(owner, address(0x4B20993Bc481177ec7E8f571ceCaE8A9e22C02db), SEED_ALLOCATION * 4 / 10) */\n  tag_23\n    /* \"contracts/block.sol\":927:932  owner */\n  0x05\n  0x00\n  swap1\n  sload\n  swap1\n  0x0100\n  exp\n  swap1\n  div\n  0xffffffffffffffffffffffffffffffffffffffff\n  and\n    /* \"contracts/block.sol\":942:984  0x4B20993Bc481177ec7E8f571ceCaE8A9e22C02db */\n  0x4b20993bc481177ec7e8f571cecae8a9e22c02db\n    /* \"contracts/block.sol\":1009:1011  10 */\n  0x0a\n    /* \"contracts/block.sol\":1005:1006  4 */\n  0x04\n    /* \"contracts/block.sol\":987:1002  SEED_ALLOCATION */\n  sload(0x07)\n    /* \"contracts/block.sol\":987:1006  SEED_ALLOCATION * 4 */\n  tag_24\n  swap2\n  swap1\n  tag_2\n  jump\t// in\ntag_24:\n    /* \"contracts/block.sol\":987:1011  SEED_ALLOCATION * 4 / 10 */\n  tag_25\n  swap2\n  swap1\n  tag_4\n  jump\t// in\ntag_25:\n    /* \"contracts/block.sol\":917:926  _transfer */\n  shl(0x20, tag_22)\n    /* \"contracts/block.sol\":917:1012  _transfer(owner, address(0x4B20993Bc481177ec7E8f571ceCaE8A9e22C02db), SEED_ALLOCATION * 4 / 10) */\n  0x20\n  shr\n  jump\t// in\ntag_23:\n    /* \"contracts/block.sol\":1035:1130  _transfer(owner, address(0x78731D3Ca6b7E34aC0F824c42a7cC18A495cabaB), SEED_ALLOCATION * 2 / 10) */\n  tag_26\n    /* \"contracts/block.sol\":1045:1050  owner */\n  0x05\n  0x00\n  swap1\n  sload\n  swap1\n  0x0100\n  exp\n  swap1\n  div\n  0xffffffffffffffffffffffffffffffffffffffff\n  and\n    /* \"contracts/block.sol\":1060:1102  0x78731D3Ca6b7E34aC0F824c42a7cC18A495cabaB */\n  0x78731d3ca6b7e34ac0f824c42a7cc18a495cabab\n    /* \"contracts/block.sol\":1127:1129  10 */\n  0x0a\n    /* \"contracts/block.sol\":1123:1124  2 */\n  0x02\n    /* \"contracts/block.sol\":1105:1120  SEED_ALLOCATION */\n  sload(0x07)\n    /* \"contracts/block.sol\":1105:1124  SEED_ALLOCATION * 2 */\n  tag_27\n  swap2\n  swap1\n  tag_2\n  jump\t// in\ntag_27:\n    /* \"contracts/block.sol\":1105:1129  SEED_ALLOCATION * 2 / 10 */\n  tag_28\n  swap2\n  swap1\n  tag_4\n  jump\t// in\ntag_28:\n    /* \"contracts/block.sol\":1035:1044  _transfer */\n  shl(0x20, tag_22)\n    /* \"contracts/block.sol\":1035:1130  _transfer(owner, address(0x78731D3Ca6b7E34aC0F824c42a7cC18A495cabaB), SEED_ALLOCATION * 2 / 10) */\n  0x20\n  shr\n  jump\t// in\ntag_26:\n    /* \"contracts/block.sol\":1167:1182  block.timestamp */\n  timestamp\n    /* \"contracts/block.sol\":1155:1164  startTime */\n  0x0a\n    /* \"contracts/block.sol\":1155:1182  startTime = block.timestamp */\n  dup2\n  swap1\n  sstore\n  pop\n    /* \"contracts/block.sol\":1225:1234  5 minutes */\n  0x012c\n    /* \"contracts/block.sol\":1213:1222  startTime */\n  sload(0x0a)\n    /* \"contracts/block.sol\":1213:1234  startTime + 5 minutes */\n  tag_29\n  swap2\n  swap1\n  tag_30\n  jump\t// in\ntag_29:\n    /* \"contracts/block.sol\":1192:1210  privateSaleEndTime */\n  0x0b\n    /* \"contracts/block.sol\":1192:1234  privateSaleEndTime = startTime + 5 minutes */\n  dup2\n  swap1\n  sstore\n  pop\n    /* \"contracts/block.sol\":1285:1295  10 minutes */\n  0x0258\n    /* \"contracts/block.sol\":1264:1282  privateSaleEndTime */\n  sload(0x0b)\n    /* \"contracts/block.sol\":1264:1295  privateSaleEndTime + 10 minutes */\n  tag_31\n  swap2\n  swap1\n  tag_30\n  jump\t// in\ntag_31:\n    /* \"contracts/block.sol\":1244:1261  publicSaleEndTime */\n  0x0c\n    /* \"contracts/block.sol\":1244:1295  publicSaleEndTime = privateSaleEndTime + 10 minutes */\n  dup2\n  swap1\n  sstore\n  pop\n    /* \"contracts/block.sol\":114:3126  contract CryptoMonster is ERC20(\"CryptoMonster\", \"CMON\") {... */\n  jump(tag_32)\n    /* \"@openzeppelin/contracts/token/ERC20/ERC20.sol\":8520:9055  function _mint(address account, uint256 amount) internal virtual {... */\ntag_18:\n    /* \"@openzeppelin/contracts/token/ERC20/ERC20.sol\":8622:8623  0 */\n  0x00\n    /* \"@openzeppelin/contracts/token/ERC20/ERC20.sol\":8603:8624  account != address(0) */\n  0xffffffffffffffffffffffffffffffffffffffff\n  and\n    /* \"@openzeppelin/contracts/token/ERC20/ERC20.sol\":8603:8610  account */\n  dup3\n    /* \"@openzeppelin/contracts/token/ERC20/ERC20.sol\":8603:8624  account != address(0) */\n  0xffffffffffffffffffffffffffffffffffffffff\n  and\n  sub\n    /* \"@openzeppelin/contracts/token/ERC20/ERC20.sol\":8595:8660  require(account != address(0), \"ERC20: mint to the zero address\") */\n  tag_34\n  jumpi\n  mload(0x40)\n  0x08c379a000000000000000000000000000000000000000000000000000000000\n  dup2\n  mstore\n  0x04\n  add\n  tag_35\n  swap1\n  tag_36\n  jump\t// in\ntag_35:\n  mload(0x40)\n  dup1\n  swap2\n  sub\n  swap1\n  revert\ntag_34:\n    /* \"@openzeppelin/contracts/token/ERC20/ERC20.sol\":8671:8720  _beforeTokenTransfer(address(0), account, amount) */\n  tag_37\n    /* \"@openzeppelin/contracts/token/ERC20/ERC20.sol\":8700:8701  0 */\n  0x00\n    /* \"@openzeppelin/contracts/token/ERC20/ERC20.sol\":8704:8711  account */\n  dup4\n    /* \"@openzeppelin/contracts/token/ERC20/ERC20.sol\":8713:8719  amount */\n  dup4\n    /* \"@openzeppelin/contracts/token/ERC20/ERC20.sol\":8671:8691  _beforeTokenTransfer */\n  shl(0x20, tag_38)\n    /* \"@openzeppelin/contracts/token/ERC20/ERC20.sol\":8671:8720  _beforeTokenTransfer(address(0), account, amount) */\n  0x20\n  shr\n  jump\t// in\ntag_37:\n    /* \"@openzeppelin/contracts/token/ERC20/ERC20.sol\":8747:8753  amount */\n  dup1\n    /* \"@openzeppelin/contracts/token/ERC20/ERC20.sol\":8731:8743  _totalSupply */\n  0x02\n  0x00\n    /* \"@openzeppelin/contracts/token/ERC20/ERC20.sol\":8731:8753  _totalSupply += amount */\n  dup3\n  dup3\n  sload\n  tag_39\n  swap2\n  swap1\n  tag_30\n  jump\t// in\ntag_39:\n  swap3\n  pop\n  pop\n  dup2\n  swap1\n  sstore\n  pop\n    /* \"@openzeppelin/contracts/token/ERC20/ERC20.sol\":8921:8927  amount */\n  dup1\n    /* \"@openzeppelin/contracts/token/ERC20/ERC20.sol\":8899:8908  _balances */\n  0x00\n    /* \"@openzeppelin/contracts/token/ERC20/ERC20.sol\":8899:8917  _balances[account] */\n  dup1\n    /* \"@openzeppelin/contracts/token/ERC20/ERC20.sol\":8909:8916  account */\n  dup5\n    /* \"@openzeppelin/contracts/token/ERC20/ERC20.sol\":8899:8917  _balances[account] */\n  0xffffffffffffffffffffffffffffffffffffffff\n  and\n  0xffffffffffffffffffffffffffffffffffffffff\n  and\n  dup2\n  mstore\n  0x20\n  add\n  swap1\n  dup2\n  mstore\n  0x20\n  add\n  0x00\n  keccak256\n  0x00\n    /* \"@openzeppelin/contracts/token/ERC20/ERC20.sol\":8899:8927  _balances[account] += amount */\n  dup3\n  dup3\n  sload\n  add\n  swap3\n  pop\n  pop\n  dup2\n  swap1\n  sstore\n  pop\n    /* \"@openzeppelin/contracts/token/ERC20/ERC20.sol\":8973:8980  account */\n  dup2\n    /* \"@openzeppelin/contracts/token/ERC20/ERC20.sol\":8952:8989  Transfer(address(0), account, amount) */\n  0xffffffffffffffffffffffffffffffffffffffff\n  and\n    /* \"@openzeppelin/contracts/token/ERC20/ERC20.sol\":8969:8970  0 */\n  0x00\n    /* \"@openzeppelin/contracts/token/ERC20/ERC20.sol\":8952:8989  Transfer(address(0), account, amount) */\n  0xffffffffffffffffffffffffffffffffffffffff\n  and\n  0xddf252ad1be2c89b69c2b068fc378daa952ba7f163c4a11628f55a4df523b3ef\n    /* \"@openzeppelin/contracts/token/ERC20/ERC20.sol\":8982:8988  amount */\n  dup4\n    /* \"@openzeppelin/contracts/token/ERC20/ERC20.sol\":8952:8989  Transfer(address(0), account, amount) */\n  mload(0x40)\n  tag_40\n  swap2\n  swap1\n  tag_41\n  jump\t// in\ntag_40:\n  mload(0x40)\n  dup1\n  swap2\n  sub\n  swap1\n  log3\n    /* \"@openzeppelin/contracts/token/ERC20/ERC20.sol\":9000:9048  _afterTokenTransfer(address(0), account, amount) */\n  tag_42\n    /* \"@openzeppelin/contracts/token/ERC20/ERC20.sol\":9028:9029  0 */\n  0x00\n    /* \"@openzeppelin/contracts/token/ERC20/ERC20.sol\":9032:9039  account */\n  dup4\n    /* \"@openzeppelin/contracts/token/ERC20/ERC20.sol\":9041:9047  amount */\n  dup4\n    /* \"@openzeppelin/contracts/token/ERC20/ERC20.sol\":9000:9019  _afterTokenTransfer */\n  shl(0x20, tag_43)\n    /* \"@openzeppelin/contracts/token/ERC20/ERC20.sol\":9000:9048  _afterTokenTransfer(address(0), account, amount) */\n  0x20\n  shr\n  jump\t// in\ntag_42:\n    /* \"@openzeppelin/contracts/token/ERC20/ERC20.sol\":8520:9055  function _mint(address account, uint256 amount) internal virtual {... */\n  pop\n  pop\n  jump\t// out\n    /* \"@openzeppelin/contracts/token/ERC20/ERC20.sol\":7456:8244  function _transfer(address from, address to, uint256 amount) internal virtual {... */\ntag_22:\n    /* \"@openzeppelin/contracts/token/ERC20/ERC20.sol\":7568:7569  0 */\n  0x00\n    /* \"@openzeppelin/contracts/token/ERC20/ERC20.sol\":7552:7570  from != address(0) */\n  0xffffffffffffffffffffffffffffffffffffffff\n  and\n    /* \"@openzeppelin/contracts/token/ERC20/ERC20.sol\":7552:7556  from */\n  dup4\n    /* \"@openzeppelin/contracts/token/ERC20/ERC20.sol\":7552:7570  from != address(0) */\n  0xffffffffffffffffffffffffffffffffffffffff\n  and\n  sub\n    /* \"@openzeppelin/contracts/token/ERC20/ERC20.sol\":7544:7612  require(from != address(0), \"ERC20: transfer from the zero address\") */\n  tag_45\n  jumpi\n  mload(0x40)\n  0x08c379a000000000000000000000000000000000000000000000000000000000\n  dup2\n  mstore\n  0x04\n  add\n  tag_46\n  swap1\n  tag_47\n  jump\t// in\ntag_46:\n  mload(0x40)\n  dup1\n  swap2\n  sub\n  swap1\n  revert\ntag_45:\n    /* \"@openzeppelin/contracts/token/ERC20/ERC20.sol\":7644:7645  0 */\n  0x00\n    /* \"@openzeppelin/contracts/token/ERC20/ERC20.sol\":7630:7646  to != address(0) */\n  0xffffffffffffffffffffffffffffffffffffffff\n  and\n    /* \"@openzeppelin/contracts/token/ERC20/ERC20.sol\":7630:7632  to */\n  dup3\n    /* \"@openzeppelin/contracts/token/ERC20/ERC20.sol\":7630:7646  to != address(0) */\n  0xffffffffffffffffffffffffffffffffffffffff\n  and\n  sub\n    /* \"@openzeppelin/contracts/token/ERC20/ERC20.sol\":7622:7686  require(to != address(0), \"ERC20: transfer to the zero address\") */\n  tag_48\n  jumpi\n  mload(0x40)\n  0x08c379a000000000000000000000000000000000000000000000000000000000\n  dup2\n  mstore\n  0x04\n  add\n  tag_49\n  swap1\n  tag_50\n  jump\t// in\ntag_49:\n  mload(0x40)\n  dup1\n  swap2\n  sub\n  swap1\n  revert\ntag_48:\n    /* \"@openzeppelin/contracts/token/ERC20/ERC20.sol\":7697:7735  _beforeTokenTransfer(from, to, amount) */\n  tag_51\n    /* \"@openzeppelin/contracts/token/ERC20/ERC20.sol\":7718:7722  from */\n  dup4\n    /* \"@openzeppelin/contracts/token/ERC20/ERC20.sol\":7724:7726  to */\n  dup4\n    /* \"@openzeppelin/contracts/token/ERC20/ERC20.sol\":7728:7734  amount */\n  dup4\n    /* \"@openzeppelin/contracts/token/ERC20/ERC20.sol\":7697:7717  _beforeTokenTransfer */\n  shl(0x20, tag_38)\n    /* \"@openzeppelin/contracts/token/ERC20/ERC20.sol\":7697:7735  _beforeTokenTransfer(from, to, amount) */\n  0x20\n  shr\n  jump\t// in\ntag_51:\n    /* \"@openzeppelin/contracts/token/ERC20/ERC20.sol\":7746:7765  uint256 fromBalance */\n  0x00\n    /* \"@openzeppelin/contracts/token/ERC20/ERC20.sol\":7768:7777  _balances */\n  dup1\n    /* \"@openzeppelin/contracts/token/ERC20/ERC20.sol\":7768:7783  _balances[from] */\n  0x00\n    /* \"@openzeppelin/contracts/token/ERC20/ERC20.sol\":7778:7782  from */\n  dup6\n    /* \"@openzeppelin/contracts/token/ERC20/ERC20.sol\":7768:7783  _balances[from] */\n  0xffffffffffffffffffffffffffffffffffffffff\n  and\n  0xffffffffffffffffffffffffffffffffffffffff\n  and\n  dup2\n  mstore\n  0x20\n  add\n  swap1\n  dup2\n  mstore\n  0x20\n  add\n  0x00\n  keccak256\n  sload\n    /* \"@openzeppelin/contracts/token/ERC20/ERC20.sol\":7746:7783  uint256 fromBalance = _balances[from] */\n  swap1\n  pop\n    /* \"@openzeppelin/contracts/token/ERC20/ERC20.sol\":7816:7822  amount */\n  dup2\n    /* \"@openzeppelin/contracts/token/ERC20/ERC20.sol\":7801:7812  fromBalance */\n  dup2\n    /* \"@openzeppelin/contracts/token/ERC20/ERC20.sol\":7801:7822  fromBalance >= amount */\n  lt\n  iszero\n    /* \"@openzeppelin/contracts/token/ERC20/ERC20.sol\":7793:7865  require(fromBalance >= amount, \"ERC20: transfer amount exceeds balance\") */\n  tag_52\n  jumpi\n  mload(0x40)\n  0x08c379a000000000000000000000000000000000000000000000000000000000\n  dup2\n  mstore\n  0x04\n  add\n  tag_53\n  swap1\n  tag_54\n  jump\t// in\ntag_53:\n  mload(0x40)\n  dup1\n  swap2\n  sub\n  swap1\n  revert\ntag_52:\n    /* \"@openzeppelin/contracts/token/ERC20/ERC20.sol\":7931:7937  amount */\n  dup2\n    /* \"@openzeppelin/contracts/token/ERC20/ERC20.sol\":7917:7928  fromBalance */\n  dup2\n    /* \"@openzeppelin/contracts/token/ERC20/ERC20.sol\":7917:7937  fromBalance - amount */\n  sub\n    /* \"@openzeppelin/contracts/token/ERC20/ERC20.sol\":7899:7908  _balances */\n  0x00\n    /* \"@openzeppelin/contracts/token/ERC20/ERC20.sol\":7899:7914  _balances[from] */\n  dup1\n    /* \"@openzeppelin/contracts/token/ERC20/ERC20.sol\":7909:7913  from */\n  dup7\n    /* \"@openzeppelin/contracts/token/ERC20/ERC20.sol\":7899:7914  _balances[from] */\n  0xffffffffffffffffffffffffffffffffffffffff\n  and\n  0xffffffffffffffffffffffffffffffffffffffff\n  and\n  dup2\n  mstore\n  0x20\n  add\n  swap1\n  dup2\n  mstore\n  0x20\n  add\n  0x00\n  keccak256\n    /* \"@openzeppelin/contracts/token/ERC20/ERC20.sol\":7899:7937  _balances[from] = fromBalance - amount */\n  dup2\n  swap1\n  sstore\n  pop\n    /* \"@openzeppelin/contracts/token/ERC20/ERC20.sol\":8131:8137  amount */\n  dup2\n    /* \"@openzeppelin/contracts/token/ERC20/ERC20.sol\":8114:8123  _balances */\n  0x00\n    /* \"@openzeppelin/contracts/token/ERC20/ERC20.sol\":8114:8127  _balances[to] */\n  dup1\n    /* \"@openzeppelin/contracts/token/ERC20/ERC20.sol\":8124:8126  to */\n  dup6\n    /* \"@openzeppelin/contracts/token/ERC20/ERC20.sol\":8114:8127  _balances[to] */\n  0xffffffffffffffffffffffffffffffffffffffff\n  and\n  0xffffffffffffffffffffffffffffffffffffffff\n  and\n  dup2\n  mstore\n  0x20\n  add\n  swap1\n  dup2\n  mstore\n  0x20\n  add\n  0x00\n  keccak256\n  0x00\n    /* \"@openzeppelin/contracts/token/ERC20/ERC20.sol\":8114:8137  _balances[to] += amount */\n  dup3\n  dup3\n  sload\n  add\n  swap3\n  pop\n  pop\n  dup2\n  swap1\n  sstore\n  pop\n    /* \"@openzeppelin/contracts/token/ERC20/ERC20.sol\":8178:8180  to */\n  dup3\n    /* \"@openzeppelin/contracts/token/ERC20/ERC20.sol\":8163:8189  Transfer(from, to, amount) */\n  0xffffffffffffffffffffffffffffffffffffffff\n  and\n    /* \"@openzeppelin/contracts/token/ERC20/ERC20.sol\":8172:8176  from */\n  dup5\n    /* \"@openzeppelin/contracts/token/ERC20/ERC20.sol\":8163:8189  Transfer(from, to, amount) */\n  0xffffffffffffffffffffffffffffffffffffffff\n  and\n  0xddf252ad1be2c89b69c2b068fc378daa952ba7f163c4a11628f55a4df523b3ef\n    /* \"@openzeppelin/contracts/token/ERC20/ERC20.sol\":8182:8188  amount */\n  dup5\n    /* \"@openzeppelin/contracts/token/ERC20/ERC20.sol\":8163:8189  Transfer(from, to, amount) */\n  mload(0x40)\n  tag_55\n  swap2\n  swap1\n  tag_41\n  jump\t// in\ntag_55:\n  mload(0x40)\n  dup1\n  swap2\n  sub\n  swap1\n  log3\n    /* \"@openzeppelin/contracts/token/ERC20/ERC20.sol\":8200:8237  _afterTokenTransfer(from, to, amount) */\n  tag_56\n    /* \"@openzeppelin/contracts/token/ERC20/ERC20.sol\":8220:8224  from */\n  dup5\n    /* \"@openzeppelin/contracts/token/ERC20/ERC20.sol\":8226:8228  to */\n  dup5\n    /* \"@openzeppelin/contracts/token/ERC20/ERC20.sol\":8230:8236  amount */\n  dup5\n    /* \"@openzeppelin/contracts/token/ERC20/ERC20.sol\":8200:8219  _afterTokenTransfer */\n  shl(0x20, tag_43)\n    /* \"@openzeppelin/contracts/token/ERC20/ERC20.sol\":8200:8237  _afterTokenTransfer(from, to, amount) */\n  0x20\n  shr\n  jump\t// in\ntag_56:\n    /* \"@openzeppelin/contracts/token/ERC20/ERC20.sol\":7534:8244  {... */\n  pop\n    /* \"@openzeppelin/contracts/token/ERC20/ERC20.sol\":7456:8244  function _transfer(address from, address to, uint256 amount) internal virtual {... */\n  pop\n  pop\n  pop\n  jump\t// out\n    /* \"@openzeppelin/contracts/token/ERC20/ERC20.sol\":12073:12164  function _beforeTokenTransfer(address from, address to, uint256 amount) internal virtual {} */\ntag_38:\n  pop\n  pop\n  pop\n  jump\t// out\n    /* \"@openzeppelin/contracts/token/ERC20/ERC20.sol\":12752:12842  function _afterTokenTransfer(address from, address to, uint256 amount) internal virtual {} */\ntag_43:\n  pop\n  pop\n  pop\n  jump\t// out\n    /* \"#utility.yul\":7:84   */\ntag_59:\n    /* \"#utility.yul\":44:51   */\n  0x00\n    /* \"#utility.yul\":73:78   */\n  dup2\n    /* \"#utility.yul\":62:78   */\n  swap1\n  pop\n    /* \"#utility.yul\":7:84   */\n  swap2\n  swap1\n  pop\n  jump\t// out\n    /* \"#utility.yul\":90:270   */\ntag_60:\n    /* \"#utility.yul\":138:215   */\n  0x4e487b7100000000000000000000000000000000000000000000000000000000\n    /* \"#utility.yul\":135:136   */\n  0x00\n    /* \"#utility.yul\":128:216   */\n  mstore\n    /* \"#utility.yul\":235:239   */\n  0x11\n    /* \"#utility.yul\":232:233   */\n  0x04\n    /* \"#utility.yul\":225:240   */\n  mstore\n    /* \"#utility.yul\":259:263   */\n  0x24\n    /* \"#utility.yul\":256:257   */\n  0x00\n    /* \"#utility.yul\":249:264   */\n  revert\n    /* \"#utility.yul\":276:686   */\ntag_2:\n    /* \"#utility.yul\":316:323   */\n  0x00\n    /* \"#utility.yul\":339:359   */\n  tag_95\n    /* \"#utility.yul\":357:358   */\n  dup3\n    /* \"#utility.yul\":339:359   */\n  tag_59\n  jump\t// in\ntag_95:\n    /* \"#utility.yul\":334:359   */\n  swap2\n  pop\n    /* \"#utility.yul\":373:393   */\n  tag_96\n    /* \"#utility.yul\":391:392   */\n  dup4\n    /* \"#utility.yul\":373:393   */\n  tag_59\n  jump\t// in\ntag_96:\n    /* \"#utility.yul\":368:393   */\n  swap3\n  pop\n    /* \"#utility.yul\":428:429   */\n  dup3\n    /* \"#utility.yul\":425:426   */\n  dup3\n    /* \"#utility.yul\":421:430   */\n  mul\n    /* \"#utility.yul\":450:480   */\n  tag_97\n    /* \"#utility.yul\":468:479   */\n  dup2\n    /* \"#utility.yul\":450:480   */\n  tag_59\n  jump\t// in\ntag_97:\n    /* \"#utility.yul\":439:480   */\n  swap2\n  pop\n    /* \"#utility.yul\":629:630   */\n  dup3\n    /* \"#utility.yul\":620:627   */\n  dup3\n    /* \"#utility.yul\":616:631   */\n  div\n    /* \"#utility.yul\":613:614   */\n  dup5\n    /* \"#utility.yul\":610:632   */\n  eq\n    /* \"#utility.yul\":590:591   */\n  dup4\n    /* \"#utility.yul\":583:592   */\n  iszero\n    /* \"#utility.yul\":563:646   */\n  or\n    /* \"#utility.yul\":540:679   */\n  tag_98\n  jumpi\n    /* \"#utility.yul\":659:677   */\n  tag_99\n  tag_60\n  jump\t// in\ntag_99:\n    /* \"#utility.yul\":540:679   */\ntag_98:\n    /* \"#utility.yul\":324:686   */\n  pop\n    /* \"#utility.yul\":276:686   */\n  swap3\n  swap2\n  pop\n  pop\n  jump\t// out\n    /* \"#utility.yul\":692:872   */\ntag_61:\n    /* \"#utility.yul\":740:817   */\n  0x4e487b7100000000000000000000000000000000000000000000000000000000\n    /* \"#utility.yul\":737:738   */\n  0x00\n    /* \"#utility.yul\":730:818   */\n  mstore\n    /* \"#utility.yul\":837:841   */\n  0x12\n    /* \"#utility.yul\":834:835   */\n  0x04\n    /* \"#utility.yul\":827:842   */\n  mstore\n    /* \"#utility.yul\":861:865   */\n  0x24\n    /* \"#utility.yul\":858:859   */\n  0x00\n    /* \"#utility.yul\":851:866   */\n  revert\n    /* \"#utility.yul\":878:1063   */\ntag_4:\n    /* \"#utility.yul\":918:919   */\n  0x00\n    /* \"#utility.yul\":935:955   */\n  tag_102\n    /* \"#utility.yul\":953:954   */\n  dup3\n    /* \"#utility.yul\":935:955   */\n  tag_59\n  jump\t// in\ntag_102:\n    /* \"#utility.yul\":930:955   */\n  swap2\n  pop\n    /* \"#utility.yul\":969:989   */\n  tag_103\n    /* \"#utility.yul\":987:988   */\n  dup4\n    /* \"#utility.yul\":969:989   */\n  tag_59\n  jump\t// in\ntag_103:\n    /* \"#utility.yul\":964:989   */\n  swap3\n  pop\n    /* \"#utility.yul\":1008:1009   */\n  dup3\n    /* \"#utility.yul\":998:1033   */\n  tag_104\n  jumpi\n    /* \"#utility.yul\":1013:1031   */\n  tag_105\n  tag_61\n  jump\t// in\ntag_105:\n    /* \"#utility.yul\":998:1033   */\ntag_104:\n    /* \"#utility.yul\":1055:1056   */\n  dup3\n    /* \"#utility.yul\":1052:1053   */\n  dup3\n    /* \"#utility.yul\":1048:1057   */\n  div\n    /* \"#utility.yul\":1043:1057   */\n  swap1\n  pop\n    /* \"#utility.yul\":878:1063   */\n  swap3\n  swap2\n  pop\n  pop\n  jump\t// out\n    /* \"#utility.yul\":1069:1168   */\ntag_62:\n    /* \"#utility.yul\":1121:1127   */\n  0x00\n    /* \"#utility.yul\":1155:1160   */\n  dup2\n    /* \"#utility.yul\":1149:1161   */\n  mload\n    /* \"#utility.yul\":1139:1161   */\n  swap1\n  pop\n    /* \"#utility.yul\":1069:1168   */\n  swap2\n  swap1\n  pop\n  jump\t// out\n    /* \"#utility.yul\":1174:1354   */\ntag_63:\n    /* \"#utility.yul\":1222:1299   */\n  0x4e487b7100000000000000000000000000000000000000000000000000000000\n    /* \"#utility.yul\":1219:1220   */\n  0x00\n    /* \"#utility.yul\":1212:1300   */\n  mstore\n    /* \"#utility.yul\":1319:1323   */\n  0x41\n    /* \"#utility.yul\":1316:1317   */\n  0x04\n    /* \"#utility.yul\":1309:1324   */\n  mstore\n    /* \"#utility.yul\":1343:1347   */\n  0x24\n    /* \"#utility.yul\":1340:1341   */\n  0x00\n    /* \"#utility.yul\":1333:1348   */\n  revert\n    /* \"#utility.yul\":1360:1540   */\ntag_64:\n    /* \"#utility.yul\":1408:1485   */\n  0x4e487b7100000000000000000000000000000000000000000000000000000000\n    /* \"#utility.yul\":1405:1406   */\n  0x00\n    /* \"#utility.yul\":1398:1486   */\n  mstore\n    /* \"#utility.yul\":1505:1509   */\n  0x22\n    /* \"#utility.yul\":1502:1503   */\n  0x04\n    /* \"#utility.yul\":1495:1510   */\n  mstore\n    /* \"#utility.yul\":1529:1533   */\n  0x24\n    /* \"#utility.yul\":1526:1527   */\n  0x00\n    /* \"#utility.yul\":1519:1534   */\n  revert\n    /* \"#utility.yul\":1546:1866   */\ntag_65:\n    /* \"#utility.yul\":1590:1596   */\n  0x00\n    /* \"#utility.yul\":1627:1628   */\n  0x02\n    /* \"#utility.yul\":1621:1625   */\n  dup3\n    /* \"#utility.yul\":1617:1629   */\n  div\n    /* \"#utility.yul\":1607:1629   */\n  swap1\n  pop\n    /* \"#utility.yul\":1674:1675   */\n  0x01\n    /* \"#utility.yul\":1668:1672   */\n  dup3\n    /* \"#utility.yul\":1664:1676   */\n  and\n    /* \"#utility.yul\":1695:1713   */\n  dup1\n    /* \"#utility.yul\":1685:1766   */\n  tag_110\n  jumpi\n    /* \"#utility.yul\":1751:1755   */\n  0x7f\n    /* \"#utility.yul\":1743:1749   */\n  dup3\n    /* \"#utility.yul\":1739:1756   */\n  and\n    /* \"#utility.yul\":1729:1756   */\n  swap2\n  pop\n    /* \"#utility.yul\":1685:1766   */\ntag_110:\n    /* \"#utility.yul\":1813:1815   */\n  0x20\n    /* \"#utility.yul\":1805:1811   */\n  dup3\n    /* \"#utility.yul\":1802:1816   */\n  lt\n    /* \"#utility.yul\":1782:1800   */\n  dup2\n    /* \"#utility.yul\":1779:1817   */\n  sub\n    /* \"#utility.yul\":1776:1860   */\n  tag_111\n  jumpi\n    /* \"#utility.yul\":1832:1850   */\n  tag_112\n  tag_64\n  jump\t// in\ntag_112:\n    /* \"#utility.yul\":1776:1860   */\ntag_111:\n    /* \"#utility.yul\":1597:1866   */\n  pop\n    /* \"#utility.yul\":1546:1866   */\n  swap2\n  swap1\n  pop\n  jump\t// out\n    /* \"#utility.yul\":1872:2013   */\ntag_66:\n    /* \"#utility.yul\":1921:1925   */\n  0x00\n    /* \"#utility.yul\":1944:1947   */\n  dup2\n    /* \"#utility.yul\":1936:1947   */\n  swap1\n  pop\n    /* \"#utility.yul\":1967:1970   */\n  dup2\n    /* \"#utility.yul\":1964:1965   */\n  0x00\n    /* \"#utility.yul\":1957:1971   */\n  mstore\n    /* \"#utility.yul\":2001:2005   */\n  0x20\n    /* \"#utility.yul\":1998:1999   */\n  0x00\n    /* \"#utility.yul\":1988:2006   */\n  keccak256\n    /* \"#utility.yul\":1980:2006   */\n  swap1\n  pop\n    /* \"#utility.yul\":1872:2013   */\n  swap2\n  swap1\n  pop\n  jump\t// out\n    /* \"#utility.yul\":2019:2112   */\ntag_67:\n    /* \"#utility.yul\":2056:2062   */\n  0x00\n    /* \"#utility.yul\":2103:2105   */\n  0x20\n    /* \"#utility.yul\":2098:2100   */\n  0x1f\n    /* \"#utility.yul\":2091:2096   */\n  dup4\n    /* \"#utility.yul\":2087:2101   */\n  add\n    /* \"#utility.yul\":2083:2106   */\n  div\n    /* \"#utility.yul\":2073:2106   */\n  swap1\n  pop\n    /* \"#utility.yul\":2019:2112   */\n  swap2\n  swap1\n  pop\n  jump\t// out\n    /* \"#utility.yul\":2118:2225   */\ntag_68:\n    /* \"#utility.yul\":2162:2170   */\n  0x00\n    /* \"#utility.yul\":2212:2217   */\n  dup3\n    /* \"#utility.yul\":2206:2210   */\n  dup3\n    /* \"#utility.yul\":2202:2218   */\n  shl\n    /* \"#utility.yul\":2181:2218   */\n  swap1\n  pop\n    /* \"#utility.yul\":2118:2225   */\n  swap3\n  swap2\n  pop\n  pop\n  jump\t// out\n    /* \"#utility.yul\":2231:2624   */\ntag_69:\n    /* \"#utility.yul\":2300:2306   */\n  0x00\n    /* \"#utility.yul\":2350:2351   */\n  0x08\n    /* \"#utility.yul\":2338:2348   */\n  dup4\n    /* \"#utility.yul\":2334:2352   */\n  mul\n    /* \"#utility.yul\":2373:2470   */\n  tag_117\n    /* \"#utility.yul\":2403:2469   */\n  0xffffffffffffffffffffffffffffffffffffffffffffffffffffffffffffffff\n    /* \"#utility.yul\":2392:2401   */\n  dup3\n    /* \"#utility.yul\":2373:2470   */\n  tag_68\n  jump\t// in\ntag_117:\n    /* \"#utility.yul\":2491:2530   */\n  tag_118\n    /* \"#utility.yul\":2521:2529   */\n  dup7\n    /* \"#utility.yul\":2510:2519   */\n  dup4\n    /* \"#utility.yul\":2491:2530   */\n  tag_68\n  jump\t// in\ntag_118:\n    /* \"#utility.yul\":2479:2530   */\n  swap6\n  pop\n    /* \"#utility.yul\":2563:2567   */\n  dup1\n    /* \"#utility.yul\":2559:2568   */\n  not\n    /* \"#utility.yul\":2552:2557   */\n  dup5\n    /* \"#utility.yul\":2548:2569   */\n  and\n    /* \"#utility.yul\":2539:2569   */\n  swap4\n  pop\n    /* \"#utility.yul\":2612:2616   */\n  dup1\n    /* \"#utility.yul\":2602:2610   */\n  dup7\n    /* \"#utility.yul\":2598:2617   */\n  and\n    /* \"#utility.yul\":2591:2596   */\n  dup5\n    /* \"#utility.yul\":2588:2618   */\n  or\n    /* \"#utility.yul\":2578:2618   */\n  swap3\n  pop\n    /* \"#utility.yul\":2307:2624   */\n  pop\n  pop\n    /* \"#utility.yul\":2231:2624   */\n  swap4\n  swap3\n  pop\n  pop\n  pop\n  jump\t// out\n    /* \"#utility.yul\":2630:2690   */\ntag_70:\n    /* \"#utility.yul\":2658:2661   */\n  0x00\n    /* \"#utility.yul\":2679:2684   */\n  dup2\n    /* \"#utility.yul\":2672:2684   */\n  swap1\n  pop\n    /* \"#utility.yul\":2630:2690   */\n  swap2\n  swap1\n  pop\n  jump\t// out\n    /* \"#utility.yul\":2696:2838   */\ntag_71:\n    /* \"#utility.yul\":2746:2755   */\n  0x00\n    /* \"#utility.yul\":2779:2832   */\n  tag_121\n    /* \"#utility.yul\":2797:2831   */\n  tag_122\n    /* \"#utility.yul\":2806:2830   */\n  tag_123\n    /* \"#utility.yul\":2824:2829   */\n  dup5\n    /* \"#utility.yul\":2806:2830   */\n  tag_59\n  jump\t// in\ntag_123:\n    /* \"#utility.yul\":2797:2831   */\n  tag_70\n  jump\t// in\ntag_122:\n    /* \"#utility.yul\":2779:2832   */\n  tag_59\n  jump\t// in\ntag_121:\n    /* \"#utility.yul\":2766:2832   */\n  swap1\n  pop\n    /* \"#utility.yul\":2696:2838   */\n  swap2\n  swap1\n  pop\n  jump\t// out\n    /* \"#utility.yul\":2844:2919   */\ntag_72:\n    /* \"#utility.yul\":2887:2890   */\n  0x00\n    /* \"#utility.yul\":2908:2913   */\n  dup2\n    /* \"#utility.yul\":2901:2913   */\n  swap1\n  pop\n    /* \"#utility.yul\":2844:2919   */\n  swap2\n  swap1\n  pop\n  jump\t// out\n    /* \"#utility.yul\":2925:3194   */\ntag_73:\n    /* \"#utility.yul\":3035:3074   */\n  tag_126\n    /* \"#utility.yul\":3066:3073   */\n  dup4\n    /* \"#utility.yul\":3035:3074   */\n  tag_71\n  jump\t// in\ntag_126:\n    /* \"#utility.yul\":3096:3187   */\n  tag_127\n    /* \"#utility.yul\":3145:3186   */\n  tag_128\n    /* \"#utility.yul\":3169:3185   */\n  dup3\n    /* \"#utility.yul\":3145:3186   */\n  tag_72\n  jump\t// in\ntag_128:\n    /* \"#utility.yul\":3137:3143   */\n  dup5\n    /* \"#utility.yul\":3130:3134   */\n  dup5\n    /* \"#utility.yul\":3124:3135   */\n  sload\n    /* \"#utility.yul\":3096:3187   */\n  tag_69\n  jump\t// in\ntag_127:\n    /* \"#utility.yul\":3090:3094   */\n  dup3\n    /* \"#utility.yul\":3083:3188   */\n  sstore\n    /* \"#utility.yul\":3001:3194   */\n  pop\n    /* \"#utility.yul\":2925:3194   */\n  pop\n  pop\n  pop\n  jump\t// out\n    /* \"#utility.yul\":3200:3273   */\ntag_74:\n    /* \"#utility.yul\":3245:3248   */\n  0x00\n    /* \"#utility.yul\":3200:3273   */\n  swap1\n  jump\t// out\n    /* \"#utility.yul\":3279:3468   */\ntag_75:\n    /* \"#utility.yul\":3356:3388   */\n  tag_131\n  tag_74\n  jump\t// in\ntag_131:\n    /* \"#utility.yul\":3397:3462   */\n  tag_132\n    /* \"#utility.yul\":3455:3461   */\n  dup2\n    /* \"#utility.yul\":3447:3453   */\n  dup5\n    /* \"#utility.yul\":3441:3445   */\n  dup5\n    /* \"#utility.yul\":3397:3462   */\n  tag_73\n  jump\t// in\ntag_132:\n    /* \"#utility.yul\":3332:3468   */\n  pop\n    /* \"#utility.yul\":3279:3468   */\n  pop\n  pop\n  jump\t// out\n    /* \"#utility.yul\":3474:3660   */\ntag_76:\n    /* \"#utility.yul\":3534:3654   */\ntag_134:\n    /* \"#utility.yul\":3551:3554   */\n  dup2\n    /* \"#utility.yul\":3544:3549   */\n  dup2\n    /* \"#utility.yul\":3541:3555   */\n  lt\n    /* \"#utility.yul\":3534:3654   */\n  iszero\n  tag_136\n  jumpi\n    /* \"#utility.yul\":3605:3644   */\n  tag_137\n    /* \"#utility.yul\":3642:3643   */\n  0x00\n    /* \"#utility.yul\":3635:3640   */\n  dup3\n    /* \"#utility.yul\":3605:3644   */\n  tag_75\n  jump\t// in\ntag_137:\n    /* \"#utility.yul\":3578:3579   */\n  0x01\n    /* \"#utility.yul\":3571:3576   */\n  dup2\n    /* \"#utility.yul\":3567:3580   */\n  add\n    /* \"#utility.yul\":3558:3580   */\n  swap1\n  pop\n    /* \"#utility.yul\":3534:3654   */\n  jump(tag_134)\ntag_136:\n    /* \"#utility.yul\":3474:3660   */\n  pop\n  pop\n  jump\t// out\n    /* \"#utility.yul\":3666:4209   */\ntag_77:\n    /* \"#utility.yul\":3767:3769   */\n  0x1f\n    /* \"#utility.yul\":3762:3765   */\n  dup3\n    /* \"#utility.yul\":3759:3770   */\n  gt\n    /* \"#utility.yul\":3756:4202   */\n  iszero\n  tag_139\n  jumpi\n    /* \"#utility.yul\":3801:3839   */\n  tag_140\n    /* \"#utility.yul\":3833:3838   */\n  dup2\n    /* \"#utility.yul\":3801:3839   */\n  tag_66\n  jump\t// in\ntag_140:\n    /* \"#utility.yul\":3885:3914   */\n  tag_141\n    /* \"#utility.yul\":3903:3913   */\n  dup5\n    /* \"#utility.yul\":3885:3914   */\n  tag_67\n  jump\t// in\ntag_141:\n    /* \"#utility.yul\":3875:3883   */\n  dup2\n    /* \"#utility.yul\":3871:3915   */\n  add\n    /* \"#utility.yul\":4068:4070   */\n  0x20\n    /* \"#utility.yul\":4056:4066   */\n  dup6\n    /* \"#utility.yul\":4053:4071   */\n  lt\n    /* \"#utility.yul\":4050:4099   */\n  iszero\n  tag_142\n  jumpi\n    /* \"#utility.yul\":4089:4097   */\n  dup2\n    /* \"#utility.yul\":4074:4097   */\n  swap1\n  pop\n    /* \"#utility.yul\":4050:4099   */\ntag_142:\n    /* \"#utility.yul\":4112:4192   */\n  tag_143\n    /* \"#utility.yul\":4168:4190   */\n  tag_144\n    /* \"#utility.yul\":4186:4189   */\n  dup6\n    /* \"#utility.yul\":4168:4190   */\n  tag_67\n  jump\t// in\ntag_144:\n    /* \"#utility.yul\":4158:4166   */\n  dup4\n    /* \"#utility.yul\":4154:4191   */\n  add\n    /* \"#utility.yul\":4141:4152   */\n  dup3\n    /* \"#utility.yul\":4112:4192   */\n  tag_76\n  jump\t// in\ntag_143:\n    /* \"#utility.yul\":3771:4202   */\n  pop\n  pop\n    /* \"#utility.yul\":3756:4202   */\ntag_139:\n    /* \"#utility.yul\":3666:4209   */\n  pop\n  pop\n  pop\n  jump\t// out\n    /* \"#utility.yul\":4215:4332   */\ntag_78:\n    /* \"#utility.yul\":4269:4277   */\n  0x00\n    /* \"#utility.yul\":4319:4324   */\n  dup3\n    /* \"#utility.yul\":4313:4317   */\n  dup3\n    /* \"#utility.yul\":4309:4325   */\n  shr\n    /* \"#utility.yul\":4288:4325   */\n  swap1\n  pop\n    /* \"#utility.yul\":4215:4332   */\n  swap3\n  swap2\n  pop\n  pop\n  jump\t// out\n    /* \"#utility.yul\":4338:4507   */\ntag_79:\n    /* \"#utility.yul\":4382:4388   */\n  0x00\n    /* \"#utility.yul\":4415:4466   */\n  tag_147\n    /* \"#utility.yul\":4463:4464   */\n  0x00\n    /* \"#utility.yul\":4459:4465   */\n  not\n    /* \"#utility.yul\":4451:4456   */\n  dup5\n    /* \"#utility.yul\":4448:4449   */\n  0x08\n    /* \"#utility.yul\":4444:4457   */\n  mul\n    /* \"#utility.yul\":4415:4466   */\n  tag_78\n  jump\t// in\ntag_147:\n    /* \"#utility.yul\":4411:4467   */\n  not\n    /* \"#utility.yul\":4496:4500   */\n  dup1\n    /* \"#utility.yul\":4490:4494   */\n  dup4\n    /* \"#utility.yul\":4486:4501   */\n  and\n    /* \"#utility.yul\":4476:4501   */\n  swap2\n  pop\n    /* \"#utility.yul\":4389:4507   */\n  pop\n    /* \"#utility.yul\":4338:4507   */\n  swap3\n  swap2\n  pop\n  pop\n  jump\t// out\n    /* \"#utility.yul\":4512:4807   */\ntag_80:\n    /* \"#utility.yul\":4588:4592   */\n  0x00\n    /* \"#utility.yul\":4734:4763   */\n  tag_149\n    /* \"#utility.yul\":4759:4762   */\n  dup4\n    /* \"#utility.yul\":4753:4757   */\n  dup4\n    /* \"#utility.yul\":4734:4763   */\n  tag_79\n  jump\t// in\ntag_149:\n    /* \"#utility.yul\":4726:4763   */\n  swap2\n  pop\n    /* \"#utility.yul\":4796:4799   */\n  dup3\n    /* \"#utility.yul\":4793:4794   */\n  0x02\n    /* \"#utility.yul\":4789:4800   */\n  mul\n    /* \"#utility.yul\":4783:4787   */\n  dup3\n    /* \"#utility.yul\":4780:4801   */\n  or\n    /* \"#utility.yul\":4772:4801   */\n  swap1\n  pop\n    /* \"#utility.yul\":4512:4807   */\n  swap3\n  swap2\n  pop\n  pop\n  jump\t// out\n    /* \"#utility.yul\":4812:6207   */\ntag_14:\n    /* \"#utility.yul\":4929:4966   */\n  tag_151\n    /* \"#utility.yul\":4962:4965   */\n  dup3\n    /* \"#utility.yul\":4929:4966   */\n  tag_62\n  jump\t// in\ntag_151:\n    /* \"#utility.yul\":5031:5049   */\n  0xffffffffffffffff\n    /* \"#utility.yul\":5023:5029   */\n  dup2\n    /* \"#utility.yul\":5020:5050   */\n  gt\n    /* \"#utility.yul\":5017:5073   */\n  iszero\n  tag_152\n  jumpi\n    /* \"#utility.yul\":5053:5071   */\n  tag_153\n  tag_63\n  jump\t// in\ntag_153:\n    /* \"#utility.yul\":5017:5073   */\ntag_152:\n    /* \"#utility.yul\":5097:5135   */\n  tag_154\n    /* \"#utility.yul\":5129:5133   */\n  dup3\n    /* \"#utility.yul\":5123:5134   */\n  sload\n    /* \"#utility.yul\":5097:5135   */\n  tag_65\n  jump\t// in\ntag_154:\n    /* \"#utility.yul\":5182:5249   */\n  tag_155\n    /* \"#utility.yul\":5242:5248   */\n  dup3\n    /* \"#utility.yul\":5234:5240   */\n  dup3\n    /* \"#utility.yul\":5228:5232   */\n  dup6\n    /* \"#utility.yul\":5182:5249   */\n  tag_77\n  jump\t// in\ntag_155:\n    /* \"#utility.yul\":5276:5277   */\n  0x00\n    /* \"#utility.yul\":5300:5304   */\n  0x20\n    /* \"#utility.yul\":5287:5304   */\n  swap1\n  pop\n    /* \"#utility.yul\":5332:5334   */\n  0x1f\n    /* \"#utility.yul\":5324:5330   */\n  dup4\n    /* \"#utility.yul\":5321:5335   */\n  gt\n    /* \"#utility.yul\":5349:5350   */\n  0x01\n    /* \"#utility.yul\":5344:5962   */\n  dup2\n  eq\n  tag_157\n  jumpi\n    /* \"#utility.yul\":6006:6007   */\n  0x00\n    /* \"#utility.yul\":6023:6029   */\n  dup5\n    /* \"#utility.yul\":6020:6097   */\n  iszero\n  tag_158\n  jumpi\n    /* \"#utility.yul\":6072:6081   */\n  dup3\n    /* \"#utility.yul\":6067:6070   */\n  dup8\n    /* \"#utility.yul\":6063:6082   */\n  add\n    /* \"#utility.yul\":6057:6083   */\n  mload\n    /* \"#utility.yul\":6048:6083   */\n  swap1\n  pop\n    /* \"#utility.yul\":6020:6097   */\ntag_158:\n    /* \"#utility.yul\":6123:6190   */\n  tag_159\n    /* \"#utility.yul\":6183:6189   */\n  dup6\n    /* \"#utility.yul\":6176:6181   */\n  dup3\n    /* \"#utility.yul\":6123:6190   */\n  tag_80\n  jump\t// in\ntag_159:\n    /* \"#utility.yul\":6117:6121   */\n  dup7\n    /* \"#utility.yul\":6110:6191   */\n  sstore\n    /* \"#utility.yul\":5979:6201   */\n  pop\n    /* \"#utility.yul\":5314:6201   */\n  jump(tag_156)\n    /* \"#utility.yul\":5344:5962   */\ntag_157:\n    /* \"#utility.yul\":5396:5400   */\n  0x1f\n    /* \"#utility.yul\":5392:5401   */\n  not\n    /* \"#utility.yul\":5384:5390   */\n  dup5\n    /* \"#utility.yul\":5380:5402   */\n  and\n    /* \"#utility.yul\":5430:5467   */\n  tag_160\n    /* \"#utility.yul\":5462:5466   */\n  dup7\n    /* \"#utility.yul\":5430:5467   */\n  tag_66\n  jump\t// in\ntag_160:\n    /* \"#utility.yul\":5489:5490   */\n  0x00\n    /* \"#utility.yul\":5503:5711   */\ntag_161:\n    /* \"#utility.yul\":5517:5524   */\n  dup3\n    /* \"#utility.yul\":5514:5515   */\n  dup2\n    /* \"#utility.yul\":5511:5525   */\n  lt\n    /* \"#utility.yul\":5503:5711   */\n  iszero\n  tag_163\n  jumpi\n    /* \"#utility.yul\":5596:5605   */\n  dup5\n    /* \"#utility.yul\":5591:5594   */\n  dup10\n    /* \"#utility.yul\":5587:5606   */\n  add\n    /* \"#utility.yul\":5581:5607   */\n  mload\n    /* \"#utility.yul\":5573:5579   */\n  dup3\n    /* \"#utility.yul\":5566:5608   */\n  sstore\n    /* \"#utility.yul\":5647:5648   */\n  0x01\n    /* \"#utility.yul\":5639:5645   */\n  dup3\n    /* \"#utility.yul\":5635:5649   */\n  add\n    /* \"#utility.yul\":5625:5649   */\n  swap2\n  pop\n    /* \"#utility.yul\":5694:5696   */\n  0x20\n    /* \"#utility.yul\":5683:5692   */\n  dup6\n    /* \"#utility.yul\":5679:5697   */\n  add\n    /* \"#utility.yul\":5666:5697   */\n  swap5\n  pop\n    /* \"#utility.yul\":5540:5544   */\n  0x20\n    /* \"#utility.yul\":5537:5538   */\n  dup2\n    /* \"#utility.yul\":5533:5545   */\n  add\n    /* \"#utility.yul\":5528:5545   */\n  swap1\n  pop\n    /* \"#utility.yul\":5503:5711   */\n  jump(tag_161)\ntag_163:\n    /* \"#utility.yul\":5739:5745   */\n  dup7\n    /* \"#utility.yul\":5730:5737   */\n  dup4\n    /* \"#utility.yul\":5727:5746   */\n  lt\n    /* \"#utility.yul\":5724:5903   */\n  iszero\n  tag_164\n  jumpi\n    /* \"#utility.yul\":5797:5806   */\n  dup5\n    /* \"#utility.yul\":5792:5795   */\n  dup10\n    /* \"#utility.yul\":5788:5807   */\n  add\n    /* \"#utility.yul\":5782:5808   */\n  mload\n    /* \"#utility.yul\":5840:5888   */\n  tag_165\n    /* \"#utility.yul\":5882:5886   */\n  0x1f\n    /* \"#utility.yul\":5874:5880   */\n  dup10\n    /* \"#utility.yul\":5870:5887   */\n  and\n    /* \"#utility.yul\":5859:5868   */\n  dup3\n    /* \"#utility.yul\":5840:5888   */\n  tag_79\n  jump\t// in\ntag_165:\n    /* \"#utility.yul\":5832:5838   */\n  dup4\n    /* \"#utility.yul\":5825:5889   */\n  sstore\n    /* \"#utility.yul\":5747:5903   */\n  pop\n    /* \"#utility.yul\":5724:5903   */\ntag_164:\n    /* \"#utility.yul\":5949:5950   */\n  0x01\n    /* \"#utility.yul\":5945:5946   */\n  0x02\n    /* \"#utility.yul\":5937:5943   */\n  dup9\n    /* \"#utility.yul\":5933:5947   */\n  mul\n    /* \"#utility.yul\":5929:5951   */\n  add\n    /* \"#utility.yul\":5923:5927   */\n  dup9\n    /* \"#utility.yul\":5916:5952   */\n  sstore\n    /* \"#utility.yul\":5351:5962   */\n  pop\n  pop\n  pop\n    /* \"#utility.yul\":5314:6201   */\ntag_156:\n  pop\n    /* \"#utility.yul\":4904:6207   */\n  pop\n  pop\n  pop\n    /* \"#utility.yul\":4812:6207   */\n  pop\n  pop\n  jump\t// out\n    /* \"#utility.yul\":6213:6404   */\ntag_30:\n    /* \"#utility.yul\":6253:6256   */\n  0x00\n    /* \"#utility.yul\":6272:6292   */\n  tag_167\n    /* \"#utility.yul\":6290:6291   */\n  dup3\n    /* \"#utility.yul\":6272:6292   */\n  tag_59\n  jump\t// in\ntag_167:\n    /* \"#utility.yul\":6267:6292   */\n  swap2\n  pop\n    /* \"#utility.yul\":6306:6326   */\n  tag_168\n    /* \"#utility.yul\":6324:6325   */\n  dup4\n    /* \"#utility.yul\":6306:6326   */\n  tag_59\n  jump\t// in\ntag_168:\n    /* \"#utility.yul\":6301:6326   */\n  swap3\n  pop\n    /* \"#utility.yul\":6349:6350   */\n  dup3\n    /* \"#utility.yul\":6346:6347   */\n  dup3\n    /* \"#utility.yul\":6342:6351   */\n  add\n    /* \"#utility.yul\":6335:6351   */\n  swap1\n  pop\n    /* \"#utility.yul\":6370:6373   */\n  dup1\n    /* \"#utility.yul\":6367:6368   */\n  dup3\n    /* \"#utility.yul\":6364:6374   */\n  gt\n    /* \"#utility.yul\":6361:6397   */\n  iszero\n  tag_169\n  jumpi\n    /* \"#utility.yul\":6377:6395   */\n  tag_170\n  tag_60\n  jump\t// in\ntag_170:\n    /* \"#utility.yul\":6361:6397   */\ntag_169:\n    /* \"#utility.yul\":6213:6404   */\n  swap3\n  swap2\n  pop\n  pop\n  jump\t// out\n    /* \"#utility.yul\":6410:6579   */\ntag_81:\n    /* \"#utility.yul\":6494:6505   */\n  0x00\n    /* \"#utility.yul\":6528:6534   */\n  dup3\n    /* \"#utility.yul\":6523:6526   */\n  dup3\n    /* \"#utility.yul\":6516:6535   */\n  mstore\n    /* \"#utility.yul\":6568:6572   */\n  0x20\n    /* \"#utility.yul\":6563:6566   */\n  dup3\n    /* \"#utility.yul\":6559:6573   */\n  add\n    /* \"#utility.yul\":6544:6573   */\n  swap1\n  pop\n    /* \"#utility.yul\":6410:6579   */\n  swap3\n  swap2\n  pop\n  pop\n  jump\t// out\n    /* \"#utility.yul\":6585:6766   */\ntag_82:\n    /* \"#utility.yul\":6725:6758   */\n  0x45524332303a206d696e7420746f20746865207a65726f206164647265737300\n    /* \"#utility.yul\":6721:6722   */\n  0x00\n    /* \"#utility.yul\":6713:6719   */\n  dup3\n    /* \"#utility.yul\":6709:6723   */\n  add\n    /* \"#utility.yul\":6702:6759   */\n  mstore\n    /* \"#utility.yul\":6585:6766   */\n  pop\n  jump\t// out\n    /* \"#utility.yul\":6772:7138   */\ntag_83:\n    /* \"#utility.yul\":6914:6917   */\n  0x00\n    /* \"#utility.yul\":6935:7002   */\n  tag_174\n    /* \"#utility.yul\":6999:7001   */\n  0x1f\n    /* \"#utility.yul\":6994:6997   */\n  dup4\n    /* \"#utility.yul\":6935:7002   */\n  tag_81\n  jump\t// in\ntag_174:\n    /* \"#utility.yul\":6928:7002   */\n  swap2\n  pop\n    /* \"#utility.yul\":7011:7104   */\n  tag_175\n    /* \"#utility.yul\":7100:7103   */\n  dup3\n    /* \"#utility.yul\":7011:7104   */\n  tag_82\n  jump\t// in\ntag_175:\n    /* \"#utility.yul\":7129:7131   */\n  0x20\n    /* \"#utility.yul\":7124:7127   */\n  dup3\n    /* \"#utility.yul\":7120:7132   */\n  add\n    /* \"#utility.yul\":7113:7132   */\n  swap1\n  pop\n    /* \"#utility.yul\":6772:7138   */\n  swap2\n  swap1\n  pop\n  jump\t// out\n    /* \"#utility.yul\":7144:7563   */\ntag_36:\n    /* \"#utility.yul\":7310:7314   */\n  0x00\n    /* \"#utility.yul\":7348:7350   */\n  0x20\n    /* \"#utility.yul\":7337:7346   */\n  dup3\n    /* \"#utility.yul\":7333:7351   */\n  add\n    /* \"#utility.yul\":7325:7351   */\n  swap1\n  pop\n    /* \"#utility.yul\":7397:7406   */\n  dup2\n    /* \"#utility.yul\":7391:7395   */\n  dup2\n    /* \"#utility.yul\":7387:7407   */\n  sub\n    /* \"#utility.yul\":7383:7384   */\n  0x00\n    /* \"#utility.yul\":7372:7381   */\n  dup4\n    /* \"#utility.yul\":7368:7385   */\n  add\n    /* \"#utility.yul\":7361:7408   */\n  mstore\n    /* \"#utility.yul\":7425:7556   */\n  tag_177\n    /* \"#utility.yul\":7551:7555   */\n  dup2\n    /* \"#utility.yul\":7425:7556   */\n  tag_83\n  jump\t// in\ntag_177:\n    /* \"#utility.yul\":7417:7556   */\n  swap1\n  pop\n    /* \"#utility.yul\":7144:7563   */\n  swap2\n  swap1\n  pop\n  jump\t// out\n    /* \"#utility.yul\":7569:7687   */\ntag_84:\n    /* \"#utility.yul\":7656:7680   */\n  tag_179\n    /* \"#utility.yul\":7674:7679   */\n  dup2\n    /* \"#utility.yul\":7656:7680   */\n  tag_59\n  jump\t// in\ntag_179:\n    /* \"#utility.yul\":7651:7654   */\n  dup3\n    /* \"#utility.yul\":7644:7681   */\n  mstore\n    /* \"#utility.yul\":7569:7687   */\n  pop\n  pop\n  jump\t// out\n    /* \"#utility.yul\":7693:7915   */\ntag_41:\n    /* \"#utility.yul\":7786:7790   */\n  0x00\n    /* \"#utility.yul\":7824:7826   */\n  0x20\n    /* \"#utility.yul\":7813:7822   */\n  dup3\n    /* \"#utility.yul\":7809:7827   */\n  add\n    /* \"#utility.yul\":7801:7827   */\n  swap1\n  pop\n    /* \"#utility.yul\":7837:7908   */\n  tag_181\n    /* \"#utility.yul\":7905:7906   */\n  0x00\n    /* \"#utility.yul\":7894:7903   */\n  dup4\n    /* \"#utility.yul\":7890:7907   */\n  add\n    /* \"#utility.yul\":7881:7887   */\n  dup5\n    /* \"#utility.yul\":7837:7908   */\n  tag_84\n  jump\t// in\ntag_181:\n    /* \"#utility.yul\":7693:7915   */\n  swap3\n  swap2\n  pop\n  pop\n  jump\t// out\n    /* \"#utility.yul\":7921:8145   */\ntag_85:\n    /* \"#utility.yul\":8061:8095   */\n  0x45524332303a207472616e736665722066726f6d20746865207a65726f206164\n    /* \"#utility.yul\":8057:8058   */\n  0x00\n    /* \"#utility.yul\":8049:8055   */\n  dup3\n    /* \"#utility.yul\":8045:8059   */\n  add\n    /* \"#utility.yul\":8038:8096   */\n  mstore\n    /* \"#utility.yul\":8130:8137   */\n  0x6472657373000000000000000000000000000000000000000000000000000000\n    /* \"#utility.yul\":8125:8127   */\n  0x20\n    /* \"#utility.yul\":8117:8123   */\n  dup3\n    /* \"#utility.yul\":8113:8128   */\n  add\n    /* \"#utility.yul\":8106:8138   */\n  mstore\n    /* \"#utility.yul\":7921:8145   */\n  pop\n  jump\t// out\n    /* \"#utility.yul\":8151:8517   */\ntag_86:\n    /* \"#utility.yul\":8293:8296   */\n  0x00\n    /* \"#utility.yul\":8314:8381   */\n  tag_184\n    /* \"#utility.yul\":8378:8380   */\n  0x25\n    /* \"#utility.yul\":8373:8376   */\n  dup4\n    /* \"#utility.yul\":8314:8381   */\n  tag_81\n  jump\t// in\ntag_184:\n    /* \"#utility.yul\":8307:8381   */\n  swap2\n  pop\n    /* \"#utility.yul\":8390:8483   */\n  tag_185\n    /* \"#utility.yul\":8479:8482   */\n  dup3\n    /* \"#utility.yul\":8390:8483   */\n  tag_85\n  jump\t// in\ntag_185:\n    /* \"#utility.yul\":8508:8510   */\n  0x40\n    /* \"#utility.yul\":8503:8506   */\n  dup3\n    /* \"#utility.yul\":8499:8511   */\n  add\n    /* \"#utility.yul\":8492:8511   */\n  swap1\n  pop\n    /* \"#utility.yul\":8151:8517   */\n  swap2\n  swap1\n  pop\n  jump\t// out\n    /* \"#utility.yul\":8523:8942   */\ntag_47:\n    /* \"#utility.yul\":8689:8693   */\n  0x00\n    /* \"#utility.yul\":8727:8729   */\n  0x20\n    /* \"#utility.yul\":8716:8725   */\n  dup3\n    /* \"#utility.yul\":8712:8730   */\n  add\n    /* \"#utility.yul\":8704:8730   */\n  swap1\n  pop\n    /* \"#utility.yul\":8776:8785   */\n  dup2\n    /* \"#utility.yul\":8770:8774   */\n  dup2\n    /* \"#utility.yul\":8766:8786   */\n  sub\n    /* \"#utility.yul\":8762:8763   */\n  0x00\n    /* \"#utility.yul\":8751:8760   */\n  dup4\n    /* \"#utility.yul\":8747:8764   */\n  add\n    /* \"#utility.yul\":8740:8787   */\n  mstore\n    /* \"#utility.yul\":8804:8935   */\n  tag_187\n    /* \"#utility.yul\":8930:8934   */\n  dup2\n    /* \"#utility.yul\":8804:8935   */\n  tag_86\n  jump\t// in\ntag_187:\n    /* \"#utility.yul\":8796:8935   */\n  swap1\n  pop\n    /* \"#utility.yul\":8523:8942   */\n  swap2\n  swap1\n  pop\n  jump\t// out\n    /* \"#utility.yul\":8948:9170   */\ntag_87:\n    /* \"#utility.yul\":9088:9122   */\n  0x45524332303a207472616e7366657220746f20746865207a65726f2061646472\n    /* \"#utility.yul\":9084:9085   */\n  0x00\n    /* \"#utility.yul\":9076:9082   */\n  dup3\n    /* \"#utility.yul\":9072:9086   */\n  add\n    /* \"#utility.yul\":9065:9123   */\n  mstore\n    /* \"#utility.yul\":9157:9162   */\n  0x6573730000000000000000000000000000000000000000000000000000000000\n    /* \"#utility.yul\":9152:9154   */\n  0x20\n    /* \"#utility.yul\":9144:9150   */\n  dup3\n    /* \"#utility.yul\":9140:9155   */\n  add\n    /* \"#utility.yul\":9133:9163   */\n  mstore\n    /* \"#utility.yul\":8948:9170   */\n  pop\n  jump\t// out\n    /* \"#utility.yul\":9176:9542   */\ntag_88:\n    /* \"#utility.yul\":9318:9321   */\n  0x00\n    /* \"#utility.yul\":9339:9406   */\n  tag_190\n    /* \"#utility.yul\":9403:9405   */\n  0x23\n    /* \"#utility.yul\":9398:9401   */\n  dup4\n    /* \"#utility.yul\":9339:9406   */\n  tag_81\n  jump\t// in\ntag_190:\n    /* \"#utility.yul\":9332:9406   */\n  swap2\n  pop\n    /* \"#utility.yul\":9415:9508   */\n  tag_191\n    /* \"#utility.yul\":9504:9507   */\n  dup3\n    /* \"#utility.yul\":9415:9508   */\n  tag_87\n  jump\t// in\ntag_191:\n    /* \"#utility.yul\":9533:9535   */\n  0x40\n    /* \"#utility.yul\":9528:9531   */\n  dup3\n    /* \"#utility.yul\":9524:9536   */\n  add\n    /* \"#utility.yul\":9517:9536   */\n  swap1\n  pop\n    /* \"#utility.yul\":9176:9542   */\n  swap2\n  swap1\n  pop\n  jump\t// out\n    /* \"#utility.yul\":9548:9967   */\ntag_50:\n    /* \"#utility.yul\":9714:9718   */\n  0x00\n    /* \"#utility.yul\":9752:9754   */\n  0x20\n    /* \"#utility.yul\":9741:9750   */\n  dup3\n    /* \"#utility.yul\":9737:9755   */\n  add\n    /* \"#utility.yul\":9729:9755   */\n  swap1\n  pop\n    /* \"#utility.yul\":9801:9810   */\n  dup2\n    /* \"#utility.yul\":9795:9799   */\n  dup2\n    /* \"#utility.yul\":9791:9811   */\n  sub\n    /* \"#utility.yul\":9787:9788   */\n  0x00\n    /* \"#utility.yul\":9776:9785   */\n  dup4\n    /* \"#utility.yul\":9772:9789   */\n  add\n    /* \"#utility.yul\":9765:9812   */\n  mstore\n    /* \"#utility.yul\":9829:9960   */\n  tag_193\n    /* \"#utility.yul\":9955:9959   */\n  dup2\n    /* \"#utility.yul\":9829:9960   */\n  tag_88\n  jump\t// in\ntag_193:\n    /* \"#utility.yul\":9821:9960   */\n  swap1\n  pop\n    /* \"#utility.yul\":9548:9967   */\n  swap2\n  swap1\n  pop\n  jump\t// out\n    /* \"#utility.yul\":9973:10198   */\ntag_89:\n    /* \"#utility.yul\":10113:10147   */\n  0x45524332303a207472616e7366657220616d6f756e7420657863656564732062\n    /* \"#utility.yul\":10109:10110   */\n  0x00\n    /* \"#utility.yul\":10101:10107   */\n  dup3\n    /* \"#utility.yul\":10097:10111   */\n  add\n    /* \"#utility.yul\":10090:10148   */\n  mstore\n    /* \"#utility.yul\":10182:10190   */\n  0x616c616e63650000000000000000000000000000000000000000000000000000\n    /* \"#utility.yul\":10177:10179   */\n  0x20\n    /* \"#utility.yul\":10169:10175   */\n  dup3\n    /* \"#utility.yul\":10165:10180   */\n  add\n    /* \"#utility.yul\":10158:10191   */\n  mstore\n    /* \"#utility.yul\":9973:10198   */\n  pop\n  jump\t// out\n    /* \"#utility.yul\":10204:10570   */\ntag_90:\n    /* \"#utility.yul\":10346:10349   */\n  0x00\n    /* \"#utility.yul\":10367:10434   */\n  tag_196\n    /* \"#utility.yul\":10431:10433   */\n  0x26\n    /* \"#utility.yul\":10426:10429   */\n  dup4\n    /* \"#utility.yul\":10367:10434   */\n  tag_81\n  jump\t// in\ntag_196:\n    /* \"#utility.yul\":10360:10434   */\n  swap2\n  pop\n    /* \"#utility.yul\":10443:10536   */\n  tag_197\n    /* \"#utility.yul\":10532:10535   */\n  dup3\n    /* \"#utility.yul\":10443:10536   */\n  tag_89\n  jump\t// in\ntag_197:\n    /* \"#utility.yul\":10561:10563   */\n  0x40\n    /* \"#utility.yul\":10556:10559   */\n  dup3\n    /* \"#utility.yul\":10552:10564   */\n  add\n    /* \"#utility.yul\":10545:10564   */\n  swap1\n  pop\n    /* \"#utility.yul\":10204:10570   */\n  swap2\n  swap1\n  pop\n  jump\t// out\n    /* \"#utility.yul\":10576:10995   */\ntag_54:\n    /* \"#utility.yul\":10742:10746   */\n  0x00\n    /* \"#utility.yul\":10780:10782   */\n  0x20\n    /* \"#utility.yul\":10769:10778   */\n  dup3\n    /* \"#utility.yul\":10765:10783   */\n  add\n    /* \"#utility.yul\":10757:10783   */\n  swap1\n  pop\n    /* \"#utility.yul\":10829:10838   */\n  dup2\n    /* \"#utility.yul\":10823:10827   */\n  dup2\n    /* \"#utility.yul\":10819:10839   */\n  sub\n    /* \"#utility.yul\":10815:10816   */\n  0x00\n    /* \"#utility.yul\":10804:10813   */\n  dup4\n    /* \"#utility.yul\":10800:10817   */\n  add\n    /* \"#utility.yul\":10793:10840   */\n  mstore\n    /* \"#utility.yul\":10857:10988   */\n  tag_199\n    /* \"#utility.yul\":10983:10987   */\n  dup2\n    /* \"#utility.yul\":10857:10988   */\n  tag_90\n  jump\t// in\ntag_199:\n    /* \"#utility.yul\":10849:10988   */\n  swap1\n  pop\n    /* \"#utility.yul\":10576:10995   */\n  swap2\n  swap1\n  pop\n  jump\t// out\n    /* \"contracts/block.sol\":114:3126  contract CryptoMonster is ERC20(\"CryptoMonster\", \"CMON\") {... */\ntag_32:\n  dataSize(sub_0)\n  dup1\n  dataOffset(sub_0)\n  0x00\n  codecopy\n  0x00\n  return\nstop\n\nsub_0: assembly {\n        /* \"contracts/block.sol\":114:3126  contract CryptoMonster is ERC20(\"CryptoMonster\", \"CMON\") {... */\n      mstore(0x40, 0x80)\n      jumpi(tag_1, lt(calldatasize, 0x04))\n      shr(0xe0, calldataload(0x00))\n      dup1\n      0x548db174\n      gt\n      tag_24\n      jumpi\n      dup1\n      0x95d89b41\n      gt\n      tag_25\n      jumpi\n      dup1\n      0x95d89b41\n      eq\n      tag_18\n      jumpi\n      dup1\n      0x9b19251a\n      eq\n      tag_19\n      jumpi\n      dup1\n      0xa457c2d7\n      eq\n      tag_20\n      jumpi\n      dup1\n      0xa9059cbb\n      eq\n      tag_21\n      jumpi\n      dup1\n      0xdd62ed3e\n      eq\n      tag_22\n      jumpi\n      dup1\n      0xe77ff818\n      eq\n      tag_23\n      jumpi\n      jump(tag_1)\n    tag_25:\n      dup1\n      0x548db174\n      eq\n      tag_13\n      jumpi\n      dup1\n      0x70a08231\n      eq\n      tag_14\n      jumpi\n      dup1\n      0x78e97925\n      eq\n      tag_15\n      jumpi\n      dup1\n      0x7f649783\n      eq\n      tag_16\n      jumpi\n      dup1\n      0x8da5cb5b\n      eq\n      tag_17\n      jumpi\n      jump(tag_1)\n    tag_24:\n      dup1\n      0x23b872dd\n      gt\n      tag_26\n      jumpi\n      dup1\n      0x23b872dd\n      eq\n      tag_7\n      jumpi\n      dup1\n      0x313ce567\n      eq\n      tag_8\n      jumpi\n      dup1\n      0x39509351\n      eq\n      tag_9\n      jumpi\n      dup1\n      0x3b6b4a42\n      eq\n      tag_10\n      jumpi\n      dup1\n      0x426c4e63\n      eq\n      tag_11\n      jumpi\n      dup1\n      0x4822b5d6\n      eq\n      tag_12\n      jumpi\n      jump(tag_1)\n    tag_26:\n      dup1\n      0x06fdde03\n      eq\n      tag_2\n      jumpi\n      dup1\n      0x095ea7b3\n      eq\n      tag_3\n      jumpi\n      dup1\n      0x0c1c972a\n      eq\n      tag_4\n      jumpi\n      dup1\n      0x18160ddd\n      eq\n      tag_5\n      jumpi\n      dup1\n      0x1e4d185f\n      eq\n      tag_6\n      jumpi\n    tag_1:\n      0x00\n      dup1\n      revert\n        /* \"@openzeppelin/contracts/token/ERC20/ERC20.sol\":2158:2256  function name() public view virtual override returns (string memory) {... */\n    tag_2:\n      callvalue\n      dup1\n      iszero\n      tag_27\n      jumpi\n      0x00\n      dup1\n      revert\n    tag_27:\n      pop\n      tag_28\n      tag_29\n      jump\t// in\n    tag_28:\n      mload(0x40)\n      tag_30\n      swap2\n      swap1\n      tag_31\n      jump\t// in\n    tag_30:\n      mload(0x40)\n      dup1\n      swap2\n      sub\n      swap1\n      return\n        /* \"@openzeppelin/contracts/token/ERC20/ERC20.sol\":4444:4641  function approve(address spender, uint256 amount) public virtual override returns (bool) {... */\n    tag_3:\n      callvalue\n      dup1\n      iszero\n      tag_32\n      jumpi\n      0x00\n      dup1\n      revert\n    tag_32:\n      pop\n      tag_33\n      0x04\n      dup1\n      calldatasize\n      sub\n      dup2\n      add\n      swap1\n      tag_34\n      swap2\n      swap1\n      tag_35\n      jump\t// in\n    tag_34:\n      tag_36\n      jump\t// in\n    tag_33:\n      mload(0x40)\n      tag_37\n      swap2\n      swap1\n      tag_38\n      jump\t// in\n    tag_37:\n      mload(0x40)\n      dup1\n      swap2\n      sub\n      swap1\n      return\n        /* \"contracts/block.sol\":1308:1498  function startPublicSale() external view onlyOwner {... */\n    tag_4:\n      callvalue\n      dup1\n      iszero\n      tag_39\n      jumpi\n      0x00\n      dup1\n      revert\n    tag_39:\n      pop\n      tag_40\n      tag_41\n      jump\t// in\n    tag_40:\n      stop\n        /* \"@openzeppelin/contracts/token/ERC20/ERC20.sol\":3255:3361  function totalSupply() public view virtual override returns (uint256) {... */\n    tag_5:\n      callvalue\n      dup1\n      iszero\n      tag_42\n      jumpi\n      0x00\n      dup1\n      revert\n    tag_42:\n      pop\n      tag_43\n      tag_44\n      jump\t// in\n    tag_43:\n      mload(0x40)\n      tag_45\n      swap2\n      swap1\n      tag_46\n      jump\t// in\n    tag_45:\n      mload(0x40)\n      dup1\n      swap2\n      sub\n      swap1\n      return\n        /* \"contracts/block.sol\":468:500  uint256 public publicSaleEndTime */\n    tag_6:\n      callvalue\n      dup1\n      iszero\n      tag_47\n      jumpi\n      0x00\n      dup1\n      revert\n    tag_47:\n      pop\n      tag_48\n      tag_49\n      jump\t// in\n    tag_48:\n      mload(0x40)\n      tag_50\n      swap2\n      swap1\n      tag_46\n      jump\t// in\n    tag_50:\n      mload(0x40)\n      dup1\n      swap2\n      sub\n      swap1\n      return\n        /* \"@openzeppelin/contracts/token/ERC20/ERC20.sol\":5203:5459  function transferFrom(address from, address to, uint256 amount) public virtual override returns (bool) {... */\n    tag_7:\n      callvalue\n      dup1\n      iszero\n      tag_51\n      jumpi\n      0x00\n      dup1\n      revert\n    tag_51:\n      pop\n      tag_52\n      0x04\n      dup1\n      calldatasize\n      sub\n      dup2\n      add\n      swap1\n      tag_53\n      swap2\n      swap1\n      tag_54\n      jump\t// in\n    tag_53:\n      tag_55\n      jump\t// in\n    tag_52:\n      mload(0x40)\n      tag_56\n      swap2\n      swap1\n      tag_38\n      jump\t// in\n    tag_56:\n      mload(0x40)\n      dup1\n      swap2\n      sub\n      swap1\n      return\n        /* \"@openzeppelin/contracts/token/ERC20/ERC20.sol\":3104:3195  function decimals() public view virtual override returns (uint8) {... */\n    tag_8:\n      callvalue\n      dup1\n      iszero\n      tag_57\n      jumpi\n      0x00\n      dup1\n      revert\n    tag_57:\n      pop\n      tag_58\n      tag_59\n      jump\t// in\n    tag_58:\n      mload(0x40)\n      tag_60\n      swap2\n      swap1\n      tag_61\n      jump\t// in\n    tag_60:\n      mload(0x40)\n      dup1\n      swap2\n      sub\n      swap1\n      return\n        /* \"@openzeppelin/contracts/token/ERC20/ERC20.sol\":5854:6088  function increaseAllowance(address spender, uint256 addedValue) public virtual returns (bool) {... */\n    tag_9:\n      callvalue\n      dup1\n      iszero\n      tag_62\n      jumpi\n      0x00\n      dup1\n      revert\n    tag_62:\n      pop\n      tag_63\n      0x04\n      dup1\n      calldatasize\n      sub\n      dup2\n      add\n      swap1\n      tag_64\n      swap2\n      swap1\n      tag_35\n      jump\t// in\n    tag_64:\n      tag_65\n      jump\t// in\n    tag_63:\n      mload(0x40)\n      tag_66\n      swap2\n      swap1\n      tag_38\n      jump\t// in\n    tag_66:\n      mload(0x40)\n      dup1\n      swap2\n      sub\n      swap1\n      return\n        /* \"contracts/block.sol\":2470:2982  function buyPublicTokens(uint256 amount) external payable {... */\n    tag_10:\n      tag_67\n      0x04\n      dup1\n      calldatasize\n      sub\n      dup2\n      add\n      swap1\n      tag_68\n      swap2\n      swap1\n      tag_69\n      jump\t// in\n    tag_68:\n      tag_70\n      jump\t// in\n    tag_67:\n      stop\n        /* \"contracts/block.sol\":2988:3124  function transferPublicTokens(address recipient, uint256 amount) external onlyOwner {... */\n    tag_11:\n      callvalue\n      dup1\n      iszero\n      tag_71\n      jumpi\n      0x00\n      dup1\n      revert\n    tag_71:\n      pop\n      tag_72\n      0x04\n      dup1\n      calldatasize\n      sub\n      dup2\n      add\n      swap1\n      tag_73\n      swap2\n      swap1\n      tag_35\n      jump\t// in\n    tag_73:\n      tag_74\n      jump\t// in\n    tag_72:\n      stop\n        /* \"contracts/block.sol\":1873:2464  function buyPrivateTokens(uint256 amount) external payable {... */\n    tag_12:\n      tag_75\n      0x04\n      dup1\n      calldatasize\n      sub\n      dup2\n      add\n      swap1\n      tag_76\n      swap2\n      swap1\n      tag_69\n      jump\t// in\n    tag_76:\n      tag_77\n      jump\t// in\n    tag_75:\n      stop\n        /* \"contracts/block.sol\":1684:1867  function removeFromWhitelist(address[] memory users) external onlyOwner {... */\n    tag_13:\n      callvalue\n      dup1\n      iszero\n      tag_78\n      jumpi\n      0x00\n      dup1\n      revert\n    tag_78:\n      pop\n      tag_79\n      0x04\n      dup1\n      calldatasize\n      sub\n      dup2\n      add\n      swap1\n      tag_80\n      swap2\n      swap1\n      tag_81\n      jump\t// in\n    tag_80:\n      tag_82\n      jump\t// in\n    tag_79:\n      stop\n        /* \"@openzeppelin/contracts/token/ERC20/ERC20.sol\":3419:3544  function balanceOf(address account) public view virtual override returns (uint256) {... */\n    tag_14:\n      callvalue\n      dup1\n      iszero\n      tag_83\n      jumpi\n      0x00\n      dup1\n      revert\n    tag_83:\n      pop\n      tag_84\n      0x04\n      dup1\n      calldatasize\n      sub\n      dup2\n      add\n      swap1\n      tag_85\n      swap2\n      swap1\n      tag_86\n      jump\t// in\n    tag_85:\n      tag_87\n      jump\t// in\n    tag_84:\n      mload(0x40)\n      tag_88\n      swap2\n      swap1\n      tag_46\n      jump\t// in\n    tag_88:\n      mload(0x40)\n      dup1\n      swap2\n      sub\n      swap1\n      return\n        /* \"contracts/block.sol\":399:423  uint256 public startTime */\n    tag_15:\n      callvalue\n      dup1\n      iszero\n      tag_89\n      jumpi\n      0x00\n      dup1\n      revert\n    tag_89:\n      pop\n      tag_90\n      tag_91\n      jump\t// in\n    tag_90:\n      mload(0x40)\n      tag_92\n      swap2\n      swap1\n      tag_46\n      jump\t// in\n    tag_92:\n      mload(0x40)\n      dup1\n      swap2\n      sub\n      swap1\n      return\n        /* \"contracts/block.sol\":1504:1678  function addToWhitelist(address[] memory users) external onlyOwner {... */\n    tag_16:\n      callvalue\n      dup1\n      iszero\n      tag_93\n      jumpi\n      0x00\n      dup1\n      revert\n    tag_93:\n      pop\n      tag_94\n      0x04\n      dup1\n      calldatasize\n      sub\n      dup2\n      add\n      swap1\n      tag_95\n      swap2\n      swap1\n      tag_81\n      jump\t// in\n    tag_95:\n      tag_96\n      jump\t// in\n    tag_94:\n      stop\n        /* \"contracts/block.sol\":177:197  address public owner */\n    tag_17:\n      callvalue\n      dup1\n      iszero\n      tag_97\n      jumpi\n      0x00\n      dup1\n      revert\n    tag_97:\n      pop\n      tag_98\n      tag_99\n      jump\t// in\n    tag_98:\n      mload(0x40)\n      tag_100\n      swap2\n      swap1\n      tag_101\n      jump\t// in\n    tag_100:\n      mload(0x40)\n      dup1\n      swap2\n      sub\n      swap1\n      return\n        /* \"@openzeppelin/contracts/token/ERC20/ERC20.sol\":2369:2471  function symbol() public view virtual override returns (string memory) {... */\n    tag_18:\n      callvalue\n      dup1\n      iszero\n      tag_102\n      jumpi\n      0x00\n      dup1\n      revert\n    tag_102:\n      pop\n      tag_103\n      tag_104\n      jump\t// in\n    tag_103:\n      mload(0x40)\n      tag_105\n      swap2\n      swap1\n      tag_31\n      jump\t// in\n    tag_105:\n      mload(0x40)\n      dup1\n      swap2\n      sub\n      swap1\n      return\n        /* \"contracts/block.sol\":507:548  mapping(address => bool) public whitelist */\n    tag_19:\n      callvalue\n      dup1\n      iszero\n      tag_106\n      jumpi\n      0x00\n      dup1\n      revert\n    tag_106:\n      pop\n      tag_107\n      0x04\n      dup1\n      calldatasize\n      sub\n      dup2\n      add\n      swap1\n      tag_108\n      swap2\n      swap1\n      tag_86\n      jump\t// in\n    tag_108:\n      tag_109\n      jump\t// in\n    tag_107:\n      mload(0x40)\n      tag_110\n      swap2\n      swap1\n      tag_38\n      jump\t// in\n    tag_110:\n      mload(0x40)\n      dup1\n      swap2\n      sub\n      swap1\n      return\n        /* \"@openzeppelin/contracts/token/ERC20/ERC20.sol\":6575:7002  function decreaseAllowance(address spender, uint256 subtractedValue) public virtual returns (bool) {... */\n    tag_20:\n      callvalue\n      dup1\n      iszero\n      tag_111\n      jumpi\n      0x00\n      dup1\n      revert\n    tag_111:\n      pop\n      tag_112\n      0x04\n      dup1\n      calldatasize\n      sub\n      dup2\n      add\n      swap1\n      tag_113\n      swap2\n      swap1\n      tag_35\n      jump\t// in\n    tag_113:\n      tag_114\n      jump\t// in\n    tag_112:\n      mload(0x40)\n      tag_115\n      swap2\n      swap1\n      tag_38\n      jump\t// in\n    tag_115:\n      mload(0x40)\n      dup1\n      swap2\n      sub\n      swap1\n      return\n        /* \"@openzeppelin/contracts/token/ERC20/ERC20.sol\":3740:3929  function transfer(address to, uint256 amount) public virtual override returns (bool) {... */\n    tag_21:\n      callvalue\n      dup1\n      iszero\n      tag_116\n      jumpi\n      0x00\n      dup1\n      revert\n    tag_116:\n      pop\n      tag_117\n      0x04\n      dup1\n      calldatasize\n      sub\n      dup2\n      add\n      swap1\n      tag_118\n      swap2\n      swap1\n      tag_35\n      jump\t// in\n    tag_118:\n      tag_119\n      jump\t// in\n    tag_117:\n      mload(0x40)\n      tag_120\n      swap2\n      swap1\n      tag_38\n      jump\t// in\n    tag_120:\n      mload(0x40)\n      dup1\n      swap2\n      sub\n      swap1\n      return\n        /* \"@openzeppelin/contracts/token/ERC20/ERC20.sol\":3987:4136  function allowance(address owner, address spender) public view virtual override returns (uint256) {... */\n    tag_22:\n      callvalue\n      dup1\n      iszero\n      tag_121\n      jumpi\n      0x00\n      dup1\n      revert\n    tag_121:\n      pop\n      tag_122\n      0x04\n      dup1\n      calldatasize\n      sub\n      dup2\n      add\n      swap1\n      tag_123\n      swap2\n      swap1\n      tag_124\n      jump\t// in\n    tag_123:\n      tag_125\n      jump\t// in\n    tag_122:\n      mload(0x40)\n      tag_126\n      swap2\n      swap1\n      tag_46\n      jump\t// in\n    tag_126:\n      mload(0x40)\n      dup1\n      swap2\n      sub\n      swap1\n      return\n        /* \"contracts/block.sol\":429:462  uint256 public privateSaleEndTime */\n    tag_23:\n      callvalue\n      dup1\n      iszero\n      tag_127\n      jumpi\n      0x00\n      dup1\n      revert\n    tag_127:\n      pop\n      tag_128\n      tag_129\n      jump\t// in\n    tag_128:\n      mload(0x40)\n      tag_130\n      swap2\n      swap1\n      tag_46\n      jump\t// in\n    tag_130:\n      mload(0x40)\n      dup1\n      swap2\n      sub\n      swap1\n      return\n        /* \"@openzeppelin/contracts/token/ERC20/ERC20.sol\":2158:2256  function name() public view virtual override returns (string memory) {... */\n    tag_29:\n        /* \"@openzeppelin/contracts/token/ERC20/ERC20.sol\":2212:2225  string memory */\n      0x60\n        /* \"@openzeppelin/contracts/token/ERC20/ERC20.sol\":2244:2249  _name */\n      0x03\n        /* \"@openzeppelin/contracts/token/ERC20/ERC20.sol\":2237:2249  return _name */\n      dup1\n      sload\n      tag_132\n      swap1\n      tag_133\n      jump\t// in\n    tag_132:\n      dup1\n      0x1f\n      add\n      0x20\n      dup1\n      swap2\n      div\n      mul\n      0x20\n      add\n      mload(0x40)\n      swap1\n      dup2\n      add\n      0x40\n      mstore\n      dup1\n      swap3\n      swap2\n      swap1\n      dup2\n      dup2\n      mstore\n      0x20\n      add\n      dup3\n      dup1\n      sload\n      tag_134\n      swap1\n      tag_133\n      jump\t// in\n    tag_134:\n      dup1\n      iszero\n      tag_135\n      jumpi\n      dup1\n      0x1f\n      lt\n      tag_136\n      jumpi\n      0x0100\n      dup1\n      dup4\n      sload\n      div\n      mul\n      dup4\n      mstore\n      swap2\n      0x20\n      add\n      swap2\n      jump(tag_135)\n    tag_136:\n      dup3\n      add\n      swap2\n      swap1\n      0x00\n      mstore\n      keccak256(0x00, 0x20)\n      swap1\n    tag_137:\n      dup2\n      sload\n      dup2\n      mstore\n      swap1\n      0x01\n      add\n      swap1\n      0x20\n      add\n      dup1\n      dup4\n      gt\n      tag_137\n      jumpi\n      dup3\n      swap1\n      sub\n      0x1f\n      and\n      dup3\n      add\n      swap2\n    tag_135:\n      pop\n      pop\n      pop\n      pop\n      pop\n      swap1\n      pop\n        /* \"@openzeppelin/contracts/token/ERC20/ERC20.sol\":2158:2256  function name() public view virtual override returns (string memory) {... */\n      swap1\n      jump\t// out\n        /* \"@openzeppelin/contracts/token/ERC20/ERC20.sol\":4444:4641  function approve(address spender, uint256 amount) public virtual override returns (bool) {... */\n    tag_36:\n        /* \"@openzeppelin/contracts/token/ERC20/ERC20.sol\":4527:4531  bool */\n      0x00\n        /* \"@openzeppelin/contracts/token/ERC20/ERC20.sol\":4543:4556  address owner */\n      dup1\n        /* \"@openzeppelin/contracts/token/ERC20/ERC20.sol\":4559:4571  _msgSender() */\n      tag_139\n        /* \"@openzeppelin/contracts/token/ERC20/ERC20.sol\":4559:4569  _msgSender */\n      tag_140\n        /* \"@openzeppelin/contracts/token/ERC20/ERC20.sol\":4559:4571  _msgSender() */\n      jump\t// in\n    tag_139:\n        /* \"@openzeppelin/contracts/token/ERC20/ERC20.sol\":4543:4571  address owner = _msgSender() */\n      swap1\n      pop\n        /* \"@openzeppelin/contracts/token/ERC20/ERC20.sol\":4581:4613  _approve(owner, spender, amount) */\n      tag_141\n        /* \"@openzeppelin/contracts/token/ERC20/ERC20.sol\":4590:4595  owner */\n      dup2\n        /* \"@openzeppelin/contracts/token/ERC20/ERC20.sol\":4597:4604  spender */\n      dup6\n        /* \"@openzeppelin/contracts/token/ERC20/ERC20.sol\":4606:4612  amount */\n      dup6\n        /* \"@openzeppelin/contracts/token/ERC20/ERC20.sol\":4581:4589  _approve */\n      tag_142\n        /* \"@openzeppelin/contracts/token/ERC20/ERC20.sol\":4581:4613  _approve(owner, spender, amount) */\n      jump\t// in\n    tag_141:\n        /* \"@openzeppelin/contracts/token/ERC20/ERC20.sol\":4630:4634  true */\n      0x01\n        /* \"@openzeppelin/contracts/token/ERC20/ERC20.sol\":4623:4634  return true */\n      swap2\n      pop\n      pop\n        /* \"@openzeppelin/contracts/token/ERC20/ERC20.sol\":4444:4641  function approve(address spender, uint256 amount) public virtual override returns (bool) {... */\n      swap3\n      swap2\n      pop\n      pop\n      jump\t// out\n        /* \"contracts/block.sol\":1308:1498  function startPublicSale() external view onlyOwner {... */\n    tag_41:\n        /* \"contracts/block.sol\":608:613  owner */\n      0x05\n      0x00\n      swap1\n      sload\n      swap1\n      0x0100\n      exp\n      swap1\n      div\n      0xffffffffffffffffffffffffffffffffffffffff\n      and\n        /* \"contracts/block.sol\":594:613  msg.sender == owner */\n      0xffffffffffffffffffffffffffffffffffffffff\n      and\n        /* \"contracts/block.sol\":594:604  msg.sender */\n      caller\n        /* \"contracts/block.sol\":594:613  msg.sender == owner */\n      0xffffffffffffffffffffffffffffffffffffffff\n      and\n      eq\n        /* \"contracts/block.sol\":586:690  require(msg.sender == owner, unicode\"Использовать может только владелец\") */\n      tag_144\n      jumpi\n      mload(0x40)\n      0x08c379a000000000000000000000000000000000000000000000000000000000\n      dup2\n      mstore\n      0x04\n      add\n      tag_145\n      swap1\n      tag_146\n      jump\t// in\n    tag_145:\n      mload(0x40)\n      dup1\n      swap2\n      sub\n      swap1\n      revert\n    tag_144:\n        /* \"contracts/block.sol\":1396:1413  publicSaleEndTime */\n      sload(0x0c)\n        /* \"contracts/block.sol\":1377:1392  block.timestamp */\n      timestamp\n        /* \"contracts/block.sol\":1377:1413  block.timestamp >= publicSaleEndTime */\n      lt\n      iszero\n        /* \"contracts/block.sol\":1369:1482  require(block.timestamp >= publicSaleEndTime, unicode\"Публичные продажи ещё начались\") */\n      tag_148\n      jumpi\n      mload(0x40)\n      0x08c379a000000000000000000000000000000000000000000000000000000000\n      dup2\n      mstore\n      0x04\n      add\n      tag_149\n      swap1\n      tag_150\n      jump\t// in\n    tag_149:\n      mload(0x40)\n      dup1\n      swap2\n      sub\n      swap1\n      revert\n    tag_148:\n        /* \"contracts/block.sol\":1308:1498  function startPublicSale() external view onlyOwner {... */\n      jump\t// out\n        /* \"@openzeppelin/contracts/token/ERC20/ERC20.sol\":3255:3361  function totalSupply() public view virtual override returns (uint256) {... */\n    tag_44:\n        /* \"@openzeppelin/contracts/token/ERC20/ERC20.sol\":3316:3323  uint256 */\n      0x00\n        /* \"@openzeppelin/contracts/token/ERC20/ERC20.sol\":3342:3354  _totalSupply */\n      sload(0x02)\n        /* \"@openzeppelin/contracts/token/ERC20/ERC20.sol\":3335:3354  return _totalSupply */\n      swap1\n      pop\n        /* \"@openzeppelin/contracts/token/ERC20/ERC20.sol\":3255:3361  function totalSupply() public view virtual override returns (uint256) {... */\n      swap1\n      jump\t// out\n        /* \"contracts/block.sol\":468:500  uint256 public publicSaleEndTime */\n    tag_49:\n      sload(0x0c)\n      dup2\n      jump\t// out\n        /* \"@openzeppelin/contracts/token/ERC20/ERC20.sol\":5203:5459  function transferFrom(address from, address to, uint256 amount) public virtual override returns (bool) {... */\n    tag_55:\n        /* \"@openzeppelin/contracts/token/ERC20/ERC20.sol\":5300:5304  bool */\n      0x00\n        /* \"@openzeppelin/contracts/token/ERC20/ERC20.sol\":5316:5331  address spender */\n      dup1\n        /* \"@openzeppelin/contracts/token/ERC20/ERC20.sol\":5334:5346  _msgSender() */\n      tag_153\n        /* \"@openzeppelin/contracts/token/ERC20/ERC20.sol\":5334:5344  _msgSender */\n      tag_140\n        /* \"@openzeppelin/contracts/token/ERC20/ERC20.sol\":5334:5346  _msgSender() */\n      jump\t// in\n    tag_153:\n        /* \"@openzeppelin/contracts/token/ERC20/ERC20.sol\":5316:5346  address spender = _msgSender() */\n      swap1\n      pop\n        /* \"@openzeppelin/contracts/token/ERC20/ERC20.sol\":5356:5394  _spendAllowance(from, spender, amount) */\n      tag_154\n        /* \"@openzeppelin/contracts/token/ERC20/ERC20.sol\":5372:5376  from */\n      dup6\n        /* \"@openzeppelin/contracts/token/ERC20/ERC20.sol\":5378:5385  spender */\n      dup3\n        /* \"@openzeppelin/contracts/token/ERC20/ERC20.sol\":5387:5393  amount */\n      dup6\n        /* \"@openzeppelin/contracts/token/ERC20/ERC20.sol\":5356:5371  _spendAllowance */\n      tag_155\n        /* \"@openzeppelin/contracts/token/ERC20/ERC20.sol\":5356:5394  _spendAllowance(from, spender, amount) */\n      jump\t// in\n    tag_154:\n        /* \"@openzeppelin/contracts/token/ERC20/ERC20.sol\":5404:5431  _transfer(from, to, amount) */\n      tag_156\n        /* \"@openzeppelin/contracts/token/ERC20/ERC20.sol\":5414:5418  from */\n      dup6\n        /* \"@openzeppelin/contracts/token/ERC20/ERC20.sol\":5420:5422  to */\n      dup6\n        /* \"@openzeppelin/contracts/token/ERC20/ERC20.sol\":5424:5430  amount */\n      dup6\n        /* \"@openzeppelin/contracts/token/ERC20/ERC20.sol\":5404:5413  _transfer */\n      tag_157\n        /* \"@openzeppelin/contracts/token/ERC20/ERC20.sol\":5404:5431  _transfer(from, to, amount) */\n      jump\t// in\n    tag_156:\n        /* \"@openzeppelin/contracts/token/ERC20/ERC20.sol\":5448:5452  true */\n      0x01\n        /* \"@openzeppelin/contracts/token/ERC20/ERC20.sol\":5441:5452  return true */\n      swap2\n      pop\n      pop\n        /* \"@openzeppelin/contracts/token/ERC20/ERC20.sol\":5203:5459  function transferFrom(address from, address to, uint256 amount) public virtual override returns (bool) {... */\n      swap4\n      swap3\n      pop\n      pop\n      pop\n      jump\t// out\n        /* \"@openzeppelin/contracts/token/ERC20/ERC20.sol\":3104:3195  function decimals() public view virtual override returns (uint8) {... */\n    tag_59:\n        /* \"@openzeppelin/contracts/token/ERC20/ERC20.sol\":3162:3167  uint8 */\n      0x00\n        /* \"@openzeppelin/contracts/token/ERC20/ERC20.sol\":3186:3188  18 */\n      0x12\n        /* \"@openzeppelin/contracts/token/ERC20/ERC20.sol\":3179:3188  return 18 */\n      swap1\n      pop\n        /* \"@openzeppelin/contracts/token/ERC20/ERC20.sol\":3104:3195  function decimals() public view virtual override returns (uint8) {... */\n      swap1\n      jump\t// out\n        /* \"@openzeppelin/contracts/token/ERC20/ERC20.sol\":5854:6088  function increaseAllowance(address spender, uint256 addedValue) public virtual returns (bool) {... */\n    tag_65:\n        /* \"@openzeppelin/contracts/token/ERC20/ERC20.sol\":5942:5946  bool */\n      0x00\n        /* \"@openzeppelin/contracts/token/ERC20/ERC20.sol\":5958:5971  address owner */\n      dup1\n        /* \"@openzeppelin/contracts/token/ERC20/ERC20.sol\":5974:5986  _msgSender() */\n      tag_160\n        /* \"@openzeppelin/contracts/token/ERC20/ERC20.sol\":5974:5984  _msgSender */\n      tag_140\n        /* \"@openzeppelin/contracts/token/ERC20/ERC20.sol\":5974:5986  _msgSender() */\n      jump\t// in\n    tag_160:\n        /* \"@openzeppelin/contracts/token/ERC20/ERC20.sol\":5958:5986  address owner = _msgSender() */\n      swap1\n      pop\n        /* \"@openzeppelin/contracts/token/ERC20/ERC20.sol\":5996:6060  _approve(owner, spender, allowance(owner, spender) + addedValue) */\n      tag_161\n        /* \"@openzeppelin/contracts/token/ERC20/ERC20.sol\":6005:6010  owner */\n      dup2\n        /* \"@openzeppelin/contracts/token/ERC20/ERC20.sol\":6012:6019  spender */\n      dup6\n        /* \"@openzeppelin/contracts/token/ERC20/ERC20.sol\":6049:6059  addedValue */\n      dup6\n        /* \"@openzeppelin/contracts/token/ERC20/ERC20.sol\":6021:6046  allowance(owner, spender) */\n      tag_162\n        /* \"@openzeppelin/contracts/token/ERC20/ERC20.sol\":6031:6036  owner */\n      dup6\n        /* \"@openzeppelin/contracts/token/ERC20/ERC20.sol\":6038:6045  spender */\n      dup10\n        /* \"@openzeppelin/contracts/token/ERC20/ERC20.sol\":6021:6030  allowance */\n      tag_125\n        /* \"@openzeppelin/contracts/token/ERC20/ERC20.sol\":6021:6046  allowance(owner, spender) */\n      jump\t// in\n    tag_162:\n        /* \"@openzeppelin/contracts/token/ERC20/ERC20.sol\":6021:6059  allowance(owner, spender) + addedValue */\n      tag_163\n      swap2\n      swap1\n      tag_164\n      jump\t// in\n    tag_163:\n        /* \"@openzeppelin/contracts/token/ERC20/ERC20.sol\":5996:6004  _approve */\n      tag_142\n        /* \"@openzeppelin/contracts/token/ERC20/ERC20.sol\":5996:6060  _approve(owner, spender, allowance(owner, spender) + addedValue) */\n      jump\t// in\n    tag_161:\n        /* \"@openzeppelin/contracts/token/ERC20/ERC20.sol\":6077:6081  true */\n      0x01\n        /* \"@openzeppelin/contracts/token/ERC20/ERC20.sol\":6070:6081  return true */\n      swap2\n      pop\n      pop\n        /* \"@openzeppelin/contracts/token/ERC20/ERC20.sol\":5854:6088  function increaseAllowance(address spender, uint256 addedValue) public virtual returns (bool) {... */\n      swap3\n      swap2\n      pop\n      pop\n      jump\t// out\n        /* \"contracts/block.sol\":2470:2982  function buyPublicTokens(uint256 amount) external payable {... */\n    tag_70:\n        /* \"contracts/block.sol\":2565:2583  privateSaleEndTime */\n      sload(0x0b)\n        /* \"contracts/block.sol\":2546:2561  block.timestamp */\n      timestamp\n        /* \"contracts/block.sol\":2546:2583  block.timestamp >= privateSaleEndTime */\n      lt\n      iszero\n        /* \"contracts/block.sol\":2546:2622  block.timestamp >= privateSaleEndTime && block.timestamp < publicSaleEndTime */\n      dup1\n      iszero\n      tag_166\n      jumpi\n      pop\n        /* \"contracts/block.sol\":2605:2622  publicSaleEndTime */\n      sload(0x0c)\n        /* \"contracts/block.sol\":2587:2602  block.timestamp */\n      timestamp\n        /* \"contracts/block.sol\":2587:2622  block.timestamp < publicSaleEndTime */\n      lt\n        /* \"contracts/block.sol\":2546:2622  block.timestamp >= privateSaleEndTime && block.timestamp < publicSaleEndTime */\n    tag_166:\n        /* \"contracts/block.sol\":2538:2696  require(block.timestamp >= privateSaleEndTime && block.timestamp < publicSaleEndTime, unicode\"Публичная продажа ещё на началась\") */\n      tag_167\n      jumpi\n      mload(0x40)\n      0x08c379a000000000000000000000000000000000000000000000000000000000\n      dup2\n      mstore\n      0x04\n      add\n      tag_168\n      swap1\n      tag_169\n      jump\t// in\n    tag_168:\n      mload(0x40)\n      dup1\n      swap2\n      sub\n      swap1\n      revert\n    tag_167:\n        /* \"contracts/block.sol\":2724:2728  5000 */\n      0x1388\n        /* \"contracts/block.sol\":2714:2720  amount */\n      dup2\n        /* \"contracts/block.sol\":2714:2728  amount <= 5000 */\n      gt\n      iszero\n        /* \"contracts/block.sol\":2706:2760  require(amount <= 5000, \"Max purchase limit exceeded\") */\n      tag_170\n      jumpi\n      mload(0x40)\n      0x08c379a000000000000000000000000000000000000000000000000000000000\n      dup2\n      mstore\n      0x04\n      add\n      tag_171\n      swap1\n      tag_172\n      jump\t// in\n    tag_171:\n      mload(0x40)\n      dup1\n      swap2\n      sub\n      swap1\n      revert\n    tag_170:\n        /* \"contracts/block.sol\":2770:2788  uint256 tokenPrice */\n      0x00\n        /* \"contracts/block.sol\":2791:2799  1000 wei */\n      0x03e8\n        /* \"contracts/block.sol\":2770:2799  uint256 tokenPrice = 1000 wei */\n      swap1\n      pop\n        /* \"contracts/block.sol\":2809:2821  uint256 cost */\n      0x00\n        /* \"contracts/block.sol\":2833:2843  tokenPrice */\n      dup2\n        /* \"contracts/block.sol\":2824:2830  amount */\n      dup4\n        /* \"contracts/block.sol\":2824:2843  amount * tokenPrice */\n      tag_173\n      swap2\n      swap1\n      tag_174\n      jump\t// in\n    tag_173:\n        /* \"contracts/block.sol\":2809:2843  uint256 cost = amount * tokenPrice */\n      swap1\n      pop\n        /* \"contracts/block.sol\":2874:2878  cost */\n      dup1\n        /* \"contracts/block.sol\":2861:2870  msg.value */\n      callvalue\n        /* \"contracts/block.sol\":2861:2878  msg.value >= cost */\n      lt\n      iszero\n        /* \"contracts/block.sol\":2853:2929  require(msg.value >= cost, unicode\"Недостаточно средств\") */\n      tag_175\n      jumpi\n      mload(0x40)\n      0x08c379a000000000000000000000000000000000000000000000000000000000\n      dup2\n      mstore\n      0x04\n      add\n      tag_176\n      swap1\n      tag_177\n      jump\t// in\n    tag_176:\n      mload(0x40)\n      dup1\n      swap2\n      sub\n      swap1\n      revert\n    tag_175:\n        /* \"contracts/block.sol\":2939:2975  _transfer(owner, msg.sender, amount) */\n      tag_178\n        /* \"contracts/block.sol\":2949:2954  owner */\n      0x05\n      0x00\n      swap1\n      sload\n      swap1\n      0x0100\n      exp\n      swap1\n      div\n      0xffffffffffffffffffffffffffffffffffffffff\n      and\n        /* \"contracts/block.sol\":2956:2966  msg.sender */\n      caller\n        /* \"contracts/block.sol\":2968:2974  amount */\n      dup6\n        /* \"contracts/block.sol\":2939:2948  _transfer */\n      tag_157\n        /* \"contracts/block.sol\":2939:2975  _transfer(owner, msg.sender, amount) */\n      jump\t// in\n    tag_178:\n        /* \"contracts/block.sol\":2528:2982  {... */\n      pop\n      pop\n        /* \"contracts/block.sol\":2470:2982  function buyPublicTokens(uint256 amount) external payable {... */\n      pop\n      jump\t// out\n        /* \"contracts/block.sol\":2988:3124  function transferPublicTokens(address recipient, uint256 amount) external onlyOwner {... */\n    tag_74:\n        /* \"contracts/block.sol\":608:613  owner */\n      0x05\n      0x00\n      swap1\n      sload\n      swap1\n      0x0100\n      exp\n      swap1\n      div\n      0xffffffffffffffffffffffffffffffffffffffff\n      and\n        /* \"contracts/block.sol\":594:613  msg.sender == owner */\n      0xffffffffffffffffffffffffffffffffffffffff\n      and\n        /* \"contracts/block.sol\":594:604  msg.sender */\n      caller\n        /* \"contracts/block.sol\":594:613  msg.sender == owner */\n      0xffffffffffffffffffffffffffffffffffffffff\n      and\n      eq\n        /* \"contracts/block.sol\":586:690  require(msg.sender == owner, unicode\"Использовать может только владелец\") */\n      tag_180\n      jumpi\n      mload(0x40)\n      0x08c379a000000000000000000000000000000000000000000000000000000000\n      dup2\n      mstore\n      0x04\n      add\n      tag_181\n      swap1\n      tag_146\n      jump\t// in\n    tag_181:\n      mload(0x40)\n      dup1\n      swap2\n      sub\n      swap1\n      revert\n    tag_180:\n        /* \"contracts/block.sol\":3082:3117  _transfer(owner, recipient, amount) */\n      tag_183\n        /* \"contracts/block.sol\":3092:3097  owner */\n      0x05\n      0x00\n      swap1\n      sload\n      swap1\n      0x0100\n      exp\n      swap1\n      div\n      0xffffffffffffffffffffffffffffffffffffffff\n      and\n        /* \"contracts/block.sol\":3099:3108  recipient */\n      dup4\n        /* \"contracts/block.sol\":3110:3116  amount */\n      dup4\n        /* \"contracts/block.sol\":3082:3091  _transfer */\n      tag_157\n        /* \"contracts/block.sol\":3082:3117  _transfer(owner, recipient, amount) */\n      jump\t// in\n    tag_183:\n        /* \"contracts/block.sol\":2988:3124  function transferPublicTokens(address recipient, uint256 amount) external onlyOwner {... */\n      pop\n      pop\n      jump\t// out\n        /* \"contracts/block.sol\":1873:2464  function buyPrivateTokens(uint256 amount) external payable {... */\n    tag_77:\n        /* \"contracts/block.sol\":1950:1959  whitelist */\n      0x0d\n        /* \"contracts/block.sol\":1950:1971  whitelist[msg.sender] */\n      0x00\n        /* \"contracts/block.sol\":1960:1970  msg.sender */\n      caller\n        /* \"contracts/block.sol\":1950:1971  whitelist[msg.sender] */\n      0xffffffffffffffffffffffffffffffffffffffff\n      and\n      0xffffffffffffffffffffffffffffffffffffffff\n      and\n      dup2\n      mstore\n      0x20\n      add\n      swap1\n      dup2\n      mstore\n      0x20\n      add\n      0x00\n      keccak256\n      0x00\n      swap1\n      sload\n      swap1\n      0x0100\n      exp\n      swap1\n      div\n      0xff\n      and\n        /* \"contracts/block.sol\":1942:2019  require(whitelist[msg.sender], unicode\"Вас нет в вайт листе\") */\n      tag_185\n      jumpi\n      mload(0x40)\n      0x08c379a000000000000000000000000000000000000000000000000000000000\n      dup2\n      mstore\n      0x04\n      add\n      tag_186\n      swap1\n      tag_187\n      jump\t// in\n    tag_186:\n      mload(0x40)\n      dup1\n      swap2\n      sub\n      swap1\n      revert\n    tag_185:\n        /* \"contracts/block.sol\":2056:2065  startTime */\n      sload(0x0a)\n        /* \"contracts/block.sol\":2037:2052  block.timestamp */\n      timestamp\n        /* \"contracts/block.sol\":2037:2065  block.timestamp >= startTime */\n      lt\n      iszero\n        /* \"contracts/block.sol\":2037:2105  block.timestamp >= startTime && block.timestamp < privateSaleEndTime */\n      dup1\n      iszero\n      tag_188\n      jumpi\n      pop\n        /* \"contracts/block.sol\":2087:2105  privateSaleEndTime */\n      sload(0x0b)\n        /* \"contracts/block.sol\":2069:2084  block.timestamp */\n      timestamp\n        /* \"contracts/block.sol\":2069:2105  block.timestamp < privateSaleEndTime */\n      lt\n        /* \"contracts/block.sol\":2037:2105  block.timestamp >= startTime && block.timestamp < privateSaleEndTime */\n    tag_188:\n        /* \"contracts/block.sol\":2029:2179  require(block.timestamp >= startTime && block.timestamp < privateSaleEndTime, unicode\"Приватная продажа ещё не началась\") */\n      tag_189\n      jumpi\n      mload(0x40)\n      0x08c379a000000000000000000000000000000000000000000000000000000000\n      dup2\n      mstore\n      0x04\n      add\n      tag_190\n      swap1\n      tag_191\n      jump\t// in\n    tag_190:\n      mload(0x40)\n      dup1\n      swap2\n      sub\n      swap1\n      revert\n    tag_189:\n        /* \"contracts/block.sol\":2207:2213  100000 */\n      0x0186a0\n        /* \"contracts/block.sol\":2197:2203  amount */\n      dup2\n        /* \"contracts/block.sol\":2197:2213  amount <= 100000 */\n      gt\n      iszero\n        /* \"contracts/block.sol\":2189:2267  require(amount <= 100000, unicode\"Лимит покупок превышен\") */\n      tag_192\n      jumpi\n      mload(0x40)\n      0x08c379a000000000000000000000000000000000000000000000000000000000\n      dup2\n      mstore\n      0x04\n      add\n      tag_193\n      swap1\n      tag_194\n      jump\t// in\n    tag_193:\n      mload(0x40)\n      dup1\n      swap2\n      sub\n      swap1\n      revert\n    tag_192:\n        /* \"contracts/block.sol\":2277:2295  uint256 tokenPrice */\n      0x00\n        /* \"contracts/block.sol\":2298:2308  750000 wei */\n      0x0b71b0\n        /* \"contracts/block.sol\":2277:2308  uint256 tokenPrice = 750000 wei */\n      swap1\n      pop\n        /* \"contracts/block.sol\":2319:2331  uint256 cost */\n      0x00\n        /* \"contracts/block.sol\":2343:2353  tokenPrice */\n      dup2\n        /* \"contracts/block.sol\":2334:2340  amount */\n      dup4\n        /* \"contracts/block.sol\":2334:2353  amount * tokenPrice */\n      tag_195\n      swap2\n      swap1\n      tag_174\n      jump\t// in\n    tag_195:\n        /* \"contracts/block.sol\":2319:2353  uint256 cost = amount * tokenPrice */\n      swap1\n      pop\n        /* \"contracts/block.sol\":2384:2388  cost */\n      dup1\n        /* \"contracts/block.sol\":2371:2380  msg.value */\n      callvalue\n        /* \"contracts/block.sol\":2371:2388  msg.value >= cost */\n      lt\n      iszero\n        /* \"contracts/block.sol\":2363:2411  require(msg.value >= cost, \"Insufficient funds\") */\n      tag_196\n      jumpi\n      mload(0x40)\n      0x08c379a000000000000000000000000000000000000000000000000000000000\n      dup2\n      mstore\n      0x04\n      add\n      tag_197\n      swap1\n      tag_198\n      jump\t// in\n    tag_197:\n      mload(0x40)\n      dup1\n      swap2\n      sub\n      swap1\n      revert\n    tag_196:\n        /* \"contracts/block.sol\":2421:2457  _transfer(owner, msg.sender, amount) */\n      tag_199\n        /* \"contracts/block.sol\":2431:2436  owner */\n      0x05\n      0x00\n      swap1\n      sload\n      swap1\n      0x0100\n      exp\n      swap1\n      div\n      0xffffffffffffffffffffffffffffffffffffffff\n      and\n        /* \"contracts/block.sol\":2438:2448  msg.sender */\n      caller\n        /* \"contracts/block.sol\":2450:2456  amount */\n      dup6\n        /* \"contracts/block.sol\":2421:2430  _transfer */\n      tag_157\n        /* \"contracts/block.sol\":2421:2457  _transfer(owner, msg.sender, amount) */\n      jump\t// in\n    tag_199:\n        /* \"contracts/block.sol\":1932:2464  {... */\n      pop\n      pop\n        /* \"contracts/block.sol\":1873:2464  function buyPrivateTokens(uint256 amount) external payable {... */\n      pop\n      jump\t// out\n        /* \"contracts/block.sol\":1684:1867  function removeFromWhitelist(address[] memory users) external onlyOwner {... */\n    tag_82:\n        /* \"contracts/block.sol\":608:613  owner */\n      0x05\n      0x00\n      swap1\n      sload\n      swap1\n      0x0100\n      exp\n      swap1\n      div\n      0xffffffffffffffffffffffffffffffffffffffff\n      and\n        /* \"contracts/block.sol\":594:613  msg.sender == owner */\n      0xffffffffffffffffffffffffffffffffffffffff\n      and\n        /* \"contracts/block.sol\":594:604  msg.sender */\n      caller\n        /* \"contracts/block.sol\":594:613  msg.sender == owner */\n      0xffffffffffffffffffffffffffffffffffffffff\n      and\n      eq\n        /* \"contracts/block.sol\":586:690  require(msg.sender == owner, unicode\"Использовать может только владелец\") */\n      tag_201\n      jumpi\n      mload(0x40)\n      0x08c379a000000000000000000000000000000000000000000000000000000000\n      dup2\n      mstore\n      0x04\n      add\n      tag_202\n      swap1\n      tag_146\n      jump\t// in\n    tag_202:\n      mload(0x40)\n      dup1\n      swap2\n      sub\n      swap1\n      revert\n    tag_201:\n        /* \"contracts/block.sol\":1771:1780  uint256 i */\n      0x00\n        /* \"contracts/block.sol\":1766:1861  for (uint256 i = 0; i < users.length; i++) {... */\n    tag_204:\n        /* \"contracts/block.sol\":1790:1795  users */\n      dup2\n        /* \"contracts/block.sol\":1790:1802  users.length */\n      mload\n        /* \"contracts/block.sol\":1786:1787  i */\n      dup2\n        /* \"contracts/block.sol\":1786:1802  i < users.length */\n      lt\n        /* \"contracts/block.sol\":1766:1861  for (uint256 i = 0; i < users.length; i++) {... */\n      iszero\n      tag_205\n      jumpi\n        /* \"contracts/block.sol\":1845:1850  false */\n      0x00\n        /* \"contracts/block.sol\":1823:1832  whitelist */\n      0x0d\n        /* \"contracts/block.sol\":1823:1842  whitelist[users[i]] */\n      0x00\n        /* \"contracts/block.sol\":1833:1838  users */\n      dup5\n        /* \"contracts/block.sol\":1839:1840  i */\n      dup5\n        /* \"contracts/block.sol\":1833:1841  users[i] */\n      dup2\n      mload\n      dup2\n      lt\n      tag_207\n      jumpi\n      tag_208\n      tag_209\n      jump\t// in\n    tag_208:\n    tag_207:\n      0x20\n      mul\n      0x20\n      add\n      add\n      mload\n        /* \"contracts/block.sol\":1823:1842  whitelist[users[i]] */\n      0xffffffffffffffffffffffffffffffffffffffff\n      and\n      0xffffffffffffffffffffffffffffffffffffffff\n      and\n      dup2\n      mstore\n      0x20\n      add\n      swap1\n      dup2\n      mstore\n      0x20\n      add\n      0x00\n      keccak256\n      0x00\n        /* \"contracts/block.sol\":1823:1850  whitelist[users[i]] = false */\n      0x0100\n      exp\n      dup2\n      sload\n      dup2\n      0xff\n      mul\n      not\n      and\n      swap1\n      dup4\n      iszero\n      iszero\n      mul\n      or\n      swap1\n      sstore\n      pop\n        /* \"contracts/block.sol\":1804:1807  i++ */\n      dup1\n      dup1\n      tag_210\n      swap1\n      tag_211\n      jump\t// in\n    tag_210:\n      swap2\n      pop\n      pop\n        /* \"contracts/block.sol\":1766:1861  for (uint256 i = 0; i < users.length; i++) {... */\n      jump(tag_204)\n    tag_205:\n      pop\n        /* \"contracts/block.sol\":1684:1867  function removeFromWhitelist(address[] memory users) external onlyOwner {... */\n      pop\n      jump\t// out\n        /* \"@openzeppelin/contracts/token/ERC20/ERC20.sol\":3419:3544  function balanceOf(address account) public view virtual override returns (uint256) {... */\n    tag_87:\n        /* \"@openzeppelin/contracts/token/ERC20/ERC20.sol\":3493:3500  uint256 */\n      0x00\n        /* \"@openzeppelin/contracts/token/ERC20/ERC20.sol\":3519:3528  _balances */\n      dup1\n        /* \"@openzeppelin/contracts/token/ERC20/ERC20.sol\":3519:3537  _balances[account] */\n      0x00\n        /* \"@openzeppelin/contracts/token/ERC20/ERC20.sol\":3529:3536  account */\n      dup4\n        /* \"@openzeppelin/contracts/token/ERC20/ERC20.sol\":3519:3537  _balances[account] */\n      0xffffffffffffffffffffffffffffffffffffffff\n      and\n      0xffffffffffffffffffffffffffffffffffffffff\n      and\n      dup2\n      mstore\n      0x20\n      add\n      swap1\n      dup2\n      mstore\n      0x20\n      add\n      0x00\n      keccak256\n      sload\n        /* \"@openzeppelin/contracts/token/ERC20/ERC20.sol\":3512:3537  return _balances[account] */\n      swap1\n      pop\n        /* \"@openzeppelin/contracts/token/ERC20/ERC20.sol\":3419:3544  function balanceOf(address account) public view virtual override returns (uint256) {... */\n      swap2\n      swap1\n      pop\n      jump\t// out\n        /* \"contracts/block.sol\":399:423  uint256 public startTime */\n    tag_91:\n      sload(0x0a)\n      dup2\n      jump\t// out\n        /* \"contracts/block.sol\":1504:1678  function addToWhitelist(address[] memory users) external onlyOwner {... */\n    tag_96:\n        /* \"contracts/block.sol\":608:613  owner */\n      0x05\n      0x00\n      swap1\n      sload\n      swap1\n      0x0100\n      exp\n      swap1\n      div\n      0xffffffffffffffffffffffffffffffffffffffff\n      and\n        /* \"contracts/block.sol\":594:613  msg.sender == owner */\n      0xffffffffffffffffffffffffffffffffffffffff\n      and\n        /* \"contracts/block.sol\":594:604  msg.sender */\n      caller\n        /* \"contracts/block.sol\":594:613  msg.sender == owner */\n      0xffffffffffffffffffffffffffffffffffffffff\n      and\n      eq\n        /* \"contracts/block.sol\":586:690  require(msg.sender == owner, unicode\"Использовать может только владелец\") */\n      tag_214\n      jumpi\n      mload(0x40)\n      0x08c379a000000000000000000000000000000000000000000000000000000000\n      dup2\n      mstore\n      0x04\n      add\n      tag_215\n      swap1\n      tag_146\n      jump\t// in\n    tag_215:\n      mload(0x40)\n      dup1\n      swap2\n      sub\n      swap1\n      revert\n    tag_214:\n        /* \"contracts/block.sol\":1586:1592  uint i */\n      0x00\n        /* \"contracts/block.sol\":1581:1672  for (uint i = 0; i < users.length; i++) {... */\n    tag_217:\n        /* \"contracts/block.sol\":1602:1607  users */\n      dup2\n        /* \"contracts/block.sol\":1602:1614  users.length */\n      mload\n        /* \"contracts/block.sol\":1598:1599  i */\n      dup2\n        /* \"contracts/block.sol\":1598:1614  i < users.length */\n      lt\n        /* \"contracts/block.sol\":1581:1672  for (uint i = 0; i < users.length; i++) {... */\n      iszero\n      tag_218\n      jumpi\n        /* \"contracts/block.sol\":1657:1661  true */\n      0x01\n        /* \"contracts/block.sol\":1635:1644  whitelist */\n      0x0d\n        /* \"contracts/block.sol\":1635:1654  whitelist[users[i]] */\n      0x00\n        /* \"contracts/block.sol\":1645:1650  users */\n      dup5\n        /* \"contracts/block.sol\":1651:1652  i */\n      dup5\n        /* \"contracts/block.sol\":1645:1653  users[i] */\n      dup2\n      mload\n      dup2\n      lt\n      tag_220\n      jumpi\n      tag_221\n      tag_209\n      jump\t// in\n    tag_221:\n    tag_220:\n      0x20\n      mul\n      0x20\n      add\n      add\n      mload\n        /* \"contracts/block.sol\":1635:1654  whitelist[users[i]] */\n      0xffffffffffffffffffffffffffffffffffffffff\n      and\n      0xffffffffffffffffffffffffffffffffffffffff\n      and\n      dup2\n      mstore\n      0x20\n      add\n      swap1\n      dup2\n      mstore\n      0x20\n      add\n      0x00\n      keccak256\n      0x00\n        /* \"contracts/block.sol\":1635:1661  whitelist[users[i]] = true */\n      0x0100\n      exp\n      dup2\n      sload\n      dup2\n      0xff\n      mul\n      not\n      and\n      swap1\n      dup4\n      iszero\n      iszero\n      mul\n      or\n      swap1\n      sstore\n      pop\n        /* \"contracts/block.sol\":1616:1619  i++ */\n      dup1\n      dup1\n      tag_222\n      swap1\n      tag_211\n      jump\t// in\n    tag_222:\n      swap2\n      pop\n      pop\n        /* \"contracts/block.sol\":1581:1672  for (uint i = 0; i < users.length; i++) {... */\n      jump(tag_217)\n    tag_218:\n      pop\n        /* \"contracts/block.sol\":1504:1678  function addToWhitelist(address[] memory users) external onlyOwner {... */\n      pop\n      jump\t// out\n        /* \"contracts/block.sol\":177:197  address public owner */\n    tag_99:\n      0x05\n      0x00\n      swap1\n      sload\n      swap1\n      0x0100\n      exp\n      swap1\n      div\n      0xffffffffffffffffffffffffffffffffffffffff\n      and\n      dup2\n      jump\t// out\n        /* \"@openzeppelin/contracts/token/ERC20/ERC20.sol\":2369:2471  function symbol() public view virtual override returns (string memory) {... */\n    tag_104:\n        /* \"@openzeppelin/contracts/token/ERC20/ERC20.sol\":2425:2438  string memory */\n      0x60\n        /* \"@openzeppelin/contracts/token/ERC20/ERC20.sol\":2457:2464  _symbol */\n      0x04\n        /* \"@openzeppelin/contracts/token/ERC20/ERC20.sol\":2450:2464  return _symbol */\n      dup1\n      sload\n      tag_224\n      swap1\n      tag_133\n      jump\t// in\n    tag_224:\n      dup1\n      0x1f\n      add\n      0x20\n      dup1\n      swap2\n      div\n      mul\n      0x20\n      add\n      mload(0x40)\n      swap1\n      dup2\n      add\n      0x40\n      mstore\n      dup1\n      swap3\n      swap2\n      swap1\n      dup2\n      dup2\n      mstore\n      0x20\n      add\n      dup3\n      dup1\n      sload\n      tag_225\n      swap1\n      tag_133\n      jump\t// in\n    tag_225:\n      dup1\n      iszero\n      tag_226\n      jumpi\n      dup1\n      0x1f\n      lt\n      tag_227\n      jumpi\n      0x0100\n      dup1\n      dup4\n      sload\n      div\n      mul\n      dup4\n      mstore\n      swap2\n      0x20\n      add\n      swap2\n      jump(tag_226)\n    tag_227:\n      dup3\n      add\n      swap2\n      swap1\n      0x00\n      mstore\n      keccak256(0x00, 0x20)\n      swap1\n    tag_228:\n      dup2\n      sload\n      dup2\n      mstore\n      swap1\n      0x01\n      add\n      swap1\n      0x20\n      add\n      dup1\n      dup4\n      gt\n      tag_228\n      jumpi\n      dup3\n      swap1\n      sub\n      0x1f\n      and\n      dup3\n      add\n      swap2\n    tag_226:\n      pop\n      pop\n      pop\n      pop\n      pop\n      swap1\n      pop\n        /* \"@openzeppelin/contracts/token/ERC20/ERC20.sol\":2369:2471  function symbol() public view virtual override returns (string memory) {... */\n      swap1\n      jump\t// out\n        /* \"contracts/block.sol\":507:548  mapping(address => bool) public whitelist */\n    tag_109:\n      mstore(0x20, 0x0d)\n      dup1\n      0x00\n      mstore\n      keccak256(0x00, 0x40)\n      0x00\n      swap2\n      pop\n      sload\n      swap1\n      0x0100\n      exp\n      swap1\n      div\n      0xff\n      and\n      dup2\n      jump\t// out\n        /* \"@openzeppelin/contracts/token/ERC20/ERC20.sol\":6575:7002  function decreaseAllowance(address spender, uint256 subtractedValue) public virtual returns (bool) {... */\n    tag_114:\n        /* \"@openzeppelin/contracts/token/ERC20/ERC20.sol\":6668:6672  bool */\n      0x00\n        /* \"@openzeppelin/contracts/token/ERC20/ERC20.sol\":6684:6697  address owner */\n      dup1\n        /* \"@openzeppelin/contracts/token/ERC20/ERC20.sol\":6700:6712  _msgSender() */\n      tag_230\n        /* \"@openzeppelin/contracts/token/ERC20/ERC20.sol\":6700:6710  _msgSender */\n      tag_140\n        /* \"@openzeppelin/contracts/token/ERC20/ERC20.sol\":6700:6712  _msgSender() */\n      jump\t// in\n    tag_230:\n        /* \"@openzeppelin/contracts/token/ERC20/ERC20.sol\":6684:6712  address owner = _msgSender() */\n      swap1\n      pop\n        /* \"@openzeppelin/contracts/token/ERC20/ERC20.sol\":6722:6746  uint256 currentAllowance */\n      0x00\n        /* \"@openzeppelin/contracts/token/ERC20/ERC20.sol\":6749:6774  allowance(owner, spender) */\n      tag_231\n        /* \"@openzeppelin/contracts/token/ERC20/ERC20.sol\":6759:6764  owner */\n      dup3\n        /* \"@openzeppelin/contracts/token/ERC20/ERC20.sol\":6766:6773  spender */\n      dup7\n        /* \"@openzeppelin/contracts/token/ERC20/ERC20.sol\":6749:6758  allowance */\n      tag_125\n        /* \"@openzeppelin/contracts/token/ERC20/ERC20.sol\":6749:6774  allowance(owner, spender) */\n      jump\t// in\n    tag_231:\n        /* \"@openzeppelin/contracts/token/ERC20/ERC20.sol\":6722:6774  uint256 currentAllowance = allowance(owner, spender) */\n      swap1\n      pop\n        /* \"@openzeppelin/contracts/token/ERC20/ERC20.sol\":6812:6827  subtractedValue */\n      dup4\n        /* \"@openzeppelin/contracts/token/ERC20/ERC20.sol\":6792:6808  currentAllowance */\n      dup2\n        /* \"@openzeppelin/contracts/token/ERC20/ERC20.sol\":6792:6827  currentAllowance >= subtractedValue */\n      lt\n      iszero\n        /* \"@openzeppelin/contracts/token/ERC20/ERC20.sol\":6784:6869  require(currentAllowance >= subtractedValue, \"ERC20: decreased allowance below zero\") */\n      tag_232\n      jumpi\n      mload(0x40)\n      0x08c379a000000000000000000000000000000000000000000000000000000000\n      dup2\n      mstore\n      0x04\n      add\n      tag_233\n      swap1\n      tag_234\n      jump\t// in\n    tag_233:\n      mload(0x40)\n      dup1\n      swap2\n      sub\n      swap1\n      revert\n    tag_232:\n        /* \"@openzeppelin/contracts/token/ERC20/ERC20.sol\":6903:6963  _approve(owner, spender, currentAllowance - subtractedValue) */\n      tag_235\n        /* \"@openzeppelin/contracts/token/ERC20/ERC20.sol\":6912:6917  owner */\n      dup3\n        /* \"@openzeppelin/contracts/token/ERC20/ERC20.sol\":6919:6926  spender */\n      dup7\n        /* \"@openzeppelin/contracts/token/ERC20/ERC20.sol\":6947:6962  subtractedValue */\n      dup7\n        /* \"@openzeppelin/contracts/token/ERC20/ERC20.sol\":6928:6944  currentAllowance */\n      dup5\n        /* \"@openzeppelin/contracts/token/ERC20/ERC20.sol\":6928:6962  currentAllowance - subtractedValue */\n      sub\n        /* \"@openzeppelin/contracts/token/ERC20/ERC20.sol\":6903:6911  _approve */\n      tag_142\n        /* \"@openzeppelin/contracts/token/ERC20/ERC20.sol\":6903:6963  _approve(owner, spender, currentAllowance - subtractedValue) */\n      jump\t// in\n    tag_235:\n        /* \"@openzeppelin/contracts/token/ERC20/ERC20.sol\":6991:6995  true */\n      0x01\n        /* \"@openzeppelin/contracts/token/ERC20/ERC20.sol\":6984:6995  return true */\n      swap3\n      pop\n      pop\n      pop\n        /* \"@openzeppelin/contracts/token/ERC20/ERC20.sol\":6575:7002  function decreaseAllowance(address spender, uint256 subtractedValue) public virtual returns (bool) {... */\n      swap3\n      swap2\n      pop\n      pop\n      jump\t// out\n        /* \"@openzeppelin/contracts/token/ERC20/ERC20.sol\":3740:3929  function transfer(address to, uint256 amount) public virtual override returns (bool) {... */\n    tag_119:\n        /* \"@openzeppelin/contracts/token/ERC20/ERC20.sol\":3819:3823  bool */\n      0x00\n        /* \"@openzeppelin/contracts/token/ERC20/ERC20.sol\":3835:3848  address owner */\n      dup1\n        /* \"@openzeppelin/contracts/token/ERC20/ERC20.sol\":3851:3863  _msgSender() */\n      tag_237\n        /* \"@openzeppelin/contracts/token/ERC20/ERC20.sol\":3851:3861  _msgSender */\n      tag_140\n        /* \"@openzeppelin/contracts/token/ERC20/ERC20.sol\":3851:3863  _msgSender() */\n      jump\t// in\n    tag_237:\n        /* \"@openzeppelin/contracts/token/ERC20/ERC20.sol\":3835:3863  address owner = _msgSender() */\n      swap1\n      pop\n        /* \"@openzeppelin/contracts/token/ERC20/ERC20.sol\":3873:3901  _transfer(owner, to, amount) */\n      tag_238\n        /* \"@openzeppelin/contracts/token/ERC20/ERC20.sol\":3883:3888  owner */\n      dup2\n        /* \"@openzeppelin/contracts/token/ERC20/ERC20.sol\":3890:3892  to */\n      dup6\n        /* \"@openzeppelin/contracts/token/ERC20/ERC20.sol\":3894:3900  amount */\n      dup6\n        /* \"@openzeppelin/contracts/token/ERC20/ERC20.sol\":3873:3882  _transfer */\n      tag_157\n        /* \"@openzeppelin/contracts/token/ERC20/ERC20.sol\":3873:3901  _transfer(owner, to, amount) */\n      jump\t// in\n    tag_238:\n        /* \"@openzeppelin/contracts/token/ERC20/ERC20.sol\":3918:3922  true */\n      0x01\n        /* \"@openzeppelin/contracts/token/ERC20/ERC20.sol\":3911:3922  return true */\n      swap2\n      pop\n      pop\n        /* \"@openzeppelin/contracts/token/ERC20/ERC20.sol\":3740:3929  function transfer(address to, uint256 amount) public virtual override returns (bool) {... */\n      swap3\n      swap2\n      pop\n      pop\n      jump\t// out\n        /* \"@openzeppelin/contracts/token/ERC20/ERC20.sol\":3987:4136  function allowance(address owner, address spender) public view virtual override returns (uint256) {... */\n    tag_125:\n        /* \"@openzeppelin/contracts/token/ERC20/ERC20.sol\":4076:4083  uint256 */\n      0x00\n        /* \"@openzeppelin/contracts/token/ERC20/ERC20.sol\":4102:4113  _allowances */\n      0x01\n        /* \"@openzeppelin/contracts/token/ERC20/ERC20.sol\":4102:4120  _allowances[owner] */\n      0x00\n        /* \"@openzeppelin/contracts/token/ERC20/ERC20.sol\":4114:4119  owner */\n      dup5\n        /* \"@openzeppelin/contracts/token/ERC20/ERC20.sol\":4102:4120  _allowances[owner] */\n      0xffffffffffffffffffffffffffffffffffffffff\n      and\n      0xffffffffffffffffffffffffffffffffffffffff\n      and\n      dup2\n      mstore\n      0x20\n      add\n      swap1\n      dup2\n      mstore\n      0x20\n      add\n      0x00\n      keccak256\n        /* \"@openzeppelin/contracts/token/ERC20/ERC20.sol\":4102:4129  _allowances[owner][spender] */\n      0x00\n        /* \"@openzeppelin/contracts/token/ERC20/ERC20.sol\":4121:4128  spender */\n      dup4\n        /* \"@openzeppelin/contracts/token/ERC20/ERC20.sol\":4102:4129  _allowances[owner][spender] */\n      0xffffffffffffffffffffffffffffffffffffffff\n      and\n      0xffffffffffffffffffffffffffffffffffffffff\n      and\n      dup2\n      mstore\n      0x20\n      add\n      swap1\n      dup2\n      mstore\n      0x20\n      add\n      0x00\n      keccak256\n      sload\n        /* \"@openzeppelin/contracts/token/ERC20/ERC20.sol\":4095:4129  return _allowances[owner][spender] */\n      swap1\n      pop\n        /* \"@openzeppelin/contracts/token/ERC20/ERC20.sol\":3987:4136  function allowance(address owner, address spender) public view virtual override returns (uint256) {... */\n      swap3\n      swap2\n      pop\n      pop\n      jump\t// out\n        /* \"contracts/block.sol\":429:462  uint256 public privateSaleEndTime */\n    tag_129:\n      sload(0x0b)\n      dup2\n      jump\t// out\n        /* \"@openzeppelin/contracts/utils/Context.sol\":640:736  function _msgSender() internal view virtual returns (address) {... */\n    tag_140:\n        /* \"@openzeppelin/contracts/utils/Context.sol\":693:700  address */\n      0x00\n        /* \"@openzeppelin/contracts/utils/Context.sol\":719:729  msg.sender */\n      caller\n        /* \"@openzeppelin/contracts/utils/Context.sol\":712:729  return msg.sender */\n      swap1\n      pop\n        /* \"@openzeppelin/contracts/utils/Context.sol\":640:736  function _msgSender() internal view virtual returns (address) {... */\n      swap1\n      jump\t// out\n        /* \"@openzeppelin/contracts/token/ERC20/ERC20.sol\":10457:10797  function _approve(address owner, address spender, uint256 amount) internal virtual {... */\n    tag_142:\n        /* \"@openzeppelin/contracts/token/ERC20/ERC20.sol\":10575:10576  0 */\n      0x00\n        /* \"@openzeppelin/contracts/token/ERC20/ERC20.sol\":10558:10577  owner != address(0) */\n      0xffffffffffffffffffffffffffffffffffffffff\n      and\n        /* \"@openzeppelin/contracts/token/ERC20/ERC20.sol\":10558:10563  owner */\n      dup4\n        /* \"@openzeppelin/contracts/token/ERC20/ERC20.sol\":10558:10577  owner != address(0) */\n      0xffffffffffffffffffffffffffffffffffffffff\n      and\n      sub\n        /* \"@openzeppelin/contracts/token/ERC20/ERC20.sol\":10550:10618  require(owner != address(0), \"ERC20: approve from the zero address\") */\n      tag_242\n      jumpi\n      mload(0x40)\n      0x08c379a000000000000000000000000000000000000000000000000000000000\n      dup2\n      mstore\n      0x04\n      add\n      tag_243\n      swap1\n      tag_244\n      jump\t// in\n    tag_243:\n      mload(0x40)\n      dup1\n      swap2\n      sub\n      swap1\n      revert\n    tag_242:\n        /* \"@openzeppelin/contracts/token/ERC20/ERC20.sol\":10655:10656  0 */\n      0x00\n        /* \"@openzeppelin/contracts/token/ERC20/ERC20.sol\":10636:10657  spender != address(0) */\n      0xffffffffffffffffffffffffffffffffffffffff\n      and\n        /* \"@openzeppelin/contracts/token/ERC20/ERC20.sol\":10636:10643  spender */\n      dup3\n        /* \"@openzeppelin/contracts/token/ERC20/ERC20.sol\":10636:10657  spender != address(0) */\n      0xffffffffffffffffffffffffffffffffffffffff\n      and\n      sub\n        /* \"@openzeppelin/contracts/token/ERC20/ERC20.sol\":10628:10696  require(spender != address(0), \"ERC20: approve to the zero address\") */\n      tag_245\n      jumpi\n      mload(0x40)\n      0x08c379a000000000000000000000000000000000000000000000000000000000\n      dup2\n      mstore\n      0x04\n      add\n      tag_246\n      swap1\n      tag_247\n      jump\t// in\n    tag_246:\n      mload(0x40)\n      dup1\n      swap2\n      sub\n      swap1\n      revert\n    tag_245:\n        /* \"@openzeppelin/contracts/token/ERC20/ERC20.sol\":10737:10743  amount */\n      dup1\n        /* \"@openzeppelin/contracts/token/ERC20/ERC20.sol\":10707:10718  _allowances */\n      0x01\n        /* \"@openzeppelin/contracts/token/ERC20/ERC20.sol\":10707:10725  _allowances[owner] */\n      0x00\n        /* \"@openzeppelin/contracts/token/ERC20/ERC20.sol\":10719:10724  owner */\n      dup6\n        /* \"@openzeppelin/contracts/token/ERC20/ERC20.sol\":10707:10725  _allowances[owner] */\n      0xffffffffffffffffffffffffffffffffffffffff\n      and\n      0xffffffffffffffffffffffffffffffffffffffff\n      and\n      dup2\n      mstore\n      0x20\n      add\n      swap1\n      dup2\n      mstore\n      0x20\n      add\n      0x00\n      keccak256\n        /* \"@openzeppelin/contracts/token/ERC20/ERC20.sol\":10707:10734  _allowances[owner][spender] */\n      0x00\n        /* \"@openzeppelin/contracts/token/ERC20/ERC20.sol\":10726:10733  spender */\n      dup5\n        /* \"@openzeppelin/contracts/token/ERC20/ERC20.sol\":10707:10734  _allowances[owner][spender] */\n      0xffffffffffffffffffffffffffffffffffffffff\n      and\n      0xffffffffffffffffffffffffffffffffffffffff\n      and\n      dup2\n      mstore\n      0x20\n      add\n      swap1\n      dup2\n      mstore\n      0x20\n      add\n      0x00\n      keccak256\n        /* \"@openzeppelin/contracts/token/ERC20/ERC20.sol\":10707:10743  _allowances[owner][spender] = amount */\n      dup2\n      swap1\n      sstore\n      pop\n        /* \"@openzeppelin/contracts/token/ERC20/ERC20.sol\":10774:10781  spender */\n      dup2\n        /* \"@openzeppelin/contracts/token/ERC20/ERC20.sol\":10758:10790  Approval(owner, spender, amount) */\n      0xffffffffffffffffffffffffffffffffffffffff\n      and\n        /* \"@openzeppelin/contracts/token/ERC20/ERC20.sol\":10767:10772  owner */\n      dup4\n        /* \"@openzeppelin/contracts/token/ERC20/ERC20.sol\":10758:10790  Approval(owner, spender, amount) */\n      0xffffffffffffffffffffffffffffffffffffffff\n      and\n      0x8c5be1e5ebec7d5bd14f71427d1e84f3dd0314c0f7b2291e5b200ac8c7c3b925\n        /* \"@openzeppelin/contracts/token/ERC20/ERC20.sol\":10783:10789  amount */\n      dup4\n        /* \"@openzeppelin/contracts/token/ERC20/ERC20.sol\":10758:10790  Approval(owner, spender, amount) */\n      mload(0x40)\n      tag_248\n      swap2\n      swap1\n      tag_46\n      jump\t// in\n    tag_248:\n      mload(0x40)\n      dup1\n      swap2\n      sub\n      swap1\n      log3\n        /* \"@openzeppelin/contracts/token/ERC20/ERC20.sol\":10457:10797  function _approve(address owner, address spender, uint256 amount) internal virtual {... */\n      pop\n      pop\n      pop\n      jump\t// out\n        /* \"@openzeppelin/contracts/token/ERC20/ERC20.sol\":11078:11489  function _spendAllowance(address owner, address spender, uint256 amount) internal virtual {... */\n    tag_155:\n        /* \"@openzeppelin/contracts/token/ERC20/ERC20.sol\":11178:11202  uint256 currentAllowance */\n      0x00\n        /* \"@openzeppelin/contracts/token/ERC20/ERC20.sol\":11205:11230  allowance(owner, spender) */\n      tag_250\n        /* \"@openzeppelin/contracts/token/ERC20/ERC20.sol\":11215:11220  owner */\n      dup5\n        /* \"@openzeppelin/contracts/token/ERC20/ERC20.sol\":11222:11229  spender */\n      dup5\n        /* \"@openzeppelin/contracts/token/ERC20/ERC20.sol\":11205:11214  allowance */\n      tag_125\n        /* \"@openzeppelin/contracts/token/ERC20/ERC20.sol\":11205:11230  allowance(owner, spender) */\n      jump\t// in\n    tag_250:\n        /* \"@openzeppelin/contracts/token/ERC20/ERC20.sol\":11178:11230  uint256 currentAllowance = allowance(owner, spender) */\n      swap1\n      pop\n        /* \"@openzeppelin/contracts/token/ERC20/ERC20.sol\":11264:11281  type(uint256).max */\n      0xffffffffffffffffffffffffffffffffffffffffffffffffffffffffffffffff\n        /* \"@openzeppelin/contracts/token/ERC20/ERC20.sol\":11244:11260  currentAllowance */\n      dup2\n        /* \"@openzeppelin/contracts/token/ERC20/ERC20.sol\":11244:11281  currentAllowance != type(uint256).max */\n      eq\n        /* \"@openzeppelin/contracts/token/ERC20/ERC20.sol\":11240:11483  if (currentAllowance != type(uint256).max) {... */\n      tag_251\n      jumpi\n        /* \"@openzeppelin/contracts/token/ERC20/ERC20.sol\":11325:11331  amount */\n      dup2\n        /* \"@openzeppelin/contracts/token/ERC20/ERC20.sol\":11305:11321  currentAllowance */\n      dup2\n        /* \"@openzeppelin/contracts/token/ERC20/ERC20.sol\":11305:11331  currentAllowance >= amount */\n      lt\n      iszero\n        /* \"@openzeppelin/contracts/token/ERC20/ERC20.sol\":11297:11365  require(currentAllowance >= amount, \"ERC20: insufficient allowance\") */\n      tag_252\n      jumpi\n      mload(0x40)\n      0x08c379a000000000000000000000000000000000000000000000000000000000\n      dup2\n      mstore\n      0x04\n      add\n      tag_253\n      swap1\n      tag_254\n      jump\t// in\n    tag_253:\n      mload(0x40)\n      dup1\n      swap2\n      sub\n      swap1\n      revert\n    tag_252:\n        /* \"@openzeppelin/contracts/token/ERC20/ERC20.sol\":11407:11458  _approve(owner, spender, currentAllowance - amount) */\n      tag_255\n        /* \"@openzeppelin/contracts/token/ERC20/ERC20.sol\":11416:11421  owner */\n      dup5\n        /* \"@openzeppelin/contracts/token/ERC20/ERC20.sol\":11423:11430  spender */\n      dup5\n        /* \"@openzeppelin/contracts/token/ERC20/ERC20.sol\":11451:11457  amount */\n      dup5\n        /* \"@openzeppelin/contracts/token/ERC20/ERC20.sol\":11432:11448  currentAllowance */\n      dup5\n        /* \"@openzeppelin/contracts/token/ERC20/ERC20.sol\":11432:11457  currentAllowance - amount */\n      sub\n        /* \"@openzeppelin/contracts/token/ERC20/ERC20.sol\":11407:11415  _approve */\n      tag_142\n        /* \"@openzeppelin/contracts/token/ERC20/ERC20.sol\":11407:11458  _approve(owner, spender, currentAllowance - amount) */\n      jump\t// in\n    tag_255:\n        /* \"@openzeppelin/contracts/token/ERC20/ERC20.sol\":11240:11483  if (currentAllowance != type(uint256).max) {... */\n    tag_251:\n        /* \"@openzeppelin/contracts/token/ERC20/ERC20.sol\":11168:11489  {... */\n      pop\n        /* \"@openzeppelin/contracts/token/ERC20/ERC20.sol\":11078:11489  function _spendAllowance(address owner, address spender, uint256 amount) internal virtual {... */\n      pop\n      pop\n      pop\n      jump\t// out\n        /* \"@openzeppelin/contracts/token/ERC20/ERC20.sol\":7456:8244  function _transfer(address from, address to, uint256 amount) internal virtual {... */\n    tag_157:\n        /* \"@openzeppelin/contracts/token/ERC20/ERC20.sol\":7568:7569  0 */\n      0x00\n        /* \"@openzeppelin/contracts/token/ERC20/ERC20.sol\":7552:7570  from != address(0) */\n      0xffffffffffffffffffffffffffffffffffffffff\n      and\n        /* \"@openzeppelin/contracts/token/ERC20/ERC20.sol\":7552:7556  from */\n      dup4\n        /* \"@openzeppelin/contracts/token/ERC20/ERC20.sol\":7552:7570  from != address(0) */\n      0xffffffffffffffffffffffffffffffffffffffff\n      and\n      sub\n        /* \"@openzeppelin/contracts/token/ERC20/ERC20.sol\":7544:7612  require(from != address(0), \"ERC20: transfer from the zero address\") */\n      tag_257\n      jumpi\n      mload(0x40)\n      0x08c379a000000000000000000000000000000000000000000000000000000000\n      dup2\n      mstore\n      0x04\n      add\n      tag_258\n      swap1\n      tag_259\n      jump\t// in\n    tag_258:\n      mload(0x40)\n      dup1\n      swap2\n      sub\n      swap1\n      revert\n    tag_257:\n        /* \"@openzeppelin/contracts/token/ERC20/ERC20.sol\":7644:7645  0 */\n      0x00\n        /* \"@openzeppelin/contracts/token/ERC20/ERC20.sol\":7630:7646  to != address(0) */\n      0xffffffffffffffffffffffffffffffffffffffff\n      and\n        /* \"@openzeppelin/contracts/token/ERC20/ERC20.sol\":7630:7632  to */\n      dup3\n        /* \"@openzeppelin/contracts/token/ERC20/ERC20.sol\":7630:7646  to != address(0) */\n      0xffffffffffffffffffffffffffffffffffffffff\n      and\n      sub\n        /* \"@openzeppelin/contracts/token/ERC20/ERC20.sol\":7622:7686  require(to != address(0), \"ERC20: transfer to the zero address\") */\n      tag_260\n      jumpi\n      mload(0x40)\n      0x08c379a000000000000000000000000000000000000000000000000000000000\n      dup2\n      mstore\n      0x04\n      add\n      tag_261\n      swap1\n      tag_262\n      jump\t// in\n    tag_261:\n      mload(0x40)\n      dup1\n      swap2\n      sub\n      swap1\n      revert\n    tag_260:\n        /* \"@openzeppelin/contracts/token/ERC20/ERC20.sol\":7697:7735  _beforeTokenTransfer(from, to, amount) */\n      tag_263\n        /* \"@openzeppelin/contracts/token/ERC20/ERC20.sol\":7718:7722  from */\n      dup4\n        /* \"@openzeppelin/contracts/token/ERC20/ERC20.sol\":7724:7726  to */\n      dup4\n        /* \"@openzeppelin/contracts/token/ERC20/ERC20.sol\":7728:7734  amount */\n      dup4\n        /* \"@openzeppelin/contracts/token/ERC20/ERC20.sol\":7697:7717  _beforeTokenTransfer */\n      tag_264\n        /* \"@openzeppelin/contracts/token/ERC20/ERC20.sol\":7697:7735  _beforeTokenTransfer(from, to, amount) */\n      jump\t// in\n    tag_263:\n        /* \"@openzeppelin/contracts/token/ERC20/ERC20.sol\":7746:7765  uint256 fromBalance */\n      0x00\n        /* \"@openzeppelin/contracts/token/ERC20/ERC20.sol\":7768:7777  _balances */\n      dup1\n        /* \"@openzeppelin/contracts/token/ERC20/ERC20.sol\":7768:7783  _balances[from] */\n      0x00\n        /* \"@openzeppelin/contracts/token/ERC20/ERC20.sol\":7778:7782  from */\n      dup6\n        /* \"@openzeppelin/contracts/token/ERC20/ERC20.sol\":7768:7783  _balances[from] */\n      0xffffffffffffffffffffffffffffffffffffffff\n      and\n      0xffffffffffffffffffffffffffffffffffffffff\n      and\n      dup2\n      mstore\n      0x20\n      add\n      swap1\n      dup2\n      mstore\n      0x20\n      add\n      0x00\n      keccak256\n      sload\n        /* \"@openzeppelin/contracts/token/ERC20/ERC20.sol\":7746:7783  uint256 fromBalance = _balances[from] */\n      swap1\n      pop\n        /* \"@openzeppelin/contracts/token/ERC20/ERC20.sol\":7816:7822  amount */\n      dup2\n        /* \"@openzeppelin/contracts/token/ERC20/ERC20.sol\":7801:7812  fromBalance */\n      dup2\n        /* \"@openzeppelin/contracts/token/ERC20/ERC20.sol\":7801:7822  fromBalance >= amount */\n      lt\n      iszero\n        /* \"@openzeppelin/contracts/token/ERC20/ERC20.sol\":7793:7865  require(fromBalance >= amount, \"ERC20: transfer amount exceeds balance\") */\n      tag_265\n      jumpi\n      mload(0x40)\n      0x08c379a000000000000000000000000000000000000000000000000000000000\n      dup2\n      mstore\n      0x04\n      add\n      tag_266\n      swap1\n      tag_267\n      jump\t// in\n    tag_266:\n      mload(0x40)\n      dup1\n      swap2\n      sub\n      swap1\n      revert\n    tag_265:\n        /* \"@openzeppelin/contracts/token/ERC20/ERC20.sol\":7931:7937  amount */\n      dup2\n        /* \"@openzeppelin/contracts/token/ERC20/ERC20.sol\":7917:7928  fromBalance */\n      dup2\n        /* \"@openzeppelin/contracts/token/ERC20/ERC20.sol\":7917:7937  fromBalance - amount */\n      sub\n        /* \"@openzeppelin/contracts/token/ERC20/ERC20.sol\":7899:7908  _balances */\n      0x00\n        /* \"@openzeppelin/contracts/token/ERC20/ERC20.sol\":7899:7914  _balances[from] */\n      dup1\n        /* \"@openzeppelin/contracts/token/ERC20/ERC20.sol\":7909:7913  from */\n      dup7\n        /* \"@openzeppelin/contracts/token/ERC20/ERC20.sol\":7899:7914  _balances[from] */\n      0xffffffffffffffffffffffffffffffffffffffff\n      and\n      0xffffffffffffffffffffffffffffffffffffffff\n      and\n      dup2\n      mstore\n      0x20\n      add\n      swap1\n      dup2\n      mstore\n      0x20\n      add\n      0x00\n      keccak256\n        /* \"@openzeppelin/contracts/token/ERC20/ERC20.sol\":7899:7937  _balances[from] = fromBalance - amount */\n      dup2\n      swap1\n      sstore\n      pop\n        /* \"@openzeppelin/contracts/token/ERC20/ERC20.sol\":8131:8137  amount */\n      dup2\n        /* \"@openzeppelin/contracts/token/ERC20/ERC20.sol\":8114:8123  _balances */\n      0x00\n        /* \"@openzeppelin/contracts/token/ERC20/ERC20.sol\":8114:8127  _balances[to] */\n      dup1\n        /* \"@openzeppelin/contracts/token/ERC20/ERC20.sol\":8124:8126  to */\n      dup6\n        /* \"@openzeppelin/contracts/token/ERC20/ERC20.sol\":8114:8127  _balances[to] */\n      0xffffffffffffffffffffffffffffffffffffffff\n      and\n      0xffffffffffffffffffffffffffffffffffffffff\n      and\n      dup2\n      mstore\n      0x20\n      add\n      swap1\n      dup2\n      mstore\n      0x20\n      add\n      0x00\n      keccak256\n      0x00\n        /* \"@openzeppelin/contracts/token/ERC20/ERC20.sol\":8114:8137  _balances[to] += amount */\n      dup3\n      dup3\n      sload\n      add\n      swap3\n      pop\n      pop\n      dup2\n      swap1\n      sstore\n      pop\n        /* \"@openzeppelin/contracts/token/ERC20/ERC20.sol\":8178:8180  to */\n      dup3\n        /* \"@openzeppelin/contracts/token/ERC20/ERC20.sol\":8163:8189  Transfer(from, to, amount) */\n      0xffffffffffffffffffffffffffffffffffffffff\n      and\n        /* \"@openzeppelin/contracts/token/ERC20/ERC20.sol\":8172:8176  from */\n      dup5\n        /* \"@openzeppelin/contracts/token/ERC20/ERC20.sol\":8163:8189  Transfer(from, to, amount) */\n      0xffffffffffffffffffffffffffffffffffffffff\n      and\n      0xddf252ad1be2c89b69c2b068fc378daa952ba7f163c4a11628f55a4df523b3ef\n        /* \"@openzeppelin/contracts/token/ERC20/ERC20.sol\":8182:8188  amount */\n      dup5\n        /* \"@openzeppelin/contracts/token/ERC20/ERC20.sol\":8163:8189  Transfer(from, to, amount) */\n      mload(0x40)\n      tag_268\n      swap2\n      swap1\n      tag_46\n      jump\t// in\n    tag_268:\n      mload(0x40)\n      dup1\n      swap2\n      sub\n      swap1\n      log3\n        /* \"@openzeppelin/contracts/token/ERC20/ERC20.sol\":8200:8237  _afterTokenTransfer(from, to, amount) */\n      tag_269\n        /* \"@openzeppelin/contracts/token/ERC20/ERC20.sol\":8220:8224  from */\n      dup5\n        /* \"@openzeppelin/contracts/token/ERC20/ERC20.sol\":8226:8228  to */\n      dup5\n        /* \"@openzeppelin/contracts/token/ERC20/ERC20.sol\":8230:8236  amount */\n      dup5\n        /* \"@openzeppelin/contracts/token/ERC20/ERC20.sol\":8200:8219  _afterTokenTransfer */\n      tag_270\n        /* \"@openzeppelin/contracts/token/ERC20/ERC20.sol\":8200:8237  _afterTokenTransfer(from, to, amount) */\n      jump\t// in\n    tag_269:\n        /* \"@openzeppelin/contracts/token/ERC20/ERC20.sol\":7534:8244  {... */\n      pop\n        /* \"@openzeppelin/contracts/token/ERC20/ERC20.sol\":7456:8244  function _transfer(address from, address to, uint256 amount) internal virtual {... */\n      pop\n      pop\n      pop\n      jump\t// out\n        /* \"@openzeppelin/contracts/token/ERC20/ERC20.sol\":12073:12164  function _beforeTokenTransfer(address from, address to, uint256 amount) internal virtual {} */\n    tag_264:\n      pop\n      pop\n      pop\n      jump\t// out\n        /* \"@openzeppelin/contracts/token/ERC20/ERC20.sol\":12752:12842  function _afterTokenTransfer(address from, address to, uint256 amount) internal virtual {} */\n    tag_270:\n      pop\n      pop\n      pop\n      jump\t// out\n        /* \"#utility.yul\":7:106   */\n    tag_273:\n        /* \"#utility.yul\":59:65   */\n      0x00\n        /* \"#utility.yul\":93:98   */\n      dup2\n        /* \"#utility.yul\":87:99   */\n      mload\n        /* \"#utility.yul\":77:99   */\n      swap1\n      pop\n        /* \"#utility.yul\":7:106   */\n      swap2\n      swap1\n      pop\n      jump\t// out\n        /* \"#utility.yul\":112:281   */\n    tag_274:\n        /* \"#utility.yul\":196:207   */\n      0x00\n        /* \"#utility.yul\":230:236   */\n      dup3\n        /* \"#utility.yul\":225:228   */\n      dup3\n        /* \"#utility.yul\":218:237   */\n      mstore\n        /* \"#utility.yul\":270:274   */\n      0x20\n        /* \"#utility.yul\":265:268   */\n      dup3\n        /* \"#utility.yul\":261:275   */\n      add\n        /* \"#utility.yul\":246:275   */\n      swap1\n      pop\n        /* \"#utility.yul\":112:281   */\n      swap3\n      swap2\n      pop\n      pop\n      jump\t// out\n        /* \"#utility.yul\":287:533   */\n    tag_275:\n        /* \"#utility.yul\":368:369   */\n      0x00\n        /* \"#utility.yul\":378:491   */\n    tag_340:\n        /* \"#utility.yul\":392:398   */\n      dup4\n        /* \"#utility.yul\":389:390   */\n      dup2\n        /* \"#utility.yul\":386:399   */\n      lt\n        /* \"#utility.yul\":378:491   */\n      iszero\n      tag_342\n      jumpi\n        /* \"#utility.yul\":477:478   */\n      dup1\n        /* \"#utility.yul\":472:475   */\n      dup3\n        /* \"#utility.yul\":468:479   */\n      add\n        /* \"#utility.yul\":462:480   */\n      mload\n        /* \"#utility.yul\":458:459   */\n      dup2\n        /* \"#utility.yul\":453:456   */\n      dup5\n        /* \"#utility.yul\":449:460   */\n      add\n        /* \"#utility.yul\":442:481   */\n      mstore\n        /* \"#utility.yul\":414:416   */\n      0x20\n        /* \"#utility.yul\":411:412   */\n      dup2\n        /* \"#utility.yul\":407:417   */\n      add\n        /* \"#utility.yul\":402:417   */\n      swap1\n      pop\n        /* \"#utility.yul\":378:491   */\n      jump(tag_340)\n    tag_342:\n        /* \"#utility.yul\":525:526   */\n      0x00\n        /* \"#utility.yul\":516:522   */\n      dup5\n        /* \"#utility.yul\":511:514   */\n      dup5\n        /* \"#utility.yul\":507:523   */\n      add\n        /* \"#utility.yul\":500:527   */\n      mstore\n        /* \"#utility.yul\":349:533   */\n      pop\n        /* \"#utility.yul\":287:533   */\n      pop\n      pop\n      pop\n      jump\t// out\n        /* \"#utility.yul\":539:641   */\n    tag_276:\n        /* \"#utility.yul\":580:586   */\n      0x00\n        /* \"#utility.yul\":631:633   */\n      0x1f\n        /* \"#utility.yul\":627:634   */\n      not\n        /* \"#utility.yul\":622:624   */\n      0x1f\n        /* \"#utility.yul\":615:620   */\n      dup4\n        /* \"#utility.yul\":611:625   */\n      add\n        /* \"#utility.yul\":607:635   */\n      and\n        /* \"#utility.yul\":597:635   */\n      swap1\n      pop\n        /* \"#utility.yul\":539:641   */\n      swap2\n      swap1\n      pop\n      jump\t// out\n        /* \"#utility.yul\":647:1024   */\n    tag_277:\n        /* \"#utility.yul\":735:738   */\n      0x00\n        /* \"#utility.yul\":763:802   */\n      tag_345\n        /* \"#utility.yul\":796:801   */\n      dup3\n        /* \"#utility.yul\":763:802   */\n      tag_273\n      jump\t// in\n    tag_345:\n        /* \"#utility.yul\":818:889   */\n      tag_346\n        /* \"#utility.yul\":882:888   */\n      dup2\n        /* \"#utility.yul\":877:880   */\n      dup6\n        /* \"#utility.yul\":818:889   */\n      tag_274\n      jump\t// in\n    tag_346:\n        /* \"#utility.yul\":811:889   */\n      swap4\n      pop\n        /* \"#utility.yul\":898:963   */\n      tag_347\n        /* \"#utility.yul\":956:962   */\n      dup2\n        /* \"#utility.yul\":951:954   */\n      dup6\n        /* \"#utility.yul\":944:948   */\n      0x20\n        /* \"#utility.yul\":937:942   */\n      dup7\n        /* \"#utility.yul\":933:949   */\n      add\n        /* \"#utility.yul\":898:963   */\n      tag_275\n      jump\t// in\n    tag_347:\n        /* \"#utility.yul\":988:1017   */\n      tag_348\n        /* \"#utility.yul\":1010:1016   */\n      dup2\n        /* \"#utility.yul\":988:1017   */\n      tag_276\n      jump\t// in\n    tag_348:\n        /* \"#utility.yul\":983:986   */\n      dup5\n        /* \"#utility.yul\":979:1018   */\n      add\n        /* \"#utility.yul\":972:1018   */\n      swap2\n      pop\n        /* \"#utility.yul\":739:1024   */\n      pop\n        /* \"#utility.yul\":647:1024   */\n      swap3\n      swap2\n      pop\n      pop\n      jump\t// out\n        /* \"#utility.yul\":1030:1343   */\n    tag_31:\n        /* \"#utility.yul\":1143:1147   */\n      0x00\n        /* \"#utility.yul\":1181:1183   */\n      0x20\n        /* \"#utility.yul\":1170:1179   */\n      dup3\n        /* \"#utility.yul\":1166:1184   */\n      add\n        /* \"#utility.yul\":1158:1184   */\n      swap1\n      pop\n        /* \"#utility.yul\":1230:1239   */\n      dup2\n        /* \"#utility.yul\":1224:1228   */\n      dup2\n        /* \"#utility.yul\":1220:1240   */\n      sub\n        /* \"#utility.yul\":1216:1217   */\n      0x00\n        /* \"#utility.yul\":1205:1214   */\n      dup4\n        /* \"#utility.yul\":1201:1218   */\n      add\n        /* \"#utility.yul\":1194:1241   */\n      mstore\n        /* \"#utility.yul\":1258:1336   */\n      tag_350\n        /* \"#utility.yul\":1331:1335   */\n      dup2\n        /* \"#utility.yul\":1322:1328   */\n      dup5\n        /* \"#utility.yul\":1258:1336   */\n      tag_277\n      jump\t// in\n    tag_350:\n        /* \"#utility.yul\":1250:1336   */\n      swap1\n      pop\n        /* \"#utility.yul\":1030:1343   */\n      swap3\n      swap2\n      pop\n      pop\n      jump\t// out\n        /* \"#utility.yul\":1349:1424   */\n    tag_278:\n        /* \"#utility.yul\":1382:1388   */\n      0x00\n        /* \"#utility.yul\":1415:1417   */\n      0x40\n        /* \"#utility.yul\":1409:1418   */\n      mload\n        /* \"#utility.yul\":1399:1418   */\n      swap1\n      pop\n        /* \"#utility.yul\":1349:1424   */\n      swap1\n      jump\t// out\n        /* \"#utility.yul\":1430:1547   */\n    tag_279:\n        /* \"#utility.yul\":1539:1540   */\n      0x00\n        /* \"#utility.yul\":1536:1537   */\n      dup1\n        /* \"#utility.yul\":1529:1541   */\n      revert\n        /* \"#utility.yul\":1553:1670   */\n    tag_280:\n        /* \"#utility.yul\":1662:1663   */\n      0x00\n        /* \"#utility.yul\":1659:1660   */\n      dup1\n        /* \"#utility.yul\":1652:1664   */\n      revert\n        /* \"#utility.yul\":1676:1802   */\n    tag_281:\n        /* \"#utility.yul\":1713:1720   */\n      0x00\n        /* \"#utility.yul\":1753:1795   */\n      0xffffffffffffffffffffffffffffffffffffffff\n        /* \"#utility.yul\":1746:1751   */\n      dup3\n        /* \"#utility.yul\":1742:1796   */\n      and\n        /* \"#utility.yul\":1731:1796   */\n      swap1\n      pop\n        /* \"#utility.yul\":1676:1802   */\n      swap2\n      swap1\n      pop\n      jump\t// out\n        /* \"#utility.yul\":1808:1904   */\n    tag_282:\n        /* \"#utility.yul\":1845:1852   */\n      0x00\n        /* \"#utility.yul\":1874:1898   */\n      tag_356\n        /* \"#utility.yul\":1892:1897   */\n      dup3\n        /* \"#utility.yul\":1874:1898   */\n      tag_281\n      jump\t// in\n    tag_356:\n        /* \"#utility.yul\":1863:1898   */\n      swap1\n      pop\n        /* \"#utility.yul\":1808:1904   */\n      swap2\n      swap1\n      pop\n      jump\t// out\n        /* \"#utility.yul\":1910:2032   */\n    tag_283:\n        /* \"#utility.yul\":1983:2007   */\n      tag_358\n        /* \"#utility.yul\":2001:2006   */\n      dup2\n        /* \"#utility.yul\":1983:2007   */\n      tag_282\n      jump\t// in\n    tag_358:\n        /* \"#utility.yul\":1976:1981   */\n      dup2\n        /* \"#utility.yul\":1973:2008   */\n      eq\n        /* \"#utility.yul\":1963:2026   */\n      tag_359\n      jumpi\n        /* \"#utility.yul\":2022:2023   */\n      0x00\n        /* \"#utility.yul\":2019:2020   */\n      dup1\n        /* \"#utility.yul\":2012:2024   */\n      revert\n        /* \"#utility.yul\":1963:2026   */\n    tag_359:\n        /* \"#utility.yul\":1910:2032   */\n      pop\n      jump\t// out\n        /* \"#utility.yul\":2038:2177   */\n    tag_284:\n        /* \"#utility.yul\":2084:2089   */\n      0x00\n        /* \"#utility.yul\":2122:2128   */\n      dup2\n        /* \"#utility.yul\":2109:2129   */\n      calldataload\n        /* \"#utility.yul\":2100:2129   */\n      swap1\n      pop\n        /* \"#utility.yul\":2138:2171   */\n      tag_361\n        /* \"#utility.yul\":2165:2170   */\n      dup2\n        /* \"#utility.yul\":2138:2171   */\n      tag_283\n      jump\t// in\n    tag_361:\n        /* \"#utility.yul\":2038:2177   */\n      swap3\n      swap2\n      pop\n      pop\n      jump\t// out\n        /* \"#utility.yul\":2183:2260   */\n    tag_285:\n        /* \"#utility.yul\":2220:2227   */\n      0x00\n        /* \"#utility.yul\":2249:2254   */\n      dup2\n        /* \"#utility.yul\":2238:2254   */\n      swap1\n      pop\n        /* \"#utility.yul\":2183:2260   */\n      swap2\n      swap1\n      pop\n      jump\t// out\n        /* \"#utility.yul\":2266:2388   */\n    tag_286:\n        /* \"#utility.yul\":2339:2363   */\n      tag_364\n        /* \"#utility.yul\":2357:2362   */\n      dup2\n        /* \"#utility.yul\":2339:2363   */\n      tag_285\n      jump\t// in\n    tag_364:\n        /* \"#utility.yul\":2332:2337   */\n      dup2\n        /* \"#utility.yul\":2329:2364   */\n      eq\n        /* \"#utility.yul\":2319:2382   */\n      tag_365\n      jumpi\n        /* \"#utility.yul\":2378:2379   */\n      0x00\n        /* \"#utility.yul\":2375:2376   */\n      dup1\n        /* \"#utility.yul\":2368:2380   */\n      revert\n        /* \"#utility.yul\":2319:2382   */\n    tag_365:\n        /* \"#utility.yul\":2266:2388   */\n      pop\n      jump\t// out\n        /* \"#utility.yul\":2394:2533   */\n    tag_287:\n        /* \"#utility.yul\":2440:2445   */\n      0x00\n        /* \"#utility.yul\":2478:2484   */\n      dup2\n        /* \"#utility.yul\":2465:2485   */\n      calldataload\n        /* \"#utility.yul\":2456:2485   */\n      swap1\n      pop\n        /* \"#utility.yul\":2494:2527   */\n      tag_367\n        /* \"#utility.yul\":2521:2526   */\n      dup2\n        /* \"#utility.yul\":2494:2527   */\n      tag_286\n      jump\t// in\n    tag_367:\n        /* \"#utility.yul\":2394:2533   */\n      swap3\n      swap2\n      pop\n      pop\n      jump\t// out\n        /* \"#utility.yul\":2539:3013   */\n    tag_35:\n        /* \"#utility.yul\":2607:2613   */\n      0x00\n        /* \"#utility.yul\":2615:2621   */\n      dup1\n        /* \"#utility.yul\":2664:2666   */\n      0x40\n        /* \"#utility.yul\":2652:2661   */\n      dup4\n        /* \"#utility.yul\":2643:2650   */\n      dup6\n        /* \"#utility.yul\":2639:2662   */\n      sub\n        /* \"#utility.yul\":2635:2667   */\n      slt\n        /* \"#utility.yul\":2632:2751   */\n      iszero\n      tag_369\n      jumpi\n        /* \"#utility.yul\":2670:2749   */\n      tag_370\n      tag_279\n      jump\t// in\n    tag_370:\n        /* \"#utility.yul\":2632:2751   */\n    tag_369:\n        /* \"#utility.yul\":2790:2791   */\n      0x00\n        /* \"#utility.yul\":2815:2868   */\n      tag_371\n        /* \"#utility.yul\":2860:2867   */\n      dup6\n        /* \"#utility.yul\":2851:2857   */\n      dup3\n        /* \"#utility.yul\":2840:2849   */\n      dup7\n        /* \"#utility.yul\":2836:2858   */\n      add\n        /* \"#utility.yul\":2815:2868   */\n      tag_284\n      jump\t// in\n    tag_371:\n        /* \"#utility.yul\":2805:2868   */\n      swap3\n      pop\n        /* \"#utility.yul\":2761:2878   */\n      pop\n        /* \"#utility.yul\":2917:2919   */\n      0x20\n        /* \"#utility.yul\":2943:2996   */\n      tag_372\n        /* \"#utility.yul\":2988:2995   */\n      dup6\n        /* \"#utility.yul\":2979:2985   */\n      dup3\n        /* \"#utility.yul\":2968:2977   */\n      dup7\n        /* \"#utility.yul\":2964:2986   */\n      add\n        /* \"#utility.yul\":2943:2996   */\n      tag_287\n      jump\t// in\n    tag_372:\n        /* \"#utility.yul\":2933:2996   */\n      swap2\n      pop\n        /* \"#utility.yul\":2888:3006   */\n      pop\n        /* \"#utility.yul\":2539:3013   */\n      swap3\n      pop\n      swap3\n      swap1\n      pop\n      jump\t// out\n        /* \"#utility.yul\":3019:3109   */\n    tag_288:\n        /* \"#utility.yul\":3053:3060   */\n      0x00\n        /* \"#utility.yul\":3096:3101   */\n      dup2\n        /* \"#utility.yul\":3089:3102   */\n      iszero\n        /* \"#utility.yul\":3082:3103   */\n      iszero\n        /* \"#utility.yul\":3071:3103   */\n      swap1\n      pop\n        /* \"#utility.yul\":3019:3109   */\n      swap2\n      swap1\n      pop\n      jump\t// out\n        /* \"#utility.yul\":3115:3224   */\n    tag_289:\n        /* \"#utility.yul\":3196:3217   */\n      tag_375\n        /* \"#utility.yul\":3211:3216   */\n      dup2\n        /* \"#utility.yul\":3196:3217   */\n      tag_288\n      jump\t// in\n    tag_375:\n        /* \"#utility.yul\":3191:3194   */\n      dup3\n        /* \"#utility.yul\":3184:3218   */\n      mstore\n        /* \"#utility.yul\":3115:3224   */\n      pop\n      pop\n      jump\t// out\n        /* \"#utility.yul\":3230:3440   */\n    tag_38:\n        /* \"#utility.yul\":3317:3321   */\n      0x00\n        /* \"#utility.yul\":3355:3357   */\n      0x20\n        /* \"#utility.yul\":3344:3353   */\n      dup3\n        /* \"#utility.yul\":3340:3358   */\n      add\n        /* \"#utility.yul\":3332:3358   */\n      swap1\n      pop\n        /* \"#utility.yul\":3368:3433   */\n      tag_377\n        /* \"#utility.yul\":3430:3431   */\n      0x00\n        /* \"#utility.yul\":3419:3428   */\n      dup4\n        /* \"#utility.yul\":3415:3432   */\n      add\n        /* \"#utility.yul\":3406:3412   */\n      dup5\n        /* \"#utility.yul\":3368:3433   */\n      tag_289\n      jump\t// in\n    tag_377:\n        /* \"#utility.yul\":3230:3440   */\n      swap3\n      swap2\n      pop\n      pop\n      jump\t// out\n        /* \"#utility.yul\":3446:3564   */\n    tag_290:\n        /* \"#utility.yul\":3533:3557   */\n      tag_379\n        /* \"#utility.yul\":3551:3556   */\n      dup2\n        /* \"#utility.yul\":3533:3557   */\n      tag_285\n      jump\t// in\n    tag_379:\n        /* \"#utility.yul\":3528:3531   */\n      dup3\n        /* \"#utility.yul\":3521:3558   */\n      mstore\n        /* \"#utility.yul\":3446:3564   */\n      pop\n      pop\n      jump\t// out\n        /* \"#utility.yul\":3570:3792   */\n    tag_46:\n        /* \"#utility.yul\":3663:3667   */\n      0x00\n        /* \"#utility.yul\":3701:3703   */\n      0x20\n        /* \"#utility.yul\":3690:3699   */\n      dup3\n        /* \"#utility.yul\":3686:3704   */\n      add\n        /* \"#utility.yul\":3678:3704   */\n      swap1\n      pop\n        /* \"#utility.yul\":3714:3785   */\n      tag_381\n        /* \"#utility.yul\":3782:3783   */\n      0x00\n        /* \"#utility.yul\":3771:3780   */\n      dup4\n        /* \"#utility.yul\":3767:3784   */\n      add\n        /* \"#utility.yul\":3758:3764   */\n      dup5\n        /* \"#utility.yul\":3714:3785   */\n      tag_290\n      jump\t// in\n    tag_381:\n        /* \"#utility.yul\":3570:3792   */\n      swap3\n      swap2\n      pop\n      pop\n      jump\t// out\n        /* \"#utility.yul\":3798:4417   */\n    tag_54:\n        /* \"#utility.yul\":3875:3881   */\n      0x00\n        /* \"#utility.yul\":3883:3889   */\n      dup1\n        /* \"#utility.yul\":3891:3897   */\n      0x00\n        /* \"#utility.yul\":3940:3942   */\n      0x60\n        /* \"#utility.yul\":3928:3937   */\n      dup5\n        /* \"#utility.yul\":3919:3926   */\n      dup7\n        /* \"#utility.yul\":3915:3938   */\n      sub\n        /* \"#utility.yul\":3911:3943   */\n      slt\n        /* \"#utility.yul\":3908:4027   */\n      iszero\n      tag_383\n      jumpi\n        /* \"#utility.yul\":3946:4025   */\n      tag_384\n      tag_279\n      jump\t// in\n    tag_384:\n        /* \"#utility.yul\":3908:4027   */\n    tag_383:\n        /* \"#utility.yul\":4066:4067   */\n      0x00\n        /* \"#utility.yul\":4091:4144   */\n      tag_385\n        /* \"#utility.yul\":4136:4143   */\n      dup7\n        /* \"#utility.yul\":4127:4133   */\n      dup3\n        /* \"#utility.yul\":4116:4125   */\n      dup8\n        /* \"#utility.yul\":4112:4134   */\n      add\n        /* \"#utility.yul\":4091:4144   */\n      tag_284\n      jump\t// in\n    tag_385:\n        /* \"#utility.yul\":4081:4144   */\n      swap4\n      pop\n        /* \"#utility.yul\":4037:4154   */\n      pop\n        /* \"#utility.yul\":4193:4195   */\n      0x20\n        /* \"#utility.yul\":4219:4272   */\n      tag_386\n        /* \"#utility.yul\":4264:4271   */\n      dup7\n        /* \"#utility.yul\":4255:4261   */\n      dup3\n        /* \"#utility.yul\":4244:4253   */\n      dup8\n        /* \"#utility.yul\":4240:4262   */\n      add\n        /* \"#utility.yul\":4219:4272   */\n      tag_284\n      jump\t// in\n    tag_386:\n        /* \"#utility.yul\":4209:4272   */\n      swap3\n      pop\n        /* \"#utility.yul\":4164:4282   */\n      pop\n        /* \"#utility.yul\":4321:4323   */\n      0x40\n        /* \"#utility.yul\":4347:4400   */\n      tag_387\n        /* \"#utility.yul\":4392:4399   */\n      dup7\n        /* \"#utility.yul\":4383:4389   */\n      dup3\n        /* \"#utility.yul\":4372:4381   */\n      dup8\n        /* \"#utility.yul\":4368:4390   */\n      add\n        /* \"#utility.yul\":4347:4400   */\n      tag_287\n      jump\t// in\n    tag_387:\n        /* \"#utility.yul\":4337:4400   */\n      swap2\n      pop\n        /* \"#utility.yul\":4292:4410   */\n      pop\n        /* \"#utility.yul\":3798:4417   */\n      swap3\n      pop\n      swap3\n      pop\n      swap3\n      jump\t// out\n        /* \"#utility.yul\":4423:4509   */\n    tag_291:\n        /* \"#utility.yul\":4458:4465   */\n      0x00\n        /* \"#utility.yul\":4498:4502   */\n      0xff\n        /* \"#utility.yul\":4491:4496   */\n      dup3\n        /* \"#utility.yul\":4487:4503   */\n      and\n        /* \"#utility.yul\":4476:4503   */\n      swap1\n      pop\n        /* \"#utility.yul\":4423:4509   */\n      swap2\n      swap1\n      pop\n      jump\t// out\n        /* \"#utility.yul\":4515:4627   */\n    tag_292:\n        /* \"#utility.yul\":4598:4620   */\n      tag_390\n        /* \"#utility.yul\":4614:4619   */\n      dup2\n        /* \"#utility.yul\":4598:4620   */\n      tag_291\n      jump\t// in\n    tag_390:\n        /* \"#utility.yul\":4593:4596   */\n      dup3\n        /* \"#utility.yul\":4586:4621   */\n      mstore\n        /* \"#utility.yul\":4515:4627   */\n      pop\n      pop\n      jump\t// out\n        /* \"#utility.yul\":4633:4847   */\n    tag_61:\n        /* \"#utility.yul\":4722:4726   */\n      0x00\n        /* \"#utility.yul\":4760:4762   */\n      0x20\n        /* \"#utility.yul\":4749:4758   */\n      dup3\n        /* \"#utility.yul\":4745:4763   */\n      add\n        /* \"#utility.yul\":4737:4763   */\n      swap1\n      pop\n        /* \"#utility.yul\":4773:4840   */\n      tag_392\n        /* \"#utility.yul\":4837:4838   */\n      0x00\n        /* \"#utility.yul\":4826:4835   */\n      dup4\n        /* \"#utility.yul\":4822:4839   */\n      add\n        /* \"#utility.yul\":4813:4819   */\n      dup5\n        /* \"#utility.yul\":4773:4840   */\n      tag_292\n      jump\t// in\n    tag_392:\n        /* \"#utility.yul\":4633:4847   */\n      swap3\n      swap2\n      pop\n      pop\n      jump\t// out\n        /* \"#utility.yul\":4853:5182   */\n    tag_69:\n        /* \"#utility.yul\":4912:4918   */\n      0x00\n        /* \"#utility.yul\":4961:4963   */\n      0x20\n        /* \"#utility.yul\":4949:4958   */\n      dup3\n        /* \"#utility.yul\":4940:4947   */\n      dup5\n        /* \"#utility.yul\":4936:4959   */\n      sub\n        /* \"#utility.yul\":4932:4964   */\n      slt\n        /* \"#utility.yul\":4929:5048   */\n      iszero\n      tag_394\n      jumpi\n        /* \"#utility.yul\":4967:5046   */\n      tag_395\n      tag_279\n      jump\t// in\n    tag_395:\n        /* \"#utility.yul\":4929:5048   */\n    tag_394:\n        /* \"#utility.yul\":5087:5088   */\n      0x00\n        /* \"#utility.yul\":5112:5165   */\n      tag_396\n        /* \"#utility.yul\":5157:5164   */\n      dup5\n        /* \"#utility.yul\":5148:5154   */\n      dup3\n        /* \"#utility.yul\":5137:5146   */\n      dup6\n        /* \"#utility.yul\":5133:5155   */\n      add\n        /* \"#utility.yul\":5112:5165   */\n      tag_287\n      jump\t// in\n    tag_396:\n        /* \"#utility.yul\":5102:5165   */\n      swap2\n      pop\n        /* \"#utility.yul\":5058:5175   */\n      pop\n        /* \"#utility.yul\":4853:5182   */\n      swap3\n      swap2\n      pop\n      pop\n      jump\t// out\n        /* \"#utility.yul\":5188:5305   */\n    tag_293:\n        /* \"#utility.yul\":5297:5298   */\n      0x00\n        /* \"#utility.yul\":5294:5295   */\n      dup1\n        /* \"#utility.yul\":5287:5299   */\n      revert\n        /* \"#utility.yul\":5311:5491   */\n    tag_294:\n        /* \"#utility.yul\":5359:5436   */\n      0x4e487b7100000000000000000000000000000000000000000000000000000000\n        /* \"#utility.yul\":5356:5357   */\n      0x00\n        /* \"#utility.yul\":5349:5437   */\n      mstore\n        /* \"#utility.yul\":5456:5460   */\n      0x41\n        /* \"#utility.yul\":5453:5454   */\n      0x04\n        /* \"#utility.yul\":5446:5461   */\n      mstore\n        /* \"#utility.yul\":5480:5484   */\n      0x24\n        /* \"#utility.yul\":5477:5478   */\n      0x00\n        /* \"#utility.yul\":5470:5485   */\n      revert\n        /* \"#utility.yul\":5497:5778   */\n    tag_295:\n        /* \"#utility.yul\":5580:5607   */\n      tag_400\n        /* \"#utility.yul\":5602:5606   */\n      dup3\n        /* \"#utility.yul\":5580:5607   */\n      tag_276\n      jump\t// in\n    tag_400:\n        /* \"#utility.yul\":5572:5578   */\n      dup2\n        /* \"#utility.yul\":5568:5608   */\n      add\n        /* \"#utility.yul\":5710:5716   */\n      dup2\n        /* \"#utility.yul\":5698:5708   */\n      dup2\n        /* \"#utility.yul\":5695:5717   */\n      lt\n        /* \"#utility.yul\":5674:5692   */\n      0xffffffffffffffff\n        /* \"#utility.yul\":5662:5672   */\n      dup3\n        /* \"#utility.yul\":5659:5693   */\n      gt\n        /* \"#utility.yul\":5656:5718   */\n      or\n        /* \"#utility.yul\":5653:5741   */\n      iszero\n      tag_401\n      jumpi\n        /* \"#utility.yul\":5721:5739   */\n      tag_402\n      tag_294\n      jump\t// in\n    tag_402:\n        /* \"#utility.yul\":5653:5741   */\n    tag_401:\n        /* \"#utility.yul\":5761:5771   */\n      dup1\n        /* \"#utility.yul\":5757:5759   */\n      0x40\n        /* \"#utility.yul\":5750:5772   */\n      mstore\n        /* \"#utility.yul\":5540:5778   */\n      pop\n        /* \"#utility.yul\":5497:5778   */\n      pop\n      pop\n      jump\t// out\n        /* \"#utility.yul\":5784:5913   */\n    tag_296:\n        /* \"#utility.yul\":5818:5824   */\n      0x00\n        /* \"#utility.yul\":5845:5865   */\n      tag_404\n      tag_278\n      jump\t// in\n    tag_404:\n        /* \"#utility.yul\":5835:5865   */\n      swap1\n      pop\n        /* \"#utility.yul\":5874:5907   */\n      tag_405\n        /* \"#utility.yul\":5902:5906   */\n      dup3\n        /* \"#utility.yul\":5894:5900   */\n      dup3\n        /* \"#utility.yul\":5874:5907   */\n      tag_295\n      jump\t// in\n    tag_405:\n        /* \"#utility.yul\":5784:5913   */\n      swap2\n      swap1\n      pop\n      jump\t// out\n        /* \"#utility.yul\":5919:6230   */\n    tag_297:\n        /* \"#utility.yul\":5996:6000   */\n      0x00\n        /* \"#utility.yul\":6086:6104   */\n      0xffffffffffffffff\n        /* \"#utility.yul\":6078:6084   */\n      dup3\n        /* \"#utility.yul\":6075:6105   */\n      gt\n        /* \"#utility.yul\":6072:6128   */\n      iszero\n      tag_407\n      jumpi\n        /* \"#utility.yul\":6108:6126   */\n      tag_408\n      tag_294\n      jump\t// in\n    tag_408:\n        /* \"#utility.yul\":6072:6128   */\n    tag_407:\n        /* \"#utility.yul\":6158:6162   */\n      0x20\n        /* \"#utility.yul\":6150:6156   */\n      dup3\n        /* \"#utility.yul\":6146:6163   */\n      mul\n        /* \"#utility.yul\":6138:6163   */\n      swap1\n      pop\n        /* \"#utility.yul\":6218:6222   */\n      0x20\n        /* \"#utility.yul\":6212:6216   */\n      dup2\n        /* \"#utility.yul\":6208:6223   */\n      add\n        /* \"#utility.yul\":6200:6223   */\n      swap1\n      pop\n        /* \"#utility.yul\":5919:6230   */\n      swap2\n      swap1\n      pop\n      jump\t// out\n        /* \"#utility.yul\":6236:6353   */\n    tag_298:\n        /* \"#utility.yul\":6345:6346   */\n      0x00\n        /* \"#utility.yul\":6342:6343   */\n      dup1\n        /* \"#utility.yul\":6335:6347   */\n      revert\n        /* \"#utility.yul\":6376:7086   */\n    tag_299:\n        /* \"#utility.yul\":6472:6477   */\n      0x00\n        /* \"#utility.yul\":6497:6578   */\n      tag_411\n        /* \"#utility.yul\":6513:6577   */\n      tag_412\n        /* \"#utility.yul\":6570:6576   */\n      dup5\n        /* \"#utility.yul\":6513:6577   */\n      tag_297\n      jump\t// in\n    tag_412:\n        /* \"#utility.yul\":6497:6578   */\n      tag_296\n      jump\t// in\n    tag_411:\n        /* \"#utility.yul\":6488:6578   */\n      swap1\n      pop\n        /* \"#utility.yul\":6598:6603   */\n      dup1\n        /* \"#utility.yul\":6627:6633   */\n      dup4\n        /* \"#utility.yul\":6620:6625   */\n      dup3\n        /* \"#utility.yul\":6613:6634   */\n      mstore\n        /* \"#utility.yul\":6661:6665   */\n      0x20\n        /* \"#utility.yul\":6654:6659   */\n      dup3\n        /* \"#utility.yul\":6650:6666   */\n      add\n        /* \"#utility.yul\":6643:6666   */\n      swap1\n      pop\n        /* \"#utility.yul\":6714:6718   */\n      0x20\n        /* \"#utility.yul\":6706:6712   */\n      dup5\n        /* \"#utility.yul\":6702:6719   */\n      mul\n        /* \"#utility.yul\":6694:6700   */\n      dup4\n        /* \"#utility.yul\":6690:6720   */\n      add\n        /* \"#utility.yul\":6743:6746   */\n      dup6\n        /* \"#utility.yul\":6735:6741   */\n      dup2\n        /* \"#utility.yul\":6732:6747   */\n      gt\n        /* \"#utility.yul\":6729:6851   */\n      iszero\n      tag_413\n      jumpi\n        /* \"#utility.yul\":6762:6841   */\n      tag_414\n      tag_298\n      jump\t// in\n    tag_414:\n        /* \"#utility.yul\":6729:6851   */\n    tag_413:\n        /* \"#utility.yul\":6877:6883   */\n      dup4\n        /* \"#utility.yul\":6860:7080   */\n    tag_415:\n        /* \"#utility.yul\":6894:6900   */\n      dup2\n        /* \"#utility.yul\":6889:6892   */\n      dup2\n        /* \"#utility.yul\":6886:6901   */\n      lt\n        /* \"#utility.yul\":6860:7080   */\n      iszero\n      tag_417\n      jumpi\n        /* \"#utility.yul\":6969:6972   */\n      dup1\n        /* \"#utility.yul\":6998:7035   */\n      tag_418\n        /* \"#utility.yul\":7031:7034   */\n      dup9\n        /* \"#utility.yul\":7019:7029   */\n      dup3\n        /* \"#utility.yul\":6998:7035   */\n      tag_284\n      jump\t// in\n    tag_418:\n        /* \"#utility.yul\":6993:6996   */\n      dup5\n        /* \"#utility.yul\":6986:7036   */\n      mstore\n        /* \"#utility.yul\":7065:7069   */\n      0x20\n        /* \"#utility.yul\":7060:7063   */\n      dup5\n        /* \"#utility.yul\":7056:7070   */\n      add\n        /* \"#utility.yul\":7049:7070   */\n      swap4\n      pop\n        /* \"#utility.yul\":6936:7080   */\n      pop\n        /* \"#utility.yul\":6920:6924   */\n      0x20\n        /* \"#utility.yul\":6915:6918   */\n      dup2\n        /* \"#utility.yul\":6911:6925   */\n      add\n        /* \"#utility.yul\":6904:6925   */\n      swap1\n      pop\n        /* \"#utility.yul\":6860:7080   */\n      jump(tag_415)\n    tag_417:\n        /* \"#utility.yul\":6864:6885   */\n      pop\n        /* \"#utility.yul\":6478:7086   */\n      pop\n      pop\n        /* \"#utility.yul\":6376:7086   */\n      swap4\n      swap3\n      pop\n      pop\n      pop\n      jump\t// out\n        /* \"#utility.yul\":7109:7479   */\n    tag_300:\n        /* \"#utility.yul\":7180:7185   */\n      0x00\n        /* \"#utility.yul\":7229:7232   */\n      dup3\n        /* \"#utility.yul\":7222:7226   */\n      0x1f\n        /* \"#utility.yul\":7214:7220   */\n      dup4\n        /* \"#utility.yul\":7210:7227   */\n      add\n        /* \"#utility.yul\":7206:7233   */\n      slt\n        /* \"#utility.yul\":7196:7318   */\n      tag_420\n      jumpi\n        /* \"#utility.yul\":7237:7316   */\n      tag_421\n      tag_293\n      jump\t// in\n    tag_421:\n        /* \"#utility.yul\":7196:7318   */\n    tag_420:\n        /* \"#utility.yul\":7354:7360   */\n      dup2\n        /* \"#utility.yul\":7341:7361   */\n      calldataload\n        /* \"#utility.yul\":7379:7473   */\n      tag_422\n        /* \"#utility.yul\":7469:7472   */\n      dup5\n        /* \"#utility.yul\":7461:7467   */\n      dup3\n        /* \"#utility.yul\":7454:7458   */\n      0x20\n        /* \"#utility.yul\":7446:7452   */\n      dup7\n        /* \"#utility.yul\":7442:7459   */\n      add\n        /* \"#utility.yul\":7379:7473   */\n      tag_299\n      jump\t// in\n    tag_422:\n        /* \"#utility.yul\":7370:7473   */\n      swap2\n      pop\n        /* \"#utility.yul\":7186:7479   */\n      pop\n        /* \"#utility.yul\":7109:7479   */\n      swap3\n      swap2\n      pop\n      pop\n      jump\t// out\n        /* \"#utility.yul\":7485:8024   */\n    tag_81:\n        /* \"#utility.yul\":7569:7575   */\n      0x00\n        /* \"#utility.yul\":7618:7620   */\n      0x20\n        /* \"#utility.yul\":7606:7615   */\n      dup3\n        /* \"#utility.yul\":7597:7604   */\n      dup5\n        /* \"#utility.yul\":7593:7616   */\n      sub\n        /* \"#utility.yul\":7589:7621   */\n      slt\n        /* \"#utility.yul\":7586:7705   */\n      iszero\n      tag_424\n      jumpi\n        /* \"#utility.yul\":7624:7703   */\n      tag_425\n      tag_279\n      jump\t// in\n    tag_425:\n        /* \"#utility.yul\":7586:7705   */\n    tag_424:\n        /* \"#utility.yul\":7772:7773   */\n      0x00\n        /* \"#utility.yul\":7761:7770   */\n      dup3\n        /* \"#utility.yul\":7757:7774   */\n      add\n        /* \"#utility.yul\":7744:7775   */\n      calldataload\n        /* \"#utility.yul\":7802:7820   */\n      0xffffffffffffffff\n        /* \"#utility.yul\":7794:7800   */\n      dup2\n        /* \"#utility.yul\":7791:7821   */\n      gt\n        /* \"#utility.yul\":7788:7905   */\n      iszero\n      tag_426\n      jumpi\n        /* \"#utility.yul\":7824:7903   */\n      tag_427\n      tag_280\n      jump\t// in\n    tag_427:\n        /* \"#utility.yul\":7788:7905   */\n    tag_426:\n        /* \"#utility.yul\":7929:8007   */\n      tag_428\n        /* \"#utility.yul\":7999:8006   */\n      dup5\n        /* \"#utility.yul\":7990:7996   */\n      dup3\n        /* \"#utility.yul\":7979:7988   */\n      dup6\n        /* \"#utility.yul\":7975:7997   */\n      add\n        /* \"#utility.yul\":7929:8007   */\n      tag_300\n      jump\t// in\n    tag_428:\n        /* \"#utility.yul\":7919:8007   */\n      swap2\n      pop\n        /* \"#utility.yul\":7715:8017   */\n      pop\n        /* \"#utility.yul\":7485:8024   */\n      swap3\n      swap2\n      pop\n      pop\n      jump\t// out\n        /* \"#utility.yul\":8030:8359   */\n    tag_86:\n        /* \"#utility.yul\":8089:8095   */\n      0x00\n        /* \"#utility.yul\":8138:8140   */\n      0x20\n        /* \"#utility.yul\":8126:8135   */\n      dup3\n        /* \"#utility.yul\":8117:8124   */\n      dup5\n        /* \"#utility.yul\":8113:8136   */\n      sub\n        /* \"#utility.yul\":8109:8141   */\n      slt\n        /* \"#utility.yul\":8106:8225   */\n      iszero\n      tag_430\n      jumpi\n        /* \"#utility.yul\":8144:8223   */\n      tag_431\n      tag_279\n      jump\t// in\n    tag_431:\n        /* \"#utility.yul\":8106:8225   */\n    tag_430:\n        /* \"#utility.yul\":8264:8265   */\n      0x00\n        /* \"#utility.yul\":8289:8342   */\n      tag_432\n        /* \"#utility.yul\":8334:8341   */\n      dup5\n        /* \"#utility.yul\":8325:8331   */\n      dup3\n        /* \"#utility.yul\":8314:8323   */\n      dup6\n        /* \"#utility.yul\":8310:8332   */\n      add\n        /* \"#utility.yul\":8289:8342   */\n      tag_284\n      jump\t// in\n    tag_432:\n        /* \"#utility.yul\":8279:8342   */\n      swap2\n      pop\n        /* \"#utility.yul\":8235:8352   */\n      pop\n        /* \"#utility.yul\":8030:8359   */\n      swap3\n      swap2\n      pop\n      pop\n      jump\t// out\n        /* \"#utility.yul\":8365:8483   */\n    tag_301:\n        /* \"#utility.yul\":8452:8476   */\n      tag_434\n        /* \"#utility.yul\":8470:8475   */\n      dup2\n        /* \"#utility.yul\":8452:8476   */\n      tag_282\n      jump\t// in\n    tag_434:\n        /* \"#utility.yul\":8447:8450   */\n      dup3\n        /* \"#utility.yul\":8440:8477   */\n      mstore\n        /* \"#utility.yul\":8365:8483   */\n      pop\n      pop\n      jump\t// out\n        /* \"#utility.yul\":8489:8711   */\n    tag_101:\n        /* \"#utility.yul\":8582:8586   */\n      0x00\n        /* \"#utility.yul\":8620:8622   */\n      0x20\n        /* \"#utility.yul\":8609:8618   */\n      dup3\n        /* \"#utility.yul\":8605:8623   */\n      add\n        /* \"#utility.yul\":8597:8623   */\n      swap1\n      pop\n        /* \"#utility.yul\":8633:8704   */\n      tag_436\n        /* \"#utility.yul\":8701:8702   */\n      0x00\n        /* \"#utility.yul\":8690:8699   */\n      dup4\n        /* \"#utility.yul\":8686:8703   */\n      add\n        /* \"#utility.yul\":8677:8683   */\n      dup5\n        /* \"#utility.yul\":8633:8704   */\n      tag_301\n      jump\t// in\n    tag_436:\n        /* \"#utility.yul\":8489:8711   */\n      swap3\n      swap2\n      pop\n      pop\n      jump\t// out\n        /* \"#utility.yul\":8717:9191   */\n    tag_124:\n        /* \"#utility.yul\":8785:8791   */\n      0x00\n        /* \"#utility.yul\":8793:8799   */\n      dup1\n        /* \"#utility.yul\":8842:8844   */\n      0x40\n        /* \"#utility.yul\":8830:8839   */\n      dup4\n        /* \"#utility.yul\":8821:8828   */\n      dup6\n        /* \"#utility.yul\":8817:8840   */\n      sub\n        /* \"#utility.yul\":8813:8845   */\n      slt\n        /* \"#utility.yul\":8810:8929   */\n      iszero\n      tag_438\n      jumpi\n        /* \"#utility.yul\":8848:8927   */\n      tag_439\n      tag_279\n      jump\t// in\n    tag_439:\n        /* \"#utility.yul\":8810:8929   */\n    tag_438:\n        /* \"#utility.yul\":8968:8969   */\n      0x00\n        /* \"#utility.yul\":8993:9046   */\n      tag_440\n        /* \"#utility.yul\":9038:9045   */\n      dup6\n        /* \"#utility.yul\":9029:9035   */\n      dup3\n        /* \"#utility.yul\":9018:9027   */\n      dup7\n        /* \"#utility.yul\":9014:9036   */\n      add\n        /* \"#utility.yul\":8993:9046   */\n      tag_284\n      jump\t// in\n    tag_440:\n        /* \"#utility.yul\":8983:9046   */\n      swap3\n      pop\n        /* \"#utility.yul\":8939:9056   */\n      pop\n        /* \"#utility.yul\":9095:9097   */\n      0x20\n        /* \"#utility.yul\":9121:9174   */\n      tag_441\n        /* \"#utility.yul\":9166:9173   */\n      dup6\n        /* \"#utility.yul\":9157:9163   */\n      dup3\n        /* \"#utility.yul\":9146:9155   */\n      dup7\n        /* \"#utility.yul\":9142:9164   */\n      add\n        /* \"#utility.yul\":9121:9174   */\n      tag_284\n      jump\t// in\n    tag_441:\n        /* \"#utility.yul\":9111:9174   */\n      swap2\n      pop\n        /* \"#utility.yul\":9066:9184   */\n      pop\n        /* \"#utility.yul\":8717:9191   */\n      swap3\n      pop\n      swap3\n      swap1\n      pop\n      jump\t// out\n        /* \"#utility.yul\":9197:9377   */\n    tag_302:\n        /* \"#utility.yul\":9245:9322   */\n      0x4e487b7100000000000000000000000000000000000000000000000000000000\n        /* \"#utility.yul\":9242:9243   */\n      0x00\n        /* \"#utility.yul\":9235:9323   */\n      mstore\n        /* \"#utility.yul\":9342:9346   */\n      0x22\n        /* \"#utility.yul\":9339:9340   */\n      0x04\n        /* \"#utility.yul\":9332:9347   */\n      mstore\n        /* \"#utility.yul\":9366:9370   */\n      0x24\n        /* \"#utility.yul\":9363:9364   */\n      0x00\n        /* \"#utility.yul\":9356:9371   */\n      revert\n        /* \"#utility.yul\":9383:9703   */\n    tag_133:\n        /* \"#utility.yul\":9427:9433   */\n      0x00\n        /* \"#utility.yul\":9464:9465   */\n      0x02\n        /* \"#utility.yul\":9458:9462   */\n      dup3\n        /* \"#utility.yul\":9454:9466   */\n      div\n        /* \"#utility.yul\":9444:9466   */\n      swap1\n      pop\n        /* \"#utility.yul\":9511:9512   */\n      0x01\n        /* \"#utility.yul\":9505:9509   */\n      dup3\n        /* \"#utility.yul\":9501:9513   */\n      and\n        /* \"#utility.yul\":9532:9550   */\n      dup1\n        /* \"#utility.yul\":9522:9603   */\n      tag_444\n      jumpi\n        /* \"#utility.yul\":9588:9592   */\n      0x7f\n        /* \"#utility.yul\":9580:9586   */\n      dup3\n        /* \"#utility.yul\":9576:9593   */\n      and\n        /* \"#utility.yul\":9566:9593   */\n      swap2\n      pop\n        /* \"#utility.yul\":9522:9603   */\n    tag_444:\n        /* \"#utility.yul\":9650:9652   */\n      0x20\n        /* \"#utility.yul\":9642:9648   */\n      dup3\n        /* \"#utility.yul\":9639:9653   */\n      lt\n        /* \"#utility.yul\":9619:9637   */\n      dup2\n        /* \"#utility.yul\":9616:9654   */\n      sub\n        /* \"#utility.yul\":9613:9697   */\n      tag_445\n      jumpi\n        /* \"#utility.yul\":9669:9687   */\n      tag_446\n      tag_302\n      jump\t// in\n    tag_446:\n        /* \"#utility.yul\":9613:9697   */\n    tag_445:\n        /* \"#utility.yul\":9434:9703   */\n      pop\n        /* \"#utility.yul\":9383:9703   */\n      swap2\n      swap1\n      pop\n      jump\t// out\n        /* \"#utility.yul\":9709:10125   */\n    tag_303:\n        /* \"#utility.yul\":9849:9915   */\n      0xd098d181d0bfd0bed0bbd18cd0b7d0bed0b2d0b0d182d18c20d0bcd0bed0b6d0\n        /* \"#utility.yul\":9845:9846   */\n      0x00\n        /* \"#utility.yul\":9837:9843   */\n      dup3\n        /* \"#utility.yul\":9833:9847   */\n      add\n        /* \"#utility.yul\":9826:9916   */\n      mstore\n        /* \"#utility.yul\":9950:10016   */\n      0xb5d18220d182d0bed0bbd18cd0bad0be20d0b2d0bbd0b0d0b4d0b5d0bbd0b5d1\n        /* \"#utility.yul\":9945:9947   */\n      0x20\n        /* \"#utility.yul\":9937:9943   */\n      dup3\n        /* \"#utility.yul\":9933:9948   */\n      add\n        /* \"#utility.yul\":9926:10017   */\n      mstore\n        /* \"#utility.yul\":10051:10117   */\n      0x8600000000000000000000000000000000000000000000000000000000000000\n        /* \"#utility.yul\":10046:10048   */\n      0x40\n        /* \"#utility.yul\":10038:10044   */\n      dup3\n        /* \"#utility.yul\":10034:10049   */\n      add\n        /* \"#utility.yul\":10027:10118   */\n      mstore\n        /* \"#utility.yul\":9709:10125   */\n      pop\n      jump\t// out\n        /* \"#utility.yul\":10131:10497   */\n    tag_304:\n        /* \"#utility.yul\":10273:10276   */\n      0x00\n        /* \"#utility.yul\":10294:10361   */\n      tag_449\n        /* \"#utility.yul\":10358:10360   */\n      0x41\n        /* \"#utility.yul\":10353:10356   */\n      dup4\n        /* \"#utility.yul\":10294:10361   */\n      tag_274\n      jump\t// in\n    tag_449:\n        /* \"#utility.yul\":10287:10361   */\n      swap2\n      pop\n        /* \"#utility.yul\":10370:10463   */\n      tag_450\n        /* \"#utility.yul\":10459:10462   */\n      dup3\n        /* \"#utility.yul\":10370:10463   */\n      tag_303\n      jump\t// in\n    tag_450:\n        /* \"#utility.yul\":10488:10490   */\n      0x60\n        /* \"#utility.yul\":10483:10486   */\n      dup3\n        /* \"#utility.yul\":10479:10491   */\n      add\n        /* \"#utility.yul\":10472:10491   */\n      swap1\n      pop\n        /* \"#utility.yul\":10131:10497   */\n      swap2\n      swap1\n      pop\n      jump\t// out\n        /* \"#utility.yul\":10503:10922   */\n    tag_146:\n        /* \"#utility.yul\":10669:10673   */\n      0x00\n        /* \"#utility.yul\":10707:10709   */\n      0x20\n        /* \"#utility.yul\":10696:10705   */\n      dup3\n        /* \"#utility.yul\":10692:10710   */\n      add\n        /* \"#utility.yul\":10684:10710   */\n      swap1\n      pop\n        /* \"#utility.yul\":10756:10765   */\n      dup2\n        /* \"#utility.yul\":10750:10754   */\n      dup2\n        /* \"#utility.yul\":10746:10766   */\n      sub\n        /* \"#utility.yul\":10742:10743   */\n      0x00\n        /* \"#utility.yul\":10731:10740   */\n      dup4\n        /* \"#utility.yul\":10727:10744   */\n      add\n        /* \"#utility.yul\":10720:10767   */\n      mstore\n        /* \"#utility.yul\":10784:10915   */\n      tag_452\n        /* \"#utility.yul\":10910:10914   */\n      dup2\n        /* \"#utility.yul\":10784:10915   */\n      tag_304\n      jump\t// in\n    tag_452:\n        /* \"#utility.yul\":10776:10915   */\n      swap1\n      pop\n        /* \"#utility.yul\":10503:10922   */\n      swap2\n      swap1\n      pop\n      jump\t// out\n        /* \"#utility.yul\":10928:11243   */\n    tag_305:\n        /* \"#utility.yul\":11068:11134   */\n      0xd09fd183d0b1d0bbd0b8d187d0bdd18bd0b520d0bfd180d0bed0b4d0b0d0b6d0\n        /* \"#utility.yul\":11064:11065   */\n      0x00\n        /* \"#utility.yul\":11056:11062   */\n      dup3\n        /* \"#utility.yul\":11052:11066   */\n      add\n        /* \"#utility.yul\":11045:11135   */\n      mstore\n        /* \"#utility.yul\":11169:11235   */\n      0xb820d0b5d189d19120d0bdd0b0d187d0b0d0bbd0b8d181d18c00000000000000\n        /* \"#utility.yul\":11164:11166   */\n      0x20\n        /* \"#utility.yul\":11156:11162   */\n      dup3\n        /* \"#utility.yul\":11152:11167   */\n      add\n        /* \"#utility.yul\":11145:11236   */\n      mstore\n        /* \"#utility.yul\":10928:11243   */\n      pop\n      jump\t// out\n        /* \"#utility.yul\":11249:11615   */\n    tag_306:\n        /* \"#utility.yul\":11391:11394   */\n      0x00\n        /* \"#utility.yul\":11412:11479   */\n      tag_455\n        /* \"#utility.yul\":11476:11478   */\n      0x39\n        /* \"#utility.yul\":11471:11474   */\n      dup4\n        /* \"#utility.yul\":11412:11479   */\n      tag_274\n      jump\t// in\n    tag_455:\n        /* \"#utility.yul\":11405:11479   */\n      swap2\n      pop\n        /* \"#utility.yul\":11488:11581   */\n      tag_456\n        /* \"#utility.yul\":11577:11580   */\n      dup3\n        /* \"#utility.yul\":11488:11581   */\n      tag_305\n      jump\t// in\n    tag_456:\n        /* \"#utility.yul\":11606:11608   */\n      0x40\n        /* \"#utility.yul\":11601:11604   */\n      dup3\n        /* \"#utility.yul\":11597:11609   */\n      add\n        /* \"#utility.yul\":11590:11609   */\n      swap1\n      pop\n        /* \"#utility.yul\":11249:11615   */\n      swap2\n      swap1\n      pop\n      jump\t// out\n        /* \"#utility.yul\":11621:12040   */\n    tag_150:\n        /* \"#utility.yul\":11787:11791   */\n      0x00\n        /* \"#utility.yul\":11825:11827   */\n      0x20\n        /* \"#utility.yul\":11814:11823   */\n      dup3\n        /* \"#utility.yul\":11810:11828   */\n      add\n        /* \"#utility.yul\":11802:11828   */\n      swap1\n      pop\n        /* \"#utility.yul\":11874:11883   */\n      dup2\n        /* \"#utility.yul\":11868:11872   */\n      dup2\n        /* \"#utility.yul\":11864:11884   */\n      sub\n        /* \"#utility.yul\":11860:11861   */\n      0x00\n        /* \"#utility.yul\":11849:11858   */\n      dup4\n        /* \"#utility.yul\":11845:11862   */\n      add\n        /* \"#utility.yul\":11838:11885   */\n      mstore\n        /* \"#utility.yul\":11902:12033   */\n      tag_458\n        /* \"#utility.yul\":12028:12032   */\n      dup2\n        /* \"#utility.yul\":11902:12033   */\n      tag_306\n      jump\t// in\n    tag_458:\n        /* \"#utility.yul\":11894:12033   */\n      swap1\n      pop\n        /* \"#utility.yul\":11621:12040   */\n      swap2\n      swap1\n      pop\n      jump\t// out\n        /* \"#utility.yul\":12046:12226   */\n    tag_307:\n        /* \"#utility.yul\":12094:12171   */\n      0x4e487b7100000000000000000000000000000000000000000000000000000000\n        /* \"#utility.yul\":12091:12092   */\n      0x00\n        /* \"#utility.yul\":12084:12172   */\n      mstore\n        /* \"#utility.yul\":12191:12195   */\n      0x11\n        /* \"#utility.yul\":12188:12189   */\n      0x04\n        /* \"#utility.yul\":12181:12196   */\n      mstore\n        /* \"#utility.yul\":12215:12219   */\n      0x24\n        /* \"#utility.yul\":12212:12213   */\n      0x00\n        /* \"#utility.yul\":12205:12220   */\n      revert\n        /* \"#utility.yul\":12232:12423   */\n    tag_164:\n        /* \"#utility.yul\":12272:12275   */\n      0x00\n        /* \"#utility.yul\":12291:12311   */\n      tag_461\n        /* \"#utility.yul\":12309:12310   */\n      dup3\n        /* \"#utility.yul\":12291:12311   */\n      tag_285\n      jump\t// in\n    tag_461:\n        /* \"#utility.yul\":12286:12311   */\n      swap2\n      pop\n        /* \"#utility.yul\":12325:12345   */\n      tag_462\n        /* \"#utility.yul\":12343:12344   */\n      dup4\n        /* \"#utility.yul\":12325:12345   */\n      tag_285\n      jump\t// in\n    tag_462:\n        /* \"#utility.yul\":12320:12345   */\n      swap3\n      pop\n        /* \"#utility.yul\":12368:12369   */\n      dup3\n        /* \"#utility.yul\":12365:12366   */\n      dup3\n        /* \"#utility.yul\":12361:12370   */\n      add\n        /* \"#utility.yul\":12354:12370   */\n      swap1\n      pop\n        /* \"#utility.yul\":12389:12392   */\n      dup1\n        /* \"#utility.yul\":12386:12387   */\n      dup3\n        /* \"#utility.yul\":12383:12393   */\n      gt\n        /* \"#utility.yul\":12380:12416   */\n      iszero\n      tag_463\n      jumpi\n        /* \"#utility.yul\":12396:12414   */\n      tag_464\n      tag_307\n      jump\t// in\n    tag_464:\n        /* \"#utility.yul\":12380:12416   */\n    tag_463:\n        /* \"#utility.yul\":12232:12423   */\n      swap3\n      swap2\n      pop\n      pop\n      jump\t// out\n        /* \"#utility.yul\":12429:12744   */\n    tag_308:\n        /* \"#utility.yul\":12569:12635   */\n      0xd09fd183d0b1d0bbd0b8d187d0bdd0b0d18f20d0bfd180d0bed0b4d0b0d0b6d0\n        /* \"#utility.yul\":12565:12566   */\n      0x00\n        /* \"#utility.yul\":12557:12563   */\n      dup3\n        /* \"#utility.yul\":12553:12567   */\n      add\n        /* \"#utility.yul\":12546:12636   */\n      mstore\n        /* \"#utility.yul\":12670:12736   */\n      0xb020d0b5d189d19120d0bdd0b020d0bdd0b0d187d0b0d0bbd0b0d181d18c0000\n        /* \"#utility.yul\":12665:12667   */\n      0x20\n        /* \"#utility.yul\":12657:12663   */\n      dup3\n        /* \"#utility.yul\":12653:12668   */\n      add\n        /* \"#utility.yul\":12646:12737   */\n      mstore\n        /* \"#utility.yul\":12429:12744   */\n      pop\n      jump\t// out\n        /* \"#utility.yul\":12750:13116   */\n    tag_309:\n        /* \"#utility.yul\":12892:12895   */\n      0x00\n        /* \"#utility.yul\":12913:12980   */\n      tag_467\n        /* \"#utility.yul\":12977:12979   */\n      0x3e\n        /* \"#utility.yul\":12972:12975   */\n      dup4\n        /* \"#utility.yul\":12913:12980   */\n      tag_274\n      jump\t// in\n    tag_467:\n        /* \"#utility.yul\":12906:12980   */\n      swap2\n      pop\n        /* \"#utility.yul\":12989:13082   */\n      tag_468\n        /* \"#utility.yul\":13078:13081   */\n      dup3\n        /* \"#utility.yul\":12989:13082   */\n      tag_308\n      jump\t// in\n    tag_468:\n        /* \"#utility.yul\":13107:13109   */\n      0x40\n        /* \"#utility.yul\":13102:13105   */\n      dup3\n        /* \"#utility.yul\":13098:13110   */\n      add\n        /* \"#utility.yul\":13091:13110   */\n      swap1\n      pop\n        /* \"#utility.yul\":12750:13116   */\n      swap2\n      swap1\n      pop\n      jump\t// out\n        /* \"#utility.yul\":13122:13541   */\n    tag_169:\n        /* \"#utility.yul\":13288:13292   */\n      0x00\n        /* \"#utility.yul\":13326:13328   */\n      0x20\n        /* \"#utility.yul\":13315:13324   */\n      dup3\n        /* \"#utility.yul\":13311:13329   */\n      add\n        /* \"#utility.yul\":13303:13329   */\n      swap1\n      pop\n        /* \"#utility.yul\":13375:13384   */\n      dup2\n        /* \"#utility.yul\":13369:13373   */\n      dup2\n        /* \"#utility.yul\":13365:13385   */\n      sub\n        /* \"#utility.yul\":13361:13362   */\n      0x00\n        /* \"#utility.yul\":13350:13359   */\n      dup4\n        /* \"#utility.yul\":13346:13363   */\n      add\n        /* \"#utility.yul\":13339:13386   */\n      mstore\n        /* \"#utility.yul\":13403:13534   */\n      tag_470\n        /* \"#utility.yul\":13529:13533   */\n      dup2\n        /* \"#utility.yul\":13403:13534   */\n      tag_309\n      jump\t// in\n    tag_470:\n        /* \"#utility.yul\":13395:13534   */\n      swap1\n      pop\n        /* \"#utility.yul\":13122:13541   */\n      swap2\n      swap1\n      pop\n      jump\t// out\n        /* \"#utility.yul\":13547:13724   */\n    tag_310:\n        /* \"#utility.yul\":13687:13716   */\n      0x4d6178207075726368617365206c696d69742065786365656465640000000000\n        /* \"#utility.yul\":13683:13684   */\n      0x00\n        /* \"#utility.yul\":13675:13681   */\n      dup3\n        /* \"#utility.yul\":13671:13685   */\n      add\n        /* \"#utility.yul\":13664:13717   */\n      mstore\n        /* \"#utility.yul\":13547:13724   */\n      pop\n      jump\t// out\n        /* \"#utility.yul\":13730:14096   */\n    tag_311:\n        /* \"#utility.yul\":13872:13875   */\n      0x00\n        /* \"#utility.yul\":13893:13960   */\n      tag_473\n        /* \"#utility.yul\":13957:13959   */\n      0x1b\n        /* \"#utility.yul\":13952:13955   */\n      dup4\n        /* \"#utility.yul\":13893:13960   */\n      tag_274\n      jump\t// in\n    tag_473:\n        /* \"#utility.yul\":13886:13960   */\n      swap2\n      pop\n        /* \"#utility.yul\":13969:14062   */\n      tag_474\n        /* \"#utility.yul\":14058:14061   */\n      dup3\n        /* \"#utility.yul\":13969:14062   */\n      tag_310\n      jump\t// in\n    tag_474:\n        /* \"#utility.yul\":14087:14089   */\n      0x20\n        /* \"#utility.yul\":14082:14085   */\n      dup3\n        /* \"#utility.yul\":14078:14090   */\n      add\n        /* \"#utility.yul\":14071:14090   */\n      swap1\n      pop\n        /* \"#utility.yul\":13730:14096   */\n      swap2\n      swap1\n      pop\n      jump\t// out\n        /* \"#utility.yul\":14102:14521   */\n    tag_172:\n        /* \"#utility.yul\":14268:14272   */\n      0x00\n        /* \"#utility.yul\":14306:14308   */\n      0x20\n        /* \"#utility.yul\":14295:14304   */\n      dup3\n        /* \"#utility.yul\":14291:14309   */\n      add\n        /* \"#utility.yul\":14283:14309   */\n      swap1\n      pop\n        /* \"#utility.yul\":14355:14364   */\n      dup2\n        /* \"#utility.yul\":14349:14353   */\n      dup2\n        /* \"#utility.yul\":14345:14365   */\n      sub\n        /* \"#utility.yul\":14341:14342   */\n      0x00\n        /* \"#utility.yul\":14330:14339   */\n      dup4\n        /* \"#utility.yul\":14326:14343   */\n      add\n        /* \"#utility.yul\":14319:14366   */\n      mstore\n        /* \"#utility.yul\":14383:14514   */\n      tag_476\n        /* \"#utility.yul\":14509:14513   */\n      dup2\n        /* \"#utility.yul\":14383:14514   */\n      tag_311\n      jump\t// in\n    tag_476:\n        /* \"#utility.yul\":14375:14514   */\n      swap1\n      pop\n        /* \"#utility.yul\":14102:14521   */\n      swap2\n      swap1\n      pop\n      jump\t// out\n        /* \"#utility.yul\":14527:14937   */\n    tag_174:\n        /* \"#utility.yul\":14567:14574   */\n      0x00\n        /* \"#utility.yul\":14590:14610   */\n      tag_478\n        /* \"#utility.yul\":14608:14609   */\n      dup3\n        /* \"#utility.yul\":14590:14610   */\n      tag_285\n      jump\t// in\n    tag_478:\n        /* \"#utility.yul\":14585:14610   */\n      swap2\n      pop\n        /* \"#utility.yul\":14624:14644   */\n      tag_479\n        /* \"#utility.yul\":14642:14643   */\n      dup4\n        /* \"#utility.yul\":14624:14644   */\n      tag_285\n      jump\t// in\n    tag_479:\n        /* \"#utility.yul\":14619:14644   */\n      swap3\n      pop\n        /* \"#utility.yul\":14679:14680   */\n      dup3\n        /* \"#utility.yul\":14676:14677   */\n      dup3\n        /* \"#utility.yul\":14672:14681   */\n      mul\n        /* \"#utility.yul\":14701:14731   */\n      tag_480\n        /* \"#utility.yul\":14719:14730   */\n      dup2\n        /* \"#utility.yul\":14701:14731   */\n      tag_285\n      jump\t// in\n    tag_480:\n        /* \"#utility.yul\":14690:14731   */\n      swap2\n      pop\n        /* \"#utility.yul\":14880:14881   */\n      dup3\n        /* \"#utility.yul\":14871:14878   */\n      dup3\n        /* \"#utility.yul\":14867:14882   */\n      div\n        /* \"#utility.yul\":14864:14865   */\n      dup5\n        /* \"#utility.yul\":14861:14883   */\n      eq\n        /* \"#utility.yul\":14841:14842   */\n      dup4\n        /* \"#utility.yul\":14834:14843   */\n      iszero\n        /* \"#utility.yul\":14814:14897   */\n      or\n        /* \"#utility.yul\":14791:14930   */\n      tag_481\n      jumpi\n        /* \"#utility.yul\":14910:14928   */\n      tag_482\n      tag_307\n      jump\t// in\n    tag_482:\n        /* \"#utility.yul\":14791:14930   */\n    tag_481:\n        /* \"#utility.yul\":14575:14937   */\n      pop\n        /* \"#utility.yul\":14527:14937   */\n      swap3\n      swap2\n      pop\n      pop\n      jump\t// out\n        /* \"#utility.yul\":14943:15258   */\n    tag_312:\n        /* \"#utility.yul\":15083:15149   */\n      0xd09dd0b5d0b4d0bed181d182d0b0d182d0bed187d0bdd0be20d181d180d0b5d0\n        /* \"#utility.yul\":15079:15080   */\n      0x00\n        /* \"#utility.yul\":15071:15077   */\n      dup3\n        /* \"#utility.yul\":15067:15081   */\n      add\n        /* \"#utility.yul\":15060:15150   */\n      mstore\n        /* \"#utility.yul\":15184:15250   */\n      0xb4d181d182d0b200000000000000000000000000000000000000000000000000\n        /* \"#utility.yul\":15179:15181   */\n      0x20\n        /* \"#utility.yul\":15171:15177   */\n      dup3\n        /* \"#utility.yul\":15167:15182   */\n      add\n        /* \"#utility.yul\":15160:15251   */\n      mstore\n        /* \"#utility.yul\":14943:15258   */\n      pop\n      jump\t// out\n        /* \"#utility.yul\":15264:15630   */\n    tag_313:\n        /* \"#utility.yul\":15406:15409   */\n      0x00\n        /* \"#utility.yul\":15427:15494   */\n      tag_485\n        /* \"#utility.yul\":15491:15493   */\n      0x27\n        /* \"#utility.yul\":15486:15489   */\n      dup4\n        /* \"#utility.yul\":15427:15494   */\n      tag_274\n      jump\t// in\n    tag_485:\n        /* \"#utility.yul\":15420:15494   */\n      swap2\n      pop\n        /* \"#utility.yul\":15503:15596   */\n      tag_486\n        /* \"#utility.yul\":15592:15595   */\n      dup3\n        /* \"#utility.yul\":15503:15596   */\n      tag_312\n      jump\t// in\n    tag_486:\n        /* \"#utility.yul\":15621:15623   */\n      0x40\n        /* \"#utility.yul\":15616:15619   */\n      dup3\n        /* \"#utility.yul\":15612:15624   */\n      add\n        /* \"#utility.yul\":15605:15624   */\n      swap1\n      pop\n        /* \"#utility.yul\":15264:15630   */\n      swap2\n      swap1\n      pop\n      jump\t// out\n        /* \"#utility.yul\":15636:16055   */\n    tag_177:\n        /* \"#utility.yul\":15802:15806   */\n      0x00\n        /* \"#utility.yul\":15840:15842   */\n      0x20\n        /* \"#utility.yul\":15829:15838   */\n      dup3\n        /* \"#utility.yul\":15825:15843   */\n      add\n        /* \"#utility.yul\":15817:15843   */\n      swap1\n      pop\n        /* \"#utility.yul\":15889:15898   */\n      dup2\n        /* \"#utility.yul\":15883:15887   */\n      dup2\n        /* \"#utility.yul\":15879:15899   */\n      sub\n        /* \"#utility.yul\":15875:15876   */\n      0x00\n        /* \"#utility.yul\":15864:15873   */\n      dup4\n        /* \"#utility.yul\":15860:15877   */\n      add\n        /* \"#utility.yul\":15853:15900   */\n      mstore\n        /* \"#utility.yul\":15917:16048   */\n      tag_488\n        /* \"#utility.yul\":16043:16047   */\n      dup2\n        /* \"#utility.yul\":15917:16048   */\n      tag_313\n      jump\t// in\n    tag_488:\n        /* \"#utility.yul\":15909:16048   */\n      swap1\n      pop\n        /* \"#utility.yul\":15636:16055   */\n      swap2\n      swap1\n      pop\n      jump\t// out\n        /* \"#utility.yul\":16061:16376   */\n    tag_314:\n        /* \"#utility.yul\":16201:16267   */\n      0xd092d0b0d18120d0bdd0b5d18220d0b220d0b2d0b0d0b9d18220d0bbd0b8d181\n        /* \"#utility.yul\":16197:16198   */\n      0x00\n        /* \"#utility.yul\":16189:16195   */\n      dup3\n        /* \"#utility.yul\":16185:16199   */\n      add\n        /* \"#utility.yul\":16178:16268   */\n      mstore\n        /* \"#utility.yul\":16302:16368   */\n      0xd182d0b500000000000000000000000000000000000000000000000000000000\n        /* \"#utility.yul\":16297:16299   */\n      0x20\n        /* \"#utility.yul\":16289:16295   */\n      dup3\n        /* \"#utility.yul\":16285:16300   */\n      add\n        /* \"#utility.yul\":16278:16369   */\n      mstore\n        /* \"#utility.yul\":16061:16376   */\n      pop\n      jump\t// out\n        /* \"#utility.yul\":16382:16748   */\n    tag_315:\n        /* \"#utility.yul\":16524:16527   */\n      0x00\n        /* \"#utility.yul\":16545:16612   */\n      tag_491\n        /* \"#utility.yul\":16609:16611   */\n      0x24\n        /* \"#utility.yul\":16604:16607   */\n      dup4\n        /* \"#utility.yul\":16545:16612   */\n      tag_274\n      jump\t// in\n    tag_491:\n        /* \"#utility.yul\":16538:16612   */\n      swap2\n      pop\n        /* \"#utility.yul\":16621:16714   */\n      tag_492\n        /* \"#utility.yul\":16710:16713   */\n      dup3\n        /* \"#utility.yul\":16621:16714   */\n      tag_314\n      jump\t// in\n    tag_492:\n        /* \"#utility.yul\":16739:16741   */\n      0x40\n        /* \"#utility.yul\":16734:16737   */\n      dup3\n        /* \"#utility.yul\":16730:16742   */\n      add\n        /* \"#utility.yul\":16723:16742   */\n      swap1\n      pop\n        /* \"#utility.yul\":16382:16748   */\n      swap2\n      swap1\n      pop\n      jump\t// out\n        /* \"#utility.yul\":16754:17173   */\n    tag_187:\n        /* \"#utility.yul\":16920:16924   */\n      0x00\n        /* \"#utility.yul\":16958:16960   */\n      0x20\n        /* \"#utility.yul\":16947:16956   */\n      dup3\n        /* \"#utility.yul\":16943:16961   */\n      add\n        /* \"#utility.yul\":16935:16961   */\n      swap1\n      pop\n        /* \"#utility.yul\":17007:17016   */\n      dup2\n        /* \"#utility.yul\":17001:17005   */\n      dup2\n        /* \"#utility.yul\":16997:17017   */\n      sub\n        /* \"#utility.yul\":16993:16994   */\n      0x00\n        /* \"#utility.yul\":16982:16991   */\n      dup4\n        /* \"#utility.yul\":16978:16995   */\n      add\n        /* \"#utility.yul\":16971:17018   */\n      mstore\n        /* \"#utility.yul\":17035:17166   */\n      tag_494\n        /* \"#utility.yul\":17161:17165   */\n      dup2\n        /* \"#utility.yul\":17035:17166   */\n      tag_315\n      jump\t// in\n    tag_494:\n        /* \"#utility.yul\":17027:17166   */\n      swap1\n      pop\n        /* \"#utility.yul\":16754:17173   */\n      swap2\n      swap1\n      pop\n      jump\t// out\n        /* \"#utility.yul\":17179:17494   */\n    tag_316:\n        /* \"#utility.yul\":17319:17385   */\n      0xd09fd180d0b8d0b2d0b0d182d0bdd0b0d18f20d0bfd180d0bed0b4d0b0d0b6d0\n        /* \"#utility.yul\":17315:17316   */\n      0x00\n        /* \"#utility.yul\":17307:17313   */\n      dup3\n        /* \"#utility.yul\":17303:17317   */\n      add\n        /* \"#utility.yul\":17296:17386   */\n      mstore\n        /* \"#utility.yul\":17420:17486   */\n      0xb020d0b5d189d19120d0bdd0b520d0bdd0b0d187d0b0d0bbd0b0d181d18c0000\n        /* \"#utility.yul\":17415:17417   */\n      0x20\n        /* \"#utility.yul\":17407:17413   */\n      dup3\n        /* \"#utility.yul\":17403:17418   */\n      add\n        /* \"#utility.yul\":17396:17487   */\n      mstore\n        /* \"#utility.yul\":17179:17494   */\n      pop\n      jump\t// out\n        /* \"#utility.yul\":17500:17866   */\n    tag_317:\n        /* \"#utility.yul\":17642:17645   */\n      0x00\n        /* \"#utility.yul\":17663:17730   */\n      tag_497\n        /* \"#utility.yul\":17727:17729   */\n      0x3e\n        /* \"#utility.yul\":17722:17725   */\n      dup4\n        /* \"#utility.yul\":17663:17730   */\n      tag_274\n      jump\t// in\n    tag_497:\n        /* \"#utility.yul\":17656:17730   */\n      swap2\n      pop\n        /* \"#utility.yul\":17739:17832   */\n      tag_498\n        /* \"#utility.yul\":17828:17831   */\n      dup3\n        /* \"#utility.yul\":17739:17832   */\n      tag_316\n      jump\t// in\n    tag_498:\n        /* \"#utility.yul\":17857:17859   */\n      0x40\n        /* \"#utility.yul\":17852:17855   */\n      dup3\n        /* \"#utility.yul\":17848:17860   */\n      add\n        /* \"#utility.yul\":17841:17860   */\n      swap1\n      pop\n        /* \"#utility.yul\":17500:17866   */\n      swap2\n      swap1\n      pop\n      jump\t// out\n        /* \"#utility.yul\":17872:18291   */\n    tag_191:\n        /* \"#utility.yul\":18038:18042   */\n      0x00\n        /* \"#utility.yul\":18076:18078   */\n      0x20\n        /* \"#utility.yul\":18065:18074   */\n      dup3\n        /* \"#utility.yul\":18061:18079   */\n      add\n        /* \"#utility.yul\":18053:18079   */\n      swap1\n      pop\n        /* \"#utility.yul\":18125:18134   */\n      dup2\n        /* \"#utility.yul\":18119:18123   */\n      dup2\n        /* \"#utility.yul\":18115:18135   */\n      sub\n        /* \"#utility.yul\":18111:18112   */\n      0x00\n        /* \"#utility.yul\":18100:18109   */\n      dup4\n        /* \"#utility.yul\":18096:18113   */\n      add\n        /* \"#utility.yul\":18089:18136   */\n      mstore\n        /* \"#utility.yul\":18153:18284   */\n      tag_500\n        /* \"#utility.yul\":18279:18283   */\n      dup2\n        /* \"#utility.yul\":18153:18284   */\n      tag_317\n      jump\t// in\n    tag_500:\n        /* \"#utility.yul\":18145:18284   */\n      swap1\n      pop\n        /* \"#utility.yul\":17872:18291   */\n      swap2\n      swap1\n      pop\n      jump\t// out\n        /* \"#utility.yul\":18297:18612   */\n    tag_318:\n        /* \"#utility.yul\":18437:18503   */\n      0xd09bd0b8d0bcd0b8d18220d0bfd0bed0bad183d0bfd0bed0ba20d0bfd180d0b5\n        /* \"#utility.yul\":18433:18434   */\n      0x00\n        /* \"#utility.yul\":18425:18431   */\n      dup3\n        /* \"#utility.yul\":18421:18435   */\n      add\n        /* \"#utility.yul\":18414:18504   */\n      mstore\n        /* \"#utility.yul\":18538:18604   */\n      0xd0b2d18bd188d0b5d0bd00000000000000000000000000000000000000000000\n        /* \"#utility.yul\":18533:18535   */\n      0x20\n        /* \"#utility.yul\":18525:18531   */\n      dup3\n        /* \"#utility.yul\":18521:18536   */\n      add\n        /* \"#utility.yul\":18514:18605   */\n      mstore\n        /* \"#utility.yul\":18297:18612   */\n      pop\n      jump\t// out\n        /* \"#utility.yul\":18618:18984   */\n    tag_319:\n        /* \"#utility.yul\":18760:18763   */\n      0x00\n        /* \"#utility.yul\":18781:18848   */\n      tag_503\n        /* \"#utility.yul\":18845:18847   */\n      0x2a\n        /* \"#utility.yul\":18840:18843   */\n      dup4\n        /* \"#utility.yul\":18781:18848   */\n      tag_274\n      jump\t// in\n    tag_503:\n        /* \"#utility.yul\":18774:18848   */\n      swap2\n      pop\n        /* \"#utility.yul\":18857:18950   */\n      tag_504\n        /* \"#utility.yul\":18946:18949   */\n      dup3\n        /* \"#utility.yul\":18857:18950   */\n      tag_318\n      jump\t// in\n    tag_504:\n        /* \"#utility.yul\":18975:18977   */\n      0x40\n        /* \"#utility.yul\":18970:18973   */\n      dup3\n        /* \"#utility.yul\":18966:18978   */\n      add\n        /* \"#utility.yul\":18959:18978   */\n      swap1\n      pop\n        /* \"#utility.yul\":18618:18984   */\n      swap2\n      swap1\n      pop\n      jump\t// out\n        /* \"#utility.yul\":18990:19409   */\n    tag_194:\n        /* \"#utility.yul\":19156:19160   */\n      0x00\n        /* \"#utility.yul\":19194:19196   */\n      0x20\n        /* \"#utility.yul\":19183:19192   */\n      dup3\n        /* \"#utility.yul\":19179:19197   */\n      add\n        /* \"#utility.yul\":19171:19197   */\n      swap1\n      pop\n        /* \"#utility.yul\":19243:19252   */\n      dup2\n        /* \"#utility.yul\":19237:19241   */\n      dup2\n        /* \"#utility.yul\":19233:19253   */\n      sub\n        /* \"#utility.yul\":19229:19230   */\n      0x00\n        /* \"#utility.yul\":19218:19227   */\n      dup4\n        /* \"#utility.yul\":19214:19231   */\n      add\n        /* \"#utility.yul\":19207:19254   */\n      mstore\n        /* \"#utility.yul\":19271:19402   */\n      tag_506\n        /* \"#utility.yul\":19397:19401   */\n      dup2\n        /* \"#utility.yul\":19271:19402   */\n      tag_319\n      jump\t// in\n    tag_506:\n        /* \"#utility.yul\":19263:19402   */\n      swap1\n      pop\n        /* \"#utility.yul\":18990:19409   */\n      swap2\n      swap1\n      pop\n      jump\t// out\n        /* \"#utility.yul\":19415:19583   */\n    tag_320:\n        /* \"#utility.yul\":19555:19575   */\n      0x496e73756666696369656e742066756e64730000000000000000000000000000\n        /* \"#utility.yul\":19551:19552   */\n      0x00\n        /* \"#utility.yul\":19543:19549   */\n      dup3\n        /* \"#utility.yul\":19539:19553   */\n      add\n        /* \"#utility.yul\":19532:19576   */\n      mstore\n        /* \"#utility.yul\":19415:19583   */\n      pop\n      jump\t// out\n        /* \"#utility.yul\":19589:19955   */\n    tag_321:\n        /* \"#utility.yul\":19731:19734   */\n      0x00\n        /* \"#utility.yul\":19752:19819   */\n      tag_509\n        /* \"#utility.yul\":19816:19818   */\n      0x12\n        /* \"#utility.yul\":19811:19814   */\n      dup4\n        /* \"#utility.yul\":19752:19819   */\n      tag_274\n      jump\t// in\n    tag_509:\n        /* \"#utility.yul\":19745:19819   */\n      swap2\n      pop\n        /* \"#utility.yul\":19828:19921   */\n      tag_510\n        /* \"#utility.yul\":19917:19920   */\n      dup3\n        /* \"#utility.yul\":19828:19921   */\n      tag_320\n      jump\t// in\n    tag_510:\n        /* \"#utility.yul\":19946:19948   */\n      0x20\n        /* \"#utility.yul\":19941:19944   */\n      dup3\n        /* \"#utility.yul\":19937:19949   */\n      add\n        /* \"#utility.yul\":19930:19949   */\n      swap1\n      pop\n        /* \"#utility.yul\":19589:19955   */\n      swap2\n      swap1\n      pop\n      jump\t// out\n        /* \"#utility.yul\":19961:20380   */\n    tag_198:\n        /* \"#utility.yul\":20127:20131   */\n      0x00\n        /* \"#utility.yul\":20165:20167   */\n      0x20\n        /* \"#utility.yul\":20154:20163   */\n      dup3\n        /* \"#utility.yul\":20150:20168   */\n      add\n        /* \"#utility.yul\":20142:20168   */\n      swap1\n      pop\n        /* \"#utility.yul\":20214:20223   */\n      dup2\n        /* \"#utility.yul\":20208:20212   */\n      dup2\n        /* \"#utility.yul\":20204:20224   */\n      sub\n        /* \"#utility.yul\":20200:20201   */\n      0x00\n        /* \"#utility.yul\":20189:20198   */\n      dup4\n        /* \"#utility.yul\":20185:20202   */\n      add\n        /* \"#utility.yul\":20178:20225   */\n      mstore\n        /* \"#utility.yul\":20242:20373   */\n      tag_512\n        /* \"#utility.yul\":20368:20372   */\n      dup2\n        /* \"#utility.yul\":20242:20373   */\n      tag_321\n      jump\t// in\n    tag_512:\n        /* \"#utility.yul\":20234:20373   */\n      swap1\n      pop\n        /* \"#utility.yul\":19961:20380   */\n      swap2\n      swap1\n      pop\n      jump\t// out\n        /* \"#utility.yul\":20386:20566   */\n    tag_209:\n        /* \"#utility.yul\":20434:20511   */\n      0x4e487b7100000000000000000000000000000000000000000000000000000000\n        /* \"#utility.yul\":20431:20432   */\n      0x00\n        /* \"#utility.yul\":20424:20512   */\n      mstore\n        /* \"#utility.yul\":20531:20535   */\n      0x32\n        /* \"#utility.yul\":20528:20529   */\n      0x04\n        /* \"#utility.yul\":20521:20536   */\n      mstore\n        /* \"#utility.yul\":20555:20559   */\n      0x24\n        /* \"#utility.yul\":20552:20553   */\n      0x00\n        /* \"#utility.yul\":20545:20560   */\n      revert\n        /* \"#utility.yul\":20572:20805   */\n    tag_211:\n        /* \"#utility.yul\":20611:20614   */\n      0x00\n        /* \"#utility.yul\":20634:20658   */\n      tag_515\n        /* \"#utility.yul\":20652:20657   */\n      dup3\n        /* \"#utility.yul\":20634:20658   */\n      tag_285\n      jump\t// in\n    tag_515:\n        /* \"#utility.yul\":20625:20658   */\n      swap2\n      pop\n        /* \"#utility.yul\":20680:20746   */\n      0xffffffffffffffffffffffffffffffffffffffffffffffffffffffffffffffff\n        /* \"#utility.yul\":20673:20678   */\n      dup3\n        /* \"#utility.yul\":20670:20747   */\n      sub\n        /* \"#utility.yul\":20667:20770   */\n      tag_516\n      jumpi\n        /* \"#utility.yul\":20750:20768   */\n      tag_517\n      tag_307\n      jump\t// in\n    tag_517:\n        /* \"#utility.yul\":20667:20770   */\n    tag_516:\n        /* \"#utility.yul\":20797:20798   */\n      0x01\n        /* \"#utility.yul\":20790:20795   */\n      dup3\n        /* \"#utility.yul\":20786:20799   */\n      add\n        /* \"#utility.yul\":20779:20799   */\n      swap1\n      pop\n        /* \"#utility.yul\":20572:20805   */\n      swap2\n      swap1\n      pop\n      jump\t// out\n        /* \"#utility.yul\":20811:21035   */\n    tag_322:\n        /* \"#utility.yul\":20951:20985   */\n      0x45524332303a2064656372656173656420616c6c6f77616e63652062656c6f77\n        /* \"#utility.yul\":20947:20948   */\n      0x00\n        /* \"#utility.yul\":20939:20945   */\n      dup3\n        /* \"#utility.yul\":20935:20949   */\n      add\n        /* \"#utility.yul\":20928:20986   */\n      mstore\n        /* \"#utility.yul\":21020:21027   */\n      0x207a65726f000000000000000000000000000000000000000000000000000000\n        /* \"#utility.yul\":21015:21017   */\n      0x20\n        /* \"#utility.yul\":21007:21013   */\n      dup3\n        /* \"#utility.yul\":21003:21018   */\n      add\n        /* \"#utility.yul\":20996:21028   */\n      mstore\n        /* \"#utility.yul\":20811:21035   */\n      pop\n      jump\t// out\n        /* \"#utility.yul\":21041:21407   */\n    tag_323:\n        /* \"#utility.yul\":21183:21186   */\n      0x00\n        /* \"#utility.yul\":21204:21271   */\n      tag_520\n        /* \"#utility.yul\":21268:21270   */\n      0x25\n        /* \"#utility.yul\":21263:21266   */\n      dup4\n        /* \"#utility.yul\":21204:21271   */\n      tag_274\n      jump\t// in\n    tag_520:\n        /* \"#utility.yul\":21197:21271   */\n      swap2\n      pop\n        /* \"#utility.yul\":21280:21373   */\n      tag_521\n        /* \"#utility.yul\":21369:21372   */\n      dup3\n        /* \"#utility.yul\":21280:21373   */\n      tag_322\n      jump\t// in\n    tag_521:\n        /* \"#utility.yul\":21398:21400   */\n      0x40\n        /* \"#utility.yul\":21393:21396   */\n      dup3\n        /* \"#utility.yul\":21389:21401   */\n      add\n        /* \"#utility.yul\":21382:21401   */\n      swap1\n      pop\n        /* \"#utility.yul\":21041:21407   */\n      swap2\n      swap1\n      pop\n      jump\t// out\n        /* \"#utility.yul\":21413:21832   */\n    tag_234:\n        /* \"#utility.yul\":21579:21583   */\n      0x00\n        /* \"#utility.yul\":21617:21619   */\n      0x20\n        /* \"#utility.yul\":21606:21615   */\n      dup3\n        /* \"#utility.yul\":21602:21620   */\n      add\n        /* \"#utility.yul\":21594:21620   */\n      swap1\n      pop\n        /* \"#utility.yul\":21666:21675   */\n      dup2\n        /* \"#utility.yul\":21660:21664   */\n      dup2\n        /* \"#utility.yul\":21656:21676   */\n      sub\n        /* \"#utility.yul\":21652:21653   */\n      0x00\n        /* \"#utility.yul\":21641:21650   */\n      dup4\n        /* \"#utility.yul\":21637:21654   */\n      add\n        /* \"#utility.yul\":21630:21677   */\n      mstore\n        /* \"#utility.yul\":21694:21825   */\n      tag_523\n        /* \"#utility.yul\":21820:21824   */\n      dup2\n        /* \"#utility.yul\":21694:21825   */\n      tag_323\n      jump\t// in\n    tag_523:\n        /* \"#utility.yul\":21686:21825   */\n      swap1\n      pop\n        /* \"#utility.yul\":21413:21832   */\n      swap2\n      swap1\n      pop\n      jump\t// out\n        /* \"#utility.yul\":21838:22061   */\n    tag_324:\n        /* \"#utility.yul\":21978:22012   */\n      0x45524332303a20617070726f76652066726f6d20746865207a65726f20616464\n        /* \"#utility.yul\":21974:21975   */\n      0x00\n        /* \"#utility.yul\":21966:21972   */\n      dup3\n        /* \"#utility.yul\":21962:21976   */\n      add\n        /* \"#utility.yul\":21955:22013   */\n      mstore\n        /* \"#utility.yul\":22047:22053   */\n      0x7265737300000000000000000000000000000000000000000000000000000000\n        /* \"#utility.yul\":22042:22044   */\n      0x20\n        /* \"#utility.yul\":22034:22040   */\n      dup3\n        /* \"#utility.yul\":22030:22045   */\n      add\n        /* \"#utility.yul\":22023:22054   */\n      mstore\n        /* \"#utility.yul\":21838:22061   */\n      pop\n      jump\t// out\n        /* \"#utility.yul\":22067:22433   */\n    tag_325:\n        /* \"#utility.yul\":22209:22212   */\n      0x00\n        /* \"#utility.yul\":22230:22297   */\n      tag_526\n        /* \"#utility.yul\":22294:22296   */\n      0x24\n        /* \"#utility.yul\":22289:22292   */\n      dup4\n        /* \"#utility.yul\":22230:22297   */\n      tag_274\n      jump\t// in\n    tag_526:\n        /* \"#utility.yul\":22223:22297   */\n      swap2\n      pop\n        /* \"#utility.yul\":22306:22399   */\n      tag_527\n        /* \"#utility.yul\":22395:22398   */\n      dup3\n        /* \"#utility.yul\":22306:22399   */\n      tag_324\n      jump\t// in\n    tag_527:\n        /* \"#utility.yul\":22424:22426   */\n      0x40\n        /* \"#utility.yul\":22419:22422   */\n      dup3\n        /* \"#utility.yul\":22415:22427   */\n      add\n        /* \"#utility.yul\":22408:22427   */\n      swap1\n      pop\n        /* \"#utility.yul\":22067:22433   */\n      swap2\n      swap1\n      pop\n      jump\t// out\n        /* \"#utility.yul\":22439:22858   */\n    tag_244:\n        /* \"#utility.yul\":22605:22609   */\n      0x00\n        /* \"#utility.yul\":22643:22645   */\n      0x20\n        /* \"#utility.yul\":22632:22641   */\n      dup3\n        /* \"#utility.yul\":22628:22646   */\n      add\n        /* \"#utility.yul\":22620:22646   */\n      swap1\n      pop\n        /* \"#utility.yul\":22692:22701   */\n      dup2\n        /* \"#utility.yul\":22686:22690   */\n      dup2\n        /* \"#utility.yul\":22682:22702   */\n      sub\n        /* \"#utility.yul\":22678:22679   */\n      0x00\n        /* \"#utility.yul\":22667:22676   */\n      dup4\n        /* \"#utility.yul\":22663:22680   */\n      add\n        /* \"#utility.yul\":22656:22703   */\n      mstore\n        /* \"#utility.yul\":22720:22851   */\n      tag_529\n        /* \"#utility.yul\":22846:22850   */\n      dup2\n        /* \"#utility.yul\":22720:22851   */\n      tag_325\n      jump\t// in\n    tag_529:\n        /* \"#utility.yul\":22712:22851   */\n      swap1\n      pop\n        /* \"#utility.yul\":22439:22858   */\n      swap2\n      swap1\n      pop\n      jump\t// out\n        /* \"#utility.yul\":22864:23085   */\n    tag_326:\n        /* \"#utility.yul\":23004:23038   */\n      0x45524332303a20617070726f766520746f20746865207a65726f206164647265\n        /* \"#utility.yul\":23000:23001   */\n      0x00\n        /* \"#utility.yul\":22992:22998   */\n      dup3\n        /* \"#utility.yul\":22988:23002   */\n      add\n        /* \"#utility.yul\":22981:23039   */\n      mstore\n        /* \"#utility.yul\":23073:23077   */\n      0x7373000000000000000000000000000000000000000000000000000000000000\n        /* \"#utility.yul\":23068:23070   */\n      0x20\n        /* \"#utility.yul\":23060:23066   */\n      dup3\n        /* \"#utility.yul\":23056:23071   */\n      add\n        /* \"#utility.yul\":23049:23078   */\n      mstore\n        /* \"#utility.yul\":22864:23085   */\n      pop\n      jump\t// out\n        /* \"#utility.yul\":23091:23457   */\n    tag_327:\n        /* \"#utility.yul\":23233:23236   */\n      0x00\n        /* \"#utility.yul\":23254:23321   */\n      tag_532\n        /* \"#utility.yul\":23318:23320   */\n      0x22\n        /* \"#utility.yul\":23313:23316   */\n      dup4\n        /* \"#utility.yul\":23254:23321   */\n      tag_274\n      jump\t// in\n    tag_532:\n        /* \"#utility.yul\":23247:23321   */\n      swap2\n      pop\n        /* \"#utility.yul\":23330:23423   */\n      tag_533\n        /* \"#utility.yul\":23419:23422   */\n      dup3\n        /* \"#utility.yul\":23330:23423   */\n      tag_326\n      jump\t// in\n    tag_533:\n        /* \"#utility.yul\":23448:23450   */\n      0x40\n        /* \"#utility.yul\":23443:23446   */\n      dup3\n        /* \"#utility.yul\":23439:23451   */\n      add\n        /* \"#utility.yul\":23432:23451   */\n      swap1\n      pop\n        /* \"#utility.yul\":23091:23457   */\n      swap2\n      swap1\n      pop\n      jump\t// out\n        /* \"#utility.yul\":23463:23882   */\n    tag_247:\n        /* \"#utility.yul\":23629:23633   */\n      0x00\n        /* \"#utility.yul\":23667:23669   */\n      0x20\n        /* \"#utility.yul\":23656:23665   */\n      dup3\n        /* \"#utility.yul\":23652:23670   */\n      add\n        /* \"#utility.yul\":23644:23670   */\n      swap1\n      pop\n        /* \"#utility.yul\":23716:23725   */\n      dup2\n        /* \"#utility.yul\":23710:23714   */\n      dup2\n        /* \"#utility.yul\":23706:23726   */\n      sub\n        /* \"#utility.yul\":23702:23703   */\n      0x00\n        /* \"#utility.yul\":23691:23700   */\n      dup4\n        /* \"#utility.yul\":23687:23704   */\n      add\n        /* \"#utility.yul\":23680:23727   */\n      mstore\n        /* \"#utility.yul\":23744:23875   */\n      tag_535\n        /* \"#utility.yul\":23870:23874   */\n      dup2\n        /* \"#utility.yul\":23744:23875   */\n      tag_327\n      jump\t// in\n    tag_535:\n        /* \"#utility.yul\":23736:23875   */\n      swap1\n      pop\n        /* \"#utility.yul\":23463:23882   */\n      swap2\n      swap1\n      pop\n      jump\t// out\n        /* \"#utility.yul\":23888:24067   */\n    tag_328:\n        /* \"#utility.yul\":24028:24059   */\n      0x45524332303a20696e73756666696369656e7420616c6c6f77616e6365000000\n        /* \"#utility.yul\":24024:24025   */\n      0x00\n        /* \"#utility.yul\":24016:24022   */\n      dup3\n        /* \"#utility.yul\":24012:24026   */\n      add\n        /* \"#utility.yul\":24005:24060   */\n      mstore\n        /* \"#utility.yul\":23888:24067   */\n      pop\n      jump\t// out\n        /* \"#utility.yul\":24073:24439   */\n    tag_329:\n        /* \"#utility.yul\":24215:24218   */\n      0x00\n        /* \"#utility.yul\":24236:24303   */\n      tag_538\n        /* \"#utility.yul\":24300:24302   */\n      0x1d\n        /* \"#utility.yul\":24295:24298   */\n      dup4\n        /* \"#utility.yul\":24236:24303   */\n      tag_274\n      jump\t// in\n    tag_538:\n        /* \"#utility.yul\":24229:24303   */\n      swap2\n      pop\n        /* \"#utility.yul\":24312:24405   */\n      tag_539\n        /* \"#utility.yul\":24401:24404   */\n      dup3\n        /* \"#utility.yul\":24312:24405   */\n      tag_328\n      jump\t// in\n    tag_539:\n        /* \"#utility.yul\":24430:24432   */\n      0x20\n        /* \"#utility.yul\":24425:24428   */\n      dup3\n        /* \"#utility.yul\":24421:24433   */\n      add\n        /* \"#utility.yul\":24414:24433   */\n      swap1\n      pop\n        /* \"#utility.yul\":24073:24439   */\n      swap2\n      swap1\n      pop\n      jump\t// out\n        /* \"#utility.yul\":24445:24864   */\n    tag_254:\n        /* \"#utility.yul\":24611:24615   */\n      0x00\n        /* \"#utility.yul\":24649:24651   */\n      0x20\n        /* \"#utility.yul\":24638:24647   */\n      dup3\n        /* \"#utility.yul\":24634:24652   */\n      add\n        /* \"#utility.yul\":24626:24652   */\n      swap1\n      pop\n        /* \"#utility.yul\":24698:24707   */\n      dup2\n        /* \"#utility.yul\":24692:24696   */\n      dup2\n        /* \"#utility.yul\":24688:24708   */\n      sub\n        /* \"#utility.yul\":24684:24685   */\n      0x00\n        /* \"#utility.yul\":24673:24682   */\n      dup4\n        /* \"#utility.yul\":24669:24686   */\n      add\n        /* \"#utility.yul\":24662:24709   */\n      mstore\n        /* \"#utility.yul\":24726:24857   */\n      tag_541\n        /* \"#utility.yul\":24852:24856   */\n      dup2\n        /* \"#utility.yul\":24726:24857   */\n      tag_329\n      jump\t// in\n    tag_541:\n        /* \"#utility.yul\":24718:24857   */\n      swap1\n      pop\n        /* \"#utility.yul\":24445:24864   */\n      swap2\n      swap1\n      pop\n      jump\t// out\n        /* \"#utility.yul\":24870:25094   */\n    tag_330:\n        /* \"#utility.yul\":25010:25044   */\n      0x45524332303a207472616e736665722066726f6d20746865207a65726f206164\n        /* \"#utility.yul\":25006:25007   */\n      0x00\n        /* \"#utility.yul\":24998:25004   */\n      dup3\n        /* \"#utility.yul\":24994:25008   */\n      add\n        /* \"#utility.yul\":24987:25045   */\n      mstore\n        /* \"#utility.yul\":25079:25086   */\n      0x6472657373000000000000000000000000000000000000000000000000000000\n        /* \"#utility.yul\":25074:25076   */\n      0x20\n        /* \"#utility.yul\":25066:25072   */\n      dup3\n        /* \"#utility.yul\":25062:25077   */\n      add\n        /* \"#utility.yul\":25055:25087   */\n      mstore\n        /* \"#utility.yul\":24870:25094   */\n      pop\n      jump\t// out\n        /* \"#utility.yul\":25100:25466   */\n    tag_331:\n        /* \"#utility.yul\":25242:25245   */\n      0x00\n        /* \"#utility.yul\":25263:25330   */\n      tag_544\n        /* \"#utility.yul\":25327:25329   */\n      0x25\n        /* \"#utility.yul\":25322:25325   */\n      dup4\n        /* \"#utility.yul\":25263:25330   */\n      tag_274\n      jump\t// in\n    tag_544:\n        /* \"#utility.yul\":25256:25330   */\n      swap2\n      pop\n        /* \"#utility.yul\":25339:25432   */\n      tag_545\n        /* \"#utility.yul\":25428:25431   */\n      dup3\n        /* \"#utility.yul\":25339:25432   */\n      tag_330\n      jump\t// in\n    tag_545:\n        /* \"#utility.yul\":25457:25459   */\n      0x40\n        /* \"#utility.yul\":25452:25455   */\n      dup3\n        /* \"#utility.yul\":25448:25460   */\n      add\n        /* \"#utility.yul\":25441:25460   */\n      swap1\n      pop\n        /* \"#utility.yul\":25100:25466   */\n      swap2\n      swap1\n      pop\n      jump\t// out\n        /* \"#utility.yul\":25472:25891   */\n    tag_259:\n        /* \"#utility.yul\":25638:25642   */\n      0x00\n        /* \"#utility.yul\":25676:25678   */\n      0x20\n        /* \"#utility.yul\":25665:25674   */\n      dup3\n        /* \"#utility.yul\":25661:25679   */\n      add\n        /* \"#utility.yul\":25653:25679   */\n      swap1\n      pop\n        /* \"#utility.yul\":25725:25734   */\n      dup2\n        /* \"#utility.yul\":25719:25723   */\n      dup2\n        /* \"#utility.yul\":25715:25735   */\n      sub\n        /* \"#utility.yul\":25711:25712   */\n      0x00\n        /* \"#utility.yul\":25700:25709   */\n      dup4\n        /* \"#utility.yul\":25696:25713   */\n      add\n        /* \"#utility.yul\":25689:25736   */\n      mstore\n        /* \"#utility.yul\":25753:25884   */\n      tag_547\n        /* \"#utility.yul\":25879:25883   */\n      dup2\n        /* \"#utility.yul\":25753:25884   */\n      tag_331\n      jump\t// in\n    tag_547:\n        /* \"#utility.yul\":25745:25884   */\n      swap1\n      pop\n        /* \"#utility.yul\":25472:25891   */\n      swap2\n      swap1\n      pop\n      jump\t// out\n        /* \"#utility.yul\":25897:26119   */\n    tag_332:\n        /* \"#utility.yul\":26037:26071   */\n      0x45524332303a207472616e7366657220746f20746865207a65726f2061646472\n        /* \"#utility.yul\":26033:26034   */\n      0x00\n        /* \"#utility.yul\":26025:26031   */\n      dup3\n        /* \"#utility.yul\":26021:26035   */\n      add\n        /* \"#utility.yul\":26014:26072   */\n      mstore\n        /* \"#utility.yul\":26106:26111   */\n      0x6573730000000000000000000000000000000000000000000000000000000000\n        /* \"#utility.yul\":26101:26103   */\n      0x20\n        /* \"#utility.yul\":26093:26099   */\n      dup3\n        /* \"#utility.yul\":26089:26104   */\n      add\n        /* \"#utility.yul\":26082:26112   */\n      mstore\n        /* \"#utility.yul\":25897:26119   */\n      pop\n      jump\t// out\n        /* \"#utility.yul\":26125:26491   */\n    tag_333:\n        /* \"#utility.yul\":26267:26270   */\n      0x00\n        /* \"#utility.yul\":26288:26355   */\n      tag_550\n        /* \"#utility.yul\":26352:26354   */\n      0x23\n        /* \"#utility.yul\":26347:26350   */\n      dup4\n        /* \"#utility.yul\":26288:26355   */\n      tag_274\n      jump\t// in\n    tag_550:\n        /* \"#utility.yul\":26281:26355   */\n      swap2\n      pop\n        /* \"#utility.yul\":26364:26457   */\n      tag_551\n        /* \"#utility.yul\":26453:26456   */\n      dup3\n        /* \"#utility.yul\":26364:26457   */\n      tag_332\n      jump\t// in\n    tag_551:\n        /* \"#utility.yul\":26482:26484   */\n      0x40\n        /* \"#utility.yul\":26477:26480   */\n      dup3\n        /* \"#utility.yul\":26473:26485   */\n      add\n        /* \"#utility.yul\":26466:26485   */\n      swap1\n      pop\n        /* \"#utility.yul\":26125:26491   */\n      swap2\n      swap1\n      pop\n      jump\t// out\n        /* \"#utility.yul\":26497:26916   */\n    tag_262:\n        /* \"#utility.yul\":26663:26667   */\n      0x00\n        /* \"#utility.yul\":26701:26703   */\n      0x20\n        /* \"#utility.yul\":26690:26699   */\n      dup3\n        /* \"#utility.yul\":26686:26704   */\n      add\n        /* \"#utility.yul\":26678:26704   */\n      swap1\n      pop\n        /* \"#utility.yul\":26750:26759   */\n      dup2\n        /* \"#utility.yul\":26744:26748   */\n      dup2\n        /* \"#utility.yul\":26740:26760   */\n      sub\n        /* \"#utility.yul\":26736:26737   */\n      0x00\n        /* \"#utility.yul\":26725:26734   */\n      dup4\n        /* \"#utility.yul\":26721:26738   */\n      add\n        /* \"#utility.yul\":26714:26761   */\n      mstore\n        /* \"#utility.yul\":26778:26909   */\n      tag_553\n        /* \"#utility.yul\":26904:26908   */\n      dup2\n        /* \"#utility.yul\":26778:26909   */\n      tag_333\n      jump\t// in\n    tag_553:\n        /* \"#utility.yul\":26770:26909   */\n      swap1\n      pop\n        /* \"#utility.yul\":26497:26916   */\n      swap2\n      swap1\n      pop\n      jump\t// out\n        /* \"#utility.yul\":26922:27147   */\n    tag_334:\n        /* \"#utility.yul\":27062:27096   */\n      0x45524332303a207472616e7366657220616d6f756e7420657863656564732062\n        /* \"#utility.yul\":27058:27059   */\n      0x00\n        /* \"#utility.yul\":27050:27056   */\n      dup3\n        /* \"#utility.yul\":27046:27060   */\n      add\n        /* \"#utility.yul\":27039:27097   */\n      mstore\n        /* \"#utility.yul\":27131:27139   */\n      0x616c616e63650000000000000000000000000000000000000000000000000000\n        /* \"#utility.yul\":27126:27128   */\n      0x20\n        /* \"#utility.yul\":27118:27124   */\n      dup3\n        /* \"#utility.yul\":27114:27129   */\n      add\n        /* \"#utility.yul\":27107:27140   */\n      mstore\n        /* \"#utility.yul\":26922:27147   */\n      pop\n      jump\t// out\n        /* \"#utility.yul\":27153:27519   */\n    tag_335:\n        /* \"#utility.yul\":27295:27298   */\n      0x00\n        /* \"#utility.yul\":27316:27383   */\n      tag_556\n        /* \"#utility.yul\":27380:27382   */\n      0x26\n        /* \"#utility.yul\":27375:27378   */\n      dup4\n        /* \"#utility.yul\":27316:27383   */\n      tag_274\n      jump\t// in\n    tag_556:\n        /* \"#utility.yul\":27309:27383   */\n      swap2\n      pop\n        /* \"#utility.yul\":27392:27485   */\n      tag_557\n        /* \"#utility.yul\":27481:27484   */\n      dup3\n        /* \"#utility.yul\":27392:27485   */\n      tag_334\n      jump\t// in\n    tag_557:\n        /* \"#utility.yul\":27510:27512   */\n      0x40\n        /* \"#utility.yul\":27505:27508   */\n      dup3\n        /* \"#utility.yul\":27501:27513   */\n      add\n        /* \"#utility.yul\":27494:27513   */\n      swap1\n      pop\n        /* \"#utility.yul\":27153:27519   */\n      swap2\n      swap1\n      pop\n      jump\t// out\n        /* \"#utility.yul\":27525:27944   */\n    tag_267:\n        /* \"#utility.yul\":27691:27695   */\n      0x00\n        /* \"#utility.yul\":27729:27731   */\n      0x20\n        /* \"#utility.yul\":27718:27727   */\n      dup3\n        /* \"#utility.yul\":27714:27732   */\n      add\n        /* \"#utility.yul\":27706:27732   */\n      swap1\n      pop\n        /* \"#utility.yul\":27778:27787   */\n      dup2\n        /* \"#utility.yul\":27772:27776   */\n      dup2\n        /* \"#utility.yul\":27768:27788   */\n      sub\n        /* \"#utility.yul\":27764:27765   */\n      0x00\n        /* \"#utility.yul\":27753:27762   */\n      dup4\n        /* \"#utility.yul\":27749:27766   */\n      add\n        /* \"#utility.yul\":27742:27789   */\n      mstore\n        /* \"#utility.yul\":27806:27937   */\n      tag_559\n        /* \"#utility.yul\":27932:27936   */\n      dup2\n        /* \"#utility.yul\":27806:27937   */\n      tag_335\n      jump\t// in\n    tag_559:\n        /* \"#utility.yul\":27798:27937   */\n      swap1\n      pop\n        /* \"#utility.yul\":27525:27944   */\n      swap2\n      swap1\n      pop\n      jump\t// out\n\n    auxdata: 0xa26469706673582212201ac9cea49cf2e7d95d033510f7ea73b716de5a37f9183e5d544140e2388fa29a64736f6c63430008150033\n}\n",
				"bytecode": {
					"linkReferences": {},
					"object": "6080604052678ac7230489e800006006556064600a60065462000023919062000725565b6200002f91906200079c565b6007556064601e60065462000045919062000725565b6200005191906200079c565b6008556064603c60065462000067919062000725565b6200007391906200079c565b60095534801562000082575f80fd5b506040518060400160405280600d81526020017f43727970746f4d6f6e73746572000000000000000000000000000000000000008152506040518060400160405280600481526020017f434d4f4e00000000000000000000000000000000000000000000000000000000815250816003908162000100919062000a2e565b50806004908162000112919062000a2e565b5050503360055f6101000a81548173ffffffffffffffffffffffffffffffffffffffff021916908373ffffffffffffffffffffffffffffffffffffffff1602179055506200018a60055f9054906101000a900473ffffffffffffffffffffffffffffffffffffffff16600654620002f960201b60201c565b620001f060055f9054906101000a900473ffffffffffffffffffffffffffffffffffffffff1673ab8483f64d9c6d1ecf9b849ae677dd3315835cb2600a6003600754620001d8919062000725565b620001e491906200079c565b6200045e60201b60201c565b6200025660055f9054906101000a900473ffffffffffffffffffffffffffffffffffffffff16734b20993bc481177ec7e8f571cecae8a9e22c02db600a60046007546200023e919062000725565b6200024a91906200079c565b6200045e60201b60201c565b620002bc60055f9054906101000a900473ffffffffffffffffffffffffffffffffffffffff167378731d3ca6b7e34ac0f824c42a7cc18a495cabab600a6002600754620002a4919062000725565b620002b091906200079c565b6200045e60201b60201c565b42600a8190555061012c600a54620002d5919062000b12565b600b81905550610258600b54620002ed919062000b12565b600c8190555062000db2565b5f73ffffffffffffffffffffffffffffffffffffffff168273ffffffffffffffffffffffffffffffffffffffff16036200036a576040517f08c379a0000000000000000000000000000000000000000000000000000000008152600401620003619062000baa565b60405180910390fd5b6200037d5f8383620006e560201b60201c565b8060025f82825462000390919062000b12565b92505081905550805f808473ffffffffffffffffffffffffffffffffffffffff1673ffffffffffffffffffffffffffffffffffffffff1681526020019081526020015f205f82825401925050819055508173ffffffffffffffffffffffffffffffffffffffff165f73ffffffffffffffffffffffffffffffffffffffff167fddf252ad1be2c89b69c2b068fc378daa952ba7f163c4a11628f55a4df523b3ef836040516200043f919062000bdb565b60405180910390a36200045a5f8383620006ea60201b60201c565b5050565b5f73ffffffffffffffffffffffffffffffffffffffff168373ffffffffffffffffffffffffffffffffffffffff1603620004cf576040517f08c379a0000000000000000000000000000000000000000000000000000000008152600401620004c69062000c6a565b60405180910390fd5b5f73ffffffffffffffffffffffffffffffffffffffff168273ffffffffffffffffffffffffffffffffffffffff160362000540576040517f08c379a0000000000000000000000000000000000000000000000000000000008152600401620005379062000cfe565b60405180910390fd5b62000553838383620006e560201b60201c565b5f805f8573ffffffffffffffffffffffffffffffffffffffff1673ffffffffffffffffffffffffffffffffffffffff1681526020019081526020015f2054905081811015620005d9576040517f08c379a0000000000000000000000000000000000000000000000000000000008152600401620005d09062000d92565b60405180910390fd5b8181035f808673ffffffffffffffffffffffffffffffffffffffff1673ffffffffffffffffffffffffffffffffffffffff1681526020019081526020015f2081905550815f808573ffffffffffffffffffffffffffffffffffffffff1673ffffffffffffffffffffffffffffffffffffffff1681526020019081526020015f205f82825401925050819055508273ffffffffffffffffffffffffffffffffffffffff168473ffffffffffffffffffffffffffffffffffffffff167fddf252ad1be2c89b69c2b068fc378daa952ba7f163c4a11628f55a4df523b3ef84604051620006c4919062000bdb565b60405180910390a3620006df848484620006ea60201b60201c565b50505050565b505050565b505050565b5f819050919050565b7f4e487b71000000000000000000000000000000000000000000000000000000005f52601160045260245ffd5b5f6200073182620006ef565b91506200073e83620006ef565b92508282026200074e81620006ef565b91508282048414831517620007685762000767620006f8565b5b5092915050565b7f4e487b71000000000000000000000000000000000000000000000000000000005f52601260045260245ffd5b5f620007a882620006ef565b9150620007b583620006ef565b925082620007c857620007c76200076f565b5b828204905092915050565b5f81519050919050565b7f4e487b71000000000000000000000000000000000000000000000000000000005f52604160045260245ffd5b7f4e487b71000000000000000000000000000000000000000000000000000000005f52602260045260245ffd5b5f60028204905060018216806200084f57607f821691505b6020821081036200086557620008646200080a565b5b50919050565b5f819050815f5260205f209050919050565b5f6020601f8301049050919050565b5f82821b905092915050565b5f60088302620008c97fffffffffffffffffffffffffffffffffffffffffffffffffffffffffffffffff826200088c565b620008d586836200088c565b95508019841693508086168417925050509392505050565b5f819050919050565b5f62000916620009106200090a84620006ef565b620008ed565b620006ef565b9050919050565b5f819050919050565b6200093183620008f6565b6200094962000940826200091d565b84845462000898565b825550505050565b5f90565b6200095f62000951565b6200096c81848462000926565b505050565b5b818110156200099357620009875f8262000955565b60018101905062000972565b5050565b601f821115620009e257620009ac816200086b565b620009b7846200087d565b81016020851015620009c7578190505b620009df620009d6856200087d565b83018262000971565b50505b505050565b5f82821c905092915050565b5f62000a045f1984600802620009e7565b1980831691505092915050565b5f62000a1e8383620009f3565b9150826002028217905092915050565b62000a3982620007d3565b67ffffffffffffffff81111562000a555762000a54620007dd565b5b62000a61825462000837565b62000a6e82828562000997565b5f60209050601f83116001811462000aa4575f841562000a8f578287015190505b62000a9b858262000a11565b86555062000b0a565b601f19841662000ab4866200086b565b5f5b8281101562000add5784890151825560018201915060208501945060208101905062000ab6565b8683101562000afd578489015162000af9601f891682620009f3565b8355505b6001600288020188555050505b505050505050565b5f62000b1e82620006ef565b915062000b2b83620006ef565b925082820190508082111562000b465762000b45620006f8565b5b92915050565b5f82825260208201905092915050565b7f45524332303a206d696e7420746f20746865207a65726f2061646472657373005f82015250565b5f62000b92601f8362000b4c565b915062000b9f8262000b5c565b602082019050919050565b5f6020820190508181035f83015262000bc38162000b84565b9050919050565b62000bd581620006ef565b82525050565b5f60208201905062000bf05f83018462000bca565b92915050565b7f45524332303a207472616e736665722066726f6d20746865207a65726f2061645f8201527f6472657373000000000000000000000000000000000000000000000000000000602082015250565b5f62000c5260258362000b4c565b915062000c5f8262000bf6565b604082019050919050565b5f6020820190508181035f83015262000c838162000c44565b9050919050565b7f45524332303a207472616e7366657220746f20746865207a65726f20616464725f8201527f6573730000000000000000000000000000000000000000000000000000000000602082015250565b5f62000ce660238362000b4c565b915062000cf38262000c8a565b604082019050919050565b5f6020820190508181035f83015262000d178162000cd8565b9050919050565b7f45524332303a207472616e7366657220616d6f756e74206578636565647320625f8201527f616c616e63650000000000000000000000000000000000000000000000000000602082015250565b5f62000d7a60268362000b4c565b915062000d878262000d1e565b604082019050919050565b5f6020820190508181035f83015262000dab8162000d6c565b9050919050565b6122e58062000dc05f395ff3fe608060405260043610610134575f3560e01c8063548db174116100aa57806395d89b411161006e57806395d89b41146103ea5780639b19251a14610414578063a457c2d714610450578063a9059cbb1461048c578063dd62ed3e146104c8578063e77ff8181461050457610134565b8063548db1741461030a57806370a082311461033257806378e979251461036e5780637f649783146103985780638da5cb5b146103c057610134565b806323b872dd116100fc57806323b872dd14610208578063313ce56714610244578063395093511461026e5780633b6b4a42146102aa578063426c4e63146102c65780634822b5d6146102ee57610134565b806306fdde0314610138578063095ea7b3146101625780630c1c972a1461019e57806318160ddd146101b45780631e4d185f146101de575b5f80fd5b348015610143575f80fd5b5061014c61052e565b604051610159919061148b565b60405180910390f35b34801561016d575f80fd5b5061018860048036038101906101839190611549565b6105be565b60405161019591906115a1565b60405180910390f35b3480156101a9575f80fd5b506101b26105e0565b005b3480156101bf575f80fd5b506101c86106b6565b6040516101d591906115c9565b60405180910390f35b3480156101e9575f80fd5b506101f26106bf565b6040516101ff91906115c9565b60405180910390f35b348015610213575f80fd5b5061022e600480360381019061022991906115e2565b6106c5565b60405161023b91906115a1565b60405180910390f35b34801561024f575f80fd5b506102586106f3565b604051610265919061164d565b60405180910390f35b348015610279575f80fd5b50610294600480360381019061028f9190611549565b6106fb565b6040516102a191906115a1565b60405180910390f35b6102c460048036038101906102bf9190611666565b610731565b005b3480156102d1575f80fd5b506102ec60048036038101906102e79190611549565b610851565b005b61030860048036038101906103039190611666565b610910565b005b348015610315575f80fd5b50610330600480360381019061032b91906117d1565b610abb565b005b34801561033d575f80fd5b5061035860048036038101906103539190611818565b610bda565b60405161036591906115c9565b60405180910390f35b348015610379575f80fd5b50610382610c1f565b60405161038f91906115c9565b60405180910390f35b3480156103a3575f80fd5b506103be60048036038101906103b991906117d1565b610c25565b005b3480156103cb575f80fd5b506103d4610d45565b6040516103e19190611852565b60405180910390f35b3480156103f5575f80fd5b506103fe610d6a565b60405161040b919061148b565b60405180910390f35b34801561041f575f80fd5b5061043a60048036038101906104359190611818565b610dfa565b60405161044791906115a1565b60405180910390f35b34801561045b575f80fd5b5061047660048036038101906104719190611549565b610e17565b60405161048391906115a1565b60405180910390f35b348015610497575f80fd5b506104b260048036038101906104ad9190611549565b610e8c565b6040516104bf91906115a1565b60405180910390f35b3480156104d3575f80fd5b506104ee60048036038101906104e9919061186b565b610eae565b6040516104fb91906115c9565b60405180910390f35b34801561050f575f80fd5b50610518610f30565b60405161052591906115c9565b60405180910390f35b60606003805461053d906118d6565b80601f0160208091040260200160405190810160405280929190818152602001828054610569906118d6565b80156105b45780601f1061058b576101008083540402835291602001916105b4565b820191905f5260205f20905b81548152906001019060200180831161059757829003601f168201915b5050505050905090565b5f806105c8610f36565b90506105d5818585610f3d565b600191505092915050565b60055f9054906101000a900473ffffffffffffffffffffffffffffffffffffffff1673ffffffffffffffffffffffffffffffffffffffff163373ffffffffffffffffffffffffffffffffffffffff161461066f576040517f08c379a00000000000000000000000000000000000000000000000000000000081526004016106669061199c565b60405180910390fd5b600c544210156106b4576040517f08c379a00000000000000000000000000000000000000000000000000000000081526004016106ab90611a2a565b60405180910390fd5b565b5f600254905090565b600c5481565b5f806106cf610f36565b90506106dc858285611100565b6106e785858561118b565b60019150509392505050565b5f6012905090565b5f80610705610f36565b90506107268185856107178589610eae565b6107219190611a75565b610f3d565b600191505092915050565b600b5442101580156107445750600c5442105b610783576040517f08c379a000000000000000000000000000000000000000000000000000000000815260040161077a90611b18565b60405180910390fd5b6113888111156107c8576040517f08c379a00000000000000000000000000000000000000000000000000000000081526004016107bf90611b80565b60405180910390fd5b5f6103e890505f81836107db9190611b9e565b905080341015610820576040517f08c379a000000000000000000000000000000000000000000000000000000000815260040161081790611c4f565b60405180910390fd5b61084c60055f9054906101000a900473ffffffffffffffffffffffffffffffffffffffff16338561118b565b505050565b60055f9054906101000a900473ffffffffffffffffffffffffffffffffffffffff1673ffffffffffffffffffffffffffffffffffffffff163373ffffffffffffffffffffffffffffffffffffffff16146108e0576040517f08c379a00000000000000000000000000000000000000000000000000000000081526004016108d79061199c565b60405180910390fd5b61090c60055f9054906101000a900473ffffffffffffffffffffffffffffffffffffffff16838361118b565b5050565b600d5f3373ffffffffffffffffffffffffffffffffffffffff1673ffffffffffffffffffffffffffffffffffffffff1681526020019081526020015f205f9054906101000a900460ff16610999576040517f08c379a000000000000000000000000000000000000000000000000000000000815260040161099090611cdd565b60405180910390fd5b600a5442101580156109ac5750600b5442105b6109eb576040517f08c379a00000000000000000000000000000000000000000000000000000000081526004016109e290611d6b565b60405180910390fd5b620186a0811115610a31576040517f08c379a0000000000000000000000000000000000000000000000000000000008152600401610a2890611df9565b60405180910390fd5b5f620b71b090505f8183610a459190611b9e565b905080341015610a8a576040517f08c379a0000000000000000000000000000000000000000000000000000000008152600401610a8190611e61565b60405180910390fd5b610ab660055f9054906101000a900473ffffffffffffffffffffffffffffffffffffffff16338561118b565b505050565b60055f9054906101000a900473ffffffffffffffffffffffffffffffffffffffff1673ffffffffffffffffffffffffffffffffffffffff163373ffffffffffffffffffffffffffffffffffffffff1614610b4a576040517f08c379a0000000000000000000000000000000000000000000000000000000008152600401610b419061199c565b60405180910390fd5b5f5b8151811015610bd6575f600d5f848481518110610b6c57610b6b611e7f565b5b602002602001015173ffffffffffffffffffffffffffffffffffffffff1673ffffffffffffffffffffffffffffffffffffffff1681526020019081526020015f205f6101000a81548160ff0219169083151502179055508080610bce90611eac565b915050610b4c565b5050565b5f805f8373ffffffffffffffffffffffffffffffffffffffff1673ffffffffffffffffffffffffffffffffffffffff1681526020019081526020015f20549050919050565b600a5481565b60055f9054906101000a900473ffffffffffffffffffffffffffffffffffffffff1673ffffffffffffffffffffffffffffffffffffffff163373ffffffffffffffffffffffffffffffffffffffff1614610cb4576040517f08c379a0000000000000000000000000000000000000000000000000000000008152600401610cab9061199c565b60405180910390fd5b5f5b8151811015610d41576001600d5f848481518110610cd757610cd6611e7f565b5b602002602001015173ffffffffffffffffffffffffffffffffffffffff1673ffffffffffffffffffffffffffffffffffffffff1681526020019081526020015f205f6101000a81548160ff0219169083151502179055508080610d3990611eac565b915050610cb6565b5050565b60055f9054906101000a900473ffffffffffffffffffffffffffffffffffffffff1681565b606060048054610d79906118d6565b80601f0160208091040260200160405190810160405280929190818152602001828054610da5906118d6565b8015610df05780601f10610dc757610100808354040283529160200191610df0565b820191905f5260205f20905b815481529060010190602001808311610dd357829003601f168201915b5050505050905090565b600d602052805f5260405f205f915054906101000a900460ff1681565b5f80610e21610f36565b90505f610e2e8286610eae565b905083811015610e73576040517f08c379a0000000000000000000000000000000000000000000000000000000008152600401610e6a90611f63565b60405180910390fd5b610e808286868403610f3d565b60019250505092915050565b5f80610e96610f36565b9050610ea381858561118b565b600191505092915050565b5f60015f8473ffffffffffffffffffffffffffffffffffffffff1673ffffffffffffffffffffffffffffffffffffffff1681526020019081526020015f205f8373ffffffffffffffffffffffffffffffffffffffff1673ffffffffffffffffffffffffffffffffffffffff1681526020019081526020015f2054905092915050565b600b5481565b5f33905090565b5f73ffffffffffffffffffffffffffffffffffffffff168373ffffffffffffffffffffffffffffffffffffffff1603610fab576040517f08c379a0000000000000000000000000000000000000000000000000000000008152600401610fa290611ff1565b60405180910390fd5b5f73ffffffffffffffffffffffffffffffffffffffff168273ffffffffffffffffffffffffffffffffffffffff1603611019576040517f08c379a00000000000000000000000000000000000000000000000000000000081526004016110109061207f565b60405180910390fd5b8060015f8573ffffffffffffffffffffffffffffffffffffffff1673ffffffffffffffffffffffffffffffffffffffff1681526020019081526020015f205f8473ffffffffffffffffffffffffffffffffffffffff1673ffffffffffffffffffffffffffffffffffffffff1681526020019081526020015f20819055508173ffffffffffffffffffffffffffffffffffffffff168373ffffffffffffffffffffffffffffffffffffffff167f8c5be1e5ebec7d5bd14f71427d1e84f3dd0314c0f7b2291e5b200ac8c7c3b925836040516110f391906115c9565b60405180910390a3505050565b5f61110b8484610eae565b90507fffffffffffffffffffffffffffffffffffffffffffffffffffffffffffffffff81146111855781811015611177576040517f08c379a000000000000000000000000000000000000000000000000000000000815260040161116e906120e7565b60405180910390fd5b6111848484848403610f3d565b5b50505050565b5f73ffffffffffffffffffffffffffffffffffffffff168373ffffffffffffffffffffffffffffffffffffffff16036111f9576040517f08c379a00000000000000000000000000000000000000000000000000000000081526004016111f090612175565b60405180910390fd5b5f73ffffffffffffffffffffffffffffffffffffffff168273ffffffffffffffffffffffffffffffffffffffff1603611267576040517f08c379a000000000000000000000000000000000000000000000000000000000815260040161125e90612203565b60405180910390fd5b6112728383836113f7565b5f805f8573ffffffffffffffffffffffffffffffffffffffff1673ffffffffffffffffffffffffffffffffffffffff1681526020019081526020015f20549050818110156112f5576040517f08c379a00000000000000000000000000000000000000000000000000000000081526004016112ec90612291565b60405180910390fd5b8181035f808673ffffffffffffffffffffffffffffffffffffffff1673ffffffffffffffffffffffffffffffffffffffff1681526020019081526020015f2081905550815f808573ffffffffffffffffffffffffffffffffffffffff1673ffffffffffffffffffffffffffffffffffffffff1681526020019081526020015f205f82825401925050819055508273ffffffffffffffffffffffffffffffffffffffff168473ffffffffffffffffffffffffffffffffffffffff167fddf252ad1be2c89b69c2b068fc378daa952ba7f163c4a11628f55a4df523b3ef846040516113de91906115c9565b60405180910390a36113f18484846113fc565b50505050565b505050565b505050565b5f81519050919050565b5f82825260208201905092915050565b5f5b8381101561143857808201518184015260208101905061141d565b5f8484015250505050565b5f601f19601f8301169050919050565b5f61145d82611401565b611467818561140b565b935061147781856020860161141b565b61148081611443565b840191505092915050565b5f6020820190508181035f8301526114a38184611453565b905092915050565b5f604051905090565b5f80fd5b5f80fd5b5f73ffffffffffffffffffffffffffffffffffffffff82169050919050565b5f6114e5826114bc565b9050919050565b6114f5816114db565b81146114ff575f80fd5b50565b5f81359050611510816114ec565b92915050565b5f819050919050565b61152881611516565b8114611532575f80fd5b50565b5f813590506115438161151f565b92915050565b5f806040838503121561155f5761155e6114b4565b5b5f61156c85828601611502565b925050602061157d85828601611535565b9150509250929050565b5f8115159050919050565b61159b81611587565b82525050565b5f6020820190506115b45f830184611592565b92915050565b6115c381611516565b82525050565b5f6020820190506115dc5f8301846115ba565b92915050565b5f805f606084860312156115f9576115f86114b4565b5b5f61160686828701611502565b935050602061161786828701611502565b925050604061162886828701611535565b9150509250925092565b5f60ff82169050919050565b61164781611632565b82525050565b5f6020820190506116605f83018461163e565b92915050565b5f6020828403121561167b5761167a6114b4565b5b5f61168884828501611535565b91505092915050565b5f80fd5b7f4e487b71000000000000000000000000000000000000000000000000000000005f52604160045260245ffd5b6116cb82611443565b810181811067ffffffffffffffff821117156116ea576116e9611695565b5b80604052505050565b5f6116fc6114ab565b905061170882826116c2565b919050565b5f67ffffffffffffffff82111561172757611726611695565b5b602082029050602081019050919050565b5f80fd5b5f61174e6117498461170d565b6116f3565b9050808382526020820190506020840283018581111561177157611770611738565b5b835b8181101561179a57806117868882611502565b845260208401935050602081019050611773565b5050509392505050565b5f82601f8301126117b8576117b7611691565b5b81356117c884826020860161173c565b91505092915050565b5f602082840312156117e6576117e56114b4565b5b5f82013567ffffffffffffffff811115611803576118026114b8565b5b61180f848285016117a4565b91505092915050565b5f6020828403121561182d5761182c6114b4565b5b5f61183a84828501611502565b91505092915050565b61184c816114db565b82525050565b5f6020820190506118655f830184611843565b92915050565b5f8060408385031215611881576118806114b4565b5b5f61188e85828601611502565b925050602061189f85828601611502565b9150509250929050565b7f4e487b71000000000000000000000000000000000000000000000000000000005f52602260045260245ffd5b5f60028204905060018216806118ed57607f821691505b602082108103611900576118ff6118a9565b5b50919050565b7fd098d181d0bfd0bed0bbd18cd0b7d0bed0b2d0b0d182d18c20d0bcd0bed0b6d05f8201527fb5d18220d182d0bed0bbd18cd0bad0be20d0b2d0bbd0b0d0b4d0b5d0bbd0b5d160208201527f8600000000000000000000000000000000000000000000000000000000000000604082015250565b5f61198660418361140b565b915061199182611906565b606082019050919050565b5f6020820190508181035f8301526119b38161197a565b9050919050565b7fd09fd183d0b1d0bbd0b8d187d0bdd18bd0b520d0bfd180d0bed0b4d0b0d0b6d05f8201527fb820d0b5d189d19120d0bdd0b0d187d0b0d0bbd0b8d181d18c00000000000000602082015250565b5f611a1460398361140b565b9150611a1f826119ba565b604082019050919050565b5f6020820190508181035f830152611a4181611a08565b9050919050565b7f4e487b71000000000000000000000000000000000000000000000000000000005f52601160045260245ffd5b5f611a7f82611516565b9150611a8a83611516565b9250828201905080821115611aa257611aa1611a48565b5b92915050565b7fd09fd183d0b1d0bbd0b8d187d0bdd0b0d18f20d0bfd180d0bed0b4d0b0d0b6d05f8201527fb020d0b5d189d19120d0bdd0b020d0bdd0b0d187d0b0d0bbd0b0d181d18c0000602082015250565b5f611b02603e8361140b565b9150611b0d82611aa8565b604082019050919050565b5f6020820190508181035f830152611b2f81611af6565b9050919050565b7f4d6178207075726368617365206c696d697420657863656564656400000000005f82015250565b5f611b6a601b8361140b565b9150611b7582611b36565b602082019050919050565b5f6020820190508181035f830152611b9781611b5e565b9050919050565b5f611ba882611516565b9150611bb383611516565b9250828202611bc181611516565b91508282048414831517611bd857611bd7611a48565b5b5092915050565b7fd09dd0b5d0b4d0bed181d182d0b0d182d0bed187d0bdd0be20d181d180d0b5d05f8201527fb4d181d182d0b200000000000000000000000000000000000000000000000000602082015250565b5f611c3960278361140b565b9150611c4482611bdf565b604082019050919050565b5f6020820190508181035f830152611c6681611c2d565b9050919050565b7fd092d0b0d18120d0bdd0b5d18220d0b220d0b2d0b0d0b9d18220d0bbd0b8d1815f8201527fd182d0b500000000000000000000000000000000000000000000000000000000602082015250565b5f611cc760248361140b565b9150611cd282611c6d565b604082019050919050565b5f6020820190508181035f830152611cf481611cbb565b9050919050565b7fd09fd180d0b8d0b2d0b0d182d0bdd0b0d18f20d0bfd180d0bed0b4d0b0d0b6d05f8201527fb020d0b5d189d19120d0bdd0b520d0bdd0b0d187d0b0d0bbd0b0d181d18c0000602082015250565b5f611d55603e8361140b565b9150611d6082611cfb565b604082019050919050565b5f6020820190508181035f830152611d8281611d49565b9050919050565b7fd09bd0b8d0bcd0b8d18220d0bfd0bed0bad183d0bfd0bed0ba20d0bfd180d0b55f8201527fd0b2d18bd188d0b5d0bd00000000000000000000000000000000000000000000602082015250565b5f611de3602a8361140b565b9150611dee82611d89565b604082019050919050565b5f6020820190508181035f830152611e1081611dd7565b9050919050565b7f496e73756666696369656e742066756e647300000000000000000000000000005f82015250565b5f611e4b60128361140b565b9150611e5682611e17565b602082019050919050565b5f6020820190508181035f830152611e7881611e3f565b9050919050565b7f4e487b71000000000000000000000000000000000000000000000000000000005f52603260045260245ffd5b5f611eb682611516565b91507fffffffffffffffffffffffffffffffffffffffffffffffffffffffffffffffff8203611ee857611ee7611a48565b5b600182019050919050565b7f45524332303a2064656372656173656420616c6c6f77616e63652062656c6f775f8201527f207a65726f000000000000000000000000000000000000000000000000000000602082015250565b5f611f4d60258361140b565b9150611f5882611ef3565b604082019050919050565b5f6020820190508181035f830152611f7a81611f41565b9050919050565b7f45524332303a20617070726f76652066726f6d20746865207a65726f206164645f8201527f7265737300000000000000000000000000000000000000000000000000000000602082015250565b5f611fdb60248361140b565b9150611fe682611f81565b604082019050919050565b5f6020820190508181035f83015261200881611fcf565b9050919050565b7f45524332303a20617070726f766520746f20746865207a65726f2061646472655f8201527f7373000000000000000000000000000000000000000000000000000000000000602082015250565b5f61206960228361140b565b91506120748261200f565b604082019050919050565b5f6020820190508181035f8301526120968161205d565b9050919050565b7f45524332303a20696e73756666696369656e7420616c6c6f77616e63650000005f82015250565b5f6120d1601d8361140b565b91506120dc8261209d565b602082019050919050565b5f6020820190508181035f8301526120fe816120c5565b9050919050565b7f45524332303a207472616e736665722066726f6d20746865207a65726f2061645f8201527f6472657373000000000000000000000000000000000000000000000000000000602082015250565b5f61215f60258361140b565b915061216a82612105565b604082019050919050565b5f6020820190508181035f83015261218c81612153565b9050919050565b7f45524332303a207472616e7366657220746f20746865207a65726f20616464725f8201527f6573730000000000000000000000000000000000000000000000000000000000602082015250565b5f6121ed60238361140b565b91506121f882612193565b604082019050919050565b5f6020820190508181035f83015261221a816121e1565b9050919050565b7f45524332303a207472616e7366657220616d6f756e74206578636565647320625f8201527f616c616e63650000000000000000000000000000000000000000000000000000602082015250565b5f61227b60268361140b565b915061228682612221565b604082019050919050565b5f6020820190508181035f8301526122a88161226f565b905091905056fea26469706673582212201ac9cea49cf2e7d95d033510f7ea73b716de5a37f9183e5d544140e2388fa29a64736f6c63430008150033",
					"opcodes": "PUSH1 0x80 PUSH1 0x40 MSTORE PUSH8 0x8AC7230489E80000 PUSH1 0x6 SSTORE PUSH1 0x64 PUSH1 0xA PUSH1 0x6 SLOAD PUSH3 0x23 SWAP2 SWAP1 PUSH3 0x725 JUMP JUMPDEST PUSH3 0x2F SWAP2 SWAP1 PUSH3 0x79C JUMP JUMPDEST PUSH1 0x7 SSTORE PUSH1 0x64 PUSH1 0x1E PUSH1 0x6 SLOAD PUSH3 0x45 SWAP2 SWAP1 PUSH3 0x725 JUMP JUMPDEST PUSH3 0x51 SWAP2 SWAP1 PUSH3 0x79C JUMP JUMPDEST PUSH1 0x8 SSTORE PUSH1 0x64 PUSH1 0x3C PUSH1 0x6 SLOAD PUSH3 0x67 SWAP2 SWAP1 PUSH3 0x725 JUMP JUMPDEST PUSH3 0x73 SWAP2 SWAP1 PUSH3 0x79C JUMP JUMPDEST PUSH1 0x9 SSTORE CALLVALUE DUP1 ISZERO PUSH3 0x82 JUMPI PUSH0 DUP1 REVERT JUMPDEST POP PUSH1 0x40 MLOAD DUP1 PUSH1 0x40 ADD PUSH1 0x40 MSTORE DUP1 PUSH1 0xD DUP2 MSTORE PUSH1 0x20 ADD PUSH32 0x43727970746F4D6F6E7374657200000000000000000000000000000000000000 DUP2 MSTORE POP PUSH1 0x40 MLOAD DUP1 PUSH1 0x40 ADD PUSH1 0x40 MSTORE DUP1 PUSH1 0x4 DUP2 MSTORE PUSH1 0x20 ADD PUSH32 0x434D4F4E00000000000000000000000000000000000000000000000000000000 DUP2 MSTORE POP DUP2 PUSH1 0x3 SWAP1 DUP2 PUSH3 0x100 SWAP2 SWAP1 PUSH3 0xA2E JUMP JUMPDEST POP DUP1 PUSH1 0x4 SWAP1 DUP2 PUSH3 0x112 SWAP2 SWAP1 PUSH3 0xA2E JUMP JUMPDEST POP POP POP CALLER PUSH1 0x5 PUSH0 PUSH2 0x100 EXP DUP2 SLOAD DUP2 PUSH20 0xFFFFFFFFFFFFFFFFFFFFFFFFFFFFFFFFFFFFFFFF MUL NOT AND SWAP1 DUP4 PUSH20 0xFFFFFFFFFFFFFFFFFFFFFFFFFFFFFFFFFFFFFFFF AND MUL OR SWAP1 SSTORE POP PUSH3 0x18A PUSH1 0x5 PUSH0 SWAP1 SLOAD SWAP1 PUSH2 0x100 EXP SWAP1 DIV PUSH20 0xFFFFFFFFFFFFFFFFFFFFFFFFFFFFFFFFFFFFFFFF AND PUSH1 0x6 SLOAD PUSH3 0x2F9 PUSH1 0x20 SHL PUSH1 0x20 SHR JUMP JUMPDEST PUSH3 0x1F0 PUSH1 0x5 PUSH0 SWAP1 SLOAD SWAP1 PUSH2 0x100 EXP SWAP1 DIV PUSH20 0xFFFFFFFFFFFFFFFFFFFFFFFFFFFFFFFFFFFFFFFF AND PUSH20 0xAB8483F64D9C6D1ECF9B849AE677DD3315835CB2 PUSH1 0xA PUSH1 0x3 PUSH1 0x7 SLOAD PUSH3 0x1D8 SWAP2 SWAP1 PUSH3 0x725 JUMP JUMPDEST PUSH3 0x1E4 SWAP2 SWAP1 PUSH3 0x79C JUMP JUMPDEST PUSH3 0x45E PUSH1 0x20 SHL PUSH1 0x20 SHR JUMP JUMPDEST PUSH3 0x256 PUSH1 0x5 PUSH0 SWAP1 SLOAD SWAP1 PUSH2 0x100 EXP SWAP1 DIV PUSH20 0xFFFFFFFFFFFFFFFFFFFFFFFFFFFFFFFFFFFFFFFF AND PUSH20 0x4B20993BC481177EC7E8F571CECAE8A9E22C02DB PUSH1 0xA PUSH1 0x4 PUSH1 0x7 SLOAD PUSH3 0x23E SWAP2 SWAP1 PUSH3 0x725 JUMP JUMPDEST PUSH3 0x24A SWAP2 SWAP1 PUSH3 0x79C JUMP JUMPDEST PUSH3 0x45E PUSH1 0x20 SHL PUSH1 0x20 SHR JUMP JUMPDEST PUSH3 0x2BC PUSH1 0x5 PUSH0 SWAP1 SLOAD SWAP1 PUSH2 0x100 EXP SWAP1 DIV PUSH20 0xFFFFFFFFFFFFFFFFFFFFFFFFFFFFFFFFFFFFFFFF AND PUSH20 0x78731D3CA6B7E34AC0F824C42A7CC18A495CABAB PUSH1 0xA PUSH1 0x2 PUSH1 0x7 SLOAD PUSH3 0x2A4 SWAP2 SWAP1 PUSH3 0x725 JUMP JUMPDEST PUSH3 0x2B0 SWAP2 SWAP1 PUSH3 0x79C JUMP JUMPDEST PUSH3 0x45E PUSH1 0x20 SHL PUSH1 0x20 SHR JUMP JUMPDEST TIMESTAMP PUSH1 0xA DUP2 SWAP1 SSTORE POP PUSH2 0x12C PUSH1 0xA SLOAD PUSH3 0x2D5 SWAP2 SWAP1 PUSH3 0xB12 JUMP JUMPDEST PUSH1 0xB DUP2 SWAP1 SSTORE POP PUSH2 0x258 PUSH1 0xB SLOAD PUSH3 0x2ED SWAP2 SWAP1 PUSH3 0xB12 JUMP JUMPDEST PUSH1 0xC DUP2 SWAP1 SSTORE POP PUSH3 0xDB2 JUMP JUMPDEST PUSH0 PUSH20 0xFFFFFFFFFFFFFFFFFFFFFFFFFFFFFFFFFFFFFFFF AND DUP3 PUSH20 0xFFFFFFFFFFFFFFFFFFFFFFFFFFFFFFFFFFFFFFFF AND SUB PUSH3 0x36A JUMPI PUSH1 0x40 MLOAD PUSH32 0x8C379A000000000000000000000000000000000000000000000000000000000 DUP2 MSTORE PUSH1 0x4 ADD PUSH3 0x361 SWAP1 PUSH3 0xBAA JUMP JUMPDEST PUSH1 0x40 MLOAD DUP1 SWAP2 SUB SWAP1 REVERT JUMPDEST PUSH3 0x37D PUSH0 DUP4 DUP4 PUSH3 0x6E5 PUSH1 0x20 SHL PUSH1 0x20 SHR JUMP JUMPDEST DUP1 PUSH1 0x2 PUSH0 DUP3 DUP3 SLOAD PUSH3 0x390 SWAP2 SWAP1 PUSH3 0xB12 JUMP JUMPDEST SWAP3 POP POP DUP2 SWAP1 SSTORE POP DUP1 PUSH0 DUP1 DUP5 PUSH20 0xFFFFFFFFFFFFFFFFFFFFFFFFFFFFFFFFFFFFFFFF AND PUSH20 0xFFFFFFFFFFFFFFFFFFFFFFFFFFFFFFFFFFFFFFFF AND DUP2 MSTORE PUSH1 0x20 ADD SWAP1 DUP2 MSTORE PUSH1 0x20 ADD PUSH0 KECCAK256 PUSH0 DUP3 DUP3 SLOAD ADD SWAP3 POP POP DUP2 SWAP1 SSTORE POP DUP2 PUSH20 0xFFFFFFFFFFFFFFFFFFFFFFFFFFFFFFFFFFFFFFFF AND PUSH0 PUSH20 0xFFFFFFFFFFFFFFFFFFFFFFFFFFFFFFFFFFFFFFFF AND PUSH32 0xDDF252AD1BE2C89B69C2B068FC378DAA952BA7F163C4A11628F55A4DF523B3EF DUP4 PUSH1 0x40 MLOAD PUSH3 0x43F SWAP2 SWAP1 PUSH3 0xBDB JUMP JUMPDEST PUSH1 0x40 MLOAD DUP1 SWAP2 SUB SWAP1 LOG3 PUSH3 0x45A PUSH0 DUP4 DUP4 PUSH3 0x6EA PUSH1 0x20 SHL PUSH1 0x20 SHR JUMP JUMPDEST POP POP JUMP JUMPDEST PUSH0 PUSH20 0xFFFFFFFFFFFFFFFFFFFFFFFFFFFFFFFFFFFFFFFF AND DUP4 PUSH20 0xFFFFFFFFFFFFFFFFFFFFFFFFFFFFFFFFFFFFFFFF AND SUB PUSH3 0x4CF JUMPI PUSH1 0x40 MLOAD PUSH32 0x8C379A000000000000000000000000000000000000000000000000000000000 DUP2 MSTORE PUSH1 0x4 ADD PUSH3 0x4C6 SWAP1 PUSH3 0xC6A JUMP JUMPDEST PUSH1 0x40 MLOAD DUP1 SWAP2 SUB SWAP1 REVERT JUMPDEST PUSH0 PUSH20 0xFFFFFFFFFFFFFFFFFFFFFFFFFFFFFFFFFFFFFFFF AND DUP3 PUSH20 0xFFFFFFFFFFFFFFFFFFFFFFFFFFFFFFFFFFFFFFFF AND SUB PUSH3 0x540 JUMPI PUSH1 0x40 MLOAD PUSH32 0x8C379A000000000000000000000000000000000000000000000000000000000 DUP2 MSTORE PUSH1 0x4 ADD PUSH3 0x537 SWAP1 PUSH3 0xCFE JUMP JUMPDEST PUSH1 0x40 MLOAD DUP1 SWAP2 SUB SWAP1 REVERT JUMPDEST PUSH3 0x553 DUP4 DUP4 DUP4 PUSH3 0x6E5 PUSH1 0x20 SHL PUSH1 0x20 SHR JUMP JUMPDEST PUSH0 DUP1 PUSH0 DUP6 PUSH20 0xFFFFFFFFFFFFFFFFFFFFFFFFFFFFFFFFFFFFFFFF AND PUSH20 0xFFFFFFFFFFFFFFFFFFFFFFFFFFFFFFFFFFFFFFFF AND DUP2 MSTORE PUSH1 0x20 ADD SWAP1 DUP2 MSTORE PUSH1 0x20 ADD PUSH0 KECCAK256 SLOAD SWAP1 POP DUP2 DUP2 LT ISZERO PUSH3 0x5D9 JUMPI PUSH1 0x40 MLOAD PUSH32 0x8C379A000000000000000000000000000000000000000000000000000000000 DUP2 MSTORE PUSH1 0x4 ADD PUSH3 0x5D0 SWAP1 PUSH3 0xD92 JUMP JUMPDEST PUSH1 0x40 MLOAD DUP1 SWAP2 SUB SWAP1 REVERT JUMPDEST DUP2 DUP2 SUB PUSH0 DUP1 DUP7 PUSH20 0xFFFFFFFFFFFFFFFFFFFFFFFFFFFFFFFFFFFFFFFF AND PUSH20 0xFFFFFFFFFFFFFFFFFFFFFFFFFFFFFFFFFFFFFFFF AND DUP2 MSTORE PUSH1 0x20 ADD SWAP1 DUP2 MSTORE PUSH1 0x20 ADD PUSH0 KECCAK256 DUP2 SWAP1 SSTORE POP DUP2 PUSH0 DUP1 DUP6 PUSH20 0xFFFFFFFFFFFFFFFFFFFFFFFFFFFFFFFFFFFFFFFF AND PUSH20 0xFFFFFFFFFFFFFFFFFFFFFFFFFFFFFFFFFFFFFFFF AND DUP2 MSTORE PUSH1 0x20 ADD SWAP1 DUP2 MSTORE PUSH1 0x20 ADD PUSH0 KECCAK256 PUSH0 DUP3 DUP3 SLOAD ADD SWAP3 POP POP DUP2 SWAP1 SSTORE POP DUP3 PUSH20 0xFFFFFFFFFFFFFFFFFFFFFFFFFFFFFFFFFFFFFFFF AND DUP5 PUSH20 0xFFFFFFFFFFFFFFFFFFFFFFFFFFFFFFFFFFFFFFFF AND PUSH32 0xDDF252AD1BE2C89B69C2B068FC378DAA952BA7F163C4A11628F55A4DF523B3EF DUP5 PUSH1 0x40 MLOAD PUSH3 0x6C4 SWAP2 SWAP1 PUSH3 0xBDB JUMP JUMPDEST PUSH1 0x40 MLOAD DUP1 SWAP2 SUB SWAP1 LOG3 PUSH3 0x6DF DUP5 DUP5 DUP5 PUSH3 0x6EA PUSH1 0x20 SHL PUSH1 0x20 SHR JUMP JUMPDEST POP POP POP POP JUMP JUMPDEST POP POP POP JUMP JUMPDEST POP POP POP JUMP JUMPDEST PUSH0 DUP2 SWAP1 POP SWAP2 SWAP1 POP JUMP JUMPDEST PUSH32 0x4E487B7100000000000000000000000000000000000000000000000000000000 PUSH0 MSTORE PUSH1 0x11 PUSH1 0x4 MSTORE PUSH1 0x24 PUSH0 REVERT JUMPDEST PUSH0 PUSH3 0x731 DUP3 PUSH3 0x6EF JUMP JUMPDEST SWAP2 POP PUSH3 0x73E DUP4 PUSH3 0x6EF JUMP JUMPDEST SWAP3 POP DUP3 DUP3 MUL PUSH3 0x74E DUP2 PUSH3 0x6EF JUMP JUMPDEST SWAP2 POP DUP3 DUP3 DIV DUP5 EQ DUP4 ISZERO OR PUSH3 0x768 JUMPI PUSH3 0x767 PUSH3 0x6F8 JUMP JUMPDEST JUMPDEST POP SWAP3 SWAP2 POP POP JUMP JUMPDEST PUSH32 0x4E487B7100000000000000000000000000000000000000000000000000000000 PUSH0 MSTORE PUSH1 0x12 PUSH1 0x4 MSTORE PUSH1 0x24 PUSH0 REVERT JUMPDEST PUSH0 PUSH3 0x7A8 DUP3 PUSH3 0x6EF JUMP JUMPDEST SWAP2 POP PUSH3 0x7B5 DUP4 PUSH3 0x6EF JUMP JUMPDEST SWAP3 POP DUP3 PUSH3 0x7C8 JUMPI PUSH3 0x7C7 PUSH3 0x76F JUMP JUMPDEST JUMPDEST DUP3 DUP3 DIV SWAP1 POP SWAP3 SWAP2 POP POP JUMP JUMPDEST PUSH0 DUP2 MLOAD SWAP1 POP SWAP2 SWAP1 POP JUMP JUMPDEST PUSH32 0x4E487B7100000000000000000000000000000000000000000000000000000000 PUSH0 MSTORE PUSH1 0x41 PUSH1 0x4 MSTORE PUSH1 0x24 PUSH0 REVERT JUMPDEST PUSH32 0x4E487B7100000000000000000000000000000000000000000000000000000000 PUSH0 MSTORE PUSH1 0x22 PUSH1 0x4 MSTORE PUSH1 0x24 PUSH0 REVERT JUMPDEST PUSH0 PUSH1 0x2 DUP3 DIV SWAP1 POP PUSH1 0x1 DUP3 AND DUP1 PUSH3 0x84F JUMPI PUSH1 0x7F DUP3 AND SWAP2 POP JUMPDEST PUSH1 0x20 DUP3 LT DUP2 SUB PUSH3 0x865 JUMPI PUSH3 0x864 PUSH3 0x80A JUMP JUMPDEST JUMPDEST POP SWAP2 SWAP1 POP JUMP JUMPDEST PUSH0 DUP2 SWAP1 POP DUP2 PUSH0 MSTORE PUSH1 0x20 PUSH0 KECCAK256 SWAP1 POP SWAP2 SWAP1 POP JUMP JUMPDEST PUSH0 PUSH1 0x20 PUSH1 0x1F DUP4 ADD DIV SWAP1 POP SWAP2 SWAP1 POP JUMP JUMPDEST PUSH0 DUP3 DUP3 SHL SWAP1 POP SWAP3 SWAP2 POP POP JUMP JUMPDEST PUSH0 PUSH1 0x8 DUP4 MUL PUSH3 0x8C9 PUSH32 0xFFFFFFFFFFFFFFFFFFFFFFFFFFFFFFFFFFFFFFFFFFFFFFFFFFFFFFFFFFFFFFFF DUP3 PUSH3 0x88C JUMP JUMPDEST PUSH3 0x8D5 DUP7 DUP4 PUSH3 0x88C JUMP JUMPDEST SWAP6 POP DUP1 NOT DUP5 AND SWAP4 POP DUP1 DUP7 AND DUP5 OR SWAP3 POP POP POP SWAP4 SWAP3 POP POP POP JUMP JUMPDEST PUSH0 DUP2 SWAP1 POP SWAP2 SWAP1 POP JUMP JUMPDEST PUSH0 PUSH3 0x916 PUSH3 0x910 PUSH3 0x90A DUP5 PUSH3 0x6EF JUMP JUMPDEST PUSH3 0x8ED JUMP JUMPDEST PUSH3 0x6EF JUMP JUMPDEST SWAP1 POP SWAP2 SWAP1 POP JUMP JUMPDEST PUSH0 DUP2 SWAP1 POP SWAP2 SWAP1 POP JUMP JUMPDEST PUSH3 0x931 DUP4 PUSH3 0x8F6 JUMP JUMPDEST PUSH3 0x949 PUSH3 0x940 DUP3 PUSH3 0x91D JUMP JUMPDEST DUP5 DUP5 SLOAD PUSH3 0x898 JUMP JUMPDEST DUP3 SSTORE POP POP POP POP JUMP JUMPDEST PUSH0 SWAP1 JUMP JUMPDEST PUSH3 0x95F PUSH3 0x951 JUMP JUMPDEST PUSH3 0x96C DUP2 DUP5 DUP5 PUSH3 0x926 JUMP JUMPDEST POP POP POP JUMP JUMPDEST JUMPDEST DUP2 DUP2 LT ISZERO PUSH3 0x993 JUMPI PUSH3 0x987 PUSH0 DUP3 PUSH3 0x955 JUMP JUMPDEST PUSH1 0x1 DUP2 ADD SWAP1 POP PUSH3 0x972 JUMP JUMPDEST POP POP JUMP JUMPDEST PUSH1 0x1F DUP3 GT ISZERO PUSH3 0x9E2 JUMPI PUSH3 0x9AC DUP2 PUSH3 0x86B JUMP JUMPDEST PUSH3 0x9B7 DUP5 PUSH3 0x87D JUMP JUMPDEST DUP2 ADD PUSH1 0x20 DUP6 LT ISZERO PUSH3 0x9C7 JUMPI DUP2 SWAP1 POP JUMPDEST PUSH3 0x9DF PUSH3 0x9D6 DUP6 PUSH3 0x87D JUMP JUMPDEST DUP4 ADD DUP3 PUSH3 0x971 JUMP JUMPDEST POP POP JUMPDEST POP POP POP JUMP JUMPDEST PUSH0 DUP3 DUP3 SHR SWAP1 POP SWAP3 SWAP2 POP POP JUMP JUMPDEST PUSH0 PUSH3 0xA04 PUSH0 NOT DUP5 PUSH1 0x8 MUL PUSH3 0x9E7 JUMP JUMPDEST NOT DUP1 DUP4 AND SWAP2 POP POP SWAP3 SWAP2 POP POP JUMP JUMPDEST PUSH0 PUSH3 0xA1E DUP4 DUP4 PUSH3 0x9F3 JUMP JUMPDEST SWAP2 POP DUP3 PUSH1 0x2 MUL DUP3 OR SWAP1 POP SWAP3 SWAP2 POP POP JUMP JUMPDEST PUSH3 0xA39 DUP3 PUSH3 0x7D3 JUMP JUMPDEST PUSH8 0xFFFFFFFFFFFFFFFF DUP2 GT ISZERO PUSH3 0xA55 JUMPI PUSH3 0xA54 PUSH3 0x7DD JUMP JUMPDEST JUMPDEST PUSH3 0xA61 DUP3 SLOAD PUSH3 0x837 JUMP JUMPDEST PUSH3 0xA6E DUP3 DUP3 DUP6 PUSH3 0x997 JUMP JUMPDEST PUSH0 PUSH1 0x20 SWAP1 POP PUSH1 0x1F DUP4 GT PUSH1 0x1 DUP2 EQ PUSH3 0xAA4 JUMPI PUSH0 DUP5 ISZERO PUSH3 0xA8F JUMPI DUP3 DUP8 ADD MLOAD SWAP1 POP JUMPDEST PUSH3 0xA9B DUP6 DUP3 PUSH3 0xA11 JUMP JUMPDEST DUP7 SSTORE POP PUSH3 0xB0A JUMP JUMPDEST PUSH1 0x1F NOT DUP5 AND PUSH3 0xAB4 DUP7 PUSH3 0x86B JUMP JUMPDEST PUSH0 JUMPDEST DUP3 DUP2 LT ISZERO PUSH3 0xADD JUMPI DUP5 DUP10 ADD MLOAD DUP3 SSTORE PUSH1 0x1 DUP3 ADD SWAP2 POP PUSH1 0x20 DUP6 ADD SWAP5 POP PUSH1 0x20 DUP2 ADD SWAP1 POP PUSH3 0xAB6 JUMP JUMPDEST DUP7 DUP4 LT ISZERO PUSH3 0xAFD JUMPI DUP5 DUP10 ADD MLOAD PUSH3 0xAF9 PUSH1 0x1F DUP10 AND DUP3 PUSH3 0x9F3 JUMP JUMPDEST DUP4 SSTORE POP JUMPDEST PUSH1 0x1 PUSH1 0x2 DUP9 MUL ADD DUP9 SSTORE POP POP POP JUMPDEST POP POP POP POP POP POP JUMP JUMPDEST PUSH0 PUSH3 0xB1E DUP3 PUSH3 0x6EF JUMP JUMPDEST SWAP2 POP PUSH3 0xB2B DUP4 PUSH3 0x6EF JUMP JUMPDEST SWAP3 POP DUP3 DUP3 ADD SWAP1 POP DUP1 DUP3 GT ISZERO PUSH3 0xB46 JUMPI PUSH3 0xB45 PUSH3 0x6F8 JUMP JUMPDEST JUMPDEST SWAP3 SWAP2 POP POP JUMP JUMPDEST PUSH0 DUP3 DUP3 MSTORE PUSH1 0x20 DUP3 ADD SWAP1 POP SWAP3 SWAP2 POP POP JUMP JUMPDEST PUSH32 0x45524332303A206D696E7420746F20746865207A65726F206164647265737300 PUSH0 DUP3 ADD MSTORE POP JUMP JUMPDEST PUSH0 PUSH3 0xB92 PUSH1 0x1F DUP4 PUSH3 0xB4C JUMP JUMPDEST SWAP2 POP PUSH3 0xB9F DUP3 PUSH3 0xB5C JUMP JUMPDEST PUSH1 0x20 DUP3 ADD SWAP1 POP SWAP2 SWAP1 POP JUMP JUMPDEST PUSH0 PUSH1 0x20 DUP3 ADD SWAP1 POP DUP2 DUP2 SUB PUSH0 DUP4 ADD MSTORE PUSH3 0xBC3 DUP2 PUSH3 0xB84 JUMP JUMPDEST SWAP1 POP SWAP2 SWAP1 POP JUMP JUMPDEST PUSH3 0xBD5 DUP2 PUSH3 0x6EF JUMP JUMPDEST DUP3 MSTORE POP POP JUMP JUMPDEST PUSH0 PUSH1 0x20 DUP3 ADD SWAP1 POP PUSH3 0xBF0 PUSH0 DUP4 ADD DUP5 PUSH3 0xBCA JUMP JUMPDEST SWAP3 SWAP2 POP POP JUMP JUMPDEST PUSH32 0x45524332303A207472616E736665722066726F6D20746865207A65726F206164 PUSH0 DUP3 ADD MSTORE PUSH32 0x6472657373000000000000000000000000000000000000000000000000000000 PUSH1 0x20 DUP3 ADD MSTORE POP JUMP JUMPDEST PUSH0 PUSH3 0xC52 PUSH1 0x25 DUP4 PUSH3 0xB4C JUMP JUMPDEST SWAP2 POP PUSH3 0xC5F DUP3 PUSH3 0xBF6 JUMP JUMPDEST PUSH1 0x40 DUP3 ADD SWAP1 POP SWAP2 SWAP1 POP JUMP JUMPDEST PUSH0 PUSH1 0x20 DUP3 ADD SWAP1 POP DUP2 DUP2 SUB PUSH0 DUP4 ADD MSTORE PUSH3 0xC83 DUP2 PUSH3 0xC44 JUMP JUMPDEST SWAP1 POP SWAP2 SWAP1 POP JUMP JUMPDEST PUSH32 0x45524332303A207472616E7366657220746F20746865207A65726F2061646472 PUSH0 DUP3 ADD MSTORE PUSH32 0x6573730000000000000000000000000000000000000000000000000000000000 PUSH1 0x20 DUP3 ADD MSTORE POP JUMP JUMPDEST PUSH0 PUSH3 0xCE6 PUSH1 0x23 DUP4 PUSH3 0xB4C JUMP JUMPDEST SWAP2 POP PUSH3 0xCF3 DUP3 PUSH3 0xC8A JUMP JUMPDEST PUSH1 0x40 DUP3 ADD SWAP1 POP SWAP2 SWAP1 POP JUMP JUMPDEST PUSH0 PUSH1 0x20 DUP3 ADD SWAP1 POP DUP2 DUP2 SUB PUSH0 DUP4 ADD MSTORE PUSH3 0xD17 DUP2 PUSH3 0xCD8 JUMP JUMPDEST SWAP1 POP SWAP2 SWAP1 POP JUMP JUMPDEST PUSH32 0x45524332303A207472616E7366657220616D6F756E7420657863656564732062 PUSH0 DUP3 ADD MSTORE PUSH32 0x616C616E63650000000000000000000000000000000000000000000000000000 PUSH1 0x20 DUP3 ADD MSTORE POP JUMP JUMPDEST PUSH0 PUSH3 0xD7A PUSH1 0x26 DUP4 PUSH3 0xB4C JUMP JUMPDEST SWAP2 POP PUSH3 0xD87 DUP3 PUSH3 0xD1E JUMP JUMPDEST PUSH1 0x40 DUP3 ADD SWAP1 POP SWAP2 SWAP1 POP JUMP JUMPDEST PUSH0 PUSH1 0x20 DUP3 ADD SWAP1 POP DUP2 DUP2 SUB PUSH0 DUP4 ADD MSTORE PUSH3 0xDAB DUP2 PUSH3 0xD6C JUMP JUMPDEST SWAP1 POP SWAP2 SWAP1 POP JUMP JUMPDEST PUSH2 0x22E5 DUP1 PUSH3 0xDC0 PUSH0 CODECOPY PUSH0 RETURN INVALID PUSH1 0x80 PUSH1 0x40 MSTORE PUSH1 0x4 CALLDATASIZE LT PUSH2 0x134 JUMPI PUSH0 CALLDATALOAD PUSH1 0xE0 SHR DUP1 PUSH4 0x548DB174 GT PUSH2 0xAA JUMPI DUP1 PUSH4 0x95D89B41 GT PUSH2 0x6E JUMPI DUP1 PUSH4 0x95D89B41 EQ PUSH2 0x3EA JUMPI DUP1 PUSH4 0x9B19251A EQ PUSH2 0x414 JUMPI DUP1 PUSH4 0xA457C2D7 EQ PUSH2 0x450 JUMPI DUP1 PUSH4 0xA9059CBB EQ PUSH2 0x48C JUMPI DUP1 PUSH4 0xDD62ED3E EQ PUSH2 0x4C8 JUMPI DUP1 PUSH4 0xE77FF818 EQ PUSH2 0x504 JUMPI PUSH2 0x134 JUMP JUMPDEST DUP1 PUSH4 0x548DB174 EQ PUSH2 0x30A JUMPI DUP1 PUSH4 0x70A08231 EQ PUSH2 0x332 JUMPI DUP1 PUSH4 0x78E97925 EQ PUSH2 0x36E JUMPI DUP1 PUSH4 0x7F649783 EQ PUSH2 0x398 JUMPI DUP1 PUSH4 0x8DA5CB5B EQ PUSH2 0x3C0 JUMPI PUSH2 0x134 JUMP JUMPDEST DUP1 PUSH4 0x23B872DD GT PUSH2 0xFC JUMPI DUP1 PUSH4 0x23B872DD EQ PUSH2 0x208 JUMPI DUP1 PUSH4 0x313CE567 EQ PUSH2 0x244 JUMPI DUP1 PUSH4 0x39509351 EQ PUSH2 0x26E JUMPI DUP1 PUSH4 0x3B6B4A42 EQ PUSH2 0x2AA JUMPI DUP1 PUSH4 0x426C4E63 EQ PUSH2 0x2C6 JUMPI DUP1 PUSH4 0x4822B5D6 EQ PUSH2 0x2EE JUMPI PUSH2 0x134 JUMP JUMPDEST DUP1 PUSH4 0x6FDDE03 EQ PUSH2 0x138 JUMPI DUP1 PUSH4 0x95EA7B3 EQ PUSH2 0x162 JUMPI DUP1 PUSH4 0xC1C972A EQ PUSH2 0x19E JUMPI DUP1 PUSH4 0x18160DDD EQ PUSH2 0x1B4 JUMPI DUP1 PUSH4 0x1E4D185F EQ PUSH2 0x1DE JUMPI JUMPDEST PUSH0 DUP1 REVERT JUMPDEST CALLVALUE DUP1 ISZERO PUSH2 0x143 JUMPI PUSH0 DUP1 REVERT JUMPDEST POP PUSH2 0x14C PUSH2 0x52E JUMP JUMPDEST PUSH1 0x40 MLOAD PUSH2 0x159 SWAP2 SWAP1 PUSH2 0x148B JUMP JUMPDEST PUSH1 0x40 MLOAD DUP1 SWAP2 SUB SWAP1 RETURN JUMPDEST CALLVALUE DUP1 ISZERO PUSH2 0x16D JUMPI PUSH0 DUP1 REVERT JUMPDEST POP PUSH2 0x188 PUSH1 0x4 DUP1 CALLDATASIZE SUB DUP2 ADD SWAP1 PUSH2 0x183 SWAP2 SWAP1 PUSH2 0x1549 JUMP JUMPDEST PUSH2 0x5BE JUMP JUMPDEST PUSH1 0x40 MLOAD PUSH2 0x195 SWAP2 SWAP1 PUSH2 0x15A1 JUMP JUMPDEST PUSH1 0x40 MLOAD DUP1 SWAP2 SUB SWAP1 RETURN JUMPDEST CALLVALUE DUP1 ISZERO PUSH2 0x1A9 JUMPI PUSH0 DUP1 REVERT JUMPDEST POP PUSH2 0x1B2 PUSH2 0x5E0 JUMP JUMPDEST STOP JUMPDEST CALLVALUE DUP1 ISZERO PUSH2 0x1BF JUMPI PUSH0 DUP1 REVERT JUMPDEST POP PUSH2 0x1C8 PUSH2 0x6B6 JUMP JUMPDEST PUSH1 0x40 MLOAD PUSH2 0x1D5 SWAP2 SWAP1 PUSH2 0x15C9 JUMP JUMPDEST PUSH1 0x40 MLOAD DUP1 SWAP2 SUB SWAP1 RETURN JUMPDEST CALLVALUE DUP1 ISZERO PUSH2 0x1E9 JUMPI PUSH0 DUP1 REVERT JUMPDEST POP PUSH2 0x1F2 PUSH2 0x6BF JUMP JUMPDEST PUSH1 0x40 MLOAD PUSH2 0x1FF SWAP2 SWAP1 PUSH2 0x15C9 JUMP JUMPDEST PUSH1 0x40 MLOAD DUP1 SWAP2 SUB SWAP1 RETURN JUMPDEST CALLVALUE DUP1 ISZERO PUSH2 0x213 JUMPI PUSH0 DUP1 REVERT JUMPDEST POP PUSH2 0x22E PUSH1 0x4 DUP1 CALLDATASIZE SUB DUP2 ADD SWAP1 PUSH2 0x229 SWAP2 SWAP1 PUSH2 0x15E2 JUMP JUMPDEST PUSH2 0x6C5 JUMP JUMPDEST PUSH1 0x40 MLOAD PUSH2 0x23B SWAP2 SWAP1 PUSH2 0x15A1 JUMP JUMPDEST PUSH1 0x40 MLOAD DUP1 SWAP2 SUB SWAP1 RETURN JUMPDEST CALLVALUE DUP1 ISZERO PUSH2 0x24F JUMPI PUSH0 DUP1 REVERT JUMPDEST POP PUSH2 0x258 PUSH2 0x6F3 JUMP JUMPDEST PUSH1 0x40 MLOAD PUSH2 0x265 SWAP2 SWAP1 PUSH2 0x164D JUMP JUMPDEST PUSH1 0x40 MLOAD DUP1 SWAP2 SUB SWAP1 RETURN JUMPDEST CALLVALUE DUP1 ISZERO PUSH2 0x279 JUMPI PUSH0 DUP1 REVERT JUMPDEST POP PUSH2 0x294 PUSH1 0x4 DUP1 CALLDATASIZE SUB DUP2 ADD SWAP1 PUSH2 0x28F SWAP2 SWAP1 PUSH2 0x1549 JUMP JUMPDEST PUSH2 0x6FB JUMP JUMPDEST PUSH1 0x40 MLOAD PUSH2 0x2A1 SWAP2 SWAP1 PUSH2 0x15A1 JUMP JUMPDEST PUSH1 0x40 MLOAD DUP1 SWAP2 SUB SWAP1 RETURN JUMPDEST PUSH2 0x2C4 PUSH1 0x4 DUP1 CALLDATASIZE SUB DUP2 ADD SWAP1 PUSH2 0x2BF SWAP2 SWAP1 PUSH2 0x1666 JUMP JUMPDEST PUSH2 0x731 JUMP JUMPDEST STOP JUMPDEST CALLVALUE DUP1 ISZERO PUSH2 0x2D1 JUMPI PUSH0 DUP1 REVERT JUMPDEST POP PUSH2 0x2EC PUSH1 0x4 DUP1 CALLDATASIZE SUB DUP2 ADD SWAP1 PUSH2 0x2E7 SWAP2 SWAP1 PUSH2 0x1549 JUMP JUMPDEST PUSH2 0x851 JUMP JUMPDEST STOP JUMPDEST PUSH2 0x308 PUSH1 0x4 DUP1 CALLDATASIZE SUB DUP2 ADD SWAP1 PUSH2 0x303 SWAP2 SWAP1 PUSH2 0x1666 JUMP JUMPDEST PUSH2 0x910 JUMP JUMPDEST STOP JUMPDEST CALLVALUE DUP1 ISZERO PUSH2 0x315 JUMPI PUSH0 DUP1 REVERT JUMPDEST POP PUSH2 0x330 PUSH1 0x4 DUP1 CALLDATASIZE SUB DUP2 ADD SWAP1 PUSH2 0x32B SWAP2 SWAP1 PUSH2 0x17D1 JUMP JUMPDEST PUSH2 0xABB JUMP JUMPDEST STOP JUMPDEST CALLVALUE DUP1 ISZERO PUSH2 0x33D JUMPI PUSH0 DUP1 REVERT JUMPDEST POP PUSH2 0x358 PUSH1 0x4 DUP1 CALLDATASIZE SUB DUP2 ADD SWAP1 PUSH2 0x353 SWAP2 SWAP1 PUSH2 0x1818 JUMP JUMPDEST PUSH2 0xBDA JUMP JUMPDEST PUSH1 0x40 MLOAD PUSH2 0x365 SWAP2 SWAP1 PUSH2 0x15C9 JUMP JUMPDEST PUSH1 0x40 MLOAD DUP1 SWAP2 SUB SWAP1 RETURN JUMPDEST CALLVALUE DUP1 ISZERO PUSH2 0x379 JUMPI PUSH0 DUP1 REVERT JUMPDEST POP PUSH2 0x382 PUSH2 0xC1F JUMP JUMPDEST PUSH1 0x40 MLOAD PUSH2 0x38F SWAP2 SWAP1 PUSH2 0x15C9 JUMP JUMPDEST PUSH1 0x40 MLOAD DUP1 SWAP2 SUB SWAP1 RETURN JUMPDEST CALLVALUE DUP1 ISZERO PUSH2 0x3A3 JUMPI PUSH0 DUP1 REVERT JUMPDEST POP PUSH2 0x3BE PUSH1 0x4 DUP1 CALLDATASIZE SUB DUP2 ADD SWAP1 PUSH2 0x3B9 SWAP2 SWAP1 PUSH2 0x17D1 JUMP JUMPDEST PUSH2 0xC25 JUMP JUMPDEST STOP JUMPDEST CALLVALUE DUP1 ISZERO PUSH2 0x3CB JUMPI PUSH0 DUP1 REVERT JUMPDEST POP PUSH2 0x3D4 PUSH2 0xD45 JUMP JUMPDEST PUSH1 0x40 MLOAD PUSH2 0x3E1 SWAP2 SWAP1 PUSH2 0x1852 JUMP JUMPDEST PUSH1 0x40 MLOAD DUP1 SWAP2 SUB SWAP1 RETURN JUMPDEST CALLVALUE DUP1 ISZERO PUSH2 0x3F5 JUMPI PUSH0 DUP1 REVERT JUMPDEST POP PUSH2 0x3FE PUSH2 0xD6A JUMP JUMPDEST PUSH1 0x40 MLOAD PUSH2 0x40B SWAP2 SWAP1 PUSH2 0x148B JUMP JUMPDEST PUSH1 0x40 MLOAD DUP1 SWAP2 SUB SWAP1 RETURN JUMPDEST CALLVALUE DUP1 ISZERO PUSH2 0x41F JUMPI PUSH0 DUP1 REVERT JUMPDEST POP PUSH2 0x43A PUSH1 0x4 DUP1 CALLDATASIZE SUB DUP2 ADD SWAP1 PUSH2 0x435 SWAP2 SWAP1 PUSH2 0x1818 JUMP JUMPDEST PUSH2 0xDFA JUMP JUMPDEST PUSH1 0x40 MLOAD PUSH2 0x447 SWAP2 SWAP1 PUSH2 0x15A1 JUMP JUMPDEST PUSH1 0x40 MLOAD DUP1 SWAP2 SUB SWAP1 RETURN JUMPDEST CALLVALUE DUP1 ISZERO PUSH2 0x45B JUMPI PUSH0 DUP1 REVERT JUMPDEST POP PUSH2 0x476 PUSH1 0x4 DUP1 CALLDATASIZE SUB DUP2 ADD SWAP1 PUSH2 0x471 SWAP2 SWAP1 PUSH2 0x1549 JUMP JUMPDEST PUSH2 0xE17 JUMP JUMPDEST PUSH1 0x40 MLOAD PUSH2 0x483 SWAP2 SWAP1 PUSH2 0x15A1 JUMP JUMPDEST PUSH1 0x40 MLOAD DUP1 SWAP2 SUB SWAP1 RETURN JUMPDEST CALLVALUE DUP1 ISZERO PUSH2 0x497 JUMPI PUSH0 DUP1 REVERT JUMPDEST POP PUSH2 0x4B2 PUSH1 0x4 DUP1 CALLDATASIZE SUB DUP2 ADD SWAP1 PUSH2 0x4AD SWAP2 SWAP1 PUSH2 0x1549 JUMP JUMPDEST PUSH2 0xE8C JUMP JUMPDEST PUSH1 0x40 MLOAD PUSH2 0x4BF SWAP2 SWAP1 PUSH2 0x15A1 JUMP JUMPDEST PUSH1 0x40 MLOAD DUP1 SWAP2 SUB SWAP1 RETURN JUMPDEST CALLVALUE DUP1 ISZERO PUSH2 0x4D3 JUMPI PUSH0 DUP1 REVERT JUMPDEST POP PUSH2 0x4EE PUSH1 0x4 DUP1 CALLDATASIZE SUB DUP2 ADD SWAP1 PUSH2 0x4E9 SWAP2 SWAP1 PUSH2 0x186B JUMP JUMPDEST PUSH2 0xEAE JUMP JUMPDEST PUSH1 0x40 MLOAD PUSH2 0x4FB SWAP2 SWAP1 PUSH2 0x15C9 JUMP JUMPDEST PUSH1 0x40 MLOAD DUP1 SWAP2 SUB SWAP1 RETURN JUMPDEST CALLVALUE DUP1 ISZERO PUSH2 0x50F JUMPI PUSH0 DUP1 REVERT JUMPDEST POP PUSH2 0x518 PUSH2 0xF30 JUMP JUMPDEST PUSH1 0x40 MLOAD PUSH2 0x525 SWAP2 SWAP1 PUSH2 0x15C9 JUMP JUMPDEST PUSH1 0x40 MLOAD DUP1 SWAP2 SUB SWAP1 RETURN JUMPDEST PUSH1 0x60 PUSH1 0x3 DUP1 SLOAD PUSH2 0x53D SWAP1 PUSH2 0x18D6 JUMP JUMPDEST DUP1 PUSH1 0x1F ADD PUSH1 0x20 DUP1 SWAP2 DIV MUL PUSH1 0x20 ADD PUSH1 0x40 MLOAD SWAP1 DUP2 ADD PUSH1 0x40 MSTORE DUP1 SWAP3 SWAP2 SWAP1 DUP2 DUP2 MSTORE PUSH1 0x20 ADD DUP3 DUP1 SLOAD PUSH2 0x569 SWAP1 PUSH2 0x18D6 JUMP JUMPDEST DUP1 ISZERO PUSH2 0x5B4 JUMPI DUP1 PUSH1 0x1F LT PUSH2 0x58B JUMPI PUSH2 0x100 DUP1 DUP4 SLOAD DIV MUL DUP4 MSTORE SWAP2 PUSH1 0x20 ADD SWAP2 PUSH2 0x5B4 JUMP JUMPDEST DUP3 ADD SWAP2 SWAP1 PUSH0 MSTORE PUSH1 0x20 PUSH0 KECCAK256 SWAP1 JUMPDEST DUP2 SLOAD DUP2 MSTORE SWAP1 PUSH1 0x1 ADD SWAP1 PUSH1 0x20 ADD DUP1 DUP4 GT PUSH2 0x597 JUMPI DUP3 SWAP1 SUB PUSH1 0x1F AND DUP3 ADD SWAP2 JUMPDEST POP POP POP POP POP SWAP1 POP SWAP1 JUMP JUMPDEST PUSH0 DUP1 PUSH2 0x5C8 PUSH2 0xF36 JUMP JUMPDEST SWAP1 POP PUSH2 0x5D5 DUP2 DUP6 DUP6 PUSH2 0xF3D JUMP JUMPDEST PUSH1 0x1 SWAP2 POP POP SWAP3 SWAP2 POP POP JUMP JUMPDEST PUSH1 0x5 PUSH0 SWAP1 SLOAD SWAP1 PUSH2 0x100 EXP SWAP1 DIV PUSH20 0xFFFFFFFFFFFFFFFFFFFFFFFFFFFFFFFFFFFFFFFF AND PUSH20 0xFFFFFFFFFFFFFFFFFFFFFFFFFFFFFFFFFFFFFFFF AND CALLER PUSH20 0xFFFFFFFFFFFFFFFFFFFFFFFFFFFFFFFFFFFFFFFF AND EQ PUSH2 0x66F JUMPI PUSH1 0x40 MLOAD PUSH32 0x8C379A000000000000000000000000000000000000000000000000000000000 DUP2 MSTORE PUSH1 0x4 ADD PUSH2 0x666 SWAP1 PUSH2 0x199C JUMP JUMPDEST PUSH1 0x40 MLOAD DUP1 SWAP2 SUB SWAP1 REVERT JUMPDEST PUSH1 0xC SLOAD TIMESTAMP LT ISZERO PUSH2 0x6B4 JUMPI PUSH1 0x40 MLOAD PUSH32 0x8C379A000000000000000000000000000000000000000000000000000000000 DUP2 MSTORE PUSH1 0x4 ADD PUSH2 0x6AB SWAP1 PUSH2 0x1A2A JUMP JUMPDEST PUSH1 0x40 MLOAD DUP1 SWAP2 SUB SWAP1 REVERT JUMPDEST JUMP JUMPDEST PUSH0 PUSH1 0x2 SLOAD SWAP1 POP SWAP1 JUMP JUMPDEST PUSH1 0xC SLOAD DUP2 JUMP JUMPDEST PUSH0 DUP1 PUSH2 0x6CF PUSH2 0xF36 JUMP JUMPDEST SWAP1 POP PUSH2 0x6DC DUP6 DUP3 DUP6 PUSH2 0x1100 JUMP JUMPDEST PUSH2 0x6E7 DUP6 DUP6 DUP6 PUSH2 0x118B JUMP JUMPDEST PUSH1 0x1 SWAP2 POP POP SWAP4 SWAP3 POP POP POP JUMP JUMPDEST PUSH0 PUSH1 0x12 SWAP1 POP SWAP1 JUMP JUMPDEST PUSH0 DUP1 PUSH2 0x705 PUSH2 0xF36 JUMP JUMPDEST SWAP1 POP PUSH2 0x726 DUP2 DUP6 DUP6 PUSH2 0x717 DUP6 DUP10 PUSH2 0xEAE JUMP JUMPDEST PUSH2 0x721 SWAP2 SWAP1 PUSH2 0x1A75 JUMP JUMPDEST PUSH2 0xF3D JUMP JUMPDEST PUSH1 0x1 SWAP2 POP POP SWAP3 SWAP2 POP POP JUMP JUMPDEST PUSH1 0xB SLOAD TIMESTAMP LT ISZERO DUP1 ISZERO PUSH2 0x744 JUMPI POP PUSH1 0xC SLOAD TIMESTAMP LT JUMPDEST PUSH2 0x783 JUMPI PUSH1 0x40 MLOAD PUSH32 0x8C379A000000000000000000000000000000000000000000000000000000000 DUP2 MSTORE PUSH1 0x4 ADD PUSH2 0x77A SWAP1 PUSH2 0x1B18 JUMP JUMPDEST PUSH1 0x40 MLOAD DUP1 SWAP2 SUB SWAP1 REVERT JUMPDEST PUSH2 0x1388 DUP2 GT ISZERO PUSH2 0x7C8 JUMPI PUSH1 0x40 MLOAD PUSH32 0x8C379A000000000000000000000000000000000000000000000000000000000 DUP2 MSTORE PUSH1 0x4 ADD PUSH2 0x7BF SWAP1 PUSH2 0x1B80 JUMP JUMPDEST PUSH1 0x40 MLOAD DUP1 SWAP2 SUB SWAP1 REVERT JUMPDEST PUSH0 PUSH2 0x3E8 SWAP1 POP PUSH0 DUP2 DUP4 PUSH2 0x7DB SWAP2 SWAP1 PUSH2 0x1B9E JUMP JUMPDEST SWAP1 POP DUP1 CALLVALUE LT ISZERO PUSH2 0x820 JUMPI PUSH1 0x40 MLOAD PUSH32 0x8C379A000000000000000000000000000000000000000000000000000000000 DUP2 MSTORE PUSH1 0x4 ADD PUSH2 0x817 SWAP1 PUSH2 0x1C4F JUMP JUMPDEST PUSH1 0x40 MLOAD DUP1 SWAP2 SUB SWAP1 REVERT JUMPDEST PUSH2 0x84C PUSH1 0x5 PUSH0 SWAP1 SLOAD SWAP1 PUSH2 0x100 EXP SWAP1 DIV PUSH20 0xFFFFFFFFFFFFFFFFFFFFFFFFFFFFFFFFFFFFFFFF AND CALLER DUP6 PUSH2 0x118B JUMP JUMPDEST POP POP POP JUMP JUMPDEST PUSH1 0x5 PUSH0 SWAP1 SLOAD SWAP1 PUSH2 0x100 EXP SWAP1 DIV PUSH20 0xFFFFFFFFFFFFFFFFFFFFFFFFFFFFFFFFFFFFFFFF AND PUSH20 0xFFFFFFFFFFFFFFFFFFFFFFFFFFFFFFFFFFFFFFFF AND CALLER PUSH20 0xFFFFFFFFFFFFFFFFFFFFFFFFFFFFFFFFFFFFFFFF AND EQ PUSH2 0x8E0 JUMPI PUSH1 0x40 MLOAD PUSH32 0x8C379A000000000000000000000000000000000000000000000000000000000 DUP2 MSTORE PUSH1 0x4 ADD PUSH2 0x8D7 SWAP1 PUSH2 0x199C JUMP JUMPDEST PUSH1 0x40 MLOAD DUP1 SWAP2 SUB SWAP1 REVERT JUMPDEST PUSH2 0x90C PUSH1 0x5 PUSH0 SWAP1 SLOAD SWAP1 PUSH2 0x100 EXP SWAP1 DIV PUSH20 0xFFFFFFFFFFFFFFFFFFFFFFFFFFFFFFFFFFFFFFFF AND DUP4 DUP4 PUSH2 0x118B JUMP JUMPDEST POP POP JUMP JUMPDEST PUSH1 0xD PUSH0 CALLER PUSH20 0xFFFFFFFFFFFFFFFFFFFFFFFFFFFFFFFFFFFFFFFF AND PUSH20 0xFFFFFFFFFFFFFFFFFFFFFFFFFFFFFFFFFFFFFFFF AND DUP2 MSTORE PUSH1 0x20 ADD SWAP1 DUP2 MSTORE PUSH1 0x20 ADD PUSH0 KECCAK256 PUSH0 SWAP1 SLOAD SWAP1 PUSH2 0x100 EXP SWAP1 DIV PUSH1 0xFF AND PUSH2 0x999 JUMPI PUSH1 0x40 MLOAD PUSH32 0x8C379A000000000000000000000000000000000000000000000000000000000 DUP2 MSTORE PUSH1 0x4 ADD PUSH2 0x990 SWAP1 PUSH2 0x1CDD JUMP JUMPDEST PUSH1 0x40 MLOAD DUP1 SWAP2 SUB SWAP1 REVERT JUMPDEST PUSH1 0xA SLOAD TIMESTAMP LT ISZERO DUP1 ISZERO PUSH2 0x9AC JUMPI POP PUSH1 0xB SLOAD TIMESTAMP LT JUMPDEST PUSH2 0x9EB JUMPI PUSH1 0x40 MLOAD PUSH32 0x8C379A000000000000000000000000000000000000000000000000000000000 DUP2 MSTORE PUSH1 0x4 ADD PUSH2 0x9E2 SWAP1 PUSH2 0x1D6B JUMP JUMPDEST PUSH1 0x40 MLOAD DUP1 SWAP2 SUB SWAP1 REVERT JUMPDEST PUSH3 0x186A0 DUP2 GT ISZERO PUSH2 0xA31 JUMPI PUSH1 0x40 MLOAD PUSH32 0x8C379A000000000000000000000000000000000000000000000000000000000 DUP2 MSTORE PUSH1 0x4 ADD PUSH2 0xA28 SWAP1 PUSH2 0x1DF9 JUMP JUMPDEST PUSH1 0x40 MLOAD DUP1 SWAP2 SUB SWAP1 REVERT JUMPDEST PUSH0 PUSH3 0xB71B0 SWAP1 POP PUSH0 DUP2 DUP4 PUSH2 0xA45 SWAP2 SWAP1 PUSH2 0x1B9E JUMP JUMPDEST SWAP1 POP DUP1 CALLVALUE LT ISZERO PUSH2 0xA8A JUMPI PUSH1 0x40 MLOAD PUSH32 0x8C379A000000000000000000000000000000000000000000000000000000000 DUP2 MSTORE PUSH1 0x4 ADD PUSH2 0xA81 SWAP1 PUSH2 0x1E61 JUMP JUMPDEST PUSH1 0x40 MLOAD DUP1 SWAP2 SUB SWAP1 REVERT JUMPDEST PUSH2 0xAB6 PUSH1 0x5 PUSH0 SWAP1 SLOAD SWAP1 PUSH2 0x100 EXP SWAP1 DIV PUSH20 0xFFFFFFFFFFFFFFFFFFFFFFFFFFFFFFFFFFFFFFFF AND CALLER DUP6 PUSH2 0x118B JUMP JUMPDEST POP POP POP JUMP JUMPDEST PUSH1 0x5 PUSH0 SWAP1 SLOAD SWAP1 PUSH2 0x100 EXP SWAP1 DIV PUSH20 0xFFFFFFFFFFFFFFFFFFFFFFFFFFFFFFFFFFFFFFFF AND PUSH20 0xFFFFFFFFFFFFFFFFFFFFFFFFFFFFFFFFFFFFFFFF AND CALLER PUSH20 0xFFFFFFFFFFFFFFFFFFFFFFFFFFFFFFFFFFFFFFFF AND EQ PUSH2 0xB4A JUMPI PUSH1 0x40 MLOAD PUSH32 0x8C379A000000000000000000000000000000000000000000000000000000000 DUP2 MSTORE PUSH1 0x4 ADD PUSH2 0xB41 SWAP1 PUSH2 0x199C JUMP JUMPDEST PUSH1 0x40 MLOAD DUP1 SWAP2 SUB SWAP1 REVERT JUMPDEST PUSH0 JUMPDEST DUP2 MLOAD DUP2 LT ISZERO PUSH2 0xBD6 JUMPI PUSH0 PUSH1 0xD PUSH0 DUP5 DUP5 DUP2 MLOAD DUP2 LT PUSH2 0xB6C JUMPI PUSH2 0xB6B PUSH2 0x1E7F JUMP JUMPDEST JUMPDEST PUSH1 0x20 MUL PUSH1 0x20 ADD ADD MLOAD PUSH20 0xFFFFFFFFFFFFFFFFFFFFFFFFFFFFFFFFFFFFFFFF AND PUSH20 0xFFFFFFFFFFFFFFFFFFFFFFFFFFFFFFFFFFFFFFFF AND DUP2 MSTORE PUSH1 0x20 ADD SWAP1 DUP2 MSTORE PUSH1 0x20 ADD PUSH0 KECCAK256 PUSH0 PUSH2 0x100 EXP DUP2 SLOAD DUP2 PUSH1 0xFF MUL NOT AND SWAP1 DUP4 ISZERO ISZERO MUL OR SWAP1 SSTORE POP DUP1 DUP1 PUSH2 0xBCE SWAP1 PUSH2 0x1EAC JUMP JUMPDEST SWAP2 POP POP PUSH2 0xB4C JUMP JUMPDEST POP POP JUMP JUMPDEST PUSH0 DUP1 PUSH0 DUP4 PUSH20 0xFFFFFFFFFFFFFFFFFFFFFFFFFFFFFFFFFFFFFFFF AND PUSH20 0xFFFFFFFFFFFFFFFFFFFFFFFFFFFFFFFFFFFFFFFF AND DUP2 MSTORE PUSH1 0x20 ADD SWAP1 DUP2 MSTORE PUSH1 0x20 ADD PUSH0 KECCAK256 SLOAD SWAP1 POP SWAP2 SWAP1 POP JUMP JUMPDEST PUSH1 0xA SLOAD DUP2 JUMP JUMPDEST PUSH1 0x5 PUSH0 SWAP1 SLOAD SWAP1 PUSH2 0x100 EXP SWAP1 DIV PUSH20 0xFFFFFFFFFFFFFFFFFFFFFFFFFFFFFFFFFFFFFFFF AND PUSH20 0xFFFFFFFFFFFFFFFFFFFFFFFFFFFFFFFFFFFFFFFF AND CALLER PUSH20 0xFFFFFFFFFFFFFFFFFFFFFFFFFFFFFFFFFFFFFFFF AND EQ PUSH2 0xCB4 JUMPI PUSH1 0x40 MLOAD PUSH32 0x8C379A000000000000000000000000000000000000000000000000000000000 DUP2 MSTORE PUSH1 0x4 ADD PUSH2 0xCAB SWAP1 PUSH2 0x199C JUMP JUMPDEST PUSH1 0x40 MLOAD DUP1 SWAP2 SUB SWAP1 REVERT JUMPDEST PUSH0 JUMPDEST DUP2 MLOAD DUP2 LT ISZERO PUSH2 0xD41 JUMPI PUSH1 0x1 PUSH1 0xD PUSH0 DUP5 DUP5 DUP2 MLOAD DUP2 LT PUSH2 0xCD7 JUMPI PUSH2 0xCD6 PUSH2 0x1E7F JUMP JUMPDEST JUMPDEST PUSH1 0x20 MUL PUSH1 0x20 ADD ADD MLOAD PUSH20 0xFFFFFFFFFFFFFFFFFFFFFFFFFFFFFFFFFFFFFFFF AND PUSH20 0xFFFFFFFFFFFFFFFFFFFFFFFFFFFFFFFFFFFFFFFF AND DUP2 MSTORE PUSH1 0x20 ADD SWAP1 DUP2 MSTORE PUSH1 0x20 ADD PUSH0 KECCAK256 PUSH0 PUSH2 0x100 EXP DUP2 SLOAD DUP2 PUSH1 0xFF MUL NOT AND SWAP1 DUP4 ISZERO ISZERO MUL OR SWAP1 SSTORE POP DUP1 DUP1 PUSH2 0xD39 SWAP1 PUSH2 0x1EAC JUMP JUMPDEST SWAP2 POP POP PUSH2 0xCB6 JUMP JUMPDEST POP POP JUMP JUMPDEST PUSH1 0x5 PUSH0 SWAP1 SLOAD SWAP1 PUSH2 0x100 EXP SWAP1 DIV PUSH20 0xFFFFFFFFFFFFFFFFFFFFFFFFFFFFFFFFFFFFFFFF AND DUP2 JUMP JUMPDEST PUSH1 0x60 PUSH1 0x4 DUP1 SLOAD PUSH2 0xD79 SWAP1 PUSH2 0x18D6 JUMP JUMPDEST DUP1 PUSH1 0x1F ADD PUSH1 0x20 DUP1 SWAP2 DIV MUL PUSH1 0x20 ADD PUSH1 0x40 MLOAD SWAP1 DUP2 ADD PUSH1 0x40 MSTORE DUP1 SWAP3 SWAP2 SWAP1 DUP2 DUP2 MSTORE PUSH1 0x20 ADD DUP3 DUP1 SLOAD PUSH2 0xDA5 SWAP1 PUSH2 0x18D6 JUMP JUMPDEST DUP1 ISZERO PUSH2 0xDF0 JUMPI DUP1 PUSH1 0x1F LT PUSH2 0xDC7 JUMPI PUSH2 0x100 DUP1 DUP4 SLOAD DIV MUL DUP4 MSTORE SWAP2 PUSH1 0x20 ADD SWAP2 PUSH2 0xDF0 JUMP JUMPDEST DUP3 ADD SWAP2 SWAP1 PUSH0 MSTORE PUSH1 0x20 PUSH0 KECCAK256 SWAP1 JUMPDEST DUP2 SLOAD DUP2 MSTORE SWAP1 PUSH1 0x1 ADD SWAP1 PUSH1 0x20 ADD DUP1 DUP4 GT PUSH2 0xDD3 JUMPI DUP3 SWAP1 SUB PUSH1 0x1F AND DUP3 ADD SWAP2 JUMPDEST POP POP POP POP POP SWAP1 POP SWAP1 JUMP JUMPDEST PUSH1 0xD PUSH1 0x20 MSTORE DUP1 PUSH0 MSTORE PUSH1 0x40 PUSH0 KECCAK256 PUSH0 SWAP2 POP SLOAD SWAP1 PUSH2 0x100 EXP SWAP1 DIV PUSH1 0xFF AND DUP2 JUMP JUMPDEST PUSH0 DUP1 PUSH2 0xE21 PUSH2 0xF36 JUMP JUMPDEST SWAP1 POP PUSH0 PUSH2 0xE2E DUP3 DUP7 PUSH2 0xEAE JUMP JUMPDEST SWAP1 POP DUP4 DUP2 LT ISZERO PUSH2 0xE73 JUMPI PUSH1 0x40 MLOAD PUSH32 0x8C379A000000000000000000000000000000000000000000000000000000000 DUP2 MSTORE PUSH1 0x4 ADD PUSH2 0xE6A SWAP1 PUSH2 0x1F63 JUMP JUMPDEST PUSH1 0x40 MLOAD DUP1 SWAP2 SUB SWAP1 REVERT JUMPDEST PUSH2 0xE80 DUP3 DUP7 DUP7 DUP5 SUB PUSH2 0xF3D JUMP JUMPDEST PUSH1 0x1 SWAP3 POP POP POP SWAP3 SWAP2 POP POP JUMP JUMPDEST PUSH0 DUP1 PUSH2 0xE96 PUSH2 0xF36 JUMP JUMPDEST SWAP1 POP PUSH2 0xEA3 DUP2 DUP6 DUP6 PUSH2 0x118B JUMP JUMPDEST PUSH1 0x1 SWAP2 POP POP SWAP3 SWAP2 POP POP JUMP JUMPDEST PUSH0 PUSH1 0x1 PUSH0 DUP5 PUSH20 0xFFFFFFFFFFFFFFFFFFFFFFFFFFFFFFFFFFFFFFFF AND PUSH20 0xFFFFFFFFFFFFFFFFFFFFFFFFFFFFFFFFFFFFFFFF AND DUP2 MSTORE PUSH1 0x20 ADD SWAP1 DUP2 MSTORE PUSH1 0x20 ADD PUSH0 KECCAK256 PUSH0 DUP4 PUSH20 0xFFFFFFFFFFFFFFFFFFFFFFFFFFFFFFFFFFFFFFFF AND PUSH20 0xFFFFFFFFFFFFFFFFFFFFFFFFFFFFFFFFFFFFFFFF AND DUP2 MSTORE PUSH1 0x20 ADD SWAP1 DUP2 MSTORE PUSH1 0x20 ADD PUSH0 KECCAK256 SLOAD SWAP1 POP SWAP3 SWAP2 POP POP JUMP JUMPDEST PUSH1 0xB SLOAD DUP2 JUMP JUMPDEST PUSH0 CALLER SWAP1 POP SWAP1 JUMP JUMPDEST PUSH0 PUSH20 0xFFFFFFFFFFFFFFFFFFFFFFFFFFFFFFFFFFFFFFFF AND DUP4 PUSH20 0xFFFFFFFFFFFFFFFFFFFFFFFFFFFFFFFFFFFFFFFF AND SUB PUSH2 0xFAB JUMPI PUSH1 0x40 MLOAD PUSH32 0x8C379A000000000000000000000000000000000000000000000000000000000 DUP2 MSTORE PUSH1 0x4 ADD PUSH2 0xFA2 SWAP1 PUSH2 0x1FF1 JUMP JUMPDEST PUSH1 0x40 MLOAD DUP1 SWAP2 SUB SWAP1 REVERT JUMPDEST PUSH0 PUSH20 0xFFFFFFFFFFFFFFFFFFFFFFFFFFFFFFFFFFFFFFFF AND DUP3 PUSH20 0xFFFFFFFFFFFFFFFFFFFFFFFFFFFFFFFFFFFFFFFF AND SUB PUSH2 0x1019 JUMPI PUSH1 0x40 MLOAD PUSH32 0x8C379A000000000000000000000000000000000000000000000000000000000 DUP2 MSTORE PUSH1 0x4 ADD PUSH2 0x1010 SWAP1 PUSH2 0x207F JUMP JUMPDEST PUSH1 0x40 MLOAD DUP1 SWAP2 SUB SWAP1 REVERT JUMPDEST DUP1 PUSH1 0x1 PUSH0 DUP6 PUSH20 0xFFFFFFFFFFFFFFFFFFFFFFFFFFFFFFFFFFFFFFFF AND PUSH20 0xFFFFFFFFFFFFFFFFFFFFFFFFFFFFFFFFFFFFFFFF AND DUP2 MSTORE PUSH1 0x20 ADD SWAP1 DUP2 MSTORE PUSH1 0x20 ADD PUSH0 KECCAK256 PUSH0 DUP5 PUSH20 0xFFFFFFFFFFFFFFFFFFFFFFFFFFFFFFFFFFFFFFFF AND PUSH20 0xFFFFFFFFFFFFFFFFFFFFFFFFFFFFFFFFFFFFFFFF AND DUP2 MSTORE PUSH1 0x20 ADD SWAP1 DUP2 MSTORE PUSH1 0x20 ADD PUSH0 KECCAK256 DUP2 SWAP1 SSTORE POP DUP2 PUSH20 0xFFFFFFFFFFFFFFFFFFFFFFFFFFFFFFFFFFFFFFFF AND DUP4 PUSH20 0xFFFFFFFFFFFFFFFFFFFFFFFFFFFFFFFFFFFFFFFF AND PUSH32 0x8C5BE1E5EBEC7D5BD14F71427D1E84F3DD0314C0F7B2291E5B200AC8C7C3B925 DUP4 PUSH1 0x40 MLOAD PUSH2 0x10F3 SWAP2 SWAP1 PUSH2 0x15C9 JUMP JUMPDEST PUSH1 0x40 MLOAD DUP1 SWAP2 SUB SWAP1 LOG3 POP POP POP JUMP JUMPDEST PUSH0 PUSH2 0x110B DUP5 DUP5 PUSH2 0xEAE JUMP JUMPDEST SWAP1 POP PUSH32 0xFFFFFFFFFFFFFFFFFFFFFFFFFFFFFFFFFFFFFFFFFFFFFFFFFFFFFFFFFFFFFFFF DUP2 EQ PUSH2 0x1185 JUMPI DUP2 DUP2 LT ISZERO PUSH2 0x1177 JUMPI PUSH1 0x40 MLOAD PUSH32 0x8C379A000000000000000000000000000000000000000000000000000000000 DUP2 MSTORE PUSH1 0x4 ADD PUSH2 0x116E SWAP1 PUSH2 0x20E7 JUMP JUMPDEST PUSH1 0x40 MLOAD DUP1 SWAP2 SUB SWAP1 REVERT JUMPDEST PUSH2 0x1184 DUP5 DUP5 DUP5 DUP5 SUB PUSH2 0xF3D JUMP JUMPDEST JUMPDEST POP POP POP POP JUMP JUMPDEST PUSH0 PUSH20 0xFFFFFFFFFFFFFFFFFFFFFFFFFFFFFFFFFFFFFFFF AND DUP4 PUSH20 0xFFFFFFFFFFFFFFFFFFFFFFFFFFFFFFFFFFFFFFFF AND SUB PUSH2 0x11F9 JUMPI PUSH1 0x40 MLOAD PUSH32 0x8C379A000000000000000000000000000000000000000000000000000000000 DUP2 MSTORE PUSH1 0x4 ADD PUSH2 0x11F0 SWAP1 PUSH2 0x2175 JUMP JUMPDEST PUSH1 0x40 MLOAD DUP1 SWAP2 SUB SWAP1 REVERT JUMPDEST PUSH0 PUSH20 0xFFFFFFFFFFFFFFFFFFFFFFFFFFFFFFFFFFFFFFFF AND DUP3 PUSH20 0xFFFFFFFFFFFFFFFFFFFFFFFFFFFFFFFFFFFFFFFF AND SUB PUSH2 0x1267 JUMPI PUSH1 0x40 MLOAD PUSH32 0x8C379A000000000000000000000000000000000000000000000000000000000 DUP2 MSTORE PUSH1 0x4 ADD PUSH2 0x125E SWAP1 PUSH2 0x2203 JUMP JUMPDEST PUSH1 0x40 MLOAD DUP1 SWAP2 SUB SWAP1 REVERT JUMPDEST PUSH2 0x1272 DUP4 DUP4 DUP4 PUSH2 0x13F7 JUMP JUMPDEST PUSH0 DUP1 PUSH0 DUP6 PUSH20 0xFFFFFFFFFFFFFFFFFFFFFFFFFFFFFFFFFFFFFFFF AND PUSH20 0xFFFFFFFFFFFFFFFFFFFFFFFFFFFFFFFFFFFFFFFF AND DUP2 MSTORE PUSH1 0x20 ADD SWAP1 DUP2 MSTORE PUSH1 0x20 ADD PUSH0 KECCAK256 SLOAD SWAP1 POP DUP2 DUP2 LT ISZERO PUSH2 0x12F5 JUMPI PUSH1 0x40 MLOAD PUSH32 0x8C379A000000000000000000000000000000000000000000000000000000000 DUP2 MSTORE PUSH1 0x4 ADD PUSH2 0x12EC SWAP1 PUSH2 0x2291 JUMP JUMPDEST PUSH1 0x40 MLOAD DUP1 SWAP2 SUB SWAP1 REVERT JUMPDEST DUP2 DUP2 SUB PUSH0 DUP1 DUP7 PUSH20 0xFFFFFFFFFFFFFFFFFFFFFFFFFFFFFFFFFFFFFFFF AND PUSH20 0xFFFFFFFFFFFFFFFFFFFFFFFFFFFFFFFFFFFFFFFF AND DUP2 MSTORE PUSH1 0x20 ADD SWAP1 DUP2 MSTORE PUSH1 0x20 ADD PUSH0 KECCAK256 DUP2 SWAP1 SSTORE POP DUP2 PUSH0 DUP1 DUP6 PUSH20 0xFFFFFFFFFFFFFFFFFFFFFFFFFFFFFFFFFFFFFFFF AND PUSH20 0xFFFFFFFFFFFFFFFFFFFFFFFFFFFFFFFFFFFFFFFF AND DUP2 MSTORE PUSH1 0x20 ADD SWAP1 DUP2 MSTORE PUSH1 0x20 ADD PUSH0 KECCAK256 PUSH0 DUP3 DUP3 SLOAD ADD SWAP3 POP POP DUP2 SWAP1 SSTORE POP DUP3 PUSH20 0xFFFFFFFFFFFFFFFFFFFFFFFFFFFFFFFFFFFFFFFF AND DUP5 PUSH20 0xFFFFFFFFFFFFFFFFFFFFFFFFFFFFFFFFFFFFFFFF AND PUSH32 0xDDF252AD1BE2C89B69C2B068FC378DAA952BA7F163C4A11628F55A4DF523B3EF DUP5 PUSH1 0x40 MLOAD PUSH2 0x13DE SWAP2 SWAP1 PUSH2 0x15C9 JUMP JUMPDEST PUSH1 0x40 MLOAD DUP1 SWAP2 SUB SWAP1 LOG3 PUSH2 0x13F1 DUP5 DUP5 DUP5 PUSH2 0x13FC JUMP JUMPDEST POP POP POP POP JUMP JUMPDEST POP POP POP JUMP JUMPDEST POP POP POP JUMP JUMPDEST PUSH0 DUP2 MLOAD SWAP1 POP SWAP2 SWAP1 POP JUMP JUMPDEST PUSH0 DUP3 DUP3 MSTORE PUSH1 0x20 DUP3 ADD SWAP1 POP SWAP3 SWAP2 POP POP JUMP JUMPDEST PUSH0 JUMPDEST DUP4 DUP2 LT ISZERO PUSH2 0x1438 JUMPI DUP1 DUP3 ADD MLOAD DUP2 DUP5 ADD MSTORE PUSH1 0x20 DUP2 ADD SWAP1 POP PUSH2 0x141D JUMP JUMPDEST PUSH0 DUP5 DUP5 ADD MSTORE POP POP POP POP JUMP JUMPDEST PUSH0 PUSH1 0x1F NOT PUSH1 0x1F DUP4 ADD AND SWAP1 POP SWAP2 SWAP1 POP JUMP JUMPDEST PUSH0 PUSH2 0x145D DUP3 PUSH2 0x1401 JUMP JUMPDEST PUSH2 0x1467 DUP2 DUP6 PUSH2 0x140B JUMP JUMPDEST SWAP4 POP PUSH2 0x1477 DUP2 DUP6 PUSH1 0x20 DUP7 ADD PUSH2 0x141B JUMP JUMPDEST PUSH2 0x1480 DUP2 PUSH2 0x1443 JUMP JUMPDEST DUP5 ADD SWAP2 POP POP SWAP3 SWAP2 POP POP JUMP JUMPDEST PUSH0 PUSH1 0x20 DUP3 ADD SWAP1 POP DUP2 DUP2 SUB PUSH0 DUP4 ADD MSTORE PUSH2 0x14A3 DUP2 DUP5 PUSH2 0x1453 JUMP JUMPDEST SWAP1 POP SWAP3 SWAP2 POP POP JUMP JUMPDEST PUSH0 PUSH1 0x40 MLOAD SWAP1 POP SWAP1 JUMP JUMPDEST PUSH0 DUP1 REVERT JUMPDEST PUSH0 DUP1 REVERT JUMPDEST PUSH0 PUSH20 0xFFFFFFFFFFFFFFFFFFFFFFFFFFFFFFFFFFFFFFFF DUP3 AND SWAP1 POP SWAP2 SWAP1 POP JUMP JUMPDEST PUSH0 PUSH2 0x14E5 DUP3 PUSH2 0x14BC JUMP JUMPDEST SWAP1 POP SWAP2 SWAP1 POP JUMP JUMPDEST PUSH2 0x14F5 DUP2 PUSH2 0x14DB JUMP JUMPDEST DUP2 EQ PUSH2 0x14FF JUMPI PUSH0 DUP1 REVERT JUMPDEST POP JUMP JUMPDEST PUSH0 DUP2 CALLDATALOAD SWAP1 POP PUSH2 0x1510 DUP2 PUSH2 0x14EC JUMP JUMPDEST SWAP3 SWAP2 POP POP JUMP JUMPDEST PUSH0 DUP2 SWAP1 POP SWAP2 SWAP1 POP JUMP JUMPDEST PUSH2 0x1528 DUP2 PUSH2 0x1516 JUMP JUMPDEST DUP2 EQ PUSH2 0x1532 JUMPI PUSH0 DUP1 REVERT JUMPDEST POP JUMP JUMPDEST PUSH0 DUP2 CALLDATALOAD SWAP1 POP PUSH2 0x1543 DUP2 PUSH2 0x151F JUMP JUMPDEST SWAP3 SWAP2 POP POP JUMP JUMPDEST PUSH0 DUP1 PUSH1 0x40 DUP4 DUP6 SUB SLT ISZERO PUSH2 0x155F JUMPI PUSH2 0x155E PUSH2 0x14B4 JUMP JUMPDEST JUMPDEST PUSH0 PUSH2 0x156C DUP6 DUP3 DUP7 ADD PUSH2 0x1502 JUMP JUMPDEST SWAP3 POP POP PUSH1 0x20 PUSH2 0x157D DUP6 DUP3 DUP7 ADD PUSH2 0x1535 JUMP JUMPDEST SWAP2 POP POP SWAP3 POP SWAP3 SWAP1 POP JUMP JUMPDEST PUSH0 DUP2 ISZERO ISZERO SWAP1 POP SWAP2 SWAP1 POP JUMP JUMPDEST PUSH2 0x159B DUP2 PUSH2 0x1587 JUMP JUMPDEST DUP3 MSTORE POP POP JUMP JUMPDEST PUSH0 PUSH1 0x20 DUP3 ADD SWAP1 POP PUSH2 0x15B4 PUSH0 DUP4 ADD DUP5 PUSH2 0x1592 JUMP JUMPDEST SWAP3 SWAP2 POP POP JUMP JUMPDEST PUSH2 0x15C3 DUP2 PUSH2 0x1516 JUMP JUMPDEST DUP3 MSTORE POP POP JUMP JUMPDEST PUSH0 PUSH1 0x20 DUP3 ADD SWAP1 POP PUSH2 0x15DC PUSH0 DUP4 ADD DUP5 PUSH2 0x15BA JUMP JUMPDEST SWAP3 SWAP2 POP POP JUMP JUMPDEST PUSH0 DUP1 PUSH0 PUSH1 0x60 DUP5 DUP7 SUB SLT ISZERO PUSH2 0x15F9 JUMPI PUSH2 0x15F8 PUSH2 0x14B4 JUMP JUMPDEST JUMPDEST PUSH0 PUSH2 0x1606 DUP7 DUP3 DUP8 ADD PUSH2 0x1502 JUMP JUMPDEST SWAP4 POP POP PUSH1 0x20 PUSH2 0x1617 DUP7 DUP3 DUP8 ADD PUSH2 0x1502 JUMP JUMPDEST SWAP3 POP POP PUSH1 0x40 PUSH2 0x1628 DUP7 DUP3 DUP8 ADD PUSH2 0x1535 JUMP JUMPDEST SWAP2 POP POP SWAP3 POP SWAP3 POP SWAP3 JUMP JUMPDEST PUSH0 PUSH1 0xFF DUP3 AND SWAP1 POP SWAP2 SWAP1 POP JUMP JUMPDEST PUSH2 0x1647 DUP2 PUSH2 0x1632 JUMP JUMPDEST DUP3 MSTORE POP POP JUMP JUMPDEST PUSH0 PUSH1 0x20 DUP3 ADD SWAP1 POP PUSH2 0x1660 PUSH0 DUP4 ADD DUP5 PUSH2 0x163E JUMP JUMPDEST SWAP3 SWAP2 POP POP JUMP JUMPDEST PUSH0 PUSH1 0x20 DUP3 DUP5 SUB SLT ISZERO PUSH2 0x167B JUMPI PUSH2 0x167A PUSH2 0x14B4 JUMP JUMPDEST JUMPDEST PUSH0 PUSH2 0x1688 DUP5 DUP3 DUP6 ADD PUSH2 0x1535 JUMP JUMPDEST SWAP2 POP POP SWAP3 SWAP2 POP POP JUMP JUMPDEST PUSH0 DUP1 REVERT JUMPDEST PUSH32 0x4E487B7100000000000000000000000000000000000000000000000000000000 PUSH0 MSTORE PUSH1 0x41 PUSH1 0x4 MSTORE PUSH1 0x24 PUSH0 REVERT JUMPDEST PUSH2 0x16CB DUP3 PUSH2 0x1443 JUMP JUMPDEST DUP2 ADD DUP2 DUP2 LT PUSH8 0xFFFFFFFFFFFFFFFF DUP3 GT OR ISZERO PUSH2 0x16EA JUMPI PUSH2 0x16E9 PUSH2 0x1695 JUMP JUMPDEST JUMPDEST DUP1 PUSH1 0x40 MSTORE POP POP POP JUMP JUMPDEST PUSH0 PUSH2 0x16FC PUSH2 0x14AB JUMP JUMPDEST SWAP1 POP PUSH2 0x1708 DUP3 DUP3 PUSH2 0x16C2 JUMP JUMPDEST SWAP2 SWAP1 POP JUMP JUMPDEST PUSH0 PUSH8 0xFFFFFFFFFFFFFFFF DUP3 GT ISZERO PUSH2 0x1727 JUMPI PUSH2 0x1726 PUSH2 0x1695 JUMP JUMPDEST JUMPDEST PUSH1 0x20 DUP3 MUL SWAP1 POP PUSH1 0x20 DUP2 ADD SWAP1 POP SWAP2 SWAP1 POP JUMP JUMPDEST PUSH0 DUP1 REVERT JUMPDEST PUSH0 PUSH2 0x174E PUSH2 0x1749 DUP5 PUSH2 0x170D JUMP JUMPDEST PUSH2 0x16F3 JUMP JUMPDEST SWAP1 POP DUP1 DUP4 DUP3 MSTORE PUSH1 0x20 DUP3 ADD SWAP1 POP PUSH1 0x20 DUP5 MUL DUP4 ADD DUP6 DUP2 GT ISZERO PUSH2 0x1771 JUMPI PUSH2 0x1770 PUSH2 0x1738 JUMP JUMPDEST JUMPDEST DUP4 JUMPDEST DUP2 DUP2 LT ISZERO PUSH2 0x179A JUMPI DUP1 PUSH2 0x1786 DUP9 DUP3 PUSH2 0x1502 JUMP JUMPDEST DUP5 MSTORE PUSH1 0x20 DUP5 ADD SWAP4 POP POP PUSH1 0x20 DUP2 ADD SWAP1 POP PUSH2 0x1773 JUMP JUMPDEST POP POP POP SWAP4 SWAP3 POP POP POP JUMP JUMPDEST PUSH0 DUP3 PUSH1 0x1F DUP4 ADD SLT PUSH2 0x17B8 JUMPI PUSH2 0x17B7 PUSH2 0x1691 JUMP JUMPDEST JUMPDEST DUP2 CALLDATALOAD PUSH2 0x17C8 DUP5 DUP3 PUSH1 0x20 DUP7 ADD PUSH2 0x173C JUMP JUMPDEST SWAP2 POP POP SWAP3 SWAP2 POP POP JUMP JUMPDEST PUSH0 PUSH1 0x20 DUP3 DUP5 SUB SLT ISZERO PUSH2 0x17E6 JUMPI PUSH2 0x17E5 PUSH2 0x14B4 JUMP JUMPDEST JUMPDEST PUSH0 DUP3 ADD CALLDATALOAD PUSH8 0xFFFFFFFFFFFFFFFF DUP2 GT ISZERO PUSH2 0x1803 JUMPI PUSH2 0x1802 PUSH2 0x14B8 JUMP JUMPDEST JUMPDEST PUSH2 0x180F DUP5 DUP3 DUP6 ADD PUSH2 0x17A4 JUMP JUMPDEST SWAP2 POP POP SWAP3 SWAP2 POP POP JUMP JUMPDEST PUSH0 PUSH1 0x20 DUP3 DUP5 SUB SLT ISZERO PUSH2 0x182D JUMPI PUSH2 0x182C PUSH2 0x14B4 JUMP JUMPDEST JUMPDEST PUSH0 PUSH2 0x183A DUP5 DUP3 DUP6 ADD PUSH2 0x1502 JUMP JUMPDEST SWAP2 POP POP SWAP3 SWAP2 POP POP JUMP JUMPDEST PUSH2 0x184C DUP2 PUSH2 0x14DB JUMP JUMPDEST DUP3 MSTORE POP POP JUMP JUMPDEST PUSH0 PUSH1 0x20 DUP3 ADD SWAP1 POP PUSH2 0x1865 PUSH0 DUP4 ADD DUP5 PUSH2 0x1843 JUMP JUMPDEST SWAP3 SWAP2 POP POP JUMP JUMPDEST PUSH0 DUP1 PUSH1 0x40 DUP4 DUP6 SUB SLT ISZERO PUSH2 0x1881 JUMPI PUSH2 0x1880 PUSH2 0x14B4 JUMP JUMPDEST JUMPDEST PUSH0 PUSH2 0x188E DUP6 DUP3 DUP7 ADD PUSH2 0x1502 JUMP JUMPDEST SWAP3 POP POP PUSH1 0x20 PUSH2 0x189F DUP6 DUP3 DUP7 ADD PUSH2 0x1502 JUMP JUMPDEST SWAP2 POP POP SWAP3 POP SWAP3 SWAP1 POP JUMP JUMPDEST PUSH32 0x4E487B7100000000000000000000000000000000000000000000000000000000 PUSH0 MSTORE PUSH1 0x22 PUSH1 0x4 MSTORE PUSH1 0x24 PUSH0 REVERT JUMPDEST PUSH0 PUSH1 0x2 DUP3 DIV SWAP1 POP PUSH1 0x1 DUP3 AND DUP1 PUSH2 0x18ED JUMPI PUSH1 0x7F DUP3 AND SWAP2 POP JUMPDEST PUSH1 0x20 DUP3 LT DUP2 SUB PUSH2 0x1900 JUMPI PUSH2 0x18FF PUSH2 0x18A9 JUMP JUMPDEST JUMPDEST POP SWAP2 SWAP1 POP JUMP JUMPDEST PUSH32 0xD098D181D0BFD0BED0BBD18CD0B7D0BED0B2D0B0D182D18C20D0BCD0BED0B6D0 PUSH0 DUP3 ADD MSTORE PUSH32 0xB5D18220D182D0BED0BBD18CD0BAD0BE20D0B2D0BBD0B0D0B4D0B5D0BBD0B5D1 PUSH1 0x20 DUP3 ADD MSTORE PUSH32 0x8600000000000000000000000000000000000000000000000000000000000000 PUSH1 0x40 DUP3 ADD MSTORE POP JUMP JUMPDEST PUSH0 PUSH2 0x1986 PUSH1 0x41 DUP4 PUSH2 0x140B JUMP JUMPDEST SWAP2 POP PUSH2 0x1991 DUP3 PUSH2 0x1906 JUMP JUMPDEST PUSH1 0x60 DUP3 ADD SWAP1 POP SWAP2 SWAP1 POP JUMP JUMPDEST PUSH0 PUSH1 0x20 DUP3 ADD SWAP1 POP DUP2 DUP2 SUB PUSH0 DUP4 ADD MSTORE PUSH2 0x19B3 DUP2 PUSH2 0x197A JUMP JUMPDEST SWAP1 POP SWAP2 SWAP1 POP JUMP JUMPDEST PUSH32 0xD09FD183D0B1D0BBD0B8D187D0BDD18BD0B520D0BFD180D0BED0B4D0B0D0B6D0 PUSH0 DUP3 ADD MSTORE PUSH32 0xB820D0B5D189D19120D0BDD0B0D187D0B0D0BBD0B8D181D18C00000000000000 PUSH1 0x20 DUP3 ADD MSTORE POP JUMP JUMPDEST PUSH0 PUSH2 0x1A14 PUSH1 0x39 DUP4 PUSH2 0x140B JUMP JUMPDEST SWAP2 POP PUSH2 0x1A1F DUP3 PUSH2 0x19BA JUMP JUMPDEST PUSH1 0x40 DUP3 ADD SWAP1 POP SWAP2 SWAP1 POP JUMP JUMPDEST PUSH0 PUSH1 0x20 DUP3 ADD SWAP1 POP DUP2 DUP2 SUB PUSH0 DUP4 ADD MSTORE PUSH2 0x1A41 DUP2 PUSH2 0x1A08 JUMP JUMPDEST SWAP1 POP SWAP2 SWAP1 POP JUMP JUMPDEST PUSH32 0x4E487B7100000000000000000000000000000000000000000000000000000000 PUSH0 MSTORE PUSH1 0x11 PUSH1 0x4 MSTORE PUSH1 0x24 PUSH0 REVERT JUMPDEST PUSH0 PUSH2 0x1A7F DUP3 PUSH2 0x1516 JUMP JUMPDEST SWAP2 POP PUSH2 0x1A8A DUP4 PUSH2 0x1516 JUMP JUMPDEST SWAP3 POP DUP3 DUP3 ADD SWAP1 POP DUP1 DUP3 GT ISZERO PUSH2 0x1AA2 JUMPI PUSH2 0x1AA1 PUSH2 0x1A48 JUMP JUMPDEST JUMPDEST SWAP3 SWAP2 POP POP JUMP JUMPDEST PUSH32 0xD09FD183D0B1D0BBD0B8D187D0BDD0B0D18F20D0BFD180D0BED0B4D0B0D0B6D0 PUSH0 DUP3 ADD MSTORE PUSH32 0xB020D0B5D189D19120D0BDD0B020D0BDD0B0D187D0B0D0BBD0B0D181D18C0000 PUSH1 0x20 DUP3 ADD MSTORE POP JUMP JUMPDEST PUSH0 PUSH2 0x1B02 PUSH1 0x3E DUP4 PUSH2 0x140B JUMP JUMPDEST SWAP2 POP PUSH2 0x1B0D DUP3 PUSH2 0x1AA8 JUMP JUMPDEST PUSH1 0x40 DUP3 ADD SWAP1 POP SWAP2 SWAP1 POP JUMP JUMPDEST PUSH0 PUSH1 0x20 DUP3 ADD SWAP1 POP DUP2 DUP2 SUB PUSH0 DUP4 ADD MSTORE PUSH2 0x1B2F DUP2 PUSH2 0x1AF6 JUMP JUMPDEST SWAP1 POP SWAP2 SWAP1 POP JUMP JUMPDEST PUSH32 0x4D6178207075726368617365206C696D69742065786365656465640000000000 PUSH0 DUP3 ADD MSTORE POP JUMP JUMPDEST PUSH0 PUSH2 0x1B6A PUSH1 0x1B DUP4 PUSH2 0x140B JUMP JUMPDEST SWAP2 POP PUSH2 0x1B75 DUP3 PUSH2 0x1B36 JUMP JUMPDEST PUSH1 0x20 DUP3 ADD SWAP1 POP SWAP2 SWAP1 POP JUMP JUMPDEST PUSH0 PUSH1 0x20 DUP3 ADD SWAP1 POP DUP2 DUP2 SUB PUSH0 DUP4 ADD MSTORE PUSH2 0x1B97 DUP2 PUSH2 0x1B5E JUMP JUMPDEST SWAP1 POP SWAP2 SWAP1 POP JUMP JUMPDEST PUSH0 PUSH2 0x1BA8 DUP3 PUSH2 0x1516 JUMP JUMPDEST SWAP2 POP PUSH2 0x1BB3 DUP4 PUSH2 0x1516 JUMP JUMPDEST SWAP3 POP DUP3 DUP3 MUL PUSH2 0x1BC1 DUP2 PUSH2 0x1516 JUMP JUMPDEST SWAP2 POP DUP3 DUP3 DIV DUP5 EQ DUP4 ISZERO OR PUSH2 0x1BD8 JUMPI PUSH2 0x1BD7 PUSH2 0x1A48 JUMP JUMPDEST JUMPDEST POP SWAP3 SWAP2 POP POP JUMP JUMPDEST PUSH32 0xD09DD0B5D0B4D0BED181D182D0B0D182D0BED187D0BDD0BE20D181D180D0B5D0 PUSH0 DUP3 ADD MSTORE PUSH32 0xB4D181D182D0B200000000000000000000000000000000000000000000000000 PUSH1 0x20 DUP3 ADD MSTORE POP JUMP JUMPDEST PUSH0 PUSH2 0x1C39 PUSH1 0x27 DUP4 PUSH2 0x140B JUMP JUMPDEST SWAP2 POP PUSH2 0x1C44 DUP3 PUSH2 0x1BDF JUMP JUMPDEST PUSH1 0x40 DUP3 ADD SWAP1 POP SWAP2 SWAP1 POP JUMP JUMPDEST PUSH0 PUSH1 0x20 DUP3 ADD SWAP1 POP DUP2 DUP2 SUB PUSH0 DUP4 ADD MSTORE PUSH2 0x1C66 DUP2 PUSH2 0x1C2D JUMP JUMPDEST SWAP1 POP SWAP2 SWAP1 POP JUMP JUMPDEST PUSH32 0xD092D0B0D18120D0BDD0B5D18220D0B220D0B2D0B0D0B9D18220D0BBD0B8D181 PUSH0 DUP3 ADD MSTORE PUSH32 0xD182D0B500000000000000000000000000000000000000000000000000000000 PUSH1 0x20 DUP3 ADD MSTORE POP JUMP JUMPDEST PUSH0 PUSH2 0x1CC7 PUSH1 0x24 DUP4 PUSH2 0x140B JUMP JUMPDEST SWAP2 POP PUSH2 0x1CD2 DUP3 PUSH2 0x1C6D JUMP JUMPDEST PUSH1 0x40 DUP3 ADD SWAP1 POP SWAP2 SWAP1 POP JUMP JUMPDEST PUSH0 PUSH1 0x20 DUP3 ADD SWAP1 POP DUP2 DUP2 SUB PUSH0 DUP4 ADD MSTORE PUSH2 0x1CF4 DUP2 PUSH2 0x1CBB JUMP JUMPDEST SWAP1 POP SWAP2 SWAP1 POP JUMP JUMPDEST PUSH32 0xD09FD180D0B8D0B2D0B0D182D0BDD0B0D18F20D0BFD180D0BED0B4D0B0D0B6D0 PUSH0 DUP3 ADD MSTORE PUSH32 0xB020D0B5D189D19120D0BDD0B520D0BDD0B0D187D0B0D0BBD0B0D181D18C0000 PUSH1 0x20 DUP3 ADD MSTORE POP JUMP JUMPDEST PUSH0 PUSH2 0x1D55 PUSH1 0x3E DUP4 PUSH2 0x140B JUMP JUMPDEST SWAP2 POP PUSH2 0x1D60 DUP3 PUSH2 0x1CFB JUMP JUMPDEST PUSH1 0x40 DUP3 ADD SWAP1 POP SWAP2 SWAP1 POP JUMP JUMPDEST PUSH0 PUSH1 0x20 DUP3 ADD SWAP1 POP DUP2 DUP2 SUB PUSH0 DUP4 ADD MSTORE PUSH2 0x1D82 DUP2 PUSH2 0x1D49 JUMP JUMPDEST SWAP1 POP SWAP2 SWAP1 POP JUMP JUMPDEST PUSH32 0xD09BD0B8D0BCD0B8D18220D0BFD0BED0BAD183D0BFD0BED0BA20D0BFD180D0B5 PUSH0 DUP3 ADD MSTORE PUSH32 0xD0B2D18BD188D0B5D0BD00000000000000000000000000000000000000000000 PUSH1 0x20 DUP3 ADD MSTORE POP JUMP JUMPDEST PUSH0 PUSH2 0x1DE3 PUSH1 0x2A DUP4 PUSH2 0x140B JUMP JUMPDEST SWAP2 POP PUSH2 0x1DEE DUP3 PUSH2 0x1D89 JUMP JUMPDEST PUSH1 0x40 DUP3 ADD SWAP1 POP SWAP2 SWAP1 POP JUMP JUMPDEST PUSH0 PUSH1 0x20 DUP3 ADD SWAP1 POP DUP2 DUP2 SUB PUSH0 DUP4 ADD MSTORE PUSH2 0x1E10 DUP2 PUSH2 0x1DD7 JUMP JUMPDEST SWAP1 POP SWAP2 SWAP1 POP JUMP JUMPDEST PUSH32 0x496E73756666696369656E742066756E64730000000000000000000000000000 PUSH0 DUP3 ADD MSTORE POP JUMP JUMPDEST PUSH0 PUSH2 0x1E4B PUSH1 0x12 DUP4 PUSH2 0x140B JUMP JUMPDEST SWAP2 POP PUSH2 0x1E56 DUP3 PUSH2 0x1E17 JUMP JUMPDEST PUSH1 0x20 DUP3 ADD SWAP1 POP SWAP2 SWAP1 POP JUMP JUMPDEST PUSH0 PUSH1 0x20 DUP3 ADD SWAP1 POP DUP2 DUP2 SUB PUSH0 DUP4 ADD MSTORE PUSH2 0x1E78 DUP2 PUSH2 0x1E3F JUMP JUMPDEST SWAP1 POP SWAP2 SWAP1 POP JUMP JUMPDEST PUSH32 0x4E487B7100000000000000000000000000000000000000000000000000000000 PUSH0 MSTORE PUSH1 0x32 PUSH1 0x4 MSTORE PUSH1 0x24 PUSH0 REVERT JUMPDEST PUSH0 PUSH2 0x1EB6 DUP3 PUSH2 0x1516 JUMP JUMPDEST SWAP2 POP PUSH32 0xFFFFFFFFFFFFFFFFFFFFFFFFFFFFFFFFFFFFFFFFFFFFFFFFFFFFFFFFFFFFFFFF DUP3 SUB PUSH2 0x1EE8 JUMPI PUSH2 0x1EE7 PUSH2 0x1A48 JUMP JUMPDEST JUMPDEST PUSH1 0x1 DUP3 ADD SWAP1 POP SWAP2 SWAP1 POP JUMP JUMPDEST PUSH32 0x45524332303A2064656372656173656420616C6C6F77616E63652062656C6F77 PUSH0 DUP3 ADD MSTORE PUSH32 0x207A65726F000000000000000000000000000000000000000000000000000000 PUSH1 0x20 DUP3 ADD MSTORE POP JUMP JUMPDEST PUSH0 PUSH2 0x1F4D PUSH1 0x25 DUP4 PUSH2 0x140B JUMP JUMPDEST SWAP2 POP PUSH2 0x1F58 DUP3 PUSH2 0x1EF3 JUMP JUMPDEST PUSH1 0x40 DUP3 ADD SWAP1 POP SWAP2 SWAP1 POP JUMP JUMPDEST PUSH0 PUSH1 0x20 DUP3 ADD SWAP1 POP DUP2 DUP2 SUB PUSH0 DUP4 ADD MSTORE PUSH2 0x1F7A DUP2 PUSH2 0x1F41 JUMP JUMPDEST SWAP1 POP SWAP2 SWAP1 POP JUMP JUMPDEST PUSH32 0x45524332303A20617070726F76652066726F6D20746865207A65726F20616464 PUSH0 DUP3 ADD MSTORE PUSH32 0x7265737300000000000000000000000000000000000000000000000000000000 PUSH1 0x20 DUP3 ADD MSTORE POP JUMP JUMPDEST PUSH0 PUSH2 0x1FDB PUSH1 0x24 DUP4 PUSH2 0x140B JUMP JUMPDEST SWAP2 POP PUSH2 0x1FE6 DUP3 PUSH2 0x1F81 JUMP JUMPDEST PUSH1 0x40 DUP3 ADD SWAP1 POP SWAP2 SWAP1 POP JUMP JUMPDEST PUSH0 PUSH1 0x20 DUP3 ADD SWAP1 POP DUP2 DUP2 SUB PUSH0 DUP4 ADD MSTORE PUSH2 0x2008 DUP2 PUSH2 0x1FCF JUMP JUMPDEST SWAP1 POP SWAP2 SWAP1 POP JUMP JUMPDEST PUSH32 0x45524332303A20617070726F766520746F20746865207A65726F206164647265 PUSH0 DUP3 ADD MSTORE PUSH32 0x7373000000000000000000000000000000000000000000000000000000000000 PUSH1 0x20 DUP3 ADD MSTORE POP JUMP JUMPDEST PUSH0 PUSH2 0x2069 PUSH1 0x22 DUP4 PUSH2 0x140B JUMP JUMPDEST SWAP2 POP PUSH2 0x2074 DUP3 PUSH2 0x200F JUMP JUMPDEST PUSH1 0x40 DUP3 ADD SWAP1 POP SWAP2 SWAP1 POP JUMP JUMPDEST PUSH0 PUSH1 0x20 DUP3 ADD SWAP1 POP DUP2 DUP2 SUB PUSH0 DUP4 ADD MSTORE PUSH2 0x2096 DUP2 PUSH2 0x205D JUMP JUMPDEST SWAP1 POP SWAP2 SWAP1 POP JUMP JUMPDEST PUSH32 0x45524332303A20696E73756666696369656E7420616C6C6F77616E6365000000 PUSH0 DUP3 ADD MSTORE POP JUMP JUMPDEST PUSH0 PUSH2 0x20D1 PUSH1 0x1D DUP4 PUSH2 0x140B JUMP JUMPDEST SWAP2 POP PUSH2 0x20DC DUP3 PUSH2 0x209D JUMP JUMPDEST PUSH1 0x20 DUP3 ADD SWAP1 POP SWAP2 SWAP1 POP JUMP JUMPDEST PUSH0 PUSH1 0x20 DUP3 ADD SWAP1 POP DUP2 DUP2 SUB PUSH0 DUP4 ADD MSTORE PUSH2 0x20FE DUP2 PUSH2 0x20C5 JUMP JUMPDEST SWAP1 POP SWAP2 SWAP1 POP JUMP JUMPDEST PUSH32 0x45524332303A207472616E736665722066726F6D20746865207A65726F206164 PUSH0 DUP3 ADD MSTORE PUSH32 0x6472657373000000000000000000000000000000000000000000000000000000 PUSH1 0x20 DUP3 ADD MSTORE POP JUMP JUMPDEST PUSH0 PUSH2 0x215F PUSH1 0x25 DUP4 PUSH2 0x140B JUMP JUMPDEST SWAP2 POP PUSH2 0x216A DUP3 PUSH2 0x2105 JUMP JUMPDEST PUSH1 0x40 DUP3 ADD SWAP1 POP SWAP2 SWAP1 POP JUMP JUMPDEST PUSH0 PUSH1 0x20 DUP3 ADD SWAP1 POP DUP2 DUP2 SUB PUSH0 DUP4 ADD MSTORE PUSH2 0x218C DUP2 PUSH2 0x2153 JUMP JUMPDEST SWAP1 POP SWAP2 SWAP1 POP JUMP JUMPDEST PUSH32 0x45524332303A207472616E7366657220746F20746865207A65726F2061646472 PUSH0 DUP3 ADD MSTORE PUSH32 0x6573730000000000000000000000000000000000000000000000000000000000 PUSH1 0x20 DUP3 ADD MSTORE POP JUMP JUMPDEST PUSH0 PUSH2 0x21ED PUSH1 0x23 DUP4 PUSH2 0x140B JUMP JUMPDEST SWAP2 POP PUSH2 0x21F8 DUP3 PUSH2 0x2193 JUMP JUMPDEST PUSH1 0x40 DUP3 ADD SWAP1 POP SWAP2 SWAP1 POP JUMP JUMPDEST PUSH0 PUSH1 0x20 DUP3 ADD SWAP1 POP DUP2 DUP2 SUB PUSH0 DUP4 ADD MSTORE PUSH2 0x221A DUP2 PUSH2 0x21E1 JUMP JUMPDEST SWAP1 POP SWAP2 SWAP1 POP JUMP JUMPDEST PUSH32 0x45524332303A207472616E7366657220616D6F756E7420657863656564732062 PUSH0 DUP3 ADD MSTORE PUSH32 0x616C616E63650000000000000000000000000000000000000000000000000000 PUSH1 0x20 DUP3 ADD MSTORE POP JUMP JUMPDEST PUSH0 PUSH2 0x227B PUSH1 0x26 DUP4 PUSH2 0x140B JUMP JUMPDEST SWAP2 POP PUSH2 0x2286 DUP3 PUSH2 0x2221 JUMP JUMPDEST PUSH1 0x40 DUP3 ADD SWAP1 POP SWAP2 SWAP1 POP JUMP JUMPDEST PUSH0 PUSH1 0x20 DUP3 ADD SWAP1 POP DUP2 DUP2 SUB PUSH0 DUP4 ADD MSTORE PUSH2 0x22A8 DUP2 PUSH2 0x226F JUMP JUMPDEST SWAP1 POP SWAP2 SWAP1 POP JUMP INVALID LOG2 PUSH5 0x6970667358 0x22 SLT KECCAK256 BYTE 0xC9 0xCE LOG4 SWAP13 CALLCODE 0xE7 0xD9 0x5D SUB CALLDATALOAD LT 0xF7 0xEA PUSH20 0xB716DE5A37F9183E5D544140E2388FA29A64736F PUSH13 0x63430008150033000000000000 "
				},
				"gasEstimates": {
					"creation": {
						"codeDepositCost": "1786600",
						"executionCost": "infinite",
						"totalCost": "infinite"
					},
					"external": {
						"addToWhitelist(address[])": "infinite",
						"allowance(address,address)": "infinite",
						"approve(address,uint256)": "infinite",
						"balanceOf(address)": "2874",
						"buyPrivateTokens(uint256)": "infinite",
						"buyPublicTokens(uint256)": "infinite",
						"decimals()": "383",
						"decreaseAllowance(address,uint256)": "infinite",
						"increaseAllowance(address,uint256)": "infinite",
						"name()": "infinite",
						"owner()": "2619",
						"privateSaleEndTime()": "2557",
						"publicSaleEndTime()": "2537",
						"removeFromWhitelist(address[])": "infinite",
						"startPublicSale()": "4807",
						"startTime()": "2492",
						"symbol()": "infinite",
						"totalSupply()": "2522",
						"transfer(address,uint256)": "infinite",
						"transferFrom(address,address,uint256)": "infinite",
						"transferPublicTokens(address,uint256)": "infinite",
						"whitelist(address)": "2877"
					}
				},
				"methodIdentifiers": {
					"addToWhitelist(address[])": "7f649783",
					"allowance(address,address)": "dd62ed3e",
					"approve(address,uint256)": "095ea7b3",
					"balanceOf(address)": "70a08231",
					"buyPrivateTokens(uint256)": "4822b5d6",
					"buyPublicTokens(uint256)": "3b6b4a42",
					"decimals()": "313ce567",
					"decreaseAllowance(address,uint256)": "a457c2d7",
					"increaseAllowance(address,uint256)": "39509351",
					"name()": "06fdde03",
					"owner()": "8da5cb5b",
					"privateSaleEndTime()": "e77ff818",
					"publicSaleEndTime()": "1e4d185f",
					"removeFromWhitelist(address[])": "548db174",
					"startPublicSale()": "0c1c972a",
					"startTime()": "78e97925",
					"symbol()": "95d89b41",
					"totalSupply()": "18160ddd",
					"transfer(address,uint256)": "a9059cbb",
					"transferFrom(address,address,uint256)": "23b872dd",
					"transferPublicTokens(address,uint256)": "426c4e63",
					"whitelist(address)": "9b19251a"
				}
			},
			"storageLayout": {
				"storage": [
					{
						"astId": 15,
						"contract": "contracts/block.sol:CryptoMonster",
						"label": "_balances",
						"offset": 0,
						"slot": "0",
						"type": "t_mapping(t_address,t_uint256)"
					},
					{
						"astId": 21,
						"contract": "contracts/block.sol:CryptoMonster",
						"label": "_allowances",
						"offset": 0,
						"slot": "1",
						"type": "t_mapping(t_address,t_mapping(t_address,t_uint256))"
					},
					{
						"astId": 23,
						"contract": "contracts/block.sol:CryptoMonster",
						"label": "_totalSupply",
						"offset": 0,
						"slot": "2",
						"type": "t_uint256"
					},
					{
						"astId": 25,
						"contract": "contracts/block.sol:CryptoMonster",
						"label": "_name",
						"offset": 0,
						"slot": "3",
						"type": "t_string_storage"
					},
					{
						"astId": 27,
						"contract": "contracts/block.sol:CryptoMonster",
						"label": "_symbol",
						"offset": 0,
						"slot": "4",
						"type": "t_string_storage"
					},
					{
						"astId": 720,
						"contract": "contracts/block.sol:CryptoMonster",
						"label": "owner",
						"offset": 0,
						"slot": "5",
						"type": "t_address"
					},
					{
						"astId": 727,
						"contract": "contracts/block.sol:CryptoMonster",
						"label": "totalSupp",
						"offset": 0,
						"slot": "6",
						"type": "t_uint256"
					},
					{
						"astId": 734,
						"contract": "contracts/block.sol:CryptoMonster",
						"label": "SEED_ALLOCATION",
						"offset": 0,
						"slot": "7",
						"type": "t_uint256"
					},
					{
						"astId": 741,
						"contract": "contracts/block.sol:CryptoMonster",
						"label": "PRIVATE_ALLOCATION",
						"offset": 0,
						"slot": "8",
						"type": "t_uint256"
					},
					{
						"astId": 748,
						"contract": "contracts/block.sol:CryptoMonster",
						"label": "PUBLIC_ALLOCATION",
						"offset": 0,
						"slot": "9",
						"type": "t_uint256"
					},
					{
						"astId": 750,
						"contract": "contracts/block.sol:CryptoMonster",
						"label": "startTime",
						"offset": 0,
						"slot": "10",
						"type": "t_uint256"
					},
					{
						"astId": 752,
						"contract": "contracts/block.sol:CryptoMonster",
						"label": "privateSaleEndTime",
						"offset": 0,
						"slot": "11",
						"type": "t_uint256"
					},
					{
						"astId": 754,
						"contract": "contracts/block.sol:CryptoMonster",
						"label": "publicSaleEndTime",
						"offset": 0,
						"slot": "12",
						"type": "t_uint256"
					},
					{
						"astId": 758,
						"contract": "contracts/block.sol:CryptoMonster",
						"label": "whitelist",
						"offset": 0,
						"slot": "13",
						"type": "t_mapping(t_address,t_bool)"
					}
				],
				"types": {
					"t_address": {
						"encoding": "inplace",
						"label": "address",
						"numberOfBytes": "20"
					},
					"t_bool": {
						"encoding": "inplace",
						"label": "bool",
						"numberOfBytes": "1"
					},
					"t_mapping(t_address,t_bool)": {
						"encoding": "mapping",
						"key": "t_address",
						"label": "mapping(address => bool)",
						"numberOfBytes": "32",
						"value": "t_bool"
					},
					"t_mapping(t_address,t_mapping(t_address,t_uint256))": {
						"encoding": "mapping",
						"key": "t_address",
						"label": "mapping(address => mapping(address => uint256))",
						"numberOfBytes": "32",
						"value": "t_mapping(t_address,t_uint256)"
					},
					"t_mapping(t_address,t_uint256)": {
						"encoding": "mapping",
						"key": "t_address",
						"label": "mapping(address => uint256)",
						"numberOfBytes": "32",
						"value": "t_uint256"
					},
					"t_string_storage": {
						"encoding": "bytes",
						"label": "string",
						"numberOfBytes": "32"
					},
					"t_uint256": {
						"encoding": "inplace",
						"label": "uint256",
						"numberOfBytes": "32"
					}
				}
			},
			"userdoc": {
				"kind": "user",
				"methods": {},
				"version": 1
			}
		}
	}
}