{
	"data": {
		"bytecode": {
			"linkReferences": {},
			"object": "6080604052603c600155348015610014575f80fd5b50425f81905550610262806100285f395ff3fe608060405234801561000f575f80fd5b506004361061003f575f3560e01c8063a6f2ae3a14610043578063be26ed7f14610061578063e6fd48bc1461007f575b5f80fd5b61004b61009d565b6040516100589190610123565b60405180910390f35b6100696100bd565b6040516100769190610123565b60405180910390f35b6100876100cc565b6040516100949190610123565b60405180910390f35b5f805f905060026100ac6100bd565b106100b657600190505b8091505090565b5f6100c7426100d1565b905090565b5f5481565b5f80548210156100df575f80fd5b600180545f54846100f09190610169565b6100fa91906101c9565b61010491906101f9565b9050919050565b5f819050919050565b61011d8161010b565b82525050565b5f6020820190506101365f830184610114565b92915050565b7f4e487b71000000000000000000000000000000000000000000000000000000005f52601160045260245ffd5b5f6101738261010b565b915061017e8361010b565b92508282039050818111156101965761019561013c565b5b92915050565b7f4e487b71000000000000000000000000000000000000000000000000000000005f52601260045260245ffd5b5f6101d38261010b565b91506101de8361010b565b9250826101ee576101ed61019c565b5b828204905092915050565b5f6102038261010b565b915061020e8361010b565b92508282019050808211156102265761022561013c565b5b9291505056fea2646970667358221220fff110abaa4fec18163c38a2c282c99226017d4e2b72007922caf8e36504cd1c64736f6c63430008150033",
			"opcodes": "PUSH1 0x80 PUSH1 0x40 MSTORE PUSH1 0x3C PUSH1 0x1 SSTORE CALLVALUE DUP1 ISZERO PUSH2 0x14 JUMPI PUSH0 DUP1 REVERT JUMPDEST POP TIMESTAMP PUSH0 DUP2 SWAP1 SSTORE POP PUSH2 0x262 DUP1 PUSH2 0x28 PUSH0 CODECOPY PUSH0 RETURN INVALID PUSH1 0x80 PUSH1 0x40 MSTORE CALLVALUE DUP1 ISZERO PUSH2 0xF JUMPI PUSH0 DUP1 REVERT JUMPDEST POP PUSH1 0x4 CALLDATASIZE LT PUSH2 0x3F JUMPI PUSH0 CALLDATALOAD PUSH1 0xE0 SHR DUP1 PUSH4 0xA6F2AE3A EQ PUSH2 0x43 JUMPI DUP1 PUSH4 0xBE26ED7F EQ PUSH2 0x61 JUMPI DUP1 PUSH4 0xE6FD48BC EQ PUSH2 0x7F JUMPI JUMPDEST PUSH0 DUP1 REVERT JUMPDEST PUSH2 0x4B PUSH2 0x9D JUMP JUMPDEST PUSH1 0x40 MLOAD PUSH2 0x58 SWAP2 SWAP1 PUSH2 0x123 JUMP JUMPDEST PUSH1 0x40 MLOAD DUP1 SWAP2 SUB SWAP1 RETURN JUMPDEST PUSH2 0x69 PUSH2 0xBD JUMP JUMPDEST PUSH1 0x40 MLOAD PUSH2 0x76 SWAP2 SWAP1 PUSH2 0x123 JUMP JUMPDEST PUSH1 0x40 MLOAD DUP1 SWAP2 SUB SWAP1 RETURN JUMPDEST PUSH2 0x87 PUSH2 0xCC JUMP JUMPDEST PUSH1 0x40 MLOAD PUSH2 0x94 SWAP2 SWAP1 PUSH2 0x123 JUMP JUMPDEST PUSH1 0x40 MLOAD DUP1 SWAP2 SUB SWAP1 RETURN JUMPDEST PUSH0 DUP1 PUSH0 SWAP1 POP PUSH1 0x2 PUSH2 0xAC PUSH2 0xBD JUMP JUMPDEST LT PUSH2 0xB6 JUMPI PUSH1 0x1 SWAP1 POP JUMPDEST DUP1 SWAP2 POP POP SWAP1 JUMP JUMPDEST PUSH0 PUSH2 0xC7 TIMESTAMP PUSH2 0xD1 JUMP JUMPDEST SWAP1 POP SWAP1 JUMP JUMPDEST PUSH0 SLOAD DUP2 JUMP JUMPDEST PUSH0 DUP1 SLOAD DUP3 LT ISZERO PUSH2 0xDF JUMPI PUSH0 DUP1 REVERT JUMPDEST PUSH1 0x1 DUP1 SLOAD PUSH0 SLOAD DUP5 PUSH2 0xF0 SWAP2 SWAP1 PUSH2 0x169 JUMP JUMPDEST PUSH2 0xFA SWAP2 SWAP1 PUSH2 0x1C9 JUMP JUMPDEST PUSH2 0x104 SWAP2 SWAP1 PUSH2 0x1F9 JUMP JUMPDEST SWAP1 POP SWAP2 SWAP1 POP JUMP JUMPDEST PUSH0 DUP2 SWAP1 POP SWAP2 SWAP1 POP JUMP JUMPDEST PUSH2 0x11D DUP2 PUSH2 0x10B JUMP JUMPDEST DUP3 MSTORE POP POP JUMP JUMPDEST PUSH0 PUSH1 0x20 DUP3 ADD SWAP1 POP PUSH2 0x136 PUSH0 DUP4 ADD DUP5 PUSH2 0x114 JUMP JUMPDEST SWAP3 SWAP2 POP POP JUMP JUMPDEST PUSH32 0x4E487B7100000000000000000000000000000000000000000000000000000000 PUSH0 MSTORE PUSH1 0x11 PUSH1 0x4 MSTORE PUSH1 0x24 PUSH0 REVERT JUMPDEST PUSH0 PUSH2 0x173 DUP3 PUSH2 0x10B JUMP JUMPDEST SWAP2 POP PUSH2 0x17E DUP4 PUSH2 0x10B JUMP JUMPDEST SWAP3 POP DUP3 DUP3 SUB SWAP1 POP DUP2 DUP2 GT ISZERO PUSH2 0x196 JUMPI PUSH2 0x195 PUSH2 0x13C JUMP JUMPDEST JUMPDEST SWAP3 SWAP2 POP POP JUMP JUMPDEST PUSH32 0x4E487B7100000000000000000000000000000000000000000000000000000000 PUSH0 MSTORE PUSH1 0x12 PUSH1 0x4 MSTORE PUSH1 0x24 PUSH0 REVERT JUMPDEST PUSH0 PUSH2 0x1D3 DUP3 PUSH2 0x10B JUMP JUMPDEST SWAP2 POP PUSH2 0x1DE DUP4 PUSH2 0x10B JUMP JUMPDEST SWAP3 POP DUP3 PUSH2 0x1EE JUMPI PUSH2 0x1ED PUSH2 0x19C JUMP JUMPDEST JUMPDEST DUP3 DUP3 DIV SWAP1 POP SWAP3 SWAP2 POP POP JUMP JUMPDEST PUSH0 PUSH2 0x203 DUP3 PUSH2 0x10B JUMP JUMPDEST SWAP2 POP PUSH2 0x20E DUP4 PUSH2 0x10B JUMP JUMPDEST SWAP3 POP DUP3 DUP3 ADD SWAP1 POP DUP1 DUP3 GT ISZERO PUSH2 0x226 JUMPI PUSH2 0x225 PUSH2 0x13C JUMP JUMPDEST JUMPDEST SWAP3 SWAP2 POP POP JUMP INVALID LOG2 PUSH5 0x6970667358 0x22 SLT KECCAK256 SELFDESTRUCT CALL LT 0xAB 0xAA 0x4F 0xEC XOR AND EXTCODECOPY CODESIZE LOG2 0xC2 DUP3 0xC9 SWAP3 0x26 ADD PUSH30 0x4E2B72007922CAF8E36504CD1C64736F6C63430008150033000000000000 "
		},
		"gasEstimates": {
			"creation": {
				"codeDepositCost": "122000",
				"executionCost": "44387",
				"totalCost": "166387"
			},
			"external": {
				"buy()": "infinite",
				"getCurrentCycle()": "infinite",
				"startTimestamp()": "2446"
			},
			"internal": {
				"_getCycle(uint256)": "infinite"
			}
		},
		"methodIdentifiers": {
			"buy()": "a6f2ae3a",
			"getCurrentCycle()": "be26ed7f",
			"startTimestamp()": "e6fd48bc"
		}
	},
	"abi": [
		{
			"inputs": [],
			"stateMutability": "nonpayable",
			"type": "constructor"
		},
		{
			"inputs": [],
			"name": "buy",
			"outputs": [
				{
					"internalType": "uint256",
					"name": "",
					"type": "uint256"
				}
			],
			"stateMutability": "view",
			"type": "function"
		},
		{
			"inputs": [],
			"name": "getCurrentCycle",
			"outputs": [
				{
					"internalType": "uint256",
					"name": "",
					"type": "uint256"
				}
			],
			"stateMutability": "view",
			"type": "function"
		},
		{
			"inputs": [],
			"name": "startTimestamp",
			"outputs": [
				{
					"internalType": "uint256",
					"name": "",
					"type": "uint256"
				}
			],
			"stateMutability": "view",
			"type": "function"
		}
	]
}