{
	"data": {
		"bytecode": {
			"linkReferences": {},
			"object": "6080604052620000146200089660201b60201c565b600a62000022919062000e26565b6298968062000032919062000e76565b6005556064600a60055462000048919062000e76565b62000054919062000eed565b6006556064601e6005546200006a919062000e76565b62000076919062000eed565b6007556064603c6005546200008c919062000e76565b62000098919062000eed565b6008555f600c55348015620000ab575f80fd5b506040518060400160405280600d81526020017f43727970746f4d6f6e73746572000000000000000000000000000000000000008152506040518060400160405280600481526020017f434d4f4e0000000000000000000000000000000000000000000000000000000081525081600390816200012991906200117f565b5080600490816200013b91906200117f565b50505033600e5f6101000a81548173ffffffffffffffffffffffffffffffffffffffff021916908373ffffffffffffffffffffffffffffffffffffffff16021790555060405180608001604052806040518060400160405280600581526020017f6f776e657200000000000000000000000000000000000000000000000000000081525081526020016040518060400160405280600581526020017f6f776e6572000000000000000000000000000000000000000000000000000000815250815260200160038081111562000215576200021462001263565b5b81526020013373ffffffffffffffffffffffffffffffffffffffff16815250600f5f3373ffffffffffffffffffffffffffffffffffffffff1673ffffffffffffffffffffffffffffffffffffffff1681526020019081526020015f205f820151815f0190816200028691906200117f565b5060208201518160010190816200029e91906200117f565b506040820151816002015f6101000a81548160ff02191690836003811115620002cc57620002cb62001263565b5b021790555060608201518160020160016101000a81548173ffffffffffffffffffffffffffffffffffffffff021916908373ffffffffffffffffffffffffffffffffffffffff16021790555090505042600b81905550600b54600d819055506200033f336005546200089e60201b60201c565b60405180608001604052806040518060400160405280600781526020017f707269766174650000000000000000000000000000000000000000000000000081525081526020016040518060400160405280600781526020017f7072697661746500000000000000000000000000000000000000000000000000815250815260200160016003811115620003d757620003d662001263565b5b815260200173ab8483f64d9c6d1ecf9b849ae677dd3315835cb273ffffffffffffffffffffffffffffffffffffffff16815250600f5f73ab8483f64d9c6d1ecf9b849ae677dd3315835cb273ffffffffffffffffffffffffffffffffffffffff1673ffffffffffffffffffffffffffffffffffffffff1681526020019081526020015f205f820151815f0190816200047091906200117f565b5060208201518160010190816200048891906200117f565b506040820151816002015f6101000a81548160ff02191690836003811115620004b657620004b562001263565b5b021790555060608201518160020160016101000a81548173ffffffffffffffffffffffffffffffffffffffff021916908373ffffffffffffffffffffffffffffffffffffffff16021790555090505060405180608001604052806040518060400160405280600681526020017f7075626c6963000000000000000000000000000000000000000000000000000081525081526020016040518060400160405280600681526020017f7075626c696300000000000000000000000000000000000000000000000000008152508152602001600260038111156200059d576200059c62001263565b5b815260200173ab8483f64d9c6d1ecf9b849ae677dd3315835cb273ffffffffffffffffffffffffffffffffffffffff16815250600f5f734b20993bc481177ec7e8f571cecae8a9e22c02db73ffffffffffffffffffffffffffffffffffffffff1673ffffffffffffffffffffffffffffffffffffffff1681526020019081526020015f205f820151815f0190816200063691906200117f565b5060208201518160010190816200064e91906200117f565b506040820151816002015f6101000a81548160ff021916908360038111156200067c576200067b62001263565b5b021790555060608201518160020160016101000a81548173ffffffffffffffffffffffffffffffffffffffff021916908373ffffffffffffffffffffffffffffffffffffffff1602179055509050506200071f337378731d3ca6b7e34ac0f824c42a7cc18a495cabab620006f56200089660201b60201c565b600a62000703919062000e26565b620493e062000713919062000e76565b62000a0360201b60201c565b6200072f6200089660201b60201c565b600a6200073d919062000e26565b620493e06200074d919062000e76565b6006546200075c919062001290565b600681905550620007b63373617f2e2fd72fd9d5503197092ac168c91465e7f26200078c6200089660201b60201c565b600a6200079a919062000e26565b62061a80620007aa919062000e76565b62000a0360201b60201c565b620007c66200089660201b60201c565b600a620007d4919062000e26565b62061a80620007e4919062000e76565b600654620007f3919062001290565b6006819055506200084d337317f6ad8ef982297579c203069c1dbffe4348c372620008236200089660201b60201c565b600a62000831919062000e26565b62030d4062000841919062000e76565b62000a0360201b60201c565b6200085d6200089660201b60201c565b600a6200086b919062000e26565b62030d406200087b919062000e76565b6006546200088a919062001290565b6006819055506200156a565b5f600c905090565b5f73ffffffffffffffffffffffffffffffffffffffff168273ffffffffffffffffffffffffffffffffffffffff16036200090f576040517f08c379a0000000000000000000000000000000000000000000000000000000008152600401620009069062001328565b60405180910390fd5b620009225f838362000c8a60201b60201c565b8060025f82825462000935919062001348565b92505081905550805f808473ffffffffffffffffffffffffffffffffffffffff1673ffffffffffffffffffffffffffffffffffffffff1681526020019081526020015f205f82825401925050819055508173ffffffffffffffffffffffffffffffffffffffff165f73ffffffffffffffffffffffffffffffffffffffff167fddf252ad1be2c89b69c2b068fc378daa952ba7f163c4a11628f55a4df523b3ef83604051620009e4919062001393565b60405180910390a3620009ff5f838362000c8f60201b60201c565b5050565b5f73ffffffffffffffffffffffffffffffffffffffff168373ffffffffffffffffffffffffffffffffffffffff160362000a74576040517f08c379a000000000000000000000000000000000000000000000000000000000815260040162000a6b9062001422565b60405180910390fd5b5f73ffffffffffffffffffffffffffffffffffffffff168273ffffffffffffffffffffffffffffffffffffffff160362000ae5576040517f08c379a000000000000000000000000000000000000000000000000000000000815260040162000adc90620014b6565b60405180910390fd5b62000af883838362000c8a60201b60201c565b5f805f8573ffffffffffffffffffffffffffffffffffffffff1673ffffffffffffffffffffffffffffffffffffffff1681526020019081526020015f205490508181101562000b7e576040517f08c379a000000000000000000000000000000000000000000000000000000000815260040162000b75906200154a565b60405180910390fd5b8181035f808673ffffffffffffffffffffffffffffffffffffffff1673ffffffffffffffffffffffffffffffffffffffff1681526020019081526020015f2081905550815f808573ffffffffffffffffffffffffffffffffffffffff1673ffffffffffffffffffffffffffffffffffffffff1681526020019081526020015f205f82825401925050819055508273ffffffffffffffffffffffffffffffffffffffff168473ffffffffffffffffffffffffffffffffffffffff167fddf252ad1be2c89b69c2b068fc378daa952ba7f163c4a11628f55a4df523b3ef8460405162000c69919062001393565b60405180910390a362000c8484848462000c8f60201b60201c565b50505050565b505050565b505050565b7f4e487b71000000000000000000000000000000000000000000000000000000005f52601160045260245ffd5b5f8160011c9050919050565b5f808291508390505b600185111562000d1e5780860481111562000cf65762000cf562000c94565b5b600185161562000d065780820291505b808102905062000d168562000cc1565b945062000cd6565b94509492505050565b5f8262000d38576001905062000e0a565b8162000d47575f905062000e0a565b816001811462000d60576002811462000d6b5762000da1565b600191505062000e0a565b60ff84111562000d805762000d7f62000c94565b5b8360020a91508482111562000d9a5762000d9962000c94565b5b5062000e0a565b5060208310610133831016604e8410600b841016171562000ddb5782820a90508381111562000dd55762000dd462000c94565b5b62000e0a565b62000dea848484600162000ccd565b9250905081840481111562000e045762000e0362000c94565b5b81810290505b9392505050565b5f819050919050565b5f60ff82169050919050565b5f62000e328262000e11565b915062000e3f8362000e1a565b925062000e6e7fffffffffffffffffffffffffffffffffffffffffffffffffffffffffffffffff848462000d27565b905092915050565b5f62000e828262000e11565b915062000e8f8362000e11565b925082820262000e9f8162000e11565b9150828204841483151762000eb95762000eb862000c94565b5b5092915050565b7f4e487b71000000000000000000000000000000000000000000000000000000005f52601260045260245ffd5b5f62000ef98262000e11565b915062000f068362000e11565b92508262000f195762000f1862000ec0565b5b828204905092915050565b5f81519050919050565b7f4e487b71000000000000000000000000000000000000000000000000000000005f52604160045260245ffd5b7f4e487b71000000000000000000000000000000000000000000000000000000005f52602260045260245ffd5b5f600282049050600182168062000fa057607f821691505b60208210810362000fb65762000fb562000f5b565b5b50919050565b5f819050815f5260205f209050919050565b5f6020601f8301049050919050565b5f82821b905092915050565b5f600883026200101a7fffffffffffffffffffffffffffffffffffffffffffffffffffffffffffffffff8262000fdd565b62001026868362000fdd565b95508019841693508086168417925050509392505050565b5f819050919050565b5f62001067620010616200105b8462000e11565b6200103e565b62000e11565b9050919050565b5f819050919050565b620010828362001047565b6200109a62001091826200106e565b84845462000fe9565b825550505050565b5f90565b620010b0620010a2565b620010bd81848462001077565b505050565b5b81811015620010e457620010d85f82620010a6565b600181019050620010c3565b5050565b601f8211156200113357620010fd8162000fbc565b620011088462000fce565b8101602085101562001118578190505b62001130620011278562000fce565b830182620010c2565b50505b505050565b5f82821c905092915050565b5f620011555f198460080262001138565b1980831691505092915050565b5f6200116f838362001144565b9150826002028217905092915050565b6200118a8262000f24565b67ffffffffffffffff811115620011a657620011a562000f2e565b5b620011b2825462000f88565b620011bf828285620010e8565b5f60209050601f831160018114620011f5575f8415620011e0578287015190505b620011ec858262001162565b8655506200125b565b601f198416620012058662000fbc565b5f5b828110156200122e5784890151825560018201915060208501945060208101905062001207565b868310156200124e57848901516200124a601f89168262001144565b8355505b6001600288020188555050505b505050505050565b7f4e487b71000000000000000000000000000000000000000000000000000000005f52602160045260245ffd5b5f6200129c8262000e11565b9150620012a98362000e11565b9250828203905081811115620012c457620012c362000c94565b5b92915050565b5f82825260208201905092915050565b7f45524332303a206d696e7420746f20746865207a65726f2061646472657373005f82015250565b5f62001310601f83620012ca565b91506200131d82620012da565b602082019050919050565b5f6020820190508181035f830152620013418162001302565b9050919050565b5f620013548262000e11565b9150620013618362000e11565b92508282019050808211156200137c576200137b62000c94565b5b92915050565b6200138d8162000e11565b82525050565b5f602082019050620013a85f83018462001382565b92915050565b7f45524332303a207472616e736665722066726f6d20746865207a65726f2061645f8201527f6472657373000000000000000000000000000000000000000000000000000000602082015250565b5f6200140a602583620012ca565b91506200141782620013ae565b604082019050919050565b5f6020820190508181035f8301526200143b81620013fc565b9050919050565b7f45524332303a207472616e7366657220746f20746865207a65726f20616464725f8201527f6573730000000000000000000000000000000000000000000000000000000000602082015250565b5f6200149e602383620012ca565b9150620014ab8262001442565b604082019050919050565b5f6020820190508181035f830152620014cf8162001490565b9050919050565b7f45524332303a207472616e7366657220616d6f756e74206578636565647320625f8201527f616c616e63650000000000000000000000000000000000000000000000000000602082015250565b5f62001532602683620012ca565b91506200153f82620014d6565b604082019050919050565b5f6020820190508181035f830152620015638162001524565b9050919050565b61362180620015785f395ff3fe60806040526004361061014a575f3560e01c806370a08231116100b5578063da0d37e61161006e578063da0d37e614610494578063db8fb88e146104d0578063dd62ed3e146104f8578063e0c6190d14610534578063ea7d51651461055e578063f2dfd08f146105865761014a565b806370a0823114610366578063896e8cb1146103a257806395d89b41146103ca5780639d7e8d5f146103f4578063a457c2d71461041c578063a9059cbb146104585761014a565b8063313ce56711610107578063313ce5671461025e578063395093511461028857806358467dbc146102c45780636515d6c11461030057806367198042146103285780636dfa00fe1461033e5761014a565b806306fdde031461014e5780630753afdf14610178578063095ea7b3146101a057806318160ddd146101dc57806323b872dd14610206578063254dc45e14610242575b5f80fd5b348015610159575f80fd5b506101626105a2565b60405161016f9190611f6b565b60405180910390f35b348015610183575f80fd5b5061019e600480360381019061019991906120c8565b610632565b005b3480156101ab575f80fd5b506101c660048036038101906101c191906121f9565b6107c8565b6040516101d39190612251565b60405180910390f35b3480156101e7575f80fd5b506101f06107ea565b6040516101fd9190612279565b60405180910390f35b348015610211575f80fd5b5061022c60048036038101906102279190612292565b6107f3565b6040516102399190612251565b60405180910390f35b61025c600480360381019061025791906122e2565b610821565b005b348015610269575f80fd5b50610272610af2565b60405161027f9190612328565b60405180910390f35b348015610293575f80fd5b506102ae60048036038101906102a991906121f9565b610afa565b6040516102bb9190612251565b60405180910390f35b3480156102cf575f80fd5b506102ea60048036038101906102e59190612341565b610b30565b6040516102f791906124e8565b60405180910390f35b34801561030b575f80fd5b5061032660048036038101906103219190612508565b610ec7565b005b348015610333575f80fd5b5061033c610fc1565b005b348015610349575f80fd5b50610364600480360381019061035f91906122e2565b611019565b005b348015610371575f80fd5b5061038c60048036038101906103879190612546565b611040565b6040516103999190612279565b60405180910390f35b3480156103ad575f80fd5b506103c860048036038101906103c39190612508565b611085565b005b3480156103d5575f80fd5b506103de6111ab565b6040516103eb9190611f6b565b60405180910390f35b3480156103ff575f80fd5b5061041a600480360381019061041591906122e2565b61123b565b005b348015610427575f80fd5b50610442600480360381019061043d91906121f9565b6112fa565b60405161044f9190612251565b60405180910390f35b348015610463575f80fd5b5061047e600480360381019061047991906121f9565b61136f565b60405161048b9190612251565b60405180910390f35b34801561049f575f80fd5b506104ba60048036038101906104b59190612546565b611391565b6040516104c79190612589565b60405180910390f35b3480156104db575f80fd5b506104f660048036038101906104f191906125a2565b6113a6565b005b348015610503575f80fd5b5061051e600480360381019061051991906125e9565b611458565b60405161052b9190612279565b60405180910390f35b34801561053f575f80fd5b506105486114da565b6040516105559190612279565b60405180910390f35b348015610569575f80fd5b50610584600480360381019061057f9190612651565b61151e565b005b6105a0600480360381019061059b91906122e2565b6116dc565b005b6060600380546105b1906126bc565b80601f01602080910402602001604051908101604052809291908181526020018280546105dd906126bc565b80156106285780601f106105ff57610100808354040283529160200191610628565b820191905f5260205f20905b81548152906001019060200180831161060b57829003601f168201915b5050505050905090565b60405180608001604052808481526020018281526020015f600381111561065c5761065b6123ff565b5b81526020013373ffffffffffffffffffffffffffffffffffffffff16815250600f5f3373ffffffffffffffffffffffffffffffffffffffff1673ffffffffffffffffffffffffffffffffffffffff1681526020019081526020015f205f820151815f0190816106cb9190612889565b5060208201518160010190816106e19190612889565b506040820151816002015f6101000a81548160ff0219169083600381111561070c5761070b6123ff565b5b021790555060608201518160020160016101000a81548173ffffffffffffffffffffffffffffffffffffffff021916908373ffffffffffffffffffffffffffffffffffffffff1602179055509050508160405160200161076c9190611f6b565b6040516020818303038152906040528051906020012060105f3373ffffffffffffffffffffffffffffffffffffffff1673ffffffffffffffffffffffffffffffffffffffff1681526020019081526020015f2081905550505050565b5f806107d2611889565b90506107df818585611890565b600191505092915050565b5f600254905090565b5f806107fd611889565b905061080a858285611a53565b610815858585611ade565b60019150509392505050565b600561082b6114da565b101561086c576040517f08c379a0000000000000000000000000000000000000000000000000000000008152600401610863906129c8565b60405180910390fd5b600f6108766114da565b11156108b7576040517f08c379a00000000000000000000000000000000000000000000000000000000081526004016108ae90612a56565b60405180910390fd5b620186a08111156108fd576040517f08c379a00000000000000000000000000000000000000000000000000000000081526004016108f490612ae4565b60405180910390fd5b5f60075411610941576040517f08c379a000000000000000000000000000000000000000000000000000000000815260040161093890612b72565b60405180910390fd5b5f805b6012805490508110156109d7576012818154811061096557610964612b90565b5b905f5260205f20015f9054906101000a900473ffffffffffffffffffffffffffffffffffffffff1673ffffffffffffffffffffffffffffffffffffffff163373ffffffffffffffffffffffffffffffffffffffff16036109c457600191505b80806109cf90612bea565b915050610944565b5080610a18576040517f08c379a0000000000000000000000000000000000000000000000000000000008152600401610a0f90612c7b565b60405180910390fd5b610a62600e5f9054906101000a900473ffffffffffffffffffffffffffffffffffffffff1633610a46610af2565b600a610a529190612dc8565b85610a5d9190612e12565b611ade565b610a6a610af2565b600a610a769190612dc8565b82610a819190612e12565b60075f828254610a919190612e53565b925050819055503373ffffffffffffffffffffffffffffffffffffffff166108fc6602aa1efb94e00084610ac59190612e12565b90811502906040515f60405180830381858888f19350505050158015610aed573d5f803e3d5ffd5b505050565b5f600c905090565b5f80610b04611889565b9050610b25818585610b168589611458565b610b209190612e86565b611890565b600191505092915050565b610b38611e31565b5f600f5f3373ffffffffffffffffffffffffffffffffffffffff1673ffffffffffffffffffffffffffffffffffffffff1681526020019081526020015f206001018054610b84906126bc565b80601f0160208091040260200160405190810160405280929190818152602001828054610bb0906126bc565b8015610bfb5780601f10610bd257610100808354040283529160200191610bfb565b820191905f5260205f20905b815481529060010190602001808311610bde57829003601f168201915b5050505050905080604051602001610c139190611f6b565b6040516020818303038152906040528051906020012084604051602001610c3a9190611f6b565b6040516020818303038152906040528051906020012014610c59575f80fd5b60105f3373ffffffffffffffffffffffffffffffffffffffff1673ffffffffffffffffffffffffffffffffffffffff1681526020019081526020015f205483604051602001610ca89190611f6b565b6040516020818303038152906040528051906020012014610cc7575f80fd5b600f5f3373ffffffffffffffffffffffffffffffffffffffff1673ffffffffffffffffffffffffffffffffffffffff1681526020019081526020015f206040518060800160405290815f82018054610d1e906126bc565b80601f0160208091040260200160405190810160405280929190818152602001828054610d4a906126bc565b8015610d955780601f10610d6c57610100808354040283529160200191610d95565b820191905f5260205f20905b815481529060010190602001808311610d7857829003601f168201915b50505050508152602001600182018054610dae906126bc565b80601f0160208091040260200160405190810160405280929190818152602001828054610dda906126bc565b8015610e255780601f10610dfc57610100808354040283529160200191610e25565b820191905f5260205f20905b815481529060010190602001808311610e0857829003601f168201915b50505050508152602001600282015f9054906101000a900460ff166003811115610e5257610e516123ff565b5b6003811115610e6457610e636123ff565b5b81526020016002820160019054906101000a900473ffffffffffffffffffffffffffffffffffffffff1673ffffffffffffffffffffffffffffffffffffffff1673ffffffffffffffffffffffffffffffffffffffff168152505091505092915050565b6002806003811115610edc57610edb6123ff565b5b600f5f3373ffffffffffffffffffffffffffffffffffffffff1673ffffffffffffffffffffffffffffffffffffffff1681526020019081526020015f206002015f9054906101000a900460ff166003811115610f3b57610f3a6123ff565b5b14610f7b576040517f08c379a0000000000000000000000000000000000000000000000000000000008152600401610f7290612f4f565b60405180910390fd5b610f86338385611ade565b610f8e610af2565b600a610f9a9190612dc8565b83610fa59190612e12565b60085f828254610fb59190612e53565b92505081905550505050565b6005610fcb6114da565b1115610fec5760065460095f828254610fe49190612e86565b925050819055505b600f610ff66114da565b11156110175760075460095f82825461100f9190612e86565b925050819055505b565b603c816110269190612e12565b600c5f8282546110369190612e86565b9250508190555050565b5f805f8373ffffffffffffffffffffffffffffffffffffffff1673ffffffffffffffffffffffffffffffffffffffff1681526020019081526020015f20549050919050565b600380600381111561109a576110996123ff565b5b600f5f3373ffffffffffffffffffffffffffffffffffffffff1673ffffffffffffffffffffffffffffffffffffffff1681526020019081526020015f206002015f9054906101000a900460ff1660038111156110f9576110f86123ff565b5b14611139576040517f08c379a000000000000000000000000000000000000000000000000000000000815260040161113090612f4f565b60405180910390fd5b5f6009541161117d576040517f08c379a000000000000000000000000000000000000000000000000000000000815260040161117490612fdd565b60405180910390fd5b6111a6338361118a610af2565b600a6111969190612dc8565b866111a19190612e12565b611ade565b505050565b6060600480546111ba906126bc565b80601f01602080910402602001604051908101604052809291908181526020018280546111e6906126bc565b80156112315780601f1061120857610100808354040283529160200191611231565b820191905f5260205f20905b81548152906001019060200180831161121457829003601f168201915b5050505050905090565b60028060038111156112505761124f6123ff565b5b600f5f3373ffffffffffffffffffffffffffffffffffffffff1673ffffffffffffffffffffffffffffffffffffffff1681526020019081526020015f206002015f9054906101000a900460ff1660038111156112af576112ae6123ff565b5b146112ef576040517f08c379a00000000000000000000000000000000000000000000000000000000081526004016112e690612f4f565b60405180910390fd5b81600a819055505050565b5f80611304611889565b90505f6113118286611458565b905083811015611356576040517f08c379a000000000000000000000000000000000000000000000000000000000815260040161134d9061306b565b60405180910390fd5b6113638286868403611890565b60019250505092915050565b5f80611379611889565b9050611386818585611ade565b600191505092915050565b6010602052805f5260405f205f915090505481565b601160405180604001604052808381526020013373ffffffffffffffffffffffffffffffffffffffff16815250908060018154018082558091505060019003905f5260205f2090600202015f909190919091505f820151815f01908161140c9190612889565b506020820151816001015f6101000a81548173ffffffffffffffffffffffffffffffffffffffff021916908373ffffffffffffffffffffffffffffffffffffffff160217905550505050565b5f60015f8473ffffffffffffffffffffffffffffffffffffffff1673ffffffffffffffffffffffffffffffffffffffff1681526020019081526020015f205f8373ffffffffffffffffffffffffffffffffffffffff1673ffffffffffffffffffffffffffffffffffffffff1681526020019081526020015f2054905092915050565b5f600c54426114e99190612e86565b600d819055505f603c600b54600d546115029190612e53565b61150c91906130b6565b905061151781611d4a565b8091505090565b6001806003811115611533576115326123ff565b5b600f5f3373ffffffffffffffffffffffffffffffffffffffff1673ffffffffffffffffffffffffffffffffffffffff1681526020019081526020015f206002015f9054906101000a900460ff166003811115611592576115916123ff565b5b146115d2576040517f08c379a00000000000000000000000000000000000000000000000000000000081526004016115c990612f4f565b60405180910390fd5b811561167f576012601184815481106115ee576115ed612b90565b5b905f5260205f2090600202016001015f9054906101000a900473ffffffffffffffffffffffffffffffffffffffff16908060018154018082558091505060019003905f5260205f20015f9091909190916101000a81548173ffffffffffffffffffffffffffffffffffffffff021916908373ffffffffffffffffffffffffffffffffffffffff1602179055506116d7565b6011838154811061169357611692612b90565b5b905f5260205f2090600202015f8082015f6116ae9190611e7f565b600182015f6101000a81549073ffffffffffffffffffffffffffffffffffffffff021916905550505b505050565b600a6116e66114da565b1015611727576040517f08c379a000000000000000000000000000000000000000000000000000000000815260040161171e90613156565b60405180910390fd5b61138881111561176c576040517f08c379a0000000000000000000000000000000000000000000000000000000008152600401611763906131e4565b60405180910390fd5b5f600854116117b0576040517f08c379a00000000000000000000000000000000000000000000000000000000081526004016117a790613272565b60405180910390fd5b6117fa600e5f9054906101000a900473ffffffffffffffffffffffffffffffffffffffff16336117de610af2565b600a6117ea9190612dc8565b846117f59190612e12565b611ade565b611802610af2565b600a61180e9190612dc8565b816118199190612e12565b60085f8282546118299190612e53565b925050819055503373ffffffffffffffffffffffffffffffffffffffff166108fc66038d7ea4c680008361185d9190612e12565b90811502906040515f60405180830381858888f19350505050158015611885573d5f803e3d5ffd5b5050565b5f33905090565b5f73ffffffffffffffffffffffffffffffffffffffff168373ffffffffffffffffffffffffffffffffffffffff16036118fe576040517f08c379a00000000000000000000000000000000000000000000000000000000081526004016118f590613300565b60405180910390fd5b5f73ffffffffffffffffffffffffffffffffffffffff168273ffffffffffffffffffffffffffffffffffffffff160361196c576040517f08c379a00000000000000000000000000000000000000000000000000000000081526004016119639061338e565b60405180910390fd5b8060015f8573ffffffffffffffffffffffffffffffffffffffff1673ffffffffffffffffffffffffffffffffffffffff1681526020019081526020015f205f8473ffffffffffffffffffffffffffffffffffffffff1673ffffffffffffffffffffffffffffffffffffffff1681526020019081526020015f20819055508173ffffffffffffffffffffffffffffffffffffffff168373ffffffffffffffffffffffffffffffffffffffff167f8c5be1e5ebec7d5bd14f71427d1e84f3dd0314c0f7b2291e5b200ac8c7c3b92583604051611a469190612279565b60405180910390a3505050565b5f611a5e8484611458565b90507fffffffffffffffffffffffffffffffffffffffffffffffffffffffffffffffff8114611ad85781811015611aca576040517f08c379a0000000000000000000000000000000000000000000000000000000008152600401611ac1906133f6565b60405180910390fd5b611ad78484848403611890565b5b50505050565b5f73ffffffffffffffffffffffffffffffffffffffff168373ffffffffffffffffffffffffffffffffffffffff1603611b4c576040517f08c379a0000000000000000000000000000000000000000000000000000000008152600401611b4390613484565b60405180910390fd5b5f73ffffffffffffffffffffffffffffffffffffffff168273ffffffffffffffffffffffffffffffffffffffff1603611bba576040517f08c379a0000000000000000000000000000000000000000000000000000000008152600401611bb190613512565b60405180910390fd5b611bc5838383611de3565b5f805f8573ffffffffffffffffffffffffffffffffffffffff1673ffffffffffffffffffffffffffffffffffffffff1681526020019081526020015f2054905081811015611c48576040517f08c379a0000000000000000000000000000000000000000000000000000000008152600401611c3f906135a0565b60405180910390fd5b8181035f808673ffffffffffffffffffffffffffffffffffffffff1673ffffffffffffffffffffffffffffffffffffffff1681526020019081526020015f2081905550815f808573ffffffffffffffffffffffffffffffffffffffff1673ffffffffffffffffffffffffffffffffffffffff1681526020019081526020015f205f82825401925050819055508273ffffffffffffffffffffffffffffffffffffffff168473ffffffffffffffffffffffffffffffffffffffff167fddf252ad1be2c89b69c2b068fc378daa952ba7f163c4a11628f55a4df523b3ef84604051611d319190612279565b60405180910390a3611d44848484611de8565b50505050565b611de081604051602401611d5e9190612279565b6040516020818303038152906040527ff82c50f1000000000000000000000000000000000000000000000000000000007bffffffffffffffffffffffffffffffffffffffffffffffffffffffff19166020820180517bffffffffffffffffffffffffffffffffffffffffffffffffffffffff8381831617835250505050611ded565b50565b505050565b505050565b611e0481611dfc611e07611e26565b63ffffffff16565b50565b5f6a636f6e736f6c652e6c6f6790505f80835160208501845afa505050565b611ebc819050919050565b604051806080016040528060608152602001606081526020015f6003811115611e5d57611e5c6123ff565b5b81526020015f73ffffffffffffffffffffffffffffffffffffffff1681525090565b508054611e8b906126bc565b5f825580601f10611e9c5750611eb9565b601f0160209004905f5260205f2090810190611eb89190611ec6565b5b50565b611ec46135be565b565b5b80821115611edd575f815f905550600101611ec7565b5090565b5f81519050919050565b5f82825260208201905092915050565b5f5b83811015611f18578082015181840152602081019050611efd565b5f8484015250505050565b5f601f19601f8301169050919050565b5f611f3d82611ee1565b611f478185611eeb565b9350611f57818560208601611efb565b611f6081611f23565b840191505092915050565b5f6020820190508181035f830152611f838184611f33565b905092915050565b5f604051905090565b5f80fd5b5f80fd5b5f80fd5b5f80fd5b7f4e487b71000000000000000000000000000000000000000000000000000000005f52604160045260245ffd5b611fda82611f23565b810181811067ffffffffffffffff82111715611ff957611ff8611fa4565b5b80604052505050565b5f61200b611f8b565b90506120178282611fd1565b919050565b5f67ffffffffffffffff82111561203657612035611fa4565b5b61203f82611f23565b9050602081019050919050565b828183375f83830152505050565b5f61206c6120678461201c565b612002565b90508281526020810184848401111561208857612087611fa0565b5b61209384828561204c565b509392505050565b5f82601f8301126120af576120ae611f9c565b5b81356120bf84826020860161205a565b91505092915050565b5f805f606084860312156120df576120de611f94565b5b5f84013567ffffffffffffffff8111156120fc576120fb611f98565b5b6121088682870161209b565b935050602084013567ffffffffffffffff81111561212957612128611f98565b5b6121358682870161209b565b925050604084013567ffffffffffffffff81111561215657612155611f98565b5b6121628682870161209b565b9150509250925092565b5f73ffffffffffffffffffffffffffffffffffffffff82169050919050565b5f6121958261216c565b9050919050565b6121a58161218b565b81146121af575f80fd5b50565b5f813590506121c08161219c565b92915050565b5f819050919050565b6121d8816121c6565b81146121e2575f80fd5b50565b5f813590506121f3816121cf565b92915050565b5f806040838503121561220f5761220e611f94565b5b5f61221c858286016121b2565b925050602061222d858286016121e5565b9150509250929050565b5f8115159050919050565b61224b81612237565b82525050565b5f6020820190506122645f830184612242565b92915050565b612273816121c6565b82525050565b5f60208201905061228c5f83018461226a565b92915050565b5f805f606084860312156122a9576122a8611f94565b5b5f6122b6868287016121b2565b93505060206122c7868287016121b2565b92505060406122d8868287016121e5565b9150509250925092565b5f602082840312156122f7576122f6611f94565b5b5f612304848285016121e5565b91505092915050565b5f60ff82169050919050565b6123228161230d565b82525050565b5f60208201905061233b5f830184612319565b92915050565b5f806040838503121561235757612356611f94565b5b5f83013567ffffffffffffffff81111561237457612373611f98565b5b6123808582860161209b565b925050602083013567ffffffffffffffff8111156123a1576123a0611f98565b5b6123ad8582860161209b565b9150509250929050565b5f82825260208201905092915050565b5f6123d182611ee1565b6123db81856123b7565b93506123eb818560208601611efb565b6123f481611f23565b840191505092915050565b7f4e487b71000000000000000000000000000000000000000000000000000000005f52602160045260245ffd5b6004811061243d5761243c6123ff565b5b50565b5f81905061244d8261242c565b919050565b5f61245c82612440565b9050919050565b61246c81612452565b82525050565b61247b8161218b565b82525050565b5f608083015f8301518482035f86015261249b82826123c7565b915050602083015184820360208601526124b582826123c7565b91505060408301516124ca6040860182612463565b5060608301516124dd6060860182612472565b508091505092915050565b5f6020820190508181035f8301526125008184612481565b905092915050565b5f806040838503121561251e5761251d611f94565b5b5f61252b858286016121e5565b925050602061253c858286016121b2565b9150509250929050565b5f6020828403121561255b5761255a611f94565b5b5f612568848285016121b2565b91505092915050565b5f819050919050565b61258381612571565b82525050565b5f60208201905061259c5f83018461257a565b92915050565b5f602082840312156125b7576125b6611f94565b5b5f82013567ffffffffffffffff8111156125d4576125d3611f98565b5b6125e08482850161209b565b91505092915050565b5f80604083850312156125ff576125fe611f94565b5b5f61260c858286016121b2565b925050602061261d858286016121b2565b9150509250929050565b61263081612237565b811461263a575f80fd5b50565b5f8135905061264b81612627565b92915050565b5f806040838503121561266757612666611f94565b5b5f612674858286016121e5565b92505060206126858582860161263d565b9150509250929050565b7f4e487b71000000000000000000000000000000000000000000000000000000005f52602260045260245ffd5b5f60028204905060018216806126d357607f821691505b6020821081036126e6576126e561268f565b5b50919050565b5f819050815f5260205f209050919050565b5f6020601f8301049050919050565b5f82821b905092915050565b5f600883026127487fffffffffffffffffffffffffffffffffffffffffffffffffffffffffffffffff8261270d565b612752868361270d565b95508019841693508086168417925050509392505050565b5f819050919050565b5f61278d612788612783846121c6565b61276a565b6121c6565b9050919050565b5f819050919050565b6127a683612773565b6127ba6127b282612794565b848454612719565b825550505050565b5f90565b6127ce6127c2565b6127d981848461279d565b505050565b5b818110156127fc576127f15f826127c6565b6001810190506127df565b5050565b601f82111561284157612812816126ec565b61281b846126fe565b8101602085101561282a578190505b61283e612836856126fe565b8301826127de565b50505b505050565b5f82821c905092915050565b5f6128615f1984600802612846565b1980831691505092915050565b5f6128798383612852565b9150826002028217905092915050565b61289282611ee1565b67ffffffffffffffff8111156128ab576128aa611fa4565b5b6128b582546126bc565b6128c0828285612800565b5f60209050601f8311600181146128f1575f84156128df578287015190505b6128e9858261286e565b865550612950565b601f1984166128ff866126ec565b5f5b8281101561292657848901518255600182019150602085019450602081019050612901565b86831015612943578489015161293f601f891682612852565b8355505b6001600288020188555050505b505050505050565b7fd09fd180d0b8d0b2d0b0d182d0bdd0b0d18f20d184d0b0d0b7d0b020d0b5d1895f8201527fd19120d0bdd0b520d0bdd0b0d187d0b0d0bbd0b0d181d18c0000000000000000602082015250565b5f6129b2603883611eeb565b91506129bd82612958565b604082019050919050565b5f6020820190508181035f8301526129df816129a6565b9050919050565b7fd09fd180d0b8d0b2d0b0d182d0bdd0b0d18f20d184d0b0d0b7d0b020d0b7d0b05f8201527fd0bad0bed0bdd187d0b8d0bbd0b0d181d18c0000000000000000000000000000602082015250565b5f612a40603283611eeb565b9150612a4b826129e6565b604082019050919050565b5f6020820190508181035f830152612a6d81612a34565b9050919050565b7fd091d0bed0bbd18cd188d0b52031303030303020d0bdd0b5d0bbd18cd0b7d18f5f8201527f20d0bad183d0bfd0b8d182d18c00000000000000000000000000000000000000602082015250565b5f612ace602d83611eeb565b9150612ad982612a74565b604082019050919050565b5f6020820190508181035f830152612afb81612ac2565b9050919050565b7f5072697661746520d0bad0bed0b8d0bdd18b20d0b7d0b0d0bad0bed0bdd187d05f8201527fb8d0bbd0b8d181d18c0000000000000000000000000000000000000000000000602082015250565b5f612b5c602983611eeb565b9150612b6782612b02565b604082019050919050565b5f6020820190508181035f830152612b8981612b50565b9050919050565b7f4e487b71000000000000000000000000000000000000000000000000000000005f52603260045260245ffd5b7f4e487b71000000000000000000000000000000000000000000000000000000005f52601160045260245ffd5b5f612bf4826121c6565b91507fffffffffffffffffffffffffffffffffffffffffffffffffffffffffffffffff8203612c2657612c25612bbd565b5b600182019050919050565b7f467265652073616c65206e6f74207374617274656400000000000000000000005f82015250565b5f612c65601583611eeb565b9150612c7082612c31565b602082019050919050565b5f6020820190508181035f830152612c9281612c59565b9050919050565b5f8160011c9050919050565b5f808291508390505b6001851115612cee57808604811115612cca57612cc9612bbd565b5b6001851615612cd95780820291505b8081029050612ce785612c99565b9450612cae565b94509492505050565b5f82612d065760019050612dc1565b81612d13575f9050612dc1565b8160018114612d295760028114612d3357612d62565b6001915050612dc1565b60ff841115612d4557612d44612bbd565b5b8360020a915084821115612d5c57612d5b612bbd565b5b50612dc1565b5060208310610133831016604e8410600b8410161715612d975782820a905083811115612d9257612d91612bbd565b5b612dc1565b612da48484846001612ca5565b92509050818404811115612dbb57612dba612bbd565b5b81810290505b9392505050565b5f612dd2826121c6565b9150612ddd8361230d565b9250612e0a7fffffffffffffffffffffffffffffffffffffffffffffffffffffffffffffffff8484612cf7565b905092915050565b5f612e1c826121c6565b9150612e27836121c6565b9250828202612e35816121c6565b91508282048414831517612e4c57612e4b612bbd565b5b5092915050565b5f612e5d826121c6565b9150612e68836121c6565b9250828203905081811115612e8057612e7f612bbd565b5b92915050565b5f612e90826121c6565b9150612e9b836121c6565b9250828201905080821115612eb357612eb2612bbd565b5b92915050565b7fd092d0b0d188d0b020d180d0bed0bbd18c20d0bdd0b520d0bfd0bed0b7d0b2d05f8201527fbed0bbd18fd0b5d18220d18dd182d0be20d0b8d181d0bfd0bed0bbd18cd0b7d060208201527fbed0b2d0b0d182d18c0000000000000000000000000000000000000000000000604082015250565b5f612f39604983611eeb565b9150612f4482612eb9565b606082019050919050565b5f6020820190508181035f830152612f6681612f2d565b9050919050565b7fd0a320d0b2d0b0d18120d0bdd0b5d18220d0bed181d182d0b0d182d0bed187d05f8201527fbdd18bd18520d0bad0bed0b8d0bdd0bed0b20000000000000000000000000000602082015250565b5f612fc7603283611eeb565b9150612fd282612f6d565b604082019050919050565b5f6020820190508181035f830152612ff481612fbb565b9050919050565b7f45524332303a2064656372656173656420616c6c6f77616e63652062656c6f775f8201527f207a65726f000000000000000000000000000000000000000000000000000000602082015250565b5f613055602583611eeb565b915061306082612ffb565b604082019050919050565b5f6020820190508181035f83015261308281613049565b9050919050565b7f4e487b71000000000000000000000000000000000000000000000000000000005f52601260045260245ffd5b5f6130c0826121c6565b91506130cb836121c6565b9250826130db576130da613089565b5b828204905092915050565b7f5075626c696320d184d0b0d0b7d0b020d0b5d189d19120d0bdd0b520d0bdd0b05f8201527fd187d0b0d0bbd0b0d181d18c0000000000000000000000000000000000000000602082015250565b5f613140602c83611eeb565b915061314b826130e6565b604082019050919050565b5f6020820190508181035f83015261316d81613134565b9050919050565b7fd091d0bed0bbd18cd188d0b5203530303020d0bdd0b5d0bbd18cd0b7d18f20d05f8201527fbad183d0bfd0b8d182d18c000000000000000000000000000000000000000000602082015250565b5f6131ce602b83611eeb565b91506131d982613174565b604082019050919050565b5f6020820190508181035f8301526131fb816131c2565b9050919050565b7f5075626c696320d0bad0bed0b8d0bdd18b20d0b7d0b0d0bad0bed0bdd187d0b85f8201527fd0bbd0b8d181d18c000000000000000000000000000000000000000000000000602082015250565b5f61325c602883611eeb565b915061326782613202565b604082019050919050565b5f6020820190508181035f83015261328981613250565b9050919050565b7f45524332303a20617070726f76652066726f6d20746865207a65726f206164645f8201527f7265737300000000000000000000000000000000000000000000000000000000602082015250565b5f6132ea602483611eeb565b91506132f582613290565b604082019050919050565b5f6020820190508181035f830152613317816132de565b9050919050565b7f45524332303a20617070726f766520746f20746865207a65726f2061646472655f8201527f7373000000000000000000000000000000000000000000000000000000000000602082015250565b5f613378602283611eeb565b91506133838261331e565b604082019050919050565b5f6020820190508181035f8301526133a58161336c565b9050919050565b7f45524332303a20696e73756666696369656e7420616c6c6f77616e63650000005f82015250565b5f6133e0601d83611eeb565b91506133eb826133ac565b602082019050919050565b5f6020820190508181035f83015261340d816133d4565b9050919050565b7f45524332303a207472616e736665722066726f6d20746865207a65726f2061645f8201527f6472657373000000000000000000000000000000000000000000000000000000602082015250565b5f61346e602583611eeb565b915061347982613414565b604082019050919050565b5f6020820190508181035f83015261349b81613462565b9050919050565b7f45524332303a207472616e7366657220746f20746865207a65726f20616464725f8201527f6573730000000000000000000000000000000000000000000000000000000000602082015250565b5f6134fc602383611eeb565b9150613507826134a2565b604082019050919050565b5f6020820190508181035f830152613529816134f0565b9050919050565b7f45524332303a207472616e7366657220616d6f756e74206578636565647320625f8201527f616c616e63650000000000000000000000000000000000000000000000000000602082015250565b5f61358a602683611eeb565b915061359582613530565b604082019050919050565b5f6020820190508181035f8301526135b78161357e565b9050919050565b7f4e487b71000000000000000000000000000000000000000000000000000000005f52605160045260245ffdfea26469706673582212205d8a246695ec5c77090e4dc5765e4b642acc2951307710ef105b05d7e82be59e64736f6c63430008150033",
			"opcodes": "PUSH1 0x80 PUSH1 0x40 MSTORE PUSH3 0x14 PUSH3 0x896 PUSH1 0x20 SHL PUSH1 0x20 SHR JUMP JUMPDEST PUSH1 0xA PUSH3 0x22 SWAP2 SWAP1 PUSH3 0xE26 JUMP JUMPDEST PUSH3 0x989680 PUSH3 0x32 SWAP2 SWAP1 PUSH3 0xE76 JUMP JUMPDEST PUSH1 0x5 SSTORE PUSH1 0x64 PUSH1 0xA PUSH1 0x5 SLOAD PUSH3 0x48 SWAP2 SWAP1 PUSH3 0xE76 JUMP JUMPDEST PUSH3 0x54 SWAP2 SWAP1 PUSH3 0xEED JUMP JUMPDEST PUSH1 0x6 SSTORE PUSH1 0x64 PUSH1 0x1E PUSH1 0x5 SLOAD PUSH3 0x6A SWAP2 SWAP1 PUSH3 0xE76 JUMP JUMPDEST PUSH3 0x76 SWAP2 SWAP1 PUSH3 0xEED JUMP JUMPDEST PUSH1 0x7 SSTORE PUSH1 0x64 PUSH1 0x3C PUSH1 0x5 SLOAD PUSH3 0x8C SWAP2 SWAP1 PUSH3 0xE76 JUMP JUMPDEST PUSH3 0x98 SWAP2 SWAP1 PUSH3 0xEED JUMP JUMPDEST PUSH1 0x8 SSTORE PUSH0 PUSH1 0xC SSTORE CALLVALUE DUP1 ISZERO PUSH3 0xAB JUMPI PUSH0 DUP1 REVERT JUMPDEST POP PUSH1 0x40 MLOAD DUP1 PUSH1 0x40 ADD PUSH1 0x40 MSTORE DUP1 PUSH1 0xD DUP2 MSTORE PUSH1 0x20 ADD PUSH32 0x43727970746F4D6F6E7374657200000000000000000000000000000000000000 DUP2 MSTORE POP PUSH1 0x40 MLOAD DUP1 PUSH1 0x40 ADD PUSH1 0x40 MSTORE DUP1 PUSH1 0x4 DUP2 MSTORE PUSH1 0x20 ADD PUSH32 0x434D4F4E00000000000000000000000000000000000000000000000000000000 DUP2 MSTORE POP DUP2 PUSH1 0x3 SWAP1 DUP2 PUSH3 0x129 SWAP2 SWAP1 PUSH3 0x117F JUMP JUMPDEST POP DUP1 PUSH1 0x4 SWAP1 DUP2 PUSH3 0x13B SWAP2 SWAP1 PUSH3 0x117F JUMP JUMPDEST POP POP POP CALLER PUSH1 0xE PUSH0 PUSH2 0x100 EXP DUP2 SLOAD DUP2 PUSH20 0xFFFFFFFFFFFFFFFFFFFFFFFFFFFFFFFFFFFFFFFF MUL NOT AND SWAP1 DUP4 PUSH20 0xFFFFFFFFFFFFFFFFFFFFFFFFFFFFFFFFFFFFFFFF AND MUL OR SWAP1 SSTORE POP PUSH1 0x40 MLOAD DUP1 PUSH1 0x80 ADD PUSH1 0x40 MSTORE DUP1 PUSH1 0x40 MLOAD DUP1 PUSH1 0x40 ADD PUSH1 0x40 MSTORE DUP1 PUSH1 0x5 DUP2 MSTORE PUSH1 0x20 ADD PUSH32 0x6F776E6572000000000000000000000000000000000000000000000000000000 DUP2 MSTORE POP DUP2 MSTORE PUSH1 0x20 ADD PUSH1 0x40 MLOAD DUP1 PUSH1 0x40 ADD PUSH1 0x40 MSTORE DUP1 PUSH1 0x5 DUP2 MSTORE PUSH1 0x20 ADD PUSH32 0x6F776E6572000000000000000000000000000000000000000000000000000000 DUP2 MSTORE POP DUP2 MSTORE PUSH1 0x20 ADD PUSH1 0x3 DUP1 DUP2 GT ISZERO PUSH3 0x215 JUMPI PUSH3 0x214 PUSH3 0x1263 JUMP JUMPDEST JUMPDEST DUP2 MSTORE PUSH1 0x20 ADD CALLER PUSH20 0xFFFFFFFFFFFFFFFFFFFFFFFFFFFFFFFFFFFFFFFF AND DUP2 MSTORE POP PUSH1 0xF PUSH0 CALLER PUSH20 0xFFFFFFFFFFFFFFFFFFFFFFFFFFFFFFFFFFFFFFFF AND PUSH20 0xFFFFFFFFFFFFFFFFFFFFFFFFFFFFFFFFFFFFFFFF AND DUP2 MSTORE PUSH1 0x20 ADD SWAP1 DUP2 MSTORE PUSH1 0x20 ADD PUSH0 KECCAK256 PUSH0 DUP3 ADD MLOAD DUP2 PUSH0 ADD SWAP1 DUP2 PUSH3 0x286 SWAP2 SWAP1 PUSH3 0x117F JUMP JUMPDEST POP PUSH1 0x20 DUP3 ADD MLOAD DUP2 PUSH1 0x1 ADD SWAP1 DUP2 PUSH3 0x29E SWAP2 SWAP1 PUSH3 0x117F JUMP JUMPDEST POP PUSH1 0x40 DUP3 ADD MLOAD DUP2 PUSH1 0x2 ADD PUSH0 PUSH2 0x100 EXP DUP2 SLOAD DUP2 PUSH1 0xFF MUL NOT AND SWAP1 DUP4 PUSH1 0x3 DUP2 GT ISZERO PUSH3 0x2CC JUMPI PUSH3 0x2CB PUSH3 0x1263 JUMP JUMPDEST JUMPDEST MUL OR SWAP1 SSTORE POP PUSH1 0x60 DUP3 ADD MLOAD DUP2 PUSH1 0x2 ADD PUSH1 0x1 PUSH2 0x100 EXP DUP2 SLOAD DUP2 PUSH20 0xFFFFFFFFFFFFFFFFFFFFFFFFFFFFFFFFFFFFFFFF MUL NOT AND SWAP1 DUP4 PUSH20 0xFFFFFFFFFFFFFFFFFFFFFFFFFFFFFFFFFFFFFFFF AND MUL OR SWAP1 SSTORE POP SWAP1 POP POP TIMESTAMP PUSH1 0xB DUP2 SWAP1 SSTORE POP PUSH1 0xB SLOAD PUSH1 0xD DUP2 SWAP1 SSTORE POP PUSH3 0x33F CALLER PUSH1 0x5 SLOAD PUSH3 0x89E PUSH1 0x20 SHL PUSH1 0x20 SHR JUMP JUMPDEST PUSH1 0x40 MLOAD DUP1 PUSH1 0x80 ADD PUSH1 0x40 MSTORE DUP1 PUSH1 0x40 MLOAD DUP1 PUSH1 0x40 ADD PUSH1 0x40 MSTORE DUP1 PUSH1 0x7 DUP2 MSTORE PUSH1 0x20 ADD PUSH32 0x7072697661746500000000000000000000000000000000000000000000000000 DUP2 MSTORE POP DUP2 MSTORE PUSH1 0x20 ADD PUSH1 0x40 MLOAD DUP1 PUSH1 0x40 ADD PUSH1 0x40 MSTORE DUP1 PUSH1 0x7 DUP2 MSTORE PUSH1 0x20 ADD PUSH32 0x7072697661746500000000000000000000000000000000000000000000000000 DUP2 MSTORE POP DUP2 MSTORE PUSH1 0x20 ADD PUSH1 0x1 PUSH1 0x3 DUP2 GT ISZERO PUSH3 0x3D7 JUMPI PUSH3 0x3D6 PUSH3 0x1263 JUMP JUMPDEST JUMPDEST DUP2 MSTORE PUSH1 0x20 ADD PUSH20 0xAB8483F64D9C6D1ECF9B849AE677DD3315835CB2 PUSH20 0xFFFFFFFFFFFFFFFFFFFFFFFFFFFFFFFFFFFFFFFF AND DUP2 MSTORE POP PUSH1 0xF PUSH0 PUSH20 0xAB8483F64D9C6D1ECF9B849AE677DD3315835CB2 PUSH20 0xFFFFFFFFFFFFFFFFFFFFFFFFFFFFFFFFFFFFFFFF AND PUSH20 0xFFFFFFFFFFFFFFFFFFFFFFFFFFFFFFFFFFFFFFFF AND DUP2 MSTORE PUSH1 0x20 ADD SWAP1 DUP2 MSTORE PUSH1 0x20 ADD PUSH0 KECCAK256 PUSH0 DUP3 ADD MLOAD DUP2 PUSH0 ADD SWAP1 DUP2 PUSH3 0x470 SWAP2 SWAP1 PUSH3 0x117F JUMP JUMPDEST POP PUSH1 0x20 DUP3 ADD MLOAD DUP2 PUSH1 0x1 ADD SWAP1 DUP2 PUSH3 0x488 SWAP2 SWAP1 PUSH3 0x117F JUMP JUMPDEST POP PUSH1 0x40 DUP3 ADD MLOAD DUP2 PUSH1 0x2 ADD PUSH0 PUSH2 0x100 EXP DUP2 SLOAD DUP2 PUSH1 0xFF MUL NOT AND SWAP1 DUP4 PUSH1 0x3 DUP2 GT ISZERO PUSH3 0x4B6 JUMPI PUSH3 0x4B5 PUSH3 0x1263 JUMP JUMPDEST JUMPDEST MUL OR SWAP1 SSTORE POP PUSH1 0x60 DUP3 ADD MLOAD DUP2 PUSH1 0x2 ADD PUSH1 0x1 PUSH2 0x100 EXP DUP2 SLOAD DUP2 PUSH20 0xFFFFFFFFFFFFFFFFFFFFFFFFFFFFFFFFFFFFFFFF MUL NOT AND SWAP1 DUP4 PUSH20 0xFFFFFFFFFFFFFFFFFFFFFFFFFFFFFFFFFFFFFFFF AND MUL OR SWAP1 SSTORE POP SWAP1 POP POP PUSH1 0x40 MLOAD DUP1 PUSH1 0x80 ADD PUSH1 0x40 MSTORE DUP1 PUSH1 0x40 MLOAD DUP1 PUSH1 0x40 ADD PUSH1 0x40 MSTORE DUP1 PUSH1 0x6 DUP2 MSTORE PUSH1 0x20 ADD PUSH32 0x7075626C69630000000000000000000000000000000000000000000000000000 DUP2 MSTORE POP DUP2 MSTORE PUSH1 0x20 ADD PUSH1 0x40 MLOAD DUP1 PUSH1 0x40 ADD PUSH1 0x40 MSTORE DUP1 PUSH1 0x6 DUP2 MSTORE PUSH1 0x20 ADD PUSH32 0x7075626C69630000000000000000000000000000000000000000000000000000 DUP2 MSTORE POP DUP2 MSTORE PUSH1 0x20 ADD PUSH1 0x2 PUSH1 0x3 DUP2 GT ISZERO PUSH3 0x59D JUMPI PUSH3 0x59C PUSH3 0x1263 JUMP JUMPDEST JUMPDEST DUP2 MSTORE PUSH1 0x20 ADD PUSH20 0xAB8483F64D9C6D1ECF9B849AE677DD3315835CB2 PUSH20 0xFFFFFFFFFFFFFFFFFFFFFFFFFFFFFFFFFFFFFFFF AND DUP2 MSTORE POP PUSH1 0xF PUSH0 PUSH20 0x4B20993BC481177EC7E8F571CECAE8A9E22C02DB PUSH20 0xFFFFFFFFFFFFFFFFFFFFFFFFFFFFFFFFFFFFFFFF AND PUSH20 0xFFFFFFFFFFFFFFFFFFFFFFFFFFFFFFFFFFFFFFFF AND DUP2 MSTORE PUSH1 0x20 ADD SWAP1 DUP2 MSTORE PUSH1 0x20 ADD PUSH0 KECCAK256 PUSH0 DUP3 ADD MLOAD DUP2 PUSH0 ADD SWAP1 DUP2 PUSH3 0x636 SWAP2 SWAP1 PUSH3 0x117F JUMP JUMPDEST POP PUSH1 0x20 DUP3 ADD MLOAD DUP2 PUSH1 0x1 ADD SWAP1 DUP2 PUSH3 0x64E SWAP2 SWAP1 PUSH3 0x117F JUMP JUMPDEST POP PUSH1 0x40 DUP3 ADD MLOAD DUP2 PUSH1 0x2 ADD PUSH0 PUSH2 0x100 EXP DUP2 SLOAD DUP2 PUSH1 0xFF MUL NOT AND SWAP1 DUP4 PUSH1 0x3 DUP2 GT ISZERO PUSH3 0x67C JUMPI PUSH3 0x67B PUSH3 0x1263 JUMP JUMPDEST JUMPDEST MUL OR SWAP1 SSTORE POP PUSH1 0x60 DUP3 ADD MLOAD DUP2 PUSH1 0x2 ADD PUSH1 0x1 PUSH2 0x100 EXP DUP2 SLOAD DUP2 PUSH20 0xFFFFFFFFFFFFFFFFFFFFFFFFFFFFFFFFFFFFFFFF MUL NOT AND SWAP1 DUP4 PUSH20 0xFFFFFFFFFFFFFFFFFFFFFFFFFFFFFFFFFFFFFFFF AND MUL OR SWAP1 SSTORE POP SWAP1 POP POP PUSH3 0x71F CALLER PUSH20 0x78731D3CA6B7E34AC0F824C42A7CC18A495CABAB PUSH3 0x6F5 PUSH3 0x896 PUSH1 0x20 SHL PUSH1 0x20 SHR JUMP JUMPDEST PUSH1 0xA PUSH3 0x703 SWAP2 SWAP1 PUSH3 0xE26 JUMP JUMPDEST PUSH3 0x493E0 PUSH3 0x713 SWAP2 SWAP1 PUSH3 0xE76 JUMP JUMPDEST PUSH3 0xA03 PUSH1 0x20 SHL PUSH1 0x20 SHR JUMP JUMPDEST PUSH3 0x72F PUSH3 0x896 PUSH1 0x20 SHL PUSH1 0x20 SHR JUMP JUMPDEST PUSH1 0xA PUSH3 0x73D SWAP2 SWAP1 PUSH3 0xE26 JUMP JUMPDEST PUSH3 0x493E0 PUSH3 0x74D SWAP2 SWAP1 PUSH3 0xE76 JUMP JUMPDEST PUSH1 0x6 SLOAD PUSH3 0x75C SWAP2 SWAP1 PUSH3 0x1290 JUMP JUMPDEST PUSH1 0x6 DUP2 SWAP1 SSTORE POP PUSH3 0x7B6 CALLER PUSH20 0x617F2E2FD72FD9D5503197092AC168C91465E7F2 PUSH3 0x78C PUSH3 0x896 PUSH1 0x20 SHL PUSH1 0x20 SHR JUMP JUMPDEST PUSH1 0xA PUSH3 0x79A SWAP2 SWAP1 PUSH3 0xE26 JUMP JUMPDEST PUSH3 0x61A80 PUSH3 0x7AA SWAP2 SWAP1 PUSH3 0xE76 JUMP JUMPDEST PUSH3 0xA03 PUSH1 0x20 SHL PUSH1 0x20 SHR JUMP JUMPDEST PUSH3 0x7C6 PUSH3 0x896 PUSH1 0x20 SHL PUSH1 0x20 SHR JUMP JUMPDEST PUSH1 0xA PUSH3 0x7D4 SWAP2 SWAP1 PUSH3 0xE26 JUMP JUMPDEST PUSH3 0x61A80 PUSH3 0x7E4 SWAP2 SWAP1 PUSH3 0xE76 JUMP JUMPDEST PUSH1 0x6 SLOAD PUSH3 0x7F3 SWAP2 SWAP1 PUSH3 0x1290 JUMP JUMPDEST PUSH1 0x6 DUP2 SWAP1 SSTORE POP PUSH3 0x84D CALLER PUSH20 0x17F6AD8EF982297579C203069C1DBFFE4348C372 PUSH3 0x823 PUSH3 0x896 PUSH1 0x20 SHL PUSH1 0x20 SHR JUMP JUMPDEST PUSH1 0xA PUSH3 0x831 SWAP2 SWAP1 PUSH3 0xE26 JUMP JUMPDEST PUSH3 0x30D40 PUSH3 0x841 SWAP2 SWAP1 PUSH3 0xE76 JUMP JUMPDEST PUSH3 0xA03 PUSH1 0x20 SHL PUSH1 0x20 SHR JUMP JUMPDEST PUSH3 0x85D PUSH3 0x896 PUSH1 0x20 SHL PUSH1 0x20 SHR JUMP JUMPDEST PUSH1 0xA PUSH3 0x86B SWAP2 SWAP1 PUSH3 0xE26 JUMP JUMPDEST PUSH3 0x30D40 PUSH3 0x87B SWAP2 SWAP1 PUSH3 0xE76 JUMP JUMPDEST PUSH1 0x6 SLOAD PUSH3 0x88A SWAP2 SWAP1 PUSH3 0x1290 JUMP JUMPDEST PUSH1 0x6 DUP2 SWAP1 SSTORE POP PUSH3 0x156A JUMP JUMPDEST PUSH0 PUSH1 0xC SWAP1 POP SWAP1 JUMP JUMPDEST PUSH0 PUSH20 0xFFFFFFFFFFFFFFFFFFFFFFFFFFFFFFFFFFFFFFFF AND DUP3 PUSH20 0xFFFFFFFFFFFFFFFFFFFFFFFFFFFFFFFFFFFFFFFF AND SUB PUSH3 0x90F JUMPI PUSH1 0x40 MLOAD PUSH32 0x8C379A000000000000000000000000000000000000000000000000000000000 DUP2 MSTORE PUSH1 0x4 ADD PUSH3 0x906 SWAP1 PUSH3 0x1328 JUMP JUMPDEST PUSH1 0x40 MLOAD DUP1 SWAP2 SUB SWAP1 REVERT JUMPDEST PUSH3 0x922 PUSH0 DUP4 DUP4 PUSH3 0xC8A PUSH1 0x20 SHL PUSH1 0x20 SHR JUMP JUMPDEST DUP1 PUSH1 0x2 PUSH0 DUP3 DUP3 SLOAD PUSH3 0x935 SWAP2 SWAP1 PUSH3 0x1348 JUMP JUMPDEST SWAP3 POP POP DUP2 SWAP1 SSTORE POP DUP1 PUSH0 DUP1 DUP5 PUSH20 0xFFFFFFFFFFFFFFFFFFFFFFFFFFFFFFFFFFFFFFFF AND PUSH20 0xFFFFFFFFFFFFFFFFFFFFFFFFFFFFFFFFFFFFFFFF AND DUP2 MSTORE PUSH1 0x20 ADD SWAP1 DUP2 MSTORE PUSH1 0x20 ADD PUSH0 KECCAK256 PUSH0 DUP3 DUP3 SLOAD ADD SWAP3 POP POP DUP2 SWAP1 SSTORE POP DUP2 PUSH20 0xFFFFFFFFFFFFFFFFFFFFFFFFFFFFFFFFFFFFFFFF AND PUSH0 PUSH20 0xFFFFFFFFFFFFFFFFFFFFFFFFFFFFFFFFFFFFFFFF AND PUSH32 0xDDF252AD1BE2C89B69C2B068FC378DAA952BA7F163C4A11628F55A4DF523B3EF DUP4 PUSH1 0x40 MLOAD PUSH3 0x9E4 SWAP2 SWAP1 PUSH3 0x1393 JUMP JUMPDEST PUSH1 0x40 MLOAD DUP1 SWAP2 SUB SWAP1 LOG3 PUSH3 0x9FF PUSH0 DUP4 DUP4 PUSH3 0xC8F PUSH1 0x20 SHL PUSH1 0x20 SHR JUMP JUMPDEST POP POP JUMP JUMPDEST PUSH0 PUSH20 0xFFFFFFFFFFFFFFFFFFFFFFFFFFFFFFFFFFFFFFFF AND DUP4 PUSH20 0xFFFFFFFFFFFFFFFFFFFFFFFFFFFFFFFFFFFFFFFF AND SUB PUSH3 0xA74 JUMPI PUSH1 0x40 MLOAD PUSH32 0x8C379A000000000000000000000000000000000000000000000000000000000 DUP2 MSTORE PUSH1 0x4 ADD PUSH3 0xA6B SWAP1 PUSH3 0x1422 JUMP JUMPDEST PUSH1 0x40 MLOAD DUP1 SWAP2 SUB SWAP1 REVERT JUMPDEST PUSH0 PUSH20 0xFFFFFFFFFFFFFFFFFFFFFFFFFFFFFFFFFFFFFFFF AND DUP3 PUSH20 0xFFFFFFFFFFFFFFFFFFFFFFFFFFFFFFFFFFFFFFFF AND SUB PUSH3 0xAE5 JUMPI PUSH1 0x40 MLOAD PUSH32 0x8C379A000000000000000000000000000000000000000000000000000000000 DUP2 MSTORE PUSH1 0x4 ADD PUSH3 0xADC SWAP1 PUSH3 0x14B6 JUMP JUMPDEST PUSH1 0x40 MLOAD DUP1 SWAP2 SUB SWAP1 REVERT JUMPDEST PUSH3 0xAF8 DUP4 DUP4 DUP4 PUSH3 0xC8A PUSH1 0x20 SHL PUSH1 0x20 SHR JUMP JUMPDEST PUSH0 DUP1 PUSH0 DUP6 PUSH20 0xFFFFFFFFFFFFFFFFFFFFFFFFFFFFFFFFFFFFFFFF AND PUSH20 0xFFFFFFFFFFFFFFFFFFFFFFFFFFFFFFFFFFFFFFFF AND DUP2 MSTORE PUSH1 0x20 ADD SWAP1 DUP2 MSTORE PUSH1 0x20 ADD PUSH0 KECCAK256 SLOAD SWAP1 POP DUP2 DUP2 LT ISZERO PUSH3 0xB7E JUMPI PUSH1 0x40 MLOAD PUSH32 0x8C379A000000000000000000000000000000000000000000000000000000000 DUP2 MSTORE PUSH1 0x4 ADD PUSH3 0xB75 SWAP1 PUSH3 0x154A JUMP JUMPDEST PUSH1 0x40 MLOAD DUP1 SWAP2 SUB SWAP1 REVERT JUMPDEST DUP2 DUP2 SUB PUSH0 DUP1 DUP7 PUSH20 0xFFFFFFFFFFFFFFFFFFFFFFFFFFFFFFFFFFFFFFFF AND PUSH20 0xFFFFFFFFFFFFFFFFFFFFFFFFFFFFFFFFFFFFFFFF AND DUP2 MSTORE PUSH1 0x20 ADD SWAP1 DUP2 MSTORE PUSH1 0x20 ADD PUSH0 KECCAK256 DUP2 SWAP1 SSTORE POP DUP2 PUSH0 DUP1 DUP6 PUSH20 0xFFFFFFFFFFFFFFFFFFFFFFFFFFFFFFFFFFFFFFFF AND PUSH20 0xFFFFFFFFFFFFFFFFFFFFFFFFFFFFFFFFFFFFFFFF AND DUP2 MSTORE PUSH1 0x20 ADD SWAP1 DUP2 MSTORE PUSH1 0x20 ADD PUSH0 KECCAK256 PUSH0 DUP3 DUP3 SLOAD ADD SWAP3 POP POP DUP2 SWAP1 SSTORE POP DUP3 PUSH20 0xFFFFFFFFFFFFFFFFFFFFFFFFFFFFFFFFFFFFFFFF AND DUP5 PUSH20 0xFFFFFFFFFFFFFFFFFFFFFFFFFFFFFFFFFFFFFFFF AND PUSH32 0xDDF252AD1BE2C89B69C2B068FC378DAA952BA7F163C4A11628F55A4DF523B3EF DUP5 PUSH1 0x40 MLOAD PUSH3 0xC69 SWAP2 SWAP1 PUSH3 0x1393 JUMP JUMPDEST PUSH1 0x40 MLOAD DUP1 SWAP2 SUB SWAP1 LOG3 PUSH3 0xC84 DUP5 DUP5 DUP5 PUSH3 0xC8F PUSH1 0x20 SHL PUSH1 0x20 SHR JUMP JUMPDEST POP POP POP POP JUMP JUMPDEST POP POP POP JUMP JUMPDEST POP POP POP JUMP JUMPDEST PUSH32 0x4E487B7100000000000000000000000000000000000000000000000000000000 PUSH0 MSTORE PUSH1 0x11 PUSH1 0x4 MSTORE PUSH1 0x24 PUSH0 REVERT JUMPDEST PUSH0 DUP2 PUSH1 0x1 SHR SWAP1 POP SWAP2 SWAP1 POP JUMP JUMPDEST PUSH0 DUP1 DUP3 SWAP2 POP DUP4 SWAP1 POP JUMPDEST PUSH1 0x1 DUP6 GT ISZERO PUSH3 0xD1E JUMPI DUP1 DUP7 DIV DUP2 GT ISZERO PUSH3 0xCF6 JUMPI PUSH3 0xCF5 PUSH3 0xC94 JUMP JUMPDEST JUMPDEST PUSH1 0x1 DUP6 AND ISZERO PUSH3 0xD06 JUMPI DUP1 DUP3 MUL SWAP2 POP JUMPDEST DUP1 DUP2 MUL SWAP1 POP PUSH3 0xD16 DUP6 PUSH3 0xCC1 JUMP JUMPDEST SWAP5 POP PUSH3 0xCD6 JUMP JUMPDEST SWAP5 POP SWAP5 SWAP3 POP POP POP JUMP JUMPDEST PUSH0 DUP3 PUSH3 0xD38 JUMPI PUSH1 0x1 SWAP1 POP PUSH3 0xE0A JUMP JUMPDEST DUP2 PUSH3 0xD47 JUMPI PUSH0 SWAP1 POP PUSH3 0xE0A JUMP JUMPDEST DUP2 PUSH1 0x1 DUP2 EQ PUSH3 0xD60 JUMPI PUSH1 0x2 DUP2 EQ PUSH3 0xD6B JUMPI PUSH3 0xDA1 JUMP JUMPDEST PUSH1 0x1 SWAP2 POP POP PUSH3 0xE0A JUMP JUMPDEST PUSH1 0xFF DUP5 GT ISZERO PUSH3 0xD80 JUMPI PUSH3 0xD7F PUSH3 0xC94 JUMP JUMPDEST JUMPDEST DUP4 PUSH1 0x2 EXP SWAP2 POP DUP5 DUP3 GT ISZERO PUSH3 0xD9A JUMPI PUSH3 0xD99 PUSH3 0xC94 JUMP JUMPDEST JUMPDEST POP PUSH3 0xE0A JUMP JUMPDEST POP PUSH1 0x20 DUP4 LT PUSH2 0x133 DUP4 LT AND PUSH1 0x4E DUP5 LT PUSH1 0xB DUP5 LT AND OR ISZERO PUSH3 0xDDB JUMPI DUP3 DUP3 EXP SWAP1 POP DUP4 DUP2 GT ISZERO PUSH3 0xDD5 JUMPI PUSH3 0xDD4 PUSH3 0xC94 JUMP JUMPDEST JUMPDEST PUSH3 0xE0A JUMP JUMPDEST PUSH3 0xDEA DUP5 DUP5 DUP5 PUSH1 0x1 PUSH3 0xCCD JUMP JUMPDEST SWAP3 POP SWAP1 POP DUP2 DUP5 DIV DUP2 GT ISZERO PUSH3 0xE04 JUMPI PUSH3 0xE03 PUSH3 0xC94 JUMP JUMPDEST JUMPDEST DUP2 DUP2 MUL SWAP1 POP JUMPDEST SWAP4 SWAP3 POP POP POP JUMP JUMPDEST PUSH0 DUP2 SWAP1 POP SWAP2 SWAP1 POP JUMP JUMPDEST PUSH0 PUSH1 0xFF DUP3 AND SWAP1 POP SWAP2 SWAP1 POP JUMP JUMPDEST PUSH0 PUSH3 0xE32 DUP3 PUSH3 0xE11 JUMP JUMPDEST SWAP2 POP PUSH3 0xE3F DUP4 PUSH3 0xE1A JUMP JUMPDEST SWAP3 POP PUSH3 0xE6E PUSH32 0xFFFFFFFFFFFFFFFFFFFFFFFFFFFFFFFFFFFFFFFFFFFFFFFFFFFFFFFFFFFFFFFF DUP5 DUP5 PUSH3 0xD27 JUMP JUMPDEST SWAP1 POP SWAP3 SWAP2 POP POP JUMP JUMPDEST PUSH0 PUSH3 0xE82 DUP3 PUSH3 0xE11 JUMP JUMPDEST SWAP2 POP PUSH3 0xE8F DUP4 PUSH3 0xE11 JUMP JUMPDEST SWAP3 POP DUP3 DUP3 MUL PUSH3 0xE9F DUP2 PUSH3 0xE11 JUMP JUMPDEST SWAP2 POP DUP3 DUP3 DIV DUP5 EQ DUP4 ISZERO OR PUSH3 0xEB9 JUMPI PUSH3 0xEB8 PUSH3 0xC94 JUMP JUMPDEST JUMPDEST POP SWAP3 SWAP2 POP POP JUMP JUMPDEST PUSH32 0x4E487B7100000000000000000000000000000000000000000000000000000000 PUSH0 MSTORE PUSH1 0x12 PUSH1 0x4 MSTORE PUSH1 0x24 PUSH0 REVERT JUMPDEST PUSH0 PUSH3 0xEF9 DUP3 PUSH3 0xE11 JUMP JUMPDEST SWAP2 POP PUSH3 0xF06 DUP4 PUSH3 0xE11 JUMP JUMPDEST SWAP3 POP DUP3 PUSH3 0xF19 JUMPI PUSH3 0xF18 PUSH3 0xEC0 JUMP JUMPDEST JUMPDEST DUP3 DUP3 DIV SWAP1 POP SWAP3 SWAP2 POP POP JUMP JUMPDEST PUSH0 DUP2 MLOAD SWAP1 POP SWAP2 SWAP1 POP JUMP JUMPDEST PUSH32 0x4E487B7100000000000000000000000000000000000000000000000000000000 PUSH0 MSTORE PUSH1 0x41 PUSH1 0x4 MSTORE PUSH1 0x24 PUSH0 REVERT JUMPDEST PUSH32 0x4E487B7100000000000000000000000000000000000000000000000000000000 PUSH0 MSTORE PUSH1 0x22 PUSH1 0x4 MSTORE PUSH1 0x24 PUSH0 REVERT JUMPDEST PUSH0 PUSH1 0x2 DUP3 DIV SWAP1 POP PUSH1 0x1 DUP3 AND DUP1 PUSH3 0xFA0 JUMPI PUSH1 0x7F DUP3 AND SWAP2 POP JUMPDEST PUSH1 0x20 DUP3 LT DUP2 SUB PUSH3 0xFB6 JUMPI PUSH3 0xFB5 PUSH3 0xF5B JUMP JUMPDEST JUMPDEST POP SWAP2 SWAP1 POP JUMP JUMPDEST PUSH0 DUP2 SWAP1 POP DUP2 PUSH0 MSTORE PUSH1 0x20 PUSH0 KECCAK256 SWAP1 POP SWAP2 SWAP1 POP JUMP JUMPDEST PUSH0 PUSH1 0x20 PUSH1 0x1F DUP4 ADD DIV SWAP1 POP SWAP2 SWAP1 POP JUMP JUMPDEST PUSH0 DUP3 DUP3 SHL SWAP1 POP SWAP3 SWAP2 POP POP JUMP JUMPDEST PUSH0 PUSH1 0x8 DUP4 MUL PUSH3 0x101A PUSH32 0xFFFFFFFFFFFFFFFFFFFFFFFFFFFFFFFFFFFFFFFFFFFFFFFFFFFFFFFFFFFFFFFF DUP3 PUSH3 0xFDD JUMP JUMPDEST PUSH3 0x1026 DUP7 DUP4 PUSH3 0xFDD JUMP JUMPDEST SWAP6 POP DUP1 NOT DUP5 AND SWAP4 POP DUP1 DUP7 AND DUP5 OR SWAP3 POP POP POP SWAP4 SWAP3 POP POP POP JUMP JUMPDEST PUSH0 DUP2 SWAP1 POP SWAP2 SWAP1 POP JUMP JUMPDEST PUSH0 PUSH3 0x1067 PUSH3 0x1061 PUSH3 0x105B DUP5 PUSH3 0xE11 JUMP JUMPDEST PUSH3 0x103E JUMP JUMPDEST PUSH3 0xE11 JUMP JUMPDEST SWAP1 POP SWAP2 SWAP1 POP JUMP JUMPDEST PUSH0 DUP2 SWAP1 POP SWAP2 SWAP1 POP JUMP JUMPDEST PUSH3 0x1082 DUP4 PUSH3 0x1047 JUMP JUMPDEST PUSH3 0x109A PUSH3 0x1091 DUP3 PUSH3 0x106E JUMP JUMPDEST DUP5 DUP5 SLOAD PUSH3 0xFE9 JUMP JUMPDEST DUP3 SSTORE POP POP POP POP JUMP JUMPDEST PUSH0 SWAP1 JUMP JUMPDEST PUSH3 0x10B0 PUSH3 0x10A2 JUMP JUMPDEST PUSH3 0x10BD DUP2 DUP5 DUP5 PUSH3 0x1077 JUMP JUMPDEST POP POP POP JUMP JUMPDEST JUMPDEST DUP2 DUP2 LT ISZERO PUSH3 0x10E4 JUMPI PUSH3 0x10D8 PUSH0 DUP3 PUSH3 0x10A6 JUMP JUMPDEST PUSH1 0x1 DUP2 ADD SWAP1 POP PUSH3 0x10C3 JUMP JUMPDEST POP POP JUMP JUMPDEST PUSH1 0x1F DUP3 GT ISZERO PUSH3 0x1133 JUMPI PUSH3 0x10FD DUP2 PUSH3 0xFBC JUMP JUMPDEST PUSH3 0x1108 DUP5 PUSH3 0xFCE JUMP JUMPDEST DUP2 ADD PUSH1 0x20 DUP6 LT ISZERO PUSH3 0x1118 JUMPI DUP2 SWAP1 POP JUMPDEST PUSH3 0x1130 PUSH3 0x1127 DUP6 PUSH3 0xFCE JUMP JUMPDEST DUP4 ADD DUP3 PUSH3 0x10C2 JUMP JUMPDEST POP POP JUMPDEST POP POP POP JUMP JUMPDEST PUSH0 DUP3 DUP3 SHR SWAP1 POP SWAP3 SWAP2 POP POP JUMP JUMPDEST PUSH0 PUSH3 0x1155 PUSH0 NOT DUP5 PUSH1 0x8 MUL PUSH3 0x1138 JUMP JUMPDEST NOT DUP1 DUP4 AND SWAP2 POP POP SWAP3 SWAP2 POP POP JUMP JUMPDEST PUSH0 PUSH3 0x116F DUP4 DUP4 PUSH3 0x1144 JUMP JUMPDEST SWAP2 POP DUP3 PUSH1 0x2 MUL DUP3 OR SWAP1 POP SWAP3 SWAP2 POP POP JUMP JUMPDEST PUSH3 0x118A DUP3 PUSH3 0xF24 JUMP JUMPDEST PUSH8 0xFFFFFFFFFFFFFFFF DUP2 GT ISZERO PUSH3 0x11A6 JUMPI PUSH3 0x11A5 PUSH3 0xF2E JUMP JUMPDEST JUMPDEST PUSH3 0x11B2 DUP3 SLOAD PUSH3 0xF88 JUMP JUMPDEST PUSH3 0x11BF DUP3 DUP3 DUP6 PUSH3 0x10E8 JUMP JUMPDEST PUSH0 PUSH1 0x20 SWAP1 POP PUSH1 0x1F DUP4 GT PUSH1 0x1 DUP2 EQ PUSH3 0x11F5 JUMPI PUSH0 DUP5 ISZERO PUSH3 0x11E0 JUMPI DUP3 DUP8 ADD MLOAD SWAP1 POP JUMPDEST PUSH3 0x11EC DUP6 DUP3 PUSH3 0x1162 JUMP JUMPDEST DUP7 SSTORE POP PUSH3 0x125B JUMP JUMPDEST PUSH1 0x1F NOT DUP5 AND PUSH3 0x1205 DUP7 PUSH3 0xFBC JUMP JUMPDEST PUSH0 JUMPDEST DUP3 DUP2 LT ISZERO PUSH3 0x122E JUMPI DUP5 DUP10 ADD MLOAD DUP3 SSTORE PUSH1 0x1 DUP3 ADD SWAP2 POP PUSH1 0x20 DUP6 ADD SWAP5 POP PUSH1 0x20 DUP2 ADD SWAP1 POP PUSH3 0x1207 JUMP JUMPDEST DUP7 DUP4 LT ISZERO PUSH3 0x124E JUMPI DUP5 DUP10 ADD MLOAD PUSH3 0x124A PUSH1 0x1F DUP10 AND DUP3 PUSH3 0x1144 JUMP JUMPDEST DUP4 SSTORE POP JUMPDEST PUSH1 0x1 PUSH1 0x2 DUP9 MUL ADD DUP9 SSTORE POP POP POP JUMPDEST POP POP POP POP POP POP JUMP JUMPDEST PUSH32 0x4E487B7100000000000000000000000000000000000000000000000000000000 PUSH0 MSTORE PUSH1 0x21 PUSH1 0x4 MSTORE PUSH1 0x24 PUSH0 REVERT JUMPDEST PUSH0 PUSH3 0x129C DUP3 PUSH3 0xE11 JUMP JUMPDEST SWAP2 POP PUSH3 0x12A9 DUP4 PUSH3 0xE11 JUMP JUMPDEST SWAP3 POP DUP3 DUP3 SUB SWAP1 POP DUP2 DUP2 GT ISZERO PUSH3 0x12C4 JUMPI PUSH3 0x12C3 PUSH3 0xC94 JUMP JUMPDEST JUMPDEST SWAP3 SWAP2 POP POP JUMP JUMPDEST PUSH0 DUP3 DUP3 MSTORE PUSH1 0x20 DUP3 ADD SWAP1 POP SWAP3 SWAP2 POP POP JUMP JUMPDEST PUSH32 0x45524332303A206D696E7420746F20746865207A65726F206164647265737300 PUSH0 DUP3 ADD MSTORE POP JUMP JUMPDEST PUSH0 PUSH3 0x1310 PUSH1 0x1F DUP4 PUSH3 0x12CA JUMP JUMPDEST SWAP2 POP PUSH3 0x131D DUP3 PUSH3 0x12DA JUMP JUMPDEST PUSH1 0x20 DUP3 ADD SWAP1 POP SWAP2 SWAP1 POP JUMP JUMPDEST PUSH0 PUSH1 0x20 DUP3 ADD SWAP1 POP DUP2 DUP2 SUB PUSH0 DUP4 ADD MSTORE PUSH3 0x1341 DUP2 PUSH3 0x1302 JUMP JUMPDEST SWAP1 POP SWAP2 SWAP1 POP JUMP JUMPDEST PUSH0 PUSH3 0x1354 DUP3 PUSH3 0xE11 JUMP JUMPDEST SWAP2 POP PUSH3 0x1361 DUP4 PUSH3 0xE11 JUMP JUMPDEST SWAP3 POP DUP3 DUP3 ADD SWAP1 POP DUP1 DUP3 GT ISZERO PUSH3 0x137C JUMPI PUSH3 0x137B PUSH3 0xC94 JUMP JUMPDEST JUMPDEST SWAP3 SWAP2 POP POP JUMP JUMPDEST PUSH3 0x138D DUP2 PUSH3 0xE11 JUMP JUMPDEST DUP3 MSTORE POP POP JUMP JUMPDEST PUSH0 PUSH1 0x20 DUP3 ADD SWAP1 POP PUSH3 0x13A8 PUSH0 DUP4 ADD DUP5 PUSH3 0x1382 JUMP JUMPDEST SWAP3 SWAP2 POP POP JUMP JUMPDEST PUSH32 0x45524332303A207472616E736665722066726F6D20746865207A65726F206164 PUSH0 DUP3 ADD MSTORE PUSH32 0x6472657373000000000000000000000000000000000000000000000000000000 PUSH1 0x20 DUP3 ADD MSTORE POP JUMP JUMPDEST PUSH0 PUSH3 0x140A PUSH1 0x25 DUP4 PUSH3 0x12CA JUMP JUMPDEST SWAP2 POP PUSH3 0x1417 DUP3 PUSH3 0x13AE JUMP JUMPDEST PUSH1 0x40 DUP3 ADD SWAP1 POP SWAP2 SWAP1 POP JUMP JUMPDEST PUSH0 PUSH1 0x20 DUP3 ADD SWAP1 POP DUP2 DUP2 SUB PUSH0 DUP4 ADD MSTORE PUSH3 0x143B DUP2 PUSH3 0x13FC JUMP JUMPDEST SWAP1 POP SWAP2 SWAP1 POP JUMP JUMPDEST PUSH32 0x45524332303A207472616E7366657220746F20746865207A65726F2061646472 PUSH0 DUP3 ADD MSTORE PUSH32 0x6573730000000000000000000000000000000000000000000000000000000000 PUSH1 0x20 DUP3 ADD MSTORE POP JUMP JUMPDEST PUSH0 PUSH3 0x149E PUSH1 0x23 DUP4 PUSH3 0x12CA JUMP JUMPDEST SWAP2 POP PUSH3 0x14AB DUP3 PUSH3 0x1442 JUMP JUMPDEST PUSH1 0x40 DUP3 ADD SWAP1 POP SWAP2 SWAP1 POP JUMP JUMPDEST PUSH0 PUSH1 0x20 DUP3 ADD SWAP1 POP DUP2 DUP2 SUB PUSH0 DUP4 ADD MSTORE PUSH3 0x14CF DUP2 PUSH3 0x1490 JUMP JUMPDEST SWAP1 POP SWAP2 SWAP1 POP JUMP JUMPDEST PUSH32 0x45524332303A207472616E7366657220616D6F756E7420657863656564732062 PUSH0 DUP3 ADD MSTORE PUSH32 0x616C616E63650000000000000000000000000000000000000000000000000000 PUSH1 0x20 DUP3 ADD MSTORE POP JUMP JUMPDEST PUSH0 PUSH3 0x1532 PUSH1 0x26 DUP4 PUSH3 0x12CA JUMP JUMPDEST SWAP2 POP PUSH3 0x153F DUP3 PUSH3 0x14D6 JUMP JUMPDEST PUSH1 0x40 DUP3 ADD SWAP1 POP SWAP2 SWAP1 POP JUMP JUMPDEST PUSH0 PUSH1 0x20 DUP3 ADD SWAP1 POP DUP2 DUP2 SUB PUSH0 DUP4 ADD MSTORE PUSH3 0x1563 DUP2 PUSH3 0x1524 JUMP JUMPDEST SWAP1 POP SWAP2 SWAP1 POP JUMP JUMPDEST PUSH2 0x3621 DUP1 PUSH3 0x1578 PUSH0 CODECOPY PUSH0 RETURN INVALID PUSH1 0x80 PUSH1 0x40 MSTORE PUSH1 0x4 CALLDATASIZE LT PUSH2 0x14A JUMPI PUSH0 CALLDATALOAD PUSH1 0xE0 SHR DUP1 PUSH4 0x70A08231 GT PUSH2 0xB5 JUMPI DUP1 PUSH4 0xDA0D37E6 GT PUSH2 0x6E JUMPI DUP1 PUSH4 0xDA0D37E6 EQ PUSH2 0x494 JUMPI DUP1 PUSH4 0xDB8FB88E EQ PUSH2 0x4D0 JUMPI DUP1 PUSH4 0xDD62ED3E EQ PUSH2 0x4F8 JUMPI DUP1 PUSH4 0xE0C6190D EQ PUSH2 0x534 JUMPI DUP1 PUSH4 0xEA7D5165 EQ PUSH2 0x55E JUMPI DUP1 PUSH4 0xF2DFD08F EQ PUSH2 0x586 JUMPI PUSH2 0x14A JUMP JUMPDEST DUP1 PUSH4 0x70A08231 EQ PUSH2 0x366 JUMPI DUP1 PUSH4 0x896E8CB1 EQ PUSH2 0x3A2 JUMPI DUP1 PUSH4 0x95D89B41 EQ PUSH2 0x3CA JUMPI DUP1 PUSH4 0x9D7E8D5F EQ PUSH2 0x3F4 JUMPI DUP1 PUSH4 0xA457C2D7 EQ PUSH2 0x41C JUMPI DUP1 PUSH4 0xA9059CBB EQ PUSH2 0x458 JUMPI PUSH2 0x14A JUMP JUMPDEST DUP1 PUSH4 0x313CE567 GT PUSH2 0x107 JUMPI DUP1 PUSH4 0x313CE567 EQ PUSH2 0x25E JUMPI DUP1 PUSH4 0x39509351 EQ PUSH2 0x288 JUMPI DUP1 PUSH4 0x58467DBC EQ PUSH2 0x2C4 JUMPI DUP1 PUSH4 0x6515D6C1 EQ PUSH2 0x300 JUMPI DUP1 PUSH4 0x67198042 EQ PUSH2 0x328 JUMPI DUP1 PUSH4 0x6DFA00FE EQ PUSH2 0x33E JUMPI PUSH2 0x14A JUMP JUMPDEST DUP1 PUSH4 0x6FDDE03 EQ PUSH2 0x14E JUMPI DUP1 PUSH4 0x753AFDF EQ PUSH2 0x178 JUMPI DUP1 PUSH4 0x95EA7B3 EQ PUSH2 0x1A0 JUMPI DUP1 PUSH4 0x18160DDD EQ PUSH2 0x1DC JUMPI DUP1 PUSH4 0x23B872DD EQ PUSH2 0x206 JUMPI DUP1 PUSH4 0x254DC45E EQ PUSH2 0x242 JUMPI JUMPDEST PUSH0 DUP1 REVERT JUMPDEST CALLVALUE DUP1 ISZERO PUSH2 0x159 JUMPI PUSH0 DUP1 REVERT JUMPDEST POP PUSH2 0x162 PUSH2 0x5A2 JUMP JUMPDEST PUSH1 0x40 MLOAD PUSH2 0x16F SWAP2 SWAP1 PUSH2 0x1F6B JUMP JUMPDEST PUSH1 0x40 MLOAD DUP1 SWAP2 SUB SWAP1 RETURN JUMPDEST CALLVALUE DUP1 ISZERO PUSH2 0x183 JUMPI PUSH0 DUP1 REVERT JUMPDEST POP PUSH2 0x19E PUSH1 0x4 DUP1 CALLDATASIZE SUB DUP2 ADD SWAP1 PUSH2 0x199 SWAP2 SWAP1 PUSH2 0x20C8 JUMP JUMPDEST PUSH2 0x632 JUMP JUMPDEST STOP JUMPDEST CALLVALUE DUP1 ISZERO PUSH2 0x1AB JUMPI PUSH0 DUP1 REVERT JUMPDEST POP PUSH2 0x1C6 PUSH1 0x4 DUP1 CALLDATASIZE SUB DUP2 ADD SWAP1 PUSH2 0x1C1 SWAP2 SWAP1 PUSH2 0x21F9 JUMP JUMPDEST PUSH2 0x7C8 JUMP JUMPDEST PUSH1 0x40 MLOAD PUSH2 0x1D3 SWAP2 SWAP1 PUSH2 0x2251 JUMP JUMPDEST PUSH1 0x40 MLOAD DUP1 SWAP2 SUB SWAP1 RETURN JUMPDEST CALLVALUE DUP1 ISZERO PUSH2 0x1E7 JUMPI PUSH0 DUP1 REVERT JUMPDEST POP PUSH2 0x1F0 PUSH2 0x7EA JUMP JUMPDEST PUSH1 0x40 MLOAD PUSH2 0x1FD SWAP2 SWAP1 PUSH2 0x2279 JUMP JUMPDEST PUSH1 0x40 MLOAD DUP1 SWAP2 SUB SWAP1 RETURN JUMPDEST CALLVALUE DUP1 ISZERO PUSH2 0x211 JUMPI PUSH0 DUP1 REVERT JUMPDEST POP PUSH2 0x22C PUSH1 0x4 DUP1 CALLDATASIZE SUB DUP2 ADD SWAP1 PUSH2 0x227 SWAP2 SWAP1 PUSH2 0x2292 JUMP JUMPDEST PUSH2 0x7F3 JUMP JUMPDEST PUSH1 0x40 MLOAD PUSH2 0x239 SWAP2 SWAP1 PUSH2 0x2251 JUMP JUMPDEST PUSH1 0x40 MLOAD DUP1 SWAP2 SUB SWAP1 RETURN JUMPDEST PUSH2 0x25C PUSH1 0x4 DUP1 CALLDATASIZE SUB DUP2 ADD SWAP1 PUSH2 0x257 SWAP2 SWAP1 PUSH2 0x22E2 JUMP JUMPDEST PUSH2 0x821 JUMP JUMPDEST STOP JUMPDEST CALLVALUE DUP1 ISZERO PUSH2 0x269 JUMPI PUSH0 DUP1 REVERT JUMPDEST POP PUSH2 0x272 PUSH2 0xAF2 JUMP JUMPDEST PUSH1 0x40 MLOAD PUSH2 0x27F SWAP2 SWAP1 PUSH2 0x2328 JUMP JUMPDEST PUSH1 0x40 MLOAD DUP1 SWAP2 SUB SWAP1 RETURN JUMPDEST CALLVALUE DUP1 ISZERO PUSH2 0x293 JUMPI PUSH0 DUP1 REVERT JUMPDEST POP PUSH2 0x2AE PUSH1 0x4 DUP1 CALLDATASIZE SUB DUP2 ADD SWAP1 PUSH2 0x2A9 SWAP2 SWAP1 PUSH2 0x21F9 JUMP JUMPDEST PUSH2 0xAFA JUMP JUMPDEST PUSH1 0x40 MLOAD PUSH2 0x2BB SWAP2 SWAP1 PUSH2 0x2251 JUMP JUMPDEST PUSH1 0x40 MLOAD DUP1 SWAP2 SUB SWAP1 RETURN JUMPDEST CALLVALUE DUP1 ISZERO PUSH2 0x2CF JUMPI PUSH0 DUP1 REVERT JUMPDEST POP PUSH2 0x2EA PUSH1 0x4 DUP1 CALLDATASIZE SUB DUP2 ADD SWAP1 PUSH2 0x2E5 SWAP2 SWAP1 PUSH2 0x2341 JUMP JUMPDEST PUSH2 0xB30 JUMP JUMPDEST PUSH1 0x40 MLOAD PUSH2 0x2F7 SWAP2 SWAP1 PUSH2 0x24E8 JUMP JUMPDEST PUSH1 0x40 MLOAD DUP1 SWAP2 SUB SWAP1 RETURN JUMPDEST CALLVALUE DUP1 ISZERO PUSH2 0x30B JUMPI PUSH0 DUP1 REVERT JUMPDEST POP PUSH2 0x326 PUSH1 0x4 DUP1 CALLDATASIZE SUB DUP2 ADD SWAP1 PUSH2 0x321 SWAP2 SWAP1 PUSH2 0x2508 JUMP JUMPDEST PUSH2 0xEC7 JUMP JUMPDEST STOP JUMPDEST CALLVALUE DUP1 ISZERO PUSH2 0x333 JUMPI PUSH0 DUP1 REVERT JUMPDEST POP PUSH2 0x33C PUSH2 0xFC1 JUMP JUMPDEST STOP JUMPDEST CALLVALUE DUP1 ISZERO PUSH2 0x349 JUMPI PUSH0 DUP1 REVERT JUMPDEST POP PUSH2 0x364 PUSH1 0x4 DUP1 CALLDATASIZE SUB DUP2 ADD SWAP1 PUSH2 0x35F SWAP2 SWAP1 PUSH2 0x22E2 JUMP JUMPDEST PUSH2 0x1019 JUMP JUMPDEST STOP JUMPDEST CALLVALUE DUP1 ISZERO PUSH2 0x371 JUMPI PUSH0 DUP1 REVERT JUMPDEST POP PUSH2 0x38C PUSH1 0x4 DUP1 CALLDATASIZE SUB DUP2 ADD SWAP1 PUSH2 0x387 SWAP2 SWAP1 PUSH2 0x2546 JUMP JUMPDEST PUSH2 0x1040 JUMP JUMPDEST PUSH1 0x40 MLOAD PUSH2 0x399 SWAP2 SWAP1 PUSH2 0x2279 JUMP JUMPDEST PUSH1 0x40 MLOAD DUP1 SWAP2 SUB SWAP1 RETURN JUMPDEST CALLVALUE DUP1 ISZERO PUSH2 0x3AD JUMPI PUSH0 DUP1 REVERT JUMPDEST POP PUSH2 0x3C8 PUSH1 0x4 DUP1 CALLDATASIZE SUB DUP2 ADD SWAP1 PUSH2 0x3C3 SWAP2 SWAP1 PUSH2 0x2508 JUMP JUMPDEST PUSH2 0x1085 JUMP JUMPDEST STOP JUMPDEST CALLVALUE DUP1 ISZERO PUSH2 0x3D5 JUMPI PUSH0 DUP1 REVERT JUMPDEST POP PUSH2 0x3DE PUSH2 0x11AB JUMP JUMPDEST PUSH1 0x40 MLOAD PUSH2 0x3EB SWAP2 SWAP1 PUSH2 0x1F6B JUMP JUMPDEST PUSH1 0x40 MLOAD DUP1 SWAP2 SUB SWAP1 RETURN JUMPDEST CALLVALUE DUP1 ISZERO PUSH2 0x3FF JUMPI PUSH0 DUP1 REVERT JUMPDEST POP PUSH2 0x41A PUSH1 0x4 DUP1 CALLDATASIZE SUB DUP2 ADD SWAP1 PUSH2 0x415 SWAP2 SWAP1 PUSH2 0x22E2 JUMP JUMPDEST PUSH2 0x123B JUMP JUMPDEST STOP JUMPDEST CALLVALUE DUP1 ISZERO PUSH2 0x427 JUMPI PUSH0 DUP1 REVERT JUMPDEST POP PUSH2 0x442 PUSH1 0x4 DUP1 CALLDATASIZE SUB DUP2 ADD SWAP1 PUSH2 0x43D SWAP2 SWAP1 PUSH2 0x21F9 JUMP JUMPDEST PUSH2 0x12FA JUMP JUMPDEST PUSH1 0x40 MLOAD PUSH2 0x44F SWAP2 SWAP1 PUSH2 0x2251 JUMP JUMPDEST PUSH1 0x40 MLOAD DUP1 SWAP2 SUB SWAP1 RETURN JUMPDEST CALLVALUE DUP1 ISZERO PUSH2 0x463 JUMPI PUSH0 DUP1 REVERT JUMPDEST POP PUSH2 0x47E PUSH1 0x4 DUP1 CALLDATASIZE SUB DUP2 ADD SWAP1 PUSH2 0x479 SWAP2 SWAP1 PUSH2 0x21F9 JUMP JUMPDEST PUSH2 0x136F JUMP JUMPDEST PUSH1 0x40 MLOAD PUSH2 0x48B SWAP2 SWAP1 PUSH2 0x2251 JUMP JUMPDEST PUSH1 0x40 MLOAD DUP1 SWAP2 SUB SWAP1 RETURN JUMPDEST CALLVALUE DUP1 ISZERO PUSH2 0x49F JUMPI PUSH0 DUP1 REVERT JUMPDEST POP PUSH2 0x4BA PUSH1 0x4 DUP1 CALLDATASIZE SUB DUP2 ADD SWAP1 PUSH2 0x4B5 SWAP2 SWAP1 PUSH2 0x2546 JUMP JUMPDEST PUSH2 0x1391 JUMP JUMPDEST PUSH1 0x40 MLOAD PUSH2 0x4C7 SWAP2 SWAP1 PUSH2 0x2589 JUMP JUMPDEST PUSH1 0x40 MLOAD DUP1 SWAP2 SUB SWAP1 RETURN JUMPDEST CALLVALUE DUP1 ISZERO PUSH2 0x4DB JUMPI PUSH0 DUP1 REVERT JUMPDEST POP PUSH2 0x4F6 PUSH1 0x4 DUP1 CALLDATASIZE SUB DUP2 ADD SWAP1 PUSH2 0x4F1 SWAP2 SWAP1 PUSH2 0x25A2 JUMP JUMPDEST PUSH2 0x13A6 JUMP JUMPDEST STOP JUMPDEST CALLVALUE DUP1 ISZERO PUSH2 0x503 JUMPI PUSH0 DUP1 REVERT JUMPDEST POP PUSH2 0x51E PUSH1 0x4 DUP1 CALLDATASIZE SUB DUP2 ADD SWAP1 PUSH2 0x519 SWAP2 SWAP1 PUSH2 0x25E9 JUMP JUMPDEST PUSH2 0x1458 JUMP JUMPDEST PUSH1 0x40 MLOAD PUSH2 0x52B SWAP2 SWAP1 PUSH2 0x2279 JUMP JUMPDEST PUSH1 0x40 MLOAD DUP1 SWAP2 SUB SWAP1 RETURN JUMPDEST CALLVALUE DUP1 ISZERO PUSH2 0x53F JUMPI PUSH0 DUP1 REVERT JUMPDEST POP PUSH2 0x548 PUSH2 0x14DA JUMP JUMPDEST PUSH1 0x40 MLOAD PUSH2 0x555 SWAP2 SWAP1 PUSH2 0x2279 JUMP JUMPDEST PUSH1 0x40 MLOAD DUP1 SWAP2 SUB SWAP1 RETURN JUMPDEST CALLVALUE DUP1 ISZERO PUSH2 0x569 JUMPI PUSH0 DUP1 REVERT JUMPDEST POP PUSH2 0x584 PUSH1 0x4 DUP1 CALLDATASIZE SUB DUP2 ADD SWAP1 PUSH2 0x57F SWAP2 SWAP1 PUSH2 0x2651 JUMP JUMPDEST PUSH2 0x151E JUMP JUMPDEST STOP JUMPDEST PUSH2 0x5A0 PUSH1 0x4 DUP1 CALLDATASIZE SUB DUP2 ADD SWAP1 PUSH2 0x59B SWAP2 SWAP1 PUSH2 0x22E2 JUMP JUMPDEST PUSH2 0x16DC JUMP JUMPDEST STOP JUMPDEST PUSH1 0x60 PUSH1 0x3 DUP1 SLOAD PUSH2 0x5B1 SWAP1 PUSH2 0x26BC JUMP JUMPDEST DUP1 PUSH1 0x1F ADD PUSH1 0x20 DUP1 SWAP2 DIV MUL PUSH1 0x20 ADD PUSH1 0x40 MLOAD SWAP1 DUP2 ADD PUSH1 0x40 MSTORE DUP1 SWAP3 SWAP2 SWAP1 DUP2 DUP2 MSTORE PUSH1 0x20 ADD DUP3 DUP1 SLOAD PUSH2 0x5DD SWAP1 PUSH2 0x26BC JUMP JUMPDEST DUP1 ISZERO PUSH2 0x628 JUMPI DUP1 PUSH1 0x1F LT PUSH2 0x5FF JUMPI PUSH2 0x100 DUP1 DUP4 SLOAD DIV MUL DUP4 MSTORE SWAP2 PUSH1 0x20 ADD SWAP2 PUSH2 0x628 JUMP JUMPDEST DUP3 ADD SWAP2 SWAP1 PUSH0 MSTORE PUSH1 0x20 PUSH0 KECCAK256 SWAP1 JUMPDEST DUP2 SLOAD DUP2 MSTORE SWAP1 PUSH1 0x1 ADD SWAP1 PUSH1 0x20 ADD DUP1 DUP4 GT PUSH2 0x60B JUMPI DUP3 SWAP1 SUB PUSH1 0x1F AND DUP3 ADD SWAP2 JUMPDEST POP POP POP POP POP SWAP1 POP SWAP1 JUMP JUMPDEST PUSH1 0x40 MLOAD DUP1 PUSH1 0x80 ADD PUSH1 0x40 MSTORE DUP1 DUP5 DUP2 MSTORE PUSH1 0x20 ADD DUP3 DUP2 MSTORE PUSH1 0x20 ADD PUSH0 PUSH1 0x3 DUP2 GT ISZERO PUSH2 0x65C JUMPI PUSH2 0x65B PUSH2 0x23FF JUMP JUMPDEST JUMPDEST DUP2 MSTORE PUSH1 0x20 ADD CALLER PUSH20 0xFFFFFFFFFFFFFFFFFFFFFFFFFFFFFFFFFFFFFFFF AND DUP2 MSTORE POP PUSH1 0xF PUSH0 CALLER PUSH20 0xFFFFFFFFFFFFFFFFFFFFFFFFFFFFFFFFFFFFFFFF AND PUSH20 0xFFFFFFFFFFFFFFFFFFFFFFFFFFFFFFFFFFFFFFFF AND DUP2 MSTORE PUSH1 0x20 ADD SWAP1 DUP2 MSTORE PUSH1 0x20 ADD PUSH0 KECCAK256 PUSH0 DUP3 ADD MLOAD DUP2 PUSH0 ADD SWAP1 DUP2 PUSH2 0x6CB SWAP2 SWAP1 PUSH2 0x2889 JUMP JUMPDEST POP PUSH1 0x20 DUP3 ADD MLOAD DUP2 PUSH1 0x1 ADD SWAP1 DUP2 PUSH2 0x6E1 SWAP2 SWAP1 PUSH2 0x2889 JUMP JUMPDEST POP PUSH1 0x40 DUP3 ADD MLOAD DUP2 PUSH1 0x2 ADD PUSH0 PUSH2 0x100 EXP DUP2 SLOAD DUP2 PUSH1 0xFF MUL NOT AND SWAP1 DUP4 PUSH1 0x3 DUP2 GT ISZERO PUSH2 0x70C JUMPI PUSH2 0x70B PUSH2 0x23FF JUMP JUMPDEST JUMPDEST MUL OR SWAP1 SSTORE POP PUSH1 0x60 DUP3 ADD MLOAD DUP2 PUSH1 0x2 ADD PUSH1 0x1 PUSH2 0x100 EXP DUP2 SLOAD DUP2 PUSH20 0xFFFFFFFFFFFFFFFFFFFFFFFFFFFFFFFFFFFFFFFF MUL NOT AND SWAP1 DUP4 PUSH20 0xFFFFFFFFFFFFFFFFFFFFFFFFFFFFFFFFFFFFFFFF AND MUL OR SWAP1 SSTORE POP SWAP1 POP POP DUP2 PUSH1 0x40 MLOAD PUSH1 0x20 ADD PUSH2 0x76C SWAP2 SWAP1 PUSH2 0x1F6B JUMP JUMPDEST PUSH1 0x40 MLOAD PUSH1 0x20 DUP2 DUP4 SUB SUB DUP2 MSTORE SWAP1 PUSH1 0x40 MSTORE DUP1 MLOAD SWAP1 PUSH1 0x20 ADD KECCAK256 PUSH1 0x10 PUSH0 CALLER PUSH20 0xFFFFFFFFFFFFFFFFFFFFFFFFFFFFFFFFFFFFFFFF AND PUSH20 0xFFFFFFFFFFFFFFFFFFFFFFFFFFFFFFFFFFFFFFFF AND DUP2 MSTORE PUSH1 0x20 ADD SWAP1 DUP2 MSTORE PUSH1 0x20 ADD PUSH0 KECCAK256 DUP2 SWAP1 SSTORE POP POP POP POP JUMP JUMPDEST PUSH0 DUP1 PUSH2 0x7D2 PUSH2 0x1889 JUMP JUMPDEST SWAP1 POP PUSH2 0x7DF DUP2 DUP6 DUP6 PUSH2 0x1890 JUMP JUMPDEST PUSH1 0x1 SWAP2 POP POP SWAP3 SWAP2 POP POP JUMP JUMPDEST PUSH0 PUSH1 0x2 SLOAD SWAP1 POP SWAP1 JUMP JUMPDEST PUSH0 DUP1 PUSH2 0x7FD PUSH2 0x1889 JUMP JUMPDEST SWAP1 POP PUSH2 0x80A DUP6 DUP3 DUP6 PUSH2 0x1A53 JUMP JUMPDEST PUSH2 0x815 DUP6 DUP6 DUP6 PUSH2 0x1ADE JUMP JUMPDEST PUSH1 0x1 SWAP2 POP POP SWAP4 SWAP3 POP POP POP JUMP JUMPDEST PUSH1 0x5 PUSH2 0x82B PUSH2 0x14DA JUMP JUMPDEST LT ISZERO PUSH2 0x86C JUMPI PUSH1 0x40 MLOAD PUSH32 0x8C379A000000000000000000000000000000000000000000000000000000000 DUP2 MSTORE PUSH1 0x4 ADD PUSH2 0x863 SWAP1 PUSH2 0x29C8 JUMP JUMPDEST PUSH1 0x40 MLOAD DUP1 SWAP2 SUB SWAP1 REVERT JUMPDEST PUSH1 0xF PUSH2 0x876 PUSH2 0x14DA JUMP JUMPDEST GT ISZERO PUSH2 0x8B7 JUMPI PUSH1 0x40 MLOAD PUSH32 0x8C379A000000000000000000000000000000000000000000000000000000000 DUP2 MSTORE PUSH1 0x4 ADD PUSH2 0x8AE SWAP1 PUSH2 0x2A56 JUMP JUMPDEST PUSH1 0x40 MLOAD DUP1 SWAP2 SUB SWAP1 REVERT JUMPDEST PUSH3 0x186A0 DUP2 GT ISZERO PUSH2 0x8FD JUMPI PUSH1 0x40 MLOAD PUSH32 0x8C379A000000000000000000000000000000000000000000000000000000000 DUP2 MSTORE PUSH1 0x4 ADD PUSH2 0x8F4 SWAP1 PUSH2 0x2AE4 JUMP JUMPDEST PUSH1 0x40 MLOAD DUP1 SWAP2 SUB SWAP1 REVERT JUMPDEST PUSH0 PUSH1 0x7 SLOAD GT PUSH2 0x941 JUMPI PUSH1 0x40 MLOAD PUSH32 0x8C379A000000000000000000000000000000000000000000000000000000000 DUP2 MSTORE PUSH1 0x4 ADD PUSH2 0x938 SWAP1 PUSH2 0x2B72 JUMP JUMPDEST PUSH1 0x40 MLOAD DUP1 SWAP2 SUB SWAP1 REVERT JUMPDEST PUSH0 DUP1 JUMPDEST PUSH1 0x12 DUP1 SLOAD SWAP1 POP DUP2 LT ISZERO PUSH2 0x9D7 JUMPI PUSH1 0x12 DUP2 DUP2 SLOAD DUP2 LT PUSH2 0x965 JUMPI PUSH2 0x964 PUSH2 0x2B90 JUMP JUMPDEST JUMPDEST SWAP1 PUSH0 MSTORE PUSH1 0x20 PUSH0 KECCAK256 ADD PUSH0 SWAP1 SLOAD SWAP1 PUSH2 0x100 EXP SWAP1 DIV PUSH20 0xFFFFFFFFFFFFFFFFFFFFFFFFFFFFFFFFFFFFFFFF AND PUSH20 0xFFFFFFFFFFFFFFFFFFFFFFFFFFFFFFFFFFFFFFFF AND CALLER PUSH20 0xFFFFFFFFFFFFFFFFFFFFFFFFFFFFFFFFFFFFFFFF AND SUB PUSH2 0x9C4 JUMPI PUSH1 0x1 SWAP2 POP JUMPDEST DUP1 DUP1 PUSH2 0x9CF SWAP1 PUSH2 0x2BEA JUMP JUMPDEST SWAP2 POP POP PUSH2 0x944 JUMP JUMPDEST POP DUP1 PUSH2 0xA18 JUMPI PUSH1 0x40 MLOAD PUSH32 0x8C379A000000000000000000000000000000000000000000000000000000000 DUP2 MSTORE PUSH1 0x4 ADD PUSH2 0xA0F SWAP1 PUSH2 0x2C7B JUMP JUMPDEST PUSH1 0x40 MLOAD DUP1 SWAP2 SUB SWAP1 REVERT JUMPDEST PUSH2 0xA62 PUSH1 0xE PUSH0 SWAP1 SLOAD SWAP1 PUSH2 0x100 EXP SWAP1 DIV PUSH20 0xFFFFFFFFFFFFFFFFFFFFFFFFFFFFFFFFFFFFFFFF AND CALLER PUSH2 0xA46 PUSH2 0xAF2 JUMP JUMPDEST PUSH1 0xA PUSH2 0xA52 SWAP2 SWAP1 PUSH2 0x2DC8 JUMP JUMPDEST DUP6 PUSH2 0xA5D SWAP2 SWAP1 PUSH2 0x2E12 JUMP JUMPDEST PUSH2 0x1ADE JUMP JUMPDEST PUSH2 0xA6A PUSH2 0xAF2 JUMP JUMPDEST PUSH1 0xA PUSH2 0xA76 SWAP2 SWAP1 PUSH2 0x2DC8 JUMP JUMPDEST DUP3 PUSH2 0xA81 SWAP2 SWAP1 PUSH2 0x2E12 JUMP JUMPDEST PUSH1 0x7 PUSH0 DUP3 DUP3 SLOAD PUSH2 0xA91 SWAP2 SWAP1 PUSH2 0x2E53 JUMP JUMPDEST SWAP3 POP POP DUP2 SWAP1 SSTORE POP CALLER PUSH20 0xFFFFFFFFFFFFFFFFFFFFFFFFFFFFFFFFFFFFFFFF AND PUSH2 0x8FC PUSH7 0x2AA1EFB94E000 DUP5 PUSH2 0xAC5 SWAP2 SWAP1 PUSH2 0x2E12 JUMP JUMPDEST SWAP1 DUP2 ISZERO MUL SWAP1 PUSH1 0x40 MLOAD PUSH0 PUSH1 0x40 MLOAD DUP1 DUP4 SUB DUP2 DUP6 DUP9 DUP9 CALL SWAP4 POP POP POP POP ISZERO DUP1 ISZERO PUSH2 0xAED JUMPI RETURNDATASIZE PUSH0 DUP1 RETURNDATACOPY RETURNDATASIZE PUSH0 REVERT JUMPDEST POP POP POP JUMP JUMPDEST PUSH0 PUSH1 0xC SWAP1 POP SWAP1 JUMP JUMPDEST PUSH0 DUP1 PUSH2 0xB04 PUSH2 0x1889 JUMP JUMPDEST SWAP1 POP PUSH2 0xB25 DUP2 DUP6 DUP6 PUSH2 0xB16 DUP6 DUP10 PUSH2 0x1458 JUMP JUMPDEST PUSH2 0xB20 SWAP2 SWAP1 PUSH2 0x2E86 JUMP JUMPDEST PUSH2 0x1890 JUMP JUMPDEST PUSH1 0x1 SWAP2 POP POP SWAP3 SWAP2 POP POP JUMP JUMPDEST PUSH2 0xB38 PUSH2 0x1E31 JUMP JUMPDEST PUSH0 PUSH1 0xF PUSH0 CALLER PUSH20 0xFFFFFFFFFFFFFFFFFFFFFFFFFFFFFFFFFFFFFFFF AND PUSH20 0xFFFFFFFFFFFFFFFFFFFFFFFFFFFFFFFFFFFFFFFF AND DUP2 MSTORE PUSH1 0x20 ADD SWAP1 DUP2 MSTORE PUSH1 0x20 ADD PUSH0 KECCAK256 PUSH1 0x1 ADD DUP1 SLOAD PUSH2 0xB84 SWAP1 PUSH2 0x26BC JUMP JUMPDEST DUP1 PUSH1 0x1F ADD PUSH1 0x20 DUP1 SWAP2 DIV MUL PUSH1 0x20 ADD PUSH1 0x40 MLOAD SWAP1 DUP2 ADD PUSH1 0x40 MSTORE DUP1 SWAP3 SWAP2 SWAP1 DUP2 DUP2 MSTORE PUSH1 0x20 ADD DUP3 DUP1 SLOAD PUSH2 0xBB0 SWAP1 PUSH2 0x26BC JUMP JUMPDEST DUP1 ISZERO PUSH2 0xBFB JUMPI DUP1 PUSH1 0x1F LT PUSH2 0xBD2 JUMPI PUSH2 0x100 DUP1 DUP4 SLOAD DIV MUL DUP4 MSTORE SWAP2 PUSH1 0x20 ADD SWAP2 PUSH2 0xBFB JUMP JUMPDEST DUP3 ADD SWAP2 SWAP1 PUSH0 MSTORE PUSH1 0x20 PUSH0 KECCAK256 SWAP1 JUMPDEST DUP2 SLOAD DUP2 MSTORE SWAP1 PUSH1 0x1 ADD SWAP1 PUSH1 0x20 ADD DUP1 DUP4 GT PUSH2 0xBDE JUMPI DUP3 SWAP1 SUB PUSH1 0x1F AND DUP3 ADD SWAP2 JUMPDEST POP POP POP POP POP SWAP1 POP DUP1 PUSH1 0x40 MLOAD PUSH1 0x20 ADD PUSH2 0xC13 SWAP2 SWAP1 PUSH2 0x1F6B JUMP JUMPDEST PUSH1 0x40 MLOAD PUSH1 0x20 DUP2 DUP4 SUB SUB DUP2 MSTORE SWAP1 PUSH1 0x40 MSTORE DUP1 MLOAD SWAP1 PUSH1 0x20 ADD KECCAK256 DUP5 PUSH1 0x40 MLOAD PUSH1 0x20 ADD PUSH2 0xC3A SWAP2 SWAP1 PUSH2 0x1F6B JUMP JUMPDEST PUSH1 0x40 MLOAD PUSH1 0x20 DUP2 DUP4 SUB SUB DUP2 MSTORE SWAP1 PUSH1 0x40 MSTORE DUP1 MLOAD SWAP1 PUSH1 0x20 ADD KECCAK256 EQ PUSH2 0xC59 JUMPI PUSH0 DUP1 REVERT JUMPDEST PUSH1 0x10 PUSH0 CALLER PUSH20 0xFFFFFFFFFFFFFFFFFFFFFFFFFFFFFFFFFFFFFFFF AND PUSH20 0xFFFFFFFFFFFFFFFFFFFFFFFFFFFFFFFFFFFFFFFF AND DUP2 MSTORE PUSH1 0x20 ADD SWAP1 DUP2 MSTORE PUSH1 0x20 ADD PUSH0 KECCAK256 SLOAD DUP4 PUSH1 0x40 MLOAD PUSH1 0x20 ADD PUSH2 0xCA8 SWAP2 SWAP1 PUSH2 0x1F6B JUMP JUMPDEST PUSH1 0x40 MLOAD PUSH1 0x20 DUP2 DUP4 SUB SUB DUP2 MSTORE SWAP1 PUSH1 0x40 MSTORE DUP1 MLOAD SWAP1 PUSH1 0x20 ADD KECCAK256 EQ PUSH2 0xCC7 JUMPI PUSH0 DUP1 REVERT JUMPDEST PUSH1 0xF PUSH0 CALLER PUSH20 0xFFFFFFFFFFFFFFFFFFFFFFFFFFFFFFFFFFFFFFFF AND PUSH20 0xFFFFFFFFFFFFFFFFFFFFFFFFFFFFFFFFFFFFFFFF AND DUP2 MSTORE PUSH1 0x20 ADD SWAP1 DUP2 MSTORE PUSH1 0x20 ADD PUSH0 KECCAK256 PUSH1 0x40 MLOAD DUP1 PUSH1 0x80 ADD PUSH1 0x40 MSTORE SWAP1 DUP2 PUSH0 DUP3 ADD DUP1 SLOAD PUSH2 0xD1E SWAP1 PUSH2 0x26BC JUMP JUMPDEST DUP1 PUSH1 0x1F ADD PUSH1 0x20 DUP1 SWAP2 DIV MUL PUSH1 0x20 ADD PUSH1 0x40 MLOAD SWAP1 DUP2 ADD PUSH1 0x40 MSTORE DUP1 SWAP3 SWAP2 SWAP1 DUP2 DUP2 MSTORE PUSH1 0x20 ADD DUP3 DUP1 SLOAD PUSH2 0xD4A SWAP1 PUSH2 0x26BC JUMP JUMPDEST DUP1 ISZERO PUSH2 0xD95 JUMPI DUP1 PUSH1 0x1F LT PUSH2 0xD6C JUMPI PUSH2 0x100 DUP1 DUP4 SLOAD DIV MUL DUP4 MSTORE SWAP2 PUSH1 0x20 ADD SWAP2 PUSH2 0xD95 JUMP JUMPDEST DUP3 ADD SWAP2 SWAP1 PUSH0 MSTORE PUSH1 0x20 PUSH0 KECCAK256 SWAP1 JUMPDEST DUP2 SLOAD DUP2 MSTORE SWAP1 PUSH1 0x1 ADD SWAP1 PUSH1 0x20 ADD DUP1 DUP4 GT PUSH2 0xD78 JUMPI DUP3 SWAP1 SUB PUSH1 0x1F AND DUP3 ADD SWAP2 JUMPDEST POP POP POP POP POP DUP2 MSTORE PUSH1 0x20 ADD PUSH1 0x1 DUP3 ADD DUP1 SLOAD PUSH2 0xDAE SWAP1 PUSH2 0x26BC JUMP JUMPDEST DUP1 PUSH1 0x1F ADD PUSH1 0x20 DUP1 SWAP2 DIV MUL PUSH1 0x20 ADD PUSH1 0x40 MLOAD SWAP1 DUP2 ADD PUSH1 0x40 MSTORE DUP1 SWAP3 SWAP2 SWAP1 DUP2 DUP2 MSTORE PUSH1 0x20 ADD DUP3 DUP1 SLOAD PUSH2 0xDDA SWAP1 PUSH2 0x26BC JUMP JUMPDEST DUP1 ISZERO PUSH2 0xE25 JUMPI DUP1 PUSH1 0x1F LT PUSH2 0xDFC JUMPI PUSH2 0x100 DUP1 DUP4 SLOAD DIV MUL DUP4 MSTORE SWAP2 PUSH1 0x20 ADD SWAP2 PUSH2 0xE25 JUMP JUMPDEST DUP3 ADD SWAP2 SWAP1 PUSH0 MSTORE PUSH1 0x20 PUSH0 KECCAK256 SWAP1 JUMPDEST DUP2 SLOAD DUP2 MSTORE SWAP1 PUSH1 0x1 ADD SWAP1 PUSH1 0x20 ADD DUP1 DUP4 GT PUSH2 0xE08 JUMPI DUP3 SWAP1 SUB PUSH1 0x1F AND DUP3 ADD SWAP2 JUMPDEST POP POP POP POP POP DUP2 MSTORE PUSH1 0x20 ADD PUSH1 0x2 DUP3 ADD PUSH0 SWAP1 SLOAD SWAP1 PUSH2 0x100 EXP SWAP1 DIV PUSH1 0xFF AND PUSH1 0x3 DUP2 GT ISZERO PUSH2 0xE52 JUMPI PUSH2 0xE51 PUSH2 0x23FF JUMP JUMPDEST JUMPDEST PUSH1 0x3 DUP2 GT ISZERO PUSH2 0xE64 JUMPI PUSH2 0xE63 PUSH2 0x23FF JUMP JUMPDEST JUMPDEST DUP2 MSTORE PUSH1 0x20 ADD PUSH1 0x2 DUP3 ADD PUSH1 0x1 SWAP1 SLOAD SWAP1 PUSH2 0x100 EXP SWAP1 DIV PUSH20 0xFFFFFFFFFFFFFFFFFFFFFFFFFFFFFFFFFFFFFFFF AND PUSH20 0xFFFFFFFFFFFFFFFFFFFFFFFFFFFFFFFFFFFFFFFF AND PUSH20 0xFFFFFFFFFFFFFFFFFFFFFFFFFFFFFFFFFFFFFFFF AND DUP2 MSTORE POP POP SWAP2 POP POP SWAP3 SWAP2 POP POP JUMP JUMPDEST PUSH1 0x2 DUP1 PUSH1 0x3 DUP2 GT ISZERO PUSH2 0xEDC JUMPI PUSH2 0xEDB PUSH2 0x23FF JUMP JUMPDEST JUMPDEST PUSH1 0xF PUSH0 CALLER PUSH20 0xFFFFFFFFFFFFFFFFFFFFFFFFFFFFFFFFFFFFFFFF AND PUSH20 0xFFFFFFFFFFFFFFFFFFFFFFFFFFFFFFFFFFFFFFFF AND DUP2 MSTORE PUSH1 0x20 ADD SWAP1 DUP2 MSTORE PUSH1 0x20 ADD PUSH0 KECCAK256 PUSH1 0x2 ADD PUSH0 SWAP1 SLOAD SWAP1 PUSH2 0x100 EXP SWAP1 DIV PUSH1 0xFF AND PUSH1 0x3 DUP2 GT ISZERO PUSH2 0xF3B JUMPI PUSH2 0xF3A PUSH2 0x23FF JUMP JUMPDEST JUMPDEST EQ PUSH2 0xF7B JUMPI PUSH1 0x40 MLOAD PUSH32 0x8C379A000000000000000000000000000000000000000000000000000000000 DUP2 MSTORE PUSH1 0x4 ADD PUSH2 0xF72 SWAP1 PUSH2 0x2F4F JUMP JUMPDEST PUSH1 0x40 MLOAD DUP1 SWAP2 SUB SWAP1 REVERT JUMPDEST PUSH2 0xF86 CALLER DUP4 DUP6 PUSH2 0x1ADE JUMP JUMPDEST PUSH2 0xF8E PUSH2 0xAF2 JUMP JUMPDEST PUSH1 0xA PUSH2 0xF9A SWAP2 SWAP1 PUSH2 0x2DC8 JUMP JUMPDEST DUP4 PUSH2 0xFA5 SWAP2 SWAP1 PUSH2 0x2E12 JUMP JUMPDEST PUSH1 0x8 PUSH0 DUP3 DUP3 SLOAD PUSH2 0xFB5 SWAP2 SWAP1 PUSH2 0x2E53 JUMP JUMPDEST SWAP3 POP POP DUP2 SWAP1 SSTORE POP POP POP POP JUMP JUMPDEST PUSH1 0x5 PUSH2 0xFCB PUSH2 0x14DA JUMP JUMPDEST GT ISZERO PUSH2 0xFEC JUMPI PUSH1 0x6 SLOAD PUSH1 0x9 PUSH0 DUP3 DUP3 SLOAD PUSH2 0xFE4 SWAP2 SWAP1 PUSH2 0x2E86 JUMP JUMPDEST SWAP3 POP POP DUP2 SWAP1 SSTORE POP JUMPDEST PUSH1 0xF PUSH2 0xFF6 PUSH2 0x14DA JUMP JUMPDEST GT ISZERO PUSH2 0x1017 JUMPI PUSH1 0x7 SLOAD PUSH1 0x9 PUSH0 DUP3 DUP3 SLOAD PUSH2 0x100F SWAP2 SWAP1 PUSH2 0x2E86 JUMP JUMPDEST SWAP3 POP POP DUP2 SWAP1 SSTORE POP JUMPDEST JUMP JUMPDEST PUSH1 0x3C DUP2 PUSH2 0x1026 SWAP2 SWAP1 PUSH2 0x2E12 JUMP JUMPDEST PUSH1 0xC PUSH0 DUP3 DUP3 SLOAD PUSH2 0x1036 SWAP2 SWAP1 PUSH2 0x2E86 JUMP JUMPDEST SWAP3 POP POP DUP2 SWAP1 SSTORE POP POP JUMP JUMPDEST PUSH0 DUP1 PUSH0 DUP4 PUSH20 0xFFFFFFFFFFFFFFFFFFFFFFFFFFFFFFFFFFFFFFFF AND PUSH20 0xFFFFFFFFFFFFFFFFFFFFFFFFFFFFFFFFFFFFFFFF AND DUP2 MSTORE PUSH1 0x20 ADD SWAP1 DUP2 MSTORE PUSH1 0x20 ADD PUSH0 KECCAK256 SLOAD SWAP1 POP SWAP2 SWAP1 POP JUMP JUMPDEST PUSH1 0x3 DUP1 PUSH1 0x3 DUP2 GT ISZERO PUSH2 0x109A JUMPI PUSH2 0x1099 PUSH2 0x23FF JUMP JUMPDEST JUMPDEST PUSH1 0xF PUSH0 CALLER PUSH20 0xFFFFFFFFFFFFFFFFFFFFFFFFFFFFFFFFFFFFFFFF AND PUSH20 0xFFFFFFFFFFFFFFFFFFFFFFFFFFFFFFFFFFFFFFFF AND DUP2 MSTORE PUSH1 0x20 ADD SWAP1 DUP2 MSTORE PUSH1 0x20 ADD PUSH0 KECCAK256 PUSH1 0x2 ADD PUSH0 SWAP1 SLOAD SWAP1 PUSH2 0x100 EXP SWAP1 DIV PUSH1 0xFF AND PUSH1 0x3 DUP2 GT ISZERO PUSH2 0x10F9 JUMPI PUSH2 0x10F8 PUSH2 0x23FF JUMP JUMPDEST JUMPDEST EQ PUSH2 0x1139 JUMPI PUSH1 0x40 MLOAD PUSH32 0x8C379A000000000000000000000000000000000000000000000000000000000 DUP2 MSTORE PUSH1 0x4 ADD PUSH2 0x1130 SWAP1 PUSH2 0x2F4F JUMP JUMPDEST PUSH1 0x40 MLOAD DUP1 SWAP2 SUB SWAP1 REVERT JUMPDEST PUSH0 PUSH1 0x9 SLOAD GT PUSH2 0x117D JUMPI PUSH1 0x40 MLOAD PUSH32 0x8C379A000000000000000000000000000000000000000000000000000000000 DUP2 MSTORE PUSH1 0x4 ADD PUSH2 0x1174 SWAP1 PUSH2 0x2FDD JUMP JUMPDEST PUSH1 0x40 MLOAD DUP1 SWAP2 SUB SWAP1 REVERT JUMPDEST PUSH2 0x11A6 CALLER DUP4 PUSH2 0x118A PUSH2 0xAF2 JUMP JUMPDEST PUSH1 0xA PUSH2 0x1196 SWAP2 SWAP1 PUSH2 0x2DC8 JUMP JUMPDEST DUP7 PUSH2 0x11A1 SWAP2 SWAP1 PUSH2 0x2E12 JUMP JUMPDEST PUSH2 0x1ADE JUMP JUMPDEST POP POP POP JUMP JUMPDEST PUSH1 0x60 PUSH1 0x4 DUP1 SLOAD PUSH2 0x11BA SWAP1 PUSH2 0x26BC JUMP JUMPDEST DUP1 PUSH1 0x1F ADD PUSH1 0x20 DUP1 SWAP2 DIV MUL PUSH1 0x20 ADD PUSH1 0x40 MLOAD SWAP1 DUP2 ADD PUSH1 0x40 MSTORE DUP1 SWAP3 SWAP2 SWAP1 DUP2 DUP2 MSTORE PUSH1 0x20 ADD DUP3 DUP1 SLOAD PUSH2 0x11E6 SWAP1 PUSH2 0x26BC JUMP JUMPDEST DUP1 ISZERO PUSH2 0x1231 JUMPI DUP1 PUSH1 0x1F LT PUSH2 0x1208 JUMPI PUSH2 0x100 DUP1 DUP4 SLOAD DIV MUL DUP4 MSTORE SWAP2 PUSH1 0x20 ADD SWAP2 PUSH2 0x1231 JUMP JUMPDEST DUP3 ADD SWAP2 SWAP1 PUSH0 MSTORE PUSH1 0x20 PUSH0 KECCAK256 SWAP1 JUMPDEST DUP2 SLOAD DUP2 MSTORE SWAP1 PUSH1 0x1 ADD SWAP1 PUSH1 0x20 ADD DUP1 DUP4 GT PUSH2 0x1214 JUMPI DUP3 SWAP1 SUB PUSH1 0x1F AND DUP3 ADD SWAP2 JUMPDEST POP POP POP POP POP SWAP1 POP SWAP1 JUMP JUMPDEST PUSH1 0x2 DUP1 PUSH1 0x3 DUP2 GT ISZERO PUSH2 0x1250 JUMPI PUSH2 0x124F PUSH2 0x23FF JUMP JUMPDEST JUMPDEST PUSH1 0xF PUSH0 CALLER PUSH20 0xFFFFFFFFFFFFFFFFFFFFFFFFFFFFFFFFFFFFFFFF AND PUSH20 0xFFFFFFFFFFFFFFFFFFFFFFFFFFFFFFFFFFFFFFFF AND DUP2 MSTORE PUSH1 0x20 ADD SWAP1 DUP2 MSTORE PUSH1 0x20 ADD PUSH0 KECCAK256 PUSH1 0x2 ADD PUSH0 SWAP1 SLOAD SWAP1 PUSH2 0x100 EXP SWAP1 DIV PUSH1 0xFF AND PUSH1 0x3 DUP2 GT ISZERO PUSH2 0x12AF JUMPI PUSH2 0x12AE PUSH2 0x23FF JUMP JUMPDEST JUMPDEST EQ PUSH2 0x12EF JUMPI PUSH1 0x40 MLOAD PUSH32 0x8C379A000000000000000000000000000000000000000000000000000000000 DUP2 MSTORE PUSH1 0x4 ADD PUSH2 0x12E6 SWAP1 PUSH2 0x2F4F JUMP JUMPDEST PUSH1 0x40 MLOAD DUP1 SWAP2 SUB SWAP1 REVERT JUMPDEST DUP2 PUSH1 0xA DUP2 SWAP1 SSTORE POP POP POP JUMP JUMPDEST PUSH0 DUP1 PUSH2 0x1304 PUSH2 0x1889 JUMP JUMPDEST SWAP1 POP PUSH0 PUSH2 0x1311 DUP3 DUP7 PUSH2 0x1458 JUMP JUMPDEST SWAP1 POP DUP4 DUP2 LT ISZERO PUSH2 0x1356 JUMPI PUSH1 0x40 MLOAD PUSH32 0x8C379A000000000000000000000000000000000000000000000000000000000 DUP2 MSTORE PUSH1 0x4 ADD PUSH2 0x134D SWAP1 PUSH2 0x306B JUMP JUMPDEST PUSH1 0x40 MLOAD DUP1 SWAP2 SUB SWAP1 REVERT JUMPDEST PUSH2 0x1363 DUP3 DUP7 DUP7 DUP5 SUB PUSH2 0x1890 JUMP JUMPDEST PUSH1 0x1 SWAP3 POP POP POP SWAP3 SWAP2 POP POP JUMP JUMPDEST PUSH0 DUP1 PUSH2 0x1379 PUSH2 0x1889 JUMP JUMPDEST SWAP1 POP PUSH2 0x1386 DUP2 DUP6 DUP6 PUSH2 0x1ADE JUMP JUMPDEST PUSH1 0x1 SWAP2 POP POP SWAP3 SWAP2 POP POP JUMP JUMPDEST PUSH1 0x10 PUSH1 0x20 MSTORE DUP1 PUSH0 MSTORE PUSH1 0x40 PUSH0 KECCAK256 PUSH0 SWAP2 POP SWAP1 POP SLOAD DUP2 JUMP JUMPDEST PUSH1 0x11 PUSH1 0x40 MLOAD DUP1 PUSH1 0x40 ADD PUSH1 0x40 MSTORE DUP1 DUP4 DUP2 MSTORE PUSH1 0x20 ADD CALLER PUSH20 0xFFFFFFFFFFFFFFFFFFFFFFFFFFFFFFFFFFFFFFFF AND DUP2 MSTORE POP SWAP1 DUP1 PUSH1 0x1 DUP2 SLOAD ADD DUP1 DUP3 SSTORE DUP1 SWAP2 POP POP PUSH1 0x1 SWAP1 SUB SWAP1 PUSH0 MSTORE PUSH1 0x20 PUSH0 KECCAK256 SWAP1 PUSH1 0x2 MUL ADD PUSH0 SWAP1 SWAP2 SWAP1 SWAP2 SWAP1 SWAP2 POP PUSH0 DUP3 ADD MLOAD DUP2 PUSH0 ADD SWAP1 DUP2 PUSH2 0x140C SWAP2 SWAP1 PUSH2 0x2889 JUMP JUMPDEST POP PUSH1 0x20 DUP3 ADD MLOAD DUP2 PUSH1 0x1 ADD PUSH0 PUSH2 0x100 EXP DUP2 SLOAD DUP2 PUSH20 0xFFFFFFFFFFFFFFFFFFFFFFFFFFFFFFFFFFFFFFFF MUL NOT AND SWAP1 DUP4 PUSH20 0xFFFFFFFFFFFFFFFFFFFFFFFFFFFFFFFFFFFFFFFF AND MUL OR SWAP1 SSTORE POP POP POP POP JUMP JUMPDEST PUSH0 PUSH1 0x1 PUSH0 DUP5 PUSH20 0xFFFFFFFFFFFFFFFFFFFFFFFFFFFFFFFFFFFFFFFF AND PUSH20 0xFFFFFFFFFFFFFFFFFFFFFFFFFFFFFFFFFFFFFFFF AND DUP2 MSTORE PUSH1 0x20 ADD SWAP1 DUP2 MSTORE PUSH1 0x20 ADD PUSH0 KECCAK256 PUSH0 DUP4 PUSH20 0xFFFFFFFFFFFFFFFFFFFFFFFFFFFFFFFFFFFFFFFF AND PUSH20 0xFFFFFFFFFFFFFFFFFFFFFFFFFFFFFFFFFFFFFFFF AND DUP2 MSTORE PUSH1 0x20 ADD SWAP1 DUP2 MSTORE PUSH1 0x20 ADD PUSH0 KECCAK256 SLOAD SWAP1 POP SWAP3 SWAP2 POP POP JUMP JUMPDEST PUSH0 PUSH1 0xC SLOAD TIMESTAMP PUSH2 0x14E9 SWAP2 SWAP1 PUSH2 0x2E86 JUMP JUMPDEST PUSH1 0xD DUP2 SWAP1 SSTORE POP PUSH0 PUSH1 0x3C PUSH1 0xB SLOAD PUSH1 0xD SLOAD PUSH2 0x1502 SWAP2 SWAP1 PUSH2 0x2E53 JUMP JUMPDEST PUSH2 0x150C SWAP2 SWAP1 PUSH2 0x30B6 JUMP JUMPDEST SWAP1 POP PUSH2 0x1517 DUP2 PUSH2 0x1D4A JUMP JUMPDEST DUP1 SWAP2 POP POP SWAP1 JUMP JUMPDEST PUSH1 0x1 DUP1 PUSH1 0x3 DUP2 GT ISZERO PUSH2 0x1533 JUMPI PUSH2 0x1532 PUSH2 0x23FF JUMP JUMPDEST JUMPDEST PUSH1 0xF PUSH0 CALLER PUSH20 0xFFFFFFFFFFFFFFFFFFFFFFFFFFFFFFFFFFFFFFFF AND PUSH20 0xFFFFFFFFFFFFFFFFFFFFFFFFFFFFFFFFFFFFFFFF AND DUP2 MSTORE PUSH1 0x20 ADD SWAP1 DUP2 MSTORE PUSH1 0x20 ADD PUSH0 KECCAK256 PUSH1 0x2 ADD PUSH0 SWAP1 SLOAD SWAP1 PUSH2 0x100 EXP SWAP1 DIV PUSH1 0xFF AND PUSH1 0x3 DUP2 GT ISZERO PUSH2 0x1592 JUMPI PUSH2 0x1591 PUSH2 0x23FF JUMP JUMPDEST JUMPDEST EQ PUSH2 0x15D2 JUMPI PUSH1 0x40 MLOAD PUSH32 0x8C379A000000000000000000000000000000000000000000000000000000000 DUP2 MSTORE PUSH1 0x4 ADD PUSH2 0x15C9 SWAP1 PUSH2 0x2F4F JUMP JUMPDEST PUSH1 0x40 MLOAD DUP1 SWAP2 SUB SWAP1 REVERT JUMPDEST DUP2 ISZERO PUSH2 0x167F JUMPI PUSH1 0x12 PUSH1 0x11 DUP5 DUP2 SLOAD DUP2 LT PUSH2 0x15EE JUMPI PUSH2 0x15ED PUSH2 0x2B90 JUMP JUMPDEST JUMPDEST SWAP1 PUSH0 MSTORE PUSH1 0x20 PUSH0 KECCAK256 SWAP1 PUSH1 0x2 MUL ADD PUSH1 0x1 ADD PUSH0 SWAP1 SLOAD SWAP1 PUSH2 0x100 EXP SWAP1 DIV PUSH20 0xFFFFFFFFFFFFFFFFFFFFFFFFFFFFFFFFFFFFFFFF AND SWAP1 DUP1 PUSH1 0x1 DUP2 SLOAD ADD DUP1 DUP3 SSTORE DUP1 SWAP2 POP POP PUSH1 0x1 SWAP1 SUB SWAP1 PUSH0 MSTORE PUSH1 0x20 PUSH0 KECCAK256 ADD PUSH0 SWAP1 SWAP2 SWAP1 SWAP2 SWAP1 SWAP2 PUSH2 0x100 EXP DUP2 SLOAD DUP2 PUSH20 0xFFFFFFFFFFFFFFFFFFFFFFFFFFFFFFFFFFFFFFFF MUL NOT AND SWAP1 DUP4 PUSH20 0xFFFFFFFFFFFFFFFFFFFFFFFFFFFFFFFFFFFFFFFF AND MUL OR SWAP1 SSTORE POP PUSH2 0x16D7 JUMP JUMPDEST PUSH1 0x11 DUP4 DUP2 SLOAD DUP2 LT PUSH2 0x1693 JUMPI PUSH2 0x1692 PUSH2 0x2B90 JUMP JUMPDEST JUMPDEST SWAP1 PUSH0 MSTORE PUSH1 0x20 PUSH0 KECCAK256 SWAP1 PUSH1 0x2 MUL ADD PUSH0 DUP1 DUP3 ADD PUSH0 PUSH2 0x16AE SWAP2 SWAP1 PUSH2 0x1E7F JUMP JUMPDEST PUSH1 0x1 DUP3 ADD PUSH0 PUSH2 0x100 EXP DUP2 SLOAD SWAP1 PUSH20 0xFFFFFFFFFFFFFFFFFFFFFFFFFFFFFFFFFFFFFFFF MUL NOT AND SWAP1 SSTORE POP POP JUMPDEST POP POP POP JUMP JUMPDEST PUSH1 0xA PUSH2 0x16E6 PUSH2 0x14DA JUMP JUMPDEST LT ISZERO PUSH2 0x1727 JUMPI PUSH1 0x40 MLOAD PUSH32 0x8C379A000000000000000000000000000000000000000000000000000000000 DUP2 MSTORE PUSH1 0x4 ADD PUSH2 0x171E SWAP1 PUSH2 0x3156 JUMP JUMPDEST PUSH1 0x40 MLOAD DUP1 SWAP2 SUB SWAP1 REVERT JUMPDEST PUSH2 0x1388 DUP2 GT ISZERO PUSH2 0x176C JUMPI PUSH1 0x40 MLOAD PUSH32 0x8C379A000000000000000000000000000000000000000000000000000000000 DUP2 MSTORE PUSH1 0x4 ADD PUSH2 0x1763 SWAP1 PUSH2 0x31E4 JUMP JUMPDEST PUSH1 0x40 MLOAD DUP1 SWAP2 SUB SWAP1 REVERT JUMPDEST PUSH0 PUSH1 0x8 SLOAD GT PUSH2 0x17B0 JUMPI PUSH1 0x40 MLOAD PUSH32 0x8C379A000000000000000000000000000000000000000000000000000000000 DUP2 MSTORE PUSH1 0x4 ADD PUSH2 0x17A7 SWAP1 PUSH2 0x3272 JUMP JUMPDEST PUSH1 0x40 MLOAD DUP1 SWAP2 SUB SWAP1 REVERT JUMPDEST PUSH2 0x17FA PUSH1 0xE PUSH0 SWAP1 SLOAD SWAP1 PUSH2 0x100 EXP SWAP1 DIV PUSH20 0xFFFFFFFFFFFFFFFFFFFFFFFFFFFFFFFFFFFFFFFF AND CALLER PUSH2 0x17DE PUSH2 0xAF2 JUMP JUMPDEST PUSH1 0xA PUSH2 0x17EA SWAP2 SWAP1 PUSH2 0x2DC8 JUMP JUMPDEST DUP5 PUSH2 0x17F5 SWAP2 SWAP1 PUSH2 0x2E12 JUMP JUMPDEST PUSH2 0x1ADE JUMP JUMPDEST PUSH2 0x1802 PUSH2 0xAF2 JUMP JUMPDEST PUSH1 0xA PUSH2 0x180E SWAP2 SWAP1 PUSH2 0x2DC8 JUMP JUMPDEST DUP2 PUSH2 0x1819 SWAP2 SWAP1 PUSH2 0x2E12 JUMP JUMPDEST PUSH1 0x8 PUSH0 DUP3 DUP3 SLOAD PUSH2 0x1829 SWAP2 SWAP1 PUSH2 0x2E53 JUMP JUMPDEST SWAP3 POP POP DUP2 SWAP1 SSTORE POP CALLER PUSH20 0xFFFFFFFFFFFFFFFFFFFFFFFFFFFFFFFFFFFFFFFF AND PUSH2 0x8FC PUSH7 0x38D7EA4C68000 DUP4 PUSH2 0x185D SWAP2 SWAP1 PUSH2 0x2E12 JUMP JUMPDEST SWAP1 DUP2 ISZERO MUL SWAP1 PUSH1 0x40 MLOAD PUSH0 PUSH1 0x40 MLOAD DUP1 DUP4 SUB DUP2 DUP6 DUP9 DUP9 CALL SWAP4 POP POP POP POP ISZERO DUP1 ISZERO PUSH2 0x1885 JUMPI RETURNDATASIZE PUSH0 DUP1 RETURNDATACOPY RETURNDATASIZE PUSH0 REVERT JUMPDEST POP POP JUMP JUMPDEST PUSH0 CALLER SWAP1 POP SWAP1 JUMP JUMPDEST PUSH0 PUSH20 0xFFFFFFFFFFFFFFFFFFFFFFFFFFFFFFFFFFFFFFFF AND DUP4 PUSH20 0xFFFFFFFFFFFFFFFFFFFFFFFFFFFFFFFFFFFFFFFF AND SUB PUSH2 0x18FE JUMPI PUSH1 0x40 MLOAD PUSH32 0x8C379A000000000000000000000000000000000000000000000000000000000 DUP2 MSTORE PUSH1 0x4 ADD PUSH2 0x18F5 SWAP1 PUSH2 0x3300 JUMP JUMPDEST PUSH1 0x40 MLOAD DUP1 SWAP2 SUB SWAP1 REVERT JUMPDEST PUSH0 PUSH20 0xFFFFFFFFFFFFFFFFFFFFFFFFFFFFFFFFFFFFFFFF AND DUP3 PUSH20 0xFFFFFFFFFFFFFFFFFFFFFFFFFFFFFFFFFFFFFFFF AND SUB PUSH2 0x196C JUMPI PUSH1 0x40 MLOAD PUSH32 0x8C379A000000000000000000000000000000000000000000000000000000000 DUP2 MSTORE PUSH1 0x4 ADD PUSH2 0x1963 SWAP1 PUSH2 0x338E JUMP JUMPDEST PUSH1 0x40 MLOAD DUP1 SWAP2 SUB SWAP1 REVERT JUMPDEST DUP1 PUSH1 0x1 PUSH0 DUP6 PUSH20 0xFFFFFFFFFFFFFFFFFFFFFFFFFFFFFFFFFFFFFFFF AND PUSH20 0xFFFFFFFFFFFFFFFFFFFFFFFFFFFFFFFFFFFFFFFF AND DUP2 MSTORE PUSH1 0x20 ADD SWAP1 DUP2 MSTORE PUSH1 0x20 ADD PUSH0 KECCAK256 PUSH0 DUP5 PUSH20 0xFFFFFFFFFFFFFFFFFFFFFFFFFFFFFFFFFFFFFFFF AND PUSH20 0xFFFFFFFFFFFFFFFFFFFFFFFFFFFFFFFFFFFFFFFF AND DUP2 MSTORE PUSH1 0x20 ADD SWAP1 DUP2 MSTORE PUSH1 0x20 ADD PUSH0 KECCAK256 DUP2 SWAP1 SSTORE POP DUP2 PUSH20 0xFFFFFFFFFFFFFFFFFFFFFFFFFFFFFFFFFFFFFFFF AND DUP4 PUSH20 0xFFFFFFFFFFFFFFFFFFFFFFFFFFFFFFFFFFFFFFFF AND PUSH32 0x8C5BE1E5EBEC7D5BD14F71427D1E84F3DD0314C0F7B2291E5B200AC8C7C3B925 DUP4 PUSH1 0x40 MLOAD PUSH2 0x1A46 SWAP2 SWAP1 PUSH2 0x2279 JUMP JUMPDEST PUSH1 0x40 MLOAD DUP1 SWAP2 SUB SWAP1 LOG3 POP POP POP JUMP JUMPDEST PUSH0 PUSH2 0x1A5E DUP5 DUP5 PUSH2 0x1458 JUMP JUMPDEST SWAP1 POP PUSH32 0xFFFFFFFFFFFFFFFFFFFFFFFFFFFFFFFFFFFFFFFFFFFFFFFFFFFFFFFFFFFFFFFF DUP2 EQ PUSH2 0x1AD8 JUMPI DUP2 DUP2 LT ISZERO PUSH2 0x1ACA JUMPI PUSH1 0x40 MLOAD PUSH32 0x8C379A000000000000000000000000000000000000000000000000000000000 DUP2 MSTORE PUSH1 0x4 ADD PUSH2 0x1AC1 SWAP1 PUSH2 0x33F6 JUMP JUMPDEST PUSH1 0x40 MLOAD DUP1 SWAP2 SUB SWAP1 REVERT JUMPDEST PUSH2 0x1AD7 DUP5 DUP5 DUP5 DUP5 SUB PUSH2 0x1890 JUMP JUMPDEST JUMPDEST POP POP POP POP JUMP JUMPDEST PUSH0 PUSH20 0xFFFFFFFFFFFFFFFFFFFFFFFFFFFFFFFFFFFFFFFF AND DUP4 PUSH20 0xFFFFFFFFFFFFFFFFFFFFFFFFFFFFFFFFFFFFFFFF AND SUB PUSH2 0x1B4C JUMPI PUSH1 0x40 MLOAD PUSH32 0x8C379A000000000000000000000000000000000000000000000000000000000 DUP2 MSTORE PUSH1 0x4 ADD PUSH2 0x1B43 SWAP1 PUSH2 0x3484 JUMP JUMPDEST PUSH1 0x40 MLOAD DUP1 SWAP2 SUB SWAP1 REVERT JUMPDEST PUSH0 PUSH20 0xFFFFFFFFFFFFFFFFFFFFFFFFFFFFFFFFFFFFFFFF AND DUP3 PUSH20 0xFFFFFFFFFFFFFFFFFFFFFFFFFFFFFFFFFFFFFFFF AND SUB PUSH2 0x1BBA JUMPI PUSH1 0x40 MLOAD PUSH32 0x8C379A000000000000000000000000000000000000000000000000000000000 DUP2 MSTORE PUSH1 0x4 ADD PUSH2 0x1BB1 SWAP1 PUSH2 0x3512 JUMP JUMPDEST PUSH1 0x40 MLOAD DUP1 SWAP2 SUB SWAP1 REVERT JUMPDEST PUSH2 0x1BC5 DUP4 DUP4 DUP4 PUSH2 0x1DE3 JUMP JUMPDEST PUSH0 DUP1 PUSH0 DUP6 PUSH20 0xFFFFFFFFFFFFFFFFFFFFFFFFFFFFFFFFFFFFFFFF AND PUSH20 0xFFFFFFFFFFFFFFFFFFFFFFFFFFFFFFFFFFFFFFFF AND DUP2 MSTORE PUSH1 0x20 ADD SWAP1 DUP2 MSTORE PUSH1 0x20 ADD PUSH0 KECCAK256 SLOAD SWAP1 POP DUP2 DUP2 LT ISZERO PUSH2 0x1C48 JUMPI PUSH1 0x40 MLOAD PUSH32 0x8C379A000000000000000000000000000000000000000000000000000000000 DUP2 MSTORE PUSH1 0x4 ADD PUSH2 0x1C3F SWAP1 PUSH2 0x35A0 JUMP JUMPDEST PUSH1 0x40 MLOAD DUP1 SWAP2 SUB SWAP1 REVERT JUMPDEST DUP2 DUP2 SUB PUSH0 DUP1 DUP7 PUSH20 0xFFFFFFFFFFFFFFFFFFFFFFFFFFFFFFFFFFFFFFFF AND PUSH20 0xFFFFFFFFFFFFFFFFFFFFFFFFFFFFFFFFFFFFFFFF AND DUP2 MSTORE PUSH1 0x20 ADD SWAP1 DUP2 MSTORE PUSH1 0x20 ADD PUSH0 KECCAK256 DUP2 SWAP1 SSTORE POP DUP2 PUSH0 DUP1 DUP6 PUSH20 0xFFFFFFFFFFFFFFFFFFFFFFFFFFFFFFFFFFFFFFFF AND PUSH20 0xFFFFFFFFFFFFFFFFFFFFFFFFFFFFFFFFFFFFFFFF AND DUP2 MSTORE PUSH1 0x20 ADD SWAP1 DUP2 MSTORE PUSH1 0x20 ADD PUSH0 KECCAK256 PUSH0 DUP3 DUP3 SLOAD ADD SWAP3 POP POP DUP2 SWAP1 SSTORE POP DUP3 PUSH20 0xFFFFFFFFFFFFFFFFFFFFFFFFFFFFFFFFFFFFFFFF AND DUP5 PUSH20 0xFFFFFFFFFFFFFFFFFFFFFFFFFFFFFFFFFFFFFFFF AND PUSH32 0xDDF252AD1BE2C89B69C2B068FC378DAA952BA7F163C4A11628F55A4DF523B3EF DUP5 PUSH1 0x40 MLOAD PUSH2 0x1D31 SWAP2 SWAP1 PUSH2 0x2279 JUMP JUMPDEST PUSH1 0x40 MLOAD DUP1 SWAP2 SUB SWAP1 LOG3 PUSH2 0x1D44 DUP5 DUP5 DUP5 PUSH2 0x1DE8 JUMP JUMPDEST POP POP POP POP JUMP JUMPDEST PUSH2 0x1DE0 DUP2 PUSH1 0x40 MLOAD PUSH1 0x24 ADD PUSH2 0x1D5E SWAP2 SWAP1 PUSH2 0x2279 JUMP JUMPDEST PUSH1 0x40 MLOAD PUSH1 0x20 DUP2 DUP4 SUB SUB DUP2 MSTORE SWAP1 PUSH1 0x40 MSTORE PUSH32 0xF82C50F100000000000000000000000000000000000000000000000000000000 PUSH28 0xFFFFFFFFFFFFFFFFFFFFFFFFFFFFFFFFFFFFFFFFFFFFFFFFFFFFFFFF NOT AND PUSH1 0x20 DUP3 ADD DUP1 MLOAD PUSH28 0xFFFFFFFFFFFFFFFFFFFFFFFFFFFFFFFFFFFFFFFFFFFFFFFFFFFFFFFF DUP4 DUP2 DUP4 AND OR DUP4 MSTORE POP POP POP POP PUSH2 0x1DED JUMP JUMPDEST POP JUMP JUMPDEST POP POP POP JUMP JUMPDEST POP POP POP JUMP JUMPDEST PUSH2 0x1E04 DUP2 PUSH2 0x1DFC PUSH2 0x1E07 PUSH2 0x1E26 JUMP JUMPDEST PUSH4 0xFFFFFFFF AND JUMP JUMPDEST POP JUMP JUMPDEST PUSH0 PUSH11 0x636F6E736F6C652E6C6F67 SWAP1 POP PUSH0 DUP1 DUP4 MLOAD PUSH1 0x20 DUP6 ADD DUP5 GAS STATICCALL POP POP POP JUMP JUMPDEST PUSH2 0x1EBC DUP2 SWAP1 POP SWAP2 SWAP1 POP JUMP JUMPDEST PUSH1 0x40 MLOAD DUP1 PUSH1 0x80 ADD PUSH1 0x40 MSTORE DUP1 PUSH1 0x60 DUP2 MSTORE PUSH1 0x20 ADD PUSH1 0x60 DUP2 MSTORE PUSH1 0x20 ADD PUSH0 PUSH1 0x3 DUP2 GT ISZERO PUSH2 0x1E5D JUMPI PUSH2 0x1E5C PUSH2 0x23FF JUMP JUMPDEST JUMPDEST DUP2 MSTORE PUSH1 0x20 ADD PUSH0 PUSH20 0xFFFFFFFFFFFFFFFFFFFFFFFFFFFFFFFFFFFFFFFF AND DUP2 MSTORE POP SWAP1 JUMP JUMPDEST POP DUP1 SLOAD PUSH2 0x1E8B SWAP1 PUSH2 0x26BC JUMP JUMPDEST PUSH0 DUP3 SSTORE DUP1 PUSH1 0x1F LT PUSH2 0x1E9C JUMPI POP PUSH2 0x1EB9 JUMP JUMPDEST PUSH1 0x1F ADD PUSH1 0x20 SWAP1 DIV SWAP1 PUSH0 MSTORE PUSH1 0x20 PUSH0 KECCAK256 SWAP1 DUP2 ADD SWAP1 PUSH2 0x1EB8 SWAP2 SWAP1 PUSH2 0x1EC6 JUMP JUMPDEST JUMPDEST POP JUMP JUMPDEST PUSH2 0x1EC4 PUSH2 0x35BE JUMP JUMPDEST JUMP JUMPDEST JUMPDEST DUP1 DUP3 GT ISZERO PUSH2 0x1EDD JUMPI PUSH0 DUP2 PUSH0 SWAP1 SSTORE POP PUSH1 0x1 ADD PUSH2 0x1EC7 JUMP JUMPDEST POP SWAP1 JUMP JUMPDEST PUSH0 DUP2 MLOAD SWAP1 POP SWAP2 SWAP1 POP JUMP JUMPDEST PUSH0 DUP3 DUP3 MSTORE PUSH1 0x20 DUP3 ADD SWAP1 POP SWAP3 SWAP2 POP POP JUMP JUMPDEST PUSH0 JUMPDEST DUP4 DUP2 LT ISZERO PUSH2 0x1F18 JUMPI DUP1 DUP3 ADD MLOAD DUP2 DUP5 ADD MSTORE PUSH1 0x20 DUP2 ADD SWAP1 POP PUSH2 0x1EFD JUMP JUMPDEST PUSH0 DUP5 DUP5 ADD MSTORE POP POP POP POP JUMP JUMPDEST PUSH0 PUSH1 0x1F NOT PUSH1 0x1F DUP4 ADD AND SWAP1 POP SWAP2 SWAP1 POP JUMP JUMPDEST PUSH0 PUSH2 0x1F3D DUP3 PUSH2 0x1EE1 JUMP JUMPDEST PUSH2 0x1F47 DUP2 DUP6 PUSH2 0x1EEB JUMP JUMPDEST SWAP4 POP PUSH2 0x1F57 DUP2 DUP6 PUSH1 0x20 DUP7 ADD PUSH2 0x1EFB JUMP JUMPDEST PUSH2 0x1F60 DUP2 PUSH2 0x1F23 JUMP JUMPDEST DUP5 ADD SWAP2 POP POP SWAP3 SWAP2 POP POP JUMP JUMPDEST PUSH0 PUSH1 0x20 DUP3 ADD SWAP1 POP DUP2 DUP2 SUB PUSH0 DUP4 ADD MSTORE PUSH2 0x1F83 DUP2 DUP5 PUSH2 0x1F33 JUMP JUMPDEST SWAP1 POP SWAP3 SWAP2 POP POP JUMP JUMPDEST PUSH0 PUSH1 0x40 MLOAD SWAP1 POP SWAP1 JUMP JUMPDEST PUSH0 DUP1 REVERT JUMPDEST PUSH0 DUP1 REVERT JUMPDEST PUSH0 DUP1 REVERT JUMPDEST PUSH0 DUP1 REVERT JUMPDEST PUSH32 0x4E487B7100000000000000000000000000000000000000000000000000000000 PUSH0 MSTORE PUSH1 0x41 PUSH1 0x4 MSTORE PUSH1 0x24 PUSH0 REVERT JUMPDEST PUSH2 0x1FDA DUP3 PUSH2 0x1F23 JUMP JUMPDEST DUP2 ADD DUP2 DUP2 LT PUSH8 0xFFFFFFFFFFFFFFFF DUP3 GT OR ISZERO PUSH2 0x1FF9 JUMPI PUSH2 0x1FF8 PUSH2 0x1FA4 JUMP JUMPDEST JUMPDEST DUP1 PUSH1 0x40 MSTORE POP POP POP JUMP JUMPDEST PUSH0 PUSH2 0x200B PUSH2 0x1F8B JUMP JUMPDEST SWAP1 POP PUSH2 0x2017 DUP3 DUP3 PUSH2 0x1FD1 JUMP JUMPDEST SWAP2 SWAP1 POP JUMP JUMPDEST PUSH0 PUSH8 0xFFFFFFFFFFFFFFFF DUP3 GT ISZERO PUSH2 0x2036 JUMPI PUSH2 0x2035 PUSH2 0x1FA4 JUMP JUMPDEST JUMPDEST PUSH2 0x203F DUP3 PUSH2 0x1F23 JUMP JUMPDEST SWAP1 POP PUSH1 0x20 DUP2 ADD SWAP1 POP SWAP2 SWAP1 POP JUMP JUMPDEST DUP3 DUP2 DUP4 CALLDATACOPY PUSH0 DUP4 DUP4 ADD MSTORE POP POP POP JUMP JUMPDEST PUSH0 PUSH2 0x206C PUSH2 0x2067 DUP5 PUSH2 0x201C JUMP JUMPDEST PUSH2 0x2002 JUMP JUMPDEST SWAP1 POP DUP3 DUP2 MSTORE PUSH1 0x20 DUP2 ADD DUP5 DUP5 DUP5 ADD GT ISZERO PUSH2 0x2088 JUMPI PUSH2 0x2087 PUSH2 0x1FA0 JUMP JUMPDEST JUMPDEST PUSH2 0x2093 DUP5 DUP3 DUP6 PUSH2 0x204C JUMP JUMPDEST POP SWAP4 SWAP3 POP POP POP JUMP JUMPDEST PUSH0 DUP3 PUSH1 0x1F DUP4 ADD SLT PUSH2 0x20AF JUMPI PUSH2 0x20AE PUSH2 0x1F9C JUMP JUMPDEST JUMPDEST DUP2 CALLDATALOAD PUSH2 0x20BF DUP5 DUP3 PUSH1 0x20 DUP7 ADD PUSH2 0x205A JUMP JUMPDEST SWAP2 POP POP SWAP3 SWAP2 POP POP JUMP JUMPDEST PUSH0 DUP1 PUSH0 PUSH1 0x60 DUP5 DUP7 SUB SLT ISZERO PUSH2 0x20DF JUMPI PUSH2 0x20DE PUSH2 0x1F94 JUMP JUMPDEST JUMPDEST PUSH0 DUP5 ADD CALLDATALOAD PUSH8 0xFFFFFFFFFFFFFFFF DUP2 GT ISZERO PUSH2 0x20FC JUMPI PUSH2 0x20FB PUSH2 0x1F98 JUMP JUMPDEST JUMPDEST PUSH2 0x2108 DUP7 DUP3 DUP8 ADD PUSH2 0x209B JUMP JUMPDEST SWAP4 POP POP PUSH1 0x20 DUP5 ADD CALLDATALOAD PUSH8 0xFFFFFFFFFFFFFFFF DUP2 GT ISZERO PUSH2 0x2129 JUMPI PUSH2 0x2128 PUSH2 0x1F98 JUMP JUMPDEST JUMPDEST PUSH2 0x2135 DUP7 DUP3 DUP8 ADD PUSH2 0x209B JUMP JUMPDEST SWAP3 POP POP PUSH1 0x40 DUP5 ADD CALLDATALOAD PUSH8 0xFFFFFFFFFFFFFFFF DUP2 GT ISZERO PUSH2 0x2156 JUMPI PUSH2 0x2155 PUSH2 0x1F98 JUMP JUMPDEST JUMPDEST PUSH2 0x2162 DUP7 DUP3 DUP8 ADD PUSH2 0x209B JUMP JUMPDEST SWAP2 POP POP SWAP3 POP SWAP3 POP SWAP3 JUMP JUMPDEST PUSH0 PUSH20 0xFFFFFFFFFFFFFFFFFFFFFFFFFFFFFFFFFFFFFFFF DUP3 AND SWAP1 POP SWAP2 SWAP1 POP JUMP JUMPDEST PUSH0 PUSH2 0x2195 DUP3 PUSH2 0x216C JUMP JUMPDEST SWAP1 POP SWAP2 SWAP1 POP JUMP JUMPDEST PUSH2 0x21A5 DUP2 PUSH2 0x218B JUMP JUMPDEST DUP2 EQ PUSH2 0x21AF JUMPI PUSH0 DUP1 REVERT JUMPDEST POP JUMP JUMPDEST PUSH0 DUP2 CALLDATALOAD SWAP1 POP PUSH2 0x21C0 DUP2 PUSH2 0x219C JUMP JUMPDEST SWAP3 SWAP2 POP POP JUMP JUMPDEST PUSH0 DUP2 SWAP1 POP SWAP2 SWAP1 POP JUMP JUMPDEST PUSH2 0x21D8 DUP2 PUSH2 0x21C6 JUMP JUMPDEST DUP2 EQ PUSH2 0x21E2 JUMPI PUSH0 DUP1 REVERT JUMPDEST POP JUMP JUMPDEST PUSH0 DUP2 CALLDATALOAD SWAP1 POP PUSH2 0x21F3 DUP2 PUSH2 0x21CF JUMP JUMPDEST SWAP3 SWAP2 POP POP JUMP JUMPDEST PUSH0 DUP1 PUSH1 0x40 DUP4 DUP6 SUB SLT ISZERO PUSH2 0x220F JUMPI PUSH2 0x220E PUSH2 0x1F94 JUMP JUMPDEST JUMPDEST PUSH0 PUSH2 0x221C DUP6 DUP3 DUP7 ADD PUSH2 0x21B2 JUMP JUMPDEST SWAP3 POP POP PUSH1 0x20 PUSH2 0x222D DUP6 DUP3 DUP7 ADD PUSH2 0x21E5 JUMP JUMPDEST SWAP2 POP POP SWAP3 POP SWAP3 SWAP1 POP JUMP JUMPDEST PUSH0 DUP2 ISZERO ISZERO SWAP1 POP SWAP2 SWAP1 POP JUMP JUMPDEST PUSH2 0x224B DUP2 PUSH2 0x2237 JUMP JUMPDEST DUP3 MSTORE POP POP JUMP JUMPDEST PUSH0 PUSH1 0x20 DUP3 ADD SWAP1 POP PUSH2 0x2264 PUSH0 DUP4 ADD DUP5 PUSH2 0x2242 JUMP JUMPDEST SWAP3 SWAP2 POP POP JUMP JUMPDEST PUSH2 0x2273 DUP2 PUSH2 0x21C6 JUMP JUMPDEST DUP3 MSTORE POP POP JUMP JUMPDEST PUSH0 PUSH1 0x20 DUP3 ADD SWAP1 POP PUSH2 0x228C PUSH0 DUP4 ADD DUP5 PUSH2 0x226A JUMP JUMPDEST SWAP3 SWAP2 POP POP JUMP JUMPDEST PUSH0 DUP1 PUSH0 PUSH1 0x60 DUP5 DUP7 SUB SLT ISZERO PUSH2 0x22A9 JUMPI PUSH2 0x22A8 PUSH2 0x1F94 JUMP JUMPDEST JUMPDEST PUSH0 PUSH2 0x22B6 DUP7 DUP3 DUP8 ADD PUSH2 0x21B2 JUMP JUMPDEST SWAP4 POP POP PUSH1 0x20 PUSH2 0x22C7 DUP7 DUP3 DUP8 ADD PUSH2 0x21B2 JUMP JUMPDEST SWAP3 POP POP PUSH1 0x40 PUSH2 0x22D8 DUP7 DUP3 DUP8 ADD PUSH2 0x21E5 JUMP JUMPDEST SWAP2 POP POP SWAP3 POP SWAP3 POP SWAP3 JUMP JUMPDEST PUSH0 PUSH1 0x20 DUP3 DUP5 SUB SLT ISZERO PUSH2 0x22F7 JUMPI PUSH2 0x22F6 PUSH2 0x1F94 JUMP JUMPDEST JUMPDEST PUSH0 PUSH2 0x2304 DUP5 DUP3 DUP6 ADD PUSH2 0x21E5 JUMP JUMPDEST SWAP2 POP POP SWAP3 SWAP2 POP POP JUMP JUMPDEST PUSH0 PUSH1 0xFF DUP3 AND SWAP1 POP SWAP2 SWAP1 POP JUMP JUMPDEST PUSH2 0x2322 DUP2 PUSH2 0x230D JUMP JUMPDEST DUP3 MSTORE POP POP JUMP JUMPDEST PUSH0 PUSH1 0x20 DUP3 ADD SWAP1 POP PUSH2 0x233B PUSH0 DUP4 ADD DUP5 PUSH2 0x2319 JUMP JUMPDEST SWAP3 SWAP2 POP POP JUMP JUMPDEST PUSH0 DUP1 PUSH1 0x40 DUP4 DUP6 SUB SLT ISZERO PUSH2 0x2357 JUMPI PUSH2 0x2356 PUSH2 0x1F94 JUMP JUMPDEST JUMPDEST PUSH0 DUP4 ADD CALLDATALOAD PUSH8 0xFFFFFFFFFFFFFFFF DUP2 GT ISZERO PUSH2 0x2374 JUMPI PUSH2 0x2373 PUSH2 0x1F98 JUMP JUMPDEST JUMPDEST PUSH2 0x2380 DUP6 DUP3 DUP7 ADD PUSH2 0x209B JUMP JUMPDEST SWAP3 POP POP PUSH1 0x20 DUP4 ADD CALLDATALOAD PUSH8 0xFFFFFFFFFFFFFFFF DUP2 GT ISZERO PUSH2 0x23A1 JUMPI PUSH2 0x23A0 PUSH2 0x1F98 JUMP JUMPDEST JUMPDEST PUSH2 0x23AD DUP6 DUP3 DUP7 ADD PUSH2 0x209B JUMP JUMPDEST SWAP2 POP POP SWAP3 POP SWAP3 SWAP1 POP JUMP JUMPDEST PUSH0 DUP3 DUP3 MSTORE PUSH1 0x20 DUP3 ADD SWAP1 POP SWAP3 SWAP2 POP POP JUMP JUMPDEST PUSH0 PUSH2 0x23D1 DUP3 PUSH2 0x1EE1 JUMP JUMPDEST PUSH2 0x23DB DUP2 DUP6 PUSH2 0x23B7 JUMP JUMPDEST SWAP4 POP PUSH2 0x23EB DUP2 DUP6 PUSH1 0x20 DUP7 ADD PUSH2 0x1EFB JUMP JUMPDEST PUSH2 0x23F4 DUP2 PUSH2 0x1F23 JUMP JUMPDEST DUP5 ADD SWAP2 POP POP SWAP3 SWAP2 POP POP JUMP JUMPDEST PUSH32 0x4E487B7100000000000000000000000000000000000000000000000000000000 PUSH0 MSTORE PUSH1 0x21 PUSH1 0x4 MSTORE PUSH1 0x24 PUSH0 REVERT JUMPDEST PUSH1 0x4 DUP2 LT PUSH2 0x243D JUMPI PUSH2 0x243C PUSH2 0x23FF JUMP JUMPDEST JUMPDEST POP JUMP JUMPDEST PUSH0 DUP2 SWAP1 POP PUSH2 0x244D DUP3 PUSH2 0x242C JUMP JUMPDEST SWAP2 SWAP1 POP JUMP JUMPDEST PUSH0 PUSH2 0x245C DUP3 PUSH2 0x2440 JUMP JUMPDEST SWAP1 POP SWAP2 SWAP1 POP JUMP JUMPDEST PUSH2 0x246C DUP2 PUSH2 0x2452 JUMP JUMPDEST DUP3 MSTORE POP POP JUMP JUMPDEST PUSH2 0x247B DUP2 PUSH2 0x218B JUMP JUMPDEST DUP3 MSTORE POP POP JUMP JUMPDEST PUSH0 PUSH1 0x80 DUP4 ADD PUSH0 DUP4 ADD MLOAD DUP5 DUP3 SUB PUSH0 DUP7 ADD MSTORE PUSH2 0x249B DUP3 DUP3 PUSH2 0x23C7 JUMP JUMPDEST SWAP2 POP POP PUSH1 0x20 DUP4 ADD MLOAD DUP5 DUP3 SUB PUSH1 0x20 DUP7 ADD MSTORE PUSH2 0x24B5 DUP3 DUP3 PUSH2 0x23C7 JUMP JUMPDEST SWAP2 POP POP PUSH1 0x40 DUP4 ADD MLOAD PUSH2 0x24CA PUSH1 0x40 DUP7 ADD DUP3 PUSH2 0x2463 JUMP JUMPDEST POP PUSH1 0x60 DUP4 ADD MLOAD PUSH2 0x24DD PUSH1 0x60 DUP7 ADD DUP3 PUSH2 0x2472 JUMP JUMPDEST POP DUP1 SWAP2 POP POP SWAP3 SWAP2 POP POP JUMP JUMPDEST PUSH0 PUSH1 0x20 DUP3 ADD SWAP1 POP DUP2 DUP2 SUB PUSH0 DUP4 ADD MSTORE PUSH2 0x2500 DUP2 DUP5 PUSH2 0x2481 JUMP JUMPDEST SWAP1 POP SWAP3 SWAP2 POP POP JUMP JUMPDEST PUSH0 DUP1 PUSH1 0x40 DUP4 DUP6 SUB SLT ISZERO PUSH2 0x251E JUMPI PUSH2 0x251D PUSH2 0x1F94 JUMP JUMPDEST JUMPDEST PUSH0 PUSH2 0x252B DUP6 DUP3 DUP7 ADD PUSH2 0x21E5 JUMP JUMPDEST SWAP3 POP POP PUSH1 0x20 PUSH2 0x253C DUP6 DUP3 DUP7 ADD PUSH2 0x21B2 JUMP JUMPDEST SWAP2 POP POP SWAP3 POP SWAP3 SWAP1 POP JUMP JUMPDEST PUSH0 PUSH1 0x20 DUP3 DUP5 SUB SLT ISZERO PUSH2 0x255B JUMPI PUSH2 0x255A PUSH2 0x1F94 JUMP JUMPDEST JUMPDEST PUSH0 PUSH2 0x2568 DUP5 DUP3 DUP6 ADD PUSH2 0x21B2 JUMP JUMPDEST SWAP2 POP POP SWAP3 SWAP2 POP POP JUMP JUMPDEST PUSH0 DUP2 SWAP1 POP SWAP2 SWAP1 POP JUMP JUMPDEST PUSH2 0x2583 DUP2 PUSH2 0x2571 JUMP JUMPDEST DUP3 MSTORE POP POP JUMP JUMPDEST PUSH0 PUSH1 0x20 DUP3 ADD SWAP1 POP PUSH2 0x259C PUSH0 DUP4 ADD DUP5 PUSH2 0x257A JUMP JUMPDEST SWAP3 SWAP2 POP POP JUMP JUMPDEST PUSH0 PUSH1 0x20 DUP3 DUP5 SUB SLT ISZERO PUSH2 0x25B7 JUMPI PUSH2 0x25B6 PUSH2 0x1F94 JUMP JUMPDEST JUMPDEST PUSH0 DUP3 ADD CALLDATALOAD PUSH8 0xFFFFFFFFFFFFFFFF DUP2 GT ISZERO PUSH2 0x25D4 JUMPI PUSH2 0x25D3 PUSH2 0x1F98 JUMP JUMPDEST JUMPDEST PUSH2 0x25E0 DUP5 DUP3 DUP6 ADD PUSH2 0x209B JUMP JUMPDEST SWAP2 POP POP SWAP3 SWAP2 POP POP JUMP JUMPDEST PUSH0 DUP1 PUSH1 0x40 DUP4 DUP6 SUB SLT ISZERO PUSH2 0x25FF JUMPI PUSH2 0x25FE PUSH2 0x1F94 JUMP JUMPDEST JUMPDEST PUSH0 PUSH2 0x260C DUP6 DUP3 DUP7 ADD PUSH2 0x21B2 JUMP JUMPDEST SWAP3 POP POP PUSH1 0x20 PUSH2 0x261D DUP6 DUP3 DUP7 ADD PUSH2 0x21B2 JUMP JUMPDEST SWAP2 POP POP SWAP3 POP SWAP3 SWAP1 POP JUMP JUMPDEST PUSH2 0x2630 DUP2 PUSH2 0x2237 JUMP JUMPDEST DUP2 EQ PUSH2 0x263A JUMPI PUSH0 DUP1 REVERT JUMPDEST POP JUMP JUMPDEST PUSH0 DUP2 CALLDATALOAD SWAP1 POP PUSH2 0x264B DUP2 PUSH2 0x2627 JUMP JUMPDEST SWAP3 SWAP2 POP POP JUMP JUMPDEST PUSH0 DUP1 PUSH1 0x40 DUP4 DUP6 SUB SLT ISZERO PUSH2 0x2667 JUMPI PUSH2 0x2666 PUSH2 0x1F94 JUMP JUMPDEST JUMPDEST PUSH0 PUSH2 0x2674 DUP6 DUP3 DUP7 ADD PUSH2 0x21E5 JUMP JUMPDEST SWAP3 POP POP PUSH1 0x20 PUSH2 0x2685 DUP6 DUP3 DUP7 ADD PUSH2 0x263D JUMP JUMPDEST SWAP2 POP POP SWAP3 POP SWAP3 SWAP1 POP JUMP JUMPDEST PUSH32 0x4E487B7100000000000000000000000000000000000000000000000000000000 PUSH0 MSTORE PUSH1 0x22 PUSH1 0x4 MSTORE PUSH1 0x24 PUSH0 REVERT JUMPDEST PUSH0 PUSH1 0x2 DUP3 DIV SWAP1 POP PUSH1 0x1 DUP3 AND DUP1 PUSH2 0x26D3 JUMPI PUSH1 0x7F DUP3 AND SWAP2 POP JUMPDEST PUSH1 0x20 DUP3 LT DUP2 SUB PUSH2 0x26E6 JUMPI PUSH2 0x26E5 PUSH2 0x268F JUMP JUMPDEST JUMPDEST POP SWAP2 SWAP1 POP JUMP JUMPDEST PUSH0 DUP2 SWAP1 POP DUP2 PUSH0 MSTORE PUSH1 0x20 PUSH0 KECCAK256 SWAP1 POP SWAP2 SWAP1 POP JUMP JUMPDEST PUSH0 PUSH1 0x20 PUSH1 0x1F DUP4 ADD DIV SWAP1 POP SWAP2 SWAP1 POP JUMP JUMPDEST PUSH0 DUP3 DUP3 SHL SWAP1 POP SWAP3 SWAP2 POP POP JUMP JUMPDEST PUSH0 PUSH1 0x8 DUP4 MUL PUSH2 0x2748 PUSH32 0xFFFFFFFFFFFFFFFFFFFFFFFFFFFFFFFFFFFFFFFFFFFFFFFFFFFFFFFFFFFFFFFF DUP3 PUSH2 0x270D JUMP JUMPDEST PUSH2 0x2752 DUP7 DUP4 PUSH2 0x270D JUMP JUMPDEST SWAP6 POP DUP1 NOT DUP5 AND SWAP4 POP DUP1 DUP7 AND DUP5 OR SWAP3 POP POP POP SWAP4 SWAP3 POP POP POP JUMP JUMPDEST PUSH0 DUP2 SWAP1 POP SWAP2 SWAP1 POP JUMP JUMPDEST PUSH0 PUSH2 0x278D PUSH2 0x2788 PUSH2 0x2783 DUP5 PUSH2 0x21C6 JUMP JUMPDEST PUSH2 0x276A JUMP JUMPDEST PUSH2 0x21C6 JUMP JUMPDEST SWAP1 POP SWAP2 SWAP1 POP JUMP JUMPDEST PUSH0 DUP2 SWAP1 POP SWAP2 SWAP1 POP JUMP JUMPDEST PUSH2 0x27A6 DUP4 PUSH2 0x2773 JUMP JUMPDEST PUSH2 0x27BA PUSH2 0x27B2 DUP3 PUSH2 0x2794 JUMP JUMPDEST DUP5 DUP5 SLOAD PUSH2 0x2719 JUMP JUMPDEST DUP3 SSTORE POP POP POP POP JUMP JUMPDEST PUSH0 SWAP1 JUMP JUMPDEST PUSH2 0x27CE PUSH2 0x27C2 JUMP JUMPDEST PUSH2 0x27D9 DUP2 DUP5 DUP5 PUSH2 0x279D JUMP JUMPDEST POP POP POP JUMP JUMPDEST JUMPDEST DUP2 DUP2 LT ISZERO PUSH2 0x27FC JUMPI PUSH2 0x27F1 PUSH0 DUP3 PUSH2 0x27C6 JUMP JUMPDEST PUSH1 0x1 DUP2 ADD SWAP1 POP PUSH2 0x27DF JUMP JUMPDEST POP POP JUMP JUMPDEST PUSH1 0x1F DUP3 GT ISZERO PUSH2 0x2841 JUMPI PUSH2 0x2812 DUP2 PUSH2 0x26EC JUMP JUMPDEST PUSH2 0x281B DUP5 PUSH2 0x26FE JUMP JUMPDEST DUP2 ADD PUSH1 0x20 DUP6 LT ISZERO PUSH2 0x282A JUMPI DUP2 SWAP1 POP JUMPDEST PUSH2 0x283E PUSH2 0x2836 DUP6 PUSH2 0x26FE JUMP JUMPDEST DUP4 ADD DUP3 PUSH2 0x27DE JUMP JUMPDEST POP POP JUMPDEST POP POP POP JUMP JUMPDEST PUSH0 DUP3 DUP3 SHR SWAP1 POP SWAP3 SWAP2 POP POP JUMP JUMPDEST PUSH0 PUSH2 0x2861 PUSH0 NOT DUP5 PUSH1 0x8 MUL PUSH2 0x2846 JUMP JUMPDEST NOT DUP1 DUP4 AND SWAP2 POP POP SWAP3 SWAP2 POP POP JUMP JUMPDEST PUSH0 PUSH2 0x2879 DUP4 DUP4 PUSH2 0x2852 JUMP JUMPDEST SWAP2 POP DUP3 PUSH1 0x2 MUL DUP3 OR SWAP1 POP SWAP3 SWAP2 POP POP JUMP JUMPDEST PUSH2 0x2892 DUP3 PUSH2 0x1EE1 JUMP JUMPDEST PUSH8 0xFFFFFFFFFFFFFFFF DUP2 GT ISZERO PUSH2 0x28AB JUMPI PUSH2 0x28AA PUSH2 0x1FA4 JUMP JUMPDEST JUMPDEST PUSH2 0x28B5 DUP3 SLOAD PUSH2 0x26BC JUMP JUMPDEST PUSH2 0x28C0 DUP3 DUP3 DUP6 PUSH2 0x2800 JUMP JUMPDEST PUSH0 PUSH1 0x20 SWAP1 POP PUSH1 0x1F DUP4 GT PUSH1 0x1 DUP2 EQ PUSH2 0x28F1 JUMPI PUSH0 DUP5 ISZERO PUSH2 0x28DF JUMPI DUP3 DUP8 ADD MLOAD SWAP1 POP JUMPDEST PUSH2 0x28E9 DUP6 DUP3 PUSH2 0x286E JUMP JUMPDEST DUP7 SSTORE POP PUSH2 0x2950 JUMP JUMPDEST PUSH1 0x1F NOT DUP5 AND PUSH2 0x28FF DUP7 PUSH2 0x26EC JUMP JUMPDEST PUSH0 JUMPDEST DUP3 DUP2 LT ISZERO PUSH2 0x2926 JUMPI DUP5 DUP10 ADD MLOAD DUP3 SSTORE PUSH1 0x1 DUP3 ADD SWAP2 POP PUSH1 0x20 DUP6 ADD SWAP5 POP PUSH1 0x20 DUP2 ADD SWAP1 POP PUSH2 0x2901 JUMP JUMPDEST DUP7 DUP4 LT ISZERO PUSH2 0x2943 JUMPI DUP5 DUP10 ADD MLOAD PUSH2 0x293F PUSH1 0x1F DUP10 AND DUP3 PUSH2 0x2852 JUMP JUMPDEST DUP4 SSTORE POP JUMPDEST PUSH1 0x1 PUSH1 0x2 DUP9 MUL ADD DUP9 SSTORE POP POP POP JUMPDEST POP POP POP POP POP POP JUMP JUMPDEST PUSH32 0xD09FD180D0B8D0B2D0B0D182D0BDD0B0D18F20D184D0B0D0B7D0B020D0B5D189 PUSH0 DUP3 ADD MSTORE PUSH32 0xD19120D0BDD0B520D0BDD0B0D187D0B0D0BBD0B0D181D18C0000000000000000 PUSH1 0x20 DUP3 ADD MSTORE POP JUMP JUMPDEST PUSH0 PUSH2 0x29B2 PUSH1 0x38 DUP4 PUSH2 0x1EEB JUMP JUMPDEST SWAP2 POP PUSH2 0x29BD DUP3 PUSH2 0x2958 JUMP JUMPDEST PUSH1 0x40 DUP3 ADD SWAP1 POP SWAP2 SWAP1 POP JUMP JUMPDEST PUSH0 PUSH1 0x20 DUP3 ADD SWAP1 POP DUP2 DUP2 SUB PUSH0 DUP4 ADD MSTORE PUSH2 0x29DF DUP2 PUSH2 0x29A6 JUMP JUMPDEST SWAP1 POP SWAP2 SWAP1 POP JUMP JUMPDEST PUSH32 0xD09FD180D0B8D0B2D0B0D182D0BDD0B0D18F20D184D0B0D0B7D0B020D0B7D0B0 PUSH0 DUP3 ADD MSTORE PUSH32 0xD0BAD0BED0BDD187D0B8D0BBD0B0D181D18C0000000000000000000000000000 PUSH1 0x20 DUP3 ADD MSTORE POP JUMP JUMPDEST PUSH0 PUSH2 0x2A40 PUSH1 0x32 DUP4 PUSH2 0x1EEB JUMP JUMPDEST SWAP2 POP PUSH2 0x2A4B DUP3 PUSH2 0x29E6 JUMP JUMPDEST PUSH1 0x40 DUP3 ADD SWAP1 POP SWAP2 SWAP1 POP JUMP JUMPDEST PUSH0 PUSH1 0x20 DUP3 ADD SWAP1 POP DUP2 DUP2 SUB PUSH0 DUP4 ADD MSTORE PUSH2 0x2A6D DUP2 PUSH2 0x2A34 JUMP JUMPDEST SWAP1 POP SWAP2 SWAP1 POP JUMP JUMPDEST PUSH32 0xD091D0BED0BBD18CD188D0B52031303030303020D0BDD0B5D0BBD18CD0B7D18F PUSH0 DUP3 ADD MSTORE PUSH32 0x20D0BAD183D0BFD0B8D182D18C00000000000000000000000000000000000000 PUSH1 0x20 DUP3 ADD MSTORE POP JUMP JUMPDEST PUSH0 PUSH2 0x2ACE PUSH1 0x2D DUP4 PUSH2 0x1EEB JUMP JUMPDEST SWAP2 POP PUSH2 0x2AD9 DUP3 PUSH2 0x2A74 JUMP JUMPDEST PUSH1 0x40 DUP3 ADD SWAP1 POP SWAP2 SWAP1 POP JUMP JUMPDEST PUSH0 PUSH1 0x20 DUP3 ADD SWAP1 POP DUP2 DUP2 SUB PUSH0 DUP4 ADD MSTORE PUSH2 0x2AFB DUP2 PUSH2 0x2AC2 JUMP JUMPDEST SWAP1 POP SWAP2 SWAP1 POP JUMP JUMPDEST PUSH32 0x5072697661746520D0BAD0BED0B8D0BDD18B20D0B7D0B0D0BAD0BED0BDD187D0 PUSH0 DUP3 ADD MSTORE PUSH32 0xB8D0BBD0B8D181D18C0000000000000000000000000000000000000000000000 PUSH1 0x20 DUP3 ADD MSTORE POP JUMP JUMPDEST PUSH0 PUSH2 0x2B5C PUSH1 0x29 DUP4 PUSH2 0x1EEB JUMP JUMPDEST SWAP2 POP PUSH2 0x2B67 DUP3 PUSH2 0x2B02 JUMP JUMPDEST PUSH1 0x40 DUP3 ADD SWAP1 POP SWAP2 SWAP1 POP JUMP JUMPDEST PUSH0 PUSH1 0x20 DUP3 ADD SWAP1 POP DUP2 DUP2 SUB PUSH0 DUP4 ADD MSTORE PUSH2 0x2B89 DUP2 PUSH2 0x2B50 JUMP JUMPDEST SWAP1 POP SWAP2 SWAP1 POP JUMP JUMPDEST PUSH32 0x4E487B7100000000000000000000000000000000000000000000000000000000 PUSH0 MSTORE PUSH1 0x32 PUSH1 0x4 MSTORE PUSH1 0x24 PUSH0 REVERT JUMPDEST PUSH32 0x4E487B7100000000000000000000000000000000000000000000000000000000 PUSH0 MSTORE PUSH1 0x11 PUSH1 0x4 MSTORE PUSH1 0x24 PUSH0 REVERT JUMPDEST PUSH0 PUSH2 0x2BF4 DUP3 PUSH2 0x21C6 JUMP JUMPDEST SWAP2 POP PUSH32 0xFFFFFFFFFFFFFFFFFFFFFFFFFFFFFFFFFFFFFFFFFFFFFFFFFFFFFFFFFFFFFFFF DUP3 SUB PUSH2 0x2C26 JUMPI PUSH2 0x2C25 PUSH2 0x2BBD JUMP JUMPDEST JUMPDEST PUSH1 0x1 DUP3 ADD SWAP1 POP SWAP2 SWAP1 POP JUMP JUMPDEST PUSH32 0x467265652073616C65206E6F7420737461727465640000000000000000000000 PUSH0 DUP3 ADD MSTORE POP JUMP JUMPDEST PUSH0 PUSH2 0x2C65 PUSH1 0x15 DUP4 PUSH2 0x1EEB JUMP JUMPDEST SWAP2 POP PUSH2 0x2C70 DUP3 PUSH2 0x2C31 JUMP JUMPDEST PUSH1 0x20 DUP3 ADD SWAP1 POP SWAP2 SWAP1 POP JUMP JUMPDEST PUSH0 PUSH1 0x20 DUP3 ADD SWAP1 POP DUP2 DUP2 SUB PUSH0 DUP4 ADD MSTORE PUSH2 0x2C92 DUP2 PUSH2 0x2C59 JUMP JUMPDEST SWAP1 POP SWAP2 SWAP1 POP JUMP JUMPDEST PUSH0 DUP2 PUSH1 0x1 SHR SWAP1 POP SWAP2 SWAP1 POP JUMP JUMPDEST PUSH0 DUP1 DUP3 SWAP2 POP DUP4 SWAP1 POP JUMPDEST PUSH1 0x1 DUP6 GT ISZERO PUSH2 0x2CEE JUMPI DUP1 DUP7 DIV DUP2 GT ISZERO PUSH2 0x2CCA JUMPI PUSH2 0x2CC9 PUSH2 0x2BBD JUMP JUMPDEST JUMPDEST PUSH1 0x1 DUP6 AND ISZERO PUSH2 0x2CD9 JUMPI DUP1 DUP3 MUL SWAP2 POP JUMPDEST DUP1 DUP2 MUL SWAP1 POP PUSH2 0x2CE7 DUP6 PUSH2 0x2C99 JUMP JUMPDEST SWAP5 POP PUSH2 0x2CAE JUMP JUMPDEST SWAP5 POP SWAP5 SWAP3 POP POP POP JUMP JUMPDEST PUSH0 DUP3 PUSH2 0x2D06 JUMPI PUSH1 0x1 SWAP1 POP PUSH2 0x2DC1 JUMP JUMPDEST DUP2 PUSH2 0x2D13 JUMPI PUSH0 SWAP1 POP PUSH2 0x2DC1 JUMP JUMPDEST DUP2 PUSH1 0x1 DUP2 EQ PUSH2 0x2D29 JUMPI PUSH1 0x2 DUP2 EQ PUSH2 0x2D33 JUMPI PUSH2 0x2D62 JUMP JUMPDEST PUSH1 0x1 SWAP2 POP POP PUSH2 0x2DC1 JUMP JUMPDEST PUSH1 0xFF DUP5 GT ISZERO PUSH2 0x2D45 JUMPI PUSH2 0x2D44 PUSH2 0x2BBD JUMP JUMPDEST JUMPDEST DUP4 PUSH1 0x2 EXP SWAP2 POP DUP5 DUP3 GT ISZERO PUSH2 0x2D5C JUMPI PUSH2 0x2D5B PUSH2 0x2BBD JUMP JUMPDEST JUMPDEST POP PUSH2 0x2DC1 JUMP JUMPDEST POP PUSH1 0x20 DUP4 LT PUSH2 0x133 DUP4 LT AND PUSH1 0x4E DUP5 LT PUSH1 0xB DUP5 LT AND OR ISZERO PUSH2 0x2D97 JUMPI DUP3 DUP3 EXP SWAP1 POP DUP4 DUP2 GT ISZERO PUSH2 0x2D92 JUMPI PUSH2 0x2D91 PUSH2 0x2BBD JUMP JUMPDEST JUMPDEST PUSH2 0x2DC1 JUMP JUMPDEST PUSH2 0x2DA4 DUP5 DUP5 DUP5 PUSH1 0x1 PUSH2 0x2CA5 JUMP JUMPDEST SWAP3 POP SWAP1 POP DUP2 DUP5 DIV DUP2 GT ISZERO PUSH2 0x2DBB JUMPI PUSH2 0x2DBA PUSH2 0x2BBD JUMP JUMPDEST JUMPDEST DUP2 DUP2 MUL SWAP1 POP JUMPDEST SWAP4 SWAP3 POP POP POP JUMP JUMPDEST PUSH0 PUSH2 0x2DD2 DUP3 PUSH2 0x21C6 JUMP JUMPDEST SWAP2 POP PUSH2 0x2DDD DUP4 PUSH2 0x230D JUMP JUMPDEST SWAP3 POP PUSH2 0x2E0A PUSH32 0xFFFFFFFFFFFFFFFFFFFFFFFFFFFFFFFFFFFFFFFFFFFFFFFFFFFFFFFFFFFFFFFF DUP5 DUP5 PUSH2 0x2CF7 JUMP JUMPDEST SWAP1 POP SWAP3 SWAP2 POP POP JUMP JUMPDEST PUSH0 PUSH2 0x2E1C DUP3 PUSH2 0x21C6 JUMP JUMPDEST SWAP2 POP PUSH2 0x2E27 DUP4 PUSH2 0x21C6 JUMP JUMPDEST SWAP3 POP DUP3 DUP3 MUL PUSH2 0x2E35 DUP2 PUSH2 0x21C6 JUMP JUMPDEST SWAP2 POP DUP3 DUP3 DIV DUP5 EQ DUP4 ISZERO OR PUSH2 0x2E4C JUMPI PUSH2 0x2E4B PUSH2 0x2BBD JUMP JUMPDEST JUMPDEST POP SWAP3 SWAP2 POP POP JUMP JUMPDEST PUSH0 PUSH2 0x2E5D DUP3 PUSH2 0x21C6 JUMP JUMPDEST SWAP2 POP PUSH2 0x2E68 DUP4 PUSH2 0x21C6 JUMP JUMPDEST SWAP3 POP DUP3 DUP3 SUB SWAP1 POP DUP2 DUP2 GT ISZERO PUSH2 0x2E80 JUMPI PUSH2 0x2E7F PUSH2 0x2BBD JUMP JUMPDEST JUMPDEST SWAP3 SWAP2 POP POP JUMP JUMPDEST PUSH0 PUSH2 0x2E90 DUP3 PUSH2 0x21C6 JUMP JUMPDEST SWAP2 POP PUSH2 0x2E9B DUP4 PUSH2 0x21C6 JUMP JUMPDEST SWAP3 POP DUP3 DUP3 ADD SWAP1 POP DUP1 DUP3 GT ISZERO PUSH2 0x2EB3 JUMPI PUSH2 0x2EB2 PUSH2 0x2BBD JUMP JUMPDEST JUMPDEST SWAP3 SWAP2 POP POP JUMP JUMPDEST PUSH32 0xD092D0B0D188D0B020D180D0BED0BBD18C20D0BDD0B520D0BFD0BED0B7D0B2D0 PUSH0 DUP3 ADD MSTORE PUSH32 0xBED0BBD18FD0B5D18220D18DD182D0BE20D0B8D181D0BFD0BED0BBD18CD0B7D0 PUSH1 0x20 DUP3 ADD MSTORE PUSH32 0xBED0B2D0B0D182D18C0000000000000000000000000000000000000000000000 PUSH1 0x40 DUP3 ADD MSTORE POP JUMP JUMPDEST PUSH0 PUSH2 0x2F39 PUSH1 0x49 DUP4 PUSH2 0x1EEB JUMP JUMPDEST SWAP2 POP PUSH2 0x2F44 DUP3 PUSH2 0x2EB9 JUMP JUMPDEST PUSH1 0x60 DUP3 ADD SWAP1 POP SWAP2 SWAP1 POP JUMP JUMPDEST PUSH0 PUSH1 0x20 DUP3 ADD SWAP1 POP DUP2 DUP2 SUB PUSH0 DUP4 ADD MSTORE PUSH2 0x2F66 DUP2 PUSH2 0x2F2D JUMP JUMPDEST SWAP1 POP SWAP2 SWAP1 POP JUMP JUMPDEST PUSH32 0xD0A320D0B2D0B0D18120D0BDD0B5D18220D0BED181D182D0B0D182D0BED187D0 PUSH0 DUP3 ADD MSTORE PUSH32 0xBDD18BD18520D0BAD0BED0B8D0BDD0BED0B20000000000000000000000000000 PUSH1 0x20 DUP3 ADD MSTORE POP JUMP JUMPDEST PUSH0 PUSH2 0x2FC7 PUSH1 0x32 DUP4 PUSH2 0x1EEB JUMP JUMPDEST SWAP2 POP PUSH2 0x2FD2 DUP3 PUSH2 0x2F6D JUMP JUMPDEST PUSH1 0x40 DUP3 ADD SWAP1 POP SWAP2 SWAP1 POP JUMP JUMPDEST PUSH0 PUSH1 0x20 DUP3 ADD SWAP1 POP DUP2 DUP2 SUB PUSH0 DUP4 ADD MSTORE PUSH2 0x2FF4 DUP2 PUSH2 0x2FBB JUMP JUMPDEST SWAP1 POP SWAP2 SWAP1 POP JUMP JUMPDEST PUSH32 0x45524332303A2064656372656173656420616C6C6F77616E63652062656C6F77 PUSH0 DUP3 ADD MSTORE PUSH32 0x207A65726F000000000000000000000000000000000000000000000000000000 PUSH1 0x20 DUP3 ADD MSTORE POP JUMP JUMPDEST PUSH0 PUSH2 0x3055 PUSH1 0x25 DUP4 PUSH2 0x1EEB JUMP JUMPDEST SWAP2 POP PUSH2 0x3060 DUP3 PUSH2 0x2FFB JUMP JUMPDEST PUSH1 0x40 DUP3 ADD SWAP1 POP SWAP2 SWAP1 POP JUMP JUMPDEST PUSH0 PUSH1 0x20 DUP3 ADD SWAP1 POP DUP2 DUP2 SUB PUSH0 DUP4 ADD MSTORE PUSH2 0x3082 DUP2 PUSH2 0x3049 JUMP JUMPDEST SWAP1 POP SWAP2 SWAP1 POP JUMP JUMPDEST PUSH32 0x4E487B7100000000000000000000000000000000000000000000000000000000 PUSH0 MSTORE PUSH1 0x12 PUSH1 0x4 MSTORE PUSH1 0x24 PUSH0 REVERT JUMPDEST PUSH0 PUSH2 0x30C0 DUP3 PUSH2 0x21C6 JUMP JUMPDEST SWAP2 POP PUSH2 0x30CB DUP4 PUSH2 0x21C6 JUMP JUMPDEST SWAP3 POP DUP3 PUSH2 0x30DB JUMPI PUSH2 0x30DA PUSH2 0x3089 JUMP JUMPDEST JUMPDEST DUP3 DUP3 DIV SWAP1 POP SWAP3 SWAP2 POP POP JUMP JUMPDEST PUSH32 0x5075626C696320D184D0B0D0B7D0B020D0B5D189D19120D0BDD0B520D0BDD0B0 PUSH0 DUP3 ADD MSTORE PUSH32 0xD187D0B0D0BBD0B0D181D18C0000000000000000000000000000000000000000 PUSH1 0x20 DUP3 ADD MSTORE POP JUMP JUMPDEST PUSH0 PUSH2 0x3140 PUSH1 0x2C DUP4 PUSH2 0x1EEB JUMP JUMPDEST SWAP2 POP PUSH2 0x314B DUP3 PUSH2 0x30E6 JUMP JUMPDEST PUSH1 0x40 DUP3 ADD SWAP1 POP SWAP2 SWAP1 POP JUMP JUMPDEST PUSH0 PUSH1 0x20 DUP3 ADD SWAP1 POP DUP2 DUP2 SUB PUSH0 DUP4 ADD MSTORE PUSH2 0x316D DUP2 PUSH2 0x3134 JUMP JUMPDEST SWAP1 POP SWAP2 SWAP1 POP JUMP JUMPDEST PUSH32 0xD091D0BED0BBD18CD188D0B5203530303020D0BDD0B5D0BBD18CD0B7D18F20D0 PUSH0 DUP3 ADD MSTORE PUSH32 0xBAD183D0BFD0B8D182D18C000000000000000000000000000000000000000000 PUSH1 0x20 DUP3 ADD MSTORE POP JUMP JUMPDEST PUSH0 PUSH2 0x31CE PUSH1 0x2B DUP4 PUSH2 0x1EEB JUMP JUMPDEST SWAP2 POP PUSH2 0x31D9 DUP3 PUSH2 0x3174 JUMP JUMPDEST PUSH1 0x40 DUP3 ADD SWAP1 POP SWAP2 SWAP1 POP JUMP JUMPDEST PUSH0 PUSH1 0x20 DUP3 ADD SWAP1 POP DUP2 DUP2 SUB PUSH0 DUP4 ADD MSTORE PUSH2 0x31FB DUP2 PUSH2 0x31C2 JUMP JUMPDEST SWAP1 POP SWAP2 SWAP1 POP JUMP JUMPDEST PUSH32 0x5075626C696320D0BAD0BED0B8D0BDD18B20D0B7D0B0D0BAD0BED0BDD187D0B8 PUSH0 DUP3 ADD MSTORE PUSH32 0xD0BBD0B8D181D18C000000000000000000000000000000000000000000000000 PUSH1 0x20 DUP3 ADD MSTORE POP JUMP JUMPDEST PUSH0 PUSH2 0x325C PUSH1 0x28 DUP4 PUSH2 0x1EEB JUMP JUMPDEST SWAP2 POP PUSH2 0x3267 DUP3 PUSH2 0x3202 JUMP JUMPDEST PUSH1 0x40 DUP3 ADD SWAP1 POP SWAP2 SWAP1 POP JUMP JUMPDEST PUSH0 PUSH1 0x20 DUP3 ADD SWAP1 POP DUP2 DUP2 SUB PUSH0 DUP4 ADD MSTORE PUSH2 0x3289 DUP2 PUSH2 0x3250 JUMP JUMPDEST SWAP1 POP SWAP2 SWAP1 POP JUMP JUMPDEST PUSH32 0x45524332303A20617070726F76652066726F6D20746865207A65726F20616464 PUSH0 DUP3 ADD MSTORE PUSH32 0x7265737300000000000000000000000000000000000000000000000000000000 PUSH1 0x20 DUP3 ADD MSTORE POP JUMP JUMPDEST PUSH0 PUSH2 0x32EA PUSH1 0x24 DUP4 PUSH2 0x1EEB JUMP JUMPDEST SWAP2 POP PUSH2 0x32F5 DUP3 PUSH2 0x3290 JUMP JUMPDEST PUSH1 0x40 DUP3 ADD SWAP1 POP SWAP2 SWAP1 POP JUMP JUMPDEST PUSH0 PUSH1 0x20 DUP3 ADD SWAP1 POP DUP2 DUP2 SUB PUSH0 DUP4 ADD MSTORE PUSH2 0x3317 DUP2 PUSH2 0x32DE JUMP JUMPDEST SWAP1 POP SWAP2 SWAP1 POP JUMP JUMPDEST PUSH32 0x45524332303A20617070726F766520746F20746865207A65726F206164647265 PUSH0 DUP3 ADD MSTORE PUSH32 0x7373000000000000000000000000000000000000000000000000000000000000 PUSH1 0x20 DUP3 ADD MSTORE POP JUMP JUMPDEST PUSH0 PUSH2 0x3378 PUSH1 0x22 DUP4 PUSH2 0x1EEB JUMP JUMPDEST SWAP2 POP PUSH2 0x3383 DUP3 PUSH2 0x331E JUMP JUMPDEST PUSH1 0x40 DUP3 ADD SWAP1 POP SWAP2 SWAP1 POP JUMP JUMPDEST PUSH0 PUSH1 0x20 DUP3 ADD SWAP1 POP DUP2 DUP2 SUB PUSH0 DUP4 ADD MSTORE PUSH2 0x33A5 DUP2 PUSH2 0x336C JUMP JUMPDEST SWAP1 POP SWAP2 SWAP1 POP JUMP JUMPDEST PUSH32 0x45524332303A20696E73756666696369656E7420616C6C6F77616E6365000000 PUSH0 DUP3 ADD MSTORE POP JUMP JUMPDEST PUSH0 PUSH2 0x33E0 PUSH1 0x1D DUP4 PUSH2 0x1EEB JUMP JUMPDEST SWAP2 POP PUSH2 0x33EB DUP3 PUSH2 0x33AC JUMP JUMPDEST PUSH1 0x20 DUP3 ADD SWAP1 POP SWAP2 SWAP1 POP JUMP JUMPDEST PUSH0 PUSH1 0x20 DUP3 ADD SWAP1 POP DUP2 DUP2 SUB PUSH0 DUP4 ADD MSTORE PUSH2 0x340D DUP2 PUSH2 0x33D4 JUMP JUMPDEST SWAP1 POP SWAP2 SWAP1 POP JUMP JUMPDEST PUSH32 0x45524332303A207472616E736665722066726F6D20746865207A65726F206164 PUSH0 DUP3 ADD MSTORE PUSH32 0x6472657373000000000000000000000000000000000000000000000000000000 PUSH1 0x20 DUP3 ADD MSTORE POP JUMP JUMPDEST PUSH0 PUSH2 0x346E PUSH1 0x25 DUP4 PUSH2 0x1EEB JUMP JUMPDEST SWAP2 POP PUSH2 0x3479 DUP3 PUSH2 0x3414 JUMP JUMPDEST PUSH1 0x40 DUP3 ADD SWAP1 POP SWAP2 SWAP1 POP JUMP JUMPDEST PUSH0 PUSH1 0x20 DUP3 ADD SWAP1 POP DUP2 DUP2 SUB PUSH0 DUP4 ADD MSTORE PUSH2 0x349B DUP2 PUSH2 0x3462 JUMP JUMPDEST SWAP1 POP SWAP2 SWAP1 POP JUMP JUMPDEST PUSH32 0x45524332303A207472616E7366657220746F20746865207A65726F2061646472 PUSH0 DUP3 ADD MSTORE PUSH32 0x6573730000000000000000000000000000000000000000000000000000000000 PUSH1 0x20 DUP3 ADD MSTORE POP JUMP JUMPDEST PUSH0 PUSH2 0x34FC PUSH1 0x23 DUP4 PUSH2 0x1EEB JUMP JUMPDEST SWAP2 POP PUSH2 0x3507 DUP3 PUSH2 0x34A2 JUMP JUMPDEST PUSH1 0x40 DUP3 ADD SWAP1 POP SWAP2 SWAP1 POP JUMP JUMPDEST PUSH0 PUSH1 0x20 DUP3 ADD SWAP1 POP DUP2 DUP2 SUB PUSH0 DUP4 ADD MSTORE PUSH2 0x3529 DUP2 PUSH2 0x34F0 JUMP JUMPDEST SWAP1 POP SWAP2 SWAP1 POP JUMP JUMPDEST PUSH32 0x45524332303A207472616E7366657220616D6F756E7420657863656564732062 PUSH0 DUP3 ADD MSTORE PUSH32 0x616C616E63650000000000000000000000000000000000000000000000000000 PUSH1 0x20 DUP3 ADD MSTORE POP JUMP JUMPDEST PUSH0 PUSH2 0x358A PUSH1 0x26 DUP4 PUSH2 0x1EEB JUMP JUMPDEST SWAP2 POP PUSH2 0x3595 DUP3 PUSH2 0x3530 JUMP JUMPDEST PUSH1 0x40 DUP3 ADD SWAP1 POP SWAP2 SWAP1 POP JUMP JUMPDEST PUSH0 PUSH1 0x20 DUP3 ADD SWAP1 POP DUP2 DUP2 SUB PUSH0 DUP4 ADD MSTORE PUSH2 0x35B7 DUP2 PUSH2 0x357E JUMP JUMPDEST SWAP1 POP SWAP2 SWAP1 POP JUMP JUMPDEST PUSH32 0x4E487B7100000000000000000000000000000000000000000000000000000000 PUSH0 MSTORE PUSH1 0x51 PUSH1 0x4 MSTORE PUSH1 0x24 PUSH0 REVERT INVALID LOG2 PUSH5 0x6970667358 0x22 SLT KECCAK256 0x5D DUP11 0x24 PUSH7 0x95EC5C77090E4D 0xC5 PUSH23 0x5E4B642ACC2951307710EF105B05D7E82BE59E64736F6C PUSH4 0x43000815 STOP CALLER "
		},
		"gasEstimates": {
			"creation": {
				"codeDepositCost": "2771400",
				"executionCost": "infinite",
				"totalCost": "infinite"
			},
			"external": {
				"allowance(address,address)": "infinite",
				"approve(address,uint256)": "infinite",
				"approveWhiteList(uint256,bool)": "infinite",
				"balanceOf(address)": "2852",
				"buyPrivateToken(uint256)": "infinite",
				"buyPublicToken(uint256)": "infinite",
				"changePublicPrice(uint256)": "24912",
				"checkTime()": "infinite",
				"decimals()": "361",
				"decreaseAllowance(address,uint256)": "infinite",
				"giveCoinsFromOwner(uint256,address)": "infinite",
				"increaseAllowance(address,uint256)": "infinite",
				"login(string,string)": "infinite",
				"makePrivateReq(string)": "infinite",
				"name()": "infinite",
				"passwords(address)": "2824",
				"payReward(uint256,address)": "infinite",
				"registration(string,string,string)": "infinite",
				"skipTime(uint256)": "infinite",
				"symbol()": "infinite",
				"totalSupply()": "2522",
				"transfer(address,uint256)": "infinite",
				"transferFrom(address,address,uint256)": "infinite",
				"updateLeftBalOwner()": "infinite"
			}
		},
		"methodIdentifiers": {
			"allowance(address,address)": "dd62ed3e",
			"approve(address,uint256)": "095ea7b3",
			"approveWhiteList(uint256,bool)": "ea7d5165",
			"balanceOf(address)": "70a08231",
			"buyPrivateToken(uint256)": "254dc45e",
			"buyPublicToken(uint256)": "f2dfd08f",
			"changePublicPrice(uint256)": "9d7e8d5f",
			"checkTime()": "e0c6190d",
			"decimals()": "313ce567",
			"decreaseAllowance(address,uint256)": "a457c2d7",
			"giveCoinsFromOwner(uint256,address)": "896e8cb1",
			"increaseAllowance(address,uint256)": "39509351",
			"login(string,string)": "58467dbc",
			"makePrivateReq(string)": "db8fb88e",
			"name()": "06fdde03",
			"passwords(address)": "da0d37e6",
			"payReward(uint256,address)": "6515d6c1",
			"registration(string,string,string)": "0753afdf",
			"skipTime(uint256)": "6dfa00fe",
			"symbol()": "95d89b41",
			"totalSupply()": "18160ddd",
			"transfer(address,uint256)": "a9059cbb",
			"transferFrom(address,address,uint256)": "23b872dd",
			"updateLeftBalOwner()": "67198042"
		}
	},
	"abi": [
		{
			"inputs": [],
			"stateMutability": "nonpayable",
			"type": "constructor"
		},
		{
			"anonymous": false,
			"inputs": [
				{
					"indexed": true,
					"internalType": "address",
					"name": "owner",
					"type": "address"
				},
				{
					"indexed": true,
					"internalType": "address",
					"name": "spender",
					"type": "address"
				},
				{
					"indexed": false,
					"internalType": "uint256",
					"name": "value",
					"type": "uint256"
				}
			],
			"name": "Approval",
			"type": "event"
		},
		{
			"anonymous": false,
			"inputs": [
				{
					"indexed": true,
					"internalType": "address",
					"name": "from",
					"type": "address"
				},
				{
					"indexed": true,
					"internalType": "address",
					"name": "to",
					"type": "address"
				},
				{
					"indexed": false,
					"internalType": "uint256",
					"name": "value",
					"type": "uint256"
				}
			],
			"name": "Transfer",
			"type": "event"
		},
		{
			"inputs": [
				{
					"internalType": "address",
					"name": "owner",
					"type": "address"
				},
				{
					"internalType": "address",
					"name": "spender",
					"type": "address"
				}
			],
			"name": "allowance",
			"outputs": [
				{
					"internalType": "uint256",
					"name": "",
					"type": "uint256"
				}
			],
			"stateMutability": "view",
			"type": "function"
		},
		{
			"inputs": [
				{
					"internalType": "address",
					"name": "spender",
					"type": "address"
				},
				{
					"internalType": "uint256",
					"name": "amount",
					"type": "uint256"
				}
			],
			"name": "approve",
			"outputs": [
				{
					"internalType": "bool",
					"name": "",
					"type": "bool"
				}
			],
			"stateMutability": "nonpayable",
			"type": "function"
		},
		{
			"inputs": [
				{
					"internalType": "uint256",
					"name": "_idTicket",
					"type": "uint256"
				},
				{
					"internalType": "bool",
					"name": "status",
					"type": "bool"
				}
			],
			"name": "approveWhiteList",
			"outputs": [],
			"stateMutability": "nonpayable",
			"type": "function"
		},
		{
			"inputs": [
				{
					"internalType": "address",
					"name": "account",
					"type": "address"
				}
			],
			"name": "balanceOf",
			"outputs": [
				{
					"internalType": "uint256",
					"name": "",
					"type": "uint256"
				}
			],
			"stateMutability": "view",
			"type": "function"
		},
		{
			"inputs": [
				{
					"internalType": "uint256",
					"name": "_amount",
					"type": "uint256"
				}
			],
			"name": "buyPrivateToken",
			"outputs": [],
			"stateMutability": "payable",
			"type": "function"
		},
		{
			"inputs": [
				{
					"internalType": "uint256",
					"name": "_amount",
					"type": "uint256"
				}
			],
			"name": "buyPublicToken",
			"outputs": [],
			"stateMutability": "payable",
			"type": "function"
		},
		{
			"inputs": [
				{
					"internalType": "uint256",
					"name": "_newPrice",
					"type": "uint256"
				}
			],
			"name": "changePublicPrice",
			"outputs": [],
			"stateMutability": "nonpayable",
			"type": "function"
		},
		{
			"inputs": [],
			"name": "checkTime",
			"outputs": [
				{
					"internalType": "uint256",
					"name": "",
					"type": "uint256"
				}
			],
			"stateMutability": "nonpayable",
			"type": "function"
		},
		{
			"inputs": [],
			"name": "decimals",
			"outputs": [
				{
					"internalType": "uint8",
					"name": "",
					"type": "uint8"
				}
			],
			"stateMutability": "pure",
			"type": "function"
		},
		{
			"inputs": [
				{
					"internalType": "address",
					"name": "spender",
					"type": "address"
				},
				{
					"internalType": "uint256",
					"name": "subtractedValue",
					"type": "uint256"
				}
			],
			"name": "decreaseAllowance",
			"outputs": [
				{
					"internalType": "bool",
					"name": "",
					"type": "bool"
				}
			],
			"stateMutability": "nonpayable",
			"type": "function"
		},
		{
			"inputs": [
				{
					"internalType": "uint256",
					"name": "_amount",
					"type": "uint256"
				},
				{
					"internalType": "address",
					"name": "_user",
					"type": "address"
				}
			],
			"name": "giveCoinsFromOwner",
			"outputs": [],
			"stateMutability": "nonpayable",
			"type": "function"
		},
		{
			"inputs": [
				{
					"internalType": "address",
					"name": "spender",
					"type": "address"
				},
				{
					"internalType": "uint256",
					"name": "addedValue",
					"type": "uint256"
				}
			],
			"name": "increaseAllowance",
			"outputs": [
				{
					"internalType": "bool",
					"name": "",
					"type": "bool"
				}
			],
			"stateMutability": "nonpayable",
			"type": "function"
		},
		{
			"inputs": [
				{
					"internalType": "string",
					"name": "_login",
					"type": "string"
				},
				{
					"internalType": "string",
					"name": "_password",
					"type": "string"
				}
			],
			"name": "login",
			"outputs": [
				{
					"components": [
						{
							"internalType": "string",
							"name": "name",
							"type": "string"
						},
						{
							"internalType": "string",
							"name": "login",
							"type": "string"
						},
						{
							"internalType": "enum CryptoMonster.Role",
							"name": "role",
							"type": "uint8"
						},
						{
							"internalType": "address",
							"name": "adr",
							"type": "address"
						}
					],
					"internalType": "struct CryptoMonster.User",
					"name": "",
					"type": "tuple"
				}
			],
			"stateMutability": "view",
			"type": "function"
		},
		{
			"inputs": [
				{
					"internalType": "string",
					"name": "_name",
					"type": "string"
				}
			],
			"name": "makePrivateReq",
			"outputs": [],
			"stateMutability": "nonpayable",
			"type": "function"
		},
		{
			"inputs": [],
			"name": "name",
			"outputs": [
				{
					"internalType": "string",
					"name": "",
					"type": "string"
				}
			],
			"stateMutability": "view",
			"type": "function"
		},
		{
			"inputs": [
				{
					"internalType": "address",
					"name": "",
					"type": "address"
				}
			],
			"name": "passwords",
			"outputs": [
				{
					"internalType": "bytes32",
					"name": "",
					"type": "bytes32"
				}
			],
			"stateMutability": "view",
			"type": "function"
		},
		{
			"inputs": [
				{
					"internalType": "uint256",
					"name": "_amount",
					"type": "uint256"
				},
				{
					"internalType": "address",
					"name": "_user",
					"type": "address"
				}
			],
			"name": "payReward",
			"outputs": [],
			"stateMutability": "nonpayable",
			"type": "function"
		},
		{
			"inputs": [
				{
					"internalType": "string",
					"name": "_name",
					"type": "string"
				},
				{
					"internalType": "string",
					"name": "_password",
					"type": "string"
				},
				{
					"internalType": "string",
					"name": "_login",
					"type": "string"
				}
			],
			"name": "registration",
			"outputs": [],
			"stateMutability": "nonpayable",
			"type": "function"
		},
		{
			"inputs": [
				{
					"internalType": "uint256",
					"name": "_minutes",
					"type": "uint256"
				}
			],
			"name": "skipTime",
			"outputs": [],
			"stateMutability": "nonpayable",
			"type": "function"
		},
		{
			"inputs": [],
			"name": "symbol",
			"outputs": [
				{
					"internalType": "string",
					"name": "",
					"type": "string"
				}
			],
			"stateMutability": "view",
			"type": "function"
		},
		{
			"inputs": [],
			"name": "totalSupply",
			"outputs": [
				{
					"internalType": "uint256",
					"name": "",
					"type": "uint256"
				}
			],
			"stateMutability": "view",
			"type": "function"
		},
		{
			"inputs": [
				{
					"internalType": "address",
					"name": "to",
					"type": "address"
				},
				{
					"internalType": "uint256",
					"name": "amount",
					"type": "uint256"
				}
			],
			"name": "transfer",
			"outputs": [
				{
					"internalType": "bool",
					"name": "",
					"type": "bool"
				}
			],
			"stateMutability": "nonpayable",
			"type": "function"
		},
		{
			"inputs": [
				{
					"internalType": "address",
					"name": "from",
					"type": "address"
				},
				{
					"internalType": "address",
					"name": "to",
					"type": "address"
				},
				{
					"internalType": "uint256",
					"name": "amount",
					"type": "uint256"
				}
			],
			"name": "transferFrom",
			"outputs": [
				{
					"internalType": "bool",
					"name": "",
					"type": "bool"
				}
			],
			"stateMutability": "nonpayable",
			"type": "function"
		},
		{
			"inputs": [],
			"name": "updateLeftBalOwner",
			"outputs": [],
			"stateMutability": "nonpayable",
			"type": "function"
		}
	]
}