{
	"data": {
		"bytecode": {
			"linkReferences": {},
			"object": "60806040526200001462000e8d60201b60201c565b600a6200002291906200141d565b629896806200003291906200146d565b6005556064600a6005546200004891906200146d565b620000549190620014e4565b6006556064601e6005546200006a91906200146d565b620000769190620014e4565b6007556064603c6005546200008c91906200146d565b620000989190620014e4565b60085566038d7ea4c68000600955348015620000b2575f80fd5b506040518060400160405280600d81526020017f43727970746f4d6f6e73746572000000000000000000000000000000000000008152506040518060400160405280600481526020017f434d4f4e00000000000000000000000000000000000000000000000000000000815250816003908162000130919062001776565b50806004908162000142919062001776565b50505033600e5f6101000a81548173ffffffffffffffffffffffffffffffffffffffff021916908373ffffffffffffffffffffffffffffffffffffffff1602179055506040518060e001604052806001151581526020016040518060400160405280600581526020017f6f776e65720000000000000000000000000000000000000000000000000000008152508152602001600380811115620001ea57620001e96200185a565b5b81526020013373ffffffffffffffffffffffffffffffffffffffff1681526020015f81526020015f81526020015f815250600f5f3373ffffffffffffffffffffffffffffffffffffffff1673ffffffffffffffffffffffffffffffffffffffff1681526020019081526020015f205f820151815f015f6101000a81548160ff02191690831515021790555060208201518160010190816200028c919062001776565b506040820151816002015f6101000a81548160ff02191690836003811115620002ba57620002b96200185a565b5b021790555060608201518160020160016101000a81548173ffffffffffffffffffffffffffffffffffffffff021916908373ffffffffffffffffffffffffffffffffffffffff1602179055506080820151816003015560a0820151816004015560c0820151816005015590505042600b81905550600b54600d819055506200034b3360055462000e9560201b60201c565b6040518060e001604052806001151581526020016040518060400160405280600781526020017f7072697661746500000000000000000000000000000000000000000000000000815250815260200160016003811115620003b157620003b06200185a565b5b815260200173ab8483f64d9c6d1ecf9b849ae677dd3315835cb273ffffffffffffffffffffffffffffffffffffffff1681526020015f81526020015f81526020015f815250600f5f73ab8483f64d9c6d1ecf9b849ae677dd3315835cb273ffffffffffffffffffffffffffffffffffffffff1673ffffffffffffffffffffffffffffffffffffffff1681526020019081526020015f205f820151815f015f6101000a81548160ff02191690831515021790555060208201518160010190816200047b919062001776565b506040820151816002015f6101000a81548160ff02191690836003811115620004a957620004a86200185a565b5b021790555060608201518160020160016101000a81548173ffffffffffffffffffffffffffffffffffffffff021916908373ffffffffffffffffffffffffffffffffffffffff1602179055506080820151816003015560a0820151816004015560c082015181600501559050506040518060e001604052805f151581526020016040518060400160405280600681526020017f7075626c696300000000000000000000000000000000000000000000000000008152508152602001600260038111156200057b576200057a6200185a565b5b8152602001734b20993bc481177ec7e8f571cecae8a9e22c02db73ffffffffffffffffffffffffffffffffffffffff1681526020015f81526020015f81526020015f815250600f5f734b20993bc481177ec7e8f571cecae8a9e22c02db73ffffffffffffffffffffffffffffffffffffffff1673ffffffffffffffffffffffffffffffffffffffff1681526020019081526020015f205f820151815f015f6101000a81548160ff021916908315150217905550602082015181600101908162000645919062001776565b506040820151816002015f6101000a81548160ff021916908360038111156200067357620006726200185a565b5b021790555060608201518160020160016101000a81548173ffffffffffffffffffffffffffffffffffffffff021916908373ffffffffffffffffffffffffffffffffffffffff1602179055506080820151816003015560a0820151816004015560c082015181600501559050506040518060e001604052805f151581526020016040518060400160405280600981526020017f696e766573746f7231000000000000000000000000000000000000000000000081525081526020015f60038111156200074457620007436200185a565b5b81526020017378731d3ca6b7e34ac0f824c42a7cc18a495cabab73ffffffffffffffffffffffffffffffffffffffff1681526020016200078962000e8d60201b60201c565b600a6200079791906200141d565b620493e0620007a791906200146d565b81526020015f81526020015f815250600f5f7378731d3ca6b7e34ac0f824c42a7cc18a495cabab73ffffffffffffffffffffffffffffffffffffffff1673ffffffffffffffffffffffffffffffffffffffff1681526020019081526020015f205f820151815f015f6101000a81548160ff02191690831515021790555060208201518160010190816200083b919062001776565b506040820151816002015f6101000a81548160ff021916908360038111156200086957620008686200185a565b5b021790555060608201518160020160016101000a81548173ffffffffffffffffffffffffffffffffffffffff021916908373ffffffffffffffffffffffffffffffffffffffff1602179055506080820151816003015560a0820151816004015560c082015181600501559050506040518060e001604052805f151581526020016040518060400160405280600981526020017f696e766573746f7232000000000000000000000000000000000000000000000081525081526020015f60038111156200093a57620009396200185a565b5b815260200173617f2e2fd72fd9d5503197092ac168c91465e7f273ffffffffffffffffffffffffffffffffffffffff1681526020016200097f62000e8d60201b60201c565b600a6200098d91906200141d565b62061a806200099d91906200146d565b81526020015f81526020015f815250600f5f73617f2e2fd72fd9d5503197092ac168c91465e7f273ffffffffffffffffffffffffffffffffffffffff1673ffffffffffffffffffffffffffffffffffffffff1681526020019081526020015f205f820151815f015f6101000a81548160ff021916908315150217905550602082015181600101908162000a31919062001776565b506040820151816002015f6101000a81548160ff0219169083600381111562000a5f5762000a5e6200185a565b5b021790555060608201518160020160016101000a81548173ffffffffffffffffffffffffffffffffffffffff021916908373ffffffffffffffffffffffffffffffffffffffff1602179055506080820151816003015560a0820151816004015560c082015181600501559050506040518060e001604052805f151581526020016040518060400160405280600a81526020017f62657374467269656e640000000000000000000000000000000000000000000081525081526020015f600381111562000b305762000b2f6200185a565b5b81526020017317f6ad8ef982297579c203069c1dbffe4348c37273ffffffffffffffffffffffffffffffffffffffff16815260200162000b7562000e8d60201b60201c565b600a62000b8391906200141d565b62030d4062000b9391906200146d565b81526020015f81526020015f815250600f5f7317f6ad8ef982297579c203069c1dbffe4348c37273ffffffffffffffffffffffffffffffffffffffff1673ffffffffffffffffffffffffffffffffffffffff1681526020019081526020015f205f820151815f015f6101000a81548160ff021916908315150217905550602082015181600101908162000c27919062001776565b506040820151816002015f6101000a81548160ff0219169083600381111562000c555762000c546200185a565b5b021790555060608201518160020160016101000a81548173ffffffffffffffffffffffffffffffffffffffff021916908373ffffffffffffffffffffffffffffffffffffffff1602179055506080820151816003015560a0820151816004015560c0820151816005015590505062000d16337378731d3ca6b7e34ac0f824c42a7cc18a495cabab62000cec62000e8d60201b60201c565b600a62000cfa91906200141d565b620493e062000d0a91906200146d565b62000ffa60201b60201c565b62000d2662000e8d60201b60201c565b600a62000d3491906200141d565b620493e062000d4491906200146d565b60065462000d53919062001887565b60068190555062000dad3373617f2e2fd72fd9d5503197092ac168c91465e7f262000d8362000e8d60201b60201c565b600a62000d9191906200141d565b62061a8062000da191906200146d565b62000ffa60201b60201c565b62000dbd62000e8d60201b60201c565b600a62000dcb91906200141d565b62061a8062000ddb91906200146d565b60065462000dea919062001887565b60068190555062000e44337317f6ad8ef982297579c203069c1dbffe4348c37262000e1a62000e8d60201b60201c565b600a62000e2891906200141d565b62030d4062000e3891906200146d565b62000ffa60201b60201c565b62000e5462000e8d60201b60201c565b600a62000e6291906200141d565b62030d4062000e7291906200146d565b60065462000e81919062001887565b60068190555062001b61565b5f600c905090565b5f73ffffffffffffffffffffffffffffffffffffffff168273ffffffffffffffffffffffffffffffffffffffff160362000f06576040517f08c379a000000000000000000000000000000000000000000000000000000000815260040162000efd906200191f565b60405180910390fd5b62000f195f83836200128160201b60201c565b8060025f82825462000f2c91906200193f565b92505081905550805f808473ffffffffffffffffffffffffffffffffffffffff1673ffffffffffffffffffffffffffffffffffffffff1681526020019081526020015f205f82825401925050819055508173ffffffffffffffffffffffffffffffffffffffff165f73ffffffffffffffffffffffffffffffffffffffff167fddf252ad1be2c89b69c2b068fc378daa952ba7f163c4a11628f55a4df523b3ef8360405162000fdb91906200198a565b60405180910390a362000ff65f83836200128660201b60201c565b5050565b5f73ffffffffffffffffffffffffffffffffffffffff168373ffffffffffffffffffffffffffffffffffffffff16036200106b576040517f08c379a0000000000000000000000000000000000000000000000000000000008152600401620010629062001a19565b60405180910390fd5b5f73ffffffffffffffffffffffffffffffffffffffff168273ffffffffffffffffffffffffffffffffffffffff1603620010dc576040517f08c379a0000000000000000000000000000000000000000000000000000000008152600401620010d39062001aad565b60405180910390fd5b620010ef8383836200128160201b60201c565b5f805f8573ffffffffffffffffffffffffffffffffffffffff1673ffffffffffffffffffffffffffffffffffffffff1681526020019081526020015f205490508181101562001175576040517f08c379a00000000000000000000000000000000000000000000000000000000081526004016200116c9062001b41565b60405180910390fd5b8181035f808673ffffffffffffffffffffffffffffffffffffffff1673ffffffffffffffffffffffffffffffffffffffff1681526020019081526020015f2081905550815f808573ffffffffffffffffffffffffffffffffffffffff1673ffffffffffffffffffffffffffffffffffffffff1681526020019081526020015f205f82825401925050819055508273ffffffffffffffffffffffffffffffffffffffff168473ffffffffffffffffffffffffffffffffffffffff167fddf252ad1be2c89b69c2b068fc378daa952ba7f163c4a11628f55a4df523b3ef846040516200126091906200198a565b60405180910390a36200127b8484846200128660201b60201c565b50505050565b505050565b505050565b7f4e487b71000000000000000000000000000000000000000000000000000000005f52601160045260245ffd5b5f8160011c9050919050565b5f808291508390505b60018511156200131557808604811115620012ed57620012ec6200128b565b5b6001851615620012fd5780820291505b80810290506200130d85620012b8565b9450620012cd565b94509492505050565b5f826200132f576001905062001401565b816200133e575f905062001401565b8160018114620013575760028114620013625762001398565b600191505062001401565b60ff8411156200137757620013766200128b565b5b8360020a9150848211156200139157620013906200128b565b5b5062001401565b5060208310610133831016604e8410600b8410161715620013d25782820a905083811115620013cc57620013cb6200128b565b5b62001401565b620013e18484846001620012c4565b92509050818404811115620013fb57620013fa6200128b565b5b81810290505b9392505050565b5f819050919050565b5f60ff82169050919050565b5f620014298262001408565b9150620014368362001411565b9250620014657fffffffffffffffffffffffffffffffffffffffffffffffffffffffffffffffff84846200131e565b905092915050565b5f620014798262001408565b9150620014868362001408565b9250828202620014968162001408565b91508282048414831517620014b057620014af6200128b565b5b5092915050565b7f4e487b71000000000000000000000000000000000000000000000000000000005f52601260045260245ffd5b5f620014f08262001408565b9150620014fd8362001408565b92508262001510576200150f620014b7565b5b828204905092915050565b5f81519050919050565b7f4e487b71000000000000000000000000000000000000000000000000000000005f52604160045260245ffd5b7f4e487b71000000000000000000000000000000000000000000000000000000005f52602260045260245ffd5b5f60028204905060018216806200159757607f821691505b602082108103620015ad57620015ac62001552565b5b50919050565b5f819050815f5260205f209050919050565b5f6020601f8301049050919050565b5f82821b905092915050565b5f60088302620016117fffffffffffffffffffffffffffffffffffffffffffffffffffffffffffffffff82620015d4565b6200161d8683620015d4565b95508019841693508086168417925050509392505050565b5f819050919050565b5f6200165e62001658620016528462001408565b62001635565b62001408565b9050919050565b5f819050919050565b62001679836200163e565b62001691620016888262001665565b848454620015e0565b825550505050565b5f90565b620016a762001699565b620016b48184846200166e565b505050565b5b81811015620016db57620016cf5f826200169d565b600181019050620016ba565b5050565b601f8211156200172a57620016f481620015b3565b620016ff84620015c5565b810160208510156200170f578190505b620017276200171e85620015c5565b830182620016b9565b50505b505050565b5f82821c905092915050565b5f6200174c5f19846008026200172f565b1980831691505092915050565b5f6200176683836200173b565b9150826002028217905092915050565b62001781826200151b565b67ffffffffffffffff8111156200179d576200179c62001525565b5b620017a982546200157f565b620017b6828285620016df565b5f60209050601f831160018114620017ec575f8415620017d7578287015190505b620017e3858262001759565b86555062001852565b601f198416620017fc86620015b3565b5f5b828110156200182557848901518255600182019150602085019450602081019050620017fe565b8683101562001845578489015162001841601f8916826200173b565b8355505b6001600288020188555050505b505050505050565b7f4e487b71000000000000000000000000000000000000000000000000000000005f52602160045260245ffd5b5f620018938262001408565b9150620018a08362001408565b9250828203905081811115620018bb57620018ba6200128b565b5b92915050565b5f82825260208201905092915050565b7f45524332303a206d696e7420746f20746865207a65726f2061646472657373005f82015250565b5f62001907601f83620018c1565b91506200191482620018d1565b602082019050919050565b5f6020820190508181035f8301526200193881620018f9565b9050919050565b5f6200194b8262001408565b9150620019588362001408565b92508282019050808211156200197357620019726200128b565b5b92915050565b620019848162001408565b82525050565b5f6020820190506200199f5f83018462001979565b92915050565b7f45524332303a207472616e736665722066726f6d20746865207a65726f2061645f8201527f6472657373000000000000000000000000000000000000000000000000000000602082015250565b5f62001a01602583620018c1565b915062001a0e82620019a5565b604082019050919050565b5f6020820190508181035f83015262001a3281620019f3565b9050919050565b7f45524332303a207472616e7366657220746f20746865207a65726f20616464725f8201527f6573730000000000000000000000000000000000000000000000000000000000602082015250565b5f62001a95602383620018c1565b915062001aa28262001a39565b604082019050919050565b5f6020820190508181035f83015262001ac68162001a87565b9050919050565b7f45524332303a207472616e7366657220616d6f756e74206578636565647320625f8201527f616c616e63650000000000000000000000000000000000000000000000000000602082015250565b5f62001b29602683620018c1565b915062001b368262001acd565b604082019050919050565b5f6020820190508181035f83015262001b5a8162001b1b565b9050919050565b61435f8062001b6f5f395ff3fe60806040526004361061019b575f3560e01c80636dfa00fe116100eb578063a9059cbb11610089578063da0d37e611610063578063da0d37e6146105c5578063db8fb88e14610601578063dd62ed3e14610629578063e0c6190d146106655761019b565b8063a9059cbb14610539578063afe3e90614610575578063c4a91d561461059d5761019b565b8063896e8cb1116100c5578063896e8cb11461048357806395d89b41146104ab5780639d7e8d5f146104d5578063a457c2d7146104fd5761019b565b80636dfa00fe146103e157806370a082311461040957806374adad1d146104455761019b565b8063313ce567116101585780634b94f50e116101325780634b94f50e1461033d57806358467dbc146103675780636515d6c1146103a357806367198042146103cb5761019b565b8063313ce567146102af57806339509351146102d957806348419dc8146103155761019b565b806306fdde031461019f5780630737c6b6146101c9578063095ea7b3146101f157806318160ddd1461022d57806323b872dd146102575780632d296bf114610293575b5f80fd5b3480156101aa575f80fd5b506101b361068f565b6040516101c09190612ba7565b60405180910390f35b3480156101d4575f80fd5b506101ef60048036038101906101ea9190612c88565b61071f565b005b3480156101fc575f80fd5b5061021760048036038101906102129190612cd8565b610bba565b6040516102249190612d30565b60405180910390f35b348015610238575f80fd5b50610241610bdc565b60405161024e9190612d58565b60405180910390f35b348015610262575f80fd5b5061027d60048036038101906102789190612d71565b610be5565b60405161028a9190612d30565b60405180910390f35b6102ad60048036038101906102a89190612dc1565b610c13565b005b3480156102ba575f80fd5b506102c361106a565b6040516102d09190612e07565b60405180910390f35b3480156102e4575f80fd5b506102ff60048036038101906102fa9190612cd8565b611072565b60405161030c9190612d30565b60405180910390f35b348015610320575f80fd5b5061033b60048036038101906103369190612f4c565b6110a8565b005b348015610348575f80fd5b5061035161144d565b60405161035e9190612d58565b60405180910390f35b348015610372575f80fd5b5061038d60048036038101906103889190612f4c565b6114aa565b60405161039a9190613143565b60405180910390f35b3480156103ae575f80fd5b506103c960048036038101906103c49190613163565b611826565b005b3480156103d6575f80fd5b506103df611962565b005b3480156103ec575f80fd5b5061040760048036038101906104029190612dc1565b611a71565b005b348015610414575f80fd5b5061042f600480360381019061042a91906131a1565b611a98565b60405161043c9190612d58565b60405180910390f35b348015610450575f80fd5b5061046b600480360381019061046691906131a1565b611add565b60405161047a93929190613221565b60405180910390f35b34801561048e575f80fd5b506104a960048036038101906104a49190613163565b611bb5565b005b3480156104b6575f80fd5b506104bf611cdb565b6040516104cc9190612ba7565b60405180910390f35b3480156104e0575f80fd5b506104fb60048036038101906104f69190612dc1565b611d6b565b005b348015610508575f80fd5b50610523600480360381019061051e9190612cd8565b611e2a565b6040516105309190612d30565b60405180910390f35b348015610544575f80fd5b5061055f600480360381019061055a9190612cd8565b611e9f565b60405161056c9190612d30565b60405180910390f35b348015610580575f80fd5b5061059b60048036038101906105969190613280565b611ec1565b005b3480156105a8575f80fd5b506105c360048036038101906105be9190613163565b6120b9565b005b3480156105d0575f80fd5b506105eb60048036038101906105e691906131a1565b6121bf565b6040516105f891906132d6565b60405180910390f35b34801561060c575f80fd5b50610627600480360381019061062291906132ef565b6121d4565b005b348015610634575f80fd5b5061064f600480360381019061064a9190613336565b612450565b60405161065c9190612d58565b60405180910390f35b348015610670575f80fd5b506106796124d2565b6040516106869190612d58565b60405180910390f35b60606003805461069e906133a1565b80601f01602080910402602001604051908101604052809291908181526020018280546106ca906133a1565b80156107155780601f106106ec57610100808354040283529160200191610715565b820191905f5260205f20905b8154815290600101906020018083116106f857829003601f168201915b5050505050905090565b5f8211610761576040517f08c379a000000000000000000000000000000000000000000000000000000000815260040161075890613441565b60405180910390fd5b61076961106a565b600a61077591906135bb565b826107809190613605565b91506001600281111561079657610795613019565b5b8160028111156107a9576107a8613019565b5b036108e95781600f5f3373ffffffffffffffffffffffffffffffffffffffff1673ffffffffffffffffffffffffffffffffffffffff1681526020019081526020015f20600401541015610831576040517f08c379a0000000000000000000000000000000000000000000000000000000008152600401610828906136b6565b60405180910390fd5b61083c33848461250a565b81600f5f3373ffffffffffffffffffffffffffffffffffffffff1673ffffffffffffffffffffffffffffffffffffffff1681526020019081526020015f206004015f82825461088b91906136d4565b9250508190555081600f5f8573ffffffffffffffffffffffffffffffffffffffff1673ffffffffffffffffffffffffffffffffffffffff1681526020019081526020015f206004015f8282546108e19190613707565b925050819055505b5f60028111156108fc576108fb613019565b5b81600281111561090f5761090e613019565b5b03610a4f5781600f5f3373ffffffffffffffffffffffffffffffffffffffff1673ffffffffffffffffffffffffffffffffffffffff1681526020019081526020015f20600301541015610997576040517f08c379a000000000000000000000000000000000000000000000000000000000815260040161098e906136b6565b60405180910390fd5b6109a233848461250a565b81600f5f3373ffffffffffffffffffffffffffffffffffffffff1673ffffffffffffffffffffffffffffffffffffffff1681526020019081526020015f206003015f8282546109f191906136d4565b9250508190555081600f5f8573ffffffffffffffffffffffffffffffffffffffff1673ffffffffffffffffffffffffffffffffffffffff1681526020019081526020015f206003015f828254610a479190613707565b925050819055505b600280811115610a6257610a61613019565b5b816002811115610a7557610a74613019565b5b03610bb55781600f5f3373ffffffffffffffffffffffffffffffffffffffff1673ffffffffffffffffffffffffffffffffffffffff1681526020019081526020015f20600501541015610afd576040517f08c379a0000000000000000000000000000000000000000000000000000000008152600401610af4906136b6565b60405180910390fd5b610b0833848461250a565b81600f5f3373ffffffffffffffffffffffffffffffffffffffff1673ffffffffffffffffffffffffffffffffffffffff1681526020019081526020015f206005015f828254610b5791906136d4565b9250508190555081600f5f8573ffffffffffffffffffffffffffffffffffffffff1673ffffffffffffffffffffffffffffffffffffffff1681526020019081526020015f206005015f828254610bad9190613707565b925050819055505b505050565b5f80610bc4612776565b9050610bd181858561277d565b600191505092915050565b5f600254905090565b5f80610bef612776565b9050610bfc858285612940565b610c0785858561250a565b60019150509392505050565b610c1b61106a565b600a610c2791906135bb565b81610c329190613605565b905061012c610c3f6124d2565b11610c7f576040517f08c379a0000000000000000000000000000000000000000000000000000000008152600401610c76906137aa565b60405180910390fd5b5f8111610cc1576040517f08c379a0000000000000000000000000000000000000000000000000000000008152600401610cb890613441565b60405180910390fd5b5f600f5f73ab8483f64d9c6d1ecf9b849ae677dd3315835cb273ffffffffffffffffffffffffffffffffffffffff1673ffffffffffffffffffffffffffffffffffffffff1681526020019081526020015f206004015411610d57576040517f08c379a0000000000000000000000000000000000000000000000000000000008152600401610d4e90613838565b60405180910390fd5b5f600f5f734b20993bc481177ec7e8f571cecae8a9e22c02db73ffffffffffffffffffffffffffffffffffffffff1673ffffffffffffffffffffffffffffffffffffffff1681526020019081526020015f206005015411610ded576040517f08c379a0000000000000000000000000000000000000000000000000000000008152600401610de490613838565b60405180910390fd5b5f610df661144d565b9050661aa535d3d0c000610e0861144d565b03610f095781600f5f3373ffffffffffffffffffffffffffffffffffffffff1673ffffffffffffffffffffffffffffffffffffffff1681526020019081526020015f206004015f828254610e5c9190613707565b9250508190555081600f5f73ab8483f64d9c6d1ecf9b849ae677dd3315835cb273ffffffffffffffffffffffffffffffffffffffff1673ffffffffffffffffffffffffffffffffffffffff1681526020019081526020015f206004015f828254610ec691906136d4565b92505081905550610eec73ab8483f64d9c6d1ecf9b849ae677dd3315835cb2338461250a565b8160075f828254610efd91906136d4565b92505081905550611001565b81600f5f3373ffffffffffffffffffffffffffffffffffffffff1673ffffffffffffffffffffffffffffffffffffffff1681526020019081526020015f206005015f828254610f589190613707565b9250508190555081600f5f734b20993bc481177ec7e8f571cecae8a9e22c02db73ffffffffffffffffffffffffffffffffffffffff1673ffffffffffffffffffffffffffffffffffffffff1681526020019081526020015f206005015f828254610fc291906136d4565b92505081905550610fe8734b20993bc481177ec7e8f571cecae8a9e22c02db338461250a565b8160085f828254610ff991906136d4565b925050819055505b600e5f9054906101000a900473ffffffffffffffffffffffffffffffffffffffff1673ffffffffffffffffffffffffffffffffffffffff166108fc3490811502906040515f60405180830381858888f19350505050158015611065573d5f803e3d5ffd5b505050565b5f600c905090565b5f8061107c612776565b905061109d81858561108e8589612450565b6110989190613707565b61277d565b600191505092915050565b5f73ffffffffffffffffffffffffffffffffffffffff166010836040516110cf9190613890565b90815260200160405180910390205f9054906101000a900473ffffffffffffffffffffffffffffffffffffffff1673ffffffffffffffffffffffffffffffffffffffff1614611153576040517f08c379a000000000000000000000000000000000000000000000000000000000815260040161114a9061393c565b60405180910390fd5b5f73ffffffffffffffffffffffffffffffffffffffff16600f5f3373ffffffffffffffffffffffffffffffffffffffff1673ffffffffffffffffffffffffffffffffffffffff1681526020019081526020015f2060020160019054906101000a900473ffffffffffffffffffffffffffffffffffffffff1673ffffffffffffffffffffffffffffffffffffffff1614611221576040517f08c379a0000000000000000000000000000000000000000000000000000000008152600401611218906139f0565b60405180910390fd5b6040518060e001604052805f151581526020018381526020015f600381111561124d5761124c613019565b5b81526020013373ffffffffffffffffffffffffffffffffffffffff1681526020015f81526020015f81526020015f815250600f5f3373ffffffffffffffffffffffffffffffffffffffff1673ffffffffffffffffffffffffffffffffffffffff1681526020019081526020015f205f820151815f015f6101000a81548160ff02191690831515021790555060208201518160010190816112ed9190613bab565b506040820151816002015f6101000a81548160ff0219169083600381111561131857611317613019565b5b021790555060608201518160020160016101000a81548173ffffffffffffffffffffffffffffffffffffffff021916908373ffffffffffffffffffffffffffffffffffffffff1602179055506080820151816003015560a0820151816004015560c08201518160050155905050336010836040516113969190613890565b90815260200160405180910390205f6101000a81548173ffffffffffffffffffffffffffffffffffffffff021916908373ffffffffffffffffffffffffffffffffffffffff160217905550806040516020016113f29190612ba7565b6040516020818303038152906040528051906020012060115f3373ffffffffffffffffffffffffffffffffffffffff1673ffffffffffffffffffffffffffffffffffffffff1681526020019081526020015f20819055505050565b5f805f905061012c61145d6124d2565b1015801561147457506103846114716124d2565b11155b1561148457661aa535d3d0c00090505b61038461148f6124d2565b1061149a5760095490505b6114a3816129cb565b8091505090565b6114b2612ab2565b5f600f5f3373ffffffffffffffffffffffffffffffffffffffff1673ffffffffffffffffffffffffffffffffffffffff1681526020019081526020015f2060010180546114fe906133a1565b80601f016020809104026020016040519081016040528092919081815260200182805461152a906133a1565b80156115755780601f1061154c57610100808354040283529160200191611575565b820191905f5260205f20905b81548152906001019060200180831161155857829003601f168201915b505050505090508060405160200161158d9190612ba7565b60405160208183030381529060405280519060200120846040516020016115b49190612ba7565b60405160208183030381529060405280519060200120146115d3575f80fd5b60115f3373ffffffffffffffffffffffffffffffffffffffff1673ffffffffffffffffffffffffffffffffffffffff1681526020019081526020015f2054836040516020016116229190612ba7565b6040516020818303038152906040528051906020012014611641575f80fd5b600f5f6010866040516116549190613890565b90815260200160405180910390205f9054906101000a900473ffffffffffffffffffffffffffffffffffffffff1673ffffffffffffffffffffffffffffffffffffffff1673ffffffffffffffffffffffffffffffffffffffff1681526020019081526020015f206040518060e00160405290815f82015f9054906101000a900460ff161515151581526020016001820180546116ef906133a1565b80601f016020809104026020016040519081016040528092919081815260200182805461171b906133a1565b80156117665780601f1061173d57610100808354040283529160200191611766565b820191905f5260205f20905b81548152906001019060200180831161174957829003601f168201915b50505050508152602001600282015f9054906101000a900460ff16600381111561179357611792613019565b5b60038111156117a5576117a4613019565b5b81526020016002820160019054906101000a900473ffffffffffffffffffffffffffffffffffffffff1673ffffffffffffffffffffffffffffffffffffffff1673ffffffffffffffffffffffffffffffffffffffff168152602001600382015481526020016004820154815260200160058201548152505091505092915050565b600280600381111561183b5761183a613019565b5b600f5f3373ffffffffffffffffffffffffffffffffffffffff1673ffffffffffffffffffffffffffffffffffffffff1681526020019081526020015f206002015f9054906101000a900460ff16600381111561189a57611899613019565b5b146118da576040517f08c379a00000000000000000000000000000000000000000000000000000000081526004016118d190613d10565b60405180910390fd5b5f831161191c576040517f08c379a000000000000000000000000000000000000000000000000000000000815260040161191390613441565b60405180910390fd5b61192733838561250a565b61192f61106a565b600a61193b91906135bb565b836119469190613605565b60085f82825461195691906136d4565b92505081905550505050565b600380600381111561197757611976613019565b5b600f5f3373ffffffffffffffffffffffffffffffffffffffff1673ffffffffffffffffffffffffffffffffffffffff1681526020019081526020015f206002015f9054906101000a900460ff1660038111156119d6576119d5613019565b5b14611a16576040517f08c379a0000000000000000000000000000000000000000000000000000000008152600401611a0d90613d10565b60405180910390fd5b61012c611a216124d2565b1115611a4257600654600a5f828254611a3a9190613707565b925050819055505b610384611a4d6124d2565b1115611a6e57600754600a5f828254611a669190613707565b925050819055505b50565b603c81611a7e9190613605565b600c5f828254611a8e9190613707565b9250508190555050565b5f805f8373ffffffffffffffffffffffffffffffffffffffff1673ffffffffffffffffffffffffffffffffffffffff1681526020019081526020015f20549050919050565b6012602052805f5260405f205f91509050805f018054611afc906133a1565b80601f0160208091040260200160405190810160405280929190818152602001828054611b28906133a1565b8015611b735780601f10611b4a57610100808354040283529160200191611b73565b820191905f5260205f20905b815481529060010190602001808311611b5657829003601f168201915b505050505090806001015f9054906101000a900473ffffffffffffffffffffffffffffffffffffffff16908060010160149054906101000a900460ff16905083565b6003806003811115611bca57611bc9613019565b5b600f5f3373ffffffffffffffffffffffffffffffffffffffff1673ffffffffffffffffffffffffffffffffffffffff1681526020019081526020015f206002015f9054906101000a900460ff166003811115611c2957611c28613019565b5b14611c69576040517f08c379a0000000000000000000000000000000000000000000000000000000008152600401611c6090613d10565b60405180910390fd5b5f600a5411611cad576040517f08c379a0000000000000000000000000000000000000000000000000000000008152600401611ca490613d9e565b60405180910390fd5b611cd63383611cba61106a565b600a611cc691906135bb565b86611cd19190613605565b61250a565b505050565b606060048054611cea906133a1565b80601f0160208091040260200160405190810160405280929190818152602001828054611d16906133a1565b8015611d615780601f10611d3857610100808354040283529160200191611d61565b820191905f5260205f20905b815481529060010190602001808311611d4457829003601f168201915b5050505050905090565b6002806003811115611d8057611d7f613019565b5b600f5f3373ffffffffffffffffffffffffffffffffffffffff1673ffffffffffffffffffffffffffffffffffffffff1681526020019081526020015f206002015f9054906101000a900460ff166003811115611ddf57611dde613019565b5b14611e1f576040517f08c379a0000000000000000000000000000000000000000000000000000000008152600401611e1690613d10565b60405180910390fd5b816009819055505050565b5f80611e34612776565b90505f611e418286612450565b905083811015611e86576040517f08c379a0000000000000000000000000000000000000000000000000000000008152600401611e7d90613e2c565b60405180910390fd5b611e93828686840361277d565b60019250505092915050565b5f80611ea9612776565b9050611eb681858561250a565b600191505092915050565b6001806003811115611ed657611ed5613019565b5b600f5f3373ffffffffffffffffffffffffffffffffffffffff1673ffffffffffffffffffffffffffffffffffffffff1681526020019081526020015f206002015f9054906101000a900460ff166003811115611f3557611f34613019565b5b14611f75576040517f08c379a0000000000000000000000000000000000000000000000000000000008152600401611f6c90613d10565b60405180910390fd5b600280811115611f8857611f87613019565b5b826002811115611f9b57611f9a613019565b5b03611fdb576040517f08c379a0000000000000000000000000000000000000000000000000000000008152600401611fd290613eba565b60405180910390fd5b60016002811115611fef57611fee613019565b5b82600281111561200257612001613019565b5b03612063576001600f5f8573ffffffffffffffffffffffffffffffffffffffff1673ffffffffffffffffffffffffffffffffffffffff1681526020019081526020015f205f015f6101000a81548160ff0219169083151502179055506120b4565b60125f8473ffffffffffffffffffffffffffffffffffffffff1673ffffffffffffffffffffffffffffffffffffffff1681526020019081526020015f2060010160146101000a81549060ff02191690555b505050565b60038060038111156120ce576120cd613019565b5b600f5f3373ffffffffffffffffffffffffffffffffffffffff1673ffffffffffffffffffffffffffffffffffffffff1681526020019081526020015f206002015f9054906101000a900460ff16600381111561212d5761212c613019565b5b1461216d576040517f08c379a000000000000000000000000000000000000000000000000000000000815260040161216490613d10565b60405180910390fd5b5f83116121af576040517f08c379a00000000000000000000000000000000000000000000000000000000081526004016121a690613441565b60405180910390fd5b6121ba33838561250a565b505050565b6011602052805f5260405f205f915090505481565b600f6121de6124d2565b1161221e576040517f08c379a000000000000000000000000000000000000000000000000000000000815260040161221590613f48565b60405180910390fd5b600f5f3373ffffffffffffffffffffffffffffffffffffffff1673ffffffffffffffffffffffffffffffffffffffff1681526020019081526020015f205f015f9054906101000a900460ff16156122aa576040517f08c379a00000000000000000000000000000000000000000000000000000000081526004016122a190613fb0565b60405180910390fd5b5f73ffffffffffffffffffffffffffffffffffffffff1660125f3373ffffffffffffffffffffffffffffffffffffffff1673ffffffffffffffffffffffffffffffffffffffff1681526020019081526020015f206001015f9054906101000a900473ffffffffffffffffffffffffffffffffffffffff1673ffffffffffffffffffffffffffffffffffffffff1614612340575f80fd5b60405180606001604052808281526020013373ffffffffffffffffffffffffffffffffffffffff1681526020016002808111156123805761237f613019565b5b81525060125f3373ffffffffffffffffffffffffffffffffffffffff1673ffffffffffffffffffffffffffffffffffffffff1681526020019081526020015f205f820151815f0190816123d39190613bab565b506020820151816001015f6101000a81548173ffffffffffffffffffffffffffffffffffffffff021916908373ffffffffffffffffffffffffffffffffffffffff16021790555060408201518160010160146101000a81548160ff0219169083600281111561244557612444613019565b5b021790555090505050565b5f60015f8473ffffffffffffffffffffffffffffffffffffffff1673ffffffffffffffffffffffffffffffffffffffff1681526020019081526020015f205f8373ffffffffffffffffffffffffffffffffffffffff1673ffffffffffffffffffffffffffffffffffffffff1681526020019081526020015f2054905092915050565b5f600c54426124e19190613707565b600d819055505f600b54600d546124f891906136d4565b9050612503816129cb565b8091505090565b5f73ffffffffffffffffffffffffffffffffffffffff168373ffffffffffffffffffffffffffffffffffffffff1603612578576040517f08c379a000000000000000000000000000000000000000000000000000000000815260040161256f9061403e565b60405180910390fd5b5f73ffffffffffffffffffffffffffffffffffffffff168273ffffffffffffffffffffffffffffffffffffffff16036125e6576040517f08c379a00000000000000000000000000000000000000000000000000000000081526004016125dd906140cc565b60405180910390fd5b6125f1838383612a64565b5f805f8573ffffffffffffffffffffffffffffffffffffffff1673ffffffffffffffffffffffffffffffffffffffff1681526020019081526020015f2054905081811015612674576040517f08c379a000000000000000000000000000000000000000000000000000000000815260040161266b9061415a565b60405180910390fd5b8181035f808673ffffffffffffffffffffffffffffffffffffffff1673ffffffffffffffffffffffffffffffffffffffff1681526020019081526020015f2081905550815f808573ffffffffffffffffffffffffffffffffffffffff1673ffffffffffffffffffffffffffffffffffffffff1681526020019081526020015f205f82825401925050819055508273ffffffffffffffffffffffffffffffffffffffff168473ffffffffffffffffffffffffffffffffffffffff167fddf252ad1be2c89b69c2b068fc378daa952ba7f163c4a11628f55a4df523b3ef8460405161275d9190612d58565b60405180910390a3612770848484612a69565b50505050565b5f33905090565b5f73ffffffffffffffffffffffffffffffffffffffff168373ffffffffffffffffffffffffffffffffffffffff16036127eb576040517f08c379a00000000000000000000000000000000000000000000000000000000081526004016127e2906141e8565b60405180910390fd5b5f73ffffffffffffffffffffffffffffffffffffffff168273ffffffffffffffffffffffffffffffffffffffff1603612859576040517f08c379a000000000000000000000000000000000000000000000000000000000815260040161285090614276565b60405180910390fd5b8060015f8573ffffffffffffffffffffffffffffffffffffffff1673ffffffffffffffffffffffffffffffffffffffff1681526020019081526020015f205f8473ffffffffffffffffffffffffffffffffffffffff1673ffffffffffffffffffffffffffffffffffffffff1681526020019081526020015f20819055508173ffffffffffffffffffffffffffffffffffffffff168373ffffffffffffffffffffffffffffffffffffffff167f8c5be1e5ebec7d5bd14f71427d1e84f3dd0314c0f7b2291e5b200ac8c7c3b925836040516129339190612d58565b60405180910390a3505050565b5f61294b8484612450565b90507fffffffffffffffffffffffffffffffffffffffffffffffffffffffffffffffff81146129c557818110156129b7576040517f08c379a00000000000000000000000000000000000000000000000000000000081526004016129ae906142de565b60405180910390fd5b6129c4848484840361277d565b5b50505050565b612a61816040516024016129df9190612d58565b6040516020818303038152906040527ff82c50f1000000000000000000000000000000000000000000000000000000007bffffffffffffffffffffffffffffffffffffffffffffffffffffffff19166020820180517bffffffffffffffffffffffffffffffffffffffffffffffffffffffff8381831617835250505050612a6e565b50565b505050565b505050565b612a8581612a7d612a88612aa7565b63ffffffff16565b50565b5f6a636f6e736f6c652e6c6f6790505f80835160208501845afa505050565b612b13819050919050565b6040518060e001604052805f15158152602001606081526020015f6003811115612adf57612ade613019565b5b81526020015f73ffffffffffffffffffffffffffffffffffffffff1681526020015f81526020015f81526020015f81525090565b612b1b6142fc565b565b5f81519050919050565b5f82825260208201905092915050565b5f5b83811015612b54578082015181840152602081019050612b39565b5f8484015250505050565b5f601f19601f8301169050919050565b5f612b7982612b1d565b612b838185612b27565b9350612b93818560208601612b37565b612b9c81612b5f565b840191505092915050565b5f6020820190508181035f830152612bbf8184612b6f565b905092915050565b5f604051905090565b5f80fd5b5f80fd5b5f73ffffffffffffffffffffffffffffffffffffffff82169050919050565b5f612c0182612bd8565b9050919050565b612c1181612bf7565b8114612c1b575f80fd5b50565b5f81359050612c2c81612c08565b92915050565b5f819050919050565b612c4481612c32565b8114612c4e575f80fd5b50565b5f81359050612c5f81612c3b565b92915050565b60038110612c71575f80fd5b50565b5f81359050612c8281612c65565b92915050565b5f805f60608486031215612c9f57612c9e612bd0565b5b5f612cac86828701612c1e565b9350506020612cbd86828701612c51565b9250506040612cce86828701612c74565b9150509250925092565b5f8060408385031215612cee57612ced612bd0565b5b5f612cfb85828601612c1e565b9250506020612d0c85828601612c51565b9150509250929050565b5f8115159050919050565b612d2a81612d16565b82525050565b5f602082019050612d435f830184612d21565b92915050565b612d5281612c32565b82525050565b5f602082019050612d6b5f830184612d49565b92915050565b5f805f60608486031215612d8857612d87612bd0565b5b5f612d9586828701612c1e565b9350506020612da686828701612c1e565b9250506040612db786828701612c51565b9150509250925092565b5f60208284031215612dd657612dd5612bd0565b5b5f612de384828501612c51565b91505092915050565b5f60ff82169050919050565b612e0181612dec565b82525050565b5f602082019050612e1a5f830184612df8565b92915050565b5f80fd5b5f80fd5b7f4e487b71000000000000000000000000000000000000000000000000000000005f52604160045260245ffd5b612e5e82612b5f565b810181811067ffffffffffffffff82111715612e7d57612e7c612e28565b5b80604052505050565b5f612e8f612bc7565b9050612e9b8282612e55565b919050565b5f67ffffffffffffffff821115612eba57612eb9612e28565b5b612ec382612b5f565b9050602081019050919050565b828183375f83830152505050565b5f612ef0612eeb84612ea0565b612e86565b905082815260208101848484011115612f0c57612f0b612e24565b5b612f17848285612ed0565b509392505050565b5f82601f830112612f3357612f32612e20565b5b8135612f43848260208601612ede565b91505092915050565b5f8060408385031215612f6257612f61612bd0565b5b5f83013567ffffffffffffffff811115612f7f57612f7e612bd4565b5b612f8b85828601612f1f565b925050602083013567ffffffffffffffff811115612fac57612fab612bd4565b5b612fb885828601612f1f565b9150509250929050565b612fcb81612d16565b82525050565b5f82825260208201905092915050565b5f612feb82612b1d565b612ff58185612fd1565b9350613005818560208601612b37565b61300e81612b5f565b840191505092915050565b7f4e487b71000000000000000000000000000000000000000000000000000000005f52602160045260245ffd5b6004811061305757613056613019565b5b50565b5f81905061306782613046565b919050565b5f6130768261305a565b9050919050565b6130868161306c565b82525050565b61309581612bf7565b82525050565b6130a481612c32565b82525050565b5f60e083015f8301516130bf5f860182612fc2565b50602083015184820360208601526130d78282612fe1565b91505060408301516130ec604086018261307d565b5060608301516130ff606086018261308c565b506080830151613112608086018261309b565b5060a083015161312560a086018261309b565b5060c083015161313860c086018261309b565b508091505092915050565b5f6020820190508181035f83015261315b81846130aa565b905092915050565b5f806040838503121561317957613178612bd0565b5b5f61318685828601612c51565b925050602061319785828601612c1e565b9150509250929050565b5f602082840312156131b6576131b5612bd0565b5b5f6131c384828501612c1e565b91505092915050565b6131d581612bf7565b82525050565b600381106131ec576131eb613019565b5b50565b5f8190506131fc826131db565b919050565b5f61320b826131ef565b9050919050565b61321b81613201565b82525050565b5f6060820190508181035f8301526132398186612b6f565b905061324860208301856131cc565b6132556040830184613212565b949350505050565b60038110613269575f80fd5b50565b5f8135905061327a8161325d565b92915050565b5f806040838503121561329657613295612bd0565b5b5f6132a385828601612c1e565b92505060206132b48582860161326c565b9150509250929050565b5f819050919050565b6132d0816132be565b82525050565b5f6020820190506132e95f8301846132c7565b92915050565b5f6020828403121561330457613303612bd0565b5b5f82013567ffffffffffffffff81111561332157613320612bd4565b5b61332d84828501612f1f565b91505092915050565b5f806040838503121561334c5761334b612bd0565b5b5f61335985828601612c1e565b925050602061336a85828601612c1e565b9150509250929050565b7f4e487b71000000000000000000000000000000000000000000000000000000005f52602260045260245ffd5b5f60028204905060018216806133b857607f821691505b6020821081036133cb576133ca613374565b5b50919050565b7fd09ad0bed0bb2dd0b2d0be20d0bdd0b520d0bcd0bed0b6d0b5d18220d0b1d18b5f8201527fd182d18c203020d0b8d0bbd0b820d0bcd0b5d0bdd18cd188d0b5203000000000602082015250565b5f61342b603c83612b27565b9150613436826133d1565b604082019050919050565b5f6020820190508181035f8301526134588161341f565b9050919050565b7f4e487b71000000000000000000000000000000000000000000000000000000005f52601160045260245ffd5b5f8160011c9050919050565b5f808291508390505b60018511156134e1578086048111156134bd576134bc61345f565b5b60018516156134cc5780820291505b80810290506134da8561348c565b94506134a1565b94509492505050565b5f826134f957600190506135b4565b81613506575f90506135b4565b816001811461351c576002811461352657613555565b60019150506135b4565b60ff8411156135385761353761345f565b5b8360020a91508482111561354f5761354e61345f565b5b506135b4565b5060208310610133831016604e8410600b841016171561358a5782820a9050838111156135855761358461345f565b5b6135b4565b6135978484846001613498565b925090508184048111156135ae576135ad61345f565b5b81810290505b9392505050565b5f6135c582612c32565b91506135d083612dec565b92506135fd7fffffffffffffffffffffffffffffffffffffffffffffffffffffffffffffffff84846134ea565b905092915050565b5f61360f82612c32565b915061361a83612c32565b925082820261362881612c32565b9150828204841483151761363f5761363e61345f565b5b5092915050565b7fd0a320d0b2d0b0d18120d0bdd0b5d0b4d0bed181d182d0b0d182d0bed187d0bd5f8201527fd0be20d182d0bed0bad0b5d0bdd0bed0b2000000000000000000000000000000602082015250565b5f6136a0603183612b27565b91506136ab82613646565b604082019050919050565b5f6020820190508181035f8301526136cd81613694565b9050919050565b5f6136de82612c32565b91506136e983612c32565b92508282039050818111156137015761370061345f565b5b92915050565b5f61371182612c32565b915061371c83612c32565b92508282019050808211156137345761373361345f565b5b92915050565b7fd098d0b4d191d18220d0bfd0bed0b4d0b3d0bed182d0bed0b2d0b8d182d0b5d05f8201527fbbd18cd0bdd0b0d18f20d184d0b0d0b7d0b00000000000000000000000000000602082015250565b5f613794603283612b27565b915061379f8261373a565b604082019050919050565b5f6020820190508181035f8301526137c181613788565b9050919050565b7fd0a2d0bed0bad0b5d0bdd18b20d0b7d0b0d0bad0bed0bdd187d0b8d0bbd0b8d15f8201527f81d18c0000000000000000000000000000000000000000000000000000000000602082015250565b5f613822602383612b27565b915061382d826137c8565b604082019050919050565b5f6020820190508181035f83015261384f81613816565b9050919050565b5f81905092915050565b5f61386a82612b1d565b6138748185613856565b9350613884818560208601612b37565b80840191505092915050565b5f61389b8284613860565b915081905092915050565b7fd09fd0bed0bbd18cd0b7d0bed0b2d0b0d182d0b5d0bbd18c20d18120d182d0b05f8201527fd0bad0b8d0bc20d0bbd0bed0b3d0b8d0bdd0bed0bc20d183d0b6d0b520d181d160208201527f83d189d0b5d181d182d0b2d183d0b5d182000000000000000000000000000000604082015250565b5f613926605183612b27565b9150613931826138a6565b606082019050919050565b5f6020820190508181035f8301526139538161391a565b9050919050565b7fd09fd0bed0bbd18cd0b7d0bed0b2d0b0d182d0b5d0bbd18c20d18120d182d0b05f8201527fd0bad0b8d0bc20d0b0d0b4d180d0b5d181d0bed0bc20d183d0b6d0b520d181d160208201527f83d189d0b5d181d182d0b2d183d0b5d182000000000000000000000000000000604082015250565b5f6139da605183612b27565b91506139e58261395a565b606082019050919050565b5f6020820190508181035f830152613a07816139ce565b9050919050565b5f819050815f5260205f209050919050565b5f6020601f8301049050919050565b5f82821b905092915050565b5f60088302613a6a7fffffffffffffffffffffffffffffffffffffffffffffffffffffffffffffffff82613a2f565b613a748683613a2f565b95508019841693508086168417925050509392505050565b5f819050919050565b5f613aaf613aaa613aa584612c32565b613a8c565b612c32565b9050919050565b5f819050919050565b613ac883613a95565b613adc613ad482613ab6565b848454613a3b565b825550505050565b5f90565b613af0613ae4565b613afb818484613abf565b505050565b5b81811015613b1e57613b135f82613ae8565b600181019050613b01565b5050565b601f821115613b6357613b3481613a0e565b613b3d84613a20565b81016020851015613b4c578190505b613b60613b5885613a20565b830182613b00565b50505b505050565b5f82821c905092915050565b5f613b835f1984600802613b68565b1980831691505092915050565b5f613b9b8383613b74565b9150826002028217905092915050565b613bb482612b1d565b67ffffffffffffffff811115613bcd57613bcc612e28565b5b613bd782546133a1565b613be2828285613b22565b5f60209050601f831160018114613c13575f8415613c01578287015190505b613c0b8582613b90565b865550613c72565b601f198416613c2186613a0e565b5f5b82811015613c4857848901518255600182019150602085019450602081019050613c23565b86831015613c655784890151613c61601f891682613b74565b8355505b6001600288020188555050505b505050505050565b7fd092d0b0d188d0b020d180d0bed0bbd18c20d0bdd0b520d0bfd0bed0b7d0b2d05f8201527fbed0bbd18fd0b5d18220d18dd182d0be20d0b8d181d0bfd0bed0bbd18cd0b7d060208201527fbed0b2d0b0d182d18c0000000000000000000000000000000000000000000000604082015250565b5f613cfa604983612b27565b9150613d0582613c7a565b606082019050919050565b5f6020820190508181035f830152613d2781613cee565b9050919050565b7fd0a320d0b2d0b0d18120d0bdd0b5d18220d0bed181d182d0b0d182d0bed187d05f8201527fbdd18bd18520d0bad0bed0b8d0bdd0bed0b20000000000000000000000000000602082015250565b5f613d88603283612b27565b9150613d9382613d2e565b604082019050919050565b5f6020820190508181035f830152613db581613d7c565b9050919050565b7f45524332303a2064656372656173656420616c6c6f77616e63652062656c6f775f8201527f207a65726f000000000000000000000000000000000000000000000000000000602082015250565b5f613e16602583612b27565b9150613e2182613dbc565b604082019050919050565b5f6020820190508181035f830152613e4381613e0a565b9050919050565b7fd0a3d0bad0b0d0b6d0b8d182d0b520416363657074656420d0b8d0bbd0b820445f8201527f656e696564000000000000000000000000000000000000000000000000000000602082015250565b5f613ea4602583612b27565b9150613eaf82613e4a565b604082019050919050565b5f6020820190508181035f830152613ed181613e98565b9050919050565b7fd09fd180d0b8d0b2d0b0d182d0bdd0b0d18f20d184d0b0d0b7d0b020d0b7d0b05f8201527fd0bad0bed0bdd187d0b8d0bbd0b0d181d18c0000000000000000000000000000602082015250565b5f613f32603283612b27565b9150613f3d82613ed8565b604082019050919050565b5f6020820190508181035f830152613f5f81613f26565b9050919050565b7fd092d18b20d183d0b6d0b520d0b220776869746520d0bbd0b8d181d182d0b5005f82015250565b5f613f9a601f83612b27565b9150613fa582613f66565b602082019050919050565b5f6020820190508181035f830152613fc781613f8e565b9050919050565b7f45524332303a207472616e736665722066726f6d20746865207a65726f2061645f8201527f6472657373000000000000000000000000000000000000000000000000000000602082015250565b5f614028602583612b27565b915061403382613fce565b604082019050919050565b5f6020820190508181035f8301526140558161401c565b9050919050565b7f45524332303a207472616e7366657220746f20746865207a65726f20616464725f8201527f6573730000000000000000000000000000000000000000000000000000000000602082015250565b5f6140b6602383612b27565b91506140c18261405c565b604082019050919050565b5f6020820190508181035f8301526140e3816140aa565b9050919050565b7f45524332303a207472616e7366657220616d6f756e74206578636565647320625f8201527f616c616e63650000000000000000000000000000000000000000000000000000602082015250565b5f614144602683612b27565b915061414f826140ea565b604082019050919050565b5f6020820190508181035f83015261417181614138565b9050919050565b7f45524332303a20617070726f76652066726f6d20746865207a65726f206164645f8201527f7265737300000000000000000000000000000000000000000000000000000000602082015250565b5f6141d2602483612b27565b91506141dd82614178565b604082019050919050565b5f6020820190508181035f8301526141ff816141c6565b9050919050565b7f45524332303a20617070726f766520746f20746865207a65726f2061646472655f8201527f7373000000000000000000000000000000000000000000000000000000000000602082015250565b5f614260602283612b27565b915061426b82614206565b604082019050919050565b5f6020820190508181035f83015261428d81614254565b9050919050565b7f45524332303a20696e73756666696369656e7420616c6c6f77616e63650000005f82015250565b5f6142c8601d83612b27565b91506142d382614294565b602082019050919050565b5f6020820190508181035f8301526142f5816142bc565b9050919050565b7f4e487b71000000000000000000000000000000000000000000000000000000005f52605160045260245ffdfea2646970667358221220671b04aec25c052d2c97cd88f5870979d83edf244d5d21459435bd2c716414aa64736f6c63430008150033",
			"opcodes": "PUSH1 0x80 PUSH1 0x40 MSTORE PUSH3 0x14 PUSH3 0xE8D PUSH1 0x20 SHL PUSH1 0x20 SHR JUMP JUMPDEST PUSH1 0xA PUSH3 0x22 SWAP2 SWAP1 PUSH3 0x141D JUMP JUMPDEST PUSH3 0x989680 PUSH3 0x32 SWAP2 SWAP1 PUSH3 0x146D JUMP JUMPDEST PUSH1 0x5 SSTORE PUSH1 0x64 PUSH1 0xA PUSH1 0x5 SLOAD PUSH3 0x48 SWAP2 SWAP1 PUSH3 0x146D JUMP JUMPDEST PUSH3 0x54 SWAP2 SWAP1 PUSH3 0x14E4 JUMP JUMPDEST PUSH1 0x6 SSTORE PUSH1 0x64 PUSH1 0x1E PUSH1 0x5 SLOAD PUSH3 0x6A SWAP2 SWAP1 PUSH3 0x146D JUMP JUMPDEST PUSH3 0x76 SWAP2 SWAP1 PUSH3 0x14E4 JUMP JUMPDEST PUSH1 0x7 SSTORE PUSH1 0x64 PUSH1 0x3C PUSH1 0x5 SLOAD PUSH3 0x8C SWAP2 SWAP1 PUSH3 0x146D JUMP JUMPDEST PUSH3 0x98 SWAP2 SWAP1 PUSH3 0x14E4 JUMP JUMPDEST PUSH1 0x8 SSTORE PUSH7 0x38D7EA4C68000 PUSH1 0x9 SSTORE CALLVALUE DUP1 ISZERO PUSH3 0xB2 JUMPI PUSH0 DUP1 REVERT JUMPDEST POP PUSH1 0x40 MLOAD DUP1 PUSH1 0x40 ADD PUSH1 0x40 MSTORE DUP1 PUSH1 0xD DUP2 MSTORE PUSH1 0x20 ADD PUSH32 0x43727970746F4D6F6E7374657200000000000000000000000000000000000000 DUP2 MSTORE POP PUSH1 0x40 MLOAD DUP1 PUSH1 0x40 ADD PUSH1 0x40 MSTORE DUP1 PUSH1 0x4 DUP2 MSTORE PUSH1 0x20 ADD PUSH32 0x434D4F4E00000000000000000000000000000000000000000000000000000000 DUP2 MSTORE POP DUP2 PUSH1 0x3 SWAP1 DUP2 PUSH3 0x130 SWAP2 SWAP1 PUSH3 0x1776 JUMP JUMPDEST POP DUP1 PUSH1 0x4 SWAP1 DUP2 PUSH3 0x142 SWAP2 SWAP1 PUSH3 0x1776 JUMP JUMPDEST POP POP POP CALLER PUSH1 0xE PUSH0 PUSH2 0x100 EXP DUP2 SLOAD DUP2 PUSH20 0xFFFFFFFFFFFFFFFFFFFFFFFFFFFFFFFFFFFFFFFF MUL NOT AND SWAP1 DUP4 PUSH20 0xFFFFFFFFFFFFFFFFFFFFFFFFFFFFFFFFFFFFFFFF AND MUL OR SWAP1 SSTORE POP PUSH1 0x40 MLOAD DUP1 PUSH1 0xE0 ADD PUSH1 0x40 MSTORE DUP1 PUSH1 0x1 ISZERO ISZERO DUP2 MSTORE PUSH1 0x20 ADD PUSH1 0x40 MLOAD DUP1 PUSH1 0x40 ADD PUSH1 0x40 MSTORE DUP1 PUSH1 0x5 DUP2 MSTORE PUSH1 0x20 ADD PUSH32 0x6F776E6572000000000000000000000000000000000000000000000000000000 DUP2 MSTORE POP DUP2 MSTORE PUSH1 0x20 ADD PUSH1 0x3 DUP1 DUP2 GT ISZERO PUSH3 0x1EA JUMPI PUSH3 0x1E9 PUSH3 0x185A JUMP JUMPDEST JUMPDEST DUP2 MSTORE PUSH1 0x20 ADD CALLER PUSH20 0xFFFFFFFFFFFFFFFFFFFFFFFFFFFFFFFFFFFFFFFF AND DUP2 MSTORE PUSH1 0x20 ADD PUSH0 DUP2 MSTORE PUSH1 0x20 ADD PUSH0 DUP2 MSTORE PUSH1 0x20 ADD PUSH0 DUP2 MSTORE POP PUSH1 0xF PUSH0 CALLER PUSH20 0xFFFFFFFFFFFFFFFFFFFFFFFFFFFFFFFFFFFFFFFF AND PUSH20 0xFFFFFFFFFFFFFFFFFFFFFFFFFFFFFFFFFFFFFFFF AND DUP2 MSTORE PUSH1 0x20 ADD SWAP1 DUP2 MSTORE PUSH1 0x20 ADD PUSH0 KECCAK256 PUSH0 DUP3 ADD MLOAD DUP2 PUSH0 ADD PUSH0 PUSH2 0x100 EXP DUP2 SLOAD DUP2 PUSH1 0xFF MUL NOT AND SWAP1 DUP4 ISZERO ISZERO MUL OR SWAP1 SSTORE POP PUSH1 0x20 DUP3 ADD MLOAD DUP2 PUSH1 0x1 ADD SWAP1 DUP2 PUSH3 0x28C SWAP2 SWAP1 PUSH3 0x1776 JUMP JUMPDEST POP PUSH1 0x40 DUP3 ADD MLOAD DUP2 PUSH1 0x2 ADD PUSH0 PUSH2 0x100 EXP DUP2 SLOAD DUP2 PUSH1 0xFF MUL NOT AND SWAP1 DUP4 PUSH1 0x3 DUP2 GT ISZERO PUSH3 0x2BA JUMPI PUSH3 0x2B9 PUSH3 0x185A JUMP JUMPDEST JUMPDEST MUL OR SWAP1 SSTORE POP PUSH1 0x60 DUP3 ADD MLOAD DUP2 PUSH1 0x2 ADD PUSH1 0x1 PUSH2 0x100 EXP DUP2 SLOAD DUP2 PUSH20 0xFFFFFFFFFFFFFFFFFFFFFFFFFFFFFFFFFFFFFFFF MUL NOT AND SWAP1 DUP4 PUSH20 0xFFFFFFFFFFFFFFFFFFFFFFFFFFFFFFFFFFFFFFFF AND MUL OR SWAP1 SSTORE POP PUSH1 0x80 DUP3 ADD MLOAD DUP2 PUSH1 0x3 ADD SSTORE PUSH1 0xA0 DUP3 ADD MLOAD DUP2 PUSH1 0x4 ADD SSTORE PUSH1 0xC0 DUP3 ADD MLOAD DUP2 PUSH1 0x5 ADD SSTORE SWAP1 POP POP TIMESTAMP PUSH1 0xB DUP2 SWAP1 SSTORE POP PUSH1 0xB SLOAD PUSH1 0xD DUP2 SWAP1 SSTORE POP PUSH3 0x34B CALLER PUSH1 0x5 SLOAD PUSH3 0xE95 PUSH1 0x20 SHL PUSH1 0x20 SHR JUMP JUMPDEST PUSH1 0x40 MLOAD DUP1 PUSH1 0xE0 ADD PUSH1 0x40 MSTORE DUP1 PUSH1 0x1 ISZERO ISZERO DUP2 MSTORE PUSH1 0x20 ADD PUSH1 0x40 MLOAD DUP1 PUSH1 0x40 ADD PUSH1 0x40 MSTORE DUP1 PUSH1 0x7 DUP2 MSTORE PUSH1 0x20 ADD PUSH32 0x7072697661746500000000000000000000000000000000000000000000000000 DUP2 MSTORE POP DUP2 MSTORE PUSH1 0x20 ADD PUSH1 0x1 PUSH1 0x3 DUP2 GT ISZERO PUSH3 0x3B1 JUMPI PUSH3 0x3B0 PUSH3 0x185A JUMP JUMPDEST JUMPDEST DUP2 MSTORE PUSH1 0x20 ADD PUSH20 0xAB8483F64D9C6D1ECF9B849AE677DD3315835CB2 PUSH20 0xFFFFFFFFFFFFFFFFFFFFFFFFFFFFFFFFFFFFFFFF AND DUP2 MSTORE PUSH1 0x20 ADD PUSH0 DUP2 MSTORE PUSH1 0x20 ADD PUSH0 DUP2 MSTORE PUSH1 0x20 ADD PUSH0 DUP2 MSTORE POP PUSH1 0xF PUSH0 PUSH20 0xAB8483F64D9C6D1ECF9B849AE677DD3315835CB2 PUSH20 0xFFFFFFFFFFFFFFFFFFFFFFFFFFFFFFFFFFFFFFFF AND PUSH20 0xFFFFFFFFFFFFFFFFFFFFFFFFFFFFFFFFFFFFFFFF AND DUP2 MSTORE PUSH1 0x20 ADD SWAP1 DUP2 MSTORE PUSH1 0x20 ADD PUSH0 KECCAK256 PUSH0 DUP3 ADD MLOAD DUP2 PUSH0 ADD PUSH0 PUSH2 0x100 EXP DUP2 SLOAD DUP2 PUSH1 0xFF MUL NOT AND SWAP1 DUP4 ISZERO ISZERO MUL OR SWAP1 SSTORE POP PUSH1 0x20 DUP3 ADD MLOAD DUP2 PUSH1 0x1 ADD SWAP1 DUP2 PUSH3 0x47B SWAP2 SWAP1 PUSH3 0x1776 JUMP JUMPDEST POP PUSH1 0x40 DUP3 ADD MLOAD DUP2 PUSH1 0x2 ADD PUSH0 PUSH2 0x100 EXP DUP2 SLOAD DUP2 PUSH1 0xFF MUL NOT AND SWAP1 DUP4 PUSH1 0x3 DUP2 GT ISZERO PUSH3 0x4A9 JUMPI PUSH3 0x4A8 PUSH3 0x185A JUMP JUMPDEST JUMPDEST MUL OR SWAP1 SSTORE POP PUSH1 0x60 DUP3 ADD MLOAD DUP2 PUSH1 0x2 ADD PUSH1 0x1 PUSH2 0x100 EXP DUP2 SLOAD DUP2 PUSH20 0xFFFFFFFFFFFFFFFFFFFFFFFFFFFFFFFFFFFFFFFF MUL NOT AND SWAP1 DUP4 PUSH20 0xFFFFFFFFFFFFFFFFFFFFFFFFFFFFFFFFFFFFFFFF AND MUL OR SWAP1 SSTORE POP PUSH1 0x80 DUP3 ADD MLOAD DUP2 PUSH1 0x3 ADD SSTORE PUSH1 0xA0 DUP3 ADD MLOAD DUP2 PUSH1 0x4 ADD SSTORE PUSH1 0xC0 DUP3 ADD MLOAD DUP2 PUSH1 0x5 ADD SSTORE SWAP1 POP POP PUSH1 0x40 MLOAD DUP1 PUSH1 0xE0 ADD PUSH1 0x40 MSTORE DUP1 PUSH0 ISZERO ISZERO DUP2 MSTORE PUSH1 0x20 ADD PUSH1 0x40 MLOAD DUP1 PUSH1 0x40 ADD PUSH1 0x40 MSTORE DUP1 PUSH1 0x6 DUP2 MSTORE PUSH1 0x20 ADD PUSH32 0x7075626C69630000000000000000000000000000000000000000000000000000 DUP2 MSTORE POP DUP2 MSTORE PUSH1 0x20 ADD PUSH1 0x2 PUSH1 0x3 DUP2 GT ISZERO PUSH3 0x57B JUMPI PUSH3 0x57A PUSH3 0x185A JUMP JUMPDEST JUMPDEST DUP2 MSTORE PUSH1 0x20 ADD PUSH20 0x4B20993BC481177EC7E8F571CECAE8A9E22C02DB PUSH20 0xFFFFFFFFFFFFFFFFFFFFFFFFFFFFFFFFFFFFFFFF AND DUP2 MSTORE PUSH1 0x20 ADD PUSH0 DUP2 MSTORE PUSH1 0x20 ADD PUSH0 DUP2 MSTORE PUSH1 0x20 ADD PUSH0 DUP2 MSTORE POP PUSH1 0xF PUSH0 PUSH20 0x4B20993BC481177EC7E8F571CECAE8A9E22C02DB PUSH20 0xFFFFFFFFFFFFFFFFFFFFFFFFFFFFFFFFFFFFFFFF AND PUSH20 0xFFFFFFFFFFFFFFFFFFFFFFFFFFFFFFFFFFFFFFFF AND DUP2 MSTORE PUSH1 0x20 ADD SWAP1 DUP2 MSTORE PUSH1 0x20 ADD PUSH0 KECCAK256 PUSH0 DUP3 ADD MLOAD DUP2 PUSH0 ADD PUSH0 PUSH2 0x100 EXP DUP2 SLOAD DUP2 PUSH1 0xFF MUL NOT AND SWAP1 DUP4 ISZERO ISZERO MUL OR SWAP1 SSTORE POP PUSH1 0x20 DUP3 ADD MLOAD DUP2 PUSH1 0x1 ADD SWAP1 DUP2 PUSH3 0x645 SWAP2 SWAP1 PUSH3 0x1776 JUMP JUMPDEST POP PUSH1 0x40 DUP3 ADD MLOAD DUP2 PUSH1 0x2 ADD PUSH0 PUSH2 0x100 EXP DUP2 SLOAD DUP2 PUSH1 0xFF MUL NOT AND SWAP1 DUP4 PUSH1 0x3 DUP2 GT ISZERO PUSH3 0x673 JUMPI PUSH3 0x672 PUSH3 0x185A JUMP JUMPDEST JUMPDEST MUL OR SWAP1 SSTORE POP PUSH1 0x60 DUP3 ADD MLOAD DUP2 PUSH1 0x2 ADD PUSH1 0x1 PUSH2 0x100 EXP DUP2 SLOAD DUP2 PUSH20 0xFFFFFFFFFFFFFFFFFFFFFFFFFFFFFFFFFFFFFFFF MUL NOT AND SWAP1 DUP4 PUSH20 0xFFFFFFFFFFFFFFFFFFFFFFFFFFFFFFFFFFFFFFFF AND MUL OR SWAP1 SSTORE POP PUSH1 0x80 DUP3 ADD MLOAD DUP2 PUSH1 0x3 ADD SSTORE PUSH1 0xA0 DUP3 ADD MLOAD DUP2 PUSH1 0x4 ADD SSTORE PUSH1 0xC0 DUP3 ADD MLOAD DUP2 PUSH1 0x5 ADD SSTORE SWAP1 POP POP PUSH1 0x40 MLOAD DUP1 PUSH1 0xE0 ADD PUSH1 0x40 MSTORE DUP1 PUSH0 ISZERO ISZERO DUP2 MSTORE PUSH1 0x20 ADD PUSH1 0x40 MLOAD DUP1 PUSH1 0x40 ADD PUSH1 0x40 MSTORE DUP1 PUSH1 0x9 DUP2 MSTORE PUSH1 0x20 ADD PUSH32 0x696E766573746F72310000000000000000000000000000000000000000000000 DUP2 MSTORE POP DUP2 MSTORE PUSH1 0x20 ADD PUSH0 PUSH1 0x3 DUP2 GT ISZERO PUSH3 0x744 JUMPI PUSH3 0x743 PUSH3 0x185A JUMP JUMPDEST JUMPDEST DUP2 MSTORE PUSH1 0x20 ADD PUSH20 0x78731D3CA6B7E34AC0F824C42A7CC18A495CABAB PUSH20 0xFFFFFFFFFFFFFFFFFFFFFFFFFFFFFFFFFFFFFFFF AND DUP2 MSTORE PUSH1 0x20 ADD PUSH3 0x789 PUSH3 0xE8D PUSH1 0x20 SHL PUSH1 0x20 SHR JUMP JUMPDEST PUSH1 0xA PUSH3 0x797 SWAP2 SWAP1 PUSH3 0x141D JUMP JUMPDEST PUSH3 0x493E0 PUSH3 0x7A7 SWAP2 SWAP1 PUSH3 0x146D JUMP JUMPDEST DUP2 MSTORE PUSH1 0x20 ADD PUSH0 DUP2 MSTORE PUSH1 0x20 ADD PUSH0 DUP2 MSTORE POP PUSH1 0xF PUSH0 PUSH20 0x78731D3CA6B7E34AC0F824C42A7CC18A495CABAB PUSH20 0xFFFFFFFFFFFFFFFFFFFFFFFFFFFFFFFFFFFFFFFF AND PUSH20 0xFFFFFFFFFFFFFFFFFFFFFFFFFFFFFFFFFFFFFFFF AND DUP2 MSTORE PUSH1 0x20 ADD SWAP1 DUP2 MSTORE PUSH1 0x20 ADD PUSH0 KECCAK256 PUSH0 DUP3 ADD MLOAD DUP2 PUSH0 ADD PUSH0 PUSH2 0x100 EXP DUP2 SLOAD DUP2 PUSH1 0xFF MUL NOT AND SWAP1 DUP4 ISZERO ISZERO MUL OR SWAP1 SSTORE POP PUSH1 0x20 DUP3 ADD MLOAD DUP2 PUSH1 0x1 ADD SWAP1 DUP2 PUSH3 0x83B SWAP2 SWAP1 PUSH3 0x1776 JUMP JUMPDEST POP PUSH1 0x40 DUP3 ADD MLOAD DUP2 PUSH1 0x2 ADD PUSH0 PUSH2 0x100 EXP DUP2 SLOAD DUP2 PUSH1 0xFF MUL NOT AND SWAP1 DUP4 PUSH1 0x3 DUP2 GT ISZERO PUSH3 0x869 JUMPI PUSH3 0x868 PUSH3 0x185A JUMP JUMPDEST JUMPDEST MUL OR SWAP1 SSTORE POP PUSH1 0x60 DUP3 ADD MLOAD DUP2 PUSH1 0x2 ADD PUSH1 0x1 PUSH2 0x100 EXP DUP2 SLOAD DUP2 PUSH20 0xFFFFFFFFFFFFFFFFFFFFFFFFFFFFFFFFFFFFFFFF MUL NOT AND SWAP1 DUP4 PUSH20 0xFFFFFFFFFFFFFFFFFFFFFFFFFFFFFFFFFFFFFFFF AND MUL OR SWAP1 SSTORE POP PUSH1 0x80 DUP3 ADD MLOAD DUP2 PUSH1 0x3 ADD SSTORE PUSH1 0xA0 DUP3 ADD MLOAD DUP2 PUSH1 0x4 ADD SSTORE PUSH1 0xC0 DUP3 ADD MLOAD DUP2 PUSH1 0x5 ADD SSTORE SWAP1 POP POP PUSH1 0x40 MLOAD DUP1 PUSH1 0xE0 ADD PUSH1 0x40 MSTORE DUP1 PUSH0 ISZERO ISZERO DUP2 MSTORE PUSH1 0x20 ADD PUSH1 0x40 MLOAD DUP1 PUSH1 0x40 ADD PUSH1 0x40 MSTORE DUP1 PUSH1 0x9 DUP2 MSTORE PUSH1 0x20 ADD PUSH32 0x696E766573746F72320000000000000000000000000000000000000000000000 DUP2 MSTORE POP DUP2 MSTORE PUSH1 0x20 ADD PUSH0 PUSH1 0x3 DUP2 GT ISZERO PUSH3 0x93A JUMPI PUSH3 0x939 PUSH3 0x185A JUMP JUMPDEST JUMPDEST DUP2 MSTORE PUSH1 0x20 ADD PUSH20 0x617F2E2FD72FD9D5503197092AC168C91465E7F2 PUSH20 0xFFFFFFFFFFFFFFFFFFFFFFFFFFFFFFFFFFFFFFFF AND DUP2 MSTORE PUSH1 0x20 ADD PUSH3 0x97F PUSH3 0xE8D PUSH1 0x20 SHL PUSH1 0x20 SHR JUMP JUMPDEST PUSH1 0xA PUSH3 0x98D SWAP2 SWAP1 PUSH3 0x141D JUMP JUMPDEST PUSH3 0x61A80 PUSH3 0x99D SWAP2 SWAP1 PUSH3 0x146D JUMP JUMPDEST DUP2 MSTORE PUSH1 0x20 ADD PUSH0 DUP2 MSTORE PUSH1 0x20 ADD PUSH0 DUP2 MSTORE POP PUSH1 0xF PUSH0 PUSH20 0x617F2E2FD72FD9D5503197092AC168C91465E7F2 PUSH20 0xFFFFFFFFFFFFFFFFFFFFFFFFFFFFFFFFFFFFFFFF AND PUSH20 0xFFFFFFFFFFFFFFFFFFFFFFFFFFFFFFFFFFFFFFFF AND DUP2 MSTORE PUSH1 0x20 ADD SWAP1 DUP2 MSTORE PUSH1 0x20 ADD PUSH0 KECCAK256 PUSH0 DUP3 ADD MLOAD DUP2 PUSH0 ADD PUSH0 PUSH2 0x100 EXP DUP2 SLOAD DUP2 PUSH1 0xFF MUL NOT AND SWAP1 DUP4 ISZERO ISZERO MUL OR SWAP1 SSTORE POP PUSH1 0x20 DUP3 ADD MLOAD DUP2 PUSH1 0x1 ADD SWAP1 DUP2 PUSH3 0xA31 SWAP2 SWAP1 PUSH3 0x1776 JUMP JUMPDEST POP PUSH1 0x40 DUP3 ADD MLOAD DUP2 PUSH1 0x2 ADD PUSH0 PUSH2 0x100 EXP DUP2 SLOAD DUP2 PUSH1 0xFF MUL NOT AND SWAP1 DUP4 PUSH1 0x3 DUP2 GT ISZERO PUSH3 0xA5F JUMPI PUSH3 0xA5E PUSH3 0x185A JUMP JUMPDEST JUMPDEST MUL OR SWAP1 SSTORE POP PUSH1 0x60 DUP3 ADD MLOAD DUP2 PUSH1 0x2 ADD PUSH1 0x1 PUSH2 0x100 EXP DUP2 SLOAD DUP2 PUSH20 0xFFFFFFFFFFFFFFFFFFFFFFFFFFFFFFFFFFFFFFFF MUL NOT AND SWAP1 DUP4 PUSH20 0xFFFFFFFFFFFFFFFFFFFFFFFFFFFFFFFFFFFFFFFF AND MUL OR SWAP1 SSTORE POP PUSH1 0x80 DUP3 ADD MLOAD DUP2 PUSH1 0x3 ADD SSTORE PUSH1 0xA0 DUP3 ADD MLOAD DUP2 PUSH1 0x4 ADD SSTORE PUSH1 0xC0 DUP3 ADD MLOAD DUP2 PUSH1 0x5 ADD SSTORE SWAP1 POP POP PUSH1 0x40 MLOAD DUP1 PUSH1 0xE0 ADD PUSH1 0x40 MSTORE DUP1 PUSH0 ISZERO ISZERO DUP2 MSTORE PUSH1 0x20 ADD PUSH1 0x40 MLOAD DUP1 PUSH1 0x40 ADD PUSH1 0x40 MSTORE DUP1 PUSH1 0xA DUP2 MSTORE PUSH1 0x20 ADD PUSH32 0x62657374467269656E6400000000000000000000000000000000000000000000 DUP2 MSTORE POP DUP2 MSTORE PUSH1 0x20 ADD PUSH0 PUSH1 0x3 DUP2 GT ISZERO PUSH3 0xB30 JUMPI PUSH3 0xB2F PUSH3 0x185A JUMP JUMPDEST JUMPDEST DUP2 MSTORE PUSH1 0x20 ADD PUSH20 0x17F6AD8EF982297579C203069C1DBFFE4348C372 PUSH20 0xFFFFFFFFFFFFFFFFFFFFFFFFFFFFFFFFFFFFFFFF AND DUP2 MSTORE PUSH1 0x20 ADD PUSH3 0xB75 PUSH3 0xE8D PUSH1 0x20 SHL PUSH1 0x20 SHR JUMP JUMPDEST PUSH1 0xA PUSH3 0xB83 SWAP2 SWAP1 PUSH3 0x141D JUMP JUMPDEST PUSH3 0x30D40 PUSH3 0xB93 SWAP2 SWAP1 PUSH3 0x146D JUMP JUMPDEST DUP2 MSTORE PUSH1 0x20 ADD PUSH0 DUP2 MSTORE PUSH1 0x20 ADD PUSH0 DUP2 MSTORE POP PUSH1 0xF PUSH0 PUSH20 0x17F6AD8EF982297579C203069C1DBFFE4348C372 PUSH20 0xFFFFFFFFFFFFFFFFFFFFFFFFFFFFFFFFFFFFFFFF AND PUSH20 0xFFFFFFFFFFFFFFFFFFFFFFFFFFFFFFFFFFFFFFFF AND DUP2 MSTORE PUSH1 0x20 ADD SWAP1 DUP2 MSTORE PUSH1 0x20 ADD PUSH0 KECCAK256 PUSH0 DUP3 ADD MLOAD DUP2 PUSH0 ADD PUSH0 PUSH2 0x100 EXP DUP2 SLOAD DUP2 PUSH1 0xFF MUL NOT AND SWAP1 DUP4 ISZERO ISZERO MUL OR SWAP1 SSTORE POP PUSH1 0x20 DUP3 ADD MLOAD DUP2 PUSH1 0x1 ADD SWAP1 DUP2 PUSH3 0xC27 SWAP2 SWAP1 PUSH3 0x1776 JUMP JUMPDEST POP PUSH1 0x40 DUP3 ADD MLOAD DUP2 PUSH1 0x2 ADD PUSH0 PUSH2 0x100 EXP DUP2 SLOAD DUP2 PUSH1 0xFF MUL NOT AND SWAP1 DUP4 PUSH1 0x3 DUP2 GT ISZERO PUSH3 0xC55 JUMPI PUSH3 0xC54 PUSH3 0x185A JUMP JUMPDEST JUMPDEST MUL OR SWAP1 SSTORE POP PUSH1 0x60 DUP3 ADD MLOAD DUP2 PUSH1 0x2 ADD PUSH1 0x1 PUSH2 0x100 EXP DUP2 SLOAD DUP2 PUSH20 0xFFFFFFFFFFFFFFFFFFFFFFFFFFFFFFFFFFFFFFFF MUL NOT AND SWAP1 DUP4 PUSH20 0xFFFFFFFFFFFFFFFFFFFFFFFFFFFFFFFFFFFFFFFF AND MUL OR SWAP1 SSTORE POP PUSH1 0x80 DUP3 ADD MLOAD DUP2 PUSH1 0x3 ADD SSTORE PUSH1 0xA0 DUP3 ADD MLOAD DUP2 PUSH1 0x4 ADD SSTORE PUSH1 0xC0 DUP3 ADD MLOAD DUP2 PUSH1 0x5 ADD SSTORE SWAP1 POP POP PUSH3 0xD16 CALLER PUSH20 0x78731D3CA6B7E34AC0F824C42A7CC18A495CABAB PUSH3 0xCEC PUSH3 0xE8D PUSH1 0x20 SHL PUSH1 0x20 SHR JUMP JUMPDEST PUSH1 0xA PUSH3 0xCFA SWAP2 SWAP1 PUSH3 0x141D JUMP JUMPDEST PUSH3 0x493E0 PUSH3 0xD0A SWAP2 SWAP1 PUSH3 0x146D JUMP JUMPDEST PUSH3 0xFFA PUSH1 0x20 SHL PUSH1 0x20 SHR JUMP JUMPDEST PUSH3 0xD26 PUSH3 0xE8D PUSH1 0x20 SHL PUSH1 0x20 SHR JUMP JUMPDEST PUSH1 0xA PUSH3 0xD34 SWAP2 SWAP1 PUSH3 0x141D JUMP JUMPDEST PUSH3 0x493E0 PUSH3 0xD44 SWAP2 SWAP1 PUSH3 0x146D JUMP JUMPDEST PUSH1 0x6 SLOAD PUSH3 0xD53 SWAP2 SWAP1 PUSH3 0x1887 JUMP JUMPDEST PUSH1 0x6 DUP2 SWAP1 SSTORE POP PUSH3 0xDAD CALLER PUSH20 0x617F2E2FD72FD9D5503197092AC168C91465E7F2 PUSH3 0xD83 PUSH3 0xE8D PUSH1 0x20 SHL PUSH1 0x20 SHR JUMP JUMPDEST PUSH1 0xA PUSH3 0xD91 SWAP2 SWAP1 PUSH3 0x141D JUMP JUMPDEST PUSH3 0x61A80 PUSH3 0xDA1 SWAP2 SWAP1 PUSH3 0x146D JUMP JUMPDEST PUSH3 0xFFA PUSH1 0x20 SHL PUSH1 0x20 SHR JUMP JUMPDEST PUSH3 0xDBD PUSH3 0xE8D PUSH1 0x20 SHL PUSH1 0x20 SHR JUMP JUMPDEST PUSH1 0xA PUSH3 0xDCB SWAP2 SWAP1 PUSH3 0x141D JUMP JUMPDEST PUSH3 0x61A80 PUSH3 0xDDB SWAP2 SWAP1 PUSH3 0x146D JUMP JUMPDEST PUSH1 0x6 SLOAD PUSH3 0xDEA SWAP2 SWAP1 PUSH3 0x1887 JUMP JUMPDEST PUSH1 0x6 DUP2 SWAP1 SSTORE POP PUSH3 0xE44 CALLER PUSH20 0x17F6AD8EF982297579C203069C1DBFFE4348C372 PUSH3 0xE1A PUSH3 0xE8D PUSH1 0x20 SHL PUSH1 0x20 SHR JUMP JUMPDEST PUSH1 0xA PUSH3 0xE28 SWAP2 SWAP1 PUSH3 0x141D JUMP JUMPDEST PUSH3 0x30D40 PUSH3 0xE38 SWAP2 SWAP1 PUSH3 0x146D JUMP JUMPDEST PUSH3 0xFFA PUSH1 0x20 SHL PUSH1 0x20 SHR JUMP JUMPDEST PUSH3 0xE54 PUSH3 0xE8D PUSH1 0x20 SHL PUSH1 0x20 SHR JUMP JUMPDEST PUSH1 0xA PUSH3 0xE62 SWAP2 SWAP1 PUSH3 0x141D JUMP JUMPDEST PUSH3 0x30D40 PUSH3 0xE72 SWAP2 SWAP1 PUSH3 0x146D JUMP JUMPDEST PUSH1 0x6 SLOAD PUSH3 0xE81 SWAP2 SWAP1 PUSH3 0x1887 JUMP JUMPDEST PUSH1 0x6 DUP2 SWAP1 SSTORE POP PUSH3 0x1B61 JUMP JUMPDEST PUSH0 PUSH1 0xC SWAP1 POP SWAP1 JUMP JUMPDEST PUSH0 PUSH20 0xFFFFFFFFFFFFFFFFFFFFFFFFFFFFFFFFFFFFFFFF AND DUP3 PUSH20 0xFFFFFFFFFFFFFFFFFFFFFFFFFFFFFFFFFFFFFFFF AND SUB PUSH3 0xF06 JUMPI PUSH1 0x40 MLOAD PUSH32 0x8C379A000000000000000000000000000000000000000000000000000000000 DUP2 MSTORE PUSH1 0x4 ADD PUSH3 0xEFD SWAP1 PUSH3 0x191F JUMP JUMPDEST PUSH1 0x40 MLOAD DUP1 SWAP2 SUB SWAP1 REVERT JUMPDEST PUSH3 0xF19 PUSH0 DUP4 DUP4 PUSH3 0x1281 PUSH1 0x20 SHL PUSH1 0x20 SHR JUMP JUMPDEST DUP1 PUSH1 0x2 PUSH0 DUP3 DUP3 SLOAD PUSH3 0xF2C SWAP2 SWAP1 PUSH3 0x193F JUMP JUMPDEST SWAP3 POP POP DUP2 SWAP1 SSTORE POP DUP1 PUSH0 DUP1 DUP5 PUSH20 0xFFFFFFFFFFFFFFFFFFFFFFFFFFFFFFFFFFFFFFFF AND PUSH20 0xFFFFFFFFFFFFFFFFFFFFFFFFFFFFFFFFFFFFFFFF AND DUP2 MSTORE PUSH1 0x20 ADD SWAP1 DUP2 MSTORE PUSH1 0x20 ADD PUSH0 KECCAK256 PUSH0 DUP3 DUP3 SLOAD ADD SWAP3 POP POP DUP2 SWAP1 SSTORE POP DUP2 PUSH20 0xFFFFFFFFFFFFFFFFFFFFFFFFFFFFFFFFFFFFFFFF AND PUSH0 PUSH20 0xFFFFFFFFFFFFFFFFFFFFFFFFFFFFFFFFFFFFFFFF AND PUSH32 0xDDF252AD1BE2C89B69C2B068FC378DAA952BA7F163C4A11628F55A4DF523B3EF DUP4 PUSH1 0x40 MLOAD PUSH3 0xFDB SWAP2 SWAP1 PUSH3 0x198A JUMP JUMPDEST PUSH1 0x40 MLOAD DUP1 SWAP2 SUB SWAP1 LOG3 PUSH3 0xFF6 PUSH0 DUP4 DUP4 PUSH3 0x1286 PUSH1 0x20 SHL PUSH1 0x20 SHR JUMP JUMPDEST POP POP JUMP JUMPDEST PUSH0 PUSH20 0xFFFFFFFFFFFFFFFFFFFFFFFFFFFFFFFFFFFFFFFF AND DUP4 PUSH20 0xFFFFFFFFFFFFFFFFFFFFFFFFFFFFFFFFFFFFFFFF AND SUB PUSH3 0x106B JUMPI PUSH1 0x40 MLOAD PUSH32 0x8C379A000000000000000000000000000000000000000000000000000000000 DUP2 MSTORE PUSH1 0x4 ADD PUSH3 0x1062 SWAP1 PUSH3 0x1A19 JUMP JUMPDEST PUSH1 0x40 MLOAD DUP1 SWAP2 SUB SWAP1 REVERT JUMPDEST PUSH0 PUSH20 0xFFFFFFFFFFFFFFFFFFFFFFFFFFFFFFFFFFFFFFFF AND DUP3 PUSH20 0xFFFFFFFFFFFFFFFFFFFFFFFFFFFFFFFFFFFFFFFF AND SUB PUSH3 0x10DC JUMPI PUSH1 0x40 MLOAD PUSH32 0x8C379A000000000000000000000000000000000000000000000000000000000 DUP2 MSTORE PUSH1 0x4 ADD PUSH3 0x10D3 SWAP1 PUSH3 0x1AAD JUMP JUMPDEST PUSH1 0x40 MLOAD DUP1 SWAP2 SUB SWAP1 REVERT JUMPDEST PUSH3 0x10EF DUP4 DUP4 DUP4 PUSH3 0x1281 PUSH1 0x20 SHL PUSH1 0x20 SHR JUMP JUMPDEST PUSH0 DUP1 PUSH0 DUP6 PUSH20 0xFFFFFFFFFFFFFFFFFFFFFFFFFFFFFFFFFFFFFFFF AND PUSH20 0xFFFFFFFFFFFFFFFFFFFFFFFFFFFFFFFFFFFFFFFF AND DUP2 MSTORE PUSH1 0x20 ADD SWAP1 DUP2 MSTORE PUSH1 0x20 ADD PUSH0 KECCAK256 SLOAD SWAP1 POP DUP2 DUP2 LT ISZERO PUSH3 0x1175 JUMPI PUSH1 0x40 MLOAD PUSH32 0x8C379A000000000000000000000000000000000000000000000000000000000 DUP2 MSTORE PUSH1 0x4 ADD PUSH3 0x116C SWAP1 PUSH3 0x1B41 JUMP JUMPDEST PUSH1 0x40 MLOAD DUP1 SWAP2 SUB SWAP1 REVERT JUMPDEST DUP2 DUP2 SUB PUSH0 DUP1 DUP7 PUSH20 0xFFFFFFFFFFFFFFFFFFFFFFFFFFFFFFFFFFFFFFFF AND PUSH20 0xFFFFFFFFFFFFFFFFFFFFFFFFFFFFFFFFFFFFFFFF AND DUP2 MSTORE PUSH1 0x20 ADD SWAP1 DUP2 MSTORE PUSH1 0x20 ADD PUSH0 KECCAK256 DUP2 SWAP1 SSTORE POP DUP2 PUSH0 DUP1 DUP6 PUSH20 0xFFFFFFFFFFFFFFFFFFFFFFFFFFFFFFFFFFFFFFFF AND PUSH20 0xFFFFFFFFFFFFFFFFFFFFFFFFFFFFFFFFFFFFFFFF AND DUP2 MSTORE PUSH1 0x20 ADD SWAP1 DUP2 MSTORE PUSH1 0x20 ADD PUSH0 KECCAK256 PUSH0 DUP3 DUP3 SLOAD ADD SWAP3 POP POP DUP2 SWAP1 SSTORE POP DUP3 PUSH20 0xFFFFFFFFFFFFFFFFFFFFFFFFFFFFFFFFFFFFFFFF AND DUP5 PUSH20 0xFFFFFFFFFFFFFFFFFFFFFFFFFFFFFFFFFFFFFFFF AND PUSH32 0xDDF252AD1BE2C89B69C2B068FC378DAA952BA7F163C4A11628F55A4DF523B3EF DUP5 PUSH1 0x40 MLOAD PUSH3 0x1260 SWAP2 SWAP1 PUSH3 0x198A JUMP JUMPDEST PUSH1 0x40 MLOAD DUP1 SWAP2 SUB SWAP1 LOG3 PUSH3 0x127B DUP5 DUP5 DUP5 PUSH3 0x1286 PUSH1 0x20 SHL PUSH1 0x20 SHR JUMP JUMPDEST POP POP POP POP JUMP JUMPDEST POP POP POP JUMP JUMPDEST POP POP POP JUMP JUMPDEST PUSH32 0x4E487B7100000000000000000000000000000000000000000000000000000000 PUSH0 MSTORE PUSH1 0x11 PUSH1 0x4 MSTORE PUSH1 0x24 PUSH0 REVERT JUMPDEST PUSH0 DUP2 PUSH1 0x1 SHR SWAP1 POP SWAP2 SWAP1 POP JUMP JUMPDEST PUSH0 DUP1 DUP3 SWAP2 POP DUP4 SWAP1 POP JUMPDEST PUSH1 0x1 DUP6 GT ISZERO PUSH3 0x1315 JUMPI DUP1 DUP7 DIV DUP2 GT ISZERO PUSH3 0x12ED JUMPI PUSH3 0x12EC PUSH3 0x128B JUMP JUMPDEST JUMPDEST PUSH1 0x1 DUP6 AND ISZERO PUSH3 0x12FD JUMPI DUP1 DUP3 MUL SWAP2 POP JUMPDEST DUP1 DUP2 MUL SWAP1 POP PUSH3 0x130D DUP6 PUSH3 0x12B8 JUMP JUMPDEST SWAP5 POP PUSH3 0x12CD JUMP JUMPDEST SWAP5 POP SWAP5 SWAP3 POP POP POP JUMP JUMPDEST PUSH0 DUP3 PUSH3 0x132F JUMPI PUSH1 0x1 SWAP1 POP PUSH3 0x1401 JUMP JUMPDEST DUP2 PUSH3 0x133E JUMPI PUSH0 SWAP1 POP PUSH3 0x1401 JUMP JUMPDEST DUP2 PUSH1 0x1 DUP2 EQ PUSH3 0x1357 JUMPI PUSH1 0x2 DUP2 EQ PUSH3 0x1362 JUMPI PUSH3 0x1398 JUMP JUMPDEST PUSH1 0x1 SWAP2 POP POP PUSH3 0x1401 JUMP JUMPDEST PUSH1 0xFF DUP5 GT ISZERO PUSH3 0x1377 JUMPI PUSH3 0x1376 PUSH3 0x128B JUMP JUMPDEST JUMPDEST DUP4 PUSH1 0x2 EXP SWAP2 POP DUP5 DUP3 GT ISZERO PUSH3 0x1391 JUMPI PUSH3 0x1390 PUSH3 0x128B JUMP JUMPDEST JUMPDEST POP PUSH3 0x1401 JUMP JUMPDEST POP PUSH1 0x20 DUP4 LT PUSH2 0x133 DUP4 LT AND PUSH1 0x4E DUP5 LT PUSH1 0xB DUP5 LT AND OR ISZERO PUSH3 0x13D2 JUMPI DUP3 DUP3 EXP SWAP1 POP DUP4 DUP2 GT ISZERO PUSH3 0x13CC JUMPI PUSH3 0x13CB PUSH3 0x128B JUMP JUMPDEST JUMPDEST PUSH3 0x1401 JUMP JUMPDEST PUSH3 0x13E1 DUP5 DUP5 DUP5 PUSH1 0x1 PUSH3 0x12C4 JUMP JUMPDEST SWAP3 POP SWAP1 POP DUP2 DUP5 DIV DUP2 GT ISZERO PUSH3 0x13FB JUMPI PUSH3 0x13FA PUSH3 0x128B JUMP JUMPDEST JUMPDEST DUP2 DUP2 MUL SWAP1 POP JUMPDEST SWAP4 SWAP3 POP POP POP JUMP JUMPDEST PUSH0 DUP2 SWAP1 POP SWAP2 SWAP1 POP JUMP JUMPDEST PUSH0 PUSH1 0xFF DUP3 AND SWAP1 POP SWAP2 SWAP1 POP JUMP JUMPDEST PUSH0 PUSH3 0x1429 DUP3 PUSH3 0x1408 JUMP JUMPDEST SWAP2 POP PUSH3 0x1436 DUP4 PUSH3 0x1411 JUMP JUMPDEST SWAP3 POP PUSH3 0x1465 PUSH32 0xFFFFFFFFFFFFFFFFFFFFFFFFFFFFFFFFFFFFFFFFFFFFFFFFFFFFFFFFFFFFFFFF DUP5 DUP5 PUSH3 0x131E JUMP JUMPDEST SWAP1 POP SWAP3 SWAP2 POP POP JUMP JUMPDEST PUSH0 PUSH3 0x1479 DUP3 PUSH3 0x1408 JUMP JUMPDEST SWAP2 POP PUSH3 0x1486 DUP4 PUSH3 0x1408 JUMP JUMPDEST SWAP3 POP DUP3 DUP3 MUL PUSH3 0x1496 DUP2 PUSH3 0x1408 JUMP JUMPDEST SWAP2 POP DUP3 DUP3 DIV DUP5 EQ DUP4 ISZERO OR PUSH3 0x14B0 JUMPI PUSH3 0x14AF PUSH3 0x128B JUMP JUMPDEST JUMPDEST POP SWAP3 SWAP2 POP POP JUMP JUMPDEST PUSH32 0x4E487B7100000000000000000000000000000000000000000000000000000000 PUSH0 MSTORE PUSH1 0x12 PUSH1 0x4 MSTORE PUSH1 0x24 PUSH0 REVERT JUMPDEST PUSH0 PUSH3 0x14F0 DUP3 PUSH3 0x1408 JUMP JUMPDEST SWAP2 POP PUSH3 0x14FD DUP4 PUSH3 0x1408 JUMP JUMPDEST SWAP3 POP DUP3 PUSH3 0x1510 JUMPI PUSH3 0x150F PUSH3 0x14B7 JUMP JUMPDEST JUMPDEST DUP3 DUP3 DIV SWAP1 POP SWAP3 SWAP2 POP POP JUMP JUMPDEST PUSH0 DUP2 MLOAD SWAP1 POP SWAP2 SWAP1 POP JUMP JUMPDEST PUSH32 0x4E487B7100000000000000000000000000000000000000000000000000000000 PUSH0 MSTORE PUSH1 0x41 PUSH1 0x4 MSTORE PUSH1 0x24 PUSH0 REVERT JUMPDEST PUSH32 0x4E487B7100000000000000000000000000000000000000000000000000000000 PUSH0 MSTORE PUSH1 0x22 PUSH1 0x4 MSTORE PUSH1 0x24 PUSH0 REVERT JUMPDEST PUSH0 PUSH1 0x2 DUP3 DIV SWAP1 POP PUSH1 0x1 DUP3 AND DUP1 PUSH3 0x1597 JUMPI PUSH1 0x7F DUP3 AND SWAP2 POP JUMPDEST PUSH1 0x20 DUP3 LT DUP2 SUB PUSH3 0x15AD JUMPI PUSH3 0x15AC PUSH3 0x1552 JUMP JUMPDEST JUMPDEST POP SWAP2 SWAP1 POP JUMP JUMPDEST PUSH0 DUP2 SWAP1 POP DUP2 PUSH0 MSTORE PUSH1 0x20 PUSH0 KECCAK256 SWAP1 POP SWAP2 SWAP1 POP JUMP JUMPDEST PUSH0 PUSH1 0x20 PUSH1 0x1F DUP4 ADD DIV SWAP1 POP SWAP2 SWAP1 POP JUMP JUMPDEST PUSH0 DUP3 DUP3 SHL SWAP1 POP SWAP3 SWAP2 POP POP JUMP JUMPDEST PUSH0 PUSH1 0x8 DUP4 MUL PUSH3 0x1611 PUSH32 0xFFFFFFFFFFFFFFFFFFFFFFFFFFFFFFFFFFFFFFFFFFFFFFFFFFFFFFFFFFFFFFFF DUP3 PUSH3 0x15D4 JUMP JUMPDEST PUSH3 0x161D DUP7 DUP4 PUSH3 0x15D4 JUMP JUMPDEST SWAP6 POP DUP1 NOT DUP5 AND SWAP4 POP DUP1 DUP7 AND DUP5 OR SWAP3 POP POP POP SWAP4 SWAP3 POP POP POP JUMP JUMPDEST PUSH0 DUP2 SWAP1 POP SWAP2 SWAP1 POP JUMP JUMPDEST PUSH0 PUSH3 0x165E PUSH3 0x1658 PUSH3 0x1652 DUP5 PUSH3 0x1408 JUMP JUMPDEST PUSH3 0x1635 JUMP JUMPDEST PUSH3 0x1408 JUMP JUMPDEST SWAP1 POP SWAP2 SWAP1 POP JUMP JUMPDEST PUSH0 DUP2 SWAP1 POP SWAP2 SWAP1 POP JUMP JUMPDEST PUSH3 0x1679 DUP4 PUSH3 0x163E JUMP JUMPDEST PUSH3 0x1691 PUSH3 0x1688 DUP3 PUSH3 0x1665 JUMP JUMPDEST DUP5 DUP5 SLOAD PUSH3 0x15E0 JUMP JUMPDEST DUP3 SSTORE POP POP POP POP JUMP JUMPDEST PUSH0 SWAP1 JUMP JUMPDEST PUSH3 0x16A7 PUSH3 0x1699 JUMP JUMPDEST PUSH3 0x16B4 DUP2 DUP5 DUP5 PUSH3 0x166E JUMP JUMPDEST POP POP POP JUMP JUMPDEST JUMPDEST DUP2 DUP2 LT ISZERO PUSH3 0x16DB JUMPI PUSH3 0x16CF PUSH0 DUP3 PUSH3 0x169D JUMP JUMPDEST PUSH1 0x1 DUP2 ADD SWAP1 POP PUSH3 0x16BA JUMP JUMPDEST POP POP JUMP JUMPDEST PUSH1 0x1F DUP3 GT ISZERO PUSH3 0x172A JUMPI PUSH3 0x16F4 DUP2 PUSH3 0x15B3 JUMP JUMPDEST PUSH3 0x16FF DUP5 PUSH3 0x15C5 JUMP JUMPDEST DUP2 ADD PUSH1 0x20 DUP6 LT ISZERO PUSH3 0x170F JUMPI DUP2 SWAP1 POP JUMPDEST PUSH3 0x1727 PUSH3 0x171E DUP6 PUSH3 0x15C5 JUMP JUMPDEST DUP4 ADD DUP3 PUSH3 0x16B9 JUMP JUMPDEST POP POP JUMPDEST POP POP POP JUMP JUMPDEST PUSH0 DUP3 DUP3 SHR SWAP1 POP SWAP3 SWAP2 POP POP JUMP JUMPDEST PUSH0 PUSH3 0x174C PUSH0 NOT DUP5 PUSH1 0x8 MUL PUSH3 0x172F JUMP JUMPDEST NOT DUP1 DUP4 AND SWAP2 POP POP SWAP3 SWAP2 POP POP JUMP JUMPDEST PUSH0 PUSH3 0x1766 DUP4 DUP4 PUSH3 0x173B JUMP JUMPDEST SWAP2 POP DUP3 PUSH1 0x2 MUL DUP3 OR SWAP1 POP SWAP3 SWAP2 POP POP JUMP JUMPDEST PUSH3 0x1781 DUP3 PUSH3 0x151B JUMP JUMPDEST PUSH8 0xFFFFFFFFFFFFFFFF DUP2 GT ISZERO PUSH3 0x179D JUMPI PUSH3 0x179C PUSH3 0x1525 JUMP JUMPDEST JUMPDEST PUSH3 0x17A9 DUP3 SLOAD PUSH3 0x157F JUMP JUMPDEST PUSH3 0x17B6 DUP3 DUP3 DUP6 PUSH3 0x16DF JUMP JUMPDEST PUSH0 PUSH1 0x20 SWAP1 POP PUSH1 0x1F DUP4 GT PUSH1 0x1 DUP2 EQ PUSH3 0x17EC JUMPI PUSH0 DUP5 ISZERO PUSH3 0x17D7 JUMPI DUP3 DUP8 ADD MLOAD SWAP1 POP JUMPDEST PUSH3 0x17E3 DUP6 DUP3 PUSH3 0x1759 JUMP JUMPDEST DUP7 SSTORE POP PUSH3 0x1852 JUMP JUMPDEST PUSH1 0x1F NOT DUP5 AND PUSH3 0x17FC DUP7 PUSH3 0x15B3 JUMP JUMPDEST PUSH0 JUMPDEST DUP3 DUP2 LT ISZERO PUSH3 0x1825 JUMPI DUP5 DUP10 ADD MLOAD DUP3 SSTORE PUSH1 0x1 DUP3 ADD SWAP2 POP PUSH1 0x20 DUP6 ADD SWAP5 POP PUSH1 0x20 DUP2 ADD SWAP1 POP PUSH3 0x17FE JUMP JUMPDEST DUP7 DUP4 LT ISZERO PUSH3 0x1845 JUMPI DUP5 DUP10 ADD MLOAD PUSH3 0x1841 PUSH1 0x1F DUP10 AND DUP3 PUSH3 0x173B JUMP JUMPDEST DUP4 SSTORE POP JUMPDEST PUSH1 0x1 PUSH1 0x2 DUP9 MUL ADD DUP9 SSTORE POP POP POP JUMPDEST POP POP POP POP POP POP JUMP JUMPDEST PUSH32 0x4E487B7100000000000000000000000000000000000000000000000000000000 PUSH0 MSTORE PUSH1 0x21 PUSH1 0x4 MSTORE PUSH1 0x24 PUSH0 REVERT JUMPDEST PUSH0 PUSH3 0x1893 DUP3 PUSH3 0x1408 JUMP JUMPDEST SWAP2 POP PUSH3 0x18A0 DUP4 PUSH3 0x1408 JUMP JUMPDEST SWAP3 POP DUP3 DUP3 SUB SWAP1 POP DUP2 DUP2 GT ISZERO PUSH3 0x18BB JUMPI PUSH3 0x18BA PUSH3 0x128B JUMP JUMPDEST JUMPDEST SWAP3 SWAP2 POP POP JUMP JUMPDEST PUSH0 DUP3 DUP3 MSTORE PUSH1 0x20 DUP3 ADD SWAP1 POP SWAP3 SWAP2 POP POP JUMP JUMPDEST PUSH32 0x45524332303A206D696E7420746F20746865207A65726F206164647265737300 PUSH0 DUP3 ADD MSTORE POP JUMP JUMPDEST PUSH0 PUSH3 0x1907 PUSH1 0x1F DUP4 PUSH3 0x18C1 JUMP JUMPDEST SWAP2 POP PUSH3 0x1914 DUP3 PUSH3 0x18D1 JUMP JUMPDEST PUSH1 0x20 DUP3 ADD SWAP1 POP SWAP2 SWAP1 POP JUMP JUMPDEST PUSH0 PUSH1 0x20 DUP3 ADD SWAP1 POP DUP2 DUP2 SUB PUSH0 DUP4 ADD MSTORE PUSH3 0x1938 DUP2 PUSH3 0x18F9 JUMP JUMPDEST SWAP1 POP SWAP2 SWAP1 POP JUMP JUMPDEST PUSH0 PUSH3 0x194B DUP3 PUSH3 0x1408 JUMP JUMPDEST SWAP2 POP PUSH3 0x1958 DUP4 PUSH3 0x1408 JUMP JUMPDEST SWAP3 POP DUP3 DUP3 ADD SWAP1 POP DUP1 DUP3 GT ISZERO PUSH3 0x1973 JUMPI PUSH3 0x1972 PUSH3 0x128B JUMP JUMPDEST JUMPDEST SWAP3 SWAP2 POP POP JUMP JUMPDEST PUSH3 0x1984 DUP2 PUSH3 0x1408 JUMP JUMPDEST DUP3 MSTORE POP POP JUMP JUMPDEST PUSH0 PUSH1 0x20 DUP3 ADD SWAP1 POP PUSH3 0x199F PUSH0 DUP4 ADD DUP5 PUSH3 0x1979 JUMP JUMPDEST SWAP3 SWAP2 POP POP JUMP JUMPDEST PUSH32 0x45524332303A207472616E736665722066726F6D20746865207A65726F206164 PUSH0 DUP3 ADD MSTORE PUSH32 0x6472657373000000000000000000000000000000000000000000000000000000 PUSH1 0x20 DUP3 ADD MSTORE POP JUMP JUMPDEST PUSH0 PUSH3 0x1A01 PUSH1 0x25 DUP4 PUSH3 0x18C1 JUMP JUMPDEST SWAP2 POP PUSH3 0x1A0E DUP3 PUSH3 0x19A5 JUMP JUMPDEST PUSH1 0x40 DUP3 ADD SWAP1 POP SWAP2 SWAP1 POP JUMP JUMPDEST PUSH0 PUSH1 0x20 DUP3 ADD SWAP1 POP DUP2 DUP2 SUB PUSH0 DUP4 ADD MSTORE PUSH3 0x1A32 DUP2 PUSH3 0x19F3 JUMP JUMPDEST SWAP1 POP SWAP2 SWAP1 POP JUMP JUMPDEST PUSH32 0x45524332303A207472616E7366657220746F20746865207A65726F2061646472 PUSH0 DUP3 ADD MSTORE PUSH32 0x6573730000000000000000000000000000000000000000000000000000000000 PUSH1 0x20 DUP3 ADD MSTORE POP JUMP JUMPDEST PUSH0 PUSH3 0x1A95 PUSH1 0x23 DUP4 PUSH3 0x18C1 JUMP JUMPDEST SWAP2 POP PUSH3 0x1AA2 DUP3 PUSH3 0x1A39 JUMP JUMPDEST PUSH1 0x40 DUP3 ADD SWAP1 POP SWAP2 SWAP1 POP JUMP JUMPDEST PUSH0 PUSH1 0x20 DUP3 ADD SWAP1 POP DUP2 DUP2 SUB PUSH0 DUP4 ADD MSTORE PUSH3 0x1AC6 DUP2 PUSH3 0x1A87 JUMP JUMPDEST SWAP1 POP SWAP2 SWAP1 POP JUMP JUMPDEST PUSH32 0x45524332303A207472616E7366657220616D6F756E7420657863656564732062 PUSH0 DUP3 ADD MSTORE PUSH32 0x616C616E63650000000000000000000000000000000000000000000000000000 PUSH1 0x20 DUP3 ADD MSTORE POP JUMP JUMPDEST PUSH0 PUSH3 0x1B29 PUSH1 0x26 DUP4 PUSH3 0x18C1 JUMP JUMPDEST SWAP2 POP PUSH3 0x1B36 DUP3 PUSH3 0x1ACD JUMP JUMPDEST PUSH1 0x40 DUP3 ADD SWAP1 POP SWAP2 SWAP1 POP JUMP JUMPDEST PUSH0 PUSH1 0x20 DUP3 ADD SWAP1 POP DUP2 DUP2 SUB PUSH0 DUP4 ADD MSTORE PUSH3 0x1B5A DUP2 PUSH3 0x1B1B JUMP JUMPDEST SWAP1 POP SWAP2 SWAP1 POP JUMP JUMPDEST PUSH2 0x435F DUP1 PUSH3 0x1B6F PUSH0 CODECOPY PUSH0 RETURN INVALID PUSH1 0x80 PUSH1 0x40 MSTORE PUSH1 0x4 CALLDATASIZE LT PUSH2 0x19B JUMPI PUSH0 CALLDATALOAD PUSH1 0xE0 SHR DUP1 PUSH4 0x6DFA00FE GT PUSH2 0xEB JUMPI DUP1 PUSH4 0xA9059CBB GT PUSH2 0x89 JUMPI DUP1 PUSH4 0xDA0D37E6 GT PUSH2 0x63 JUMPI DUP1 PUSH4 0xDA0D37E6 EQ PUSH2 0x5C5 JUMPI DUP1 PUSH4 0xDB8FB88E EQ PUSH2 0x601 JUMPI DUP1 PUSH4 0xDD62ED3E EQ PUSH2 0x629 JUMPI DUP1 PUSH4 0xE0C6190D EQ PUSH2 0x665 JUMPI PUSH2 0x19B JUMP JUMPDEST DUP1 PUSH4 0xA9059CBB EQ PUSH2 0x539 JUMPI DUP1 PUSH4 0xAFE3E906 EQ PUSH2 0x575 JUMPI DUP1 PUSH4 0xC4A91D56 EQ PUSH2 0x59D JUMPI PUSH2 0x19B JUMP JUMPDEST DUP1 PUSH4 0x896E8CB1 GT PUSH2 0xC5 JUMPI DUP1 PUSH4 0x896E8CB1 EQ PUSH2 0x483 JUMPI DUP1 PUSH4 0x95D89B41 EQ PUSH2 0x4AB JUMPI DUP1 PUSH4 0x9D7E8D5F EQ PUSH2 0x4D5 JUMPI DUP1 PUSH4 0xA457C2D7 EQ PUSH2 0x4FD JUMPI PUSH2 0x19B JUMP JUMPDEST DUP1 PUSH4 0x6DFA00FE EQ PUSH2 0x3E1 JUMPI DUP1 PUSH4 0x70A08231 EQ PUSH2 0x409 JUMPI DUP1 PUSH4 0x74ADAD1D EQ PUSH2 0x445 JUMPI PUSH2 0x19B JUMP JUMPDEST DUP1 PUSH4 0x313CE567 GT PUSH2 0x158 JUMPI DUP1 PUSH4 0x4B94F50E GT PUSH2 0x132 JUMPI DUP1 PUSH4 0x4B94F50E EQ PUSH2 0x33D JUMPI DUP1 PUSH4 0x58467DBC EQ PUSH2 0x367 JUMPI DUP1 PUSH4 0x6515D6C1 EQ PUSH2 0x3A3 JUMPI DUP1 PUSH4 0x67198042 EQ PUSH2 0x3CB JUMPI PUSH2 0x19B JUMP JUMPDEST DUP1 PUSH4 0x313CE567 EQ PUSH2 0x2AF JUMPI DUP1 PUSH4 0x39509351 EQ PUSH2 0x2D9 JUMPI DUP1 PUSH4 0x48419DC8 EQ PUSH2 0x315 JUMPI PUSH2 0x19B JUMP JUMPDEST DUP1 PUSH4 0x6FDDE03 EQ PUSH2 0x19F JUMPI DUP1 PUSH4 0x737C6B6 EQ PUSH2 0x1C9 JUMPI DUP1 PUSH4 0x95EA7B3 EQ PUSH2 0x1F1 JUMPI DUP1 PUSH4 0x18160DDD EQ PUSH2 0x22D JUMPI DUP1 PUSH4 0x23B872DD EQ PUSH2 0x257 JUMPI DUP1 PUSH4 0x2D296BF1 EQ PUSH2 0x293 JUMPI JUMPDEST PUSH0 DUP1 REVERT JUMPDEST CALLVALUE DUP1 ISZERO PUSH2 0x1AA JUMPI PUSH0 DUP1 REVERT JUMPDEST POP PUSH2 0x1B3 PUSH2 0x68F JUMP JUMPDEST PUSH1 0x40 MLOAD PUSH2 0x1C0 SWAP2 SWAP1 PUSH2 0x2BA7 JUMP JUMPDEST PUSH1 0x40 MLOAD DUP1 SWAP2 SUB SWAP1 RETURN JUMPDEST CALLVALUE DUP1 ISZERO PUSH2 0x1D4 JUMPI PUSH0 DUP1 REVERT JUMPDEST POP PUSH2 0x1EF PUSH1 0x4 DUP1 CALLDATASIZE SUB DUP2 ADD SWAP1 PUSH2 0x1EA SWAP2 SWAP1 PUSH2 0x2C88 JUMP JUMPDEST PUSH2 0x71F JUMP JUMPDEST STOP JUMPDEST CALLVALUE DUP1 ISZERO PUSH2 0x1FC JUMPI PUSH0 DUP1 REVERT JUMPDEST POP PUSH2 0x217 PUSH1 0x4 DUP1 CALLDATASIZE SUB DUP2 ADD SWAP1 PUSH2 0x212 SWAP2 SWAP1 PUSH2 0x2CD8 JUMP JUMPDEST PUSH2 0xBBA JUMP JUMPDEST PUSH1 0x40 MLOAD PUSH2 0x224 SWAP2 SWAP1 PUSH2 0x2D30 JUMP JUMPDEST PUSH1 0x40 MLOAD DUP1 SWAP2 SUB SWAP1 RETURN JUMPDEST CALLVALUE DUP1 ISZERO PUSH2 0x238 JUMPI PUSH0 DUP1 REVERT JUMPDEST POP PUSH2 0x241 PUSH2 0xBDC JUMP JUMPDEST PUSH1 0x40 MLOAD PUSH2 0x24E SWAP2 SWAP1 PUSH2 0x2D58 JUMP JUMPDEST PUSH1 0x40 MLOAD DUP1 SWAP2 SUB SWAP1 RETURN JUMPDEST CALLVALUE DUP1 ISZERO PUSH2 0x262 JUMPI PUSH0 DUP1 REVERT JUMPDEST POP PUSH2 0x27D PUSH1 0x4 DUP1 CALLDATASIZE SUB DUP2 ADD SWAP1 PUSH2 0x278 SWAP2 SWAP1 PUSH2 0x2D71 JUMP JUMPDEST PUSH2 0xBE5 JUMP JUMPDEST PUSH1 0x40 MLOAD PUSH2 0x28A SWAP2 SWAP1 PUSH2 0x2D30 JUMP JUMPDEST PUSH1 0x40 MLOAD DUP1 SWAP2 SUB SWAP1 RETURN JUMPDEST PUSH2 0x2AD PUSH1 0x4 DUP1 CALLDATASIZE SUB DUP2 ADD SWAP1 PUSH2 0x2A8 SWAP2 SWAP1 PUSH2 0x2DC1 JUMP JUMPDEST PUSH2 0xC13 JUMP JUMPDEST STOP JUMPDEST CALLVALUE DUP1 ISZERO PUSH2 0x2BA JUMPI PUSH0 DUP1 REVERT JUMPDEST POP PUSH2 0x2C3 PUSH2 0x106A JUMP JUMPDEST PUSH1 0x40 MLOAD PUSH2 0x2D0 SWAP2 SWAP1 PUSH2 0x2E07 JUMP JUMPDEST PUSH1 0x40 MLOAD DUP1 SWAP2 SUB SWAP1 RETURN JUMPDEST CALLVALUE DUP1 ISZERO PUSH2 0x2E4 JUMPI PUSH0 DUP1 REVERT JUMPDEST POP PUSH2 0x2FF PUSH1 0x4 DUP1 CALLDATASIZE SUB DUP2 ADD SWAP1 PUSH2 0x2FA SWAP2 SWAP1 PUSH2 0x2CD8 JUMP JUMPDEST PUSH2 0x1072 JUMP JUMPDEST PUSH1 0x40 MLOAD PUSH2 0x30C SWAP2 SWAP1 PUSH2 0x2D30 JUMP JUMPDEST PUSH1 0x40 MLOAD DUP1 SWAP2 SUB SWAP1 RETURN JUMPDEST CALLVALUE DUP1 ISZERO PUSH2 0x320 JUMPI PUSH0 DUP1 REVERT JUMPDEST POP PUSH2 0x33B PUSH1 0x4 DUP1 CALLDATASIZE SUB DUP2 ADD SWAP1 PUSH2 0x336 SWAP2 SWAP1 PUSH2 0x2F4C JUMP JUMPDEST PUSH2 0x10A8 JUMP JUMPDEST STOP JUMPDEST CALLVALUE DUP1 ISZERO PUSH2 0x348 JUMPI PUSH0 DUP1 REVERT JUMPDEST POP PUSH2 0x351 PUSH2 0x144D JUMP JUMPDEST PUSH1 0x40 MLOAD PUSH2 0x35E SWAP2 SWAP1 PUSH2 0x2D58 JUMP JUMPDEST PUSH1 0x40 MLOAD DUP1 SWAP2 SUB SWAP1 RETURN JUMPDEST CALLVALUE DUP1 ISZERO PUSH2 0x372 JUMPI PUSH0 DUP1 REVERT JUMPDEST POP PUSH2 0x38D PUSH1 0x4 DUP1 CALLDATASIZE SUB DUP2 ADD SWAP1 PUSH2 0x388 SWAP2 SWAP1 PUSH2 0x2F4C JUMP JUMPDEST PUSH2 0x14AA JUMP JUMPDEST PUSH1 0x40 MLOAD PUSH2 0x39A SWAP2 SWAP1 PUSH2 0x3143 JUMP JUMPDEST PUSH1 0x40 MLOAD DUP1 SWAP2 SUB SWAP1 RETURN JUMPDEST CALLVALUE DUP1 ISZERO PUSH2 0x3AE JUMPI PUSH0 DUP1 REVERT JUMPDEST POP PUSH2 0x3C9 PUSH1 0x4 DUP1 CALLDATASIZE SUB DUP2 ADD SWAP1 PUSH2 0x3C4 SWAP2 SWAP1 PUSH2 0x3163 JUMP JUMPDEST PUSH2 0x1826 JUMP JUMPDEST STOP JUMPDEST CALLVALUE DUP1 ISZERO PUSH2 0x3D6 JUMPI PUSH0 DUP1 REVERT JUMPDEST POP PUSH2 0x3DF PUSH2 0x1962 JUMP JUMPDEST STOP JUMPDEST CALLVALUE DUP1 ISZERO PUSH2 0x3EC JUMPI PUSH0 DUP1 REVERT JUMPDEST POP PUSH2 0x407 PUSH1 0x4 DUP1 CALLDATASIZE SUB DUP2 ADD SWAP1 PUSH2 0x402 SWAP2 SWAP1 PUSH2 0x2DC1 JUMP JUMPDEST PUSH2 0x1A71 JUMP JUMPDEST STOP JUMPDEST CALLVALUE DUP1 ISZERO PUSH2 0x414 JUMPI PUSH0 DUP1 REVERT JUMPDEST POP PUSH2 0x42F PUSH1 0x4 DUP1 CALLDATASIZE SUB DUP2 ADD SWAP1 PUSH2 0x42A SWAP2 SWAP1 PUSH2 0x31A1 JUMP JUMPDEST PUSH2 0x1A98 JUMP JUMPDEST PUSH1 0x40 MLOAD PUSH2 0x43C SWAP2 SWAP1 PUSH2 0x2D58 JUMP JUMPDEST PUSH1 0x40 MLOAD DUP1 SWAP2 SUB SWAP1 RETURN JUMPDEST CALLVALUE DUP1 ISZERO PUSH2 0x450 JUMPI PUSH0 DUP1 REVERT JUMPDEST POP PUSH2 0x46B PUSH1 0x4 DUP1 CALLDATASIZE SUB DUP2 ADD SWAP1 PUSH2 0x466 SWAP2 SWAP1 PUSH2 0x31A1 JUMP JUMPDEST PUSH2 0x1ADD JUMP JUMPDEST PUSH1 0x40 MLOAD PUSH2 0x47A SWAP4 SWAP3 SWAP2 SWAP1 PUSH2 0x3221 JUMP JUMPDEST PUSH1 0x40 MLOAD DUP1 SWAP2 SUB SWAP1 RETURN JUMPDEST CALLVALUE DUP1 ISZERO PUSH2 0x48E JUMPI PUSH0 DUP1 REVERT JUMPDEST POP PUSH2 0x4A9 PUSH1 0x4 DUP1 CALLDATASIZE SUB DUP2 ADD SWAP1 PUSH2 0x4A4 SWAP2 SWAP1 PUSH2 0x3163 JUMP JUMPDEST PUSH2 0x1BB5 JUMP JUMPDEST STOP JUMPDEST CALLVALUE DUP1 ISZERO PUSH2 0x4B6 JUMPI PUSH0 DUP1 REVERT JUMPDEST POP PUSH2 0x4BF PUSH2 0x1CDB JUMP JUMPDEST PUSH1 0x40 MLOAD PUSH2 0x4CC SWAP2 SWAP1 PUSH2 0x2BA7 JUMP JUMPDEST PUSH1 0x40 MLOAD DUP1 SWAP2 SUB SWAP1 RETURN JUMPDEST CALLVALUE DUP1 ISZERO PUSH2 0x4E0 JUMPI PUSH0 DUP1 REVERT JUMPDEST POP PUSH2 0x4FB PUSH1 0x4 DUP1 CALLDATASIZE SUB DUP2 ADD SWAP1 PUSH2 0x4F6 SWAP2 SWAP1 PUSH2 0x2DC1 JUMP JUMPDEST PUSH2 0x1D6B JUMP JUMPDEST STOP JUMPDEST CALLVALUE DUP1 ISZERO PUSH2 0x508 JUMPI PUSH0 DUP1 REVERT JUMPDEST POP PUSH2 0x523 PUSH1 0x4 DUP1 CALLDATASIZE SUB DUP2 ADD SWAP1 PUSH2 0x51E SWAP2 SWAP1 PUSH2 0x2CD8 JUMP JUMPDEST PUSH2 0x1E2A JUMP JUMPDEST PUSH1 0x40 MLOAD PUSH2 0x530 SWAP2 SWAP1 PUSH2 0x2D30 JUMP JUMPDEST PUSH1 0x40 MLOAD DUP1 SWAP2 SUB SWAP1 RETURN JUMPDEST CALLVALUE DUP1 ISZERO PUSH2 0x544 JUMPI PUSH0 DUP1 REVERT JUMPDEST POP PUSH2 0x55F PUSH1 0x4 DUP1 CALLDATASIZE SUB DUP2 ADD SWAP1 PUSH2 0x55A SWAP2 SWAP1 PUSH2 0x2CD8 JUMP JUMPDEST PUSH2 0x1E9F JUMP JUMPDEST PUSH1 0x40 MLOAD PUSH2 0x56C SWAP2 SWAP1 PUSH2 0x2D30 JUMP JUMPDEST PUSH1 0x40 MLOAD DUP1 SWAP2 SUB SWAP1 RETURN JUMPDEST CALLVALUE DUP1 ISZERO PUSH2 0x580 JUMPI PUSH0 DUP1 REVERT JUMPDEST POP PUSH2 0x59B PUSH1 0x4 DUP1 CALLDATASIZE SUB DUP2 ADD SWAP1 PUSH2 0x596 SWAP2 SWAP1 PUSH2 0x3280 JUMP JUMPDEST PUSH2 0x1EC1 JUMP JUMPDEST STOP JUMPDEST CALLVALUE DUP1 ISZERO PUSH2 0x5A8 JUMPI PUSH0 DUP1 REVERT JUMPDEST POP PUSH2 0x5C3 PUSH1 0x4 DUP1 CALLDATASIZE SUB DUP2 ADD SWAP1 PUSH2 0x5BE SWAP2 SWAP1 PUSH2 0x3163 JUMP JUMPDEST PUSH2 0x20B9 JUMP JUMPDEST STOP JUMPDEST CALLVALUE DUP1 ISZERO PUSH2 0x5D0 JUMPI PUSH0 DUP1 REVERT JUMPDEST POP PUSH2 0x5EB PUSH1 0x4 DUP1 CALLDATASIZE SUB DUP2 ADD SWAP1 PUSH2 0x5E6 SWAP2 SWAP1 PUSH2 0x31A1 JUMP JUMPDEST PUSH2 0x21BF JUMP JUMPDEST PUSH1 0x40 MLOAD PUSH2 0x5F8 SWAP2 SWAP1 PUSH2 0x32D6 JUMP JUMPDEST PUSH1 0x40 MLOAD DUP1 SWAP2 SUB SWAP1 RETURN JUMPDEST CALLVALUE DUP1 ISZERO PUSH2 0x60C JUMPI PUSH0 DUP1 REVERT JUMPDEST POP PUSH2 0x627 PUSH1 0x4 DUP1 CALLDATASIZE SUB DUP2 ADD SWAP1 PUSH2 0x622 SWAP2 SWAP1 PUSH2 0x32EF JUMP JUMPDEST PUSH2 0x21D4 JUMP JUMPDEST STOP JUMPDEST CALLVALUE DUP1 ISZERO PUSH2 0x634 JUMPI PUSH0 DUP1 REVERT JUMPDEST POP PUSH2 0x64F PUSH1 0x4 DUP1 CALLDATASIZE SUB DUP2 ADD SWAP1 PUSH2 0x64A SWAP2 SWAP1 PUSH2 0x3336 JUMP JUMPDEST PUSH2 0x2450 JUMP JUMPDEST PUSH1 0x40 MLOAD PUSH2 0x65C SWAP2 SWAP1 PUSH2 0x2D58 JUMP JUMPDEST PUSH1 0x40 MLOAD DUP1 SWAP2 SUB SWAP1 RETURN JUMPDEST CALLVALUE DUP1 ISZERO PUSH2 0x670 JUMPI PUSH0 DUP1 REVERT JUMPDEST POP PUSH2 0x679 PUSH2 0x24D2 JUMP JUMPDEST PUSH1 0x40 MLOAD PUSH2 0x686 SWAP2 SWAP1 PUSH2 0x2D58 JUMP JUMPDEST PUSH1 0x40 MLOAD DUP1 SWAP2 SUB SWAP1 RETURN JUMPDEST PUSH1 0x60 PUSH1 0x3 DUP1 SLOAD PUSH2 0x69E SWAP1 PUSH2 0x33A1 JUMP JUMPDEST DUP1 PUSH1 0x1F ADD PUSH1 0x20 DUP1 SWAP2 DIV MUL PUSH1 0x20 ADD PUSH1 0x40 MLOAD SWAP1 DUP2 ADD PUSH1 0x40 MSTORE DUP1 SWAP3 SWAP2 SWAP1 DUP2 DUP2 MSTORE PUSH1 0x20 ADD DUP3 DUP1 SLOAD PUSH2 0x6CA SWAP1 PUSH2 0x33A1 JUMP JUMPDEST DUP1 ISZERO PUSH2 0x715 JUMPI DUP1 PUSH1 0x1F LT PUSH2 0x6EC JUMPI PUSH2 0x100 DUP1 DUP4 SLOAD DIV MUL DUP4 MSTORE SWAP2 PUSH1 0x20 ADD SWAP2 PUSH2 0x715 JUMP JUMPDEST DUP3 ADD SWAP2 SWAP1 PUSH0 MSTORE PUSH1 0x20 PUSH0 KECCAK256 SWAP1 JUMPDEST DUP2 SLOAD DUP2 MSTORE SWAP1 PUSH1 0x1 ADD SWAP1 PUSH1 0x20 ADD DUP1 DUP4 GT PUSH2 0x6F8 JUMPI DUP3 SWAP1 SUB PUSH1 0x1F AND DUP3 ADD SWAP2 JUMPDEST POP POP POP POP POP SWAP1 POP SWAP1 JUMP JUMPDEST PUSH0 DUP3 GT PUSH2 0x761 JUMPI PUSH1 0x40 MLOAD PUSH32 0x8C379A000000000000000000000000000000000000000000000000000000000 DUP2 MSTORE PUSH1 0x4 ADD PUSH2 0x758 SWAP1 PUSH2 0x3441 JUMP JUMPDEST PUSH1 0x40 MLOAD DUP1 SWAP2 SUB SWAP1 REVERT JUMPDEST PUSH2 0x769 PUSH2 0x106A JUMP JUMPDEST PUSH1 0xA PUSH2 0x775 SWAP2 SWAP1 PUSH2 0x35BB JUMP JUMPDEST DUP3 PUSH2 0x780 SWAP2 SWAP1 PUSH2 0x3605 JUMP JUMPDEST SWAP2 POP PUSH1 0x1 PUSH1 0x2 DUP2 GT ISZERO PUSH2 0x796 JUMPI PUSH2 0x795 PUSH2 0x3019 JUMP JUMPDEST JUMPDEST DUP2 PUSH1 0x2 DUP2 GT ISZERO PUSH2 0x7A9 JUMPI PUSH2 0x7A8 PUSH2 0x3019 JUMP JUMPDEST JUMPDEST SUB PUSH2 0x8E9 JUMPI DUP2 PUSH1 0xF PUSH0 CALLER PUSH20 0xFFFFFFFFFFFFFFFFFFFFFFFFFFFFFFFFFFFFFFFF AND PUSH20 0xFFFFFFFFFFFFFFFFFFFFFFFFFFFFFFFFFFFFFFFF AND DUP2 MSTORE PUSH1 0x20 ADD SWAP1 DUP2 MSTORE PUSH1 0x20 ADD PUSH0 KECCAK256 PUSH1 0x4 ADD SLOAD LT ISZERO PUSH2 0x831 JUMPI PUSH1 0x40 MLOAD PUSH32 0x8C379A000000000000000000000000000000000000000000000000000000000 DUP2 MSTORE PUSH1 0x4 ADD PUSH2 0x828 SWAP1 PUSH2 0x36B6 JUMP JUMPDEST PUSH1 0x40 MLOAD DUP1 SWAP2 SUB SWAP1 REVERT JUMPDEST PUSH2 0x83C CALLER DUP5 DUP5 PUSH2 0x250A JUMP JUMPDEST DUP2 PUSH1 0xF PUSH0 CALLER PUSH20 0xFFFFFFFFFFFFFFFFFFFFFFFFFFFFFFFFFFFFFFFF AND PUSH20 0xFFFFFFFFFFFFFFFFFFFFFFFFFFFFFFFFFFFFFFFF AND DUP2 MSTORE PUSH1 0x20 ADD SWAP1 DUP2 MSTORE PUSH1 0x20 ADD PUSH0 KECCAK256 PUSH1 0x4 ADD PUSH0 DUP3 DUP3 SLOAD PUSH2 0x88B SWAP2 SWAP1 PUSH2 0x36D4 JUMP JUMPDEST SWAP3 POP POP DUP2 SWAP1 SSTORE POP DUP2 PUSH1 0xF PUSH0 DUP6 PUSH20 0xFFFFFFFFFFFFFFFFFFFFFFFFFFFFFFFFFFFFFFFF AND PUSH20 0xFFFFFFFFFFFFFFFFFFFFFFFFFFFFFFFFFFFFFFFF AND DUP2 MSTORE PUSH1 0x20 ADD SWAP1 DUP2 MSTORE PUSH1 0x20 ADD PUSH0 KECCAK256 PUSH1 0x4 ADD PUSH0 DUP3 DUP3 SLOAD PUSH2 0x8E1 SWAP2 SWAP1 PUSH2 0x3707 JUMP JUMPDEST SWAP3 POP POP DUP2 SWAP1 SSTORE POP JUMPDEST PUSH0 PUSH1 0x2 DUP2 GT ISZERO PUSH2 0x8FC JUMPI PUSH2 0x8FB PUSH2 0x3019 JUMP JUMPDEST JUMPDEST DUP2 PUSH1 0x2 DUP2 GT ISZERO PUSH2 0x90F JUMPI PUSH2 0x90E PUSH2 0x3019 JUMP JUMPDEST JUMPDEST SUB PUSH2 0xA4F JUMPI DUP2 PUSH1 0xF PUSH0 CALLER PUSH20 0xFFFFFFFFFFFFFFFFFFFFFFFFFFFFFFFFFFFFFFFF AND PUSH20 0xFFFFFFFFFFFFFFFFFFFFFFFFFFFFFFFFFFFFFFFF AND DUP2 MSTORE PUSH1 0x20 ADD SWAP1 DUP2 MSTORE PUSH1 0x20 ADD PUSH0 KECCAK256 PUSH1 0x3 ADD SLOAD LT ISZERO PUSH2 0x997 JUMPI PUSH1 0x40 MLOAD PUSH32 0x8C379A000000000000000000000000000000000000000000000000000000000 DUP2 MSTORE PUSH1 0x4 ADD PUSH2 0x98E SWAP1 PUSH2 0x36B6 JUMP JUMPDEST PUSH1 0x40 MLOAD DUP1 SWAP2 SUB SWAP1 REVERT JUMPDEST PUSH2 0x9A2 CALLER DUP5 DUP5 PUSH2 0x250A JUMP JUMPDEST DUP2 PUSH1 0xF PUSH0 CALLER PUSH20 0xFFFFFFFFFFFFFFFFFFFFFFFFFFFFFFFFFFFFFFFF AND PUSH20 0xFFFFFFFFFFFFFFFFFFFFFFFFFFFFFFFFFFFFFFFF AND DUP2 MSTORE PUSH1 0x20 ADD SWAP1 DUP2 MSTORE PUSH1 0x20 ADD PUSH0 KECCAK256 PUSH1 0x3 ADD PUSH0 DUP3 DUP3 SLOAD PUSH2 0x9F1 SWAP2 SWAP1 PUSH2 0x36D4 JUMP JUMPDEST SWAP3 POP POP DUP2 SWAP1 SSTORE POP DUP2 PUSH1 0xF PUSH0 DUP6 PUSH20 0xFFFFFFFFFFFFFFFFFFFFFFFFFFFFFFFFFFFFFFFF AND PUSH20 0xFFFFFFFFFFFFFFFFFFFFFFFFFFFFFFFFFFFFFFFF AND DUP2 MSTORE PUSH1 0x20 ADD SWAP1 DUP2 MSTORE PUSH1 0x20 ADD PUSH0 KECCAK256 PUSH1 0x3 ADD PUSH0 DUP3 DUP3 SLOAD PUSH2 0xA47 SWAP2 SWAP1 PUSH2 0x3707 JUMP JUMPDEST SWAP3 POP POP DUP2 SWAP1 SSTORE POP JUMPDEST PUSH1 0x2 DUP1 DUP2 GT ISZERO PUSH2 0xA62 JUMPI PUSH2 0xA61 PUSH2 0x3019 JUMP JUMPDEST JUMPDEST DUP2 PUSH1 0x2 DUP2 GT ISZERO PUSH2 0xA75 JUMPI PUSH2 0xA74 PUSH2 0x3019 JUMP JUMPDEST JUMPDEST SUB PUSH2 0xBB5 JUMPI DUP2 PUSH1 0xF PUSH0 CALLER PUSH20 0xFFFFFFFFFFFFFFFFFFFFFFFFFFFFFFFFFFFFFFFF AND PUSH20 0xFFFFFFFFFFFFFFFFFFFFFFFFFFFFFFFFFFFFFFFF AND DUP2 MSTORE PUSH1 0x20 ADD SWAP1 DUP2 MSTORE PUSH1 0x20 ADD PUSH0 KECCAK256 PUSH1 0x5 ADD SLOAD LT ISZERO PUSH2 0xAFD JUMPI PUSH1 0x40 MLOAD PUSH32 0x8C379A000000000000000000000000000000000000000000000000000000000 DUP2 MSTORE PUSH1 0x4 ADD PUSH2 0xAF4 SWAP1 PUSH2 0x36B6 JUMP JUMPDEST PUSH1 0x40 MLOAD DUP1 SWAP2 SUB SWAP1 REVERT JUMPDEST PUSH2 0xB08 CALLER DUP5 DUP5 PUSH2 0x250A JUMP JUMPDEST DUP2 PUSH1 0xF PUSH0 CALLER PUSH20 0xFFFFFFFFFFFFFFFFFFFFFFFFFFFFFFFFFFFFFFFF AND PUSH20 0xFFFFFFFFFFFFFFFFFFFFFFFFFFFFFFFFFFFFFFFF AND DUP2 MSTORE PUSH1 0x20 ADD SWAP1 DUP2 MSTORE PUSH1 0x20 ADD PUSH0 KECCAK256 PUSH1 0x5 ADD PUSH0 DUP3 DUP3 SLOAD PUSH2 0xB57 SWAP2 SWAP1 PUSH2 0x36D4 JUMP JUMPDEST SWAP3 POP POP DUP2 SWAP1 SSTORE POP DUP2 PUSH1 0xF PUSH0 DUP6 PUSH20 0xFFFFFFFFFFFFFFFFFFFFFFFFFFFFFFFFFFFFFFFF AND PUSH20 0xFFFFFFFFFFFFFFFFFFFFFFFFFFFFFFFFFFFFFFFF AND DUP2 MSTORE PUSH1 0x20 ADD SWAP1 DUP2 MSTORE PUSH1 0x20 ADD PUSH0 KECCAK256 PUSH1 0x5 ADD PUSH0 DUP3 DUP3 SLOAD PUSH2 0xBAD SWAP2 SWAP1 PUSH2 0x3707 JUMP JUMPDEST SWAP3 POP POP DUP2 SWAP1 SSTORE POP JUMPDEST POP POP POP JUMP JUMPDEST PUSH0 DUP1 PUSH2 0xBC4 PUSH2 0x2776 JUMP JUMPDEST SWAP1 POP PUSH2 0xBD1 DUP2 DUP6 DUP6 PUSH2 0x277D JUMP JUMPDEST PUSH1 0x1 SWAP2 POP POP SWAP3 SWAP2 POP POP JUMP JUMPDEST PUSH0 PUSH1 0x2 SLOAD SWAP1 POP SWAP1 JUMP JUMPDEST PUSH0 DUP1 PUSH2 0xBEF PUSH2 0x2776 JUMP JUMPDEST SWAP1 POP PUSH2 0xBFC DUP6 DUP3 DUP6 PUSH2 0x2940 JUMP JUMPDEST PUSH2 0xC07 DUP6 DUP6 DUP6 PUSH2 0x250A JUMP JUMPDEST PUSH1 0x1 SWAP2 POP POP SWAP4 SWAP3 POP POP POP JUMP JUMPDEST PUSH2 0xC1B PUSH2 0x106A JUMP JUMPDEST PUSH1 0xA PUSH2 0xC27 SWAP2 SWAP1 PUSH2 0x35BB JUMP JUMPDEST DUP2 PUSH2 0xC32 SWAP2 SWAP1 PUSH2 0x3605 JUMP JUMPDEST SWAP1 POP PUSH2 0x12C PUSH2 0xC3F PUSH2 0x24D2 JUMP JUMPDEST GT PUSH2 0xC7F JUMPI PUSH1 0x40 MLOAD PUSH32 0x8C379A000000000000000000000000000000000000000000000000000000000 DUP2 MSTORE PUSH1 0x4 ADD PUSH2 0xC76 SWAP1 PUSH2 0x37AA JUMP JUMPDEST PUSH1 0x40 MLOAD DUP1 SWAP2 SUB SWAP1 REVERT JUMPDEST PUSH0 DUP2 GT PUSH2 0xCC1 JUMPI PUSH1 0x40 MLOAD PUSH32 0x8C379A000000000000000000000000000000000000000000000000000000000 DUP2 MSTORE PUSH1 0x4 ADD PUSH2 0xCB8 SWAP1 PUSH2 0x3441 JUMP JUMPDEST PUSH1 0x40 MLOAD DUP1 SWAP2 SUB SWAP1 REVERT JUMPDEST PUSH0 PUSH1 0xF PUSH0 PUSH20 0xAB8483F64D9C6D1ECF9B849AE677DD3315835CB2 PUSH20 0xFFFFFFFFFFFFFFFFFFFFFFFFFFFFFFFFFFFFFFFF AND PUSH20 0xFFFFFFFFFFFFFFFFFFFFFFFFFFFFFFFFFFFFFFFF AND DUP2 MSTORE PUSH1 0x20 ADD SWAP1 DUP2 MSTORE PUSH1 0x20 ADD PUSH0 KECCAK256 PUSH1 0x4 ADD SLOAD GT PUSH2 0xD57 JUMPI PUSH1 0x40 MLOAD PUSH32 0x8C379A000000000000000000000000000000000000000000000000000000000 DUP2 MSTORE PUSH1 0x4 ADD PUSH2 0xD4E SWAP1 PUSH2 0x3838 JUMP JUMPDEST PUSH1 0x40 MLOAD DUP1 SWAP2 SUB SWAP1 REVERT JUMPDEST PUSH0 PUSH1 0xF PUSH0 PUSH20 0x4B20993BC481177EC7E8F571CECAE8A9E22C02DB PUSH20 0xFFFFFFFFFFFFFFFFFFFFFFFFFFFFFFFFFFFFFFFF AND PUSH20 0xFFFFFFFFFFFFFFFFFFFFFFFFFFFFFFFFFFFFFFFF AND DUP2 MSTORE PUSH1 0x20 ADD SWAP1 DUP2 MSTORE PUSH1 0x20 ADD PUSH0 KECCAK256 PUSH1 0x5 ADD SLOAD GT PUSH2 0xDED JUMPI PUSH1 0x40 MLOAD PUSH32 0x8C379A000000000000000000000000000000000000000000000000000000000 DUP2 MSTORE PUSH1 0x4 ADD PUSH2 0xDE4 SWAP1 PUSH2 0x3838 JUMP JUMPDEST PUSH1 0x40 MLOAD DUP1 SWAP2 SUB SWAP1 REVERT JUMPDEST PUSH0 PUSH2 0xDF6 PUSH2 0x144D JUMP JUMPDEST SWAP1 POP PUSH7 0x1AA535D3D0C000 PUSH2 0xE08 PUSH2 0x144D JUMP JUMPDEST SUB PUSH2 0xF09 JUMPI DUP2 PUSH1 0xF PUSH0 CALLER PUSH20 0xFFFFFFFFFFFFFFFFFFFFFFFFFFFFFFFFFFFFFFFF AND PUSH20 0xFFFFFFFFFFFFFFFFFFFFFFFFFFFFFFFFFFFFFFFF AND DUP2 MSTORE PUSH1 0x20 ADD SWAP1 DUP2 MSTORE PUSH1 0x20 ADD PUSH0 KECCAK256 PUSH1 0x4 ADD PUSH0 DUP3 DUP3 SLOAD PUSH2 0xE5C SWAP2 SWAP1 PUSH2 0x3707 JUMP JUMPDEST SWAP3 POP POP DUP2 SWAP1 SSTORE POP DUP2 PUSH1 0xF PUSH0 PUSH20 0xAB8483F64D9C6D1ECF9B849AE677DD3315835CB2 PUSH20 0xFFFFFFFFFFFFFFFFFFFFFFFFFFFFFFFFFFFFFFFF AND PUSH20 0xFFFFFFFFFFFFFFFFFFFFFFFFFFFFFFFFFFFFFFFF AND DUP2 MSTORE PUSH1 0x20 ADD SWAP1 DUP2 MSTORE PUSH1 0x20 ADD PUSH0 KECCAK256 PUSH1 0x4 ADD PUSH0 DUP3 DUP3 SLOAD PUSH2 0xEC6 SWAP2 SWAP1 PUSH2 0x36D4 JUMP JUMPDEST SWAP3 POP POP DUP2 SWAP1 SSTORE POP PUSH2 0xEEC PUSH20 0xAB8483F64D9C6D1ECF9B849AE677DD3315835CB2 CALLER DUP5 PUSH2 0x250A JUMP JUMPDEST DUP2 PUSH1 0x7 PUSH0 DUP3 DUP3 SLOAD PUSH2 0xEFD SWAP2 SWAP1 PUSH2 0x36D4 JUMP JUMPDEST SWAP3 POP POP DUP2 SWAP1 SSTORE POP PUSH2 0x1001 JUMP JUMPDEST DUP2 PUSH1 0xF PUSH0 CALLER PUSH20 0xFFFFFFFFFFFFFFFFFFFFFFFFFFFFFFFFFFFFFFFF AND PUSH20 0xFFFFFFFFFFFFFFFFFFFFFFFFFFFFFFFFFFFFFFFF AND DUP2 MSTORE PUSH1 0x20 ADD SWAP1 DUP2 MSTORE PUSH1 0x20 ADD PUSH0 KECCAK256 PUSH1 0x5 ADD PUSH0 DUP3 DUP3 SLOAD PUSH2 0xF58 SWAP2 SWAP1 PUSH2 0x3707 JUMP JUMPDEST SWAP3 POP POP DUP2 SWAP1 SSTORE POP DUP2 PUSH1 0xF PUSH0 PUSH20 0x4B20993BC481177EC7E8F571CECAE8A9E22C02DB PUSH20 0xFFFFFFFFFFFFFFFFFFFFFFFFFFFFFFFFFFFFFFFF AND PUSH20 0xFFFFFFFFFFFFFFFFFFFFFFFFFFFFFFFFFFFFFFFF AND DUP2 MSTORE PUSH1 0x20 ADD SWAP1 DUP2 MSTORE PUSH1 0x20 ADD PUSH0 KECCAK256 PUSH1 0x5 ADD PUSH0 DUP3 DUP3 SLOAD PUSH2 0xFC2 SWAP2 SWAP1 PUSH2 0x36D4 JUMP JUMPDEST SWAP3 POP POP DUP2 SWAP1 SSTORE POP PUSH2 0xFE8 PUSH20 0x4B20993BC481177EC7E8F571CECAE8A9E22C02DB CALLER DUP5 PUSH2 0x250A JUMP JUMPDEST DUP2 PUSH1 0x8 PUSH0 DUP3 DUP3 SLOAD PUSH2 0xFF9 SWAP2 SWAP1 PUSH2 0x36D4 JUMP JUMPDEST SWAP3 POP POP DUP2 SWAP1 SSTORE POP JUMPDEST PUSH1 0xE PUSH0 SWAP1 SLOAD SWAP1 PUSH2 0x100 EXP SWAP1 DIV PUSH20 0xFFFFFFFFFFFFFFFFFFFFFFFFFFFFFFFFFFFFFFFF AND PUSH20 0xFFFFFFFFFFFFFFFFFFFFFFFFFFFFFFFFFFFFFFFF AND PUSH2 0x8FC CALLVALUE SWAP1 DUP2 ISZERO MUL SWAP1 PUSH1 0x40 MLOAD PUSH0 PUSH1 0x40 MLOAD DUP1 DUP4 SUB DUP2 DUP6 DUP9 DUP9 CALL SWAP4 POP POP POP POP ISZERO DUP1 ISZERO PUSH2 0x1065 JUMPI RETURNDATASIZE PUSH0 DUP1 RETURNDATACOPY RETURNDATASIZE PUSH0 REVERT JUMPDEST POP POP POP JUMP JUMPDEST PUSH0 PUSH1 0xC SWAP1 POP SWAP1 JUMP JUMPDEST PUSH0 DUP1 PUSH2 0x107C PUSH2 0x2776 JUMP JUMPDEST SWAP1 POP PUSH2 0x109D DUP2 DUP6 DUP6 PUSH2 0x108E DUP6 DUP10 PUSH2 0x2450 JUMP JUMPDEST PUSH2 0x1098 SWAP2 SWAP1 PUSH2 0x3707 JUMP JUMPDEST PUSH2 0x277D JUMP JUMPDEST PUSH1 0x1 SWAP2 POP POP SWAP3 SWAP2 POP POP JUMP JUMPDEST PUSH0 PUSH20 0xFFFFFFFFFFFFFFFFFFFFFFFFFFFFFFFFFFFFFFFF AND PUSH1 0x10 DUP4 PUSH1 0x40 MLOAD PUSH2 0x10CF SWAP2 SWAP1 PUSH2 0x3890 JUMP JUMPDEST SWAP1 DUP2 MSTORE PUSH1 0x20 ADD PUSH1 0x40 MLOAD DUP1 SWAP2 SUB SWAP1 KECCAK256 PUSH0 SWAP1 SLOAD SWAP1 PUSH2 0x100 EXP SWAP1 DIV PUSH20 0xFFFFFFFFFFFFFFFFFFFFFFFFFFFFFFFFFFFFFFFF AND PUSH20 0xFFFFFFFFFFFFFFFFFFFFFFFFFFFFFFFFFFFFFFFF AND EQ PUSH2 0x1153 JUMPI PUSH1 0x40 MLOAD PUSH32 0x8C379A000000000000000000000000000000000000000000000000000000000 DUP2 MSTORE PUSH1 0x4 ADD PUSH2 0x114A SWAP1 PUSH2 0x393C JUMP JUMPDEST PUSH1 0x40 MLOAD DUP1 SWAP2 SUB SWAP1 REVERT JUMPDEST PUSH0 PUSH20 0xFFFFFFFFFFFFFFFFFFFFFFFFFFFFFFFFFFFFFFFF AND PUSH1 0xF PUSH0 CALLER PUSH20 0xFFFFFFFFFFFFFFFFFFFFFFFFFFFFFFFFFFFFFFFF AND PUSH20 0xFFFFFFFFFFFFFFFFFFFFFFFFFFFFFFFFFFFFFFFF AND DUP2 MSTORE PUSH1 0x20 ADD SWAP1 DUP2 MSTORE PUSH1 0x20 ADD PUSH0 KECCAK256 PUSH1 0x2 ADD PUSH1 0x1 SWAP1 SLOAD SWAP1 PUSH2 0x100 EXP SWAP1 DIV PUSH20 0xFFFFFFFFFFFFFFFFFFFFFFFFFFFFFFFFFFFFFFFF AND PUSH20 0xFFFFFFFFFFFFFFFFFFFFFFFFFFFFFFFFFFFFFFFF AND EQ PUSH2 0x1221 JUMPI PUSH1 0x40 MLOAD PUSH32 0x8C379A000000000000000000000000000000000000000000000000000000000 DUP2 MSTORE PUSH1 0x4 ADD PUSH2 0x1218 SWAP1 PUSH2 0x39F0 JUMP JUMPDEST PUSH1 0x40 MLOAD DUP1 SWAP2 SUB SWAP1 REVERT JUMPDEST PUSH1 0x40 MLOAD DUP1 PUSH1 0xE0 ADD PUSH1 0x40 MSTORE DUP1 PUSH0 ISZERO ISZERO DUP2 MSTORE PUSH1 0x20 ADD DUP4 DUP2 MSTORE PUSH1 0x20 ADD PUSH0 PUSH1 0x3 DUP2 GT ISZERO PUSH2 0x124D JUMPI PUSH2 0x124C PUSH2 0x3019 JUMP JUMPDEST JUMPDEST DUP2 MSTORE PUSH1 0x20 ADD CALLER PUSH20 0xFFFFFFFFFFFFFFFFFFFFFFFFFFFFFFFFFFFFFFFF AND DUP2 MSTORE PUSH1 0x20 ADD PUSH0 DUP2 MSTORE PUSH1 0x20 ADD PUSH0 DUP2 MSTORE PUSH1 0x20 ADD PUSH0 DUP2 MSTORE POP PUSH1 0xF PUSH0 CALLER PUSH20 0xFFFFFFFFFFFFFFFFFFFFFFFFFFFFFFFFFFFFFFFF AND PUSH20 0xFFFFFFFFFFFFFFFFFFFFFFFFFFFFFFFFFFFFFFFF AND DUP2 MSTORE PUSH1 0x20 ADD SWAP1 DUP2 MSTORE PUSH1 0x20 ADD PUSH0 KECCAK256 PUSH0 DUP3 ADD MLOAD DUP2 PUSH0 ADD PUSH0 PUSH2 0x100 EXP DUP2 SLOAD DUP2 PUSH1 0xFF MUL NOT AND SWAP1 DUP4 ISZERO ISZERO MUL OR SWAP1 SSTORE POP PUSH1 0x20 DUP3 ADD MLOAD DUP2 PUSH1 0x1 ADD SWAP1 DUP2 PUSH2 0x12ED SWAP2 SWAP1 PUSH2 0x3BAB JUMP JUMPDEST POP PUSH1 0x40 DUP3 ADD MLOAD DUP2 PUSH1 0x2 ADD PUSH0 PUSH2 0x100 EXP DUP2 SLOAD DUP2 PUSH1 0xFF MUL NOT AND SWAP1 DUP4 PUSH1 0x3 DUP2 GT ISZERO PUSH2 0x1318 JUMPI PUSH2 0x1317 PUSH2 0x3019 JUMP JUMPDEST JUMPDEST MUL OR SWAP1 SSTORE POP PUSH1 0x60 DUP3 ADD MLOAD DUP2 PUSH1 0x2 ADD PUSH1 0x1 PUSH2 0x100 EXP DUP2 SLOAD DUP2 PUSH20 0xFFFFFFFFFFFFFFFFFFFFFFFFFFFFFFFFFFFFFFFF MUL NOT AND SWAP1 DUP4 PUSH20 0xFFFFFFFFFFFFFFFFFFFFFFFFFFFFFFFFFFFFFFFF AND MUL OR SWAP1 SSTORE POP PUSH1 0x80 DUP3 ADD MLOAD DUP2 PUSH1 0x3 ADD SSTORE PUSH1 0xA0 DUP3 ADD MLOAD DUP2 PUSH1 0x4 ADD SSTORE PUSH1 0xC0 DUP3 ADD MLOAD DUP2 PUSH1 0x5 ADD SSTORE SWAP1 POP POP CALLER PUSH1 0x10 DUP4 PUSH1 0x40 MLOAD PUSH2 0x1396 SWAP2 SWAP1 PUSH2 0x3890 JUMP JUMPDEST SWAP1 DUP2 MSTORE PUSH1 0x20 ADD PUSH1 0x40 MLOAD DUP1 SWAP2 SUB SWAP1 KECCAK256 PUSH0 PUSH2 0x100 EXP DUP2 SLOAD DUP2 PUSH20 0xFFFFFFFFFFFFFFFFFFFFFFFFFFFFFFFFFFFFFFFF MUL NOT AND SWAP1 DUP4 PUSH20 0xFFFFFFFFFFFFFFFFFFFFFFFFFFFFFFFFFFFFFFFF AND MUL OR SWAP1 SSTORE POP DUP1 PUSH1 0x40 MLOAD PUSH1 0x20 ADD PUSH2 0x13F2 SWAP2 SWAP1 PUSH2 0x2BA7 JUMP JUMPDEST PUSH1 0x40 MLOAD PUSH1 0x20 DUP2 DUP4 SUB SUB DUP2 MSTORE SWAP1 PUSH1 0x40 MSTORE DUP1 MLOAD SWAP1 PUSH1 0x20 ADD KECCAK256 PUSH1 0x11 PUSH0 CALLER PUSH20 0xFFFFFFFFFFFFFFFFFFFFFFFFFFFFFFFFFFFFFFFF AND PUSH20 0xFFFFFFFFFFFFFFFFFFFFFFFFFFFFFFFFFFFFFFFF AND DUP2 MSTORE PUSH1 0x20 ADD SWAP1 DUP2 MSTORE PUSH1 0x20 ADD PUSH0 KECCAK256 DUP2 SWAP1 SSTORE POP POP POP JUMP JUMPDEST PUSH0 DUP1 PUSH0 SWAP1 POP PUSH2 0x12C PUSH2 0x145D PUSH2 0x24D2 JUMP JUMPDEST LT ISZERO DUP1 ISZERO PUSH2 0x1474 JUMPI POP PUSH2 0x384 PUSH2 0x1471 PUSH2 0x24D2 JUMP JUMPDEST GT ISZERO JUMPDEST ISZERO PUSH2 0x1484 JUMPI PUSH7 0x1AA535D3D0C000 SWAP1 POP JUMPDEST PUSH2 0x384 PUSH2 0x148F PUSH2 0x24D2 JUMP JUMPDEST LT PUSH2 0x149A JUMPI PUSH1 0x9 SLOAD SWAP1 POP JUMPDEST PUSH2 0x14A3 DUP2 PUSH2 0x29CB JUMP JUMPDEST DUP1 SWAP2 POP POP SWAP1 JUMP JUMPDEST PUSH2 0x14B2 PUSH2 0x2AB2 JUMP JUMPDEST PUSH0 PUSH1 0xF PUSH0 CALLER PUSH20 0xFFFFFFFFFFFFFFFFFFFFFFFFFFFFFFFFFFFFFFFF AND PUSH20 0xFFFFFFFFFFFFFFFFFFFFFFFFFFFFFFFFFFFFFFFF AND DUP2 MSTORE PUSH1 0x20 ADD SWAP1 DUP2 MSTORE PUSH1 0x20 ADD PUSH0 KECCAK256 PUSH1 0x1 ADD DUP1 SLOAD PUSH2 0x14FE SWAP1 PUSH2 0x33A1 JUMP JUMPDEST DUP1 PUSH1 0x1F ADD PUSH1 0x20 DUP1 SWAP2 DIV MUL PUSH1 0x20 ADD PUSH1 0x40 MLOAD SWAP1 DUP2 ADD PUSH1 0x40 MSTORE DUP1 SWAP3 SWAP2 SWAP1 DUP2 DUP2 MSTORE PUSH1 0x20 ADD DUP3 DUP1 SLOAD PUSH2 0x152A SWAP1 PUSH2 0x33A1 JUMP JUMPDEST DUP1 ISZERO PUSH2 0x1575 JUMPI DUP1 PUSH1 0x1F LT PUSH2 0x154C JUMPI PUSH2 0x100 DUP1 DUP4 SLOAD DIV MUL DUP4 MSTORE SWAP2 PUSH1 0x20 ADD SWAP2 PUSH2 0x1575 JUMP JUMPDEST DUP3 ADD SWAP2 SWAP1 PUSH0 MSTORE PUSH1 0x20 PUSH0 KECCAK256 SWAP1 JUMPDEST DUP2 SLOAD DUP2 MSTORE SWAP1 PUSH1 0x1 ADD SWAP1 PUSH1 0x20 ADD DUP1 DUP4 GT PUSH2 0x1558 JUMPI DUP3 SWAP1 SUB PUSH1 0x1F AND DUP3 ADD SWAP2 JUMPDEST POP POP POP POP POP SWAP1 POP DUP1 PUSH1 0x40 MLOAD PUSH1 0x20 ADD PUSH2 0x158D SWAP2 SWAP1 PUSH2 0x2BA7 JUMP JUMPDEST PUSH1 0x40 MLOAD PUSH1 0x20 DUP2 DUP4 SUB SUB DUP2 MSTORE SWAP1 PUSH1 0x40 MSTORE DUP1 MLOAD SWAP1 PUSH1 0x20 ADD KECCAK256 DUP5 PUSH1 0x40 MLOAD PUSH1 0x20 ADD PUSH2 0x15B4 SWAP2 SWAP1 PUSH2 0x2BA7 JUMP JUMPDEST PUSH1 0x40 MLOAD PUSH1 0x20 DUP2 DUP4 SUB SUB DUP2 MSTORE SWAP1 PUSH1 0x40 MSTORE DUP1 MLOAD SWAP1 PUSH1 0x20 ADD KECCAK256 EQ PUSH2 0x15D3 JUMPI PUSH0 DUP1 REVERT JUMPDEST PUSH1 0x11 PUSH0 CALLER PUSH20 0xFFFFFFFFFFFFFFFFFFFFFFFFFFFFFFFFFFFFFFFF AND PUSH20 0xFFFFFFFFFFFFFFFFFFFFFFFFFFFFFFFFFFFFFFFF AND DUP2 MSTORE PUSH1 0x20 ADD SWAP1 DUP2 MSTORE PUSH1 0x20 ADD PUSH0 KECCAK256 SLOAD DUP4 PUSH1 0x40 MLOAD PUSH1 0x20 ADD PUSH2 0x1622 SWAP2 SWAP1 PUSH2 0x2BA7 JUMP JUMPDEST PUSH1 0x40 MLOAD PUSH1 0x20 DUP2 DUP4 SUB SUB DUP2 MSTORE SWAP1 PUSH1 0x40 MSTORE DUP1 MLOAD SWAP1 PUSH1 0x20 ADD KECCAK256 EQ PUSH2 0x1641 JUMPI PUSH0 DUP1 REVERT JUMPDEST PUSH1 0xF PUSH0 PUSH1 0x10 DUP7 PUSH1 0x40 MLOAD PUSH2 0x1654 SWAP2 SWAP1 PUSH2 0x3890 JUMP JUMPDEST SWAP1 DUP2 MSTORE PUSH1 0x20 ADD PUSH1 0x40 MLOAD DUP1 SWAP2 SUB SWAP1 KECCAK256 PUSH0 SWAP1 SLOAD SWAP1 PUSH2 0x100 EXP SWAP1 DIV PUSH20 0xFFFFFFFFFFFFFFFFFFFFFFFFFFFFFFFFFFFFFFFF AND PUSH20 0xFFFFFFFFFFFFFFFFFFFFFFFFFFFFFFFFFFFFFFFF AND PUSH20 0xFFFFFFFFFFFFFFFFFFFFFFFFFFFFFFFFFFFFFFFF AND DUP2 MSTORE PUSH1 0x20 ADD SWAP1 DUP2 MSTORE PUSH1 0x20 ADD PUSH0 KECCAK256 PUSH1 0x40 MLOAD DUP1 PUSH1 0xE0 ADD PUSH1 0x40 MSTORE SWAP1 DUP2 PUSH0 DUP3 ADD PUSH0 SWAP1 SLOAD SWAP1 PUSH2 0x100 EXP SWAP1 DIV PUSH1 0xFF AND ISZERO ISZERO ISZERO ISZERO DUP2 MSTORE PUSH1 0x20 ADD PUSH1 0x1 DUP3 ADD DUP1 SLOAD PUSH2 0x16EF SWAP1 PUSH2 0x33A1 JUMP JUMPDEST DUP1 PUSH1 0x1F ADD PUSH1 0x20 DUP1 SWAP2 DIV MUL PUSH1 0x20 ADD PUSH1 0x40 MLOAD SWAP1 DUP2 ADD PUSH1 0x40 MSTORE DUP1 SWAP3 SWAP2 SWAP1 DUP2 DUP2 MSTORE PUSH1 0x20 ADD DUP3 DUP1 SLOAD PUSH2 0x171B SWAP1 PUSH2 0x33A1 JUMP JUMPDEST DUP1 ISZERO PUSH2 0x1766 JUMPI DUP1 PUSH1 0x1F LT PUSH2 0x173D JUMPI PUSH2 0x100 DUP1 DUP4 SLOAD DIV MUL DUP4 MSTORE SWAP2 PUSH1 0x20 ADD SWAP2 PUSH2 0x1766 JUMP JUMPDEST DUP3 ADD SWAP2 SWAP1 PUSH0 MSTORE PUSH1 0x20 PUSH0 KECCAK256 SWAP1 JUMPDEST DUP2 SLOAD DUP2 MSTORE SWAP1 PUSH1 0x1 ADD SWAP1 PUSH1 0x20 ADD DUP1 DUP4 GT PUSH2 0x1749 JUMPI DUP3 SWAP1 SUB PUSH1 0x1F AND DUP3 ADD SWAP2 JUMPDEST POP POP POP POP POP DUP2 MSTORE PUSH1 0x20 ADD PUSH1 0x2 DUP3 ADD PUSH0 SWAP1 SLOAD SWAP1 PUSH2 0x100 EXP SWAP1 DIV PUSH1 0xFF AND PUSH1 0x3 DUP2 GT ISZERO PUSH2 0x1793 JUMPI PUSH2 0x1792 PUSH2 0x3019 JUMP JUMPDEST JUMPDEST PUSH1 0x3 DUP2 GT ISZERO PUSH2 0x17A5 JUMPI PUSH2 0x17A4 PUSH2 0x3019 JUMP JUMPDEST JUMPDEST DUP2 MSTORE PUSH1 0x20 ADD PUSH1 0x2 DUP3 ADD PUSH1 0x1 SWAP1 SLOAD SWAP1 PUSH2 0x100 EXP SWAP1 DIV PUSH20 0xFFFFFFFFFFFFFFFFFFFFFFFFFFFFFFFFFFFFFFFF AND PUSH20 0xFFFFFFFFFFFFFFFFFFFFFFFFFFFFFFFFFFFFFFFF AND PUSH20 0xFFFFFFFFFFFFFFFFFFFFFFFFFFFFFFFFFFFFFFFF AND DUP2 MSTORE PUSH1 0x20 ADD PUSH1 0x3 DUP3 ADD SLOAD DUP2 MSTORE PUSH1 0x20 ADD PUSH1 0x4 DUP3 ADD SLOAD DUP2 MSTORE PUSH1 0x20 ADD PUSH1 0x5 DUP3 ADD SLOAD DUP2 MSTORE POP POP SWAP2 POP POP SWAP3 SWAP2 POP POP JUMP JUMPDEST PUSH1 0x2 DUP1 PUSH1 0x3 DUP2 GT ISZERO PUSH2 0x183B JUMPI PUSH2 0x183A PUSH2 0x3019 JUMP JUMPDEST JUMPDEST PUSH1 0xF PUSH0 CALLER PUSH20 0xFFFFFFFFFFFFFFFFFFFFFFFFFFFFFFFFFFFFFFFF AND PUSH20 0xFFFFFFFFFFFFFFFFFFFFFFFFFFFFFFFFFFFFFFFF AND DUP2 MSTORE PUSH1 0x20 ADD SWAP1 DUP2 MSTORE PUSH1 0x20 ADD PUSH0 KECCAK256 PUSH1 0x2 ADD PUSH0 SWAP1 SLOAD SWAP1 PUSH2 0x100 EXP SWAP1 DIV PUSH1 0xFF AND PUSH1 0x3 DUP2 GT ISZERO PUSH2 0x189A JUMPI PUSH2 0x1899 PUSH2 0x3019 JUMP JUMPDEST JUMPDEST EQ PUSH2 0x18DA JUMPI PUSH1 0x40 MLOAD PUSH32 0x8C379A000000000000000000000000000000000000000000000000000000000 DUP2 MSTORE PUSH1 0x4 ADD PUSH2 0x18D1 SWAP1 PUSH2 0x3D10 JUMP JUMPDEST PUSH1 0x40 MLOAD DUP1 SWAP2 SUB SWAP1 REVERT JUMPDEST PUSH0 DUP4 GT PUSH2 0x191C JUMPI PUSH1 0x40 MLOAD PUSH32 0x8C379A000000000000000000000000000000000000000000000000000000000 DUP2 MSTORE PUSH1 0x4 ADD PUSH2 0x1913 SWAP1 PUSH2 0x3441 JUMP JUMPDEST PUSH1 0x40 MLOAD DUP1 SWAP2 SUB SWAP1 REVERT JUMPDEST PUSH2 0x1927 CALLER DUP4 DUP6 PUSH2 0x250A JUMP JUMPDEST PUSH2 0x192F PUSH2 0x106A JUMP JUMPDEST PUSH1 0xA PUSH2 0x193B SWAP2 SWAP1 PUSH2 0x35BB JUMP JUMPDEST DUP4 PUSH2 0x1946 SWAP2 SWAP1 PUSH2 0x3605 JUMP JUMPDEST PUSH1 0x8 PUSH0 DUP3 DUP3 SLOAD PUSH2 0x1956 SWAP2 SWAP1 PUSH2 0x36D4 JUMP JUMPDEST SWAP3 POP POP DUP2 SWAP1 SSTORE POP POP POP POP JUMP JUMPDEST PUSH1 0x3 DUP1 PUSH1 0x3 DUP2 GT ISZERO PUSH2 0x1977 JUMPI PUSH2 0x1976 PUSH2 0x3019 JUMP JUMPDEST JUMPDEST PUSH1 0xF PUSH0 CALLER PUSH20 0xFFFFFFFFFFFFFFFFFFFFFFFFFFFFFFFFFFFFFFFF AND PUSH20 0xFFFFFFFFFFFFFFFFFFFFFFFFFFFFFFFFFFFFFFFF AND DUP2 MSTORE PUSH1 0x20 ADD SWAP1 DUP2 MSTORE PUSH1 0x20 ADD PUSH0 KECCAK256 PUSH1 0x2 ADD PUSH0 SWAP1 SLOAD SWAP1 PUSH2 0x100 EXP SWAP1 DIV PUSH1 0xFF AND PUSH1 0x3 DUP2 GT ISZERO PUSH2 0x19D6 JUMPI PUSH2 0x19D5 PUSH2 0x3019 JUMP JUMPDEST JUMPDEST EQ PUSH2 0x1A16 JUMPI PUSH1 0x40 MLOAD PUSH32 0x8C379A000000000000000000000000000000000000000000000000000000000 DUP2 MSTORE PUSH1 0x4 ADD PUSH2 0x1A0D SWAP1 PUSH2 0x3D10 JUMP JUMPDEST PUSH1 0x40 MLOAD DUP1 SWAP2 SUB SWAP1 REVERT JUMPDEST PUSH2 0x12C PUSH2 0x1A21 PUSH2 0x24D2 JUMP JUMPDEST GT ISZERO PUSH2 0x1A42 JUMPI PUSH1 0x6 SLOAD PUSH1 0xA PUSH0 DUP3 DUP3 SLOAD PUSH2 0x1A3A SWAP2 SWAP1 PUSH2 0x3707 JUMP JUMPDEST SWAP3 POP POP DUP2 SWAP1 SSTORE POP JUMPDEST PUSH2 0x384 PUSH2 0x1A4D PUSH2 0x24D2 JUMP JUMPDEST GT ISZERO PUSH2 0x1A6E JUMPI PUSH1 0x7 SLOAD PUSH1 0xA PUSH0 DUP3 DUP3 SLOAD PUSH2 0x1A66 SWAP2 SWAP1 PUSH2 0x3707 JUMP JUMPDEST SWAP3 POP POP DUP2 SWAP1 SSTORE POP JUMPDEST POP JUMP JUMPDEST PUSH1 0x3C DUP2 PUSH2 0x1A7E SWAP2 SWAP1 PUSH2 0x3605 JUMP JUMPDEST PUSH1 0xC PUSH0 DUP3 DUP3 SLOAD PUSH2 0x1A8E SWAP2 SWAP1 PUSH2 0x3707 JUMP JUMPDEST SWAP3 POP POP DUP2 SWAP1 SSTORE POP POP JUMP JUMPDEST PUSH0 DUP1 PUSH0 DUP4 PUSH20 0xFFFFFFFFFFFFFFFFFFFFFFFFFFFFFFFFFFFFFFFF AND PUSH20 0xFFFFFFFFFFFFFFFFFFFFFFFFFFFFFFFFFFFFFFFF AND DUP2 MSTORE PUSH1 0x20 ADD SWAP1 DUP2 MSTORE PUSH1 0x20 ADD PUSH0 KECCAK256 SLOAD SWAP1 POP SWAP2 SWAP1 POP JUMP JUMPDEST PUSH1 0x12 PUSH1 0x20 MSTORE DUP1 PUSH0 MSTORE PUSH1 0x40 PUSH0 KECCAK256 PUSH0 SWAP2 POP SWAP1 POP DUP1 PUSH0 ADD DUP1 SLOAD PUSH2 0x1AFC SWAP1 PUSH2 0x33A1 JUMP JUMPDEST DUP1 PUSH1 0x1F ADD PUSH1 0x20 DUP1 SWAP2 DIV MUL PUSH1 0x20 ADD PUSH1 0x40 MLOAD SWAP1 DUP2 ADD PUSH1 0x40 MSTORE DUP1 SWAP3 SWAP2 SWAP1 DUP2 DUP2 MSTORE PUSH1 0x20 ADD DUP3 DUP1 SLOAD PUSH2 0x1B28 SWAP1 PUSH2 0x33A1 JUMP JUMPDEST DUP1 ISZERO PUSH2 0x1B73 JUMPI DUP1 PUSH1 0x1F LT PUSH2 0x1B4A JUMPI PUSH2 0x100 DUP1 DUP4 SLOAD DIV MUL DUP4 MSTORE SWAP2 PUSH1 0x20 ADD SWAP2 PUSH2 0x1B73 JUMP JUMPDEST DUP3 ADD SWAP2 SWAP1 PUSH0 MSTORE PUSH1 0x20 PUSH0 KECCAK256 SWAP1 JUMPDEST DUP2 SLOAD DUP2 MSTORE SWAP1 PUSH1 0x1 ADD SWAP1 PUSH1 0x20 ADD DUP1 DUP4 GT PUSH2 0x1B56 JUMPI DUP3 SWAP1 SUB PUSH1 0x1F AND DUP3 ADD SWAP2 JUMPDEST POP POP POP POP POP SWAP1 DUP1 PUSH1 0x1 ADD PUSH0 SWAP1 SLOAD SWAP1 PUSH2 0x100 EXP SWAP1 DIV PUSH20 0xFFFFFFFFFFFFFFFFFFFFFFFFFFFFFFFFFFFFFFFF AND SWAP1 DUP1 PUSH1 0x1 ADD PUSH1 0x14 SWAP1 SLOAD SWAP1 PUSH2 0x100 EXP SWAP1 DIV PUSH1 0xFF AND SWAP1 POP DUP4 JUMP JUMPDEST PUSH1 0x3 DUP1 PUSH1 0x3 DUP2 GT ISZERO PUSH2 0x1BCA JUMPI PUSH2 0x1BC9 PUSH2 0x3019 JUMP JUMPDEST JUMPDEST PUSH1 0xF PUSH0 CALLER PUSH20 0xFFFFFFFFFFFFFFFFFFFFFFFFFFFFFFFFFFFFFFFF AND PUSH20 0xFFFFFFFFFFFFFFFFFFFFFFFFFFFFFFFFFFFFFFFF AND DUP2 MSTORE PUSH1 0x20 ADD SWAP1 DUP2 MSTORE PUSH1 0x20 ADD PUSH0 KECCAK256 PUSH1 0x2 ADD PUSH0 SWAP1 SLOAD SWAP1 PUSH2 0x100 EXP SWAP1 DIV PUSH1 0xFF AND PUSH1 0x3 DUP2 GT ISZERO PUSH2 0x1C29 JUMPI PUSH2 0x1C28 PUSH2 0x3019 JUMP JUMPDEST JUMPDEST EQ PUSH2 0x1C69 JUMPI PUSH1 0x40 MLOAD PUSH32 0x8C379A000000000000000000000000000000000000000000000000000000000 DUP2 MSTORE PUSH1 0x4 ADD PUSH2 0x1C60 SWAP1 PUSH2 0x3D10 JUMP JUMPDEST PUSH1 0x40 MLOAD DUP1 SWAP2 SUB SWAP1 REVERT JUMPDEST PUSH0 PUSH1 0xA SLOAD GT PUSH2 0x1CAD JUMPI PUSH1 0x40 MLOAD PUSH32 0x8C379A000000000000000000000000000000000000000000000000000000000 DUP2 MSTORE PUSH1 0x4 ADD PUSH2 0x1CA4 SWAP1 PUSH2 0x3D9E JUMP JUMPDEST PUSH1 0x40 MLOAD DUP1 SWAP2 SUB SWAP1 REVERT JUMPDEST PUSH2 0x1CD6 CALLER DUP4 PUSH2 0x1CBA PUSH2 0x106A JUMP JUMPDEST PUSH1 0xA PUSH2 0x1CC6 SWAP2 SWAP1 PUSH2 0x35BB JUMP JUMPDEST DUP7 PUSH2 0x1CD1 SWAP2 SWAP1 PUSH2 0x3605 JUMP JUMPDEST PUSH2 0x250A JUMP JUMPDEST POP POP POP JUMP JUMPDEST PUSH1 0x60 PUSH1 0x4 DUP1 SLOAD PUSH2 0x1CEA SWAP1 PUSH2 0x33A1 JUMP JUMPDEST DUP1 PUSH1 0x1F ADD PUSH1 0x20 DUP1 SWAP2 DIV MUL PUSH1 0x20 ADD PUSH1 0x40 MLOAD SWAP1 DUP2 ADD PUSH1 0x40 MSTORE DUP1 SWAP3 SWAP2 SWAP1 DUP2 DUP2 MSTORE PUSH1 0x20 ADD DUP3 DUP1 SLOAD PUSH2 0x1D16 SWAP1 PUSH2 0x33A1 JUMP JUMPDEST DUP1 ISZERO PUSH2 0x1D61 JUMPI DUP1 PUSH1 0x1F LT PUSH2 0x1D38 JUMPI PUSH2 0x100 DUP1 DUP4 SLOAD DIV MUL DUP4 MSTORE SWAP2 PUSH1 0x20 ADD SWAP2 PUSH2 0x1D61 JUMP JUMPDEST DUP3 ADD SWAP2 SWAP1 PUSH0 MSTORE PUSH1 0x20 PUSH0 KECCAK256 SWAP1 JUMPDEST DUP2 SLOAD DUP2 MSTORE SWAP1 PUSH1 0x1 ADD SWAP1 PUSH1 0x20 ADD DUP1 DUP4 GT PUSH2 0x1D44 JUMPI DUP3 SWAP1 SUB PUSH1 0x1F AND DUP3 ADD SWAP2 JUMPDEST POP POP POP POP POP SWAP1 POP SWAP1 JUMP JUMPDEST PUSH1 0x2 DUP1 PUSH1 0x3 DUP2 GT ISZERO PUSH2 0x1D80 JUMPI PUSH2 0x1D7F PUSH2 0x3019 JUMP JUMPDEST JUMPDEST PUSH1 0xF PUSH0 CALLER PUSH20 0xFFFFFFFFFFFFFFFFFFFFFFFFFFFFFFFFFFFFFFFF AND PUSH20 0xFFFFFFFFFFFFFFFFFFFFFFFFFFFFFFFFFFFFFFFF AND DUP2 MSTORE PUSH1 0x20 ADD SWAP1 DUP2 MSTORE PUSH1 0x20 ADD PUSH0 KECCAK256 PUSH1 0x2 ADD PUSH0 SWAP1 SLOAD SWAP1 PUSH2 0x100 EXP SWAP1 DIV PUSH1 0xFF AND PUSH1 0x3 DUP2 GT ISZERO PUSH2 0x1DDF JUMPI PUSH2 0x1DDE PUSH2 0x3019 JUMP JUMPDEST JUMPDEST EQ PUSH2 0x1E1F JUMPI PUSH1 0x40 MLOAD PUSH32 0x8C379A000000000000000000000000000000000000000000000000000000000 DUP2 MSTORE PUSH1 0x4 ADD PUSH2 0x1E16 SWAP1 PUSH2 0x3D10 JUMP JUMPDEST PUSH1 0x40 MLOAD DUP1 SWAP2 SUB SWAP1 REVERT JUMPDEST DUP2 PUSH1 0x9 DUP2 SWAP1 SSTORE POP POP POP JUMP JUMPDEST PUSH0 DUP1 PUSH2 0x1E34 PUSH2 0x2776 JUMP JUMPDEST SWAP1 POP PUSH0 PUSH2 0x1E41 DUP3 DUP7 PUSH2 0x2450 JUMP JUMPDEST SWAP1 POP DUP4 DUP2 LT ISZERO PUSH2 0x1E86 JUMPI PUSH1 0x40 MLOAD PUSH32 0x8C379A000000000000000000000000000000000000000000000000000000000 DUP2 MSTORE PUSH1 0x4 ADD PUSH2 0x1E7D SWAP1 PUSH2 0x3E2C JUMP JUMPDEST PUSH1 0x40 MLOAD DUP1 SWAP2 SUB SWAP1 REVERT JUMPDEST PUSH2 0x1E93 DUP3 DUP7 DUP7 DUP5 SUB PUSH2 0x277D JUMP JUMPDEST PUSH1 0x1 SWAP3 POP POP POP SWAP3 SWAP2 POP POP JUMP JUMPDEST PUSH0 DUP1 PUSH2 0x1EA9 PUSH2 0x2776 JUMP JUMPDEST SWAP1 POP PUSH2 0x1EB6 DUP2 DUP6 DUP6 PUSH2 0x250A JUMP JUMPDEST PUSH1 0x1 SWAP2 POP POP SWAP3 SWAP2 POP POP JUMP JUMPDEST PUSH1 0x1 DUP1 PUSH1 0x3 DUP2 GT ISZERO PUSH2 0x1ED6 JUMPI PUSH2 0x1ED5 PUSH2 0x3019 JUMP JUMPDEST JUMPDEST PUSH1 0xF PUSH0 CALLER PUSH20 0xFFFFFFFFFFFFFFFFFFFFFFFFFFFFFFFFFFFFFFFF AND PUSH20 0xFFFFFFFFFFFFFFFFFFFFFFFFFFFFFFFFFFFFFFFF AND DUP2 MSTORE PUSH1 0x20 ADD SWAP1 DUP2 MSTORE PUSH1 0x20 ADD PUSH0 KECCAK256 PUSH1 0x2 ADD PUSH0 SWAP1 SLOAD SWAP1 PUSH2 0x100 EXP SWAP1 DIV PUSH1 0xFF AND PUSH1 0x3 DUP2 GT ISZERO PUSH2 0x1F35 JUMPI PUSH2 0x1F34 PUSH2 0x3019 JUMP JUMPDEST JUMPDEST EQ PUSH2 0x1F75 JUMPI PUSH1 0x40 MLOAD PUSH32 0x8C379A000000000000000000000000000000000000000000000000000000000 DUP2 MSTORE PUSH1 0x4 ADD PUSH2 0x1F6C SWAP1 PUSH2 0x3D10 JUMP JUMPDEST PUSH1 0x40 MLOAD DUP1 SWAP2 SUB SWAP1 REVERT JUMPDEST PUSH1 0x2 DUP1 DUP2 GT ISZERO PUSH2 0x1F88 JUMPI PUSH2 0x1F87 PUSH2 0x3019 JUMP JUMPDEST JUMPDEST DUP3 PUSH1 0x2 DUP2 GT ISZERO PUSH2 0x1F9B JUMPI PUSH2 0x1F9A PUSH2 0x3019 JUMP JUMPDEST JUMPDEST SUB PUSH2 0x1FDB JUMPI PUSH1 0x40 MLOAD PUSH32 0x8C379A000000000000000000000000000000000000000000000000000000000 DUP2 MSTORE PUSH1 0x4 ADD PUSH2 0x1FD2 SWAP1 PUSH2 0x3EBA JUMP JUMPDEST PUSH1 0x40 MLOAD DUP1 SWAP2 SUB SWAP1 REVERT JUMPDEST PUSH1 0x1 PUSH1 0x2 DUP2 GT ISZERO PUSH2 0x1FEF JUMPI PUSH2 0x1FEE PUSH2 0x3019 JUMP JUMPDEST JUMPDEST DUP3 PUSH1 0x2 DUP2 GT ISZERO PUSH2 0x2002 JUMPI PUSH2 0x2001 PUSH2 0x3019 JUMP JUMPDEST JUMPDEST SUB PUSH2 0x2063 JUMPI PUSH1 0x1 PUSH1 0xF PUSH0 DUP6 PUSH20 0xFFFFFFFFFFFFFFFFFFFFFFFFFFFFFFFFFFFFFFFF AND PUSH20 0xFFFFFFFFFFFFFFFFFFFFFFFFFFFFFFFFFFFFFFFF AND DUP2 MSTORE PUSH1 0x20 ADD SWAP1 DUP2 MSTORE PUSH1 0x20 ADD PUSH0 KECCAK256 PUSH0 ADD PUSH0 PUSH2 0x100 EXP DUP2 SLOAD DUP2 PUSH1 0xFF MUL NOT AND SWAP1 DUP4 ISZERO ISZERO MUL OR SWAP1 SSTORE POP PUSH2 0x20B4 JUMP JUMPDEST PUSH1 0x12 PUSH0 DUP5 PUSH20 0xFFFFFFFFFFFFFFFFFFFFFFFFFFFFFFFFFFFFFFFF AND PUSH20 0xFFFFFFFFFFFFFFFFFFFFFFFFFFFFFFFFFFFFFFFF AND DUP2 MSTORE PUSH1 0x20 ADD SWAP1 DUP2 MSTORE PUSH1 0x20 ADD PUSH0 KECCAK256 PUSH1 0x1 ADD PUSH1 0x14 PUSH2 0x100 EXP DUP2 SLOAD SWAP1 PUSH1 0xFF MUL NOT AND SWAP1 SSTORE JUMPDEST POP POP POP JUMP JUMPDEST PUSH1 0x3 DUP1 PUSH1 0x3 DUP2 GT ISZERO PUSH2 0x20CE JUMPI PUSH2 0x20CD PUSH2 0x3019 JUMP JUMPDEST JUMPDEST PUSH1 0xF PUSH0 CALLER PUSH20 0xFFFFFFFFFFFFFFFFFFFFFFFFFFFFFFFFFFFFFFFF AND PUSH20 0xFFFFFFFFFFFFFFFFFFFFFFFFFFFFFFFFFFFFFFFF AND DUP2 MSTORE PUSH1 0x20 ADD SWAP1 DUP2 MSTORE PUSH1 0x20 ADD PUSH0 KECCAK256 PUSH1 0x2 ADD PUSH0 SWAP1 SLOAD SWAP1 PUSH2 0x100 EXP SWAP1 DIV PUSH1 0xFF AND PUSH1 0x3 DUP2 GT ISZERO PUSH2 0x212D JUMPI PUSH2 0x212C PUSH2 0x3019 JUMP JUMPDEST JUMPDEST EQ PUSH2 0x216D JUMPI PUSH1 0x40 MLOAD PUSH32 0x8C379A000000000000000000000000000000000000000000000000000000000 DUP2 MSTORE PUSH1 0x4 ADD PUSH2 0x2164 SWAP1 PUSH2 0x3D10 JUMP JUMPDEST PUSH1 0x40 MLOAD DUP1 SWAP2 SUB SWAP1 REVERT JUMPDEST PUSH0 DUP4 GT PUSH2 0x21AF JUMPI PUSH1 0x40 MLOAD PUSH32 0x8C379A000000000000000000000000000000000000000000000000000000000 DUP2 MSTORE PUSH1 0x4 ADD PUSH2 0x21A6 SWAP1 PUSH2 0x3441 JUMP JUMPDEST PUSH1 0x40 MLOAD DUP1 SWAP2 SUB SWAP1 REVERT JUMPDEST PUSH2 0x21BA CALLER DUP4 DUP6 PUSH2 0x250A JUMP JUMPDEST POP POP POP JUMP JUMPDEST PUSH1 0x11 PUSH1 0x20 MSTORE DUP1 PUSH0 MSTORE PUSH1 0x40 PUSH0 KECCAK256 PUSH0 SWAP2 POP SWAP1 POP SLOAD DUP2 JUMP JUMPDEST PUSH1 0xF PUSH2 0x21DE PUSH2 0x24D2 JUMP JUMPDEST GT PUSH2 0x221E JUMPI PUSH1 0x40 MLOAD PUSH32 0x8C379A000000000000000000000000000000000000000000000000000000000 DUP2 MSTORE PUSH1 0x4 ADD PUSH2 0x2215 SWAP1 PUSH2 0x3F48 JUMP JUMPDEST PUSH1 0x40 MLOAD DUP1 SWAP2 SUB SWAP1 REVERT JUMPDEST PUSH1 0xF PUSH0 CALLER PUSH20 0xFFFFFFFFFFFFFFFFFFFFFFFFFFFFFFFFFFFFFFFF AND PUSH20 0xFFFFFFFFFFFFFFFFFFFFFFFFFFFFFFFFFFFFFFFF AND DUP2 MSTORE PUSH1 0x20 ADD SWAP1 DUP2 MSTORE PUSH1 0x20 ADD PUSH0 KECCAK256 PUSH0 ADD PUSH0 SWAP1 SLOAD SWAP1 PUSH2 0x100 EXP SWAP1 DIV PUSH1 0xFF AND ISZERO PUSH2 0x22AA JUMPI PUSH1 0x40 MLOAD PUSH32 0x8C379A000000000000000000000000000000000000000000000000000000000 DUP2 MSTORE PUSH1 0x4 ADD PUSH2 0x22A1 SWAP1 PUSH2 0x3FB0 JUMP JUMPDEST PUSH1 0x40 MLOAD DUP1 SWAP2 SUB SWAP1 REVERT JUMPDEST PUSH0 PUSH20 0xFFFFFFFFFFFFFFFFFFFFFFFFFFFFFFFFFFFFFFFF AND PUSH1 0x12 PUSH0 CALLER PUSH20 0xFFFFFFFFFFFFFFFFFFFFFFFFFFFFFFFFFFFFFFFF AND PUSH20 0xFFFFFFFFFFFFFFFFFFFFFFFFFFFFFFFFFFFFFFFF AND DUP2 MSTORE PUSH1 0x20 ADD SWAP1 DUP2 MSTORE PUSH1 0x20 ADD PUSH0 KECCAK256 PUSH1 0x1 ADD PUSH0 SWAP1 SLOAD SWAP1 PUSH2 0x100 EXP SWAP1 DIV PUSH20 0xFFFFFFFFFFFFFFFFFFFFFFFFFFFFFFFFFFFFFFFF AND PUSH20 0xFFFFFFFFFFFFFFFFFFFFFFFFFFFFFFFFFFFFFFFF AND EQ PUSH2 0x2340 JUMPI PUSH0 DUP1 REVERT JUMPDEST PUSH1 0x40 MLOAD DUP1 PUSH1 0x60 ADD PUSH1 0x40 MSTORE DUP1 DUP3 DUP2 MSTORE PUSH1 0x20 ADD CALLER PUSH20 0xFFFFFFFFFFFFFFFFFFFFFFFFFFFFFFFFFFFFFFFF AND DUP2 MSTORE PUSH1 0x20 ADD PUSH1 0x2 DUP1 DUP2 GT ISZERO PUSH2 0x2380 JUMPI PUSH2 0x237F PUSH2 0x3019 JUMP JUMPDEST JUMPDEST DUP2 MSTORE POP PUSH1 0x12 PUSH0 CALLER PUSH20 0xFFFFFFFFFFFFFFFFFFFFFFFFFFFFFFFFFFFFFFFF AND PUSH20 0xFFFFFFFFFFFFFFFFFFFFFFFFFFFFFFFFFFFFFFFF AND DUP2 MSTORE PUSH1 0x20 ADD SWAP1 DUP2 MSTORE PUSH1 0x20 ADD PUSH0 KECCAK256 PUSH0 DUP3 ADD MLOAD DUP2 PUSH0 ADD SWAP1 DUP2 PUSH2 0x23D3 SWAP2 SWAP1 PUSH2 0x3BAB JUMP JUMPDEST POP PUSH1 0x20 DUP3 ADD MLOAD DUP2 PUSH1 0x1 ADD PUSH0 PUSH2 0x100 EXP DUP2 SLOAD DUP2 PUSH20 0xFFFFFFFFFFFFFFFFFFFFFFFFFFFFFFFFFFFFFFFF MUL NOT AND SWAP1 DUP4 PUSH20 0xFFFFFFFFFFFFFFFFFFFFFFFFFFFFFFFFFFFFFFFF AND MUL OR SWAP1 SSTORE POP PUSH1 0x40 DUP3 ADD MLOAD DUP2 PUSH1 0x1 ADD PUSH1 0x14 PUSH2 0x100 EXP DUP2 SLOAD DUP2 PUSH1 0xFF MUL NOT AND SWAP1 DUP4 PUSH1 0x2 DUP2 GT ISZERO PUSH2 0x2445 JUMPI PUSH2 0x2444 PUSH2 0x3019 JUMP JUMPDEST JUMPDEST MUL OR SWAP1 SSTORE POP SWAP1 POP POP POP JUMP JUMPDEST PUSH0 PUSH1 0x1 PUSH0 DUP5 PUSH20 0xFFFFFFFFFFFFFFFFFFFFFFFFFFFFFFFFFFFFFFFF AND PUSH20 0xFFFFFFFFFFFFFFFFFFFFFFFFFFFFFFFFFFFFFFFF AND DUP2 MSTORE PUSH1 0x20 ADD SWAP1 DUP2 MSTORE PUSH1 0x20 ADD PUSH0 KECCAK256 PUSH0 DUP4 PUSH20 0xFFFFFFFFFFFFFFFFFFFFFFFFFFFFFFFFFFFFFFFF AND PUSH20 0xFFFFFFFFFFFFFFFFFFFFFFFFFFFFFFFFFFFFFFFF AND DUP2 MSTORE PUSH1 0x20 ADD SWAP1 DUP2 MSTORE PUSH1 0x20 ADD PUSH0 KECCAK256 SLOAD SWAP1 POP SWAP3 SWAP2 POP POP JUMP JUMPDEST PUSH0 PUSH1 0xC SLOAD TIMESTAMP PUSH2 0x24E1 SWAP2 SWAP1 PUSH2 0x3707 JUMP JUMPDEST PUSH1 0xD DUP2 SWAP1 SSTORE POP PUSH0 PUSH1 0xB SLOAD PUSH1 0xD SLOAD PUSH2 0x24F8 SWAP2 SWAP1 PUSH2 0x36D4 JUMP JUMPDEST SWAP1 POP PUSH2 0x2503 DUP2 PUSH2 0x29CB JUMP JUMPDEST DUP1 SWAP2 POP POP SWAP1 JUMP JUMPDEST PUSH0 PUSH20 0xFFFFFFFFFFFFFFFFFFFFFFFFFFFFFFFFFFFFFFFF AND DUP4 PUSH20 0xFFFFFFFFFFFFFFFFFFFFFFFFFFFFFFFFFFFFFFFF AND SUB PUSH2 0x2578 JUMPI PUSH1 0x40 MLOAD PUSH32 0x8C379A000000000000000000000000000000000000000000000000000000000 DUP2 MSTORE PUSH1 0x4 ADD PUSH2 0x256F SWAP1 PUSH2 0x403E JUMP JUMPDEST PUSH1 0x40 MLOAD DUP1 SWAP2 SUB SWAP1 REVERT JUMPDEST PUSH0 PUSH20 0xFFFFFFFFFFFFFFFFFFFFFFFFFFFFFFFFFFFFFFFF AND DUP3 PUSH20 0xFFFFFFFFFFFFFFFFFFFFFFFFFFFFFFFFFFFFFFFF AND SUB PUSH2 0x25E6 JUMPI PUSH1 0x40 MLOAD PUSH32 0x8C379A000000000000000000000000000000000000000000000000000000000 DUP2 MSTORE PUSH1 0x4 ADD PUSH2 0x25DD SWAP1 PUSH2 0x40CC JUMP JUMPDEST PUSH1 0x40 MLOAD DUP1 SWAP2 SUB SWAP1 REVERT JUMPDEST PUSH2 0x25F1 DUP4 DUP4 DUP4 PUSH2 0x2A64 JUMP JUMPDEST PUSH0 DUP1 PUSH0 DUP6 PUSH20 0xFFFFFFFFFFFFFFFFFFFFFFFFFFFFFFFFFFFFFFFF AND PUSH20 0xFFFFFFFFFFFFFFFFFFFFFFFFFFFFFFFFFFFFFFFF AND DUP2 MSTORE PUSH1 0x20 ADD SWAP1 DUP2 MSTORE PUSH1 0x20 ADD PUSH0 KECCAK256 SLOAD SWAP1 POP DUP2 DUP2 LT ISZERO PUSH2 0x2674 JUMPI PUSH1 0x40 MLOAD PUSH32 0x8C379A000000000000000000000000000000000000000000000000000000000 DUP2 MSTORE PUSH1 0x4 ADD PUSH2 0x266B SWAP1 PUSH2 0x415A JUMP JUMPDEST PUSH1 0x40 MLOAD DUP1 SWAP2 SUB SWAP1 REVERT JUMPDEST DUP2 DUP2 SUB PUSH0 DUP1 DUP7 PUSH20 0xFFFFFFFFFFFFFFFFFFFFFFFFFFFFFFFFFFFFFFFF AND PUSH20 0xFFFFFFFFFFFFFFFFFFFFFFFFFFFFFFFFFFFFFFFF AND DUP2 MSTORE PUSH1 0x20 ADD SWAP1 DUP2 MSTORE PUSH1 0x20 ADD PUSH0 KECCAK256 DUP2 SWAP1 SSTORE POP DUP2 PUSH0 DUP1 DUP6 PUSH20 0xFFFFFFFFFFFFFFFFFFFFFFFFFFFFFFFFFFFFFFFF AND PUSH20 0xFFFFFFFFFFFFFFFFFFFFFFFFFFFFFFFFFFFFFFFF AND DUP2 MSTORE PUSH1 0x20 ADD SWAP1 DUP2 MSTORE PUSH1 0x20 ADD PUSH0 KECCAK256 PUSH0 DUP3 DUP3 SLOAD ADD SWAP3 POP POP DUP2 SWAP1 SSTORE POP DUP3 PUSH20 0xFFFFFFFFFFFFFFFFFFFFFFFFFFFFFFFFFFFFFFFF AND DUP5 PUSH20 0xFFFFFFFFFFFFFFFFFFFFFFFFFFFFFFFFFFFFFFFF AND PUSH32 0xDDF252AD1BE2C89B69C2B068FC378DAA952BA7F163C4A11628F55A4DF523B3EF DUP5 PUSH1 0x40 MLOAD PUSH2 0x275D SWAP2 SWAP1 PUSH2 0x2D58 JUMP JUMPDEST PUSH1 0x40 MLOAD DUP1 SWAP2 SUB SWAP1 LOG3 PUSH2 0x2770 DUP5 DUP5 DUP5 PUSH2 0x2A69 JUMP JUMPDEST POP POP POP POP JUMP JUMPDEST PUSH0 CALLER SWAP1 POP SWAP1 JUMP JUMPDEST PUSH0 PUSH20 0xFFFFFFFFFFFFFFFFFFFFFFFFFFFFFFFFFFFFFFFF AND DUP4 PUSH20 0xFFFFFFFFFFFFFFFFFFFFFFFFFFFFFFFFFFFFFFFF AND SUB PUSH2 0x27EB JUMPI PUSH1 0x40 MLOAD PUSH32 0x8C379A000000000000000000000000000000000000000000000000000000000 DUP2 MSTORE PUSH1 0x4 ADD PUSH2 0x27E2 SWAP1 PUSH2 0x41E8 JUMP JUMPDEST PUSH1 0x40 MLOAD DUP1 SWAP2 SUB SWAP1 REVERT JUMPDEST PUSH0 PUSH20 0xFFFFFFFFFFFFFFFFFFFFFFFFFFFFFFFFFFFFFFFF AND DUP3 PUSH20 0xFFFFFFFFFFFFFFFFFFFFFFFFFFFFFFFFFFFFFFFF AND SUB PUSH2 0x2859 JUMPI PUSH1 0x40 MLOAD PUSH32 0x8C379A000000000000000000000000000000000000000000000000000000000 DUP2 MSTORE PUSH1 0x4 ADD PUSH2 0x2850 SWAP1 PUSH2 0x4276 JUMP JUMPDEST PUSH1 0x40 MLOAD DUP1 SWAP2 SUB SWAP1 REVERT JUMPDEST DUP1 PUSH1 0x1 PUSH0 DUP6 PUSH20 0xFFFFFFFFFFFFFFFFFFFFFFFFFFFFFFFFFFFFFFFF AND PUSH20 0xFFFFFFFFFFFFFFFFFFFFFFFFFFFFFFFFFFFFFFFF AND DUP2 MSTORE PUSH1 0x20 ADD SWAP1 DUP2 MSTORE PUSH1 0x20 ADD PUSH0 KECCAK256 PUSH0 DUP5 PUSH20 0xFFFFFFFFFFFFFFFFFFFFFFFFFFFFFFFFFFFFFFFF AND PUSH20 0xFFFFFFFFFFFFFFFFFFFFFFFFFFFFFFFFFFFFFFFF AND DUP2 MSTORE PUSH1 0x20 ADD SWAP1 DUP2 MSTORE PUSH1 0x20 ADD PUSH0 KECCAK256 DUP2 SWAP1 SSTORE POP DUP2 PUSH20 0xFFFFFFFFFFFFFFFFFFFFFFFFFFFFFFFFFFFFFFFF AND DUP4 PUSH20 0xFFFFFFFFFFFFFFFFFFFFFFFFFFFFFFFFFFFFFFFF AND PUSH32 0x8C5BE1E5EBEC7D5BD14F71427D1E84F3DD0314C0F7B2291E5B200AC8C7C3B925 DUP4 PUSH1 0x40 MLOAD PUSH2 0x2933 SWAP2 SWAP1 PUSH2 0x2D58 JUMP JUMPDEST PUSH1 0x40 MLOAD DUP1 SWAP2 SUB SWAP1 LOG3 POP POP POP JUMP JUMPDEST PUSH0 PUSH2 0x294B DUP5 DUP5 PUSH2 0x2450 JUMP JUMPDEST SWAP1 POP PUSH32 0xFFFFFFFFFFFFFFFFFFFFFFFFFFFFFFFFFFFFFFFFFFFFFFFFFFFFFFFFFFFFFFFF DUP2 EQ PUSH2 0x29C5 JUMPI DUP2 DUP2 LT ISZERO PUSH2 0x29B7 JUMPI PUSH1 0x40 MLOAD PUSH32 0x8C379A000000000000000000000000000000000000000000000000000000000 DUP2 MSTORE PUSH1 0x4 ADD PUSH2 0x29AE SWAP1 PUSH2 0x42DE JUMP JUMPDEST PUSH1 0x40 MLOAD DUP1 SWAP2 SUB SWAP1 REVERT JUMPDEST PUSH2 0x29C4 DUP5 DUP5 DUP5 DUP5 SUB PUSH2 0x277D JUMP JUMPDEST JUMPDEST POP POP POP POP JUMP JUMPDEST PUSH2 0x2A61 DUP2 PUSH1 0x40 MLOAD PUSH1 0x24 ADD PUSH2 0x29DF SWAP2 SWAP1 PUSH2 0x2D58 JUMP JUMPDEST PUSH1 0x40 MLOAD PUSH1 0x20 DUP2 DUP4 SUB SUB DUP2 MSTORE SWAP1 PUSH1 0x40 MSTORE PUSH32 0xF82C50F100000000000000000000000000000000000000000000000000000000 PUSH28 0xFFFFFFFFFFFFFFFFFFFFFFFFFFFFFFFFFFFFFFFFFFFFFFFFFFFFFFFF NOT AND PUSH1 0x20 DUP3 ADD DUP1 MLOAD PUSH28 0xFFFFFFFFFFFFFFFFFFFFFFFFFFFFFFFFFFFFFFFFFFFFFFFFFFFFFFFF DUP4 DUP2 DUP4 AND OR DUP4 MSTORE POP POP POP POP PUSH2 0x2A6E JUMP JUMPDEST POP JUMP JUMPDEST POP POP POP JUMP JUMPDEST POP POP POP JUMP JUMPDEST PUSH2 0x2A85 DUP2 PUSH2 0x2A7D PUSH2 0x2A88 PUSH2 0x2AA7 JUMP JUMPDEST PUSH4 0xFFFFFFFF AND JUMP JUMPDEST POP JUMP JUMPDEST PUSH0 PUSH11 0x636F6E736F6C652E6C6F67 SWAP1 POP PUSH0 DUP1 DUP4 MLOAD PUSH1 0x20 DUP6 ADD DUP5 GAS STATICCALL POP POP POP JUMP JUMPDEST PUSH2 0x2B13 DUP2 SWAP1 POP SWAP2 SWAP1 POP JUMP JUMPDEST PUSH1 0x40 MLOAD DUP1 PUSH1 0xE0 ADD PUSH1 0x40 MSTORE DUP1 PUSH0 ISZERO ISZERO DUP2 MSTORE PUSH1 0x20 ADD PUSH1 0x60 DUP2 MSTORE PUSH1 0x20 ADD PUSH0 PUSH1 0x3 DUP2 GT ISZERO PUSH2 0x2ADF JUMPI PUSH2 0x2ADE PUSH2 0x3019 JUMP JUMPDEST JUMPDEST DUP2 MSTORE PUSH1 0x20 ADD PUSH0 PUSH20 0xFFFFFFFFFFFFFFFFFFFFFFFFFFFFFFFFFFFFFFFF AND DUP2 MSTORE PUSH1 0x20 ADD PUSH0 DUP2 MSTORE PUSH1 0x20 ADD PUSH0 DUP2 MSTORE PUSH1 0x20 ADD PUSH0 DUP2 MSTORE POP SWAP1 JUMP JUMPDEST PUSH2 0x2B1B PUSH2 0x42FC JUMP JUMPDEST JUMP JUMPDEST PUSH0 DUP2 MLOAD SWAP1 POP SWAP2 SWAP1 POP JUMP JUMPDEST PUSH0 DUP3 DUP3 MSTORE PUSH1 0x20 DUP3 ADD SWAP1 POP SWAP3 SWAP2 POP POP JUMP JUMPDEST PUSH0 JUMPDEST DUP4 DUP2 LT ISZERO PUSH2 0x2B54 JUMPI DUP1 DUP3 ADD MLOAD DUP2 DUP5 ADD MSTORE PUSH1 0x20 DUP2 ADD SWAP1 POP PUSH2 0x2B39 JUMP JUMPDEST PUSH0 DUP5 DUP5 ADD MSTORE POP POP POP POP JUMP JUMPDEST PUSH0 PUSH1 0x1F NOT PUSH1 0x1F DUP4 ADD AND SWAP1 POP SWAP2 SWAP1 POP JUMP JUMPDEST PUSH0 PUSH2 0x2B79 DUP3 PUSH2 0x2B1D JUMP JUMPDEST PUSH2 0x2B83 DUP2 DUP6 PUSH2 0x2B27 JUMP JUMPDEST SWAP4 POP PUSH2 0x2B93 DUP2 DUP6 PUSH1 0x20 DUP7 ADD PUSH2 0x2B37 JUMP JUMPDEST PUSH2 0x2B9C DUP2 PUSH2 0x2B5F JUMP JUMPDEST DUP5 ADD SWAP2 POP POP SWAP3 SWAP2 POP POP JUMP JUMPDEST PUSH0 PUSH1 0x20 DUP3 ADD SWAP1 POP DUP2 DUP2 SUB PUSH0 DUP4 ADD MSTORE PUSH2 0x2BBF DUP2 DUP5 PUSH2 0x2B6F JUMP JUMPDEST SWAP1 POP SWAP3 SWAP2 POP POP JUMP JUMPDEST PUSH0 PUSH1 0x40 MLOAD SWAP1 POP SWAP1 JUMP JUMPDEST PUSH0 DUP1 REVERT JUMPDEST PUSH0 DUP1 REVERT JUMPDEST PUSH0 PUSH20 0xFFFFFFFFFFFFFFFFFFFFFFFFFFFFFFFFFFFFFFFF DUP3 AND SWAP1 POP SWAP2 SWAP1 POP JUMP JUMPDEST PUSH0 PUSH2 0x2C01 DUP3 PUSH2 0x2BD8 JUMP JUMPDEST SWAP1 POP SWAP2 SWAP1 POP JUMP JUMPDEST PUSH2 0x2C11 DUP2 PUSH2 0x2BF7 JUMP JUMPDEST DUP2 EQ PUSH2 0x2C1B JUMPI PUSH0 DUP1 REVERT JUMPDEST POP JUMP JUMPDEST PUSH0 DUP2 CALLDATALOAD SWAP1 POP PUSH2 0x2C2C DUP2 PUSH2 0x2C08 JUMP JUMPDEST SWAP3 SWAP2 POP POP JUMP JUMPDEST PUSH0 DUP2 SWAP1 POP SWAP2 SWAP1 POP JUMP JUMPDEST PUSH2 0x2C44 DUP2 PUSH2 0x2C32 JUMP JUMPDEST DUP2 EQ PUSH2 0x2C4E JUMPI PUSH0 DUP1 REVERT JUMPDEST POP JUMP JUMPDEST PUSH0 DUP2 CALLDATALOAD SWAP1 POP PUSH2 0x2C5F DUP2 PUSH2 0x2C3B JUMP JUMPDEST SWAP3 SWAP2 POP POP JUMP JUMPDEST PUSH1 0x3 DUP2 LT PUSH2 0x2C71 JUMPI PUSH0 DUP1 REVERT JUMPDEST POP JUMP JUMPDEST PUSH0 DUP2 CALLDATALOAD SWAP1 POP PUSH2 0x2C82 DUP2 PUSH2 0x2C65 JUMP JUMPDEST SWAP3 SWAP2 POP POP JUMP JUMPDEST PUSH0 DUP1 PUSH0 PUSH1 0x60 DUP5 DUP7 SUB SLT ISZERO PUSH2 0x2C9F JUMPI PUSH2 0x2C9E PUSH2 0x2BD0 JUMP JUMPDEST JUMPDEST PUSH0 PUSH2 0x2CAC DUP7 DUP3 DUP8 ADD PUSH2 0x2C1E JUMP JUMPDEST SWAP4 POP POP PUSH1 0x20 PUSH2 0x2CBD DUP7 DUP3 DUP8 ADD PUSH2 0x2C51 JUMP JUMPDEST SWAP3 POP POP PUSH1 0x40 PUSH2 0x2CCE DUP7 DUP3 DUP8 ADD PUSH2 0x2C74 JUMP JUMPDEST SWAP2 POP POP SWAP3 POP SWAP3 POP SWAP3 JUMP JUMPDEST PUSH0 DUP1 PUSH1 0x40 DUP4 DUP6 SUB SLT ISZERO PUSH2 0x2CEE JUMPI PUSH2 0x2CED PUSH2 0x2BD0 JUMP JUMPDEST JUMPDEST PUSH0 PUSH2 0x2CFB DUP6 DUP3 DUP7 ADD PUSH2 0x2C1E JUMP JUMPDEST SWAP3 POP POP PUSH1 0x20 PUSH2 0x2D0C DUP6 DUP3 DUP7 ADD PUSH2 0x2C51 JUMP JUMPDEST SWAP2 POP POP SWAP3 POP SWAP3 SWAP1 POP JUMP JUMPDEST PUSH0 DUP2 ISZERO ISZERO SWAP1 POP SWAP2 SWAP1 POP JUMP JUMPDEST PUSH2 0x2D2A DUP2 PUSH2 0x2D16 JUMP JUMPDEST DUP3 MSTORE POP POP JUMP JUMPDEST PUSH0 PUSH1 0x20 DUP3 ADD SWAP1 POP PUSH2 0x2D43 PUSH0 DUP4 ADD DUP5 PUSH2 0x2D21 JUMP JUMPDEST SWAP3 SWAP2 POP POP JUMP JUMPDEST PUSH2 0x2D52 DUP2 PUSH2 0x2C32 JUMP JUMPDEST DUP3 MSTORE POP POP JUMP JUMPDEST PUSH0 PUSH1 0x20 DUP3 ADD SWAP1 POP PUSH2 0x2D6B PUSH0 DUP4 ADD DUP5 PUSH2 0x2D49 JUMP JUMPDEST SWAP3 SWAP2 POP POP JUMP JUMPDEST PUSH0 DUP1 PUSH0 PUSH1 0x60 DUP5 DUP7 SUB SLT ISZERO PUSH2 0x2D88 JUMPI PUSH2 0x2D87 PUSH2 0x2BD0 JUMP JUMPDEST JUMPDEST PUSH0 PUSH2 0x2D95 DUP7 DUP3 DUP8 ADD PUSH2 0x2C1E JUMP JUMPDEST SWAP4 POP POP PUSH1 0x20 PUSH2 0x2DA6 DUP7 DUP3 DUP8 ADD PUSH2 0x2C1E JUMP JUMPDEST SWAP3 POP POP PUSH1 0x40 PUSH2 0x2DB7 DUP7 DUP3 DUP8 ADD PUSH2 0x2C51 JUMP JUMPDEST SWAP2 POP POP SWAP3 POP SWAP3 POP SWAP3 JUMP JUMPDEST PUSH0 PUSH1 0x20 DUP3 DUP5 SUB SLT ISZERO PUSH2 0x2DD6 JUMPI PUSH2 0x2DD5 PUSH2 0x2BD0 JUMP JUMPDEST JUMPDEST PUSH0 PUSH2 0x2DE3 DUP5 DUP3 DUP6 ADD PUSH2 0x2C51 JUMP JUMPDEST SWAP2 POP POP SWAP3 SWAP2 POP POP JUMP JUMPDEST PUSH0 PUSH1 0xFF DUP3 AND SWAP1 POP SWAP2 SWAP1 POP JUMP JUMPDEST PUSH2 0x2E01 DUP2 PUSH2 0x2DEC JUMP JUMPDEST DUP3 MSTORE POP POP JUMP JUMPDEST PUSH0 PUSH1 0x20 DUP3 ADD SWAP1 POP PUSH2 0x2E1A PUSH0 DUP4 ADD DUP5 PUSH2 0x2DF8 JUMP JUMPDEST SWAP3 SWAP2 POP POP JUMP JUMPDEST PUSH0 DUP1 REVERT JUMPDEST PUSH0 DUP1 REVERT JUMPDEST PUSH32 0x4E487B7100000000000000000000000000000000000000000000000000000000 PUSH0 MSTORE PUSH1 0x41 PUSH1 0x4 MSTORE PUSH1 0x24 PUSH0 REVERT JUMPDEST PUSH2 0x2E5E DUP3 PUSH2 0x2B5F JUMP JUMPDEST DUP2 ADD DUP2 DUP2 LT PUSH8 0xFFFFFFFFFFFFFFFF DUP3 GT OR ISZERO PUSH2 0x2E7D JUMPI PUSH2 0x2E7C PUSH2 0x2E28 JUMP JUMPDEST JUMPDEST DUP1 PUSH1 0x40 MSTORE POP POP POP JUMP JUMPDEST PUSH0 PUSH2 0x2E8F PUSH2 0x2BC7 JUMP JUMPDEST SWAP1 POP PUSH2 0x2E9B DUP3 DUP3 PUSH2 0x2E55 JUMP JUMPDEST SWAP2 SWAP1 POP JUMP JUMPDEST PUSH0 PUSH8 0xFFFFFFFFFFFFFFFF DUP3 GT ISZERO PUSH2 0x2EBA JUMPI PUSH2 0x2EB9 PUSH2 0x2E28 JUMP JUMPDEST JUMPDEST PUSH2 0x2EC3 DUP3 PUSH2 0x2B5F JUMP JUMPDEST SWAP1 POP PUSH1 0x20 DUP2 ADD SWAP1 POP SWAP2 SWAP1 POP JUMP JUMPDEST DUP3 DUP2 DUP4 CALLDATACOPY PUSH0 DUP4 DUP4 ADD MSTORE POP POP POP JUMP JUMPDEST PUSH0 PUSH2 0x2EF0 PUSH2 0x2EEB DUP5 PUSH2 0x2EA0 JUMP JUMPDEST PUSH2 0x2E86 JUMP JUMPDEST SWAP1 POP DUP3 DUP2 MSTORE PUSH1 0x20 DUP2 ADD DUP5 DUP5 DUP5 ADD GT ISZERO PUSH2 0x2F0C JUMPI PUSH2 0x2F0B PUSH2 0x2E24 JUMP JUMPDEST JUMPDEST PUSH2 0x2F17 DUP5 DUP3 DUP6 PUSH2 0x2ED0 JUMP JUMPDEST POP SWAP4 SWAP3 POP POP POP JUMP JUMPDEST PUSH0 DUP3 PUSH1 0x1F DUP4 ADD SLT PUSH2 0x2F33 JUMPI PUSH2 0x2F32 PUSH2 0x2E20 JUMP JUMPDEST JUMPDEST DUP2 CALLDATALOAD PUSH2 0x2F43 DUP5 DUP3 PUSH1 0x20 DUP7 ADD PUSH2 0x2EDE JUMP JUMPDEST SWAP2 POP POP SWAP3 SWAP2 POP POP JUMP JUMPDEST PUSH0 DUP1 PUSH1 0x40 DUP4 DUP6 SUB SLT ISZERO PUSH2 0x2F62 JUMPI PUSH2 0x2F61 PUSH2 0x2BD0 JUMP JUMPDEST JUMPDEST PUSH0 DUP4 ADD CALLDATALOAD PUSH8 0xFFFFFFFFFFFFFFFF DUP2 GT ISZERO PUSH2 0x2F7F JUMPI PUSH2 0x2F7E PUSH2 0x2BD4 JUMP JUMPDEST JUMPDEST PUSH2 0x2F8B DUP6 DUP3 DUP7 ADD PUSH2 0x2F1F JUMP JUMPDEST SWAP3 POP POP PUSH1 0x20 DUP4 ADD CALLDATALOAD PUSH8 0xFFFFFFFFFFFFFFFF DUP2 GT ISZERO PUSH2 0x2FAC JUMPI PUSH2 0x2FAB PUSH2 0x2BD4 JUMP JUMPDEST JUMPDEST PUSH2 0x2FB8 DUP6 DUP3 DUP7 ADD PUSH2 0x2F1F JUMP JUMPDEST SWAP2 POP POP SWAP3 POP SWAP3 SWAP1 POP JUMP JUMPDEST PUSH2 0x2FCB DUP2 PUSH2 0x2D16 JUMP JUMPDEST DUP3 MSTORE POP POP JUMP JUMPDEST PUSH0 DUP3 DUP3 MSTORE PUSH1 0x20 DUP3 ADD SWAP1 POP SWAP3 SWAP2 POP POP JUMP JUMPDEST PUSH0 PUSH2 0x2FEB DUP3 PUSH2 0x2B1D JUMP JUMPDEST PUSH2 0x2FF5 DUP2 DUP6 PUSH2 0x2FD1 JUMP JUMPDEST SWAP4 POP PUSH2 0x3005 DUP2 DUP6 PUSH1 0x20 DUP7 ADD PUSH2 0x2B37 JUMP JUMPDEST PUSH2 0x300E DUP2 PUSH2 0x2B5F JUMP JUMPDEST DUP5 ADD SWAP2 POP POP SWAP3 SWAP2 POP POP JUMP JUMPDEST PUSH32 0x4E487B7100000000000000000000000000000000000000000000000000000000 PUSH0 MSTORE PUSH1 0x21 PUSH1 0x4 MSTORE PUSH1 0x24 PUSH0 REVERT JUMPDEST PUSH1 0x4 DUP2 LT PUSH2 0x3057 JUMPI PUSH2 0x3056 PUSH2 0x3019 JUMP JUMPDEST JUMPDEST POP JUMP JUMPDEST PUSH0 DUP2 SWAP1 POP PUSH2 0x3067 DUP3 PUSH2 0x3046 JUMP JUMPDEST SWAP2 SWAP1 POP JUMP JUMPDEST PUSH0 PUSH2 0x3076 DUP3 PUSH2 0x305A JUMP JUMPDEST SWAP1 POP SWAP2 SWAP1 POP JUMP JUMPDEST PUSH2 0x3086 DUP2 PUSH2 0x306C JUMP JUMPDEST DUP3 MSTORE POP POP JUMP JUMPDEST PUSH2 0x3095 DUP2 PUSH2 0x2BF7 JUMP JUMPDEST DUP3 MSTORE POP POP JUMP JUMPDEST PUSH2 0x30A4 DUP2 PUSH2 0x2C32 JUMP JUMPDEST DUP3 MSTORE POP POP JUMP JUMPDEST PUSH0 PUSH1 0xE0 DUP4 ADD PUSH0 DUP4 ADD MLOAD PUSH2 0x30BF PUSH0 DUP7 ADD DUP3 PUSH2 0x2FC2 JUMP JUMPDEST POP PUSH1 0x20 DUP4 ADD MLOAD DUP5 DUP3 SUB PUSH1 0x20 DUP7 ADD MSTORE PUSH2 0x30D7 DUP3 DUP3 PUSH2 0x2FE1 JUMP JUMPDEST SWAP2 POP POP PUSH1 0x40 DUP4 ADD MLOAD PUSH2 0x30EC PUSH1 0x40 DUP7 ADD DUP3 PUSH2 0x307D JUMP JUMPDEST POP PUSH1 0x60 DUP4 ADD MLOAD PUSH2 0x30FF PUSH1 0x60 DUP7 ADD DUP3 PUSH2 0x308C JUMP JUMPDEST POP PUSH1 0x80 DUP4 ADD MLOAD PUSH2 0x3112 PUSH1 0x80 DUP7 ADD DUP3 PUSH2 0x309B JUMP JUMPDEST POP PUSH1 0xA0 DUP4 ADD MLOAD PUSH2 0x3125 PUSH1 0xA0 DUP7 ADD DUP3 PUSH2 0x309B JUMP JUMPDEST POP PUSH1 0xC0 DUP4 ADD MLOAD PUSH2 0x3138 PUSH1 0xC0 DUP7 ADD DUP3 PUSH2 0x309B JUMP JUMPDEST POP DUP1 SWAP2 POP POP SWAP3 SWAP2 POP POP JUMP JUMPDEST PUSH0 PUSH1 0x20 DUP3 ADD SWAP1 POP DUP2 DUP2 SUB PUSH0 DUP4 ADD MSTORE PUSH2 0x315B DUP2 DUP5 PUSH2 0x30AA JUMP JUMPDEST SWAP1 POP SWAP3 SWAP2 POP POP JUMP JUMPDEST PUSH0 DUP1 PUSH1 0x40 DUP4 DUP6 SUB SLT ISZERO PUSH2 0x3179 JUMPI PUSH2 0x3178 PUSH2 0x2BD0 JUMP JUMPDEST JUMPDEST PUSH0 PUSH2 0x3186 DUP6 DUP3 DUP7 ADD PUSH2 0x2C51 JUMP JUMPDEST SWAP3 POP POP PUSH1 0x20 PUSH2 0x3197 DUP6 DUP3 DUP7 ADD PUSH2 0x2C1E JUMP JUMPDEST SWAP2 POP POP SWAP3 POP SWAP3 SWAP1 POP JUMP JUMPDEST PUSH0 PUSH1 0x20 DUP3 DUP5 SUB SLT ISZERO PUSH2 0x31B6 JUMPI PUSH2 0x31B5 PUSH2 0x2BD0 JUMP JUMPDEST JUMPDEST PUSH0 PUSH2 0x31C3 DUP5 DUP3 DUP6 ADD PUSH2 0x2C1E JUMP JUMPDEST SWAP2 POP POP SWAP3 SWAP2 POP POP JUMP JUMPDEST PUSH2 0x31D5 DUP2 PUSH2 0x2BF7 JUMP JUMPDEST DUP3 MSTORE POP POP JUMP JUMPDEST PUSH1 0x3 DUP2 LT PUSH2 0x31EC JUMPI PUSH2 0x31EB PUSH2 0x3019 JUMP JUMPDEST JUMPDEST POP JUMP JUMPDEST PUSH0 DUP2 SWAP1 POP PUSH2 0x31FC DUP3 PUSH2 0x31DB JUMP JUMPDEST SWAP2 SWAP1 POP JUMP JUMPDEST PUSH0 PUSH2 0x320B DUP3 PUSH2 0x31EF JUMP JUMPDEST SWAP1 POP SWAP2 SWAP1 POP JUMP JUMPDEST PUSH2 0x321B DUP2 PUSH2 0x3201 JUMP JUMPDEST DUP3 MSTORE POP POP JUMP JUMPDEST PUSH0 PUSH1 0x60 DUP3 ADD SWAP1 POP DUP2 DUP2 SUB PUSH0 DUP4 ADD MSTORE PUSH2 0x3239 DUP2 DUP7 PUSH2 0x2B6F JUMP JUMPDEST SWAP1 POP PUSH2 0x3248 PUSH1 0x20 DUP4 ADD DUP6 PUSH2 0x31CC JUMP JUMPDEST PUSH2 0x3255 PUSH1 0x40 DUP4 ADD DUP5 PUSH2 0x3212 JUMP JUMPDEST SWAP5 SWAP4 POP POP POP POP JUMP JUMPDEST PUSH1 0x3 DUP2 LT PUSH2 0x3269 JUMPI PUSH0 DUP1 REVERT JUMPDEST POP JUMP JUMPDEST PUSH0 DUP2 CALLDATALOAD SWAP1 POP PUSH2 0x327A DUP2 PUSH2 0x325D JUMP JUMPDEST SWAP3 SWAP2 POP POP JUMP JUMPDEST PUSH0 DUP1 PUSH1 0x40 DUP4 DUP6 SUB SLT ISZERO PUSH2 0x3296 JUMPI PUSH2 0x3295 PUSH2 0x2BD0 JUMP JUMPDEST JUMPDEST PUSH0 PUSH2 0x32A3 DUP6 DUP3 DUP7 ADD PUSH2 0x2C1E JUMP JUMPDEST SWAP3 POP POP PUSH1 0x20 PUSH2 0x32B4 DUP6 DUP3 DUP7 ADD PUSH2 0x326C JUMP JUMPDEST SWAP2 POP POP SWAP3 POP SWAP3 SWAP1 POP JUMP JUMPDEST PUSH0 DUP2 SWAP1 POP SWAP2 SWAP1 POP JUMP JUMPDEST PUSH2 0x32D0 DUP2 PUSH2 0x32BE JUMP JUMPDEST DUP3 MSTORE POP POP JUMP JUMPDEST PUSH0 PUSH1 0x20 DUP3 ADD SWAP1 POP PUSH2 0x32E9 PUSH0 DUP4 ADD DUP5 PUSH2 0x32C7 JUMP JUMPDEST SWAP3 SWAP2 POP POP JUMP JUMPDEST PUSH0 PUSH1 0x20 DUP3 DUP5 SUB SLT ISZERO PUSH2 0x3304 JUMPI PUSH2 0x3303 PUSH2 0x2BD0 JUMP JUMPDEST JUMPDEST PUSH0 DUP3 ADD CALLDATALOAD PUSH8 0xFFFFFFFFFFFFFFFF DUP2 GT ISZERO PUSH2 0x3321 JUMPI PUSH2 0x3320 PUSH2 0x2BD4 JUMP JUMPDEST JUMPDEST PUSH2 0x332D DUP5 DUP3 DUP6 ADD PUSH2 0x2F1F JUMP JUMPDEST SWAP2 POP POP SWAP3 SWAP2 POP POP JUMP JUMPDEST PUSH0 DUP1 PUSH1 0x40 DUP4 DUP6 SUB SLT ISZERO PUSH2 0x334C JUMPI PUSH2 0x334B PUSH2 0x2BD0 JUMP JUMPDEST JUMPDEST PUSH0 PUSH2 0x3359 DUP6 DUP3 DUP7 ADD PUSH2 0x2C1E JUMP JUMPDEST SWAP3 POP POP PUSH1 0x20 PUSH2 0x336A DUP6 DUP3 DUP7 ADD PUSH2 0x2C1E JUMP JUMPDEST SWAP2 POP POP SWAP3 POP SWAP3 SWAP1 POP JUMP JUMPDEST PUSH32 0x4E487B7100000000000000000000000000000000000000000000000000000000 PUSH0 MSTORE PUSH1 0x22 PUSH1 0x4 MSTORE PUSH1 0x24 PUSH0 REVERT JUMPDEST PUSH0 PUSH1 0x2 DUP3 DIV SWAP1 POP PUSH1 0x1 DUP3 AND DUP1 PUSH2 0x33B8 JUMPI PUSH1 0x7F DUP3 AND SWAP2 POP JUMPDEST PUSH1 0x20 DUP3 LT DUP2 SUB PUSH2 0x33CB JUMPI PUSH2 0x33CA PUSH2 0x3374 JUMP JUMPDEST JUMPDEST POP SWAP2 SWAP1 POP JUMP JUMPDEST PUSH32 0xD09AD0BED0BB2DD0B2D0BE20D0BDD0B520D0BCD0BED0B6D0B5D18220D0B1D18B PUSH0 DUP3 ADD MSTORE PUSH32 0xD182D18C203020D0B8D0BBD0B820D0BCD0B5D0BDD18CD188D0B5203000000000 PUSH1 0x20 DUP3 ADD MSTORE POP JUMP JUMPDEST PUSH0 PUSH2 0x342B PUSH1 0x3C DUP4 PUSH2 0x2B27 JUMP JUMPDEST SWAP2 POP PUSH2 0x3436 DUP3 PUSH2 0x33D1 JUMP JUMPDEST PUSH1 0x40 DUP3 ADD SWAP1 POP SWAP2 SWAP1 POP JUMP JUMPDEST PUSH0 PUSH1 0x20 DUP3 ADD SWAP1 POP DUP2 DUP2 SUB PUSH0 DUP4 ADD MSTORE PUSH2 0x3458 DUP2 PUSH2 0x341F JUMP JUMPDEST SWAP1 POP SWAP2 SWAP1 POP JUMP JUMPDEST PUSH32 0x4E487B7100000000000000000000000000000000000000000000000000000000 PUSH0 MSTORE PUSH1 0x11 PUSH1 0x4 MSTORE PUSH1 0x24 PUSH0 REVERT JUMPDEST PUSH0 DUP2 PUSH1 0x1 SHR SWAP1 POP SWAP2 SWAP1 POP JUMP JUMPDEST PUSH0 DUP1 DUP3 SWAP2 POP DUP4 SWAP1 POP JUMPDEST PUSH1 0x1 DUP6 GT ISZERO PUSH2 0x34E1 JUMPI DUP1 DUP7 DIV DUP2 GT ISZERO PUSH2 0x34BD JUMPI PUSH2 0x34BC PUSH2 0x345F JUMP JUMPDEST JUMPDEST PUSH1 0x1 DUP6 AND ISZERO PUSH2 0x34CC JUMPI DUP1 DUP3 MUL SWAP2 POP JUMPDEST DUP1 DUP2 MUL SWAP1 POP PUSH2 0x34DA DUP6 PUSH2 0x348C JUMP JUMPDEST SWAP5 POP PUSH2 0x34A1 JUMP JUMPDEST SWAP5 POP SWAP5 SWAP3 POP POP POP JUMP JUMPDEST PUSH0 DUP3 PUSH2 0x34F9 JUMPI PUSH1 0x1 SWAP1 POP PUSH2 0x35B4 JUMP JUMPDEST DUP2 PUSH2 0x3506 JUMPI PUSH0 SWAP1 POP PUSH2 0x35B4 JUMP JUMPDEST DUP2 PUSH1 0x1 DUP2 EQ PUSH2 0x351C JUMPI PUSH1 0x2 DUP2 EQ PUSH2 0x3526 JUMPI PUSH2 0x3555 JUMP JUMPDEST PUSH1 0x1 SWAP2 POP POP PUSH2 0x35B4 JUMP JUMPDEST PUSH1 0xFF DUP5 GT ISZERO PUSH2 0x3538 JUMPI PUSH2 0x3537 PUSH2 0x345F JUMP JUMPDEST JUMPDEST DUP4 PUSH1 0x2 EXP SWAP2 POP DUP5 DUP3 GT ISZERO PUSH2 0x354F JUMPI PUSH2 0x354E PUSH2 0x345F JUMP JUMPDEST JUMPDEST POP PUSH2 0x35B4 JUMP JUMPDEST POP PUSH1 0x20 DUP4 LT PUSH2 0x133 DUP4 LT AND PUSH1 0x4E DUP5 LT PUSH1 0xB DUP5 LT AND OR ISZERO PUSH2 0x358A JUMPI DUP3 DUP3 EXP SWAP1 POP DUP4 DUP2 GT ISZERO PUSH2 0x3585 JUMPI PUSH2 0x3584 PUSH2 0x345F JUMP JUMPDEST JUMPDEST PUSH2 0x35B4 JUMP JUMPDEST PUSH2 0x3597 DUP5 DUP5 DUP5 PUSH1 0x1 PUSH2 0x3498 JUMP JUMPDEST SWAP3 POP SWAP1 POP DUP2 DUP5 DIV DUP2 GT ISZERO PUSH2 0x35AE JUMPI PUSH2 0x35AD PUSH2 0x345F JUMP JUMPDEST JUMPDEST DUP2 DUP2 MUL SWAP1 POP JUMPDEST SWAP4 SWAP3 POP POP POP JUMP JUMPDEST PUSH0 PUSH2 0x35C5 DUP3 PUSH2 0x2C32 JUMP JUMPDEST SWAP2 POP PUSH2 0x35D0 DUP4 PUSH2 0x2DEC JUMP JUMPDEST SWAP3 POP PUSH2 0x35FD PUSH32 0xFFFFFFFFFFFFFFFFFFFFFFFFFFFFFFFFFFFFFFFFFFFFFFFFFFFFFFFFFFFFFFFF DUP5 DUP5 PUSH2 0x34EA JUMP JUMPDEST SWAP1 POP SWAP3 SWAP2 POP POP JUMP JUMPDEST PUSH0 PUSH2 0x360F DUP3 PUSH2 0x2C32 JUMP JUMPDEST SWAP2 POP PUSH2 0x361A DUP4 PUSH2 0x2C32 JUMP JUMPDEST SWAP3 POP DUP3 DUP3 MUL PUSH2 0x3628 DUP2 PUSH2 0x2C32 JUMP JUMPDEST SWAP2 POP DUP3 DUP3 DIV DUP5 EQ DUP4 ISZERO OR PUSH2 0x363F JUMPI PUSH2 0x363E PUSH2 0x345F JUMP JUMPDEST JUMPDEST POP SWAP3 SWAP2 POP POP JUMP JUMPDEST PUSH32 0xD0A320D0B2D0B0D18120D0BDD0B5D0B4D0BED181D182D0B0D182D0BED187D0BD PUSH0 DUP3 ADD MSTORE PUSH32 0xD0BE20D182D0BED0BAD0B5D0BDD0BED0B2000000000000000000000000000000 PUSH1 0x20 DUP3 ADD MSTORE POP JUMP JUMPDEST PUSH0 PUSH2 0x36A0 PUSH1 0x31 DUP4 PUSH2 0x2B27 JUMP JUMPDEST SWAP2 POP PUSH2 0x36AB DUP3 PUSH2 0x3646 JUMP JUMPDEST PUSH1 0x40 DUP3 ADD SWAP1 POP SWAP2 SWAP1 POP JUMP JUMPDEST PUSH0 PUSH1 0x20 DUP3 ADD SWAP1 POP DUP2 DUP2 SUB PUSH0 DUP4 ADD MSTORE PUSH2 0x36CD DUP2 PUSH2 0x3694 JUMP JUMPDEST SWAP1 POP SWAP2 SWAP1 POP JUMP JUMPDEST PUSH0 PUSH2 0x36DE DUP3 PUSH2 0x2C32 JUMP JUMPDEST SWAP2 POP PUSH2 0x36E9 DUP4 PUSH2 0x2C32 JUMP JUMPDEST SWAP3 POP DUP3 DUP3 SUB SWAP1 POP DUP2 DUP2 GT ISZERO PUSH2 0x3701 JUMPI PUSH2 0x3700 PUSH2 0x345F JUMP JUMPDEST JUMPDEST SWAP3 SWAP2 POP POP JUMP JUMPDEST PUSH0 PUSH2 0x3711 DUP3 PUSH2 0x2C32 JUMP JUMPDEST SWAP2 POP PUSH2 0x371C DUP4 PUSH2 0x2C32 JUMP JUMPDEST SWAP3 POP DUP3 DUP3 ADD SWAP1 POP DUP1 DUP3 GT ISZERO PUSH2 0x3734 JUMPI PUSH2 0x3733 PUSH2 0x345F JUMP JUMPDEST JUMPDEST SWAP3 SWAP2 POP POP JUMP JUMPDEST PUSH32 0xD098D0B4D191D18220D0BFD0BED0B4D0B3D0BED182D0BED0B2D0B8D182D0B5D0 PUSH0 DUP3 ADD MSTORE PUSH32 0xBBD18CD0BDD0B0D18F20D184D0B0D0B7D0B00000000000000000000000000000 PUSH1 0x20 DUP3 ADD MSTORE POP JUMP JUMPDEST PUSH0 PUSH2 0x3794 PUSH1 0x32 DUP4 PUSH2 0x2B27 JUMP JUMPDEST SWAP2 POP PUSH2 0x379F DUP3 PUSH2 0x373A JUMP JUMPDEST PUSH1 0x40 DUP3 ADD SWAP1 POP SWAP2 SWAP1 POP JUMP JUMPDEST PUSH0 PUSH1 0x20 DUP3 ADD SWAP1 POP DUP2 DUP2 SUB PUSH0 DUP4 ADD MSTORE PUSH2 0x37C1 DUP2 PUSH2 0x3788 JUMP JUMPDEST SWAP1 POP SWAP2 SWAP1 POP JUMP JUMPDEST PUSH32 0xD0A2D0BED0BAD0B5D0BDD18B20D0B7D0B0D0BAD0BED0BDD187D0B8D0BBD0B8D1 PUSH0 DUP3 ADD MSTORE PUSH32 0x81D18C0000000000000000000000000000000000000000000000000000000000 PUSH1 0x20 DUP3 ADD MSTORE POP JUMP JUMPDEST PUSH0 PUSH2 0x3822 PUSH1 0x23 DUP4 PUSH2 0x2B27 JUMP JUMPDEST SWAP2 POP PUSH2 0x382D DUP3 PUSH2 0x37C8 JUMP JUMPDEST PUSH1 0x40 DUP3 ADD SWAP1 POP SWAP2 SWAP1 POP JUMP JUMPDEST PUSH0 PUSH1 0x20 DUP3 ADD SWAP1 POP DUP2 DUP2 SUB PUSH0 DUP4 ADD MSTORE PUSH2 0x384F DUP2 PUSH2 0x3816 JUMP JUMPDEST SWAP1 POP SWAP2 SWAP1 POP JUMP JUMPDEST PUSH0 DUP2 SWAP1 POP SWAP3 SWAP2 POP POP JUMP JUMPDEST PUSH0 PUSH2 0x386A DUP3 PUSH2 0x2B1D JUMP JUMPDEST PUSH2 0x3874 DUP2 DUP6 PUSH2 0x3856 JUMP JUMPDEST SWAP4 POP PUSH2 0x3884 DUP2 DUP6 PUSH1 0x20 DUP7 ADD PUSH2 0x2B37 JUMP JUMPDEST DUP1 DUP5 ADD SWAP2 POP POP SWAP3 SWAP2 POP POP JUMP JUMPDEST PUSH0 PUSH2 0x389B DUP3 DUP5 PUSH2 0x3860 JUMP JUMPDEST SWAP2 POP DUP2 SWAP1 POP SWAP3 SWAP2 POP POP JUMP JUMPDEST PUSH32 0xD09FD0BED0BBD18CD0B7D0BED0B2D0B0D182D0B5D0BBD18C20D18120D182D0B0 PUSH0 DUP3 ADD MSTORE PUSH32 0xD0BAD0B8D0BC20D0BBD0BED0B3D0B8D0BDD0BED0BC20D183D0B6D0B520D181D1 PUSH1 0x20 DUP3 ADD MSTORE PUSH32 0x83D189D0B5D181D182D0B2D183D0B5D182000000000000000000000000000000 PUSH1 0x40 DUP3 ADD MSTORE POP JUMP JUMPDEST PUSH0 PUSH2 0x3926 PUSH1 0x51 DUP4 PUSH2 0x2B27 JUMP JUMPDEST SWAP2 POP PUSH2 0x3931 DUP3 PUSH2 0x38A6 JUMP JUMPDEST PUSH1 0x60 DUP3 ADD SWAP1 POP SWAP2 SWAP1 POP JUMP JUMPDEST PUSH0 PUSH1 0x20 DUP3 ADD SWAP1 POP DUP2 DUP2 SUB PUSH0 DUP4 ADD MSTORE PUSH2 0x3953 DUP2 PUSH2 0x391A JUMP JUMPDEST SWAP1 POP SWAP2 SWAP1 POP JUMP JUMPDEST PUSH32 0xD09FD0BED0BBD18CD0B7D0BED0B2D0B0D182D0B5D0BBD18C20D18120D182D0B0 PUSH0 DUP3 ADD MSTORE PUSH32 0xD0BAD0B8D0BC20D0B0D0B4D180D0B5D181D0BED0BC20D183D0B6D0B520D181D1 PUSH1 0x20 DUP3 ADD MSTORE PUSH32 0x83D189D0B5D181D182D0B2D183D0B5D182000000000000000000000000000000 PUSH1 0x40 DUP3 ADD MSTORE POP JUMP JUMPDEST PUSH0 PUSH2 0x39DA PUSH1 0x51 DUP4 PUSH2 0x2B27 JUMP JUMPDEST SWAP2 POP PUSH2 0x39E5 DUP3 PUSH2 0x395A JUMP JUMPDEST PUSH1 0x60 DUP3 ADD SWAP1 POP SWAP2 SWAP1 POP JUMP JUMPDEST PUSH0 PUSH1 0x20 DUP3 ADD SWAP1 POP DUP2 DUP2 SUB PUSH0 DUP4 ADD MSTORE PUSH2 0x3A07 DUP2 PUSH2 0x39CE JUMP JUMPDEST SWAP1 POP SWAP2 SWAP1 POP JUMP JUMPDEST PUSH0 DUP2 SWAP1 POP DUP2 PUSH0 MSTORE PUSH1 0x20 PUSH0 KECCAK256 SWAP1 POP SWAP2 SWAP1 POP JUMP JUMPDEST PUSH0 PUSH1 0x20 PUSH1 0x1F DUP4 ADD DIV SWAP1 POP SWAP2 SWAP1 POP JUMP JUMPDEST PUSH0 DUP3 DUP3 SHL SWAP1 POP SWAP3 SWAP2 POP POP JUMP JUMPDEST PUSH0 PUSH1 0x8 DUP4 MUL PUSH2 0x3A6A PUSH32 0xFFFFFFFFFFFFFFFFFFFFFFFFFFFFFFFFFFFFFFFFFFFFFFFFFFFFFFFFFFFFFFFF DUP3 PUSH2 0x3A2F JUMP JUMPDEST PUSH2 0x3A74 DUP7 DUP4 PUSH2 0x3A2F JUMP JUMPDEST SWAP6 POP DUP1 NOT DUP5 AND SWAP4 POP DUP1 DUP7 AND DUP5 OR SWAP3 POP POP POP SWAP4 SWAP3 POP POP POP JUMP JUMPDEST PUSH0 DUP2 SWAP1 POP SWAP2 SWAP1 POP JUMP JUMPDEST PUSH0 PUSH2 0x3AAF PUSH2 0x3AAA PUSH2 0x3AA5 DUP5 PUSH2 0x2C32 JUMP JUMPDEST PUSH2 0x3A8C JUMP JUMPDEST PUSH2 0x2C32 JUMP JUMPDEST SWAP1 POP SWAP2 SWAP1 POP JUMP JUMPDEST PUSH0 DUP2 SWAP1 POP SWAP2 SWAP1 POP JUMP JUMPDEST PUSH2 0x3AC8 DUP4 PUSH2 0x3A95 JUMP JUMPDEST PUSH2 0x3ADC PUSH2 0x3AD4 DUP3 PUSH2 0x3AB6 JUMP JUMPDEST DUP5 DUP5 SLOAD PUSH2 0x3A3B JUMP JUMPDEST DUP3 SSTORE POP POP POP POP JUMP JUMPDEST PUSH0 SWAP1 JUMP JUMPDEST PUSH2 0x3AF0 PUSH2 0x3AE4 JUMP JUMPDEST PUSH2 0x3AFB DUP2 DUP5 DUP5 PUSH2 0x3ABF JUMP JUMPDEST POP POP POP JUMP JUMPDEST JUMPDEST DUP2 DUP2 LT ISZERO PUSH2 0x3B1E JUMPI PUSH2 0x3B13 PUSH0 DUP3 PUSH2 0x3AE8 JUMP JUMPDEST PUSH1 0x1 DUP2 ADD SWAP1 POP PUSH2 0x3B01 JUMP JUMPDEST POP POP JUMP JUMPDEST PUSH1 0x1F DUP3 GT ISZERO PUSH2 0x3B63 JUMPI PUSH2 0x3B34 DUP2 PUSH2 0x3A0E JUMP JUMPDEST PUSH2 0x3B3D DUP5 PUSH2 0x3A20 JUMP JUMPDEST DUP2 ADD PUSH1 0x20 DUP6 LT ISZERO PUSH2 0x3B4C JUMPI DUP2 SWAP1 POP JUMPDEST PUSH2 0x3B60 PUSH2 0x3B58 DUP6 PUSH2 0x3A20 JUMP JUMPDEST DUP4 ADD DUP3 PUSH2 0x3B00 JUMP JUMPDEST POP POP JUMPDEST POP POP POP JUMP JUMPDEST PUSH0 DUP3 DUP3 SHR SWAP1 POP SWAP3 SWAP2 POP POP JUMP JUMPDEST PUSH0 PUSH2 0x3B83 PUSH0 NOT DUP5 PUSH1 0x8 MUL PUSH2 0x3B68 JUMP JUMPDEST NOT DUP1 DUP4 AND SWAP2 POP POP SWAP3 SWAP2 POP POP JUMP JUMPDEST PUSH0 PUSH2 0x3B9B DUP4 DUP4 PUSH2 0x3B74 JUMP JUMPDEST SWAP2 POP DUP3 PUSH1 0x2 MUL DUP3 OR SWAP1 POP SWAP3 SWAP2 POP POP JUMP JUMPDEST PUSH2 0x3BB4 DUP3 PUSH2 0x2B1D JUMP JUMPDEST PUSH8 0xFFFFFFFFFFFFFFFF DUP2 GT ISZERO PUSH2 0x3BCD JUMPI PUSH2 0x3BCC PUSH2 0x2E28 JUMP JUMPDEST JUMPDEST PUSH2 0x3BD7 DUP3 SLOAD PUSH2 0x33A1 JUMP JUMPDEST PUSH2 0x3BE2 DUP3 DUP3 DUP6 PUSH2 0x3B22 JUMP JUMPDEST PUSH0 PUSH1 0x20 SWAP1 POP PUSH1 0x1F DUP4 GT PUSH1 0x1 DUP2 EQ PUSH2 0x3C13 JUMPI PUSH0 DUP5 ISZERO PUSH2 0x3C01 JUMPI DUP3 DUP8 ADD MLOAD SWAP1 POP JUMPDEST PUSH2 0x3C0B DUP6 DUP3 PUSH2 0x3B90 JUMP JUMPDEST DUP7 SSTORE POP PUSH2 0x3C72 JUMP JUMPDEST PUSH1 0x1F NOT DUP5 AND PUSH2 0x3C21 DUP7 PUSH2 0x3A0E JUMP JUMPDEST PUSH0 JUMPDEST DUP3 DUP2 LT ISZERO PUSH2 0x3C48 JUMPI DUP5 DUP10 ADD MLOAD DUP3 SSTORE PUSH1 0x1 DUP3 ADD SWAP2 POP PUSH1 0x20 DUP6 ADD SWAP5 POP PUSH1 0x20 DUP2 ADD SWAP1 POP PUSH2 0x3C23 JUMP JUMPDEST DUP7 DUP4 LT ISZERO PUSH2 0x3C65 JUMPI DUP5 DUP10 ADD MLOAD PUSH2 0x3C61 PUSH1 0x1F DUP10 AND DUP3 PUSH2 0x3B74 JUMP JUMPDEST DUP4 SSTORE POP JUMPDEST PUSH1 0x1 PUSH1 0x2 DUP9 MUL ADD DUP9 SSTORE POP POP POP JUMPDEST POP POP POP POP POP POP JUMP JUMPDEST PUSH32 0xD092D0B0D188D0B020D180D0BED0BBD18C20D0BDD0B520D0BFD0BED0B7D0B2D0 PUSH0 DUP3 ADD MSTORE PUSH32 0xBED0BBD18FD0B5D18220D18DD182D0BE20D0B8D181D0BFD0BED0BBD18CD0B7D0 PUSH1 0x20 DUP3 ADD MSTORE PUSH32 0xBED0B2D0B0D182D18C0000000000000000000000000000000000000000000000 PUSH1 0x40 DUP3 ADD MSTORE POP JUMP JUMPDEST PUSH0 PUSH2 0x3CFA PUSH1 0x49 DUP4 PUSH2 0x2B27 JUMP JUMPDEST SWAP2 POP PUSH2 0x3D05 DUP3 PUSH2 0x3C7A JUMP JUMPDEST PUSH1 0x60 DUP3 ADD SWAP1 POP SWAP2 SWAP1 POP JUMP JUMPDEST PUSH0 PUSH1 0x20 DUP3 ADD SWAP1 POP DUP2 DUP2 SUB PUSH0 DUP4 ADD MSTORE PUSH2 0x3D27 DUP2 PUSH2 0x3CEE JUMP JUMPDEST SWAP1 POP SWAP2 SWAP1 POP JUMP JUMPDEST PUSH32 0xD0A320D0B2D0B0D18120D0BDD0B5D18220D0BED181D182D0B0D182D0BED187D0 PUSH0 DUP3 ADD MSTORE PUSH32 0xBDD18BD18520D0BAD0BED0B8D0BDD0BED0B20000000000000000000000000000 PUSH1 0x20 DUP3 ADD MSTORE POP JUMP JUMPDEST PUSH0 PUSH2 0x3D88 PUSH1 0x32 DUP4 PUSH2 0x2B27 JUMP JUMPDEST SWAP2 POP PUSH2 0x3D93 DUP3 PUSH2 0x3D2E JUMP JUMPDEST PUSH1 0x40 DUP3 ADD SWAP1 POP SWAP2 SWAP1 POP JUMP JUMPDEST PUSH0 PUSH1 0x20 DUP3 ADD SWAP1 POP DUP2 DUP2 SUB PUSH0 DUP4 ADD MSTORE PUSH2 0x3DB5 DUP2 PUSH2 0x3D7C JUMP JUMPDEST SWAP1 POP SWAP2 SWAP1 POP JUMP JUMPDEST PUSH32 0x45524332303A2064656372656173656420616C6C6F77616E63652062656C6F77 PUSH0 DUP3 ADD MSTORE PUSH32 0x207A65726F000000000000000000000000000000000000000000000000000000 PUSH1 0x20 DUP3 ADD MSTORE POP JUMP JUMPDEST PUSH0 PUSH2 0x3E16 PUSH1 0x25 DUP4 PUSH2 0x2B27 JUMP JUMPDEST SWAP2 POP PUSH2 0x3E21 DUP3 PUSH2 0x3DBC JUMP JUMPDEST PUSH1 0x40 DUP3 ADD SWAP1 POP SWAP2 SWAP1 POP JUMP JUMPDEST PUSH0 PUSH1 0x20 DUP3 ADD SWAP1 POP DUP2 DUP2 SUB PUSH0 DUP4 ADD MSTORE PUSH2 0x3E43 DUP2 PUSH2 0x3E0A JUMP JUMPDEST SWAP1 POP SWAP2 SWAP1 POP JUMP JUMPDEST PUSH32 0xD0A3D0BAD0B0D0B6D0B8D182D0B520416363657074656420D0B8D0BBD0B82044 PUSH0 DUP3 ADD MSTORE PUSH32 0x656E696564000000000000000000000000000000000000000000000000000000 PUSH1 0x20 DUP3 ADD MSTORE POP JUMP JUMPDEST PUSH0 PUSH2 0x3EA4 PUSH1 0x25 DUP4 PUSH2 0x2B27 JUMP JUMPDEST SWAP2 POP PUSH2 0x3EAF DUP3 PUSH2 0x3E4A JUMP JUMPDEST PUSH1 0x40 DUP3 ADD SWAP1 POP SWAP2 SWAP1 POP JUMP JUMPDEST PUSH0 PUSH1 0x20 DUP3 ADD SWAP1 POP DUP2 DUP2 SUB PUSH0 DUP4 ADD MSTORE PUSH2 0x3ED1 DUP2 PUSH2 0x3E98 JUMP JUMPDEST SWAP1 POP SWAP2 SWAP1 POP JUMP JUMPDEST PUSH32 0xD09FD180D0B8D0B2D0B0D182D0BDD0B0D18F20D184D0B0D0B7D0B020D0B7D0B0 PUSH0 DUP3 ADD MSTORE PUSH32 0xD0BAD0BED0BDD187D0B8D0BBD0B0D181D18C0000000000000000000000000000 PUSH1 0x20 DUP3 ADD MSTORE POP JUMP JUMPDEST PUSH0 PUSH2 0x3F32 PUSH1 0x32 DUP4 PUSH2 0x2B27 JUMP JUMPDEST SWAP2 POP PUSH2 0x3F3D DUP3 PUSH2 0x3ED8 JUMP JUMPDEST PUSH1 0x40 DUP3 ADD SWAP1 POP SWAP2 SWAP1 POP JUMP JUMPDEST PUSH0 PUSH1 0x20 DUP3 ADD SWAP1 POP DUP2 DUP2 SUB PUSH0 DUP4 ADD MSTORE PUSH2 0x3F5F DUP2 PUSH2 0x3F26 JUMP JUMPDEST SWAP1 POP SWAP2 SWAP1 POP JUMP JUMPDEST PUSH32 0xD092D18B20D183D0B6D0B520D0B220776869746520D0BBD0B8D181D182D0B500 PUSH0 DUP3 ADD MSTORE POP JUMP JUMPDEST PUSH0 PUSH2 0x3F9A PUSH1 0x1F DUP4 PUSH2 0x2B27 JUMP JUMPDEST SWAP2 POP PUSH2 0x3FA5 DUP3 PUSH2 0x3F66 JUMP JUMPDEST PUSH1 0x20 DUP3 ADD SWAP1 POP SWAP2 SWAP1 POP JUMP JUMPDEST PUSH0 PUSH1 0x20 DUP3 ADD SWAP1 POP DUP2 DUP2 SUB PUSH0 DUP4 ADD MSTORE PUSH2 0x3FC7 DUP2 PUSH2 0x3F8E JUMP JUMPDEST SWAP1 POP SWAP2 SWAP1 POP JUMP JUMPDEST PUSH32 0x45524332303A207472616E736665722066726F6D20746865207A65726F206164 PUSH0 DUP3 ADD MSTORE PUSH32 0x6472657373000000000000000000000000000000000000000000000000000000 PUSH1 0x20 DUP3 ADD MSTORE POP JUMP JUMPDEST PUSH0 PUSH2 0x4028 PUSH1 0x25 DUP4 PUSH2 0x2B27 JUMP JUMPDEST SWAP2 POP PUSH2 0x4033 DUP3 PUSH2 0x3FCE JUMP JUMPDEST PUSH1 0x40 DUP3 ADD SWAP1 POP SWAP2 SWAP1 POP JUMP JUMPDEST PUSH0 PUSH1 0x20 DUP3 ADD SWAP1 POP DUP2 DUP2 SUB PUSH0 DUP4 ADD MSTORE PUSH2 0x4055 DUP2 PUSH2 0x401C JUMP JUMPDEST SWAP1 POP SWAP2 SWAP1 POP JUMP JUMPDEST PUSH32 0x45524332303A207472616E7366657220746F20746865207A65726F2061646472 PUSH0 DUP3 ADD MSTORE PUSH32 0x6573730000000000000000000000000000000000000000000000000000000000 PUSH1 0x20 DUP3 ADD MSTORE POP JUMP JUMPDEST PUSH0 PUSH2 0x40B6 PUSH1 0x23 DUP4 PUSH2 0x2B27 JUMP JUMPDEST SWAP2 POP PUSH2 0x40C1 DUP3 PUSH2 0x405C JUMP JUMPDEST PUSH1 0x40 DUP3 ADD SWAP1 POP SWAP2 SWAP1 POP JUMP JUMPDEST PUSH0 PUSH1 0x20 DUP3 ADD SWAP1 POP DUP2 DUP2 SUB PUSH0 DUP4 ADD MSTORE PUSH2 0x40E3 DUP2 PUSH2 0x40AA JUMP JUMPDEST SWAP1 POP SWAP2 SWAP1 POP JUMP JUMPDEST PUSH32 0x45524332303A207472616E7366657220616D6F756E7420657863656564732062 PUSH0 DUP3 ADD MSTORE PUSH32 0x616C616E63650000000000000000000000000000000000000000000000000000 PUSH1 0x20 DUP3 ADD MSTORE POP JUMP JUMPDEST PUSH0 PUSH2 0x4144 PUSH1 0x26 DUP4 PUSH2 0x2B27 JUMP JUMPDEST SWAP2 POP PUSH2 0x414F DUP3 PUSH2 0x40EA JUMP JUMPDEST PUSH1 0x40 DUP3 ADD SWAP1 POP SWAP2 SWAP1 POP JUMP JUMPDEST PUSH0 PUSH1 0x20 DUP3 ADD SWAP1 POP DUP2 DUP2 SUB PUSH0 DUP4 ADD MSTORE PUSH2 0x4171 DUP2 PUSH2 0x4138 JUMP JUMPDEST SWAP1 POP SWAP2 SWAP1 POP JUMP JUMPDEST PUSH32 0x45524332303A20617070726F76652066726F6D20746865207A65726F20616464 PUSH0 DUP3 ADD MSTORE PUSH32 0x7265737300000000000000000000000000000000000000000000000000000000 PUSH1 0x20 DUP3 ADD MSTORE POP JUMP JUMPDEST PUSH0 PUSH2 0x41D2 PUSH1 0x24 DUP4 PUSH2 0x2B27 JUMP JUMPDEST SWAP2 POP PUSH2 0x41DD DUP3 PUSH2 0x4178 JUMP JUMPDEST PUSH1 0x40 DUP3 ADD SWAP1 POP SWAP2 SWAP1 POP JUMP JUMPDEST PUSH0 PUSH1 0x20 DUP3 ADD SWAP1 POP DUP2 DUP2 SUB PUSH0 DUP4 ADD MSTORE PUSH2 0x41FF DUP2 PUSH2 0x41C6 JUMP JUMPDEST SWAP1 POP SWAP2 SWAP1 POP JUMP JUMPDEST PUSH32 0x45524332303A20617070726F766520746F20746865207A65726F206164647265 PUSH0 DUP3 ADD MSTORE PUSH32 0x7373000000000000000000000000000000000000000000000000000000000000 PUSH1 0x20 DUP3 ADD MSTORE POP JUMP JUMPDEST PUSH0 PUSH2 0x4260 PUSH1 0x22 DUP4 PUSH2 0x2B27 JUMP JUMPDEST SWAP2 POP PUSH2 0x426B DUP3 PUSH2 0x4206 JUMP JUMPDEST PUSH1 0x40 DUP3 ADD SWAP1 POP SWAP2 SWAP1 POP JUMP JUMPDEST PUSH0 PUSH1 0x20 DUP3 ADD SWAP1 POP DUP2 DUP2 SUB PUSH0 DUP4 ADD MSTORE PUSH2 0x428D DUP2 PUSH2 0x4254 JUMP JUMPDEST SWAP1 POP SWAP2 SWAP1 POP JUMP JUMPDEST PUSH32 0x45524332303A20696E73756666696369656E7420616C6C6F77616E6365000000 PUSH0 DUP3 ADD MSTORE POP JUMP JUMPDEST PUSH0 PUSH2 0x42C8 PUSH1 0x1D DUP4 PUSH2 0x2B27 JUMP JUMPDEST SWAP2 POP PUSH2 0x42D3 DUP3 PUSH2 0x4294 JUMP JUMPDEST PUSH1 0x20 DUP3 ADD SWAP1 POP SWAP2 SWAP1 POP JUMP JUMPDEST PUSH0 PUSH1 0x20 DUP3 ADD SWAP1 POP DUP2 DUP2 SUB PUSH0 DUP4 ADD MSTORE PUSH2 0x42F5 DUP2 PUSH2 0x42BC JUMP JUMPDEST SWAP1 POP SWAP2 SWAP1 POP JUMP JUMPDEST PUSH32 0x4E487B7100000000000000000000000000000000000000000000000000000000 PUSH0 MSTORE PUSH1 0x51 PUSH1 0x4 MSTORE PUSH1 0x24 PUSH0 REVERT INVALID LOG2 PUSH5 0x6970667358 0x22 SLT KECCAK256 PUSH8 0x1B04AEC25C052D2C SWAP8 0xCD DUP9 CREATE2 DUP8 MULMOD PUSH26 0xD83EDF244D5D21459435BD2C716414AA64736F6C634300081500 CALLER "
		},
		"gasEstimates": {
			"creation": {
				"codeDepositCost": "3449400",
				"executionCost": "infinite",
				"totalCost": "infinite"
			},
			"external": {
				"allowance(address,address)": "infinite",
				"approve(address,uint256)": "infinite",
				"approveWhiteList(address,uint8)": "27490",
				"balanceOf(address)": "2897",
				"buyToken(uint256)": "infinite",
				"changePublicPrice(uint256)": "24912",
				"checkTime()": "infinite",
				"decimals()": "384",
				"decreaseAllowance(address,uint256)": "infinite",
				"getTokenPrice()": "infinite",
				"giveCoinsFromOwner(uint256,address)": "infinite",
				"increaseAllowance(address,uint256)": "infinite",
				"login(string,string)": "infinite",
				"makePrivateReq(string)": "infinite",
				"name()": "infinite",
				"passwords(address)": "2846",
				"payReward(uint256,address)": "infinite",
				"registration(string,string)": "infinite",
				"requests(address)": "infinite",
				"sendToken(address,uint256,uint8)": "infinite",
				"sendTokensToProvier(uint256,address)": "infinite",
				"skipTime(uint256)": "infinite",
				"symbol()": "infinite",
				"totalSupply()": "2522",
				"transfer(address,uint256)": "infinite",
				"transferFrom(address,address,uint256)": "infinite",
				"updateLeftBalOwner()": "infinite"
			}
		},
		"methodIdentifiers": {
			"allowance(address,address)": "dd62ed3e",
			"approve(address,uint256)": "095ea7b3",
			"approveWhiteList(address,uint8)": "afe3e906",
			"balanceOf(address)": "70a08231",
			"buyToken(uint256)": "2d296bf1",
			"changePublicPrice(uint256)": "9d7e8d5f",
			"checkTime()": "e0c6190d",
			"decimals()": "313ce567",
			"decreaseAllowance(address,uint256)": "a457c2d7",
			"getTokenPrice()": "4b94f50e",
			"giveCoinsFromOwner(uint256,address)": "896e8cb1",
			"increaseAllowance(address,uint256)": "39509351",
			"login(string,string)": "58467dbc",
			"makePrivateReq(string)": "db8fb88e",
			"name()": "06fdde03",
			"passwords(address)": "da0d37e6",
			"payReward(uint256,address)": "6515d6c1",
			"registration(string,string)": "48419dc8",
			"requests(address)": "74adad1d",
			"sendToken(address,uint256,uint8)": "0737c6b6",
			"sendTokensToProvier(uint256,address)": "c4a91d56",
			"skipTime(uint256)": "6dfa00fe",
			"symbol()": "95d89b41",
			"totalSupply()": "18160ddd",
			"transfer(address,uint256)": "a9059cbb",
			"transferFrom(address,address,uint256)": "23b872dd",
			"updateLeftBalOwner()": "67198042"
		}
	},
	"abi": [
		{
			"inputs": [],
			"stateMutability": "nonpayable",
			"type": "constructor"
		},
		{
			"anonymous": false,
			"inputs": [
				{
					"indexed": true,
					"internalType": "address",
					"name": "owner",
					"type": "address"
				},
				{
					"indexed": true,
					"internalType": "address",
					"name": "spender",
					"type": "address"
				},
				{
					"indexed": false,
					"internalType": "uint256",
					"name": "value",
					"type": "uint256"
				}
			],
			"name": "Approval",
			"type": "event"
		},
		{
			"anonymous": false,
			"inputs": [
				{
					"indexed": true,
					"internalType": "address",
					"name": "from",
					"type": "address"
				},
				{
					"indexed": true,
					"internalType": "address",
					"name": "to",
					"type": "address"
				},
				{
					"indexed": false,
					"internalType": "uint256",
					"name": "value",
					"type": "uint256"
				}
			],
			"name": "Transfer",
			"type": "event"
		},
		{
			"inputs": [
				{
					"internalType": "address",
					"name": "owner",
					"type": "address"
				},
				{
					"internalType": "address",
					"name": "spender",
					"type": "address"
				}
			],
			"name": "allowance",
			"outputs": [
				{
					"internalType": "uint256",
					"name": "",
					"type": "uint256"
				}
			],
			"stateMutability": "view",
			"type": "function"
		},
		{
			"inputs": [
				{
					"internalType": "address",
					"name": "spender",
					"type": "address"
				},
				{
					"internalType": "uint256",
					"name": "amount",
					"type": "uint256"
				}
			],
			"name": "approve",
			"outputs": [
				{
					"internalType": "bool",
					"name": "",
					"type": "bool"
				}
			],
			"stateMutability": "nonpayable",
			"type": "function"
		},
		{
			"inputs": [
				{
					"internalType": "address",
					"name": "_user",
					"type": "address"
				},
				{
					"internalType": "enum CryptoMonster.ReqStatus",
					"name": "_status",
					"type": "uint8"
				}
			],
			"name": "approveWhiteList",
			"outputs": [],
			"stateMutability": "nonpayable",
			"type": "function"
		},
		{
			"inputs": [
				{
					"internalType": "address",
					"name": "account",
					"type": "address"
				}
			],
			"name": "balanceOf",
			"outputs": [
				{
					"internalType": "uint256",
					"name": "",
					"type": "uint256"
				}
			],
			"stateMutability": "view",
			"type": "function"
		},
		{
			"inputs": [
				{
					"internalType": "uint256",
					"name": "_amount",
					"type": "uint256"
				}
			],
			"name": "buyToken",
			"outputs": [],
			"stateMutability": "payable",
			"type": "function"
		},
		{
			"inputs": [
				{
					"internalType": "uint256",
					"name": "_newPrice",
					"type": "uint256"
				}
			],
			"name": "changePublicPrice",
			"outputs": [],
			"stateMutability": "nonpayable",
			"type": "function"
		},
		{
			"inputs": [],
			"name": "checkTime",
			"outputs": [
				{
					"internalType": "uint256",
					"name": "",
					"type": "uint256"
				}
			],
			"stateMutability": "nonpayable",
			"type": "function"
		},
		{
			"inputs": [],
			"name": "decimals",
			"outputs": [
				{
					"internalType": "uint8",
					"name": "",
					"type": "uint8"
				}
			],
			"stateMutability": "pure",
			"type": "function"
		},
		{
			"inputs": [
				{
					"internalType": "address",
					"name": "spender",
					"type": "address"
				},
				{
					"internalType": "uint256",
					"name": "subtractedValue",
					"type": "uint256"
				}
			],
			"name": "decreaseAllowance",
			"outputs": [
				{
					"internalType": "bool",
					"name": "",
					"type": "bool"
				}
			],
			"stateMutability": "nonpayable",
			"type": "function"
		},
		{
			"inputs": [],
			"name": "getTokenPrice",
			"outputs": [
				{
					"internalType": "uint256",
					"name": "",
					"type": "uint256"
				}
			],
			"stateMutability": "nonpayable",
			"type": "function"
		},
		{
			"inputs": [
				{
					"internalType": "uint256",
					"name": "_amount",
					"type": "uint256"
				},
				{
					"internalType": "address",
					"name": "_user",
					"type": "address"
				}
			],
			"name": "giveCoinsFromOwner",
			"outputs": [],
			"stateMutability": "nonpayable",
			"type": "function"
		},
		{
			"inputs": [
				{
					"internalType": "address",
					"name": "spender",
					"type": "address"
				},
				{
					"internalType": "uint256",
					"name": "addedValue",
					"type": "uint256"
				}
			],
			"name": "increaseAllowance",
			"outputs": [
				{
					"internalType": "bool",
					"name": "",
					"type": "bool"
				}
			],
			"stateMutability": "nonpayable",
			"type": "function"
		},
		{
			"inputs": [
				{
					"internalType": "string",
					"name": "_login",
					"type": "string"
				},
				{
					"internalType": "string",
					"name": "_password",
					"type": "string"
				}
			],
			"name": "login",
			"outputs": [
				{
					"components": [
						{
							"internalType": "bool",
							"name": "whiteList",
							"type": "bool"
						},
						{
							"internalType": "string",
							"name": "login",
							"type": "string"
						},
						{
							"internalType": "enum CryptoMonster.Role",
							"name": "role",
							"type": "uint8"
						},
						{
							"internalType": "address",
							"name": "wallet",
							"type": "address"
						},
						{
							"internalType": "uint256",
							"name": "seedBal",
							"type": "uint256"
						},
						{
							"internalType": "uint256",
							"name": "privateBal",
							"type": "uint256"
						},
						{
							"internalType": "uint256",
							"name": "publicBal",
							"type": "uint256"
						}
					],
					"internalType": "struct CryptoMonster.User",
					"name": "",
					"type": "tuple"
				}
			],
			"stateMutability": "view",
			"type": "function"
		},
		{
			"inputs": [
				{
					"internalType": "string",
					"name": "_name",
					"type": "string"
				}
			],
			"name": "makePrivateReq",
			"outputs": [],
			"stateMutability": "nonpayable",
			"type": "function"
		},
		{
			"inputs": [],
			"name": "name",
			"outputs": [
				{
					"internalType": "string",
					"name": "",
					"type": "string"
				}
			],
			"stateMutability": "view",
			"type": "function"
		},
		{
			"inputs": [
				{
					"internalType": "address",
					"name": "",
					"type": "address"
				}
			],
			"name": "passwords",
			"outputs": [
				{
					"internalType": "bytes32",
					"name": "",
					"type": "bytes32"
				}
			],
			"stateMutability": "view",
			"type": "function"
		},
		{
			"inputs": [
				{
					"internalType": "uint256",
					"name": "_amount",
					"type": "uint256"
				},
				{
					"internalType": "address",
					"name": "_user",
					"type": "address"
				}
			],
			"name": "payReward",
			"outputs": [],
			"stateMutability": "nonpayable",
			"type": "function"
		},
		{
			"inputs": [
				{
					"internalType": "string",
					"name": "_login",
					"type": "string"
				},
				{
					"internalType": "string",
					"name": "_password",
					"type": "string"
				}
			],
			"name": "registration",
			"outputs": [],
			"stateMutability": "nonpayable",
			"type": "function"
		},
		{
			"inputs": [
				{
					"internalType": "address",
					"name": "",
					"type": "address"
				}
			],
			"name": "requests",
			"outputs": [
				{
					"internalType": "string",
					"name": "name",
					"type": "string"
				},
				{
					"internalType": "address",
					"name": "wallet",
					"type": "address"
				},
				{
					"internalType": "enum CryptoMonster.ReqStatus",
					"name": "status",
					"type": "uint8"
				}
			],
			"stateMutability": "view",
			"type": "function"
		},
		{
			"inputs": [
				{
					"internalType": "address",
					"name": "_to",
					"type": "address"
				},
				{
					"internalType": "uint256",
					"name": "_amount",
					"type": "uint256"
				},
				{
					"internalType": "enum CryptoMonster.Phase",
					"name": "_phase",
					"type": "uint8"
				}
			],
			"name": "sendToken",
			"outputs": [],
			"stateMutability": "nonpayable",
			"type": "function"
		},
		{
			"inputs": [
				{
					"internalType": "uint256",
					"name": "_amount",
					"type": "uint256"
				},
				{
					"internalType": "address",
					"name": "_provider",
					"type": "address"
				}
			],
			"name": "sendTokensToProvier",
			"outputs": [],
			"stateMutability": "nonpayable",
			"type": "function"
		},
		{
			"inputs": [
				{
					"internalType": "uint256",
					"name": "_minutes",
					"type": "uint256"
				}
			],
			"name": "skipTime",
			"outputs": [],
			"stateMutability": "nonpayable",
			"type": "function"
		},
		{
			"inputs": [],
			"name": "symbol",
			"outputs": [
				{
					"internalType": "string",
					"name": "",
					"type": "string"
				}
			],
			"stateMutability": "view",
			"type": "function"
		},
		{
			"inputs": [],
			"name": "totalSupply",
			"outputs": [
				{
					"internalType": "uint256",
					"name": "",
					"type": "uint256"
				}
			],
			"stateMutability": "view",
			"type": "function"
		},
		{
			"inputs": [
				{
					"internalType": "address",
					"name": "to",
					"type": "address"
				},
				{
					"internalType": "uint256",
					"name": "amount",
					"type": "uint256"
				}
			],
			"name": "transfer",
			"outputs": [
				{
					"internalType": "bool",
					"name": "",
					"type": "bool"
				}
			],
			"stateMutability": "nonpayable",
			"type": "function"
		},
		{
			"inputs": [
				{
					"internalType": "address",
					"name": "from",
					"type": "address"
				},
				{
					"internalType": "address",
					"name": "to",
					"type": "address"
				},
				{
					"internalType": "uint256",
					"name": "amount",
					"type": "uint256"
				}
			],
			"name": "transferFrom",
			"outputs": [
				{
					"internalType": "bool",
					"name": "",
					"type": "bool"
				}
			],
			"stateMutability": "nonpayable",
			"type": "function"
		},
		{
			"inputs": [],
			"name": "updateLeftBalOwner",
			"outputs": [],
			"stateMutability": "nonpayable",
			"type": "function"
		}
	]
}