{
	"data": {
		"bytecode": {
			"linkReferences": {},
			"object": "6080604052620000146200047160201b60201c565b600a62000022919062000a01565b6298968062000032919062000a51565b6005556064600a60055462000048919062000a51565b62000054919062000ac8565b6006556064601e6005546200006a919062000a51565b62000076919062000ac8565b6007556064603c6005546200008c919062000a51565b62000098919062000ac8565b600855348015620000a7575f80fd5b506040518060400160405280600d81526020017f43727970746f4d6f6e73746572000000000000000000000000000000000000008152506040518060400160405280600481526020017f434d4f4e00000000000000000000000000000000000000000000000000000000815250816003908162000125919062000d5a565b50806004908162000137919062000d5a565b50505033600f5f6101000a81548173ffffffffffffffffffffffffffffffffffffffff021916908373ffffffffffffffffffffffffffffffffffffffff16021790555042600b81905550600b54600c81905550600b54600e819055505f600d81905550620001ae336005546200047960201b60201c565b600160105f73ab8483f64d9c6d1ecf9b849ae677dd3315835cb273ffffffffffffffffffffffffffffffffffffffff1673ffffffffffffffffffffffffffffffffffffffff1681526020019081526020015f205f6101000a81548160ff0219169083600281111562000225576200022462000e3e565b5b0217905550600260105f734b20993bc481177ec7e8f571cecae8a9e22c02db73ffffffffffffffffffffffffffffffffffffffff1673ffffffffffffffffffffffffffffffffffffffff1681526020019081526020015f205f6101000a81548160ff02191690836002811115620002a157620002a062000e3e565b5b0217905550620002fa337378731d3ca6b7e34ac0f824c42a7cc18a495cabab620002d06200047160201b60201c565b600a620002de919062000a01565b620493e0620002ee919062000a51565b620005de60201b60201c565b6200030a6200047160201b60201c565b600a62000318919062000a01565b620493e062000328919062000a51565b60065462000337919062000e6b565b600681905550620003913373617f2e2fd72fd9d5503197092ac168c91465e7f2620003676200047160201b60201c565b600a62000375919062000a01565b62061a8062000385919062000a51565b620005de60201b60201c565b620003a16200047160201b60201c565b600a620003af919062000a01565b62061a80620003bf919062000a51565b600654620003ce919062000e6b565b60068190555062000428337317f6ad8ef982297579c203069c1dbffe4348c372620003fe6200047160201b60201c565b600a6200040c919062000a01565b62030d406200041c919062000a51565b620005de60201b60201c565b620004386200047160201b60201c565b600a62000446919062000a01565b62030d4062000456919062000a51565b60065462000465919062000e6b565b60068190555062001145565b5f600c905090565b5f73ffffffffffffffffffffffffffffffffffffffff168273ffffffffffffffffffffffffffffffffffffffff1603620004ea576040517f08c379a0000000000000000000000000000000000000000000000000000000008152600401620004e19062000f03565b60405180910390fd5b620004fd5f83836200086560201b60201c565b8060025f82825462000510919062000f23565b92505081905550805f808473ffffffffffffffffffffffffffffffffffffffff1673ffffffffffffffffffffffffffffffffffffffff1681526020019081526020015f205f82825401925050819055508173ffffffffffffffffffffffffffffffffffffffff165f73ffffffffffffffffffffffffffffffffffffffff167fddf252ad1be2c89b69c2b068fc378daa952ba7f163c4a11628f55a4df523b3ef83604051620005bf919062000f6e565b60405180910390a3620005da5f83836200086a60201b60201c565b5050565b5f73ffffffffffffffffffffffffffffffffffffffff168373ffffffffffffffffffffffffffffffffffffffff16036200064f576040517f08c379a0000000000000000000000000000000000000000000000000000000008152600401620006469062000ffd565b60405180910390fd5b5f73ffffffffffffffffffffffffffffffffffffffff168273ffffffffffffffffffffffffffffffffffffffff1603620006c0576040517f08c379a0000000000000000000000000000000000000000000000000000000008152600401620006b79062001091565b60405180910390fd5b620006d38383836200086560201b60201c565b5f805f8573ffffffffffffffffffffffffffffffffffffffff1673ffffffffffffffffffffffffffffffffffffffff1681526020019081526020015f205490508181101562000759576040517f08c379a0000000000000000000000000000000000000000000000000000000008152600401620007509062001125565b60405180910390fd5b8181035f808673ffffffffffffffffffffffffffffffffffffffff1673ffffffffffffffffffffffffffffffffffffffff1681526020019081526020015f2081905550815f808573ffffffffffffffffffffffffffffffffffffffff1673ffffffffffffffffffffffffffffffffffffffff1681526020019081526020015f205f82825401925050819055508273ffffffffffffffffffffffffffffffffffffffff168473ffffffffffffffffffffffffffffffffffffffff167fddf252ad1be2c89b69c2b068fc378daa952ba7f163c4a11628f55a4df523b3ef8460405162000844919062000f6e565b60405180910390a36200085f8484846200086a60201b60201c565b50505050565b505050565b505050565b7f4e487b71000000000000000000000000000000000000000000000000000000005f52601160045260245ffd5b5f8160011c9050919050565b5f808291508390505b6001851115620008f957808604811115620008d157620008d06200086f565b5b6001851615620008e15780820291505b8081029050620008f1856200089c565b9450620008b1565b94509492505050565b5f82620009135760019050620009e5565b8162000922575f9050620009e5565b81600181146200093b576002811462000946576200097c565b6001915050620009e5565b60ff8411156200095b576200095a6200086f565b5b8360020a9150848211156200097557620009746200086f565b5b50620009e5565b5060208310610133831016604e8410600b8410161715620009b65782820a905083811115620009b057620009af6200086f565b5b620009e5565b620009c58484846001620008a8565b92509050818404811115620009df57620009de6200086f565b5b81810290505b9392505050565b5f819050919050565b5f60ff82169050919050565b5f62000a0d82620009ec565b915062000a1a83620009f5565b925062000a497fffffffffffffffffffffffffffffffffffffffffffffffffffffffffffffffff848462000902565b905092915050565b5f62000a5d82620009ec565b915062000a6a83620009ec565b925082820262000a7a81620009ec565b9150828204841483151762000a945762000a936200086f565b5b5092915050565b7f4e487b71000000000000000000000000000000000000000000000000000000005f52601260045260245ffd5b5f62000ad482620009ec565b915062000ae183620009ec565b92508262000af45762000af362000a9b565b5b828204905092915050565b5f81519050919050565b7f4e487b71000000000000000000000000000000000000000000000000000000005f52604160045260245ffd5b7f4e487b71000000000000000000000000000000000000000000000000000000005f52602260045260245ffd5b5f600282049050600182168062000b7b57607f821691505b60208210810362000b915762000b9062000b36565b5b50919050565b5f819050815f5260205f209050919050565b5f6020601f8301049050919050565b5f82821b905092915050565b5f6008830262000bf57fffffffffffffffffffffffffffffffffffffffffffffffffffffffffffffffff8262000bb8565b62000c01868362000bb8565b95508019841693508086168417925050509392505050565b5f819050919050565b5f62000c4262000c3c62000c3684620009ec565b62000c19565b620009ec565b9050919050565b5f819050919050565b62000c5d8362000c22565b62000c7562000c6c8262000c49565b84845462000bc4565b825550505050565b5f90565b62000c8b62000c7d565b62000c9881848462000c52565b505050565b5b8181101562000cbf5762000cb35f8262000c81565b60018101905062000c9e565b5050565b601f82111562000d0e5762000cd88162000b97565b62000ce38462000ba9565b8101602085101562000cf3578190505b62000d0b62000d028562000ba9565b83018262000c9d565b50505b505050565b5f82821c905092915050565b5f62000d305f198460080262000d13565b1980831691505092915050565b5f62000d4a838362000d1f565b9150826002028217905092915050565b62000d658262000aff565b67ffffffffffffffff81111562000d815762000d8062000b09565b5b62000d8d825462000b63565b62000d9a82828562000cc3565b5f60209050601f83116001811462000dd0575f841562000dbb578287015190505b62000dc7858262000d3d565b86555062000e36565b601f19841662000de08662000b97565b5f5b8281101562000e095784890151825560018201915060208501945060208101905062000de2565b8683101562000e29578489015162000e25601f89168262000d1f565b8355505b6001600288020188555050505b505050505050565b7f4e487b71000000000000000000000000000000000000000000000000000000005f52602160045260245ffd5b5f62000e7782620009ec565b915062000e8483620009ec565b925082820390508181111562000e9f5762000e9e6200086f565b5b92915050565b5f82825260208201905092915050565b7f45524332303a206d696e7420746f20746865207a65726f2061646472657373005f82015250565b5f62000eeb601f8362000ea5565b915062000ef88262000eb5565b602082019050919050565b5f6020820190508181035f83015262000f1c8162000edd565b9050919050565b5f62000f2f82620009ec565b915062000f3c83620009ec565b925082820190508082111562000f575762000f566200086f565b5b92915050565b62000f6881620009ec565b82525050565b5f60208201905062000f835f83018462000f5d565b92915050565b7f45524332303a207472616e736665722066726f6d20746865207a65726f2061645f8201527f6472657373000000000000000000000000000000000000000000000000000000602082015250565b5f62000fe560258362000ea5565b915062000ff28262000f89565b604082019050919050565b5f6020820190508181035f830152620010168162000fd7565b9050919050565b7f45524332303a207472616e7366657220746f20746865207a65726f20616464725f8201527f6573730000000000000000000000000000000000000000000000000000000000602082015250565b5f6200107960238362000ea5565b915062001086826200101d565b604082019050919050565b5f6020820190508181035f830152620010aa816200106b565b9050919050565b7f45524332303a207472616e7366657220616d6f756e74206578636565647320625f8201527f616c616e63650000000000000000000000000000000000000000000000000000602082015250565b5f6200110d60268362000ea5565b91506200111a82620010b1565b604082019050919050565b5f6020820190508181035f8301526200113e81620010ff565b9050919050565b61335980620011535f395ff3fe608060405260043610610203575f3560e01c806381d12c5811610117578063a945bf801161009f578063e0c6190d1161006e578063e0c6190d14610790578063ea7d5165146107ba578063ec684eb3146107e2578063f2dfd08f1461080c578063fd74d2941461082857610203565b8063a945bf80146106d8578063d95660be14610702578063db8fb88e1461072c578063dd62ed3e1461075457610203565b8063937be371116100e6578063937be371146105e457806395d89b411461060e5780639d7e8d5f14610638578063a457c2d714610660578063a9059cbb1461069c57610203565b806381d12c581461052b578063896e8cb1146105685780638afff13f146105905780638da5cb5b146105ba57610203565b806332454dbb1161019a5780636515d6c1116101695780636515d6c11461045f57806367198042146104875780636dfa00fe1461049d5780636ff32b22146104c557806370a08231146104ef57610203565b806332454dbb1461038157806339509351146103ab578063534f5680146103e75780635c475d421461042357610203565b806323b872dd116101d657806323b872dd146102c1578063254dc45e146102fd57806326f674901461032d578063313ce5671461035757610203565b806306fdde0314610207578063095ea7b314610231578063139628011461026d57806318160ddd14610297575b5f80fd5b348015610212575f80fd5b5061021b610852565b6040516102289190611e05565b60405180910390f35b34801561023c575f80fd5b5061025760048036038101906102529190611ec3565b6108e2565b6040516102649190611f1b565b60405180910390f35b348015610278575f80fd5b50610281610904565b60405161028e9190611f43565b60405180910390f35b3480156102a2575f80fd5b506102ab61090a565b6040516102b89190611f43565b60405180910390f35b3480156102cc575f80fd5b506102e760048036038101906102e29190611f5c565b610913565b6040516102f49190611f1b565b60405180910390f35b61031760048036038101906103129190611fac565b610941565b6040516103249190611e05565b60405180910390f35b348015610338575f80fd5b50610341610c2e565b60405161034e9190611f43565b60405180910390f35b348015610362575f80fd5b5061036b610c34565b6040516103789190611ff2565b60405180910390f35b34801561038c575f80fd5b50610395610c3c565b6040516103a29190611f43565b60405180910390f35b3480156103b6575f80fd5b506103d160048036038101906103cc9190611ec3565b610c42565b6040516103de9190611f1b565b60405180910390f35b3480156103f2575f80fd5b5061040d6004803603810190610408919061200b565b610c78565b60405161041a91906120a9565b60405180910390f35b34801561042e575f80fd5b5061044960048036038101906104449190611fac565b610c95565b60405161045691906120d1565b60405180910390f35b34801561046a575f80fd5b50610485600480360381019061048091906120ea565b610cd0565b005b348015610492575f80fd5b5061049b610dc7565b005b3480156104a8575f80fd5b506104c360048036038101906104be9190611fac565b610e1f565b005b3480156104d0575f80fd5b506104d9610e46565b6040516104e69190611f43565b60405180910390f35b3480156104fa575f80fd5b506105156004803603810190610510919061200b565b610e4c565b6040516105229190611f43565b60405180910390f35b348015610536575f80fd5b50610551600480360381019061054c9190611fac565b610e91565b60405161055f929190612128565b60405180910390f35b348015610573575f80fd5b5061058e600480360381019061058991906120ea565b610f65565b005b34801561059b575f80fd5b506105a4611065565b6040516105b19190611f43565b60405180910390f35b3480156105c5575f80fd5b506105ce61106b565b6040516105db91906120d1565b60405180910390f35b3480156105ef575f80fd5b506105f8611090565b6040516106059190611f43565b60405180910390f35b348015610619575f80fd5b50610622611096565b60405161062f9190611e05565b60405180910390f35b348015610643575f80fd5b5061065e60048036038101906106599190611fac565b611126565b005b34801561066b575f80fd5b5061068660048036038101906106819190611ec3565b6111e2565b6040516106939190611f1b565b60405180910390f35b3480156106a7575f80fd5b506106c260048036038101906106bd9190611ec3565b611257565b6040516106cf9190611f1b565b60405180910390f35b3480156106e3575f80fd5b506106ec611279565b6040516106f99190611f43565b60405180910390f35b34801561070d575f80fd5b5061071661127f565b6040516107239190611f43565b60405180910390f35b348015610737575f80fd5b50610752600480360381019061074d9190612282565b611285565b005b34801561075f575f80fd5b5061077a600480360381019061077591906122c9565b611337565b6040516107879190611f43565b60405180910390f35b34801561079b575f80fd5b506107a46113b9565b6040516107b19190611f43565b60405180910390f35b3480156107c5575f80fd5b506107e060048036038101906107db9190612331565b6113fd565b005b3480156107ed575f80fd5b506107f66115b8565b6040516108039190611f43565b60405180910390f35b61082660048036038101906108219190611fac565b6115be565b005b348015610833575f80fd5b5061083c61176b565b6040516108499190611f43565b60405180910390f35b6060600380546108619061239c565b80601f016020809104026020016040519081016040528092919081815260200182805461088d9061239c565b80156108d85780601f106108af576101008083540402835291602001916108d8565b820191905f5260205f20905b8154815290600101906020018083116108bb57829003601f168201915b5050505050905090565b5f806108ec611771565b90506108f9818585611778565b600191505092915050565b600e5481565b5f600254905090565b5f8061091d611771565b905061092a85828561193b565b6109358585856119c6565b60019150509392505050565b6060600561094d6113b9565b101561098e576040517f08c379a00000000000000000000000000000000000000000000000000000000081526004016109859061243c565b60405180910390fd5b600f6109986113b9565b11156109d9576040517f08c379a00000000000000000000000000000000000000000000000000000000081526004016109d0906124ca565b60405180910390fd5b620186a0821115610a1f576040517f08c379a0000000000000000000000000000000000000000000000000000000008152600401610a1690612558565b60405180910390fd5b5f60075411610a63576040517f08c379a0000000000000000000000000000000000000000000000000000000008152600401610a5a906125e6565b60405180910390fd5b5f5b601280549050811015610c0c5760128181548110610a8657610a85612604565b5b905f5260205f20015f9054906101000a900473ffffffffffffffffffffffffffffffffffffffff1673ffffffffffffffffffffffffffffffffffffffff163373ffffffffffffffffffffffffffffffffffffffff1603610bbb57610b2a600f5f9054906101000a900473ffffffffffffffffffffffffffffffffffffffff1633610b0e610c34565b600a610b1a919061278d565b86610b2591906127d7565b6119c6565b610b32610c34565b600a610b3e919061278d565b83610b4991906127d7565b60075f828254610b599190612818565b925050819055503373ffffffffffffffffffffffffffffffffffffffff166108fc6602aa1efb94e00085610b8d91906127d7565b90811502906040515f60405180830381858888f19350505050158015610bb5573d5f803e3d5ffd5b50610bf9565b6040518060400160405280601581526020017f467265652073616c65206e6f7420737461727465640000000000000000000000815250915050610c29565b8080610c049061284b565b915050610a65565b506040518060600160405280603281526020016132f26032913990505b919050565b60085481565b5f600c905090565b60055481565b5f80610c4c611771565b9050610c6d818585610c5e8589611337565b610c689190612892565b611778565b600191505092915050565b6010602052805f5260405f205f915054906101000a900460ff1681565b60128181548110610ca4575f80fd5b905f5260205f20015f915054906101000a900473ffffffffffffffffffffffffffffffffffffffff1681565b6002806002811115610ce557610ce4612036565b5b60105f3373ffffffffffffffffffffffffffffffffffffffff1673ffffffffffffffffffffffffffffffffffffffff1681526020019081526020015f205f9054906101000a900460ff166002811115610d4157610d40612036565b5b14610d81576040517f08c379a0000000000000000000000000000000000000000000000000000000008152600401610d789061295b565b60405180910390fd5b610d8c3383856119c6565b610d94610c34565b600a610da0919061278d565b83610dab91906127d7565b60085f828254610dbb9190612818565b92505081905550505050565b6005610dd16113b9565b1115610df25760065460095f828254610dea9190612892565b925050819055505b600f610dfc6113b9565b1115610e1d5760075460095f828254610e159190612892565b925050819055505b565b603c81610e2c91906127d7565b600d5f828254610e3c9190612892565b9250508190555050565b600d5481565b5f805f8373ffffffffffffffffffffffffffffffffffffffff1673ffffffffffffffffffffffffffffffffffffffff1681526020019081526020015f20549050919050565b60118181548110610ea0575f80fd5b905f5260205f2090600202015f91509050805f018054610ebf9061239c565b80601f0160208091040260200160405190810160405280929190818152602001828054610eeb9061239c565b8015610f365780601f10610f0d57610100808354040283529160200191610f36565b820191905f5260205f20905b815481529060010190602001808311610f1957829003601f168201915b505050505090806001015f9054906101000a900473ffffffffffffffffffffffffffffffffffffffff16905082565b600f5f9054906101000a900473ffffffffffffffffffffffffffffffffffffffff1673ffffffffffffffffffffffffffffffffffffffff163373ffffffffffffffffffffffffffffffffffffffff1614610ff4576040517f08c379a0000000000000000000000000000000000000000000000000000000008152600401610feb906129e9565b60405180910390fd5b5f60095411611038576040517f08c379a000000000000000000000000000000000000000000000000000000000815260040161102f90612a77565b60405180910390fd5b6110613382611045610c34565b600a611051919061278d565b8561105c91906127d7565b6119c6565b5050565b60095481565b600f5f9054906101000a900473ffffffffffffffffffffffffffffffffffffffff1681565b60065481565b6060600480546110a59061239c565b80601f01602080910402602001604051908101604052809291908181526020018280546110d19061239c565b801561111c5780601f106110f35761010080835404028352916020019161111c565b820191905f5260205f20905b8154815290600101906020018083116110ff57829003601f168201915b5050505050905090565b600280600281111561113b5761113a612036565b5b60105f3373ffffffffffffffffffffffffffffffffffffffff1673ffffffffffffffffffffffffffffffffffffffff1681526020019081526020015f205f9054906101000a900460ff16600281111561119757611196612036565b5b146111d7576040517f08c379a00000000000000000000000000000000000000000000000000000000081526004016111ce9061295b565b60405180910390fd5b81600a819055505050565b5f806111ec611771565b90505f6111f98286611337565b90508381101561123e576040517f08c379a000000000000000000000000000000000000000000000000000000000815260040161123590612b05565b60405180910390fd5b61124b8286868403611778565b60019250505092915050565b5f80611261611771565b905061126e8185856119c6565b600191505092915050565b600a5481565b600c5481565b601160405180604001604052808381526020013373ffffffffffffffffffffffffffffffffffffffff16815250908060018154018082558091505060019003905f5260205f2090600202015f909190919091505f820151815f0190816112eb9190612cc0565b506020820151816001015f6101000a81548173ffffffffffffffffffffffffffffffffffffffff021916908373ffffffffffffffffffffffffffffffffffffffff160217905550505050565b5f60015f8473ffffffffffffffffffffffffffffffffffffffff1673ffffffffffffffffffffffffffffffffffffffff1681526020019081526020015f205f8373ffffffffffffffffffffffffffffffffffffffff1673ffffffffffffffffffffffffffffffffffffffff1681526020019081526020015f2054905092915050565b5f600d54426113c89190612892565b600e819055505f603c600b54600e546113e19190612818565b6113eb9190612dbc565b90506113f681611c32565b8091505090565b600180600281111561141257611411612036565b5b60105f3373ffffffffffffffffffffffffffffffffffffffff1673ffffffffffffffffffffffffffffffffffffffff1681526020019081526020015f205f9054906101000a900460ff16600281111561146e5761146d612036565b5b146114ae576040517f08c379a00000000000000000000000000000000000000000000000000000000081526004016114a59061295b565b60405180910390fd5b811561155b576012601184815481106114ca576114c9612604565b5b905f5260205f2090600202016001015f9054906101000a900473ffffffffffffffffffffffffffffffffffffffff16908060018154018082558091505060019003905f5260205f20015f9091909190916101000a81548173ffffffffffffffffffffffffffffffffffffffff021916908373ffffffffffffffffffffffffffffffffffffffff1602179055506115b3565b6011838154811061156f5761156e612604565b5b905f5260205f2090600202015f8082015f61158a9190611d19565b600182015f6101000a81549073ffffffffffffffffffffffffffffffffffffffff021916905550505b505050565b60075481565b600a6115c86113b9565b1015611609576040517f08c379a000000000000000000000000000000000000000000000000000000000815260040161160090612e5c565b60405180910390fd5b61138881111561164e576040517f08c379a000000000000000000000000000000000000000000000000000000000815260040161164590612eea565b60405180910390fd5b5f60085411611692576040517f08c379a000000000000000000000000000000000000000000000000000000000815260040161168990612f78565b60405180910390fd5b6116dc600f5f9054906101000a900473ffffffffffffffffffffffffffffffffffffffff16336116c0610c34565b600a6116cc919061278d565b846116d791906127d7565b6119c6565b6116e4610c34565b600a6116f0919061278d565b816116fb91906127d7565b60085f82825461170b9190612818565b925050819055503373ffffffffffffffffffffffffffffffffffffffff166108fc66038d7ea4c680008361173f91906127d7565b90811502906040515f60405180830381858888f19350505050158015611767573d5f803e3d5ffd5b5050565b600b5481565b5f33905090565b5f73ffffffffffffffffffffffffffffffffffffffff168373ffffffffffffffffffffffffffffffffffffffff16036117e6576040517f08c379a00000000000000000000000000000000000000000000000000000000081526004016117dd90613006565b60405180910390fd5b5f73ffffffffffffffffffffffffffffffffffffffff168273ffffffffffffffffffffffffffffffffffffffff1603611854576040517f08c379a000000000000000000000000000000000000000000000000000000000815260040161184b90613094565b60405180910390fd5b8060015f8573ffffffffffffffffffffffffffffffffffffffff1673ffffffffffffffffffffffffffffffffffffffff1681526020019081526020015f205f8473ffffffffffffffffffffffffffffffffffffffff1673ffffffffffffffffffffffffffffffffffffffff1681526020019081526020015f20819055508173ffffffffffffffffffffffffffffffffffffffff168373ffffffffffffffffffffffffffffffffffffffff167f8c5be1e5ebec7d5bd14f71427d1e84f3dd0314c0f7b2291e5b200ac8c7c3b9258360405161192e9190611f43565b60405180910390a3505050565b5f6119468484611337565b90507fffffffffffffffffffffffffffffffffffffffffffffffffffffffffffffffff81146119c057818110156119b2576040517f08c379a00000000000000000000000000000000000000000000000000000000081526004016119a9906130fc565b60405180910390fd5b6119bf8484848403611778565b5b50505050565b5f73ffffffffffffffffffffffffffffffffffffffff168373ffffffffffffffffffffffffffffffffffffffff1603611a34576040517f08c379a0000000000000000000000000000000000000000000000000000000008152600401611a2b9061318a565b60405180910390fd5b5f73ffffffffffffffffffffffffffffffffffffffff168273ffffffffffffffffffffffffffffffffffffffff1603611aa2576040517f08c379a0000000000000000000000000000000000000000000000000000000008152600401611a9990613218565b60405180910390fd5b611aad838383611ccb565b5f805f8573ffffffffffffffffffffffffffffffffffffffff1673ffffffffffffffffffffffffffffffffffffffff1681526020019081526020015f2054905081811015611b30576040517f08c379a0000000000000000000000000000000000000000000000000000000008152600401611b27906132a6565b60405180910390fd5b8181035f808673ffffffffffffffffffffffffffffffffffffffff1673ffffffffffffffffffffffffffffffffffffffff1681526020019081526020015f2081905550815f808573ffffffffffffffffffffffffffffffffffffffff1673ffffffffffffffffffffffffffffffffffffffff1681526020019081526020015f205f82825401925050819055508273ffffffffffffffffffffffffffffffffffffffff168473ffffffffffffffffffffffffffffffffffffffff167fddf252ad1be2c89b69c2b068fc378daa952ba7f163c4a11628f55a4df523b3ef84604051611c199190611f43565b60405180910390a3611c2c848484611cd0565b50505050565b611cc881604051602401611c469190611f43565b6040516020818303038152906040527ff82c50f1000000000000000000000000000000000000000000000000000000007bffffffffffffffffffffffffffffffffffffffffffffffffffffffff19166020820180517bffffffffffffffffffffffffffffffffffffffffffffffffffffffff8381831617835250505050611cd5565b50565b505050565b505050565b611cec81611ce4611cef611d0e565b63ffffffff16565b50565b5f6a636f6e736f6c652e6c6f6790505f80835160208501845afa505050565b611d56819050919050565b508054611d259061239c565b5f825580601f10611d365750611d53565b601f0160209004905f5260205f2090810190611d529190611d60565b5b50565b611d5e6132c4565b565b5b80821115611d77575f815f905550600101611d61565b5090565b5f81519050919050565b5f82825260208201905092915050565b5f5b83811015611db2578082015181840152602081019050611d97565b5f8484015250505050565b5f601f19601f8301169050919050565b5f611dd782611d7b565b611de18185611d85565b9350611df1818560208601611d95565b611dfa81611dbd565b840191505092915050565b5f6020820190508181035f830152611e1d8184611dcd565b905092915050565b5f604051905090565b5f80fd5b5f80fd5b5f73ffffffffffffffffffffffffffffffffffffffff82169050919050565b5f611e5f82611e36565b9050919050565b611e6f81611e55565b8114611e79575f80fd5b50565b5f81359050611e8a81611e66565b92915050565b5f819050919050565b611ea281611e90565b8114611eac575f80fd5b50565b5f81359050611ebd81611e99565b92915050565b5f8060408385031215611ed957611ed8611e2e565b5b5f611ee685828601611e7c565b9250506020611ef785828601611eaf565b9150509250929050565b5f8115159050919050565b611f1581611f01565b82525050565b5f602082019050611f2e5f830184611f0c565b92915050565b611f3d81611e90565b82525050565b5f602082019050611f565f830184611f34565b92915050565b5f805f60608486031215611f7357611f72611e2e565b5b5f611f8086828701611e7c565b9350506020611f9186828701611e7c565b9250506040611fa286828701611eaf565b9150509250925092565b5f60208284031215611fc157611fc0611e2e565b5b5f611fce84828501611eaf565b91505092915050565b5f60ff82169050919050565b611fec81611fd7565b82525050565b5f6020820190506120055f830184611fe3565b92915050565b5f602082840312156120205761201f611e2e565b5b5f61202d84828501611e7c565b91505092915050565b7f4e487b71000000000000000000000000000000000000000000000000000000005f52602160045260245ffd5b6003811061207457612073612036565b5b50565b5f81905061208482612063565b919050565b5f61209382612077565b9050919050565b6120a381612089565b82525050565b5f6020820190506120bc5f83018461209a565b92915050565b6120cb81611e55565b82525050565b5f6020820190506120e45f8301846120c2565b92915050565b5f8060408385031215612100576120ff611e2e565b5b5f61210d85828601611eaf565b925050602061211e85828601611e7c565b9150509250929050565b5f6040820190508181035f8301526121408185611dcd565b905061214f60208301846120c2565b9392505050565b5f80fd5b5f80fd5b7f4e487b71000000000000000000000000000000000000000000000000000000005f52604160045260245ffd5b61219482611dbd565b810181811067ffffffffffffffff821117156121b3576121b261215e565b5b80604052505050565b5f6121c5611e25565b90506121d1828261218b565b919050565b5f67ffffffffffffffff8211156121f0576121ef61215e565b5b6121f982611dbd565b9050602081019050919050565b828183375f83830152505050565b5f612226612221846121d6565b6121bc565b9050828152602081018484840111156122425761224161215a565b5b61224d848285612206565b509392505050565b5f82601f83011261226957612268612156565b5b8135612279848260208601612214565b91505092915050565b5f6020828403121561229757612296611e2e565b5b5f82013567ffffffffffffffff8111156122b4576122b3611e32565b5b6122c084828501612255565b91505092915050565b5f80604083850312156122df576122de611e2e565b5b5f6122ec85828601611e7c565b92505060206122fd85828601611e7c565b9150509250929050565b61231081611f01565b811461231a575f80fd5b50565b5f8135905061232b81612307565b92915050565b5f806040838503121561234757612346611e2e565b5b5f61235485828601611eaf565b92505060206123658582860161231d565b9150509250929050565b7f4e487b71000000000000000000000000000000000000000000000000000000005f52602260045260245ffd5b5f60028204905060018216806123b357607f821691505b6020821081036123c6576123c561236f565b5b50919050565b7fd09fd180d0b8d0b2d0b0d182d0bdd0b0d18f20d184d0b0d0b7d0b020d0b5d1895f8201527fd19120d0bdd0b520d0bdd0b0d187d0b0d0bbd0b0d181d18c0000000000000000602082015250565b5f612426603883611d85565b9150612431826123cc565b604082019050919050565b5f6020820190508181035f8301526124538161241a565b9050919050565b7fd09fd180d0b8d0b2d0b0d182d0bdd0b0d18f20d184d0b0d0b7d0b020d0b7d0b05f8201527fd0bad0bed0bdd187d0b8d0bbd0b0d181d18c0000000000000000000000000000602082015250565b5f6124b4603283611d85565b91506124bf8261245a565b604082019050919050565b5f6020820190508181035f8301526124e1816124a8565b9050919050565b7fd091d0bed0bbd18cd188d0b52031303030303020d0bdd0b5d0bbd18cd0b7d18f5f8201527f20d0bad183d0bfd0b8d182d18c00000000000000000000000000000000000000602082015250565b5f612542602d83611d85565b915061254d826124e8565b604082019050919050565b5f6020820190508181035f83015261256f81612536565b9050919050565b7f5072697661746520d0bad0bed0b8d0bdd18b20d0b7d0b0d0bad0bed0bdd187d05f8201527fb8d0bbd0b8d181d18c0000000000000000000000000000000000000000000000602082015250565b5f6125d0602983611d85565b91506125db82612576565b604082019050919050565b5f6020820190508181035f8301526125fd816125c4565b9050919050565b7f4e487b71000000000000000000000000000000000000000000000000000000005f52603260045260245ffd5b7f4e487b71000000000000000000000000000000000000000000000000000000005f52601160045260245ffd5b5f8160011c9050919050565b5f808291508390505b60018511156126b35780860481111561268f5761268e612631565b5b600185161561269e5780820291505b80810290506126ac8561265e565b9450612673565b94509492505050565b5f826126cb5760019050612786565b816126d8575f9050612786565b81600181146126ee57600281146126f857612727565b6001915050612786565b60ff84111561270a57612709612631565b5b8360020a91508482111561272157612720612631565b5b50612786565b5060208310610133831016604e8410600b841016171561275c5782820a90508381111561275757612756612631565b5b612786565b612769848484600161266a565b925090508184048111156127805761277f612631565b5b81810290505b9392505050565b5f61279782611e90565b91506127a283611fd7565b92506127cf7fffffffffffffffffffffffffffffffffffffffffffffffffffffffffffffffff84846126bc565b905092915050565b5f6127e182611e90565b91506127ec83611e90565b92508282026127fa81611e90565b9150828204841483151761281157612810612631565b5b5092915050565b5f61282282611e90565b915061282d83611e90565b925082820390508181111561284557612844612631565b5b92915050565b5f61285582611e90565b91507fffffffffffffffffffffffffffffffffffffffffffffffffffffffffffffffff820361288757612886612631565b5b600182019050919050565b5f61289c82611e90565b91506128a783611e90565b92508282019050808211156128bf576128be612631565b5b92915050565b7fd092d0b0d188d0b020d180d0bed0bbd18c20d0bdd0b520d0bfd0bed0b7d0b2d05f8201527fbed0bbd18fd0b5d18220d18dd182d0be20d0b8d181d0bfd0bed0bbd18cd0b7d060208201527fbed0b2d0b0d182d18c0000000000000000000000000000000000000000000000604082015250565b5f612945604983611d85565b9150612950826128c5565b606082019050919050565b5f6020820190508181035f83015261297281612939565b9050919050565b7fd092d18b20d0bdd0b520d0b2d0bbd0b0d0b4d0b5d0bbd0b5d18620d0bad0bed05f8201527fbdd182d180d0b0d0bad182d0b000000000000000000000000000000000000000602082015250565b5f6129d3602d83611d85565b91506129de82612979565b604082019050919050565b5f6020820190508181035f830152612a00816129c7565b9050919050565b7fd0a320d0b2d0b0d18120d0bdd0b5d18220d0bed181d182d0b0d182d0bed187d05f8201527fbdd18bd18520d0bad0bed0b8d0bdd0bed0b20000000000000000000000000000602082015250565b5f612a61603283611d85565b9150612a6c82612a07565b604082019050919050565b5f6020820190508181035f830152612a8e81612a55565b9050919050565b7f45524332303a2064656372656173656420616c6c6f77616e63652062656c6f775f8201527f207a65726f000000000000000000000000000000000000000000000000000000602082015250565b5f612aef602583611d85565b9150612afa82612a95565b604082019050919050565b5f6020820190508181035f830152612b1c81612ae3565b9050919050565b5f819050815f5260205f209050919050565b5f6020601f8301049050919050565b5f82821b905092915050565b5f60088302612b7f7fffffffffffffffffffffffffffffffffffffffffffffffffffffffffffffffff82612b44565b612b898683612b44565b95508019841693508086168417925050509392505050565b5f819050919050565b5f612bc4612bbf612bba84611e90565b612ba1565b611e90565b9050919050565b5f819050919050565b612bdd83612baa565b612bf1612be982612bcb565b848454612b50565b825550505050565b5f90565b612c05612bf9565b612c10818484612bd4565b505050565b5b81811015612c3357612c285f82612bfd565b600181019050612c16565b5050565b601f821115612c7857612c4981612b23565b612c5284612b35565b81016020851015612c61578190505b612c75612c6d85612b35565b830182612c15565b50505b505050565b5f82821c905092915050565b5f612c985f1984600802612c7d565b1980831691505092915050565b5f612cb08383612c89565b9150826002028217905092915050565b612cc982611d7b565b67ffffffffffffffff811115612ce257612ce161215e565b5b612cec825461239c565b612cf7828285612c37565b5f60209050601f831160018114612d28575f8415612d16578287015190505b612d208582612ca5565b865550612d87565b601f198416612d3686612b23565b5f5b82811015612d5d57848901518255600182019150602085019450602081019050612d38565b86831015612d7a5784890151612d76601f891682612c89565b8355505b6001600288020188555050505b505050505050565b7f4e487b71000000000000000000000000000000000000000000000000000000005f52601260045260245ffd5b5f612dc682611e90565b9150612dd183611e90565b925082612de157612de0612d8f565b5b828204905092915050565b7f5075626c696320d184d0b0d0b7d0b020d0b5d189d19120d0bdd0b520d0bdd0b05f8201527fd187d0b0d0bbd0b0d181d18c0000000000000000000000000000000000000000602082015250565b5f612e46602c83611d85565b9150612e5182612dec565b604082019050919050565b5f6020820190508181035f830152612e7381612e3a565b9050919050565b7fd091d0bed0bbd18cd188d0b5203530303020d0bdd0b5d0bbd18cd0b7d18f20d05f8201527fbad183d0bfd0b8d182d18c000000000000000000000000000000000000000000602082015250565b5f612ed4602b83611d85565b9150612edf82612e7a565b604082019050919050565b5f6020820190508181035f830152612f0181612ec8565b9050919050565b7f5075626c696320d0bad0bed0b8d0bdd18b20d0b7d0b0d0bad0bed0bdd187d0b85f8201527fd0bbd0b8d181d18c000000000000000000000000000000000000000000000000602082015250565b5f612f62602883611d85565b9150612f6d82612f08565b604082019050919050565b5f6020820190508181035f830152612f8f81612f56565b9050919050565b7f45524332303a20617070726f76652066726f6d20746865207a65726f206164645f8201527f7265737300000000000000000000000000000000000000000000000000000000602082015250565b5f612ff0602483611d85565b9150612ffb82612f96565b604082019050919050565b5f6020820190508181035f83015261301d81612fe4565b9050919050565b7f45524332303a20617070726f766520746f20746865207a65726f2061646472655f8201527f7373000000000000000000000000000000000000000000000000000000000000602082015250565b5f61307e602283611d85565b915061308982613024565b604082019050919050565b5f6020820190508181035f8301526130ab81613072565b9050919050565b7f45524332303a20696e73756666696369656e7420616c6c6f77616e63650000005f82015250565b5f6130e6601d83611d85565b91506130f1826130b2565b602082019050919050565b5f6020820190508181035f830152613113816130da565b9050919050565b7f45524332303a207472616e736665722066726f6d20746865207a65726f2061645f8201527f6472657373000000000000000000000000000000000000000000000000000000602082015250565b5f613174602583611d85565b915061317f8261311a565b604082019050919050565b5f6020820190508181035f8301526131a181613168565b9050919050565b7f45524332303a207472616e7366657220746f20746865207a65726f20616464725f8201527f6573730000000000000000000000000000000000000000000000000000000000602082015250565b5f613202602383611d85565b915061320d826131a8565b604082019050919050565b5f6020820190508181035f83015261322f816131f6565b9050919050565b7f45524332303a207472616e7366657220616d6f756e74206578636565647320625f8201527f616c616e63650000000000000000000000000000000000000000000000000000602082015250565b5f613290602683611d85565b915061329b82613236565b604082019050919050565b5f6020820190508181035f8301526132bd81613284565b9050919050565b7f4e487b71000000000000000000000000000000000000000000000000000000005f52605160045260245ffdfed09ed0bfd0b5d180d0b0d186d0b8d18f20d0bfd180d0bed0b2d0b5d0b4d0b5d0bdd0b020d183d181d0bfd0b5d188d0bdd0b0a2646970667358221220efa6c2ae07e48fb5fa2ac3b6a871cfdd2d143229d25267fb757c0885c825611364736f6c63430008150033",
			"opcodes": "PUSH1 0x80 PUSH1 0x40 MSTORE PUSH3 0x14 PUSH3 0x471 PUSH1 0x20 SHL PUSH1 0x20 SHR JUMP JUMPDEST PUSH1 0xA PUSH3 0x22 SWAP2 SWAP1 PUSH3 0xA01 JUMP JUMPDEST PUSH3 0x989680 PUSH3 0x32 SWAP2 SWAP1 PUSH3 0xA51 JUMP JUMPDEST PUSH1 0x5 SSTORE PUSH1 0x64 PUSH1 0xA PUSH1 0x5 SLOAD PUSH3 0x48 SWAP2 SWAP1 PUSH3 0xA51 JUMP JUMPDEST PUSH3 0x54 SWAP2 SWAP1 PUSH3 0xAC8 JUMP JUMPDEST PUSH1 0x6 SSTORE PUSH1 0x64 PUSH1 0x1E PUSH1 0x5 SLOAD PUSH3 0x6A SWAP2 SWAP1 PUSH3 0xA51 JUMP JUMPDEST PUSH3 0x76 SWAP2 SWAP1 PUSH3 0xAC8 JUMP JUMPDEST PUSH1 0x7 SSTORE PUSH1 0x64 PUSH1 0x3C PUSH1 0x5 SLOAD PUSH3 0x8C SWAP2 SWAP1 PUSH3 0xA51 JUMP JUMPDEST PUSH3 0x98 SWAP2 SWAP1 PUSH3 0xAC8 JUMP JUMPDEST PUSH1 0x8 SSTORE CALLVALUE DUP1 ISZERO PUSH3 0xA7 JUMPI PUSH0 DUP1 REVERT JUMPDEST POP PUSH1 0x40 MLOAD DUP1 PUSH1 0x40 ADD PUSH1 0x40 MSTORE DUP1 PUSH1 0xD DUP2 MSTORE PUSH1 0x20 ADD PUSH32 0x43727970746F4D6F6E7374657200000000000000000000000000000000000000 DUP2 MSTORE POP PUSH1 0x40 MLOAD DUP1 PUSH1 0x40 ADD PUSH1 0x40 MSTORE DUP1 PUSH1 0x4 DUP2 MSTORE PUSH1 0x20 ADD PUSH32 0x434D4F4E00000000000000000000000000000000000000000000000000000000 DUP2 MSTORE POP DUP2 PUSH1 0x3 SWAP1 DUP2 PUSH3 0x125 SWAP2 SWAP1 PUSH3 0xD5A JUMP JUMPDEST POP DUP1 PUSH1 0x4 SWAP1 DUP2 PUSH3 0x137 SWAP2 SWAP1 PUSH3 0xD5A JUMP JUMPDEST POP POP POP CALLER PUSH1 0xF PUSH0 PUSH2 0x100 EXP DUP2 SLOAD DUP2 PUSH20 0xFFFFFFFFFFFFFFFFFFFFFFFFFFFFFFFFFFFFFFFF MUL NOT AND SWAP1 DUP4 PUSH20 0xFFFFFFFFFFFFFFFFFFFFFFFFFFFFFFFFFFFFFFFF AND MUL OR SWAP1 SSTORE POP TIMESTAMP PUSH1 0xB DUP2 SWAP1 SSTORE POP PUSH1 0xB SLOAD PUSH1 0xC DUP2 SWAP1 SSTORE POP PUSH1 0xB SLOAD PUSH1 0xE DUP2 SWAP1 SSTORE POP PUSH0 PUSH1 0xD DUP2 SWAP1 SSTORE POP PUSH3 0x1AE CALLER PUSH1 0x5 SLOAD PUSH3 0x479 PUSH1 0x20 SHL PUSH1 0x20 SHR JUMP JUMPDEST PUSH1 0x1 PUSH1 0x10 PUSH0 PUSH20 0xAB8483F64D9C6D1ECF9B849AE677DD3315835CB2 PUSH20 0xFFFFFFFFFFFFFFFFFFFFFFFFFFFFFFFFFFFFFFFF AND PUSH20 0xFFFFFFFFFFFFFFFFFFFFFFFFFFFFFFFFFFFFFFFF AND DUP2 MSTORE PUSH1 0x20 ADD SWAP1 DUP2 MSTORE PUSH1 0x20 ADD PUSH0 KECCAK256 PUSH0 PUSH2 0x100 EXP DUP2 SLOAD DUP2 PUSH1 0xFF MUL NOT AND SWAP1 DUP4 PUSH1 0x2 DUP2 GT ISZERO PUSH3 0x225 JUMPI PUSH3 0x224 PUSH3 0xE3E JUMP JUMPDEST JUMPDEST MUL OR SWAP1 SSTORE POP PUSH1 0x2 PUSH1 0x10 PUSH0 PUSH20 0x4B20993BC481177EC7E8F571CECAE8A9E22C02DB PUSH20 0xFFFFFFFFFFFFFFFFFFFFFFFFFFFFFFFFFFFFFFFF AND PUSH20 0xFFFFFFFFFFFFFFFFFFFFFFFFFFFFFFFFFFFFFFFF AND DUP2 MSTORE PUSH1 0x20 ADD SWAP1 DUP2 MSTORE PUSH1 0x20 ADD PUSH0 KECCAK256 PUSH0 PUSH2 0x100 EXP DUP2 SLOAD DUP2 PUSH1 0xFF MUL NOT AND SWAP1 DUP4 PUSH1 0x2 DUP2 GT ISZERO PUSH3 0x2A1 JUMPI PUSH3 0x2A0 PUSH3 0xE3E JUMP JUMPDEST JUMPDEST MUL OR SWAP1 SSTORE POP PUSH3 0x2FA CALLER PUSH20 0x78731D3CA6B7E34AC0F824C42A7CC18A495CABAB PUSH3 0x2D0 PUSH3 0x471 PUSH1 0x20 SHL PUSH1 0x20 SHR JUMP JUMPDEST PUSH1 0xA PUSH3 0x2DE SWAP2 SWAP1 PUSH3 0xA01 JUMP JUMPDEST PUSH3 0x493E0 PUSH3 0x2EE SWAP2 SWAP1 PUSH3 0xA51 JUMP JUMPDEST PUSH3 0x5DE PUSH1 0x20 SHL PUSH1 0x20 SHR JUMP JUMPDEST PUSH3 0x30A PUSH3 0x471 PUSH1 0x20 SHL PUSH1 0x20 SHR JUMP JUMPDEST PUSH1 0xA PUSH3 0x318 SWAP2 SWAP1 PUSH3 0xA01 JUMP JUMPDEST PUSH3 0x493E0 PUSH3 0x328 SWAP2 SWAP1 PUSH3 0xA51 JUMP JUMPDEST PUSH1 0x6 SLOAD PUSH3 0x337 SWAP2 SWAP1 PUSH3 0xE6B JUMP JUMPDEST PUSH1 0x6 DUP2 SWAP1 SSTORE POP PUSH3 0x391 CALLER PUSH20 0x617F2E2FD72FD9D5503197092AC168C91465E7F2 PUSH3 0x367 PUSH3 0x471 PUSH1 0x20 SHL PUSH1 0x20 SHR JUMP JUMPDEST PUSH1 0xA PUSH3 0x375 SWAP2 SWAP1 PUSH3 0xA01 JUMP JUMPDEST PUSH3 0x61A80 PUSH3 0x385 SWAP2 SWAP1 PUSH3 0xA51 JUMP JUMPDEST PUSH3 0x5DE PUSH1 0x20 SHL PUSH1 0x20 SHR JUMP JUMPDEST PUSH3 0x3A1 PUSH3 0x471 PUSH1 0x20 SHL PUSH1 0x20 SHR JUMP JUMPDEST PUSH1 0xA PUSH3 0x3AF SWAP2 SWAP1 PUSH3 0xA01 JUMP JUMPDEST PUSH3 0x61A80 PUSH3 0x3BF SWAP2 SWAP1 PUSH3 0xA51 JUMP JUMPDEST PUSH1 0x6 SLOAD PUSH3 0x3CE SWAP2 SWAP1 PUSH3 0xE6B JUMP JUMPDEST PUSH1 0x6 DUP2 SWAP1 SSTORE POP PUSH3 0x428 CALLER PUSH20 0x17F6AD8EF982297579C203069C1DBFFE4348C372 PUSH3 0x3FE PUSH3 0x471 PUSH1 0x20 SHL PUSH1 0x20 SHR JUMP JUMPDEST PUSH1 0xA PUSH3 0x40C SWAP2 SWAP1 PUSH3 0xA01 JUMP JUMPDEST PUSH3 0x30D40 PUSH3 0x41C SWAP2 SWAP1 PUSH3 0xA51 JUMP JUMPDEST PUSH3 0x5DE PUSH1 0x20 SHL PUSH1 0x20 SHR JUMP JUMPDEST PUSH3 0x438 PUSH3 0x471 PUSH1 0x20 SHL PUSH1 0x20 SHR JUMP JUMPDEST PUSH1 0xA PUSH3 0x446 SWAP2 SWAP1 PUSH3 0xA01 JUMP JUMPDEST PUSH3 0x30D40 PUSH3 0x456 SWAP2 SWAP1 PUSH3 0xA51 JUMP JUMPDEST PUSH1 0x6 SLOAD PUSH3 0x465 SWAP2 SWAP1 PUSH3 0xE6B JUMP JUMPDEST PUSH1 0x6 DUP2 SWAP1 SSTORE POP PUSH3 0x1145 JUMP JUMPDEST PUSH0 PUSH1 0xC SWAP1 POP SWAP1 JUMP JUMPDEST PUSH0 PUSH20 0xFFFFFFFFFFFFFFFFFFFFFFFFFFFFFFFFFFFFFFFF AND DUP3 PUSH20 0xFFFFFFFFFFFFFFFFFFFFFFFFFFFFFFFFFFFFFFFF AND SUB PUSH3 0x4EA JUMPI PUSH1 0x40 MLOAD PUSH32 0x8C379A000000000000000000000000000000000000000000000000000000000 DUP2 MSTORE PUSH1 0x4 ADD PUSH3 0x4E1 SWAP1 PUSH3 0xF03 JUMP JUMPDEST PUSH1 0x40 MLOAD DUP1 SWAP2 SUB SWAP1 REVERT JUMPDEST PUSH3 0x4FD PUSH0 DUP4 DUP4 PUSH3 0x865 PUSH1 0x20 SHL PUSH1 0x20 SHR JUMP JUMPDEST DUP1 PUSH1 0x2 PUSH0 DUP3 DUP3 SLOAD PUSH3 0x510 SWAP2 SWAP1 PUSH3 0xF23 JUMP JUMPDEST SWAP3 POP POP DUP2 SWAP1 SSTORE POP DUP1 PUSH0 DUP1 DUP5 PUSH20 0xFFFFFFFFFFFFFFFFFFFFFFFFFFFFFFFFFFFFFFFF AND PUSH20 0xFFFFFFFFFFFFFFFFFFFFFFFFFFFFFFFFFFFFFFFF AND DUP2 MSTORE PUSH1 0x20 ADD SWAP1 DUP2 MSTORE PUSH1 0x20 ADD PUSH0 KECCAK256 PUSH0 DUP3 DUP3 SLOAD ADD SWAP3 POP POP DUP2 SWAP1 SSTORE POP DUP2 PUSH20 0xFFFFFFFFFFFFFFFFFFFFFFFFFFFFFFFFFFFFFFFF AND PUSH0 PUSH20 0xFFFFFFFFFFFFFFFFFFFFFFFFFFFFFFFFFFFFFFFF AND PUSH32 0xDDF252AD1BE2C89B69C2B068FC378DAA952BA7F163C4A11628F55A4DF523B3EF DUP4 PUSH1 0x40 MLOAD PUSH3 0x5BF SWAP2 SWAP1 PUSH3 0xF6E JUMP JUMPDEST PUSH1 0x40 MLOAD DUP1 SWAP2 SUB SWAP1 LOG3 PUSH3 0x5DA PUSH0 DUP4 DUP4 PUSH3 0x86A PUSH1 0x20 SHL PUSH1 0x20 SHR JUMP JUMPDEST POP POP JUMP JUMPDEST PUSH0 PUSH20 0xFFFFFFFFFFFFFFFFFFFFFFFFFFFFFFFFFFFFFFFF AND DUP4 PUSH20 0xFFFFFFFFFFFFFFFFFFFFFFFFFFFFFFFFFFFFFFFF AND SUB PUSH3 0x64F JUMPI PUSH1 0x40 MLOAD PUSH32 0x8C379A000000000000000000000000000000000000000000000000000000000 DUP2 MSTORE PUSH1 0x4 ADD PUSH3 0x646 SWAP1 PUSH3 0xFFD JUMP JUMPDEST PUSH1 0x40 MLOAD DUP1 SWAP2 SUB SWAP1 REVERT JUMPDEST PUSH0 PUSH20 0xFFFFFFFFFFFFFFFFFFFFFFFFFFFFFFFFFFFFFFFF AND DUP3 PUSH20 0xFFFFFFFFFFFFFFFFFFFFFFFFFFFFFFFFFFFFFFFF AND SUB PUSH3 0x6C0 JUMPI PUSH1 0x40 MLOAD PUSH32 0x8C379A000000000000000000000000000000000000000000000000000000000 DUP2 MSTORE PUSH1 0x4 ADD PUSH3 0x6B7 SWAP1 PUSH3 0x1091 JUMP JUMPDEST PUSH1 0x40 MLOAD DUP1 SWAP2 SUB SWAP1 REVERT JUMPDEST PUSH3 0x6D3 DUP4 DUP4 DUP4 PUSH3 0x865 PUSH1 0x20 SHL PUSH1 0x20 SHR JUMP JUMPDEST PUSH0 DUP1 PUSH0 DUP6 PUSH20 0xFFFFFFFFFFFFFFFFFFFFFFFFFFFFFFFFFFFFFFFF AND PUSH20 0xFFFFFFFFFFFFFFFFFFFFFFFFFFFFFFFFFFFFFFFF AND DUP2 MSTORE PUSH1 0x20 ADD SWAP1 DUP2 MSTORE PUSH1 0x20 ADD PUSH0 KECCAK256 SLOAD SWAP1 POP DUP2 DUP2 LT ISZERO PUSH3 0x759 JUMPI PUSH1 0x40 MLOAD PUSH32 0x8C379A000000000000000000000000000000000000000000000000000000000 DUP2 MSTORE PUSH1 0x4 ADD PUSH3 0x750 SWAP1 PUSH3 0x1125 JUMP JUMPDEST PUSH1 0x40 MLOAD DUP1 SWAP2 SUB SWAP1 REVERT JUMPDEST DUP2 DUP2 SUB PUSH0 DUP1 DUP7 PUSH20 0xFFFFFFFFFFFFFFFFFFFFFFFFFFFFFFFFFFFFFFFF AND PUSH20 0xFFFFFFFFFFFFFFFFFFFFFFFFFFFFFFFFFFFFFFFF AND DUP2 MSTORE PUSH1 0x20 ADD SWAP1 DUP2 MSTORE PUSH1 0x20 ADD PUSH0 KECCAK256 DUP2 SWAP1 SSTORE POP DUP2 PUSH0 DUP1 DUP6 PUSH20 0xFFFFFFFFFFFFFFFFFFFFFFFFFFFFFFFFFFFFFFFF AND PUSH20 0xFFFFFFFFFFFFFFFFFFFFFFFFFFFFFFFFFFFFFFFF AND DUP2 MSTORE PUSH1 0x20 ADD SWAP1 DUP2 MSTORE PUSH1 0x20 ADD PUSH0 KECCAK256 PUSH0 DUP3 DUP3 SLOAD ADD SWAP3 POP POP DUP2 SWAP1 SSTORE POP DUP3 PUSH20 0xFFFFFFFFFFFFFFFFFFFFFFFFFFFFFFFFFFFFFFFF AND DUP5 PUSH20 0xFFFFFFFFFFFFFFFFFFFFFFFFFFFFFFFFFFFFFFFF AND PUSH32 0xDDF252AD1BE2C89B69C2B068FC378DAA952BA7F163C4A11628F55A4DF523B3EF DUP5 PUSH1 0x40 MLOAD PUSH3 0x844 SWAP2 SWAP1 PUSH3 0xF6E JUMP JUMPDEST PUSH1 0x40 MLOAD DUP1 SWAP2 SUB SWAP1 LOG3 PUSH3 0x85F DUP5 DUP5 DUP5 PUSH3 0x86A PUSH1 0x20 SHL PUSH1 0x20 SHR JUMP JUMPDEST POP POP POP POP JUMP JUMPDEST POP POP POP JUMP JUMPDEST POP POP POP JUMP JUMPDEST PUSH32 0x4E487B7100000000000000000000000000000000000000000000000000000000 PUSH0 MSTORE PUSH1 0x11 PUSH1 0x4 MSTORE PUSH1 0x24 PUSH0 REVERT JUMPDEST PUSH0 DUP2 PUSH1 0x1 SHR SWAP1 POP SWAP2 SWAP1 POP JUMP JUMPDEST PUSH0 DUP1 DUP3 SWAP2 POP DUP4 SWAP1 POP JUMPDEST PUSH1 0x1 DUP6 GT ISZERO PUSH3 0x8F9 JUMPI DUP1 DUP7 DIV DUP2 GT ISZERO PUSH3 0x8D1 JUMPI PUSH3 0x8D0 PUSH3 0x86F JUMP JUMPDEST JUMPDEST PUSH1 0x1 DUP6 AND ISZERO PUSH3 0x8E1 JUMPI DUP1 DUP3 MUL SWAP2 POP JUMPDEST DUP1 DUP2 MUL SWAP1 POP PUSH3 0x8F1 DUP6 PUSH3 0x89C JUMP JUMPDEST SWAP5 POP PUSH3 0x8B1 JUMP JUMPDEST SWAP5 POP SWAP5 SWAP3 POP POP POP JUMP JUMPDEST PUSH0 DUP3 PUSH3 0x913 JUMPI PUSH1 0x1 SWAP1 POP PUSH3 0x9E5 JUMP JUMPDEST DUP2 PUSH3 0x922 JUMPI PUSH0 SWAP1 POP PUSH3 0x9E5 JUMP JUMPDEST DUP2 PUSH1 0x1 DUP2 EQ PUSH3 0x93B JUMPI PUSH1 0x2 DUP2 EQ PUSH3 0x946 JUMPI PUSH3 0x97C JUMP JUMPDEST PUSH1 0x1 SWAP2 POP POP PUSH3 0x9E5 JUMP JUMPDEST PUSH1 0xFF DUP5 GT ISZERO PUSH3 0x95B JUMPI PUSH3 0x95A PUSH3 0x86F JUMP JUMPDEST JUMPDEST DUP4 PUSH1 0x2 EXP SWAP2 POP DUP5 DUP3 GT ISZERO PUSH3 0x975 JUMPI PUSH3 0x974 PUSH3 0x86F JUMP JUMPDEST JUMPDEST POP PUSH3 0x9E5 JUMP JUMPDEST POP PUSH1 0x20 DUP4 LT PUSH2 0x133 DUP4 LT AND PUSH1 0x4E DUP5 LT PUSH1 0xB DUP5 LT AND OR ISZERO PUSH3 0x9B6 JUMPI DUP3 DUP3 EXP SWAP1 POP DUP4 DUP2 GT ISZERO PUSH3 0x9B0 JUMPI PUSH3 0x9AF PUSH3 0x86F JUMP JUMPDEST JUMPDEST PUSH3 0x9E5 JUMP JUMPDEST PUSH3 0x9C5 DUP5 DUP5 DUP5 PUSH1 0x1 PUSH3 0x8A8 JUMP JUMPDEST SWAP3 POP SWAP1 POP DUP2 DUP5 DIV DUP2 GT ISZERO PUSH3 0x9DF JUMPI PUSH3 0x9DE PUSH3 0x86F JUMP JUMPDEST JUMPDEST DUP2 DUP2 MUL SWAP1 POP JUMPDEST SWAP4 SWAP3 POP POP POP JUMP JUMPDEST PUSH0 DUP2 SWAP1 POP SWAP2 SWAP1 POP JUMP JUMPDEST PUSH0 PUSH1 0xFF DUP3 AND SWAP1 POP SWAP2 SWAP1 POP JUMP JUMPDEST PUSH0 PUSH3 0xA0D DUP3 PUSH3 0x9EC JUMP JUMPDEST SWAP2 POP PUSH3 0xA1A DUP4 PUSH3 0x9F5 JUMP JUMPDEST SWAP3 POP PUSH3 0xA49 PUSH32 0xFFFFFFFFFFFFFFFFFFFFFFFFFFFFFFFFFFFFFFFFFFFFFFFFFFFFFFFFFFFFFFFF DUP5 DUP5 PUSH3 0x902 JUMP JUMPDEST SWAP1 POP SWAP3 SWAP2 POP POP JUMP JUMPDEST PUSH0 PUSH3 0xA5D DUP3 PUSH3 0x9EC JUMP JUMPDEST SWAP2 POP PUSH3 0xA6A DUP4 PUSH3 0x9EC JUMP JUMPDEST SWAP3 POP DUP3 DUP3 MUL PUSH3 0xA7A DUP2 PUSH3 0x9EC JUMP JUMPDEST SWAP2 POP DUP3 DUP3 DIV DUP5 EQ DUP4 ISZERO OR PUSH3 0xA94 JUMPI PUSH3 0xA93 PUSH3 0x86F JUMP JUMPDEST JUMPDEST POP SWAP3 SWAP2 POP POP JUMP JUMPDEST PUSH32 0x4E487B7100000000000000000000000000000000000000000000000000000000 PUSH0 MSTORE PUSH1 0x12 PUSH1 0x4 MSTORE PUSH1 0x24 PUSH0 REVERT JUMPDEST PUSH0 PUSH3 0xAD4 DUP3 PUSH3 0x9EC JUMP JUMPDEST SWAP2 POP PUSH3 0xAE1 DUP4 PUSH3 0x9EC JUMP JUMPDEST SWAP3 POP DUP3 PUSH3 0xAF4 JUMPI PUSH3 0xAF3 PUSH3 0xA9B JUMP JUMPDEST JUMPDEST DUP3 DUP3 DIV SWAP1 POP SWAP3 SWAP2 POP POP JUMP JUMPDEST PUSH0 DUP2 MLOAD SWAP1 POP SWAP2 SWAP1 POP JUMP JUMPDEST PUSH32 0x4E487B7100000000000000000000000000000000000000000000000000000000 PUSH0 MSTORE PUSH1 0x41 PUSH1 0x4 MSTORE PUSH1 0x24 PUSH0 REVERT JUMPDEST PUSH32 0x4E487B7100000000000000000000000000000000000000000000000000000000 PUSH0 MSTORE PUSH1 0x22 PUSH1 0x4 MSTORE PUSH1 0x24 PUSH0 REVERT JUMPDEST PUSH0 PUSH1 0x2 DUP3 DIV SWAP1 POP PUSH1 0x1 DUP3 AND DUP1 PUSH3 0xB7B JUMPI PUSH1 0x7F DUP3 AND SWAP2 POP JUMPDEST PUSH1 0x20 DUP3 LT DUP2 SUB PUSH3 0xB91 JUMPI PUSH3 0xB90 PUSH3 0xB36 JUMP JUMPDEST JUMPDEST POP SWAP2 SWAP1 POP JUMP JUMPDEST PUSH0 DUP2 SWAP1 POP DUP2 PUSH0 MSTORE PUSH1 0x20 PUSH0 KECCAK256 SWAP1 POP SWAP2 SWAP1 POP JUMP JUMPDEST PUSH0 PUSH1 0x20 PUSH1 0x1F DUP4 ADD DIV SWAP1 POP SWAP2 SWAP1 POP JUMP JUMPDEST PUSH0 DUP3 DUP3 SHL SWAP1 POP SWAP3 SWAP2 POP POP JUMP JUMPDEST PUSH0 PUSH1 0x8 DUP4 MUL PUSH3 0xBF5 PUSH32 0xFFFFFFFFFFFFFFFFFFFFFFFFFFFFFFFFFFFFFFFFFFFFFFFFFFFFFFFFFFFFFFFF DUP3 PUSH3 0xBB8 JUMP JUMPDEST PUSH3 0xC01 DUP7 DUP4 PUSH3 0xBB8 JUMP JUMPDEST SWAP6 POP DUP1 NOT DUP5 AND SWAP4 POP DUP1 DUP7 AND DUP5 OR SWAP3 POP POP POP SWAP4 SWAP3 POP POP POP JUMP JUMPDEST PUSH0 DUP2 SWAP1 POP SWAP2 SWAP1 POP JUMP JUMPDEST PUSH0 PUSH3 0xC42 PUSH3 0xC3C PUSH3 0xC36 DUP5 PUSH3 0x9EC JUMP JUMPDEST PUSH3 0xC19 JUMP JUMPDEST PUSH3 0x9EC JUMP JUMPDEST SWAP1 POP SWAP2 SWAP1 POP JUMP JUMPDEST PUSH0 DUP2 SWAP1 POP SWAP2 SWAP1 POP JUMP JUMPDEST PUSH3 0xC5D DUP4 PUSH3 0xC22 JUMP JUMPDEST PUSH3 0xC75 PUSH3 0xC6C DUP3 PUSH3 0xC49 JUMP JUMPDEST DUP5 DUP5 SLOAD PUSH3 0xBC4 JUMP JUMPDEST DUP3 SSTORE POP POP POP POP JUMP JUMPDEST PUSH0 SWAP1 JUMP JUMPDEST PUSH3 0xC8B PUSH3 0xC7D JUMP JUMPDEST PUSH3 0xC98 DUP2 DUP5 DUP5 PUSH3 0xC52 JUMP JUMPDEST POP POP POP JUMP JUMPDEST JUMPDEST DUP2 DUP2 LT ISZERO PUSH3 0xCBF JUMPI PUSH3 0xCB3 PUSH0 DUP3 PUSH3 0xC81 JUMP JUMPDEST PUSH1 0x1 DUP2 ADD SWAP1 POP PUSH3 0xC9E JUMP JUMPDEST POP POP JUMP JUMPDEST PUSH1 0x1F DUP3 GT ISZERO PUSH3 0xD0E JUMPI PUSH3 0xCD8 DUP2 PUSH3 0xB97 JUMP JUMPDEST PUSH3 0xCE3 DUP5 PUSH3 0xBA9 JUMP JUMPDEST DUP2 ADD PUSH1 0x20 DUP6 LT ISZERO PUSH3 0xCF3 JUMPI DUP2 SWAP1 POP JUMPDEST PUSH3 0xD0B PUSH3 0xD02 DUP6 PUSH3 0xBA9 JUMP JUMPDEST DUP4 ADD DUP3 PUSH3 0xC9D JUMP JUMPDEST POP POP JUMPDEST POP POP POP JUMP JUMPDEST PUSH0 DUP3 DUP3 SHR SWAP1 POP SWAP3 SWAP2 POP POP JUMP JUMPDEST PUSH0 PUSH3 0xD30 PUSH0 NOT DUP5 PUSH1 0x8 MUL PUSH3 0xD13 JUMP JUMPDEST NOT DUP1 DUP4 AND SWAP2 POP POP SWAP3 SWAP2 POP POP JUMP JUMPDEST PUSH0 PUSH3 0xD4A DUP4 DUP4 PUSH3 0xD1F JUMP JUMPDEST SWAP2 POP DUP3 PUSH1 0x2 MUL DUP3 OR SWAP1 POP SWAP3 SWAP2 POP POP JUMP JUMPDEST PUSH3 0xD65 DUP3 PUSH3 0xAFF JUMP JUMPDEST PUSH8 0xFFFFFFFFFFFFFFFF DUP2 GT ISZERO PUSH3 0xD81 JUMPI PUSH3 0xD80 PUSH3 0xB09 JUMP JUMPDEST JUMPDEST PUSH3 0xD8D DUP3 SLOAD PUSH3 0xB63 JUMP JUMPDEST PUSH3 0xD9A DUP3 DUP3 DUP6 PUSH3 0xCC3 JUMP JUMPDEST PUSH0 PUSH1 0x20 SWAP1 POP PUSH1 0x1F DUP4 GT PUSH1 0x1 DUP2 EQ PUSH3 0xDD0 JUMPI PUSH0 DUP5 ISZERO PUSH3 0xDBB JUMPI DUP3 DUP8 ADD MLOAD SWAP1 POP JUMPDEST PUSH3 0xDC7 DUP6 DUP3 PUSH3 0xD3D JUMP JUMPDEST DUP7 SSTORE POP PUSH3 0xE36 JUMP JUMPDEST PUSH1 0x1F NOT DUP5 AND PUSH3 0xDE0 DUP7 PUSH3 0xB97 JUMP JUMPDEST PUSH0 JUMPDEST DUP3 DUP2 LT ISZERO PUSH3 0xE09 JUMPI DUP5 DUP10 ADD MLOAD DUP3 SSTORE PUSH1 0x1 DUP3 ADD SWAP2 POP PUSH1 0x20 DUP6 ADD SWAP5 POP PUSH1 0x20 DUP2 ADD SWAP1 POP PUSH3 0xDE2 JUMP JUMPDEST DUP7 DUP4 LT ISZERO PUSH3 0xE29 JUMPI DUP5 DUP10 ADD MLOAD PUSH3 0xE25 PUSH1 0x1F DUP10 AND DUP3 PUSH3 0xD1F JUMP JUMPDEST DUP4 SSTORE POP JUMPDEST PUSH1 0x1 PUSH1 0x2 DUP9 MUL ADD DUP9 SSTORE POP POP POP JUMPDEST POP POP POP POP POP POP JUMP JUMPDEST PUSH32 0x4E487B7100000000000000000000000000000000000000000000000000000000 PUSH0 MSTORE PUSH1 0x21 PUSH1 0x4 MSTORE PUSH1 0x24 PUSH0 REVERT JUMPDEST PUSH0 PUSH3 0xE77 DUP3 PUSH3 0x9EC JUMP JUMPDEST SWAP2 POP PUSH3 0xE84 DUP4 PUSH3 0x9EC JUMP JUMPDEST SWAP3 POP DUP3 DUP3 SUB SWAP1 POP DUP2 DUP2 GT ISZERO PUSH3 0xE9F JUMPI PUSH3 0xE9E PUSH3 0x86F JUMP JUMPDEST JUMPDEST SWAP3 SWAP2 POP POP JUMP JUMPDEST PUSH0 DUP3 DUP3 MSTORE PUSH1 0x20 DUP3 ADD SWAP1 POP SWAP3 SWAP2 POP POP JUMP JUMPDEST PUSH32 0x45524332303A206D696E7420746F20746865207A65726F206164647265737300 PUSH0 DUP3 ADD MSTORE POP JUMP JUMPDEST PUSH0 PUSH3 0xEEB PUSH1 0x1F DUP4 PUSH3 0xEA5 JUMP JUMPDEST SWAP2 POP PUSH3 0xEF8 DUP3 PUSH3 0xEB5 JUMP JUMPDEST PUSH1 0x20 DUP3 ADD SWAP1 POP SWAP2 SWAP1 POP JUMP JUMPDEST PUSH0 PUSH1 0x20 DUP3 ADD SWAP1 POP DUP2 DUP2 SUB PUSH0 DUP4 ADD MSTORE PUSH3 0xF1C DUP2 PUSH3 0xEDD JUMP JUMPDEST SWAP1 POP SWAP2 SWAP1 POP JUMP JUMPDEST PUSH0 PUSH3 0xF2F DUP3 PUSH3 0x9EC JUMP JUMPDEST SWAP2 POP PUSH3 0xF3C DUP4 PUSH3 0x9EC JUMP JUMPDEST SWAP3 POP DUP3 DUP3 ADD SWAP1 POP DUP1 DUP3 GT ISZERO PUSH3 0xF57 JUMPI PUSH3 0xF56 PUSH3 0x86F JUMP JUMPDEST JUMPDEST SWAP3 SWAP2 POP POP JUMP JUMPDEST PUSH3 0xF68 DUP2 PUSH3 0x9EC JUMP JUMPDEST DUP3 MSTORE POP POP JUMP JUMPDEST PUSH0 PUSH1 0x20 DUP3 ADD SWAP1 POP PUSH3 0xF83 PUSH0 DUP4 ADD DUP5 PUSH3 0xF5D JUMP JUMPDEST SWAP3 SWAP2 POP POP JUMP JUMPDEST PUSH32 0x45524332303A207472616E736665722066726F6D20746865207A65726F206164 PUSH0 DUP3 ADD MSTORE PUSH32 0x6472657373000000000000000000000000000000000000000000000000000000 PUSH1 0x20 DUP3 ADD MSTORE POP JUMP JUMPDEST PUSH0 PUSH3 0xFE5 PUSH1 0x25 DUP4 PUSH3 0xEA5 JUMP JUMPDEST SWAP2 POP PUSH3 0xFF2 DUP3 PUSH3 0xF89 JUMP JUMPDEST PUSH1 0x40 DUP3 ADD SWAP1 POP SWAP2 SWAP1 POP JUMP JUMPDEST PUSH0 PUSH1 0x20 DUP3 ADD SWAP1 POP DUP2 DUP2 SUB PUSH0 DUP4 ADD MSTORE PUSH3 0x1016 DUP2 PUSH3 0xFD7 JUMP JUMPDEST SWAP1 POP SWAP2 SWAP1 POP JUMP JUMPDEST PUSH32 0x45524332303A207472616E7366657220746F20746865207A65726F2061646472 PUSH0 DUP3 ADD MSTORE PUSH32 0x6573730000000000000000000000000000000000000000000000000000000000 PUSH1 0x20 DUP3 ADD MSTORE POP JUMP JUMPDEST PUSH0 PUSH3 0x1079 PUSH1 0x23 DUP4 PUSH3 0xEA5 JUMP JUMPDEST SWAP2 POP PUSH3 0x1086 DUP3 PUSH3 0x101D JUMP JUMPDEST PUSH1 0x40 DUP3 ADD SWAP1 POP SWAP2 SWAP1 POP JUMP JUMPDEST PUSH0 PUSH1 0x20 DUP3 ADD SWAP1 POP DUP2 DUP2 SUB PUSH0 DUP4 ADD MSTORE PUSH3 0x10AA DUP2 PUSH3 0x106B JUMP JUMPDEST SWAP1 POP SWAP2 SWAP1 POP JUMP JUMPDEST PUSH32 0x45524332303A207472616E7366657220616D6F756E7420657863656564732062 PUSH0 DUP3 ADD MSTORE PUSH32 0x616C616E63650000000000000000000000000000000000000000000000000000 PUSH1 0x20 DUP3 ADD MSTORE POP JUMP JUMPDEST PUSH0 PUSH3 0x110D PUSH1 0x26 DUP4 PUSH3 0xEA5 JUMP JUMPDEST SWAP2 POP PUSH3 0x111A DUP3 PUSH3 0x10B1 JUMP JUMPDEST PUSH1 0x40 DUP3 ADD SWAP1 POP SWAP2 SWAP1 POP JUMP JUMPDEST PUSH0 PUSH1 0x20 DUP3 ADD SWAP1 POP DUP2 DUP2 SUB PUSH0 DUP4 ADD MSTORE PUSH3 0x113E DUP2 PUSH3 0x10FF JUMP JUMPDEST SWAP1 POP SWAP2 SWAP1 POP JUMP JUMPDEST PUSH2 0x3359 DUP1 PUSH3 0x1153 PUSH0 CODECOPY PUSH0 RETURN INVALID PUSH1 0x80 PUSH1 0x40 MSTORE PUSH1 0x4 CALLDATASIZE LT PUSH2 0x203 JUMPI PUSH0 CALLDATALOAD PUSH1 0xE0 SHR DUP1 PUSH4 0x81D12C58 GT PUSH2 0x117 JUMPI DUP1 PUSH4 0xA945BF80 GT PUSH2 0x9F JUMPI DUP1 PUSH4 0xE0C6190D GT PUSH2 0x6E JUMPI DUP1 PUSH4 0xE0C6190D EQ PUSH2 0x790 JUMPI DUP1 PUSH4 0xEA7D5165 EQ PUSH2 0x7BA JUMPI DUP1 PUSH4 0xEC684EB3 EQ PUSH2 0x7E2 JUMPI DUP1 PUSH4 0xF2DFD08F EQ PUSH2 0x80C JUMPI DUP1 PUSH4 0xFD74D294 EQ PUSH2 0x828 JUMPI PUSH2 0x203 JUMP JUMPDEST DUP1 PUSH4 0xA945BF80 EQ PUSH2 0x6D8 JUMPI DUP1 PUSH4 0xD95660BE EQ PUSH2 0x702 JUMPI DUP1 PUSH4 0xDB8FB88E EQ PUSH2 0x72C JUMPI DUP1 PUSH4 0xDD62ED3E EQ PUSH2 0x754 JUMPI PUSH2 0x203 JUMP JUMPDEST DUP1 PUSH4 0x937BE371 GT PUSH2 0xE6 JUMPI DUP1 PUSH4 0x937BE371 EQ PUSH2 0x5E4 JUMPI DUP1 PUSH4 0x95D89B41 EQ PUSH2 0x60E JUMPI DUP1 PUSH4 0x9D7E8D5F EQ PUSH2 0x638 JUMPI DUP1 PUSH4 0xA457C2D7 EQ PUSH2 0x660 JUMPI DUP1 PUSH4 0xA9059CBB EQ PUSH2 0x69C JUMPI PUSH2 0x203 JUMP JUMPDEST DUP1 PUSH4 0x81D12C58 EQ PUSH2 0x52B JUMPI DUP1 PUSH4 0x896E8CB1 EQ PUSH2 0x568 JUMPI DUP1 PUSH4 0x8AFFF13F EQ PUSH2 0x590 JUMPI DUP1 PUSH4 0x8DA5CB5B EQ PUSH2 0x5BA JUMPI PUSH2 0x203 JUMP JUMPDEST DUP1 PUSH4 0x32454DBB GT PUSH2 0x19A JUMPI DUP1 PUSH4 0x6515D6C1 GT PUSH2 0x169 JUMPI DUP1 PUSH4 0x6515D6C1 EQ PUSH2 0x45F JUMPI DUP1 PUSH4 0x67198042 EQ PUSH2 0x487 JUMPI DUP1 PUSH4 0x6DFA00FE EQ PUSH2 0x49D JUMPI DUP1 PUSH4 0x6FF32B22 EQ PUSH2 0x4C5 JUMPI DUP1 PUSH4 0x70A08231 EQ PUSH2 0x4EF JUMPI PUSH2 0x203 JUMP JUMPDEST DUP1 PUSH4 0x32454DBB EQ PUSH2 0x381 JUMPI DUP1 PUSH4 0x39509351 EQ PUSH2 0x3AB JUMPI DUP1 PUSH4 0x534F5680 EQ PUSH2 0x3E7 JUMPI DUP1 PUSH4 0x5C475D42 EQ PUSH2 0x423 JUMPI PUSH2 0x203 JUMP JUMPDEST DUP1 PUSH4 0x23B872DD GT PUSH2 0x1D6 JUMPI DUP1 PUSH4 0x23B872DD EQ PUSH2 0x2C1 JUMPI DUP1 PUSH4 0x254DC45E EQ PUSH2 0x2FD JUMPI DUP1 PUSH4 0x26F67490 EQ PUSH2 0x32D JUMPI DUP1 PUSH4 0x313CE567 EQ PUSH2 0x357 JUMPI PUSH2 0x203 JUMP JUMPDEST DUP1 PUSH4 0x6FDDE03 EQ PUSH2 0x207 JUMPI DUP1 PUSH4 0x95EA7B3 EQ PUSH2 0x231 JUMPI DUP1 PUSH4 0x13962801 EQ PUSH2 0x26D JUMPI DUP1 PUSH4 0x18160DDD EQ PUSH2 0x297 JUMPI JUMPDEST PUSH0 DUP1 REVERT JUMPDEST CALLVALUE DUP1 ISZERO PUSH2 0x212 JUMPI PUSH0 DUP1 REVERT JUMPDEST POP PUSH2 0x21B PUSH2 0x852 JUMP JUMPDEST PUSH1 0x40 MLOAD PUSH2 0x228 SWAP2 SWAP1 PUSH2 0x1E05 JUMP JUMPDEST PUSH1 0x40 MLOAD DUP1 SWAP2 SUB SWAP1 RETURN JUMPDEST CALLVALUE DUP1 ISZERO PUSH2 0x23C JUMPI PUSH0 DUP1 REVERT JUMPDEST POP PUSH2 0x257 PUSH1 0x4 DUP1 CALLDATASIZE SUB DUP2 ADD SWAP1 PUSH2 0x252 SWAP2 SWAP1 PUSH2 0x1EC3 JUMP JUMPDEST PUSH2 0x8E2 JUMP JUMPDEST PUSH1 0x40 MLOAD PUSH2 0x264 SWAP2 SWAP1 PUSH2 0x1F1B JUMP JUMPDEST PUSH1 0x40 MLOAD DUP1 SWAP2 SUB SWAP1 RETURN JUMPDEST CALLVALUE DUP1 ISZERO PUSH2 0x278 JUMPI PUSH0 DUP1 REVERT JUMPDEST POP PUSH2 0x281 PUSH2 0x904 JUMP JUMPDEST PUSH1 0x40 MLOAD PUSH2 0x28E SWAP2 SWAP1 PUSH2 0x1F43 JUMP JUMPDEST PUSH1 0x40 MLOAD DUP1 SWAP2 SUB SWAP1 RETURN JUMPDEST CALLVALUE DUP1 ISZERO PUSH2 0x2A2 JUMPI PUSH0 DUP1 REVERT JUMPDEST POP PUSH2 0x2AB PUSH2 0x90A JUMP JUMPDEST PUSH1 0x40 MLOAD PUSH2 0x2B8 SWAP2 SWAP1 PUSH2 0x1F43 JUMP JUMPDEST PUSH1 0x40 MLOAD DUP1 SWAP2 SUB SWAP1 RETURN JUMPDEST CALLVALUE DUP1 ISZERO PUSH2 0x2CC JUMPI PUSH0 DUP1 REVERT JUMPDEST POP PUSH2 0x2E7 PUSH1 0x4 DUP1 CALLDATASIZE SUB DUP2 ADD SWAP1 PUSH2 0x2E2 SWAP2 SWAP1 PUSH2 0x1F5C JUMP JUMPDEST PUSH2 0x913 JUMP JUMPDEST PUSH1 0x40 MLOAD PUSH2 0x2F4 SWAP2 SWAP1 PUSH2 0x1F1B JUMP JUMPDEST PUSH1 0x40 MLOAD DUP1 SWAP2 SUB SWAP1 RETURN JUMPDEST PUSH2 0x317 PUSH1 0x4 DUP1 CALLDATASIZE SUB DUP2 ADD SWAP1 PUSH2 0x312 SWAP2 SWAP1 PUSH2 0x1FAC JUMP JUMPDEST PUSH2 0x941 JUMP JUMPDEST PUSH1 0x40 MLOAD PUSH2 0x324 SWAP2 SWAP1 PUSH2 0x1E05 JUMP JUMPDEST PUSH1 0x40 MLOAD DUP1 SWAP2 SUB SWAP1 RETURN JUMPDEST CALLVALUE DUP1 ISZERO PUSH2 0x338 JUMPI PUSH0 DUP1 REVERT JUMPDEST POP PUSH2 0x341 PUSH2 0xC2E JUMP JUMPDEST PUSH1 0x40 MLOAD PUSH2 0x34E SWAP2 SWAP1 PUSH2 0x1F43 JUMP JUMPDEST PUSH1 0x40 MLOAD DUP1 SWAP2 SUB SWAP1 RETURN JUMPDEST CALLVALUE DUP1 ISZERO PUSH2 0x362 JUMPI PUSH0 DUP1 REVERT JUMPDEST POP PUSH2 0x36B PUSH2 0xC34 JUMP JUMPDEST PUSH1 0x40 MLOAD PUSH2 0x378 SWAP2 SWAP1 PUSH2 0x1FF2 JUMP JUMPDEST PUSH1 0x40 MLOAD DUP1 SWAP2 SUB SWAP1 RETURN JUMPDEST CALLVALUE DUP1 ISZERO PUSH2 0x38C JUMPI PUSH0 DUP1 REVERT JUMPDEST POP PUSH2 0x395 PUSH2 0xC3C JUMP JUMPDEST PUSH1 0x40 MLOAD PUSH2 0x3A2 SWAP2 SWAP1 PUSH2 0x1F43 JUMP JUMPDEST PUSH1 0x40 MLOAD DUP1 SWAP2 SUB SWAP1 RETURN JUMPDEST CALLVALUE DUP1 ISZERO PUSH2 0x3B6 JUMPI PUSH0 DUP1 REVERT JUMPDEST POP PUSH2 0x3D1 PUSH1 0x4 DUP1 CALLDATASIZE SUB DUP2 ADD SWAP1 PUSH2 0x3CC SWAP2 SWAP1 PUSH2 0x1EC3 JUMP JUMPDEST PUSH2 0xC42 JUMP JUMPDEST PUSH1 0x40 MLOAD PUSH2 0x3DE SWAP2 SWAP1 PUSH2 0x1F1B JUMP JUMPDEST PUSH1 0x40 MLOAD DUP1 SWAP2 SUB SWAP1 RETURN JUMPDEST CALLVALUE DUP1 ISZERO PUSH2 0x3F2 JUMPI PUSH0 DUP1 REVERT JUMPDEST POP PUSH2 0x40D PUSH1 0x4 DUP1 CALLDATASIZE SUB DUP2 ADD SWAP1 PUSH2 0x408 SWAP2 SWAP1 PUSH2 0x200B JUMP JUMPDEST PUSH2 0xC78 JUMP JUMPDEST PUSH1 0x40 MLOAD PUSH2 0x41A SWAP2 SWAP1 PUSH2 0x20A9 JUMP JUMPDEST PUSH1 0x40 MLOAD DUP1 SWAP2 SUB SWAP1 RETURN JUMPDEST CALLVALUE DUP1 ISZERO PUSH2 0x42E JUMPI PUSH0 DUP1 REVERT JUMPDEST POP PUSH2 0x449 PUSH1 0x4 DUP1 CALLDATASIZE SUB DUP2 ADD SWAP1 PUSH2 0x444 SWAP2 SWAP1 PUSH2 0x1FAC JUMP JUMPDEST PUSH2 0xC95 JUMP JUMPDEST PUSH1 0x40 MLOAD PUSH2 0x456 SWAP2 SWAP1 PUSH2 0x20D1 JUMP JUMPDEST PUSH1 0x40 MLOAD DUP1 SWAP2 SUB SWAP1 RETURN JUMPDEST CALLVALUE DUP1 ISZERO PUSH2 0x46A JUMPI PUSH0 DUP1 REVERT JUMPDEST POP PUSH2 0x485 PUSH1 0x4 DUP1 CALLDATASIZE SUB DUP2 ADD SWAP1 PUSH2 0x480 SWAP2 SWAP1 PUSH2 0x20EA JUMP JUMPDEST PUSH2 0xCD0 JUMP JUMPDEST STOP JUMPDEST CALLVALUE DUP1 ISZERO PUSH2 0x492 JUMPI PUSH0 DUP1 REVERT JUMPDEST POP PUSH2 0x49B PUSH2 0xDC7 JUMP JUMPDEST STOP JUMPDEST CALLVALUE DUP1 ISZERO PUSH2 0x4A8 JUMPI PUSH0 DUP1 REVERT JUMPDEST POP PUSH2 0x4C3 PUSH1 0x4 DUP1 CALLDATASIZE SUB DUP2 ADD SWAP1 PUSH2 0x4BE SWAP2 SWAP1 PUSH2 0x1FAC JUMP JUMPDEST PUSH2 0xE1F JUMP JUMPDEST STOP JUMPDEST CALLVALUE DUP1 ISZERO PUSH2 0x4D0 JUMPI PUSH0 DUP1 REVERT JUMPDEST POP PUSH2 0x4D9 PUSH2 0xE46 JUMP JUMPDEST PUSH1 0x40 MLOAD PUSH2 0x4E6 SWAP2 SWAP1 PUSH2 0x1F43 JUMP JUMPDEST PUSH1 0x40 MLOAD DUP1 SWAP2 SUB SWAP1 RETURN JUMPDEST CALLVALUE DUP1 ISZERO PUSH2 0x4FA JUMPI PUSH0 DUP1 REVERT JUMPDEST POP PUSH2 0x515 PUSH1 0x4 DUP1 CALLDATASIZE SUB DUP2 ADD SWAP1 PUSH2 0x510 SWAP2 SWAP1 PUSH2 0x200B JUMP JUMPDEST PUSH2 0xE4C JUMP JUMPDEST PUSH1 0x40 MLOAD PUSH2 0x522 SWAP2 SWAP1 PUSH2 0x1F43 JUMP JUMPDEST PUSH1 0x40 MLOAD DUP1 SWAP2 SUB SWAP1 RETURN JUMPDEST CALLVALUE DUP1 ISZERO PUSH2 0x536 JUMPI PUSH0 DUP1 REVERT JUMPDEST POP PUSH2 0x551 PUSH1 0x4 DUP1 CALLDATASIZE SUB DUP2 ADD SWAP1 PUSH2 0x54C SWAP2 SWAP1 PUSH2 0x1FAC JUMP JUMPDEST PUSH2 0xE91 JUMP JUMPDEST PUSH1 0x40 MLOAD PUSH2 0x55F SWAP3 SWAP2 SWAP1 PUSH2 0x2128 JUMP JUMPDEST PUSH1 0x40 MLOAD DUP1 SWAP2 SUB SWAP1 RETURN JUMPDEST CALLVALUE DUP1 ISZERO PUSH2 0x573 JUMPI PUSH0 DUP1 REVERT JUMPDEST POP PUSH2 0x58E PUSH1 0x4 DUP1 CALLDATASIZE SUB DUP2 ADD SWAP1 PUSH2 0x589 SWAP2 SWAP1 PUSH2 0x20EA JUMP JUMPDEST PUSH2 0xF65 JUMP JUMPDEST STOP JUMPDEST CALLVALUE DUP1 ISZERO PUSH2 0x59B JUMPI PUSH0 DUP1 REVERT JUMPDEST POP PUSH2 0x5A4 PUSH2 0x1065 JUMP JUMPDEST PUSH1 0x40 MLOAD PUSH2 0x5B1 SWAP2 SWAP1 PUSH2 0x1F43 JUMP JUMPDEST PUSH1 0x40 MLOAD DUP1 SWAP2 SUB SWAP1 RETURN JUMPDEST CALLVALUE DUP1 ISZERO PUSH2 0x5C5 JUMPI PUSH0 DUP1 REVERT JUMPDEST POP PUSH2 0x5CE PUSH2 0x106B JUMP JUMPDEST PUSH1 0x40 MLOAD PUSH2 0x5DB SWAP2 SWAP1 PUSH2 0x20D1 JUMP JUMPDEST PUSH1 0x40 MLOAD DUP1 SWAP2 SUB SWAP1 RETURN JUMPDEST CALLVALUE DUP1 ISZERO PUSH2 0x5EF JUMPI PUSH0 DUP1 REVERT JUMPDEST POP PUSH2 0x5F8 PUSH2 0x1090 JUMP JUMPDEST PUSH1 0x40 MLOAD PUSH2 0x605 SWAP2 SWAP1 PUSH2 0x1F43 JUMP JUMPDEST PUSH1 0x40 MLOAD DUP1 SWAP2 SUB SWAP1 RETURN JUMPDEST CALLVALUE DUP1 ISZERO PUSH2 0x619 JUMPI PUSH0 DUP1 REVERT JUMPDEST POP PUSH2 0x622 PUSH2 0x1096 JUMP JUMPDEST PUSH1 0x40 MLOAD PUSH2 0x62F SWAP2 SWAP1 PUSH2 0x1E05 JUMP JUMPDEST PUSH1 0x40 MLOAD DUP1 SWAP2 SUB SWAP1 RETURN JUMPDEST CALLVALUE DUP1 ISZERO PUSH2 0x643 JUMPI PUSH0 DUP1 REVERT JUMPDEST POP PUSH2 0x65E PUSH1 0x4 DUP1 CALLDATASIZE SUB DUP2 ADD SWAP1 PUSH2 0x659 SWAP2 SWAP1 PUSH2 0x1FAC JUMP JUMPDEST PUSH2 0x1126 JUMP JUMPDEST STOP JUMPDEST CALLVALUE DUP1 ISZERO PUSH2 0x66B JUMPI PUSH0 DUP1 REVERT JUMPDEST POP PUSH2 0x686 PUSH1 0x4 DUP1 CALLDATASIZE SUB DUP2 ADD SWAP1 PUSH2 0x681 SWAP2 SWAP1 PUSH2 0x1EC3 JUMP JUMPDEST PUSH2 0x11E2 JUMP JUMPDEST PUSH1 0x40 MLOAD PUSH2 0x693 SWAP2 SWAP1 PUSH2 0x1F1B JUMP JUMPDEST PUSH1 0x40 MLOAD DUP1 SWAP2 SUB SWAP1 RETURN JUMPDEST CALLVALUE DUP1 ISZERO PUSH2 0x6A7 JUMPI PUSH0 DUP1 REVERT JUMPDEST POP PUSH2 0x6C2 PUSH1 0x4 DUP1 CALLDATASIZE SUB DUP2 ADD SWAP1 PUSH2 0x6BD SWAP2 SWAP1 PUSH2 0x1EC3 JUMP JUMPDEST PUSH2 0x1257 JUMP JUMPDEST PUSH1 0x40 MLOAD PUSH2 0x6CF SWAP2 SWAP1 PUSH2 0x1F1B JUMP JUMPDEST PUSH1 0x40 MLOAD DUP1 SWAP2 SUB SWAP1 RETURN JUMPDEST CALLVALUE DUP1 ISZERO PUSH2 0x6E3 JUMPI PUSH0 DUP1 REVERT JUMPDEST POP PUSH2 0x6EC PUSH2 0x1279 JUMP JUMPDEST PUSH1 0x40 MLOAD PUSH2 0x6F9 SWAP2 SWAP1 PUSH2 0x1F43 JUMP JUMPDEST PUSH1 0x40 MLOAD DUP1 SWAP2 SUB SWAP1 RETURN JUMPDEST CALLVALUE DUP1 ISZERO PUSH2 0x70D JUMPI PUSH0 DUP1 REVERT JUMPDEST POP PUSH2 0x716 PUSH2 0x127F JUMP JUMPDEST PUSH1 0x40 MLOAD PUSH2 0x723 SWAP2 SWAP1 PUSH2 0x1F43 JUMP JUMPDEST PUSH1 0x40 MLOAD DUP1 SWAP2 SUB SWAP1 RETURN JUMPDEST CALLVALUE DUP1 ISZERO PUSH2 0x737 JUMPI PUSH0 DUP1 REVERT JUMPDEST POP PUSH2 0x752 PUSH1 0x4 DUP1 CALLDATASIZE SUB DUP2 ADD SWAP1 PUSH2 0x74D SWAP2 SWAP1 PUSH2 0x2282 JUMP JUMPDEST PUSH2 0x1285 JUMP JUMPDEST STOP JUMPDEST CALLVALUE DUP1 ISZERO PUSH2 0x75F JUMPI PUSH0 DUP1 REVERT JUMPDEST POP PUSH2 0x77A PUSH1 0x4 DUP1 CALLDATASIZE SUB DUP2 ADD SWAP1 PUSH2 0x775 SWAP2 SWAP1 PUSH2 0x22C9 JUMP JUMPDEST PUSH2 0x1337 JUMP JUMPDEST PUSH1 0x40 MLOAD PUSH2 0x787 SWAP2 SWAP1 PUSH2 0x1F43 JUMP JUMPDEST PUSH1 0x40 MLOAD DUP1 SWAP2 SUB SWAP1 RETURN JUMPDEST CALLVALUE DUP1 ISZERO PUSH2 0x79B JUMPI PUSH0 DUP1 REVERT JUMPDEST POP PUSH2 0x7A4 PUSH2 0x13B9 JUMP JUMPDEST PUSH1 0x40 MLOAD PUSH2 0x7B1 SWAP2 SWAP1 PUSH2 0x1F43 JUMP JUMPDEST PUSH1 0x40 MLOAD DUP1 SWAP2 SUB SWAP1 RETURN JUMPDEST CALLVALUE DUP1 ISZERO PUSH2 0x7C5 JUMPI PUSH0 DUP1 REVERT JUMPDEST POP PUSH2 0x7E0 PUSH1 0x4 DUP1 CALLDATASIZE SUB DUP2 ADD SWAP1 PUSH2 0x7DB SWAP2 SWAP1 PUSH2 0x2331 JUMP JUMPDEST PUSH2 0x13FD JUMP JUMPDEST STOP JUMPDEST CALLVALUE DUP1 ISZERO PUSH2 0x7ED JUMPI PUSH0 DUP1 REVERT JUMPDEST POP PUSH2 0x7F6 PUSH2 0x15B8 JUMP JUMPDEST PUSH1 0x40 MLOAD PUSH2 0x803 SWAP2 SWAP1 PUSH2 0x1F43 JUMP JUMPDEST PUSH1 0x40 MLOAD DUP1 SWAP2 SUB SWAP1 RETURN JUMPDEST PUSH2 0x826 PUSH1 0x4 DUP1 CALLDATASIZE SUB DUP2 ADD SWAP1 PUSH2 0x821 SWAP2 SWAP1 PUSH2 0x1FAC JUMP JUMPDEST PUSH2 0x15BE JUMP JUMPDEST STOP JUMPDEST CALLVALUE DUP1 ISZERO PUSH2 0x833 JUMPI PUSH0 DUP1 REVERT JUMPDEST POP PUSH2 0x83C PUSH2 0x176B JUMP JUMPDEST PUSH1 0x40 MLOAD PUSH2 0x849 SWAP2 SWAP1 PUSH2 0x1F43 JUMP JUMPDEST PUSH1 0x40 MLOAD DUP1 SWAP2 SUB SWAP1 RETURN JUMPDEST PUSH1 0x60 PUSH1 0x3 DUP1 SLOAD PUSH2 0x861 SWAP1 PUSH2 0x239C JUMP JUMPDEST DUP1 PUSH1 0x1F ADD PUSH1 0x20 DUP1 SWAP2 DIV MUL PUSH1 0x20 ADD PUSH1 0x40 MLOAD SWAP1 DUP2 ADD PUSH1 0x40 MSTORE DUP1 SWAP3 SWAP2 SWAP1 DUP2 DUP2 MSTORE PUSH1 0x20 ADD DUP3 DUP1 SLOAD PUSH2 0x88D SWAP1 PUSH2 0x239C JUMP JUMPDEST DUP1 ISZERO PUSH2 0x8D8 JUMPI DUP1 PUSH1 0x1F LT PUSH2 0x8AF JUMPI PUSH2 0x100 DUP1 DUP4 SLOAD DIV MUL DUP4 MSTORE SWAP2 PUSH1 0x20 ADD SWAP2 PUSH2 0x8D8 JUMP JUMPDEST DUP3 ADD SWAP2 SWAP1 PUSH0 MSTORE PUSH1 0x20 PUSH0 KECCAK256 SWAP1 JUMPDEST DUP2 SLOAD DUP2 MSTORE SWAP1 PUSH1 0x1 ADD SWAP1 PUSH1 0x20 ADD DUP1 DUP4 GT PUSH2 0x8BB JUMPI DUP3 SWAP1 SUB PUSH1 0x1F AND DUP3 ADD SWAP2 JUMPDEST POP POP POP POP POP SWAP1 POP SWAP1 JUMP JUMPDEST PUSH0 DUP1 PUSH2 0x8EC PUSH2 0x1771 JUMP JUMPDEST SWAP1 POP PUSH2 0x8F9 DUP2 DUP6 DUP6 PUSH2 0x1778 JUMP JUMPDEST PUSH1 0x1 SWAP2 POP POP SWAP3 SWAP2 POP POP JUMP JUMPDEST PUSH1 0xE SLOAD DUP2 JUMP JUMPDEST PUSH0 PUSH1 0x2 SLOAD SWAP1 POP SWAP1 JUMP JUMPDEST PUSH0 DUP1 PUSH2 0x91D PUSH2 0x1771 JUMP JUMPDEST SWAP1 POP PUSH2 0x92A DUP6 DUP3 DUP6 PUSH2 0x193B JUMP JUMPDEST PUSH2 0x935 DUP6 DUP6 DUP6 PUSH2 0x19C6 JUMP JUMPDEST PUSH1 0x1 SWAP2 POP POP SWAP4 SWAP3 POP POP POP JUMP JUMPDEST PUSH1 0x60 PUSH1 0x5 PUSH2 0x94D PUSH2 0x13B9 JUMP JUMPDEST LT ISZERO PUSH2 0x98E JUMPI PUSH1 0x40 MLOAD PUSH32 0x8C379A000000000000000000000000000000000000000000000000000000000 DUP2 MSTORE PUSH1 0x4 ADD PUSH2 0x985 SWAP1 PUSH2 0x243C JUMP JUMPDEST PUSH1 0x40 MLOAD DUP1 SWAP2 SUB SWAP1 REVERT JUMPDEST PUSH1 0xF PUSH2 0x998 PUSH2 0x13B9 JUMP JUMPDEST GT ISZERO PUSH2 0x9D9 JUMPI PUSH1 0x40 MLOAD PUSH32 0x8C379A000000000000000000000000000000000000000000000000000000000 DUP2 MSTORE PUSH1 0x4 ADD PUSH2 0x9D0 SWAP1 PUSH2 0x24CA JUMP JUMPDEST PUSH1 0x40 MLOAD DUP1 SWAP2 SUB SWAP1 REVERT JUMPDEST PUSH3 0x186A0 DUP3 GT ISZERO PUSH2 0xA1F JUMPI PUSH1 0x40 MLOAD PUSH32 0x8C379A000000000000000000000000000000000000000000000000000000000 DUP2 MSTORE PUSH1 0x4 ADD PUSH2 0xA16 SWAP1 PUSH2 0x2558 JUMP JUMPDEST PUSH1 0x40 MLOAD DUP1 SWAP2 SUB SWAP1 REVERT JUMPDEST PUSH0 PUSH1 0x7 SLOAD GT PUSH2 0xA63 JUMPI PUSH1 0x40 MLOAD PUSH32 0x8C379A000000000000000000000000000000000000000000000000000000000 DUP2 MSTORE PUSH1 0x4 ADD PUSH2 0xA5A SWAP1 PUSH2 0x25E6 JUMP JUMPDEST PUSH1 0x40 MLOAD DUP1 SWAP2 SUB SWAP1 REVERT JUMPDEST PUSH0 JUMPDEST PUSH1 0x12 DUP1 SLOAD SWAP1 POP DUP2 LT ISZERO PUSH2 0xC0C JUMPI PUSH1 0x12 DUP2 DUP2 SLOAD DUP2 LT PUSH2 0xA86 JUMPI PUSH2 0xA85 PUSH2 0x2604 JUMP JUMPDEST JUMPDEST SWAP1 PUSH0 MSTORE PUSH1 0x20 PUSH0 KECCAK256 ADD PUSH0 SWAP1 SLOAD SWAP1 PUSH2 0x100 EXP SWAP1 DIV PUSH20 0xFFFFFFFFFFFFFFFFFFFFFFFFFFFFFFFFFFFFFFFF AND PUSH20 0xFFFFFFFFFFFFFFFFFFFFFFFFFFFFFFFFFFFFFFFF AND CALLER PUSH20 0xFFFFFFFFFFFFFFFFFFFFFFFFFFFFFFFFFFFFFFFF AND SUB PUSH2 0xBBB JUMPI PUSH2 0xB2A PUSH1 0xF PUSH0 SWAP1 SLOAD SWAP1 PUSH2 0x100 EXP SWAP1 DIV PUSH20 0xFFFFFFFFFFFFFFFFFFFFFFFFFFFFFFFFFFFFFFFF AND CALLER PUSH2 0xB0E PUSH2 0xC34 JUMP JUMPDEST PUSH1 0xA PUSH2 0xB1A SWAP2 SWAP1 PUSH2 0x278D JUMP JUMPDEST DUP7 PUSH2 0xB25 SWAP2 SWAP1 PUSH2 0x27D7 JUMP JUMPDEST PUSH2 0x19C6 JUMP JUMPDEST PUSH2 0xB32 PUSH2 0xC34 JUMP JUMPDEST PUSH1 0xA PUSH2 0xB3E SWAP2 SWAP1 PUSH2 0x278D JUMP JUMPDEST DUP4 PUSH2 0xB49 SWAP2 SWAP1 PUSH2 0x27D7 JUMP JUMPDEST PUSH1 0x7 PUSH0 DUP3 DUP3 SLOAD PUSH2 0xB59 SWAP2 SWAP1 PUSH2 0x2818 JUMP JUMPDEST SWAP3 POP POP DUP2 SWAP1 SSTORE POP CALLER PUSH20 0xFFFFFFFFFFFFFFFFFFFFFFFFFFFFFFFFFFFFFFFF AND PUSH2 0x8FC PUSH7 0x2AA1EFB94E000 DUP6 PUSH2 0xB8D SWAP2 SWAP1 PUSH2 0x27D7 JUMP JUMPDEST SWAP1 DUP2 ISZERO MUL SWAP1 PUSH1 0x40 MLOAD PUSH0 PUSH1 0x40 MLOAD DUP1 DUP4 SUB DUP2 DUP6 DUP9 DUP9 CALL SWAP4 POP POP POP POP ISZERO DUP1 ISZERO PUSH2 0xBB5 JUMPI RETURNDATASIZE PUSH0 DUP1 RETURNDATACOPY RETURNDATASIZE PUSH0 REVERT JUMPDEST POP PUSH2 0xBF9 JUMP JUMPDEST PUSH1 0x40 MLOAD DUP1 PUSH1 0x40 ADD PUSH1 0x40 MSTORE DUP1 PUSH1 0x15 DUP2 MSTORE PUSH1 0x20 ADD PUSH32 0x467265652073616C65206E6F7420737461727465640000000000000000000000 DUP2 MSTORE POP SWAP2 POP POP PUSH2 0xC29 JUMP JUMPDEST DUP1 DUP1 PUSH2 0xC04 SWAP1 PUSH2 0x284B JUMP JUMPDEST SWAP2 POP POP PUSH2 0xA65 JUMP JUMPDEST POP PUSH1 0x40 MLOAD DUP1 PUSH1 0x60 ADD PUSH1 0x40 MSTORE DUP1 PUSH1 0x32 DUP2 MSTORE PUSH1 0x20 ADD PUSH2 0x32F2 PUSH1 0x32 SWAP2 CODECOPY SWAP1 POP JUMPDEST SWAP2 SWAP1 POP JUMP JUMPDEST PUSH1 0x8 SLOAD DUP2 JUMP JUMPDEST PUSH0 PUSH1 0xC SWAP1 POP SWAP1 JUMP JUMPDEST PUSH1 0x5 SLOAD DUP2 JUMP JUMPDEST PUSH0 DUP1 PUSH2 0xC4C PUSH2 0x1771 JUMP JUMPDEST SWAP1 POP PUSH2 0xC6D DUP2 DUP6 DUP6 PUSH2 0xC5E DUP6 DUP10 PUSH2 0x1337 JUMP JUMPDEST PUSH2 0xC68 SWAP2 SWAP1 PUSH2 0x2892 JUMP JUMPDEST PUSH2 0x1778 JUMP JUMPDEST PUSH1 0x1 SWAP2 POP POP SWAP3 SWAP2 POP POP JUMP JUMPDEST PUSH1 0x10 PUSH1 0x20 MSTORE DUP1 PUSH0 MSTORE PUSH1 0x40 PUSH0 KECCAK256 PUSH0 SWAP2 POP SLOAD SWAP1 PUSH2 0x100 EXP SWAP1 DIV PUSH1 0xFF AND DUP2 JUMP JUMPDEST PUSH1 0x12 DUP2 DUP2 SLOAD DUP2 LT PUSH2 0xCA4 JUMPI PUSH0 DUP1 REVERT JUMPDEST SWAP1 PUSH0 MSTORE PUSH1 0x20 PUSH0 KECCAK256 ADD PUSH0 SWAP2 POP SLOAD SWAP1 PUSH2 0x100 EXP SWAP1 DIV PUSH20 0xFFFFFFFFFFFFFFFFFFFFFFFFFFFFFFFFFFFFFFFF AND DUP2 JUMP JUMPDEST PUSH1 0x2 DUP1 PUSH1 0x2 DUP2 GT ISZERO PUSH2 0xCE5 JUMPI PUSH2 0xCE4 PUSH2 0x2036 JUMP JUMPDEST JUMPDEST PUSH1 0x10 PUSH0 CALLER PUSH20 0xFFFFFFFFFFFFFFFFFFFFFFFFFFFFFFFFFFFFFFFF AND PUSH20 0xFFFFFFFFFFFFFFFFFFFFFFFFFFFFFFFFFFFFFFFF AND DUP2 MSTORE PUSH1 0x20 ADD SWAP1 DUP2 MSTORE PUSH1 0x20 ADD PUSH0 KECCAK256 PUSH0 SWAP1 SLOAD SWAP1 PUSH2 0x100 EXP SWAP1 DIV PUSH1 0xFF AND PUSH1 0x2 DUP2 GT ISZERO PUSH2 0xD41 JUMPI PUSH2 0xD40 PUSH2 0x2036 JUMP JUMPDEST JUMPDEST EQ PUSH2 0xD81 JUMPI PUSH1 0x40 MLOAD PUSH32 0x8C379A000000000000000000000000000000000000000000000000000000000 DUP2 MSTORE PUSH1 0x4 ADD PUSH2 0xD78 SWAP1 PUSH2 0x295B JUMP JUMPDEST PUSH1 0x40 MLOAD DUP1 SWAP2 SUB SWAP1 REVERT JUMPDEST PUSH2 0xD8C CALLER DUP4 DUP6 PUSH2 0x19C6 JUMP JUMPDEST PUSH2 0xD94 PUSH2 0xC34 JUMP JUMPDEST PUSH1 0xA PUSH2 0xDA0 SWAP2 SWAP1 PUSH2 0x278D JUMP JUMPDEST DUP4 PUSH2 0xDAB SWAP2 SWAP1 PUSH2 0x27D7 JUMP JUMPDEST PUSH1 0x8 PUSH0 DUP3 DUP3 SLOAD PUSH2 0xDBB SWAP2 SWAP1 PUSH2 0x2818 JUMP JUMPDEST SWAP3 POP POP DUP2 SWAP1 SSTORE POP POP POP POP JUMP JUMPDEST PUSH1 0x5 PUSH2 0xDD1 PUSH2 0x13B9 JUMP JUMPDEST GT ISZERO PUSH2 0xDF2 JUMPI PUSH1 0x6 SLOAD PUSH1 0x9 PUSH0 DUP3 DUP3 SLOAD PUSH2 0xDEA SWAP2 SWAP1 PUSH2 0x2892 JUMP JUMPDEST SWAP3 POP POP DUP2 SWAP1 SSTORE POP JUMPDEST PUSH1 0xF PUSH2 0xDFC PUSH2 0x13B9 JUMP JUMPDEST GT ISZERO PUSH2 0xE1D JUMPI PUSH1 0x7 SLOAD PUSH1 0x9 PUSH0 DUP3 DUP3 SLOAD PUSH2 0xE15 SWAP2 SWAP1 PUSH2 0x2892 JUMP JUMPDEST SWAP3 POP POP DUP2 SWAP1 SSTORE POP JUMPDEST JUMP JUMPDEST PUSH1 0x3C DUP2 PUSH2 0xE2C SWAP2 SWAP1 PUSH2 0x27D7 JUMP JUMPDEST PUSH1 0xD PUSH0 DUP3 DUP3 SLOAD PUSH2 0xE3C SWAP2 SWAP1 PUSH2 0x2892 JUMP JUMPDEST SWAP3 POP POP DUP2 SWAP1 SSTORE POP POP JUMP JUMPDEST PUSH1 0xD SLOAD DUP2 JUMP JUMPDEST PUSH0 DUP1 PUSH0 DUP4 PUSH20 0xFFFFFFFFFFFFFFFFFFFFFFFFFFFFFFFFFFFFFFFF AND PUSH20 0xFFFFFFFFFFFFFFFFFFFFFFFFFFFFFFFFFFFFFFFF AND DUP2 MSTORE PUSH1 0x20 ADD SWAP1 DUP2 MSTORE PUSH1 0x20 ADD PUSH0 KECCAK256 SLOAD SWAP1 POP SWAP2 SWAP1 POP JUMP JUMPDEST PUSH1 0x11 DUP2 DUP2 SLOAD DUP2 LT PUSH2 0xEA0 JUMPI PUSH0 DUP1 REVERT JUMPDEST SWAP1 PUSH0 MSTORE PUSH1 0x20 PUSH0 KECCAK256 SWAP1 PUSH1 0x2 MUL ADD PUSH0 SWAP2 POP SWAP1 POP DUP1 PUSH0 ADD DUP1 SLOAD PUSH2 0xEBF SWAP1 PUSH2 0x239C JUMP JUMPDEST DUP1 PUSH1 0x1F ADD PUSH1 0x20 DUP1 SWAP2 DIV MUL PUSH1 0x20 ADD PUSH1 0x40 MLOAD SWAP1 DUP2 ADD PUSH1 0x40 MSTORE DUP1 SWAP3 SWAP2 SWAP1 DUP2 DUP2 MSTORE PUSH1 0x20 ADD DUP3 DUP1 SLOAD PUSH2 0xEEB SWAP1 PUSH2 0x239C JUMP JUMPDEST DUP1 ISZERO PUSH2 0xF36 JUMPI DUP1 PUSH1 0x1F LT PUSH2 0xF0D JUMPI PUSH2 0x100 DUP1 DUP4 SLOAD DIV MUL DUP4 MSTORE SWAP2 PUSH1 0x20 ADD SWAP2 PUSH2 0xF36 JUMP JUMPDEST DUP3 ADD SWAP2 SWAP1 PUSH0 MSTORE PUSH1 0x20 PUSH0 KECCAK256 SWAP1 JUMPDEST DUP2 SLOAD DUP2 MSTORE SWAP1 PUSH1 0x1 ADD SWAP1 PUSH1 0x20 ADD DUP1 DUP4 GT PUSH2 0xF19 JUMPI DUP3 SWAP1 SUB PUSH1 0x1F AND DUP3 ADD SWAP2 JUMPDEST POP POP POP POP POP SWAP1 DUP1 PUSH1 0x1 ADD PUSH0 SWAP1 SLOAD SWAP1 PUSH2 0x100 EXP SWAP1 DIV PUSH20 0xFFFFFFFFFFFFFFFFFFFFFFFFFFFFFFFFFFFFFFFF AND SWAP1 POP DUP3 JUMP JUMPDEST PUSH1 0xF PUSH0 SWAP1 SLOAD SWAP1 PUSH2 0x100 EXP SWAP1 DIV PUSH20 0xFFFFFFFFFFFFFFFFFFFFFFFFFFFFFFFFFFFFFFFF AND PUSH20 0xFFFFFFFFFFFFFFFFFFFFFFFFFFFFFFFFFFFFFFFF AND CALLER PUSH20 0xFFFFFFFFFFFFFFFFFFFFFFFFFFFFFFFFFFFFFFFF AND EQ PUSH2 0xFF4 JUMPI PUSH1 0x40 MLOAD PUSH32 0x8C379A000000000000000000000000000000000000000000000000000000000 DUP2 MSTORE PUSH1 0x4 ADD PUSH2 0xFEB SWAP1 PUSH2 0x29E9 JUMP JUMPDEST PUSH1 0x40 MLOAD DUP1 SWAP2 SUB SWAP1 REVERT JUMPDEST PUSH0 PUSH1 0x9 SLOAD GT PUSH2 0x1038 JUMPI PUSH1 0x40 MLOAD PUSH32 0x8C379A000000000000000000000000000000000000000000000000000000000 DUP2 MSTORE PUSH1 0x4 ADD PUSH2 0x102F SWAP1 PUSH2 0x2A77 JUMP JUMPDEST PUSH1 0x40 MLOAD DUP1 SWAP2 SUB SWAP1 REVERT JUMPDEST PUSH2 0x1061 CALLER DUP3 PUSH2 0x1045 PUSH2 0xC34 JUMP JUMPDEST PUSH1 0xA PUSH2 0x1051 SWAP2 SWAP1 PUSH2 0x278D JUMP JUMPDEST DUP6 PUSH2 0x105C SWAP2 SWAP1 PUSH2 0x27D7 JUMP JUMPDEST PUSH2 0x19C6 JUMP JUMPDEST POP POP JUMP JUMPDEST PUSH1 0x9 SLOAD DUP2 JUMP JUMPDEST PUSH1 0xF PUSH0 SWAP1 SLOAD SWAP1 PUSH2 0x100 EXP SWAP1 DIV PUSH20 0xFFFFFFFFFFFFFFFFFFFFFFFFFFFFFFFFFFFFFFFF AND DUP2 JUMP JUMPDEST PUSH1 0x6 SLOAD DUP2 JUMP JUMPDEST PUSH1 0x60 PUSH1 0x4 DUP1 SLOAD PUSH2 0x10A5 SWAP1 PUSH2 0x239C JUMP JUMPDEST DUP1 PUSH1 0x1F ADD PUSH1 0x20 DUP1 SWAP2 DIV MUL PUSH1 0x20 ADD PUSH1 0x40 MLOAD SWAP1 DUP2 ADD PUSH1 0x40 MSTORE DUP1 SWAP3 SWAP2 SWAP1 DUP2 DUP2 MSTORE PUSH1 0x20 ADD DUP3 DUP1 SLOAD PUSH2 0x10D1 SWAP1 PUSH2 0x239C JUMP JUMPDEST DUP1 ISZERO PUSH2 0x111C JUMPI DUP1 PUSH1 0x1F LT PUSH2 0x10F3 JUMPI PUSH2 0x100 DUP1 DUP4 SLOAD DIV MUL DUP4 MSTORE SWAP2 PUSH1 0x20 ADD SWAP2 PUSH2 0x111C JUMP JUMPDEST DUP3 ADD SWAP2 SWAP1 PUSH0 MSTORE PUSH1 0x20 PUSH0 KECCAK256 SWAP1 JUMPDEST DUP2 SLOAD DUP2 MSTORE SWAP1 PUSH1 0x1 ADD SWAP1 PUSH1 0x20 ADD DUP1 DUP4 GT PUSH2 0x10FF JUMPI DUP3 SWAP1 SUB PUSH1 0x1F AND DUP3 ADD SWAP2 JUMPDEST POP POP POP POP POP SWAP1 POP SWAP1 JUMP JUMPDEST PUSH1 0x2 DUP1 PUSH1 0x2 DUP2 GT ISZERO PUSH2 0x113B JUMPI PUSH2 0x113A PUSH2 0x2036 JUMP JUMPDEST JUMPDEST PUSH1 0x10 PUSH0 CALLER PUSH20 0xFFFFFFFFFFFFFFFFFFFFFFFFFFFFFFFFFFFFFFFF AND PUSH20 0xFFFFFFFFFFFFFFFFFFFFFFFFFFFFFFFFFFFFFFFF AND DUP2 MSTORE PUSH1 0x20 ADD SWAP1 DUP2 MSTORE PUSH1 0x20 ADD PUSH0 KECCAK256 PUSH0 SWAP1 SLOAD SWAP1 PUSH2 0x100 EXP SWAP1 DIV PUSH1 0xFF AND PUSH1 0x2 DUP2 GT ISZERO PUSH2 0x1197 JUMPI PUSH2 0x1196 PUSH2 0x2036 JUMP JUMPDEST JUMPDEST EQ PUSH2 0x11D7 JUMPI PUSH1 0x40 MLOAD PUSH32 0x8C379A000000000000000000000000000000000000000000000000000000000 DUP2 MSTORE PUSH1 0x4 ADD PUSH2 0x11CE SWAP1 PUSH2 0x295B JUMP JUMPDEST PUSH1 0x40 MLOAD DUP1 SWAP2 SUB SWAP1 REVERT JUMPDEST DUP2 PUSH1 0xA DUP2 SWAP1 SSTORE POP POP POP JUMP JUMPDEST PUSH0 DUP1 PUSH2 0x11EC PUSH2 0x1771 JUMP JUMPDEST SWAP1 POP PUSH0 PUSH2 0x11F9 DUP3 DUP7 PUSH2 0x1337 JUMP JUMPDEST SWAP1 POP DUP4 DUP2 LT ISZERO PUSH2 0x123E JUMPI PUSH1 0x40 MLOAD PUSH32 0x8C379A000000000000000000000000000000000000000000000000000000000 DUP2 MSTORE PUSH1 0x4 ADD PUSH2 0x1235 SWAP1 PUSH2 0x2B05 JUMP JUMPDEST PUSH1 0x40 MLOAD DUP1 SWAP2 SUB SWAP1 REVERT JUMPDEST PUSH2 0x124B DUP3 DUP7 DUP7 DUP5 SUB PUSH2 0x1778 JUMP JUMPDEST PUSH1 0x1 SWAP3 POP POP POP SWAP3 SWAP2 POP POP JUMP JUMPDEST PUSH0 DUP1 PUSH2 0x1261 PUSH2 0x1771 JUMP JUMPDEST SWAP1 POP PUSH2 0x126E DUP2 DUP6 DUP6 PUSH2 0x19C6 JUMP JUMPDEST PUSH1 0x1 SWAP2 POP POP SWAP3 SWAP2 POP POP JUMP JUMPDEST PUSH1 0xA SLOAD DUP2 JUMP JUMPDEST PUSH1 0xC SLOAD DUP2 JUMP JUMPDEST PUSH1 0x11 PUSH1 0x40 MLOAD DUP1 PUSH1 0x40 ADD PUSH1 0x40 MSTORE DUP1 DUP4 DUP2 MSTORE PUSH1 0x20 ADD CALLER PUSH20 0xFFFFFFFFFFFFFFFFFFFFFFFFFFFFFFFFFFFFFFFF AND DUP2 MSTORE POP SWAP1 DUP1 PUSH1 0x1 DUP2 SLOAD ADD DUP1 DUP3 SSTORE DUP1 SWAP2 POP POP PUSH1 0x1 SWAP1 SUB SWAP1 PUSH0 MSTORE PUSH1 0x20 PUSH0 KECCAK256 SWAP1 PUSH1 0x2 MUL ADD PUSH0 SWAP1 SWAP2 SWAP1 SWAP2 SWAP1 SWAP2 POP PUSH0 DUP3 ADD MLOAD DUP2 PUSH0 ADD SWAP1 DUP2 PUSH2 0x12EB SWAP2 SWAP1 PUSH2 0x2CC0 JUMP JUMPDEST POP PUSH1 0x20 DUP3 ADD MLOAD DUP2 PUSH1 0x1 ADD PUSH0 PUSH2 0x100 EXP DUP2 SLOAD DUP2 PUSH20 0xFFFFFFFFFFFFFFFFFFFFFFFFFFFFFFFFFFFFFFFF MUL NOT AND SWAP1 DUP4 PUSH20 0xFFFFFFFFFFFFFFFFFFFFFFFFFFFFFFFFFFFFFFFF AND MUL OR SWAP1 SSTORE POP POP POP POP JUMP JUMPDEST PUSH0 PUSH1 0x1 PUSH0 DUP5 PUSH20 0xFFFFFFFFFFFFFFFFFFFFFFFFFFFFFFFFFFFFFFFF AND PUSH20 0xFFFFFFFFFFFFFFFFFFFFFFFFFFFFFFFFFFFFFFFF AND DUP2 MSTORE PUSH1 0x20 ADD SWAP1 DUP2 MSTORE PUSH1 0x20 ADD PUSH0 KECCAK256 PUSH0 DUP4 PUSH20 0xFFFFFFFFFFFFFFFFFFFFFFFFFFFFFFFFFFFFFFFF AND PUSH20 0xFFFFFFFFFFFFFFFFFFFFFFFFFFFFFFFFFFFFFFFF AND DUP2 MSTORE PUSH1 0x20 ADD SWAP1 DUP2 MSTORE PUSH1 0x20 ADD PUSH0 KECCAK256 SLOAD SWAP1 POP SWAP3 SWAP2 POP POP JUMP JUMPDEST PUSH0 PUSH1 0xD SLOAD TIMESTAMP PUSH2 0x13C8 SWAP2 SWAP1 PUSH2 0x2892 JUMP JUMPDEST PUSH1 0xE DUP2 SWAP1 SSTORE POP PUSH0 PUSH1 0x3C PUSH1 0xB SLOAD PUSH1 0xE SLOAD PUSH2 0x13E1 SWAP2 SWAP1 PUSH2 0x2818 JUMP JUMPDEST PUSH2 0x13EB SWAP2 SWAP1 PUSH2 0x2DBC JUMP JUMPDEST SWAP1 POP PUSH2 0x13F6 DUP2 PUSH2 0x1C32 JUMP JUMPDEST DUP1 SWAP2 POP POP SWAP1 JUMP JUMPDEST PUSH1 0x1 DUP1 PUSH1 0x2 DUP2 GT ISZERO PUSH2 0x1412 JUMPI PUSH2 0x1411 PUSH2 0x2036 JUMP JUMPDEST JUMPDEST PUSH1 0x10 PUSH0 CALLER PUSH20 0xFFFFFFFFFFFFFFFFFFFFFFFFFFFFFFFFFFFFFFFF AND PUSH20 0xFFFFFFFFFFFFFFFFFFFFFFFFFFFFFFFFFFFFFFFF AND DUP2 MSTORE PUSH1 0x20 ADD SWAP1 DUP2 MSTORE PUSH1 0x20 ADD PUSH0 KECCAK256 PUSH0 SWAP1 SLOAD SWAP1 PUSH2 0x100 EXP SWAP1 DIV PUSH1 0xFF AND PUSH1 0x2 DUP2 GT ISZERO PUSH2 0x146E JUMPI PUSH2 0x146D PUSH2 0x2036 JUMP JUMPDEST JUMPDEST EQ PUSH2 0x14AE JUMPI PUSH1 0x40 MLOAD PUSH32 0x8C379A000000000000000000000000000000000000000000000000000000000 DUP2 MSTORE PUSH1 0x4 ADD PUSH2 0x14A5 SWAP1 PUSH2 0x295B JUMP JUMPDEST PUSH1 0x40 MLOAD DUP1 SWAP2 SUB SWAP1 REVERT JUMPDEST DUP2 ISZERO PUSH2 0x155B JUMPI PUSH1 0x12 PUSH1 0x11 DUP5 DUP2 SLOAD DUP2 LT PUSH2 0x14CA JUMPI PUSH2 0x14C9 PUSH2 0x2604 JUMP JUMPDEST JUMPDEST SWAP1 PUSH0 MSTORE PUSH1 0x20 PUSH0 KECCAK256 SWAP1 PUSH1 0x2 MUL ADD PUSH1 0x1 ADD PUSH0 SWAP1 SLOAD SWAP1 PUSH2 0x100 EXP SWAP1 DIV PUSH20 0xFFFFFFFFFFFFFFFFFFFFFFFFFFFFFFFFFFFFFFFF AND SWAP1 DUP1 PUSH1 0x1 DUP2 SLOAD ADD DUP1 DUP3 SSTORE DUP1 SWAP2 POP POP PUSH1 0x1 SWAP1 SUB SWAP1 PUSH0 MSTORE PUSH1 0x20 PUSH0 KECCAK256 ADD PUSH0 SWAP1 SWAP2 SWAP1 SWAP2 SWAP1 SWAP2 PUSH2 0x100 EXP DUP2 SLOAD DUP2 PUSH20 0xFFFFFFFFFFFFFFFFFFFFFFFFFFFFFFFFFFFFFFFF MUL NOT AND SWAP1 DUP4 PUSH20 0xFFFFFFFFFFFFFFFFFFFFFFFFFFFFFFFFFFFFFFFF AND MUL OR SWAP1 SSTORE POP PUSH2 0x15B3 JUMP JUMPDEST PUSH1 0x11 DUP4 DUP2 SLOAD DUP2 LT PUSH2 0x156F JUMPI PUSH2 0x156E PUSH2 0x2604 JUMP JUMPDEST JUMPDEST SWAP1 PUSH0 MSTORE PUSH1 0x20 PUSH0 KECCAK256 SWAP1 PUSH1 0x2 MUL ADD PUSH0 DUP1 DUP3 ADD PUSH0 PUSH2 0x158A SWAP2 SWAP1 PUSH2 0x1D19 JUMP JUMPDEST PUSH1 0x1 DUP3 ADD PUSH0 PUSH2 0x100 EXP DUP2 SLOAD SWAP1 PUSH20 0xFFFFFFFFFFFFFFFFFFFFFFFFFFFFFFFFFFFFFFFF MUL NOT AND SWAP1 SSTORE POP POP JUMPDEST POP POP POP JUMP JUMPDEST PUSH1 0x7 SLOAD DUP2 JUMP JUMPDEST PUSH1 0xA PUSH2 0x15C8 PUSH2 0x13B9 JUMP JUMPDEST LT ISZERO PUSH2 0x1609 JUMPI PUSH1 0x40 MLOAD PUSH32 0x8C379A000000000000000000000000000000000000000000000000000000000 DUP2 MSTORE PUSH1 0x4 ADD PUSH2 0x1600 SWAP1 PUSH2 0x2E5C JUMP JUMPDEST PUSH1 0x40 MLOAD DUP1 SWAP2 SUB SWAP1 REVERT JUMPDEST PUSH2 0x1388 DUP2 GT ISZERO PUSH2 0x164E JUMPI PUSH1 0x40 MLOAD PUSH32 0x8C379A000000000000000000000000000000000000000000000000000000000 DUP2 MSTORE PUSH1 0x4 ADD PUSH2 0x1645 SWAP1 PUSH2 0x2EEA JUMP JUMPDEST PUSH1 0x40 MLOAD DUP1 SWAP2 SUB SWAP1 REVERT JUMPDEST PUSH0 PUSH1 0x8 SLOAD GT PUSH2 0x1692 JUMPI PUSH1 0x40 MLOAD PUSH32 0x8C379A000000000000000000000000000000000000000000000000000000000 DUP2 MSTORE PUSH1 0x4 ADD PUSH2 0x1689 SWAP1 PUSH2 0x2F78 JUMP JUMPDEST PUSH1 0x40 MLOAD DUP1 SWAP2 SUB SWAP1 REVERT JUMPDEST PUSH2 0x16DC PUSH1 0xF PUSH0 SWAP1 SLOAD SWAP1 PUSH2 0x100 EXP SWAP1 DIV PUSH20 0xFFFFFFFFFFFFFFFFFFFFFFFFFFFFFFFFFFFFFFFF AND CALLER PUSH2 0x16C0 PUSH2 0xC34 JUMP JUMPDEST PUSH1 0xA PUSH2 0x16CC SWAP2 SWAP1 PUSH2 0x278D JUMP JUMPDEST DUP5 PUSH2 0x16D7 SWAP2 SWAP1 PUSH2 0x27D7 JUMP JUMPDEST PUSH2 0x19C6 JUMP JUMPDEST PUSH2 0x16E4 PUSH2 0xC34 JUMP JUMPDEST PUSH1 0xA PUSH2 0x16F0 SWAP2 SWAP1 PUSH2 0x278D JUMP JUMPDEST DUP2 PUSH2 0x16FB SWAP2 SWAP1 PUSH2 0x27D7 JUMP JUMPDEST PUSH1 0x8 PUSH0 DUP3 DUP3 SLOAD PUSH2 0x170B SWAP2 SWAP1 PUSH2 0x2818 JUMP JUMPDEST SWAP3 POP POP DUP2 SWAP1 SSTORE POP CALLER PUSH20 0xFFFFFFFFFFFFFFFFFFFFFFFFFFFFFFFFFFFFFFFF AND PUSH2 0x8FC PUSH7 0x38D7EA4C68000 DUP4 PUSH2 0x173F SWAP2 SWAP1 PUSH2 0x27D7 JUMP JUMPDEST SWAP1 DUP2 ISZERO MUL SWAP1 PUSH1 0x40 MLOAD PUSH0 PUSH1 0x40 MLOAD DUP1 DUP4 SUB DUP2 DUP6 DUP9 DUP9 CALL SWAP4 POP POP POP POP ISZERO DUP1 ISZERO PUSH2 0x1767 JUMPI RETURNDATASIZE PUSH0 DUP1 RETURNDATACOPY RETURNDATASIZE PUSH0 REVERT JUMPDEST POP POP JUMP JUMPDEST PUSH1 0xB SLOAD DUP2 JUMP JUMPDEST PUSH0 CALLER SWAP1 POP SWAP1 JUMP JUMPDEST PUSH0 PUSH20 0xFFFFFFFFFFFFFFFFFFFFFFFFFFFFFFFFFFFFFFFF AND DUP4 PUSH20 0xFFFFFFFFFFFFFFFFFFFFFFFFFFFFFFFFFFFFFFFF AND SUB PUSH2 0x17E6 JUMPI PUSH1 0x40 MLOAD PUSH32 0x8C379A000000000000000000000000000000000000000000000000000000000 DUP2 MSTORE PUSH1 0x4 ADD PUSH2 0x17DD SWAP1 PUSH2 0x3006 JUMP JUMPDEST PUSH1 0x40 MLOAD DUP1 SWAP2 SUB SWAP1 REVERT JUMPDEST PUSH0 PUSH20 0xFFFFFFFFFFFFFFFFFFFFFFFFFFFFFFFFFFFFFFFF AND DUP3 PUSH20 0xFFFFFFFFFFFFFFFFFFFFFFFFFFFFFFFFFFFFFFFF AND SUB PUSH2 0x1854 JUMPI PUSH1 0x40 MLOAD PUSH32 0x8C379A000000000000000000000000000000000000000000000000000000000 DUP2 MSTORE PUSH1 0x4 ADD PUSH2 0x184B SWAP1 PUSH2 0x3094 JUMP JUMPDEST PUSH1 0x40 MLOAD DUP1 SWAP2 SUB SWAP1 REVERT JUMPDEST DUP1 PUSH1 0x1 PUSH0 DUP6 PUSH20 0xFFFFFFFFFFFFFFFFFFFFFFFFFFFFFFFFFFFFFFFF AND PUSH20 0xFFFFFFFFFFFFFFFFFFFFFFFFFFFFFFFFFFFFFFFF AND DUP2 MSTORE PUSH1 0x20 ADD SWAP1 DUP2 MSTORE PUSH1 0x20 ADD PUSH0 KECCAK256 PUSH0 DUP5 PUSH20 0xFFFFFFFFFFFFFFFFFFFFFFFFFFFFFFFFFFFFFFFF AND PUSH20 0xFFFFFFFFFFFFFFFFFFFFFFFFFFFFFFFFFFFFFFFF AND DUP2 MSTORE PUSH1 0x20 ADD SWAP1 DUP2 MSTORE PUSH1 0x20 ADD PUSH0 KECCAK256 DUP2 SWAP1 SSTORE POP DUP2 PUSH20 0xFFFFFFFFFFFFFFFFFFFFFFFFFFFFFFFFFFFFFFFF AND DUP4 PUSH20 0xFFFFFFFFFFFFFFFFFFFFFFFFFFFFFFFFFFFFFFFF AND PUSH32 0x8C5BE1E5EBEC7D5BD14F71427D1E84F3DD0314C0F7B2291E5B200AC8C7C3B925 DUP4 PUSH1 0x40 MLOAD PUSH2 0x192E SWAP2 SWAP1 PUSH2 0x1F43 JUMP JUMPDEST PUSH1 0x40 MLOAD DUP1 SWAP2 SUB SWAP1 LOG3 POP POP POP JUMP JUMPDEST PUSH0 PUSH2 0x1946 DUP5 DUP5 PUSH2 0x1337 JUMP JUMPDEST SWAP1 POP PUSH32 0xFFFFFFFFFFFFFFFFFFFFFFFFFFFFFFFFFFFFFFFFFFFFFFFFFFFFFFFFFFFFFFFF DUP2 EQ PUSH2 0x19C0 JUMPI DUP2 DUP2 LT ISZERO PUSH2 0x19B2 JUMPI PUSH1 0x40 MLOAD PUSH32 0x8C379A000000000000000000000000000000000000000000000000000000000 DUP2 MSTORE PUSH1 0x4 ADD PUSH2 0x19A9 SWAP1 PUSH2 0x30FC JUMP JUMPDEST PUSH1 0x40 MLOAD DUP1 SWAP2 SUB SWAP1 REVERT JUMPDEST PUSH2 0x19BF DUP5 DUP5 DUP5 DUP5 SUB PUSH2 0x1778 JUMP JUMPDEST JUMPDEST POP POP POP POP JUMP JUMPDEST PUSH0 PUSH20 0xFFFFFFFFFFFFFFFFFFFFFFFFFFFFFFFFFFFFFFFF AND DUP4 PUSH20 0xFFFFFFFFFFFFFFFFFFFFFFFFFFFFFFFFFFFFFFFF AND SUB PUSH2 0x1A34 JUMPI PUSH1 0x40 MLOAD PUSH32 0x8C379A000000000000000000000000000000000000000000000000000000000 DUP2 MSTORE PUSH1 0x4 ADD PUSH2 0x1A2B SWAP1 PUSH2 0x318A JUMP JUMPDEST PUSH1 0x40 MLOAD DUP1 SWAP2 SUB SWAP1 REVERT JUMPDEST PUSH0 PUSH20 0xFFFFFFFFFFFFFFFFFFFFFFFFFFFFFFFFFFFFFFFF AND DUP3 PUSH20 0xFFFFFFFFFFFFFFFFFFFFFFFFFFFFFFFFFFFFFFFF AND SUB PUSH2 0x1AA2 JUMPI PUSH1 0x40 MLOAD PUSH32 0x8C379A000000000000000000000000000000000000000000000000000000000 DUP2 MSTORE PUSH1 0x4 ADD PUSH2 0x1A99 SWAP1 PUSH2 0x3218 JUMP JUMPDEST PUSH1 0x40 MLOAD DUP1 SWAP2 SUB SWAP1 REVERT JUMPDEST PUSH2 0x1AAD DUP4 DUP4 DUP4 PUSH2 0x1CCB JUMP JUMPDEST PUSH0 DUP1 PUSH0 DUP6 PUSH20 0xFFFFFFFFFFFFFFFFFFFFFFFFFFFFFFFFFFFFFFFF AND PUSH20 0xFFFFFFFFFFFFFFFFFFFFFFFFFFFFFFFFFFFFFFFF AND DUP2 MSTORE PUSH1 0x20 ADD SWAP1 DUP2 MSTORE PUSH1 0x20 ADD PUSH0 KECCAK256 SLOAD SWAP1 POP DUP2 DUP2 LT ISZERO PUSH2 0x1B30 JUMPI PUSH1 0x40 MLOAD PUSH32 0x8C379A000000000000000000000000000000000000000000000000000000000 DUP2 MSTORE PUSH1 0x4 ADD PUSH2 0x1B27 SWAP1 PUSH2 0x32A6 JUMP JUMPDEST PUSH1 0x40 MLOAD DUP1 SWAP2 SUB SWAP1 REVERT JUMPDEST DUP2 DUP2 SUB PUSH0 DUP1 DUP7 PUSH20 0xFFFFFFFFFFFFFFFFFFFFFFFFFFFFFFFFFFFFFFFF AND PUSH20 0xFFFFFFFFFFFFFFFFFFFFFFFFFFFFFFFFFFFFFFFF AND DUP2 MSTORE PUSH1 0x20 ADD SWAP1 DUP2 MSTORE PUSH1 0x20 ADD PUSH0 KECCAK256 DUP2 SWAP1 SSTORE POP DUP2 PUSH0 DUP1 DUP6 PUSH20 0xFFFFFFFFFFFFFFFFFFFFFFFFFFFFFFFFFFFFFFFF AND PUSH20 0xFFFFFFFFFFFFFFFFFFFFFFFFFFFFFFFFFFFFFFFF AND DUP2 MSTORE PUSH1 0x20 ADD SWAP1 DUP2 MSTORE PUSH1 0x20 ADD PUSH0 KECCAK256 PUSH0 DUP3 DUP3 SLOAD ADD SWAP3 POP POP DUP2 SWAP1 SSTORE POP DUP3 PUSH20 0xFFFFFFFFFFFFFFFFFFFFFFFFFFFFFFFFFFFFFFFF AND DUP5 PUSH20 0xFFFFFFFFFFFFFFFFFFFFFFFFFFFFFFFFFFFFFFFF AND PUSH32 0xDDF252AD1BE2C89B69C2B068FC378DAA952BA7F163C4A11628F55A4DF523B3EF DUP5 PUSH1 0x40 MLOAD PUSH2 0x1C19 SWAP2 SWAP1 PUSH2 0x1F43 JUMP JUMPDEST PUSH1 0x40 MLOAD DUP1 SWAP2 SUB SWAP1 LOG3 PUSH2 0x1C2C DUP5 DUP5 DUP5 PUSH2 0x1CD0 JUMP JUMPDEST POP POP POP POP JUMP JUMPDEST PUSH2 0x1CC8 DUP2 PUSH1 0x40 MLOAD PUSH1 0x24 ADD PUSH2 0x1C46 SWAP2 SWAP1 PUSH2 0x1F43 JUMP JUMPDEST PUSH1 0x40 MLOAD PUSH1 0x20 DUP2 DUP4 SUB SUB DUP2 MSTORE SWAP1 PUSH1 0x40 MSTORE PUSH32 0xF82C50F100000000000000000000000000000000000000000000000000000000 PUSH28 0xFFFFFFFFFFFFFFFFFFFFFFFFFFFFFFFFFFFFFFFFFFFFFFFFFFFFFFFF NOT AND PUSH1 0x20 DUP3 ADD DUP1 MLOAD PUSH28 0xFFFFFFFFFFFFFFFFFFFFFFFFFFFFFFFFFFFFFFFFFFFFFFFFFFFFFFFF DUP4 DUP2 DUP4 AND OR DUP4 MSTORE POP POP POP POP PUSH2 0x1CD5 JUMP JUMPDEST POP JUMP JUMPDEST POP POP POP JUMP JUMPDEST POP POP POP JUMP JUMPDEST PUSH2 0x1CEC DUP2 PUSH2 0x1CE4 PUSH2 0x1CEF PUSH2 0x1D0E JUMP JUMPDEST PUSH4 0xFFFFFFFF AND JUMP JUMPDEST POP JUMP JUMPDEST PUSH0 PUSH11 0x636F6E736F6C652E6C6F67 SWAP1 POP PUSH0 DUP1 DUP4 MLOAD PUSH1 0x20 DUP6 ADD DUP5 GAS STATICCALL POP POP POP JUMP JUMPDEST PUSH2 0x1D56 DUP2 SWAP1 POP SWAP2 SWAP1 POP JUMP JUMPDEST POP DUP1 SLOAD PUSH2 0x1D25 SWAP1 PUSH2 0x239C JUMP JUMPDEST PUSH0 DUP3 SSTORE DUP1 PUSH1 0x1F LT PUSH2 0x1D36 JUMPI POP PUSH2 0x1D53 JUMP JUMPDEST PUSH1 0x1F ADD PUSH1 0x20 SWAP1 DIV SWAP1 PUSH0 MSTORE PUSH1 0x20 PUSH0 KECCAK256 SWAP1 DUP2 ADD SWAP1 PUSH2 0x1D52 SWAP2 SWAP1 PUSH2 0x1D60 JUMP JUMPDEST JUMPDEST POP JUMP JUMPDEST PUSH2 0x1D5E PUSH2 0x32C4 JUMP JUMPDEST JUMP JUMPDEST JUMPDEST DUP1 DUP3 GT ISZERO PUSH2 0x1D77 JUMPI PUSH0 DUP2 PUSH0 SWAP1 SSTORE POP PUSH1 0x1 ADD PUSH2 0x1D61 JUMP JUMPDEST POP SWAP1 JUMP JUMPDEST PUSH0 DUP2 MLOAD SWAP1 POP SWAP2 SWAP1 POP JUMP JUMPDEST PUSH0 DUP3 DUP3 MSTORE PUSH1 0x20 DUP3 ADD SWAP1 POP SWAP3 SWAP2 POP POP JUMP JUMPDEST PUSH0 JUMPDEST DUP4 DUP2 LT ISZERO PUSH2 0x1DB2 JUMPI DUP1 DUP3 ADD MLOAD DUP2 DUP5 ADD MSTORE PUSH1 0x20 DUP2 ADD SWAP1 POP PUSH2 0x1D97 JUMP JUMPDEST PUSH0 DUP5 DUP5 ADD MSTORE POP POP POP POP JUMP JUMPDEST PUSH0 PUSH1 0x1F NOT PUSH1 0x1F DUP4 ADD AND SWAP1 POP SWAP2 SWAP1 POP JUMP JUMPDEST PUSH0 PUSH2 0x1DD7 DUP3 PUSH2 0x1D7B JUMP JUMPDEST PUSH2 0x1DE1 DUP2 DUP6 PUSH2 0x1D85 JUMP JUMPDEST SWAP4 POP PUSH2 0x1DF1 DUP2 DUP6 PUSH1 0x20 DUP7 ADD PUSH2 0x1D95 JUMP JUMPDEST PUSH2 0x1DFA DUP2 PUSH2 0x1DBD JUMP JUMPDEST DUP5 ADD SWAP2 POP POP SWAP3 SWAP2 POP POP JUMP JUMPDEST PUSH0 PUSH1 0x20 DUP3 ADD SWAP1 POP DUP2 DUP2 SUB PUSH0 DUP4 ADD MSTORE PUSH2 0x1E1D DUP2 DUP5 PUSH2 0x1DCD JUMP JUMPDEST SWAP1 POP SWAP3 SWAP2 POP POP JUMP JUMPDEST PUSH0 PUSH1 0x40 MLOAD SWAP1 POP SWAP1 JUMP JUMPDEST PUSH0 DUP1 REVERT JUMPDEST PUSH0 DUP1 REVERT JUMPDEST PUSH0 PUSH20 0xFFFFFFFFFFFFFFFFFFFFFFFFFFFFFFFFFFFFFFFF DUP3 AND SWAP1 POP SWAP2 SWAP1 POP JUMP JUMPDEST PUSH0 PUSH2 0x1E5F DUP3 PUSH2 0x1E36 JUMP JUMPDEST SWAP1 POP SWAP2 SWAP1 POP JUMP JUMPDEST PUSH2 0x1E6F DUP2 PUSH2 0x1E55 JUMP JUMPDEST DUP2 EQ PUSH2 0x1E79 JUMPI PUSH0 DUP1 REVERT JUMPDEST POP JUMP JUMPDEST PUSH0 DUP2 CALLDATALOAD SWAP1 POP PUSH2 0x1E8A DUP2 PUSH2 0x1E66 JUMP JUMPDEST SWAP3 SWAP2 POP POP JUMP JUMPDEST PUSH0 DUP2 SWAP1 POP SWAP2 SWAP1 POP JUMP JUMPDEST PUSH2 0x1EA2 DUP2 PUSH2 0x1E90 JUMP JUMPDEST DUP2 EQ PUSH2 0x1EAC JUMPI PUSH0 DUP1 REVERT JUMPDEST POP JUMP JUMPDEST PUSH0 DUP2 CALLDATALOAD SWAP1 POP PUSH2 0x1EBD DUP2 PUSH2 0x1E99 JUMP JUMPDEST SWAP3 SWAP2 POP POP JUMP JUMPDEST PUSH0 DUP1 PUSH1 0x40 DUP4 DUP6 SUB SLT ISZERO PUSH2 0x1ED9 JUMPI PUSH2 0x1ED8 PUSH2 0x1E2E JUMP JUMPDEST JUMPDEST PUSH0 PUSH2 0x1EE6 DUP6 DUP3 DUP7 ADD PUSH2 0x1E7C JUMP JUMPDEST SWAP3 POP POP PUSH1 0x20 PUSH2 0x1EF7 DUP6 DUP3 DUP7 ADD PUSH2 0x1EAF JUMP JUMPDEST SWAP2 POP POP SWAP3 POP SWAP3 SWAP1 POP JUMP JUMPDEST PUSH0 DUP2 ISZERO ISZERO SWAP1 POP SWAP2 SWAP1 POP JUMP JUMPDEST PUSH2 0x1F15 DUP2 PUSH2 0x1F01 JUMP JUMPDEST DUP3 MSTORE POP POP JUMP JUMPDEST PUSH0 PUSH1 0x20 DUP3 ADD SWAP1 POP PUSH2 0x1F2E PUSH0 DUP4 ADD DUP5 PUSH2 0x1F0C JUMP JUMPDEST SWAP3 SWAP2 POP POP JUMP JUMPDEST PUSH2 0x1F3D DUP2 PUSH2 0x1E90 JUMP JUMPDEST DUP3 MSTORE POP POP JUMP JUMPDEST PUSH0 PUSH1 0x20 DUP3 ADD SWAP1 POP PUSH2 0x1F56 PUSH0 DUP4 ADD DUP5 PUSH2 0x1F34 JUMP JUMPDEST SWAP3 SWAP2 POP POP JUMP JUMPDEST PUSH0 DUP1 PUSH0 PUSH1 0x60 DUP5 DUP7 SUB SLT ISZERO PUSH2 0x1F73 JUMPI PUSH2 0x1F72 PUSH2 0x1E2E JUMP JUMPDEST JUMPDEST PUSH0 PUSH2 0x1F80 DUP7 DUP3 DUP8 ADD PUSH2 0x1E7C JUMP JUMPDEST SWAP4 POP POP PUSH1 0x20 PUSH2 0x1F91 DUP7 DUP3 DUP8 ADD PUSH2 0x1E7C JUMP JUMPDEST SWAP3 POP POP PUSH1 0x40 PUSH2 0x1FA2 DUP7 DUP3 DUP8 ADD PUSH2 0x1EAF JUMP JUMPDEST SWAP2 POP POP SWAP3 POP SWAP3 POP SWAP3 JUMP JUMPDEST PUSH0 PUSH1 0x20 DUP3 DUP5 SUB SLT ISZERO PUSH2 0x1FC1 JUMPI PUSH2 0x1FC0 PUSH2 0x1E2E JUMP JUMPDEST JUMPDEST PUSH0 PUSH2 0x1FCE DUP5 DUP3 DUP6 ADD PUSH2 0x1EAF JUMP JUMPDEST SWAP2 POP POP SWAP3 SWAP2 POP POP JUMP JUMPDEST PUSH0 PUSH1 0xFF DUP3 AND SWAP1 POP SWAP2 SWAP1 POP JUMP JUMPDEST PUSH2 0x1FEC DUP2 PUSH2 0x1FD7 JUMP JUMPDEST DUP3 MSTORE POP POP JUMP JUMPDEST PUSH0 PUSH1 0x20 DUP3 ADD SWAP1 POP PUSH2 0x2005 PUSH0 DUP4 ADD DUP5 PUSH2 0x1FE3 JUMP JUMPDEST SWAP3 SWAP2 POP POP JUMP JUMPDEST PUSH0 PUSH1 0x20 DUP3 DUP5 SUB SLT ISZERO PUSH2 0x2020 JUMPI PUSH2 0x201F PUSH2 0x1E2E JUMP JUMPDEST JUMPDEST PUSH0 PUSH2 0x202D DUP5 DUP3 DUP6 ADD PUSH2 0x1E7C JUMP JUMPDEST SWAP2 POP POP SWAP3 SWAP2 POP POP JUMP JUMPDEST PUSH32 0x4E487B7100000000000000000000000000000000000000000000000000000000 PUSH0 MSTORE PUSH1 0x21 PUSH1 0x4 MSTORE PUSH1 0x24 PUSH0 REVERT JUMPDEST PUSH1 0x3 DUP2 LT PUSH2 0x2074 JUMPI PUSH2 0x2073 PUSH2 0x2036 JUMP JUMPDEST JUMPDEST POP JUMP JUMPDEST PUSH0 DUP2 SWAP1 POP PUSH2 0x2084 DUP3 PUSH2 0x2063 JUMP JUMPDEST SWAP2 SWAP1 POP JUMP JUMPDEST PUSH0 PUSH2 0x2093 DUP3 PUSH2 0x2077 JUMP JUMPDEST SWAP1 POP SWAP2 SWAP1 POP JUMP JUMPDEST PUSH2 0x20A3 DUP2 PUSH2 0x2089 JUMP JUMPDEST DUP3 MSTORE POP POP JUMP JUMPDEST PUSH0 PUSH1 0x20 DUP3 ADD SWAP1 POP PUSH2 0x20BC PUSH0 DUP4 ADD DUP5 PUSH2 0x209A JUMP JUMPDEST SWAP3 SWAP2 POP POP JUMP JUMPDEST PUSH2 0x20CB DUP2 PUSH2 0x1E55 JUMP JUMPDEST DUP3 MSTORE POP POP JUMP JUMPDEST PUSH0 PUSH1 0x20 DUP3 ADD SWAP1 POP PUSH2 0x20E4 PUSH0 DUP4 ADD DUP5 PUSH2 0x20C2 JUMP JUMPDEST SWAP3 SWAP2 POP POP JUMP JUMPDEST PUSH0 DUP1 PUSH1 0x40 DUP4 DUP6 SUB SLT ISZERO PUSH2 0x2100 JUMPI PUSH2 0x20FF PUSH2 0x1E2E JUMP JUMPDEST JUMPDEST PUSH0 PUSH2 0x210D DUP6 DUP3 DUP7 ADD PUSH2 0x1EAF JUMP JUMPDEST SWAP3 POP POP PUSH1 0x20 PUSH2 0x211E DUP6 DUP3 DUP7 ADD PUSH2 0x1E7C JUMP JUMPDEST SWAP2 POP POP SWAP3 POP SWAP3 SWAP1 POP JUMP JUMPDEST PUSH0 PUSH1 0x40 DUP3 ADD SWAP1 POP DUP2 DUP2 SUB PUSH0 DUP4 ADD MSTORE PUSH2 0x2140 DUP2 DUP6 PUSH2 0x1DCD JUMP JUMPDEST SWAP1 POP PUSH2 0x214F PUSH1 0x20 DUP4 ADD DUP5 PUSH2 0x20C2 JUMP JUMPDEST SWAP4 SWAP3 POP POP POP JUMP JUMPDEST PUSH0 DUP1 REVERT JUMPDEST PUSH0 DUP1 REVERT JUMPDEST PUSH32 0x4E487B7100000000000000000000000000000000000000000000000000000000 PUSH0 MSTORE PUSH1 0x41 PUSH1 0x4 MSTORE PUSH1 0x24 PUSH0 REVERT JUMPDEST PUSH2 0x2194 DUP3 PUSH2 0x1DBD JUMP JUMPDEST DUP2 ADD DUP2 DUP2 LT PUSH8 0xFFFFFFFFFFFFFFFF DUP3 GT OR ISZERO PUSH2 0x21B3 JUMPI PUSH2 0x21B2 PUSH2 0x215E JUMP JUMPDEST JUMPDEST DUP1 PUSH1 0x40 MSTORE POP POP POP JUMP JUMPDEST PUSH0 PUSH2 0x21C5 PUSH2 0x1E25 JUMP JUMPDEST SWAP1 POP PUSH2 0x21D1 DUP3 DUP3 PUSH2 0x218B JUMP JUMPDEST SWAP2 SWAP1 POP JUMP JUMPDEST PUSH0 PUSH8 0xFFFFFFFFFFFFFFFF DUP3 GT ISZERO PUSH2 0x21F0 JUMPI PUSH2 0x21EF PUSH2 0x215E JUMP JUMPDEST JUMPDEST PUSH2 0x21F9 DUP3 PUSH2 0x1DBD JUMP JUMPDEST SWAP1 POP PUSH1 0x20 DUP2 ADD SWAP1 POP SWAP2 SWAP1 POP JUMP JUMPDEST DUP3 DUP2 DUP4 CALLDATACOPY PUSH0 DUP4 DUP4 ADD MSTORE POP POP POP JUMP JUMPDEST PUSH0 PUSH2 0x2226 PUSH2 0x2221 DUP5 PUSH2 0x21D6 JUMP JUMPDEST PUSH2 0x21BC JUMP JUMPDEST SWAP1 POP DUP3 DUP2 MSTORE PUSH1 0x20 DUP2 ADD DUP5 DUP5 DUP5 ADD GT ISZERO PUSH2 0x2242 JUMPI PUSH2 0x2241 PUSH2 0x215A JUMP JUMPDEST JUMPDEST PUSH2 0x224D DUP5 DUP3 DUP6 PUSH2 0x2206 JUMP JUMPDEST POP SWAP4 SWAP3 POP POP POP JUMP JUMPDEST PUSH0 DUP3 PUSH1 0x1F DUP4 ADD SLT PUSH2 0x2269 JUMPI PUSH2 0x2268 PUSH2 0x2156 JUMP JUMPDEST JUMPDEST DUP2 CALLDATALOAD PUSH2 0x2279 DUP5 DUP3 PUSH1 0x20 DUP7 ADD PUSH2 0x2214 JUMP JUMPDEST SWAP2 POP POP SWAP3 SWAP2 POP POP JUMP JUMPDEST PUSH0 PUSH1 0x20 DUP3 DUP5 SUB SLT ISZERO PUSH2 0x2297 JUMPI PUSH2 0x2296 PUSH2 0x1E2E JUMP JUMPDEST JUMPDEST PUSH0 DUP3 ADD CALLDATALOAD PUSH8 0xFFFFFFFFFFFFFFFF DUP2 GT ISZERO PUSH2 0x22B4 JUMPI PUSH2 0x22B3 PUSH2 0x1E32 JUMP JUMPDEST JUMPDEST PUSH2 0x22C0 DUP5 DUP3 DUP6 ADD PUSH2 0x2255 JUMP JUMPDEST SWAP2 POP POP SWAP3 SWAP2 POP POP JUMP JUMPDEST PUSH0 DUP1 PUSH1 0x40 DUP4 DUP6 SUB SLT ISZERO PUSH2 0x22DF JUMPI PUSH2 0x22DE PUSH2 0x1E2E JUMP JUMPDEST JUMPDEST PUSH0 PUSH2 0x22EC DUP6 DUP3 DUP7 ADD PUSH2 0x1E7C JUMP JUMPDEST SWAP3 POP POP PUSH1 0x20 PUSH2 0x22FD DUP6 DUP3 DUP7 ADD PUSH2 0x1E7C JUMP JUMPDEST SWAP2 POP POP SWAP3 POP SWAP3 SWAP1 POP JUMP JUMPDEST PUSH2 0x2310 DUP2 PUSH2 0x1F01 JUMP JUMPDEST DUP2 EQ PUSH2 0x231A JUMPI PUSH0 DUP1 REVERT JUMPDEST POP JUMP JUMPDEST PUSH0 DUP2 CALLDATALOAD SWAP1 POP PUSH2 0x232B DUP2 PUSH2 0x2307 JUMP JUMPDEST SWAP3 SWAP2 POP POP JUMP JUMPDEST PUSH0 DUP1 PUSH1 0x40 DUP4 DUP6 SUB SLT ISZERO PUSH2 0x2347 JUMPI PUSH2 0x2346 PUSH2 0x1E2E JUMP JUMPDEST JUMPDEST PUSH0 PUSH2 0x2354 DUP6 DUP3 DUP7 ADD PUSH2 0x1EAF JUMP JUMPDEST SWAP3 POP POP PUSH1 0x20 PUSH2 0x2365 DUP6 DUP3 DUP7 ADD PUSH2 0x231D JUMP JUMPDEST SWAP2 POP POP SWAP3 POP SWAP3 SWAP1 POP JUMP JUMPDEST PUSH32 0x4E487B7100000000000000000000000000000000000000000000000000000000 PUSH0 MSTORE PUSH1 0x22 PUSH1 0x4 MSTORE PUSH1 0x24 PUSH0 REVERT JUMPDEST PUSH0 PUSH1 0x2 DUP3 DIV SWAP1 POP PUSH1 0x1 DUP3 AND DUP1 PUSH2 0x23B3 JUMPI PUSH1 0x7F DUP3 AND SWAP2 POP JUMPDEST PUSH1 0x20 DUP3 LT DUP2 SUB PUSH2 0x23C6 JUMPI PUSH2 0x23C5 PUSH2 0x236F JUMP JUMPDEST JUMPDEST POP SWAP2 SWAP1 POP JUMP JUMPDEST PUSH32 0xD09FD180D0B8D0B2D0B0D182D0BDD0B0D18F20D184D0B0D0B7D0B020D0B5D189 PUSH0 DUP3 ADD MSTORE PUSH32 0xD19120D0BDD0B520D0BDD0B0D187D0B0D0BBD0B0D181D18C0000000000000000 PUSH1 0x20 DUP3 ADD MSTORE POP JUMP JUMPDEST PUSH0 PUSH2 0x2426 PUSH1 0x38 DUP4 PUSH2 0x1D85 JUMP JUMPDEST SWAP2 POP PUSH2 0x2431 DUP3 PUSH2 0x23CC JUMP JUMPDEST PUSH1 0x40 DUP3 ADD SWAP1 POP SWAP2 SWAP1 POP JUMP JUMPDEST PUSH0 PUSH1 0x20 DUP3 ADD SWAP1 POP DUP2 DUP2 SUB PUSH0 DUP4 ADD MSTORE PUSH2 0x2453 DUP2 PUSH2 0x241A JUMP JUMPDEST SWAP1 POP SWAP2 SWAP1 POP JUMP JUMPDEST PUSH32 0xD09FD180D0B8D0B2D0B0D182D0BDD0B0D18F20D184D0B0D0B7D0B020D0B7D0B0 PUSH0 DUP3 ADD MSTORE PUSH32 0xD0BAD0BED0BDD187D0B8D0BBD0B0D181D18C0000000000000000000000000000 PUSH1 0x20 DUP3 ADD MSTORE POP JUMP JUMPDEST PUSH0 PUSH2 0x24B4 PUSH1 0x32 DUP4 PUSH2 0x1D85 JUMP JUMPDEST SWAP2 POP PUSH2 0x24BF DUP3 PUSH2 0x245A JUMP JUMPDEST PUSH1 0x40 DUP3 ADD SWAP1 POP SWAP2 SWAP1 POP JUMP JUMPDEST PUSH0 PUSH1 0x20 DUP3 ADD SWAP1 POP DUP2 DUP2 SUB PUSH0 DUP4 ADD MSTORE PUSH2 0x24E1 DUP2 PUSH2 0x24A8 JUMP JUMPDEST SWAP1 POP SWAP2 SWAP1 POP JUMP JUMPDEST PUSH32 0xD091D0BED0BBD18CD188D0B52031303030303020D0BDD0B5D0BBD18CD0B7D18F PUSH0 DUP3 ADD MSTORE PUSH32 0x20D0BAD183D0BFD0B8D182D18C00000000000000000000000000000000000000 PUSH1 0x20 DUP3 ADD MSTORE POP JUMP JUMPDEST PUSH0 PUSH2 0x2542 PUSH1 0x2D DUP4 PUSH2 0x1D85 JUMP JUMPDEST SWAP2 POP PUSH2 0x254D DUP3 PUSH2 0x24E8 JUMP JUMPDEST PUSH1 0x40 DUP3 ADD SWAP1 POP SWAP2 SWAP1 POP JUMP JUMPDEST PUSH0 PUSH1 0x20 DUP3 ADD SWAP1 POP DUP2 DUP2 SUB PUSH0 DUP4 ADD MSTORE PUSH2 0x256F DUP2 PUSH2 0x2536 JUMP JUMPDEST SWAP1 POP SWAP2 SWAP1 POP JUMP JUMPDEST PUSH32 0x5072697661746520D0BAD0BED0B8D0BDD18B20D0B7D0B0D0BAD0BED0BDD187D0 PUSH0 DUP3 ADD MSTORE PUSH32 0xB8D0BBD0B8D181D18C0000000000000000000000000000000000000000000000 PUSH1 0x20 DUP3 ADD MSTORE POP JUMP JUMPDEST PUSH0 PUSH2 0x25D0 PUSH1 0x29 DUP4 PUSH2 0x1D85 JUMP JUMPDEST SWAP2 POP PUSH2 0x25DB DUP3 PUSH2 0x2576 JUMP JUMPDEST PUSH1 0x40 DUP3 ADD SWAP1 POP SWAP2 SWAP1 POP JUMP JUMPDEST PUSH0 PUSH1 0x20 DUP3 ADD SWAP1 POP DUP2 DUP2 SUB PUSH0 DUP4 ADD MSTORE PUSH2 0x25FD DUP2 PUSH2 0x25C4 JUMP JUMPDEST SWAP1 POP SWAP2 SWAP1 POP JUMP JUMPDEST PUSH32 0x4E487B7100000000000000000000000000000000000000000000000000000000 PUSH0 MSTORE PUSH1 0x32 PUSH1 0x4 MSTORE PUSH1 0x24 PUSH0 REVERT JUMPDEST PUSH32 0x4E487B7100000000000000000000000000000000000000000000000000000000 PUSH0 MSTORE PUSH1 0x11 PUSH1 0x4 MSTORE PUSH1 0x24 PUSH0 REVERT JUMPDEST PUSH0 DUP2 PUSH1 0x1 SHR SWAP1 POP SWAP2 SWAP1 POP JUMP JUMPDEST PUSH0 DUP1 DUP3 SWAP2 POP DUP4 SWAP1 POP JUMPDEST PUSH1 0x1 DUP6 GT ISZERO PUSH2 0x26B3 JUMPI DUP1 DUP7 DIV DUP2 GT ISZERO PUSH2 0x268F JUMPI PUSH2 0x268E PUSH2 0x2631 JUMP JUMPDEST JUMPDEST PUSH1 0x1 DUP6 AND ISZERO PUSH2 0x269E JUMPI DUP1 DUP3 MUL SWAP2 POP JUMPDEST DUP1 DUP2 MUL SWAP1 POP PUSH2 0x26AC DUP6 PUSH2 0x265E JUMP JUMPDEST SWAP5 POP PUSH2 0x2673 JUMP JUMPDEST SWAP5 POP SWAP5 SWAP3 POP POP POP JUMP JUMPDEST PUSH0 DUP3 PUSH2 0x26CB JUMPI PUSH1 0x1 SWAP1 POP PUSH2 0x2786 JUMP JUMPDEST DUP2 PUSH2 0x26D8 JUMPI PUSH0 SWAP1 POP PUSH2 0x2786 JUMP JUMPDEST DUP2 PUSH1 0x1 DUP2 EQ PUSH2 0x26EE JUMPI PUSH1 0x2 DUP2 EQ PUSH2 0x26F8 JUMPI PUSH2 0x2727 JUMP JUMPDEST PUSH1 0x1 SWAP2 POP POP PUSH2 0x2786 JUMP JUMPDEST PUSH1 0xFF DUP5 GT ISZERO PUSH2 0x270A JUMPI PUSH2 0x2709 PUSH2 0x2631 JUMP JUMPDEST JUMPDEST DUP4 PUSH1 0x2 EXP SWAP2 POP DUP5 DUP3 GT ISZERO PUSH2 0x2721 JUMPI PUSH2 0x2720 PUSH2 0x2631 JUMP JUMPDEST JUMPDEST POP PUSH2 0x2786 JUMP JUMPDEST POP PUSH1 0x20 DUP4 LT PUSH2 0x133 DUP4 LT AND PUSH1 0x4E DUP5 LT PUSH1 0xB DUP5 LT AND OR ISZERO PUSH2 0x275C JUMPI DUP3 DUP3 EXP SWAP1 POP DUP4 DUP2 GT ISZERO PUSH2 0x2757 JUMPI PUSH2 0x2756 PUSH2 0x2631 JUMP JUMPDEST JUMPDEST PUSH2 0x2786 JUMP JUMPDEST PUSH2 0x2769 DUP5 DUP5 DUP5 PUSH1 0x1 PUSH2 0x266A JUMP JUMPDEST SWAP3 POP SWAP1 POP DUP2 DUP5 DIV DUP2 GT ISZERO PUSH2 0x2780 JUMPI PUSH2 0x277F PUSH2 0x2631 JUMP JUMPDEST JUMPDEST DUP2 DUP2 MUL SWAP1 POP JUMPDEST SWAP4 SWAP3 POP POP POP JUMP JUMPDEST PUSH0 PUSH2 0x2797 DUP3 PUSH2 0x1E90 JUMP JUMPDEST SWAP2 POP PUSH2 0x27A2 DUP4 PUSH2 0x1FD7 JUMP JUMPDEST SWAP3 POP PUSH2 0x27CF PUSH32 0xFFFFFFFFFFFFFFFFFFFFFFFFFFFFFFFFFFFFFFFFFFFFFFFFFFFFFFFFFFFFFFFF DUP5 DUP5 PUSH2 0x26BC JUMP JUMPDEST SWAP1 POP SWAP3 SWAP2 POP POP JUMP JUMPDEST PUSH0 PUSH2 0x27E1 DUP3 PUSH2 0x1E90 JUMP JUMPDEST SWAP2 POP PUSH2 0x27EC DUP4 PUSH2 0x1E90 JUMP JUMPDEST SWAP3 POP DUP3 DUP3 MUL PUSH2 0x27FA DUP2 PUSH2 0x1E90 JUMP JUMPDEST SWAP2 POP DUP3 DUP3 DIV DUP5 EQ DUP4 ISZERO OR PUSH2 0x2811 JUMPI PUSH2 0x2810 PUSH2 0x2631 JUMP JUMPDEST JUMPDEST POP SWAP3 SWAP2 POP POP JUMP JUMPDEST PUSH0 PUSH2 0x2822 DUP3 PUSH2 0x1E90 JUMP JUMPDEST SWAP2 POP PUSH2 0x282D DUP4 PUSH2 0x1E90 JUMP JUMPDEST SWAP3 POP DUP3 DUP3 SUB SWAP1 POP DUP2 DUP2 GT ISZERO PUSH2 0x2845 JUMPI PUSH2 0x2844 PUSH2 0x2631 JUMP JUMPDEST JUMPDEST SWAP3 SWAP2 POP POP JUMP JUMPDEST PUSH0 PUSH2 0x2855 DUP3 PUSH2 0x1E90 JUMP JUMPDEST SWAP2 POP PUSH32 0xFFFFFFFFFFFFFFFFFFFFFFFFFFFFFFFFFFFFFFFFFFFFFFFFFFFFFFFFFFFFFFFF DUP3 SUB PUSH2 0x2887 JUMPI PUSH2 0x2886 PUSH2 0x2631 JUMP JUMPDEST JUMPDEST PUSH1 0x1 DUP3 ADD SWAP1 POP SWAP2 SWAP1 POP JUMP JUMPDEST PUSH0 PUSH2 0x289C DUP3 PUSH2 0x1E90 JUMP JUMPDEST SWAP2 POP PUSH2 0x28A7 DUP4 PUSH2 0x1E90 JUMP JUMPDEST SWAP3 POP DUP3 DUP3 ADD SWAP1 POP DUP1 DUP3 GT ISZERO PUSH2 0x28BF JUMPI PUSH2 0x28BE PUSH2 0x2631 JUMP JUMPDEST JUMPDEST SWAP3 SWAP2 POP POP JUMP JUMPDEST PUSH32 0xD092D0B0D188D0B020D180D0BED0BBD18C20D0BDD0B520D0BFD0BED0B7D0B2D0 PUSH0 DUP3 ADD MSTORE PUSH32 0xBED0BBD18FD0B5D18220D18DD182D0BE20D0B8D181D0BFD0BED0BBD18CD0B7D0 PUSH1 0x20 DUP3 ADD MSTORE PUSH32 0xBED0B2D0B0D182D18C0000000000000000000000000000000000000000000000 PUSH1 0x40 DUP3 ADD MSTORE POP JUMP JUMPDEST PUSH0 PUSH2 0x2945 PUSH1 0x49 DUP4 PUSH2 0x1D85 JUMP JUMPDEST SWAP2 POP PUSH2 0x2950 DUP3 PUSH2 0x28C5 JUMP JUMPDEST PUSH1 0x60 DUP3 ADD SWAP1 POP SWAP2 SWAP1 POP JUMP JUMPDEST PUSH0 PUSH1 0x20 DUP3 ADD SWAP1 POP DUP2 DUP2 SUB PUSH0 DUP4 ADD MSTORE PUSH2 0x2972 DUP2 PUSH2 0x2939 JUMP JUMPDEST SWAP1 POP SWAP2 SWAP1 POP JUMP JUMPDEST PUSH32 0xD092D18B20D0BDD0B520D0B2D0BBD0B0D0B4D0B5D0BBD0B5D18620D0BAD0BED0 PUSH0 DUP3 ADD MSTORE PUSH32 0xBDD182D180D0B0D0BAD182D0B000000000000000000000000000000000000000 PUSH1 0x20 DUP3 ADD MSTORE POP JUMP JUMPDEST PUSH0 PUSH2 0x29D3 PUSH1 0x2D DUP4 PUSH2 0x1D85 JUMP JUMPDEST SWAP2 POP PUSH2 0x29DE DUP3 PUSH2 0x2979 JUMP JUMPDEST PUSH1 0x40 DUP3 ADD SWAP1 POP SWAP2 SWAP1 POP JUMP JUMPDEST PUSH0 PUSH1 0x20 DUP3 ADD SWAP1 POP DUP2 DUP2 SUB PUSH0 DUP4 ADD MSTORE PUSH2 0x2A00 DUP2 PUSH2 0x29C7 JUMP JUMPDEST SWAP1 POP SWAP2 SWAP1 POP JUMP JUMPDEST PUSH32 0xD0A320D0B2D0B0D18120D0BDD0B5D18220D0BED181D182D0B0D182D0BED187D0 PUSH0 DUP3 ADD MSTORE PUSH32 0xBDD18BD18520D0BAD0BED0B8D0BDD0BED0B20000000000000000000000000000 PUSH1 0x20 DUP3 ADD MSTORE POP JUMP JUMPDEST PUSH0 PUSH2 0x2A61 PUSH1 0x32 DUP4 PUSH2 0x1D85 JUMP JUMPDEST SWAP2 POP PUSH2 0x2A6C DUP3 PUSH2 0x2A07 JUMP JUMPDEST PUSH1 0x40 DUP3 ADD SWAP1 POP SWAP2 SWAP1 POP JUMP JUMPDEST PUSH0 PUSH1 0x20 DUP3 ADD SWAP1 POP DUP2 DUP2 SUB PUSH0 DUP4 ADD MSTORE PUSH2 0x2A8E DUP2 PUSH2 0x2A55 JUMP JUMPDEST SWAP1 POP SWAP2 SWAP1 POP JUMP JUMPDEST PUSH32 0x45524332303A2064656372656173656420616C6C6F77616E63652062656C6F77 PUSH0 DUP3 ADD MSTORE PUSH32 0x207A65726F000000000000000000000000000000000000000000000000000000 PUSH1 0x20 DUP3 ADD MSTORE POP JUMP JUMPDEST PUSH0 PUSH2 0x2AEF PUSH1 0x25 DUP4 PUSH2 0x1D85 JUMP JUMPDEST SWAP2 POP PUSH2 0x2AFA DUP3 PUSH2 0x2A95 JUMP JUMPDEST PUSH1 0x40 DUP3 ADD SWAP1 POP SWAP2 SWAP1 POP JUMP JUMPDEST PUSH0 PUSH1 0x20 DUP3 ADD SWAP1 POP DUP2 DUP2 SUB PUSH0 DUP4 ADD MSTORE PUSH2 0x2B1C DUP2 PUSH2 0x2AE3 JUMP JUMPDEST SWAP1 POP SWAP2 SWAP1 POP JUMP JUMPDEST PUSH0 DUP2 SWAP1 POP DUP2 PUSH0 MSTORE PUSH1 0x20 PUSH0 KECCAK256 SWAP1 POP SWAP2 SWAP1 POP JUMP JUMPDEST PUSH0 PUSH1 0x20 PUSH1 0x1F DUP4 ADD DIV SWAP1 POP SWAP2 SWAP1 POP JUMP JUMPDEST PUSH0 DUP3 DUP3 SHL SWAP1 POP SWAP3 SWAP2 POP POP JUMP JUMPDEST PUSH0 PUSH1 0x8 DUP4 MUL PUSH2 0x2B7F PUSH32 0xFFFFFFFFFFFFFFFFFFFFFFFFFFFFFFFFFFFFFFFFFFFFFFFFFFFFFFFFFFFFFFFF DUP3 PUSH2 0x2B44 JUMP JUMPDEST PUSH2 0x2B89 DUP7 DUP4 PUSH2 0x2B44 JUMP JUMPDEST SWAP6 POP DUP1 NOT DUP5 AND SWAP4 POP DUP1 DUP7 AND DUP5 OR SWAP3 POP POP POP SWAP4 SWAP3 POP POP POP JUMP JUMPDEST PUSH0 DUP2 SWAP1 POP SWAP2 SWAP1 POP JUMP JUMPDEST PUSH0 PUSH2 0x2BC4 PUSH2 0x2BBF PUSH2 0x2BBA DUP5 PUSH2 0x1E90 JUMP JUMPDEST PUSH2 0x2BA1 JUMP JUMPDEST PUSH2 0x1E90 JUMP JUMPDEST SWAP1 POP SWAP2 SWAP1 POP JUMP JUMPDEST PUSH0 DUP2 SWAP1 POP SWAP2 SWAP1 POP JUMP JUMPDEST PUSH2 0x2BDD DUP4 PUSH2 0x2BAA JUMP JUMPDEST PUSH2 0x2BF1 PUSH2 0x2BE9 DUP3 PUSH2 0x2BCB JUMP JUMPDEST DUP5 DUP5 SLOAD PUSH2 0x2B50 JUMP JUMPDEST DUP3 SSTORE POP POP POP POP JUMP JUMPDEST PUSH0 SWAP1 JUMP JUMPDEST PUSH2 0x2C05 PUSH2 0x2BF9 JUMP JUMPDEST PUSH2 0x2C10 DUP2 DUP5 DUP5 PUSH2 0x2BD4 JUMP JUMPDEST POP POP POP JUMP JUMPDEST JUMPDEST DUP2 DUP2 LT ISZERO PUSH2 0x2C33 JUMPI PUSH2 0x2C28 PUSH0 DUP3 PUSH2 0x2BFD JUMP JUMPDEST PUSH1 0x1 DUP2 ADD SWAP1 POP PUSH2 0x2C16 JUMP JUMPDEST POP POP JUMP JUMPDEST PUSH1 0x1F DUP3 GT ISZERO PUSH2 0x2C78 JUMPI PUSH2 0x2C49 DUP2 PUSH2 0x2B23 JUMP JUMPDEST PUSH2 0x2C52 DUP5 PUSH2 0x2B35 JUMP JUMPDEST DUP2 ADD PUSH1 0x20 DUP6 LT ISZERO PUSH2 0x2C61 JUMPI DUP2 SWAP1 POP JUMPDEST PUSH2 0x2C75 PUSH2 0x2C6D DUP6 PUSH2 0x2B35 JUMP JUMPDEST DUP4 ADD DUP3 PUSH2 0x2C15 JUMP JUMPDEST POP POP JUMPDEST POP POP POP JUMP JUMPDEST PUSH0 DUP3 DUP3 SHR SWAP1 POP SWAP3 SWAP2 POP POP JUMP JUMPDEST PUSH0 PUSH2 0x2C98 PUSH0 NOT DUP5 PUSH1 0x8 MUL PUSH2 0x2C7D JUMP JUMPDEST NOT DUP1 DUP4 AND SWAP2 POP POP SWAP3 SWAP2 POP POP JUMP JUMPDEST PUSH0 PUSH2 0x2CB0 DUP4 DUP4 PUSH2 0x2C89 JUMP JUMPDEST SWAP2 POP DUP3 PUSH1 0x2 MUL DUP3 OR SWAP1 POP SWAP3 SWAP2 POP POP JUMP JUMPDEST PUSH2 0x2CC9 DUP3 PUSH2 0x1D7B JUMP JUMPDEST PUSH8 0xFFFFFFFFFFFFFFFF DUP2 GT ISZERO PUSH2 0x2CE2 JUMPI PUSH2 0x2CE1 PUSH2 0x215E JUMP JUMPDEST JUMPDEST PUSH2 0x2CEC DUP3 SLOAD PUSH2 0x239C JUMP JUMPDEST PUSH2 0x2CF7 DUP3 DUP3 DUP6 PUSH2 0x2C37 JUMP JUMPDEST PUSH0 PUSH1 0x20 SWAP1 POP PUSH1 0x1F DUP4 GT PUSH1 0x1 DUP2 EQ PUSH2 0x2D28 JUMPI PUSH0 DUP5 ISZERO PUSH2 0x2D16 JUMPI DUP3 DUP8 ADD MLOAD SWAP1 POP JUMPDEST PUSH2 0x2D20 DUP6 DUP3 PUSH2 0x2CA5 JUMP JUMPDEST DUP7 SSTORE POP PUSH2 0x2D87 JUMP JUMPDEST PUSH1 0x1F NOT DUP5 AND PUSH2 0x2D36 DUP7 PUSH2 0x2B23 JUMP JUMPDEST PUSH0 JUMPDEST DUP3 DUP2 LT ISZERO PUSH2 0x2D5D JUMPI DUP5 DUP10 ADD MLOAD DUP3 SSTORE PUSH1 0x1 DUP3 ADD SWAP2 POP PUSH1 0x20 DUP6 ADD SWAP5 POP PUSH1 0x20 DUP2 ADD SWAP1 POP PUSH2 0x2D38 JUMP JUMPDEST DUP7 DUP4 LT ISZERO PUSH2 0x2D7A JUMPI DUP5 DUP10 ADD MLOAD PUSH2 0x2D76 PUSH1 0x1F DUP10 AND DUP3 PUSH2 0x2C89 JUMP JUMPDEST DUP4 SSTORE POP JUMPDEST PUSH1 0x1 PUSH1 0x2 DUP9 MUL ADD DUP9 SSTORE POP POP POP JUMPDEST POP POP POP POP POP POP JUMP JUMPDEST PUSH32 0x4E487B7100000000000000000000000000000000000000000000000000000000 PUSH0 MSTORE PUSH1 0x12 PUSH1 0x4 MSTORE PUSH1 0x24 PUSH0 REVERT JUMPDEST PUSH0 PUSH2 0x2DC6 DUP3 PUSH2 0x1E90 JUMP JUMPDEST SWAP2 POP PUSH2 0x2DD1 DUP4 PUSH2 0x1E90 JUMP JUMPDEST SWAP3 POP DUP3 PUSH2 0x2DE1 JUMPI PUSH2 0x2DE0 PUSH2 0x2D8F JUMP JUMPDEST JUMPDEST DUP3 DUP3 DIV SWAP1 POP SWAP3 SWAP2 POP POP JUMP JUMPDEST PUSH32 0x5075626C696320D184D0B0D0B7D0B020D0B5D189D19120D0BDD0B520D0BDD0B0 PUSH0 DUP3 ADD MSTORE PUSH32 0xD187D0B0D0BBD0B0D181D18C0000000000000000000000000000000000000000 PUSH1 0x20 DUP3 ADD MSTORE POP JUMP JUMPDEST PUSH0 PUSH2 0x2E46 PUSH1 0x2C DUP4 PUSH2 0x1D85 JUMP JUMPDEST SWAP2 POP PUSH2 0x2E51 DUP3 PUSH2 0x2DEC JUMP JUMPDEST PUSH1 0x40 DUP3 ADD SWAP1 POP SWAP2 SWAP1 POP JUMP JUMPDEST PUSH0 PUSH1 0x20 DUP3 ADD SWAP1 POP DUP2 DUP2 SUB PUSH0 DUP4 ADD MSTORE PUSH2 0x2E73 DUP2 PUSH2 0x2E3A JUMP JUMPDEST SWAP1 POP SWAP2 SWAP1 POP JUMP JUMPDEST PUSH32 0xD091D0BED0BBD18CD188D0B5203530303020D0BDD0B5D0BBD18CD0B7D18F20D0 PUSH0 DUP3 ADD MSTORE PUSH32 0xBAD183D0BFD0B8D182D18C000000000000000000000000000000000000000000 PUSH1 0x20 DUP3 ADD MSTORE POP JUMP JUMPDEST PUSH0 PUSH2 0x2ED4 PUSH1 0x2B DUP4 PUSH2 0x1D85 JUMP JUMPDEST SWAP2 POP PUSH2 0x2EDF DUP3 PUSH2 0x2E7A JUMP JUMPDEST PUSH1 0x40 DUP3 ADD SWAP1 POP SWAP2 SWAP1 POP JUMP JUMPDEST PUSH0 PUSH1 0x20 DUP3 ADD SWAP1 POP DUP2 DUP2 SUB PUSH0 DUP4 ADD MSTORE PUSH2 0x2F01 DUP2 PUSH2 0x2EC8 JUMP JUMPDEST SWAP1 POP SWAP2 SWAP1 POP JUMP JUMPDEST PUSH32 0x5075626C696320D0BAD0BED0B8D0BDD18B20D0B7D0B0D0BAD0BED0BDD187D0B8 PUSH0 DUP3 ADD MSTORE PUSH32 0xD0BBD0B8D181D18C000000000000000000000000000000000000000000000000 PUSH1 0x20 DUP3 ADD MSTORE POP JUMP JUMPDEST PUSH0 PUSH2 0x2F62 PUSH1 0x28 DUP4 PUSH2 0x1D85 JUMP JUMPDEST SWAP2 POP PUSH2 0x2F6D DUP3 PUSH2 0x2F08 JUMP JUMPDEST PUSH1 0x40 DUP3 ADD SWAP1 POP SWAP2 SWAP1 POP JUMP JUMPDEST PUSH0 PUSH1 0x20 DUP3 ADD SWAP1 POP DUP2 DUP2 SUB PUSH0 DUP4 ADD MSTORE PUSH2 0x2F8F DUP2 PUSH2 0x2F56 JUMP JUMPDEST SWAP1 POP SWAP2 SWAP1 POP JUMP JUMPDEST PUSH32 0x45524332303A20617070726F76652066726F6D20746865207A65726F20616464 PUSH0 DUP3 ADD MSTORE PUSH32 0x7265737300000000000000000000000000000000000000000000000000000000 PUSH1 0x20 DUP3 ADD MSTORE POP JUMP JUMPDEST PUSH0 PUSH2 0x2FF0 PUSH1 0x24 DUP4 PUSH2 0x1D85 JUMP JUMPDEST SWAP2 POP PUSH2 0x2FFB DUP3 PUSH2 0x2F96 JUMP JUMPDEST PUSH1 0x40 DUP3 ADD SWAP1 POP SWAP2 SWAP1 POP JUMP JUMPDEST PUSH0 PUSH1 0x20 DUP3 ADD SWAP1 POP DUP2 DUP2 SUB PUSH0 DUP4 ADD MSTORE PUSH2 0x301D DUP2 PUSH2 0x2FE4 JUMP JUMPDEST SWAP1 POP SWAP2 SWAP1 POP JUMP JUMPDEST PUSH32 0x45524332303A20617070726F766520746F20746865207A65726F206164647265 PUSH0 DUP3 ADD MSTORE PUSH32 0x7373000000000000000000000000000000000000000000000000000000000000 PUSH1 0x20 DUP3 ADD MSTORE POP JUMP JUMPDEST PUSH0 PUSH2 0x307E PUSH1 0x22 DUP4 PUSH2 0x1D85 JUMP JUMPDEST SWAP2 POP PUSH2 0x3089 DUP3 PUSH2 0x3024 JUMP JUMPDEST PUSH1 0x40 DUP3 ADD SWAP1 POP SWAP2 SWAP1 POP JUMP JUMPDEST PUSH0 PUSH1 0x20 DUP3 ADD SWAP1 POP DUP2 DUP2 SUB PUSH0 DUP4 ADD MSTORE PUSH2 0x30AB DUP2 PUSH2 0x3072 JUMP JUMPDEST SWAP1 POP SWAP2 SWAP1 POP JUMP JUMPDEST PUSH32 0x45524332303A20696E73756666696369656E7420616C6C6F77616E6365000000 PUSH0 DUP3 ADD MSTORE POP JUMP JUMPDEST PUSH0 PUSH2 0x30E6 PUSH1 0x1D DUP4 PUSH2 0x1D85 JUMP JUMPDEST SWAP2 POP PUSH2 0x30F1 DUP3 PUSH2 0x30B2 JUMP JUMPDEST PUSH1 0x20 DUP3 ADD SWAP1 POP SWAP2 SWAP1 POP JUMP JUMPDEST PUSH0 PUSH1 0x20 DUP3 ADD SWAP1 POP DUP2 DUP2 SUB PUSH0 DUP4 ADD MSTORE PUSH2 0x3113 DUP2 PUSH2 0x30DA JUMP JUMPDEST SWAP1 POP SWAP2 SWAP1 POP JUMP JUMPDEST PUSH32 0x45524332303A207472616E736665722066726F6D20746865207A65726F206164 PUSH0 DUP3 ADD MSTORE PUSH32 0x6472657373000000000000000000000000000000000000000000000000000000 PUSH1 0x20 DUP3 ADD MSTORE POP JUMP JUMPDEST PUSH0 PUSH2 0x3174 PUSH1 0x25 DUP4 PUSH2 0x1D85 JUMP JUMPDEST SWAP2 POP PUSH2 0x317F DUP3 PUSH2 0x311A JUMP JUMPDEST PUSH1 0x40 DUP3 ADD SWAP1 POP SWAP2 SWAP1 POP JUMP JUMPDEST PUSH0 PUSH1 0x20 DUP3 ADD SWAP1 POP DUP2 DUP2 SUB PUSH0 DUP4 ADD MSTORE PUSH2 0x31A1 DUP2 PUSH2 0x3168 JUMP JUMPDEST SWAP1 POP SWAP2 SWAP1 POP JUMP JUMPDEST PUSH32 0x45524332303A207472616E7366657220746F20746865207A65726F2061646472 PUSH0 DUP3 ADD MSTORE PUSH32 0x6573730000000000000000000000000000000000000000000000000000000000 PUSH1 0x20 DUP3 ADD MSTORE POP JUMP JUMPDEST PUSH0 PUSH2 0x3202 PUSH1 0x23 DUP4 PUSH2 0x1D85 JUMP JUMPDEST SWAP2 POP PUSH2 0x320D DUP3 PUSH2 0x31A8 JUMP JUMPDEST PUSH1 0x40 DUP3 ADD SWAP1 POP SWAP2 SWAP1 POP JUMP JUMPDEST PUSH0 PUSH1 0x20 DUP3 ADD SWAP1 POP DUP2 DUP2 SUB PUSH0 DUP4 ADD MSTORE PUSH2 0x322F DUP2 PUSH2 0x31F6 JUMP JUMPDEST SWAP1 POP SWAP2 SWAP1 POP JUMP JUMPDEST PUSH32 0x45524332303A207472616E7366657220616D6F756E7420657863656564732062 PUSH0 DUP3 ADD MSTORE PUSH32 0x616C616E63650000000000000000000000000000000000000000000000000000 PUSH1 0x20 DUP3 ADD MSTORE POP JUMP JUMPDEST PUSH0 PUSH2 0x3290 PUSH1 0x26 DUP4 PUSH2 0x1D85 JUMP JUMPDEST SWAP2 POP PUSH2 0x329B DUP3 PUSH2 0x3236 JUMP JUMPDEST PUSH1 0x40 DUP3 ADD SWAP1 POP SWAP2 SWAP1 POP JUMP JUMPDEST PUSH0 PUSH1 0x20 DUP3 ADD SWAP1 POP DUP2 DUP2 SUB PUSH0 DUP4 ADD MSTORE PUSH2 0x32BD DUP2 PUSH2 0x3284 JUMP JUMPDEST SWAP1 POP SWAP2 SWAP1 POP JUMP JUMPDEST PUSH32 0x4E487B7100000000000000000000000000000000000000000000000000000000 PUSH0 MSTORE PUSH1 0x51 PUSH1 0x4 MSTORE PUSH1 0x24 PUSH0 REVERT INVALID 0xD0 SWAP15 0xD0 0xBF 0xD0 0xB5 0xD1 DUP1 0xD0 0xB0 0xD1 DUP7 0xD0 0xB8 0xD1 DUP16 KECCAK256 0xD0 0xBF 0xD1 DUP1 0xD0 0xBE 0xD0 0xB2 0xD0 0xB5 0xD0 0xB4 0xD0 0xB5 0xD0 0xBD 0xD0 0xB0 KECCAK256 0xD1 DUP4 0xD1 DUP2 0xD0 0xBF 0xD0 0xB5 0xD1 DUP9 0xD0 0xBD 0xD0 0xB0 LOG2 PUSH5 0x6970667358 0x22 SLT KECCAK256 0xEF 0xA6 0xC2 0xAE SMOD 0xE4 DUP16 0xB5 STATICCALL 0x2A 0xC3 0xB6 0xA8 PUSH18 0xCFDD2D143229D25267FB757C0885C8256113 PUSH5 0x736F6C6343 STOP ADDMOD ISZERO STOP CALLER "
		},
		"gasEstimates": {
			"creation": {
				"codeDepositCost": "2629000",
				"executionCost": "infinite",
				"totalCost": "infinite"
			},
			"external": {
				"allowance(address,address)": "infinite",
				"approve(address,uint256)": "infinite",
				"approveWhiteList(uint256,bool)": "infinite",
				"balanceOf(address)": "2962",
				"buyPrivateToken(uint256)": "infinite",
				"buyPublicToken(uint256)": "infinite",
				"changePublicPrice(uint256)": "24906",
				"checkTime()": "infinite",
				"decimals()": "450",
				"decreaseAllowance(address,uint256)": "infinite",
				"giveCoinsFromOwner(uint256,address)": "infinite",
				"increaseAllowance(address,uint256)": "infinite",
				"leftBalOwner()": "2515",
				"makePrivateReq(string)": "infinite",
				"name()": "infinite",
				"owner()": "2620",
				"payReward(uint256,address)": "infinite",
				"privateCoins()": "2513",
				"pubCoins()": "2515",
				"publicPrice()": "2470",
				"requests(uint256)": "infinite",
				"seedCoins()": "2470",
				"skipTime(uint256)": "infinite",
				"symbol()": "infinite",
				"timeDif()": "2536",
				"timeNow()": "2492",
				"timeStart()": "2557",
				"timeSystem()": "2516",
				"totalCoins()": "2471",
				"totalSupply()": "2545",
				"transfer(address,uint256)": "infinite",
				"transferFrom(address,address,uint256)": "infinite",
				"updateLeftBalOwner()": "infinite",
				"userRole(address)": "3011",
				"whiteList(uint256)": "5056"
			}
		},
		"methodIdentifiers": {
			"allowance(address,address)": "dd62ed3e",
			"approve(address,uint256)": "095ea7b3",
			"approveWhiteList(uint256,bool)": "ea7d5165",
			"balanceOf(address)": "70a08231",
			"buyPrivateToken(uint256)": "254dc45e",
			"buyPublicToken(uint256)": "f2dfd08f",
			"changePublicPrice(uint256)": "9d7e8d5f",
			"checkTime()": "e0c6190d",
			"decimals()": "313ce567",
			"decreaseAllowance(address,uint256)": "a457c2d7",
			"giveCoinsFromOwner(uint256,address)": "896e8cb1",
			"increaseAllowance(address,uint256)": "39509351",
			"leftBalOwner()": "8afff13f",
			"makePrivateReq(string)": "db8fb88e",
			"name()": "06fdde03",
			"owner()": "8da5cb5b",
			"payReward(uint256,address)": "6515d6c1",
			"privateCoins()": "ec684eb3",
			"pubCoins()": "26f67490",
			"publicPrice()": "a945bf80",
			"requests(uint256)": "81d12c58",
			"seedCoins()": "937be371",
			"skipTime(uint256)": "6dfa00fe",
			"symbol()": "95d89b41",
			"timeDif()": "6ff32b22",
			"timeNow()": "d95660be",
			"timeStart()": "fd74d294",
			"timeSystem()": "13962801",
			"totalCoins()": "32454dbb",
			"totalSupply()": "18160ddd",
			"transfer(address,uint256)": "a9059cbb",
			"transferFrom(address,address,uint256)": "23b872dd",
			"updateLeftBalOwner()": "67198042",
			"userRole(address)": "534f5680",
			"whiteList(uint256)": "5c475d42"
		}
	},
	"abi": [
		{
			"inputs": [],
			"stateMutability": "nonpayable",
			"type": "constructor"
		},
		{
			"anonymous": false,
			"inputs": [
				{
					"indexed": true,
					"internalType": "address",
					"name": "owner",
					"type": "address"
				},
				{
					"indexed": true,
					"internalType": "address",
					"name": "spender",
					"type": "address"
				},
				{
					"indexed": false,
					"internalType": "uint256",
					"name": "value",
					"type": "uint256"
				}
			],
			"name": "Approval",
			"type": "event"
		},
		{
			"anonymous": false,
			"inputs": [
				{
					"indexed": true,
					"internalType": "address",
					"name": "from",
					"type": "address"
				},
				{
					"indexed": true,
					"internalType": "address",
					"name": "to",
					"type": "address"
				},
				{
					"indexed": false,
					"internalType": "uint256",
					"name": "value",
					"type": "uint256"
				}
			],
			"name": "Transfer",
			"type": "event"
		},
		{
			"inputs": [
				{
					"internalType": "address",
					"name": "owner",
					"type": "address"
				},
				{
					"internalType": "address",
					"name": "spender",
					"type": "address"
				}
			],
			"name": "allowance",
			"outputs": [
				{
					"internalType": "uint256",
					"name": "",
					"type": "uint256"
				}
			],
			"stateMutability": "view",
			"type": "function"
		},
		{
			"inputs": [
				{
					"internalType": "address",
					"name": "spender",
					"type": "address"
				},
				{
					"internalType": "uint256",
					"name": "amount",
					"type": "uint256"
				}
			],
			"name": "approve",
			"outputs": [
				{
					"internalType": "bool",
					"name": "",
					"type": "bool"
				}
			],
			"stateMutability": "nonpayable",
			"type": "function"
		},
		{
			"inputs": [
				{
					"internalType": "uint256",
					"name": "_idTicket",
					"type": "uint256"
				},
				{
					"internalType": "bool",
					"name": "status",
					"type": "bool"
				}
			],
			"name": "approveWhiteList",
			"outputs": [],
			"stateMutability": "nonpayable",
			"type": "function"
		},
		{
			"inputs": [
				{
					"internalType": "address",
					"name": "account",
					"type": "address"
				}
			],
			"name": "balanceOf",
			"outputs": [
				{
					"internalType": "uint256",
					"name": "",
					"type": "uint256"
				}
			],
			"stateMutability": "view",
			"type": "function"
		},
		{
			"inputs": [
				{
					"internalType": "uint256",
					"name": "_amount",
					"type": "uint256"
				}
			],
			"name": "buyPrivateToken",
			"outputs": [
				{
					"internalType": "string",
					"name": "",
					"type": "string"
				}
			],
			"stateMutability": "payable",
			"type": "function"
		},
		{
			"inputs": [
				{
					"internalType": "uint256",
					"name": "_amount",
					"type": "uint256"
				}
			],
			"name": "buyPublicToken",
			"outputs": [],
			"stateMutability": "payable",
			"type": "function"
		},
		{
			"inputs": [
				{
					"internalType": "uint256",
					"name": "_newPrice",
					"type": "uint256"
				}
			],
			"name": "changePublicPrice",
			"outputs": [],
			"stateMutability": "nonpayable",
			"type": "function"
		},
		{
			"inputs": [],
			"name": "checkTime",
			"outputs": [
				{
					"internalType": "uint256",
					"name": "",
					"type": "uint256"
				}
			],
			"stateMutability": "nonpayable",
			"type": "function"
		},
		{
			"inputs": [],
			"name": "decimals",
			"outputs": [
				{
					"internalType": "uint8",
					"name": "",
					"type": "uint8"
				}
			],
			"stateMutability": "pure",
			"type": "function"
		},
		{
			"inputs": [
				{
					"internalType": "address",
					"name": "spender",
					"type": "address"
				},
				{
					"internalType": "uint256",
					"name": "subtractedValue",
					"type": "uint256"
				}
			],
			"name": "decreaseAllowance",
			"outputs": [
				{
					"internalType": "bool",
					"name": "",
					"type": "bool"
				}
			],
			"stateMutability": "nonpayable",
			"type": "function"
		},
		{
			"inputs": [
				{
					"internalType": "uint256",
					"name": "_amount",
					"type": "uint256"
				},
				{
					"internalType": "address",
					"name": "_user",
					"type": "address"
				}
			],
			"name": "giveCoinsFromOwner",
			"outputs": [],
			"stateMutability": "nonpayable",
			"type": "function"
		},
		{
			"inputs": [
				{
					"internalType": "address",
					"name": "spender",
					"type": "address"
				},
				{
					"internalType": "uint256",
					"name": "addedValue",
					"type": "uint256"
				}
			],
			"name": "increaseAllowance",
			"outputs": [
				{
					"internalType": "bool",
					"name": "",
					"type": "bool"
				}
			],
			"stateMutability": "nonpayable",
			"type": "function"
		},
		{
			"inputs": [],
			"name": "leftBalOwner",
			"outputs": [
				{
					"internalType": "uint256",
					"name": "",
					"type": "uint256"
				}
			],
			"stateMutability": "view",
			"type": "function"
		},
		{
			"inputs": [
				{
					"internalType": "string",
					"name": "_name",
					"type": "string"
				}
			],
			"name": "makePrivateReq",
			"outputs": [],
			"stateMutability": "nonpayable",
			"type": "function"
		},
		{
			"inputs": [],
			"name": "name",
			"outputs": [
				{
					"internalType": "string",
					"name": "",
					"type": "string"
				}
			],
			"stateMutability": "view",
			"type": "function"
		},
		{
			"inputs": [],
			"name": "owner",
			"outputs": [
				{
					"internalType": "address",
					"name": "",
					"type": "address"
				}
			],
			"stateMutability": "view",
			"type": "function"
		},
		{
			"inputs": [
				{
					"internalType": "uint256",
					"name": "_amount",
					"type": "uint256"
				},
				{
					"internalType": "address",
					"name": "_user",
					"type": "address"
				}
			],
			"name": "payReward",
			"outputs": [],
			"stateMutability": "nonpayable",
			"type": "function"
		},
		{
			"inputs": [],
			"name": "privateCoins",
			"outputs": [
				{
					"internalType": "uint256",
					"name": "",
					"type": "uint256"
				}
			],
			"stateMutability": "view",
			"type": "function"
		},
		{
			"inputs": [],
			"name": "pubCoins",
			"outputs": [
				{
					"internalType": "uint256",
					"name": "",
					"type": "uint256"
				}
			],
			"stateMutability": "view",
			"type": "function"
		},
		{
			"inputs": [],
			"name": "publicPrice",
			"outputs": [
				{
					"internalType": "uint256",
					"name": "",
					"type": "uint256"
				}
			],
			"stateMutability": "view",
			"type": "function"
		},
		{
			"inputs": [
				{
					"internalType": "uint256",
					"name": "",
					"type": "uint256"
				}
			],
			"name": "requests",
			"outputs": [
				{
					"internalType": "string",
					"name": "name",
					"type": "string"
				},
				{
					"internalType": "address",
					"name": "usrAddress",
					"type": "address"
				}
			],
			"stateMutability": "view",
			"type": "function"
		},
		{
			"inputs": [],
			"name": "seedCoins",
			"outputs": [
				{
					"internalType": "uint256",
					"name": "",
					"type": "uint256"
				}
			],
			"stateMutability": "view",
			"type": "function"
		},
		{
			"inputs": [
				{
					"internalType": "uint256",
					"name": "_minutes",
					"type": "uint256"
				}
			],
			"name": "skipTime",
			"outputs": [],
			"stateMutability": "nonpayable",
			"type": "function"
		},
		{
			"inputs": [],
			"name": "symbol",
			"outputs": [
				{
					"internalType": "string",
					"name": "",
					"type": "string"
				}
			],
			"stateMutability": "view",
			"type": "function"
		},
		{
			"inputs": [],
			"name": "timeDif",
			"outputs": [
				{
					"internalType": "uint256",
					"name": "",
					"type": "uint256"
				}
			],
			"stateMutability": "view",
			"type": "function"
		},
		{
			"inputs": [],
			"name": "timeNow",
			"outputs": [
				{
					"internalType": "uint256",
					"name": "",
					"type": "uint256"
				}
			],
			"stateMutability": "view",
			"type": "function"
		},
		{
			"inputs": [],
			"name": "timeStart",
			"outputs": [
				{
					"internalType": "uint256",
					"name": "",
					"type": "uint256"
				}
			],
			"stateMutability": "view",
			"type": "function"
		},
		{
			"inputs": [],
			"name": "timeSystem",
			"outputs": [
				{
					"internalType": "uint256",
					"name": "",
					"type": "uint256"
				}
			],
			"stateMutability": "view",
			"type": "function"
		},
		{
			"inputs": [],
			"name": "totalCoins",
			"outputs": [
				{
					"internalType": "uint256",
					"name": "",
					"type": "uint256"
				}
			],
			"stateMutability": "view",
			"type": "function"
		},
		{
			"inputs": [],
			"name": "totalSupply",
			"outputs": [
				{
					"internalType": "uint256",
					"name": "",
					"type": "uint256"
				}
			],
			"stateMutability": "view",
			"type": "function"
		},
		{
			"inputs": [
				{
					"internalType": "address",
					"name": "to",
					"type": "address"
				},
				{
					"internalType": "uint256",
					"name": "amount",
					"type": "uint256"
				}
			],
			"name": "transfer",
			"outputs": [
				{
					"internalType": "bool",
					"name": "",
					"type": "bool"
				}
			],
			"stateMutability": "nonpayable",
			"type": "function"
		},
		{
			"inputs": [
				{
					"internalType": "address",
					"name": "from",
					"type": "address"
				},
				{
					"internalType": "address",
					"name": "to",
					"type": "address"
				},
				{
					"internalType": "uint256",
					"name": "amount",
					"type": "uint256"
				}
			],
			"name": "transferFrom",
			"outputs": [
				{
					"internalType": "bool",
					"name": "",
					"type": "bool"
				}
			],
			"stateMutability": "nonpayable",
			"type": "function"
		},
		{
			"inputs": [],
			"name": "updateLeftBalOwner",
			"outputs": [],
			"stateMutability": "nonpayable",
			"type": "function"
		},
		{
			"inputs": [
				{
					"internalType": "address",
					"name": "",
					"type": "address"
				}
			],
			"name": "userRole",
			"outputs": [
				{
					"internalType": "enum CryptoMonster.Role",
					"name": "",
					"type": "uint8"
				}
			],
			"stateMutability": "view",
			"type": "function"
		},
		{
			"inputs": [
				{
					"internalType": "uint256",
					"name": "",
					"type": "uint256"
				}
			],
			"name": "whiteList",
			"outputs": [
				{
					"internalType": "address",
					"name": "",
					"type": "address"
				}
			],
			"stateMutability": "view",
			"type": "function"
		}
	]
}